{
  "address": "0x14a9ab43d73a6b7aDF1EF11B7D863E39C04D7178",
  "abi": [
    {
      "inputs": [
        {
          "internalType": "contract IERC3156FlashLender",
          "name": "_flashMinter",
          "type": "address"
        },
        {
          "internalType": "contract ILendingPoolAddressesProvider",
          "name": "_addressesProvider",
          "type": "address"
        },
        {
          "internalType": "contract ILendingPool",
          "name": "_liquidateLender",
          "type": "address"
        },
        {
          "internalType": "contract IAToken",
          "name": "_aDSTABLE",
          "type": "address"
        },
        {
          "internalType": "uint256",
          "name": "_slippageTolerance",
          "type": "uint256"
        },
        {
          "internalType": "contract IOdosRouterV2",
          "name": "_odosRouter",
          "type": "address"
        }
      ],
      "stateMutability": "nonpayable",
      "type": "constructor"
    },
    {
      "inputs": [
        {
          "internalType": "uint256",
          "name": "expected",
          "type": "uint256"
        },
        {
          "internalType": "uint256",
          "name": "actual",
          "type": "uint256"
        }
      ],
      "name": "InsufficientOutputAfterSwap",
      "type": "error"
    },
    {
      "inputs": [],
      "name": "InvalidPTSwapData",
      "type": "error"
    },
    {
      "inputs": [
        {
          "internalType": "uint256",
          "name": "value",
          "type": "uint256"
        }
      ],
      "name": "InvalidSlippageTolerance",
      "type": "error"
    },
    {
      "inputs": [],
      "name": "NoProfitableLiquidation",
      "type": "error"
    },
    {
      "inputs": [
        {
          "internalType": "address",
          "name": "borrowedToken",
          "type": "address"
        },
        {
          "internalType": "string",
          "name": "symbol",
          "type": "string"
        }
      ],
      "name": "NotSupportingNonDSTABLE",
      "type": "error"
    },
    {
      "inputs": [
        {
          "internalType": "string",
          "name": "reason",
          "type": "string"
        }
      ],
      "name": "OdosSwapFailed",
      "type": "error"
    },
    {
      "inputs": [
        {
          "internalType": "address",
          "name": "owner",
          "type": "address"
        }
      ],
      "name": "OwnableInvalidOwner",
      "type": "error"
    },
    {
      "inputs": [
        {
          "internalType": "address",
          "name": "account",
          "type": "address"
        }
      ],
      "name": "OwnableUnauthorizedAccount",
      "type": "error"
    },
    {
      "inputs": [],
      "name": "PTApprovalFailed",
      "type": "error"
    },
    {
      "inputs": [],
      "name": "PendleSwapFailed",
      "type": "error"
    },
    {
      "inputs": [],
      "name": "ReentrancyGuardReentrantCall",
      "type": "error"
    },
    {
      "inputs": [
        {
          "internalType": "address",
          "name": "token",
          "type": "address"
        }
      ],
      "name": "SafeERC20FailedOperation",
      "type": "error"
    },
    {
      "inputs": [],
      "name": "UnknownInitiator",
      "type": "error"
    },
    {
      "inputs": [],
      "name": "UnknownLender",
      "type": "error"
    },
    {
      "anonymous": false,
      "inputs": [
        {
          "indexed": true,
          "internalType": "address",
          "name": "initiator",
          "type": "address"
        },
        {
          "indexed": false,
          "internalType": "uint256",
          "name": "amount",
          "type": "uint256"
        }
      ],
      "name": "FlashLoan",
      "type": "event"
    },
    {
      "anonymous": false,
      "inputs": [
        {
          "indexed": true,
          "internalType": "address",
          "name": "liquidator",
          "type": "address"
        },
        {
          "indexed": false,
          "internalType": "address",
          "name": "borrower",
          "type": "address"
        },
        {
          "indexed": true,
          "internalType": "address",
          "name": "poolTokenBorrowedAddress",
          "type": "address"
        },
        {
          "indexed": true,
          "internalType": "address",
          "name": "poolTokenCollateralAddress",
          "type": "address"
        },
        {
          "indexed": false,
          "internalType": "uint256",
          "name": "amount",
          "type": "uint256"
        },
        {
          "indexed": false,
          "internalType": "uint256",
          "name": "seized",
          "type": "uint256"
        },
        {
          "indexed": false,
          "internalType": "bool",
          "name": "usingFlashLoan",
          "type": "bool"
        }
      ],
      "name": "Liquidated",
      "type": "event"
    },
    {
      "anonymous": false,
      "inputs": [
        {
          "indexed": true,
          "internalType": "address",
          "name": "previousOwner",
          "type": "address"
        },
        {
          "indexed": true,
          "internalType": "address",
          "name": "newOwner",
          "type": "address"
        }
      ],
      "name": "OwnershipTransferred",
      "type": "event"
    },
    {
      "anonymous": false,
      "inputs": [
        {
          "indexed": true,
          "internalType": "address",
          "name": "ptToken",
          "type": "address"
        },
        {
          "indexed": true,
          "internalType": "address",
          "name": "underlyingToken",
          "type": "address"
        },
        {
          "indexed": false,
          "internalType": "uint256",
          "name": "ptAmount",
          "type": "uint256"
        },
        {
          "indexed": false,
          "internalType": "uint256",
          "name": "underlyingReceived",
          "type": "uint256"
        }
      ],
      "name": "PTSwapExecuted",
      "type": "event"
    },
    {
      "anonymous": false,
      "inputs": [
        {
          "indexed": false,
          "internalType": "uint256",
          "name": "newTolerance",
          "type": "uint256"
        }
      ],
      "name": "SlippageToleranceSet",
      "type": "event"
    },
    {
      "anonymous": false,
      "inputs": [
        {
          "indexed": true,
          "internalType": "address",
          "name": "ptToken",
          "type": "address"
        },
        {
          "indexed": true,
          "internalType": "address",
          "name": "underlyingToken",
          "type": "address"
        },
        {
          "indexed": true,
          "internalType": "address",
          "name": "targetToken",
          "type": "address"
        },
        {
          "indexed": false,
          "internalType": "uint256",
          "name": "ptAmount",
          "type": "uint256"
        },
        {
          "indexed": false,
          "internalType": "uint256",
          "name": "underlyingReceived",
          "type": "uint256"
        },
        {
          "indexed": false,
          "internalType": "uint256",
          "name": "targetReceived",
          "type": "uint256"
        }
      ],
      "name": "TwoStageSwapExecuted",
      "type": "event"
    },
    {
      "anonymous": false,
      "inputs": [
        {
          "indexed": true,
          "internalType": "address",
          "name": "sender",
          "type": "address"
        },
        {
          "indexed": true,
          "internalType": "address",
          "name": "receiver",
          "type": "address"
        },
        {
          "indexed": true,
          "internalType": "address",
          "name": "underlyingAddress",
          "type": "address"
        },
        {
          "indexed": false,
          "internalType": "uint256",
          "name": "amount",
          "type": "uint256"
        }
      ],
      "name": "Withdrawn",
      "type": "event"
    },
    {
      "inputs": [],
      "name": "DSTABLE_DECIMALS",
      "outputs": [
        {
          "internalType": "uint256",
          "name": "",
          "type": "uint256"
        }
      ],
      "stateMutability": "view",
      "type": "function"
    },
    {
      "inputs": [],
      "name": "FLASHLOAN_CALLBACK",
      "outputs": [
        {
          "internalType": "bytes32",
          "name": "",
          "type": "bytes32"
        }
      ],
      "stateMutability": "view",
      "type": "function"
    },
    {
      "inputs": [],
      "name": "aDSTABLE",
      "outputs": [
        {
          "internalType": "contract IAToken",
          "name": "",
          "type": "address"
        }
      ],
      "stateMutability": "view",
      "type": "function"
    },
    {
      "inputs": [],
      "name": "addressesProvider",
      "outputs": [
        {
          "internalType": "contract ILendingPoolAddressesProvider",
          "name": "",
          "type": "address"
        }
      ],
      "stateMutability": "view",
      "type": "function"
    },
    {
      "inputs": [
        {
          "internalType": "address",
          "name": "token",
          "type": "address"
        }
      ],
      "name": "checkPTInterface",
      "outputs": [
        {
          "internalType": "bool",
          "name": "",
          "type": "bool"
        }
      ],
      "stateMutability": "view",
      "type": "function"
    },
    {
      "inputs": [],
      "name": "dstable",
      "outputs": [
        {
          "internalType": "contract ERC20",
          "name": "",
          "type": "address"
        }
      ],
      "stateMutability": "view",
      "type": "function"
    },
    {
      "inputs": [],
      "name": "flashMinter",
      "outputs": [
        {
          "internalType": "contract IERC3156FlashLender",
          "name": "",
          "type": "address"
        }
      ],
      "stateMutability": "view",
      "type": "function"
    },
    {
      "inputs": [
        {
          "internalType": "address",
          "name": "_collateralUnderlying",
          "type": "address"
        },
        {
          "internalType": "bool",
          "name": "_isUnstakeCollateralToken",
          "type": "bool"
        }
      ],
      "name": "getActualCollateralToken",
      "outputs": [
        {
          "internalType": "address",
          "name": "actualCollateralToken_",
          "type": "address"
        },
        {
          "internalType": "address",
          "name": "proxyContract_",
          "type": "address"
        }
      ],
      "stateMutability": "view",
      "type": "function"
    },
    {
      "inputs": [
        {
          "internalType": "address",
          "name": "_collateralUnderlying",
          "type": "address"
        }
      ],
      "name": "getProxyContract",
      "outputs": [
        {
          "internalType": "address",
          "name": "",
          "type": "address"
        }
      ],
      "stateMutability": "view",
      "type": "function"
    },
    {
      "inputs": [
        {
          "internalType": "address",
          "name": "token",
          "type": "address"
        }
      ],
      "name": "isPTToken",
      "outputs": [
        {
          "internalType": "bool",
          "name": "isPT",
          "type": "bool"
        }
      ],
      "stateMutability": "view",
      "type": "function"
    },
    {
      "inputs": [
        {
          "internalType": "address",
          "name": "_poolTokenBorrowedAddress",
          "type": "address"
        },
        {
          "internalType": "address",
          "name": "_poolTokenCollateralAddress",
          "type": "address"
        },
        {
          "internalType": "address",
          "name": "_borrower",
          "type": "address"
        },
        {
          "internalType": "uint256",
          "name": "_repayAmount",
          "type": "uint256"
        },
        {
          "internalType": "bool",
          "name": "_stakeTokens",
          "type": "bool"
        },
        {
          "internalType": "bool",
          "name": "_isUnstakeCollateralToken",
          "type": "bool"
        },
        {
          "internalType": "bytes",
          "name": "_swapData",
          "type": "bytes"
        }
      ],
      "name": "liquidate",
      "outputs": [],
      "stateMutability": "nonpayable",
      "type": "function"
    },
    {
      "inputs": [],
      "name": "liquidateLender",
      "outputs": [
        {
          "internalType": "contract ILendingPool",
          "name": "",
          "type": "address"
        }
      ],
      "stateMutability": "view",
      "type": "function"
    },
    {
      "inputs": [],
      "name": "odosRouter",
      "outputs": [
        {
          "internalType": "contract IOdosRouterV2",
          "name": "",
          "type": "address"
        }
      ],
      "stateMutability": "view",
      "type": "function"
    },
    {
      "inputs": [
        {
          "internalType": "address",
          "name": "_initiator",
          "type": "address"
        },
        {
          "internalType": "address",
          "name": "",
          "type": "address"
        },
        {
          "internalType": "uint256",
          "name": "",
          "type": "uint256"
        },
        {
          "internalType": "uint256",
          "name": "",
          "type": "uint256"
        },
        {
          "internalType": "bytes",
          "name": "data",
          "type": "bytes"
        }
      ],
      "name": "onFlashLoan",
      "outputs": [
        {
          "internalType": "bytes32",
          "name": "",
          "type": "bytes32"
        }
      ],
      "stateMutability": "nonpayable",
      "type": "function"
    },
    {
      "inputs": [],
      "name": "owner",
      "outputs": [
        {
          "internalType": "address",
          "name": "",
          "type": "address"
        }
      ],
      "stateMutability": "view",
      "type": "function"
    },
    {
      "inputs": [
        {
          "internalType": "address",
          "name": "_collateralERC4626Token",
          "type": "address"
        },
        {
          "internalType": "uint256",
          "name": "_amount",
          "type": "uint256"
        },
        {
          "internalType": "address",
          "name": "_recipient",
          "type": "address"
        }
      ],
      "name": "redeemERC4626Token",
      "outputs": [
        {
          "internalType": "uint256",
          "name": "",
          "type": "uint256"
        }
      ],
      "stateMutability": "nonpayable",
      "type": "function"
    },
    {
      "inputs": [],
      "name": "renounceOwnership",
      "outputs": [],
      "stateMutability": "nonpayable",
      "type": "function"
    },
    {
      "inputs": [
        {
          "internalType": "address",
          "name": "_collateralUnderlying",
          "type": "address"
        },
        {
          "internalType": "address",
          "name": "_proxyContract",
          "type": "address"
        }
      ],
      "name": "setProxyContract",
      "outputs": [],
      "stateMutability": "nonpayable",
      "type": "function"
    },
    {
      "inputs": [
        {
          "internalType": "uint256",
          "name": "_newTolerance",
          "type": "uint256"
        }
      ],
      "name": "setSlippageTolerance",
      "outputs": [],
      "stateMutability": "nonpayable",
      "type": "function"
    },
    {
      "inputs": [],
      "name": "slippageTolerance",
      "outputs": [
        {
          "internalType": "uint256",
          "name": "",
          "type": "uint256"
        }
      ],
      "stateMutability": "view",
      "type": "function"
    },
    {
      "inputs": [
        {
          "internalType": "address",
          "name": "newOwner",
          "type": "address"
        }
      ],
      "name": "transferOwnership",
      "outputs": [],
      "stateMutability": "nonpayable",
      "type": "function"
    },
    {
      "inputs": [],
      "name": "version",
      "outputs": [
        {
          "internalType": "string",
          "name": "",
          "type": "string"
        }
      ],
      "stateMutability": "pure",
      "type": "function"
    },
    {
      "inputs": [
        {
          "internalType": "address",
          "name": "_underlyingAddress",
          "type": "address"
        },
        {
          "internalType": "address",
          "name": "_receiver",
          "type": "address"
        },
        {
          "internalType": "uint256",
          "name": "_amount",
          "type": "uint256"
        }
      ],
      "name": "withdraw",
      "outputs": [],
      "stateMutability": "nonpayable",
      "type": "function"
    }
  ],
  "transactionHash": "0x09beb11a27a60409cb022ff69a70fbe273394b3fdc0e6884c6ee553182fff915",
  "args": [
    "0x53a6aBb52B2F968fA80dF6A894e4f1b1020DA975",
    "0x1f8d8a3575d049aA0C195AA947483738811bAdcb",
    "0xEdC3cfB1aa36c570cc1D374876268bDda2D460CC",
    "0x8805f9D444dE3994aA69F8BBdFbC08fE3A277Aee",
    "500000",
    "0xaC041Df48dF9791B0654f1Dbbf2CC8450C5f2e9D"
  ],
  "numDeployments": 1,
  "solcInputHash": "4926f642f633d58dd7fb2d9c6e8eaf4f",
  "bytecode": "0x6101606040523480156200001257600080fd5b5060405162002def38038062002def83398101604081905262000035916200024c565b60016000556001600160a01b0380871660805280851660a05280861660c052831660e0819052604080516358b50cef60e11b8152905188928892889288928892339288928792899288929163b16a19de9160048083019260209291908290030181865afa158015620000ab573d6000803e3d6000fd5b505050506040513d601f19601f82011682018060405250810190620000d19190620002d4565b6001600160a01b03166101008190526040805163313ce56760e01b8152905163313ce567916004808201926020929091908290030181865afa1580156200011c573d6000803e3d6000fd5b505050506040513d601f19601f82011682018060405250810190620001429190620002fb565b60ff16610120525050506001600160a01b03821690506200017d57604051631e4fbdf760e01b81526000600482015260240160405180910390fd5b6200018881620001e1565b5060028190556040518181527f84cb977e2a9a6a9b1fc0d73c4b02cd51695c09eb0d3008d61019a7c0a7406c4c9060200160405180910390a15050506001600160a01b0390921661014052506200032095505050505050565b600180546001600160a01b038381166001600160a01b0319831681179093556040519116919082907f8be0079c531659141344cd1fd0a4f28419497f9722a3daafe3b4186f6b6457e090600090a35050565b6001600160a01b03811681146200024957600080fd5b50565b60008060008060008060c087890312156200026657600080fd5b8651620002738162000233565b6020880151909650620002868162000233565b6040880151909550620002998162000233565b6060880151909450620002ac8162000233565b608088015160a08901519194509250620002c68162000233565b809150509295509295509295565b600060208284031215620002e757600080fd5b8151620002f48162000233565b9392505050565b6000602082840312156200030e57600080fd5b815160ff81168114620002f457600080fd5b60805160a05160c05160e051610100516101205161014051612a20620003cf600039600061024f015260006102ba0152600081816102e101528181610c44015281816115ad01528181611665015281816117560152611be7015260006101f80152600081816103510152610e7c0152600081816101920152818161135a015261139d01526000818161037801528181610487015281816115e3015281816117270152611c120152612a206000f3fe608060405234801561001057600080fd5b506004361061014d5760003560e01c80639278d48e116100c3578063cd955ace1161007c578063cd955ace14610373578063d03153aa1461039a578063d9caed12146103a3578063ec9fb4da146103b6578063f2fde38b146103c9578063fc4fdd3d146103dc57600080fd5b80639278d48e146102b557806397fe30ef146102dc57806398776288146103035780639922595514610316578063c08bccf114610329578063c72c4d101461034c57600080fd5b80635068647911610115578063506864791461021a57806354fd4d501461022d578063715018a6146102425780638321928d1461024a578063845a9f78146102715780638da5cb5b146102a457600080fd5b8063117da1ee1461015257806323e30c8b146101675780632a6b0c241461018d5780632ae18104146101cc5780633f6b6746146101f3575b600080fd5b610165610160366004612097565b6103ef565b005b61017a6101753660046120c5565b61047a565b6040519081526020015b60405180910390f35b6101b47f000000000000000000000000000000000000000000000000000000000000000081565b6040516001600160a01b039091168152602001610184565b61017a7f439148f0bbc682ca079e46d6e2c2f0c1e3b820f1a291b069d8882abf8cf18dd981565b6101b47f000000000000000000000000000000000000000000000000000000000000000081565b61017a61022836600461216f565b610532565b6102356105ba565b6040516101849190612201565b6101656105da565b6101b47f000000000000000000000000000000000000000000000000000000000000000081565b61028461027f366004612222565b6105ee565b604080516001600160a01b03938416815292909116602083015201610184565b6001546001600160a01b03166101b4565b61017a7f000000000000000000000000000000000000000000000000000000000000000081565b6101b47f000000000000000000000000000000000000000000000000000000000000000081565b61016561031136600461225b565b610676565b610165610324366004612377565b6106ac565b61033c61033736600461241b565b6108aa565b6040519015158152602001610184565b6101b47f000000000000000000000000000000000000000000000000000000000000000081565b6101b47f000000000000000000000000000000000000000000000000000000000000000081565b61017a60025481565b6101656103b1366004612438565b610924565b61033c6103c436600461241b565b610a16565b6101656103d736600461241b565b610ae9565b6101b46103ea36600461241b565b610b27565b6103f7610b57565b61040260648061248f565b6104119061ffff1660646124b5565b63ffffffff1681111561043f5760405163295eaa3d60e01b8152600481018290526024015b60405180910390fd5b60028190556040518181527f84cb977e2a9a6a9b1fc0d73c4b02cd51695c09eb0d3008d61019a7c0a7406c4c9060200160405180910390a150565b6000336001600160a01b037f000000000000000000000000000000000000000000000000000000000000000016146104c557604051631e4a393d60e31b815260040160405180910390fd5b6001600160a01b03871630146104ee57604051634ac321c360e11b815260040160405180910390fd5b60006104fa8484610b84565b905061050581610c42565b507f439148f0bbc682ca079e46d6e2c2f0c1e3b820f1a291b069d8882abf8cf18dd9979650505050505050565b604051635d043b2960e11b8152600481018390526001600160a01b038281166024830181905260448301526000919085169063ba087652906064016020604051808303816000875af115801561058c573d6000803e3d6000fd5b505050506040513d601f19601f820116820180604052508101906105b091906124d5565b90505b9392505050565b60606040518060600160405280602f81526020016129bc602f9139905090565b6105e2610b57565b6105ec6000611203565b565b600080821561066b5761060084610b27565b9050806001600160a01b03166338d52e0f6040518163ffffffff1660e01b8152600401602060405180830381865afa158015610640573d6000803e3d6000fd5b505050506040513d601f19601f8201168201806040525081019061066491906124f9565b915061066f565b8391505b9250929050565b61067e610b57565b6001600160a01b03918216600090815260036020526040902080546001600160a01b03191691909216179055565b6106b4611255565b60006040518061010001604052806106cb8961127f565b6001600160a01b031681526020016106e28a61127f565b6001600160a01b03168152602001886001600160a01b03168152602001896001600160a01b03168152602001336001600160a01b03168152602001876001600160a01b0316815260200186815260200184151581525090506000808683602001516001600160a01b03166370a08231306040518263ffffffff1660e01b815260040161077d91906001600160a01b0391909116815260200190565b602060405180830381865afa15801561079a573d6000803e3d6000fd5b505050506040513d601f19601f820116820180604052508101906107be91906124d5565b106107d3576107cc836112e3565b915061087b565b600060405180610120016040528085600001516001600160a01b0316815260200185602001516001600160a01b0316815260200185604001516001600160a01b0316815260200185606001516001600160a01b0316815260200185608001516001600160a01b031681526020018560a001516001600160a01b031681526020018560c001518152602001871515815260200186815250905061087481611572565b9093509150505b85610894576108946001600160a01b038216338461188f565b5050506108a16001600055565b50505050505050565b60405163764fda6d60e11b81526001600160a01b0382166004820152600090309063ec9fb4da90602401602060405180830381865afa92505050801561090d575060408051601f3d908101601f1916820190925261090a91810190612516565b60015b61091957506000919050565b92915050565b919050565b6040516370a0823160e01b81523060048201526000906001600160a01b038516906370a0823190602401602060405180830381865afa15801561096b573d6000803e3d6000fd5b505050506040513d601f19601f8201168201806040525081019061098f91906124d5565b905060008183116109a057826109a2565b815b90506109b86001600160a01b038616858361188f565b846001600160a01b0316846001600160a01b0316336001600160a01b03167fa4195c37c2947bbe89165f03e320b6903116f0b10d8cfdb522330f7ce6f9fa2484604051610a0791815260200190565b60405180910390a45050505050565b60408051600481526024810182526020810180516001600160e01b031663afd27bf560e01b1790529051600091829182916001600160a01b03861691610a5c9190612533565b600060405180830381855afa9150503d8060008114610a97576040519150601f19603f3d011682016040523d82523d6000602084013e610a9c565b606091505b5091509150811580610ab057508051602014155b15610abf575060009392505050565b600081806020019051810190610ad591906124f9565b6001600160a01b0316151595945050505050565b610af1610b57565b6001600160a01b038116610b1b57604051631e4fbdf760e01b815260006004820152602401610436565b610b2481611203565b50565b6001600160a01b038082166000908152600360205260408120549091168015610b505792915050565b5090919050565b6001546001600160a01b031633146105ec5760405163118cdaa760e01b8152336004820152602401610436565b604080516101208101825260008082526020820181905291810182905260608082018390526080820183905260a0820183905260c0820183905260e0820192909252610100810191909152610bdb8284018461254f565b5050506001600160a01b039283166060880152505090811660408501529081166020840152168152610c0f8284018461254f565b6101008a0152151560e089015260c08801526001600160a01b0390811660a0880152166080860152509295945050505050565b7f00000000000000000000000000000000000000000000000000000000000000006001600160a01b031681602001516001600160a01b031614610d0957806020015181602001516001600160a01b03166395d89b416040518163ffffffff1660e01b8152600401600060405180830381865afa158015610cc6573d6000803e3d6000fd5b505050506040513d6000823e601f3d908101601f19168201604052610cee9190810190612649565b604051635338350960e01b815260040161043692919061269a565b600060405180610100016040528083600001516001600160a01b0316815260200183602001516001600160a01b0316815260200183604001516001600160a01b0316815260200183606001516001600160a01b0316815260200183608001516001600160a01b031681526020018360a001516001600160a01b031681526020018360c0015181526020018360e00151151581525090506000610daa826112e3565b905082600001516001600160a01b031683602001516001600160a01b03161461116b57600080610de285600001518660e001516105ee565b60e08701519193509150839015610e7857855160405163095ea7b360e01b81526001600160a01b038481166004830152602482018490529091169063095ea7b3906044016020604051808303816000875af1158015610e45573d6000803e3d6000fd5b505050506040513d601f19601f82011682018060405250810190610e699190612516565b50610e75828230610532565b90505b60007f00000000000000000000000000000000000000000000000000000000000000006001600160a01b031663fca513a86040518163ffffffff1660e01b8152600401602060405180830381865afa158015610ed8573d6000803e3d6000fd5b505050506040513d601f19601f82011682018060405250810190610efc91906124f9565b90506000610f0b60648061248f565b610f1a9061ffff1660646124b5565b63ffffffff16600254606480610f30919061248f565b610f3f9061ffff1660646124b5565b63ffffffff16610f4f91906126be565b88602001516001600160a01b031663313ce5676040518163ffffffff1660e01b8152600401602060405180830381865afa158015610f91573d6000803e3d6000fd5b505050506040513d601f19601f82011682018060405250810190610fb591906126d1565b610fc090600a6127d8565b60405163b3596f0760e01b81526001600160a01b03898116600483015286169063b3596f0790602401602060405180830381865afa158015611006573d6000803e3d6000fd5b505050506040513d601f19601f8201168201806040525081019061102a91906124d5565b61103491906127e7565b60208b015160405163b3596f0760e01b81526001600160a01b0391821660048201529086169063b3596f0790602401602060405180830381865afa158015611080573d6000803e3d6000fd5b505050506040513d601f19601f820116820180604052508101906110a491906124d5565b886001600160a01b031663313ce5676040518163ffffffff1660e01b8152600401602060405180830381865afa1580156110e2573d6000803e3d6000fd5b505050506040513d601f19601f8201168201806040525081019061110691906126d1565b61111190600a6127d8565b8c60c0015161112091906127e7565b61112a91906127e7565b61113491906127fe565b61113e91906127e7565b61114891906127fe565b90506111648589602001518a61010001518b60c00151856118f3565b5050505050505b82604001516001600160a01b031683606001516001600160a01b031684608001516001600160a01b03167fe96c57864e490909fadd8ddc506e391bc4946ed905e39f7e71321861c798d3e68660a001518760c001518660016040516111f694939291906001600160a01b03949094168452602084019290925260408301521515606082015260800190565b60405180910390a4505050565b600180546001600160a01b038381166001600160a01b0319831681179093556040519116919082907f8be0079c531659141344cd1fd0a4f28419497f9722a3daafe3b4186f6b6457e090600090a35050565b60026000540361127857604051633ee5aeb560e01b815260040160405180910390fd5b6002600055565b6000816001600160a01b031663b16a19de6040518163ffffffff1660e01b8152600401602060405180830381865afa1580156112bf573d6000803e3d6000fd5b505050506040513d601f19601f8201168201806040525081019061091991906124f9565b80516040516370a0823160e01b815230600482015260009182916001600160a01b03909116906370a0823190602401602060405180830381865afa15801561132f573d6000803e3d6000fd5b505050506040513d601f19601f8201168201806040525081019061135391906124d5565b905061139b7f00000000000000000000000000000000000000000000000000000000000000008460c0015185602001516001600160a01b0316611adc9092919063ffffffff16565b7f00000000000000000000000000000000000000000000000000000000000000006001600160a01b031662a718a96113d6856040015161127f565b6113e3866060015161127f565b60a087015160c08801516040516001600160e01b031960e087901b1681526001600160a01b03948516600482015292841660248401529216604482015260648101919091526000608482015260a401600060405180830381600087803b15801561144c57600080fd5b505af1158015611460573d6000803e3d6000fd5b505084516040516370a0823160e01b81523060048201528493506001600160a01b0390911691506370a0823190602401602060405180830381865afa1580156114ad573d6000803e3d6000fd5b505050506040513d601f19601f820116820180604052508101906114d191906124d5565b6114db9190612820565b915082604001516001600160a01b031683606001516001600160a01b0316336001600160a01b03167fe96c57864e490909fadd8ddc506e391bc4946ed905e39f7e71321861c798d3e68660a001518760c0015187600060405161156494939291906001600160a01b03949094168452602084019290925260408301521515606082015260800190565b60405180910390a450919050565b600080600061158084611b72565b9050600061159685602001518660c00151611bd0565b604051633676633960e21b81526001600160a01b037f0000000000000000000000000000000000000000000000000000000000000000811660048301526024820183905291925061168c917f0000000000000000000000000000000000000000000000000000000000000000919082169063d9d98ce490604401602060405180830381865afa15801561162d573d6000803e3d6000fd5b505050506040513d601f19601f8201168201806040525081019061165191906124d5565b61165b90846126be565b6001600160a01b037f0000000000000000000000000000000000000000000000000000000000000000169190611adc565b61169e85600001518660e001516105ee565b506040516370a0823160e01b81523060048201529093506000906001600160a01b038516906370a0823190602401602060405180830381865afa1580156116e9573d6000803e3d6000fd5b505050506040513d601f19601f8201168201806040525081019061170d91906124d5565b604051632e7ff4ef60e11b81529091506001600160a01b037f00000000000000000000000000000000000000000000000000000000000000001690635cffe9de906117829030907f00000000000000000000000000000000000000000000000000000000000000009087908990600401612833565b6020604051808303816000875af11580156117a1573d6000803e3d6000fd5b505050506040513d601f19601f820116820180604052508101906117c59190612516565b506040516370a0823160e01b81523060048201526000906001600160a01b038616906370a0823190602401602060405180830381865afa15801561180d573d6000803e3d6000fd5b505050506040513d601f19601f8201168201806040525081019061183191906124d5565b90508181111561184c576118458282612820565b9550611851565b600095505b60405183815233907f134bde118562a60dcf2d8c52965f586e25cf88a371592e44b78c4aa03bcbac849060200160405180910390a250505050915091565b6040516001600160a01b038381166024830152604482018390526118ee91859182169063a9059cbb906064015b604051602081830303815290604052915060e01b6020820180516001600160e01b038381831617835250505050611c7f565b505050565b6000808480602001905181019061190a9190612886565b80519091506001600160a01b03166119355760405163205544d760e11b815260040160405180910390fd5b600061194b888584602001518560400151611cf0565b905081600001516001600160a01b0316886001600160a01b03167f27039ac08bcb6070578fc805ffca75715bb586e39696d42a16aaa308c1248eb7868460405161199f929190918252602082015260400190565b60405180910390a36000876001600160a01b031683600001516001600160a01b0316036119cd575080611a25565b60608301516001600160a01b031615806119ea5750608083015151155b15611a085760405163205544d760e11b815260040160405180910390fd5b611a22836000015189848987606001518860800151611d07565b90505b825160408051878152602081018590529081018390526001600160a01b03808b1692811691908c16907f877d0f0604a9a985e5ca1e631c0ec64561730571e11eb0537e1cc059c2cfc29c9060600160405180910390a485811015611aa6576040516374f2696d60e01b81526004810187905260248101829052604401610436565b6000611ab28783612820565b90508015611ace57611ace6001600160a01b038a16338361188f565b509398975050505050505050565b604080516001600160a01b038416602482015260448082018490528251808303909101815260649091019091526020810180516001600160e01b031663095ea7b360e01b179052611b2d8482611efc565b611b6c576040516001600160a01b03848116602483015260006044830152611b6291869182169063095ea7b3906064016118bc565b611b6c8482611c7f565b50505050565b6060816000015182602001518360400151846060015185608001518660a001518760c001518860e00151896101000151604051602001611bba9998979695949392919061294e565b6040516020818303038152906040529050919050565b60405163613255ab60e01b81526001600160a01b037f0000000000000000000000000000000000000000000000000000000000000000811660048301526000917f00000000000000000000000000000000000000000000000000000000000000009091169063613255ab90602401602060405180830381865afa158015611c5b573d6000803e3d6000fd5b505050506040513d601f19601f820116820180604052508101906105b391906124d5565b600080602060008451602086016000885af180611ca2576040513d6000823e3d81fd5b50506000513d91508115611cba578060011415611cc7565b6001600160a01b0384163b155b15611b6c57604051635274afe760e01b81526001600160a01b0385166004820152602401610436565b6000611cfe85858585611f4b565b95945050505050565b6000611d1d6001600160a01b0388168487611adc565b6040516370a0823160e01b81523060048201526000906001600160a01b038816906370a0823190602401602060405180830381865afa158015611d64573d6000803e3d6000fd5b505050506040513d601f19601f82011682018060405250810190611d8891906124d5565b9050600080856001600160a01b031685604051611da59190612533565b6000604051808303816000865af19150503d8060008114611de2576040519150601f19603f3d011682016040523d82523d6000602084013e611de7565b606091505b509150915081611e4a57805115611e015780518082602001fd5b604051631300105360e01b815260206004820152601a60248201527f4f646f73207377617020657865637574696f6e206661696c65640000000000006044820152606401610436565b6040516370a0823160e01b81523060048201526000906001600160a01b038b16906370a0823190602401602060405180830381865afa158015611e91573d6000803e3d6000fd5b505050506040513d601f19601f82011682018060405250810190611eb591906124d5565b9050611ec18482612820565b945087851015611eee576040516374f2696d60e01b81526004810189905260248101869052604401610436565b505050509695505050505050565b6000806000806020600086516020880160008a5af192503d91506000519050828015611f4157508115611f325780600114611f41565b6000866001600160a01b03163b115b9695505050505050565b6000611f616001600160a01b0386168486611adc565b604051636eb1769f60e11b81523060048201526001600160a01b0384811660248301526000919087169063dd62ed3e90604401602060405180830381865afa158015611fb1573d6000803e3d6000fd5b505050506040513d601f19601f82011682018060405250810190611fd591906124d5565b905084811015611ff85760405163a7ed3d5f60e01b815260040160405180910390fd5b600080856001600160a01b0316856040516120139190612533565b6000604051808303816000865af19150503d8060008114612050576040519150601f19603f3d011682016040523d82523d6000602084013e612055565b606091505b5091509150816120885780511561206f5780518082602001fd5b604051630fe7fe8560e01b815260040160405180910390fd5b60200151979650505050505050565b6000602082840312156120a957600080fd5b5035919050565b6001600160a01b0381168114610b2457600080fd5b60008060008060008060a087890312156120de57600080fd5b86356120e9816120b0565b955060208701356120f9816120b0565b94506040870135935060608701359250608087013567ffffffffffffffff8082111561212457600080fd5b818901915089601f83011261213857600080fd5b81358181111561214757600080fd5b8a602082850101111561215957600080fd5b6020830194508093505050509295509295509295565b60008060006060848603121561218457600080fd5b833561218f816120b0565b92506020840135915060408401356121a6816120b0565b809150509250925092565b60005b838110156121cc5781810151838201526020016121b4565b50506000910152565b600081518084526121ed8160208601602086016121b1565b601f01601f19169290920160200192915050565b6020815260006105b360208301846121d5565b8015158114610b2457600080fd5b6000806040838503121561223557600080fd5b8235612240816120b0565b9150602083013561225081612214565b809150509250929050565b6000806040838503121561226e57600080fd5b8235612279816120b0565b91506020830135612250816120b0565b634e487b7160e01b600052604160045260246000fd5b60405160a0810167ffffffffffffffff811182821017156122c2576122c2612289565b60405290565b604051601f8201601f1916810167ffffffffffffffff811182821017156122f1576122f1612289565b604052919050565b600067ffffffffffffffff82111561231357612313612289565b50601f01601f191660200190565b600082601f83011261233257600080fd5b8135612345612340826122f9565b6122c8565b81815284602083860101111561235a57600080fd5b816020850160208301376000918101602001919091529392505050565b600080600080600080600060e0888a03121561239257600080fd5b873561239d816120b0565b965060208801356123ad816120b0565b955060408801356123bd816120b0565b94506060880135935060808801356123d481612214565b925060a08801356123e481612214565b915060c088013567ffffffffffffffff81111561240057600080fd5b61240c8a828b01612321565b91505092959891949750929550565b60006020828403121561242d57600080fd5b81356105b3816120b0565b60008060006060848603121561244d57600080fd5b8335612458816120b0565b92506020840135612468816120b0565b929592945050506040919091013590565b634e487b7160e01b600052601160045260246000fd5b61ffff8181168382160280821691908281146124ad576124ad612479565b505092915050565b63ffffffff8181168382160280821691908281146124ad576124ad612479565b6000602082840312156124e757600080fd5b5051919050565b805161091f816120b0565b60006020828403121561250b57600080fd5b81516105b3816120b0565b60006020828403121561252857600080fd5b81516105b381612214565b600082516125458184602087016121b1565b9190910192915050565b60008060008060008060008060006101208a8c03121561256e57600080fd5b8935612579816120b0565b985060208a0135612589816120b0565b975060408a0135612599816120b0565b965060608a01356125a9816120b0565b955060808a01356125b9816120b0565b945060a08a01356125c9816120b0565b935060c08a0135925060e08a01356125e081612214565b91506101008a013567ffffffffffffffff8111156125fd57600080fd5b6126098c828d01612321565b9150509295985092959850929598565b6000612627612340846122f9565b905082815283838301111561263b57600080fd5b6105b38360208301846121b1565b60006020828403121561265b57600080fd5b815167ffffffffffffffff81111561267257600080fd5b8201601f8101841361268357600080fd5b61269284825160208401612619565b949350505050565b6001600160a01b03831681526040602082018190526000906105b0908301846121d5565b8082018082111561091957610919612479565b6000602082840312156126e357600080fd5b815160ff811681146105b357600080fd5b600181815b8085111561272f57816000190482111561271557612715612479565b8085161561272257918102915b93841c93908002906126f9565b509250929050565b60008261274657506001610919565b8161275357506000610919565b816001811461276957600281146127735761278f565b6001915050610919565b60ff84111561278457612784612479565b50506001821b610919565b5060208310610133831016604e8410600b84101617156127b2575081810a610919565b6127bc83836126f4565b80600019048211156127d0576127d0612479565b029392505050565b60006105b360ff841683612737565b808202811582820484141761091957610919612479565b60008261281b57634e487b7160e01b600052601260045260246000fd5b500490565b8181038181111561091957610919612479565b6001600160a01b0385811682528416602082015260408101839052608060608201819052600090611f41908301846121d5565b600082601f83011261287757600080fd5b6105b383835160208501612619565b60006020828403121561289857600080fd5b815167ffffffffffffffff808211156128b057600080fd5b9083019060a082860312156128c457600080fd5b6128cc61229f565b82516128d7816120b0565b815260208301516128e7816120b0565b60208201526040830151828111156128fe57600080fd5b61290a87828601612866565b60408301525061291c606084016124ee565b606082015260808301518281111561293357600080fd5b61293f87828601612866565b60808301525095945050505050565b6001600160a01b038a811682528981166020830152888116604083015287811660608301528681166080830152851660a082015260c0810184905282151560e082015261012061010082018190526000906129ab838201856121d5565b9c9b50505050505050505050505056fe466c6173684d696e744c697175696461746f7241617665426f72726f77526570617950544f646f732d76312e302e30a2646970667358221220c2fd8a5e32ba10d7e90f5f34c983f80be2844de9e2d3bb80ced3520f429e5c0564736f6c63430008140033",
  "devdoc": {
    "details": "This contract performs a two-stage swap:      1. PT token  underlying asset (via Pendle)      2. underlying asset  target token (via Odos)",
    "errors": {
      "OwnableInvalidOwner(address)": [
        {
          "details": "The owner is not a valid owner account. (eg. `address(0)`)"
        }
      ],
      "OwnableUnauthorizedAccount(address)": [
        {
          "details": "The caller account is not authorized to perform an operation."
        }
      ],
      "ReentrancyGuardReentrantCall()": [
        {
          "details": "Unauthorized reentrant call."
        }
      ],
      "SafeERC20FailedOperation(address)": [
        {
          "details": "An operation with an ERC-20 token failed."
        }
      ]
    },
    "kind": "dev",
    "methods": {
      "checkPTInterface(address)": {
        "params": {
          "token": "The token address to check"
        },
        "returns": {
          "_0": "True if token implements PT interface"
        }
      },
      "getActualCollateralToken(address,bool)": {
        "details": "Get the actual collateral token address",
        "params": {
          "_collateralUnderlying": "The underlying collateral token address",
          "_isUnstakeCollateralToken": "Whether the collateral token is unstaked"
        },
        "returns": {
          "actualCollateralToken_": "The actual collateral token address",
          "proxyContract_": "The proxy contract address"
        }
      },
      "isPTToken(address)": {
        "details": "This can be used by external callers to determine if they should use this contract",
        "params": {
          "token": "The token address to check"
        },
        "returns": {
          "isPT": "True if the token appears to be a PT token"
        }
      },
      "onFlashLoan(address,address,uint256,uint256,bytes)": {
        "details": "ERC-3156 Flash loan callback"
      },
      "owner()": {
        "details": "Returns the address of the current owner."
      },
      "renounceOwnership()": {
        "details": "Leaves the contract without owner. It will not be possible to call `onlyOwner` functions. Can only be called by the current owner. NOTE: Renouncing ownership will leave the contract without an owner, thereby disabling any functionality that is only available to the owner."
      },
      "transferOwnership(address)": {
        "details": "Transfers ownership of the contract to a new account (`newOwner`). Can only be called by the current owner."
      },
      "version()": {
        "returns": {
          "_0": "version The version string"
        }
      }
    },
    "title": "FlashMintLiquidatorAaveBorrowRepayPTOdos",
    "version": 1
  },
  "userdoc": {
    "errors": {
      "InsufficientOutputAfterSwap(uint256,uint256)": [
        {
          "notice": "Custom errors"
        }
      ],
      "PTApprovalFailed()": [
        {
          "notice": "Custom error when PT token approval fails"
        }
      ],
      "PendleSwapFailed()": [
        {
          "notice": "Custom error for failed Pendle swap with no revert reason"
        }
      ]
    },
    "events": {
      "PTSwapExecuted(address,address,uint256,uint256)": {
        "notice": "Events"
      }
    },
    "kind": "user",
    "methods": {
      "checkPTInterface(address)": {
        "notice": "External function to check PT interface (called by isPTToken)"
      },
      "isPTToken(address)": {
        "notice": "Helper function to check if a token is a PT token"
      },
      "odosRouter()": {
        "notice": "Immutable contract references"
      },
      "version()": {
        "notice": "Get the contract version for identification"
      }
    },
    "notice": "Flash mint liquidator contract that handles PT token liquidations with Pendle + Odos swaps",
    "version": 1
  },
  "storageLayout": {
    "storage": [
      {
        "astId": 2414,
        "contract": "contracts/aave-v3/FlashMintLiquidatorAaveBorrowRepayPTOdos.sol:FlashMintLiquidatorAaveBorrowRepayPTOdos",
        "label": "_status",
        "offset": 0,
        "slot": "0",
        "type": "t_uint256"
      },
      {
        "astId": 8,
        "contract": "contracts/aave-v3/FlashMintLiquidatorAaveBorrowRepayPTOdos.sol:FlashMintLiquidatorAaveBorrowRepayPTOdos",
        "label": "_owner",
        "offset": 0,
        "slot": "1",
        "type": "t_address"
      },
      {
        "astId": 8113,
        "contract": "contracts/aave-v3/FlashMintLiquidatorAaveBorrowRepayPTOdos.sol:FlashMintLiquidatorAaveBorrowRepayPTOdos",
        "label": "slippageTolerance",
        "offset": 0,
        "slot": "2",
        "type": "t_uint256"
      },
      {
        "astId": 8127,
        "contract": "contracts/aave-v3/FlashMintLiquidatorAaveBorrowRepayPTOdos.sol:FlashMintLiquidatorAaveBorrowRepayPTOdos",
        "label": "proxyContractMap",
        "offset": 0,
        "slot": "3",
        "type": "t_mapping(t_address,t_address)"
      }
    ],
    "types": {
      "t_address": {
        "encoding": "inplace",
        "label": "address",
        "numberOfBytes": "20"
      },
      "t_mapping(t_address,t_address)": {
        "encoding": "mapping",
        "key": "t_address",
        "label": "mapping(address => address)",
        "numberOfBytes": "32",
        "value": "t_address"
      },
      "t_uint256": {
        "encoding": "inplace",
        "label": "uint256",
        "numberOfBytes": "32"
      }
    }
  }
}