{
  "address": "0x39Eb97f08548Edd221aeB55727564deB990DFa7C",
  "abi": [
    {
      "inputs": [
        {
          "internalType": "contract IPoolAddressesProvider",
          "name": "provider",
          "type": "address"
        }
      ],
      "stateMutability": "nonpayable",
      "type": "constructor"
    },
    {
      "anonymous": false,
      "inputs": [
        {
          "indexed": true,
          "internalType": "bytes32",
          "name": "role",
          "type": "bytes32"
        },
        {
          "indexed": true,
          "internalType": "bytes32",
          "name": "previousAdminRole",
          "type": "bytes32"
        },
        {
          "indexed": true,
          "internalType": "bytes32",
          "name": "newAdminRole",
          "type": "bytes32"
        }
      ],
      "name": "RoleAdminChanged",
      "type": "event"
    },
    {
      "anonymous": false,
      "inputs": [
        {
          "indexed": true,
          "internalType": "bytes32",
          "name": "role",
          "type": "bytes32"
        },
        {
          "indexed": true,
          "internalType": "address",
          "name": "account",
          "type": "address"
        },
        {
          "indexed": true,
          "internalType": "address",
          "name": "sender",
          "type": "address"
        }
      ],
      "name": "RoleGranted",
      "type": "event"
    },
    {
      "anonymous": false,
      "inputs": [
        {
          "indexed": true,
          "internalType": "bytes32",
          "name": "role",
          "type": "bytes32"
        },
        {
          "indexed": true,
          "internalType": "address",
          "name": "account",
          "type": "address"
        },
        {
          "indexed": true,
          "internalType": "address",
          "name": "sender",
          "type": "address"
        }
      ],
      "name": "RoleRevoked",
      "type": "event"
    },
    {
      "inputs": [],
      "name": "ADDRESSES_PROVIDER",
      "outputs": [
        {
          "internalType": "contract IPoolAddressesProvider",
          "name": "",
          "type": "address"
        }
      ],
      "stateMutability": "view",
      "type": "function"
    },
    {
      "inputs": [],
      "name": "ASSET_LISTING_ADMIN_ROLE",
      "outputs": [
        {
          "internalType": "bytes32",
          "name": "",
          "type": "bytes32"
        }
      ],
      "stateMutability": "view",
      "type": "function"
    },
    {
      "inputs": [],
      "name": "BRIDGE_ROLE",
      "outputs": [
        {
          "internalType": "bytes32",
          "name": "",
          "type": "bytes32"
        }
      ],
      "stateMutability": "view",
      "type": "function"
    },
    {
      "inputs": [],
      "name": "DEFAULT_ADMIN_ROLE",
      "outputs": [
        {
          "internalType": "bytes32",
          "name": "",
          "type": "bytes32"
        }
      ],
      "stateMutability": "view",
      "type": "function"
    },
    {
      "inputs": [],
      "name": "EMERGENCY_ADMIN_ROLE",
      "outputs": [
        {
          "internalType": "bytes32",
          "name": "",
          "type": "bytes32"
        }
      ],
      "stateMutability": "view",
      "type": "function"
    },
    {
      "inputs": [],
      "name": "FLASH_BORROWER_ROLE",
      "outputs": [
        {
          "internalType": "bytes32",
          "name": "",
          "type": "bytes32"
        }
      ],
      "stateMutability": "view",
      "type": "function"
    },
    {
      "inputs": [],
      "name": "POOL_ADMIN_ROLE",
      "outputs": [
        {
          "internalType": "bytes32",
          "name": "",
          "type": "bytes32"
        }
      ],
      "stateMutability": "view",
      "type": "function"
    },
    {
      "inputs": [],
      "name": "RISK_ADMIN_ROLE",
      "outputs": [
        {
          "internalType": "bytes32",
          "name": "",
          "type": "bytes32"
        }
      ],
      "stateMutability": "view",
      "type": "function"
    },
    {
      "inputs": [
        {
          "internalType": "address",
          "name": "admin",
          "type": "address"
        }
      ],
      "name": "addAssetListingAdmin",
      "outputs": [],
      "stateMutability": "nonpayable",
      "type": "function"
    },
    {
      "inputs": [
        {
          "internalType": "address",
          "name": "bridge",
          "type": "address"
        }
      ],
      "name": "addBridge",
      "outputs": [],
      "stateMutability": "nonpayable",
      "type": "function"
    },
    {
      "inputs": [
        {
          "internalType": "address",
          "name": "admin",
          "type": "address"
        }
      ],
      "name": "addEmergencyAdmin",
      "outputs": [],
      "stateMutability": "nonpayable",
      "type": "function"
    },
    {
      "inputs": [
        {
          "internalType": "address",
          "name": "borrower",
          "type": "address"
        }
      ],
      "name": "addFlashBorrower",
      "outputs": [],
      "stateMutability": "nonpayable",
      "type": "function"
    },
    {
      "inputs": [
        {
          "internalType": "address",
          "name": "admin",
          "type": "address"
        }
      ],
      "name": "addPoolAdmin",
      "outputs": [],
      "stateMutability": "nonpayable",
      "type": "function"
    },
    {
      "inputs": [
        {
          "internalType": "address",
          "name": "admin",
          "type": "address"
        }
      ],
      "name": "addRiskAdmin",
      "outputs": [],
      "stateMutability": "nonpayable",
      "type": "function"
    },
    {
      "inputs": [
        {
          "internalType": "bytes32",
          "name": "role",
          "type": "bytes32"
        }
      ],
      "name": "getRoleAdmin",
      "outputs": [
        {
          "internalType": "bytes32",
          "name": "",
          "type": "bytes32"
        }
      ],
      "stateMutability": "view",
      "type": "function"
    },
    {
      "inputs": [
        {
          "internalType": "bytes32",
          "name": "role",
          "type": "bytes32"
        },
        {
          "internalType": "address",
          "name": "account",
          "type": "address"
        }
      ],
      "name": "grantRole",
      "outputs": [],
      "stateMutability": "nonpayable",
      "type": "function"
    },
    {
      "inputs": [
        {
          "internalType": "bytes32",
          "name": "role",
          "type": "bytes32"
        },
        {
          "internalType": "address",
          "name": "account",
          "type": "address"
        }
      ],
      "name": "hasRole",
      "outputs": [
        {
          "internalType": "bool",
          "name": "",
          "type": "bool"
        }
      ],
      "stateMutability": "view",
      "type": "function"
    },
    {
      "inputs": [
        {
          "internalType": "address",
          "name": "admin",
          "type": "address"
        }
      ],
      "name": "isAssetListingAdmin",
      "outputs": [
        {
          "internalType": "bool",
          "name": "",
          "type": "bool"
        }
      ],
      "stateMutability": "view",
      "type": "function"
    },
    {
      "inputs": [
        {
          "internalType": "address",
          "name": "bridge",
          "type": "address"
        }
      ],
      "name": "isBridge",
      "outputs": [
        {
          "internalType": "bool",
          "name": "",
          "type": "bool"
        }
      ],
      "stateMutability": "view",
      "type": "function"
    },
    {
      "inputs": [
        {
          "internalType": "address",
          "name": "admin",
          "type": "address"
        }
      ],
      "name": "isEmergencyAdmin",
      "outputs": [
        {
          "internalType": "bool",
          "name": "",
          "type": "bool"
        }
      ],
      "stateMutability": "view",
      "type": "function"
    },
    {
      "inputs": [
        {
          "internalType": "address",
          "name": "borrower",
          "type": "address"
        }
      ],
      "name": "isFlashBorrower",
      "outputs": [
        {
          "internalType": "bool",
          "name": "",
          "type": "bool"
        }
      ],
      "stateMutability": "view",
      "type": "function"
    },
    {
      "inputs": [
        {
          "internalType": "address",
          "name": "admin",
          "type": "address"
        }
      ],
      "name": "isPoolAdmin",
      "outputs": [
        {
          "internalType": "bool",
          "name": "",
          "type": "bool"
        }
      ],
      "stateMutability": "view",
      "type": "function"
    },
    {
      "inputs": [
        {
          "internalType": "address",
          "name": "admin",
          "type": "address"
        }
      ],
      "name": "isRiskAdmin",
      "outputs": [
        {
          "internalType": "bool",
          "name": "",
          "type": "bool"
        }
      ],
      "stateMutability": "view",
      "type": "function"
    },
    {
      "inputs": [
        {
          "internalType": "address",
          "name": "admin",
          "type": "address"
        }
      ],
      "name": "removeAssetListingAdmin",
      "outputs": [],
      "stateMutability": "nonpayable",
      "type": "function"
    },
    {
      "inputs": [
        {
          "internalType": "address",
          "name": "bridge",
          "type": "address"
        }
      ],
      "name": "removeBridge",
      "outputs": [],
      "stateMutability": "nonpayable",
      "type": "function"
    },
    {
      "inputs": [
        {
          "internalType": "address",
          "name": "admin",
          "type": "address"
        }
      ],
      "name": "removeEmergencyAdmin",
      "outputs": [],
      "stateMutability": "nonpayable",
      "type": "function"
    },
    {
      "inputs": [
        {
          "internalType": "address",
          "name": "borrower",
          "type": "address"
        }
      ],
      "name": "removeFlashBorrower",
      "outputs": [],
      "stateMutability": "nonpayable",
      "type": "function"
    },
    {
      "inputs": [
        {
          "internalType": "address",
          "name": "admin",
          "type": "address"
        }
      ],
      "name": "removePoolAdmin",
      "outputs": [],
      "stateMutability": "nonpayable",
      "type": "function"
    },
    {
      "inputs": [
        {
          "internalType": "address",
          "name": "admin",
          "type": "address"
        }
      ],
      "name": "removeRiskAdmin",
      "outputs": [],
      "stateMutability": "nonpayable",
      "type": "function"
    },
    {
      "inputs": [
        {
          "internalType": "bytes32",
          "name": "role",
          "type": "bytes32"
        },
        {
          "internalType": "address",
          "name": "account",
          "type": "address"
        }
      ],
      "name": "renounceRole",
      "outputs": [],
      "stateMutability": "nonpayable",
      "type": "function"
    },
    {
      "inputs": [
        {
          "internalType": "bytes32",
          "name": "role",
          "type": "bytes32"
        },
        {
          "internalType": "address",
          "name": "account",
          "type": "address"
        }
      ],
      "name": "revokeRole",
      "outputs": [],
      "stateMutability": "nonpayable",
      "type": "function"
    },
    {
      "inputs": [
        {
          "internalType": "bytes32",
          "name": "role",
          "type": "bytes32"
        },
        {
          "internalType": "bytes32",
          "name": "adminRole",
          "type": "bytes32"
        }
      ],
      "name": "setRoleAdmin",
      "outputs": [],
      "stateMutability": "nonpayable",
      "type": "function"
    },
    {
      "inputs": [
        {
          "internalType": "bytes4",
          "name": "interfaceId",
          "type": "bytes4"
        }
      ],
      "name": "supportsInterface",
      "outputs": [
        {
          "internalType": "bool",
          "name": "",
          "type": "bool"
        }
      ],
      "stateMutability": "view",
      "type": "function"
    }
  ],
  "transactionHash": "0xdcbcb757f26f9d14abb9487fd4afc4fad59a2aa716a06228a029662fe3d3b4fc",
  "args": [
    "0xFc320F58632d82035FDD5340a5D68B695A8Ca914"
  ],
  "numDeployments": 1,
  "solcInputHash": "2527ebfec9c9a604caa210608c9d74c8",
  "bytecode": "0x60a06040523480156200001157600080fd5b5060405162001095380380620010958339810160408190526200003491620001e3565b806001600160a01b03166080816001600160a01b0316815250506000816001600160a01b0316630e67178c6040518163ffffffff1660e01b8152600401602060405180830381865afa1580156200008f573d6000803e3d6000fd5b505050506040513d601f19601f82011682018060405250810190620000b59190620001e3565b604080518082019091526002815261373560f01b60208201529091506001600160a01b038216620001045760405162461bcd60e51b8152600401620000fb91906200020a565b60405180910390fd5b50620001126000826200011a565b50506200025b565b6200012682826200012a565b5050565b6000828152602081815260408083206001600160a01b038516845290915290205460ff1662000126576000828152602081815260408083206001600160a01b03851684529091529020805460ff19166001179055620001863390565b6001600160a01b0316816001600160a01b0316837f2f8788117e7eff1d82e926ec794901d17c78024a50270940304540a733656f0d60405160405180910390a45050565b6001600160a01b0381168114620001e057600080fd5b50565b600060208284031215620001f657600080fd5b81516200020381620001ca565b9392505050565b60006020808352835180602085015260005b818110156200023a578581018301518582016040015282016200021c565b506000604082860101526040601f19601f8301168501019250505092915050565b608051610e1e6200027760003960006102420152610e1e6000f3fe608060405234801561001057600080fd5b50600436106101fb5760003560e01c8063674b5e4d1161011a5780639a2b96f7116100ad578063b5bfddea1161007c578063b5bfddea14610472578063b8f6dba714610487578063d547741f1461049c578063f83695cb146104af578063fa50f297146104c257600080fd5b80639a2b96f7146104315780639ac9d80b14610444578063a217fddf14610457578063a21bce151461045f57600080fd5b80637a9a93f4116100e95780637a9a93f4146103e55780637be53ca1146103f857806391d148541461040b5780639712fdf81461041e57600080fd5b8063674b5e4d146103955780636e76fc8f146103a8578063726600ce146103bd57806378bb0a43146103d057600080fd5b80632500f2b6116101925780633c5a08e5116101615780633c5a08e5146103455780634f16b425146103585780635577b7a91461036d5780635b9a94e41461038257600080fd5b80632500f2b6146102f9578063253cf9801461030c5780632f2ff15d1461031f57806336568abe1461033257600080fd5b8063179efb09116101ce578063179efb091461028f5780631e4e0091146102a257806322650caf146102b5578063248a9ca3146102c857600080fd5b806301ffc9a71461020057806304df017d146102285780630542975c1461023d57806313ee32e01461027c575b600080fd5b61021361020e366004610b11565b6104d5565b60405190151581526020015b60405180910390f35b61023b610236366004610b57565b61050c565b005b6102647f000000000000000000000000000000000000000000000000000000000000000081565b6040516001600160a01b03909116815260200161021f565b61021361028a366004610b57565b610527565b61023b61029d366004610b57565b610541565b61023b6102b0366004610b72565b610559565b61023b6102c3366004610b57565b610574565b6102eb6102d6366004610b94565b60009081526020819052604090206001015490565b60405190815260200161021f565b610213610307366004610b57565b61058c565b61023b61031a366004610b57565b6105a6565b61023b61032d366004610bad565b6105be565b61023b610340366004610bad565b6105e4565b61023b610353366004610b57565b610667565b6102eb600080516020610d4983398151915281565b6102eb600080516020610dc983398151915281565b61023b610390366004610b57565b61067f565b6102136103a3366004610b57565b610697565b6102eb600080516020610da983398151915281565b6102136103cb366004610b57565b6106b1565b6102eb600080516020610d6983398151915281565b61023b6103f3366004610b57565b6106cb565b610213610406366004610b57565b6106e3565b610213610419366004610bad565b6106f9565b61023b61042c366004610b57565b610722565b61023b61043f366004610b57565b61073a565b61023b610452366004610b57565b610752565b6102eb600081565b61023b61046d366004610b57565b61076a565b6102eb600080516020610d8983398151915281565b6102eb600080516020610d2983398151915281565b61023b6104aa366004610bad565b61077e565b61023b6104bd366004610b57565b6107a4565b6102136104d0366004610b57565b6107bc565b60006001600160e01b03198216637965db0b60e01b148061050657506301ffc9a760e01b6001600160e01b03198316145b92915050565b610524600080516020610d898339815191528261077e565b50565b6000610506600080516020610d69833981519152836106f9565b610524600080516020610da9833981519152826105be565b600061056581336107d6565b61056f838361083a565b505050565b610524600080516020610d29833981519152826105be565b6000610506600080516020610da9833981519152836106f9565b610524600080516020610dc98339815191528261077e565b6000828152602081905260409020600101546105da81336107d6565b61056f8383610885565b6001600160a01b03811633146106595760405162461bcd60e51b815260206004820152602f60248201527f416363657373436f6e74726f6c3a2063616e206f6e6c792072656e6f756e636560448201526e103937b632b9903337b91039b2b63360891b60648201526084015b60405180910390fd5b6106638282610909565b5050565b610524600080516020610d498339815191528261077e565b610524600080516020610d49833981519152826105be565b6000610506600080516020610d49833981519152836106f9565b6000610506600080516020610d89833981519152836106f9565b610524600080516020610da98339815191528261077e565b6000610506600080516020610d29833981519152835b6000918252602082815260408084206001600160a01b0393909316845291905290205460ff1690565b610524600080516020610d89833981519152826105be565b610524600080516020610d69833981519152826105be565b610524600080516020610dc9833981519152826105be565b610524600080516020610d69833981519152825b60008281526020819052604090206001015461079a81336107d6565b61056f8383610909565b610524600080516020610d298339815191528261077e565b6000610506600080516020610dc9833981519152836106f9565b6107e082826106f9565b610663576107f8816001600160a01b0316601461096e565b61080383602061096e565b604051602001610814929190610bfd565b60408051601f198184030181529082905262461bcd60e51b825261065091600401610c72565b600082815260208190526040808220600101805490849055905190918391839186917fbd79b86ffe0ab8e8776151514217cd7cacd52c909f66475c3af44e129f0b00ff9190a4505050565b61088f82826106f9565b610663576000828152602081815260408083206001600160a01b03851684529091529020805460ff191660011790556108c53390565b6001600160a01b0316816001600160a01b0316837f2f8788117e7eff1d82e926ec794901d17c78024a50270940304540a733656f0d60405160405180910390a45050565b61091382826106f9565b15610663576000828152602081815260408083206001600160a01b0385168085529252808320805460ff1916905551339285917ff6391f5c32d9c69d2a47ea670b442974b53935d1edc7fd64eb21e047a839171b9190a45050565b6060600061097d836002610cbb565b610988906002610cd2565b67ffffffffffffffff8111156109a0576109a0610ce5565b6040519080825280601f01601f1916602001820160405280156109ca576020820181803683370190505b509050600360fc1b816000815181106109e5576109e5610cfb565b60200101906001600160f81b031916908160001a905350600f60fb1b81600181518110610a1457610a14610cfb565b60200101906001600160f81b031916908160001a9053506000610a38846002610cbb565b610a43906001610cd2565b90505b6001811115610abb576f181899199a1a9b1b9c1cb0b131b232b360811b85600f1660108110610a7757610a77610cfb565b1a60f81b828281518110610a8d57610a8d610cfb565b60200101906001600160f81b031916908160001a90535060049490941c93610ab481610d11565b9050610a46565b508315610b0a5760405162461bcd60e51b815260206004820181905260248201527f537472696e67733a20686578206c656e67746820696e73756666696369656e746044820152606401610650565b9392505050565b600060208284031215610b2357600080fd5b81356001600160e01b031981168114610b0a57600080fd5b80356001600160a01b0381168114610b5257600080fd5b919050565b600060208284031215610b6957600080fd5b610b0a82610b3b565b60008060408385031215610b8557600080fd5b50508035926020909101359150565b600060208284031215610ba657600080fd5b5035919050565b60008060408385031215610bc057600080fd5b82359150610bd060208401610b3b565b90509250929050565b60005b83811015610bf4578181015183820152602001610bdc565b50506000910152565b7f416363657373436f6e74726f6c3a206163636f756e7420000000000000000000815260008351610c35816017850160208801610bd9565b7001034b99036b4b9b9b4b733903937b6329607d1b6017918401918201528351610c66816028840160208801610bd9565b01602801949350505050565b6020815260008251806020840152610c91816040850160208701610bd9565b601f01601f19169190910160400192915050565b634e487b7160e01b600052601160045260246000fd5b808202811582820484141761050657610506610ca5565b8082018082111561050657610506610ca5565b634e487b7160e01b600052604160045260246000fd5b634e487b7160e01b600052603260045260246000fd5b600081610d2057610d20610ca5565b50600019019056fe12ad05bde78c5ab75238ce885307f96ecd482bb402ef831f99e7018a0f169b7b8aa855a911518ecfbe5bc3088c8f3dda7badf130faaf8ace33fdc33828e1816719c860a63258efbd0ecb7d55c626237bf5c2044c26c073390b74f0c13c85743308fb31c3e81624356c3314088aa971b73bcc82d22bc3e3b184b4593077ae32785c91514091af31f62f596a314af7d5be40146b2f2355969392f055e12e0982fb939b8dfb57ecef2aea54a93a15e86768b9d4089f1ba61c245e6ec980695f4ca4a26469706673582212206ae25d5c8d3e85007213e9aef7c360de03d63abb2f37772a61a7787e6544891564736f6c63430008160033",
  "devdoc": {
    "author": "Aave",
    "events": {
      "RoleAdminChanged(bytes32,bytes32,bytes32)": {
        "details": "Emitted when `newAdminRole` is set as ``role``'s admin role, replacing `previousAdminRole` `DEFAULT_ADMIN_ROLE` is the starting admin for all roles, despite {RoleAdminChanged} not being emitted signaling this. _Available since v3.1._"
      },
      "RoleGranted(bytes32,address,address)": {
        "details": "Emitted when `account` is granted `role`. `sender` is the account that originated the contract call, an admin role bearer except when using {AccessControl-_setupRole}."
      },
      "RoleRevoked(bytes32,address,address)": {
        "details": "Emitted when `account` is revoked `role`. `sender` is the account that originated the contract call:   - if using `revokeRole`, it is the admin role bearer   - if using `renounceRole`, it is the role bearer (i.e. `account`)"
      }
    },
    "kind": "dev",
    "methods": {
      "addAssetListingAdmin(address)": {
        "params": {
          "admin": "The address of the new admin"
        }
      },
      "addBridge(address)": {
        "params": {
          "bridge": "The address of the new Bridge"
        }
      },
      "addEmergencyAdmin(address)": {
        "params": {
          "admin": "The address of the new admin"
        }
      },
      "addFlashBorrower(address)": {
        "params": {
          "borrower": "The address of the new FlashBorrower"
        }
      },
      "addPoolAdmin(address)": {
        "params": {
          "admin": "The address of the new admin"
        }
      },
      "addRiskAdmin(address)": {
        "params": {
          "admin": "The address of the new admin"
        }
      },
      "constructor": {
        "details": "ConstructorThe ACL admin should be initialized at the addressesProvider beforehand",
        "params": {
          "provider": "The address of the PoolAddressesProvider"
        }
      },
      "getRoleAdmin(bytes32)": {
        "details": "Returns the admin role that controls `role`. See {grantRole} and {revokeRole}. To change a role's admin, use {_setRoleAdmin}."
      },
      "grantRole(bytes32,address)": {
        "details": "Grants `role` to `account`. If `account` had not been already granted `role`, emits a {RoleGranted} event. Requirements: - the caller must have ``role``'s admin role."
      },
      "hasRole(bytes32,address)": {
        "details": "Returns `true` if `account` has been granted `role`."
      },
      "isAssetListingAdmin(address)": {
        "params": {
          "admin": "The address to check"
        },
        "returns": {
          "_0": "True if the given address is AssetListingAdmin, false otherwise"
        }
      },
      "isBridge(address)": {
        "params": {
          "bridge": "The address to check"
        },
        "returns": {
          "_0": "True if the given address is Bridge, false otherwise"
        }
      },
      "isEmergencyAdmin(address)": {
        "params": {
          "admin": "The address to check"
        },
        "returns": {
          "_0": "True if the given address is EmergencyAdmin, false otherwise"
        }
      },
      "isFlashBorrower(address)": {
        "params": {
          "borrower": "The address to check"
        },
        "returns": {
          "_0": "True if the given address is FlashBorrower, false otherwise"
        }
      },
      "isPoolAdmin(address)": {
        "params": {
          "admin": "The address to check"
        },
        "returns": {
          "_0": "True if the given address is PoolAdmin, false otherwise"
        }
      },
      "isRiskAdmin(address)": {
        "params": {
          "admin": "The address to check"
        },
        "returns": {
          "_0": "True if the given address is RiskAdmin, false otherwise"
        }
      },
      "removeAssetListingAdmin(address)": {
        "params": {
          "admin": "The address of the admin to remove"
        }
      },
      "removeBridge(address)": {
        "params": {
          "bridge": "The address of the bridge to remove"
        }
      },
      "removeEmergencyAdmin(address)": {
        "params": {
          "admin": "The address of the admin to remove"
        }
      },
      "removeFlashBorrower(address)": {
        "params": {
          "borrower": "The address of the FlashBorrower to remove"
        }
      },
      "removePoolAdmin(address)": {
        "params": {
          "admin": "The address of the admin to remove"
        }
      },
      "removeRiskAdmin(address)": {
        "params": {
          "admin": "The address of the admin to remove"
        }
      },
      "renounceRole(bytes32,address)": {
        "details": "Revokes `role` from the calling account. Roles are often managed via {grantRole} and {revokeRole}: this function's purpose is to provide a mechanism for accounts to lose their privileges if they are compromised (such as when a trusted device is misplaced). If the calling account had been granted `role`, emits a {RoleRevoked} event. Requirements: - the caller must be `account`."
      },
      "revokeRole(bytes32,address)": {
        "details": "Revokes `role` from `account`. If `account` had been granted `role`, emits a {RoleRevoked} event. Requirements: - the caller must have ``role``'s admin role."
      },
      "setRoleAdmin(bytes32,bytes32)": {
        "details": "By default the admin role for all roles is `DEFAULT_ADMIN_ROLE`.",
        "params": {
          "adminRole": "The admin role",
          "role": "The role to be managed by the admin role"
        }
      },
      "supportsInterface(bytes4)": {
        "details": "See {IERC165-supportsInterface}."
      }
    },
    "stateVariables": {
      "ADDRESSES_PROVIDER": {
        "return": "The address of the PoolAddressesProvider",
        "returns": {
          "_0": "The address of the PoolAddressesProvider"
        }
      },
      "ASSET_LISTING_ADMIN_ROLE": {
        "return": "The id of the AssetListingAdmin role",
        "returns": {
          "_0": "The id of the AssetListingAdmin role"
        }
      },
      "BRIDGE_ROLE": {
        "return": "The id of the Bridge role",
        "returns": {
          "_0": "The id of the Bridge role"
        }
      },
      "EMERGENCY_ADMIN_ROLE": {
        "return": "The id of the EmergencyAdmin role",
        "returns": {
          "_0": "The id of the EmergencyAdmin role"
        }
      },
      "FLASH_BORROWER_ROLE": {
        "return": "The id of the FlashBorrower role",
        "returns": {
          "_0": "The id of the FlashBorrower role"
        }
      },
      "POOL_ADMIN_ROLE": {
        "return": "The id of the PoolAdmin role",
        "returns": {
          "_0": "The id of the PoolAdmin role"
        }
      },
      "RISK_ADMIN_ROLE": {
        "return": "The id of the RiskAdmin role",
        "returns": {
          "_0": "The id of the RiskAdmin role"
        }
      }
    },
    "title": "ACLManager",
    "version": 1
  },
  "userdoc": {
    "kind": "user",
    "methods": {
      "ADDRESSES_PROVIDER()": {
        "notice": "Returns the contract address of the PoolAddressesProvider"
      },
      "ASSET_LISTING_ADMIN_ROLE()": {
        "notice": "Returns the identifier of the AssetListingAdmin role"
      },
      "BRIDGE_ROLE()": {
        "notice": "Returns the identifier of the Bridge role"
      },
      "EMERGENCY_ADMIN_ROLE()": {
        "notice": "Returns the identifier of the EmergencyAdmin role"
      },
      "FLASH_BORROWER_ROLE()": {
        "notice": "Returns the identifier of the FlashBorrower role"
      },
      "POOL_ADMIN_ROLE()": {
        "notice": "Returns the identifier of the PoolAdmin role"
      },
      "RISK_ADMIN_ROLE()": {
        "notice": "Returns the identifier of the RiskAdmin role"
      },
      "addAssetListingAdmin(address)": {
        "notice": "Adds a new admin as AssetListingAdmin"
      },
      "addBridge(address)": {
        "notice": "Adds a new address as Bridge"
      },
      "addEmergencyAdmin(address)": {
        "notice": "Adds a new admin as EmergencyAdmin"
      },
      "addFlashBorrower(address)": {
        "notice": "Adds a new address as FlashBorrower"
      },
      "addPoolAdmin(address)": {
        "notice": "Adds a new admin as PoolAdmin"
      },
      "addRiskAdmin(address)": {
        "notice": "Adds a new admin as RiskAdmin"
      },
      "isAssetListingAdmin(address)": {
        "notice": "Returns true if the address is AssetListingAdmin, false otherwise"
      },
      "isBridge(address)": {
        "notice": "Returns true if the address is Bridge, false otherwise"
      },
      "isEmergencyAdmin(address)": {
        "notice": "Returns true if the address is EmergencyAdmin, false otherwise"
      },
      "isFlashBorrower(address)": {
        "notice": "Returns true if the address is FlashBorrower, false otherwise"
      },
      "isPoolAdmin(address)": {
        "notice": "Returns true if the address is PoolAdmin, false otherwise"
      },
      "isRiskAdmin(address)": {
        "notice": "Returns true if the address is RiskAdmin, false otherwise"
      },
      "removeAssetListingAdmin(address)": {
        "notice": "Removes an admin as AssetListingAdmin"
      },
      "removeBridge(address)": {
        "notice": "Removes an address as Bridge"
      },
      "removeEmergencyAdmin(address)": {
        "notice": "Removes an admin as EmergencyAdmin"
      },
      "removeFlashBorrower(address)": {
        "notice": "Removes an address as FlashBorrower"
      },
      "removePoolAdmin(address)": {
        "notice": "Removes an admin as PoolAdmin"
      },
      "removeRiskAdmin(address)": {
        "notice": "Removes an admin as RiskAdmin"
      },
      "setRoleAdmin(bytes32,bytes32)": {
        "notice": "Set the role as admin of a specific role."
      }
    },
    "notice": "Access Control List Manager. Main registry of system roles and permissions.",
    "version": 1
  },
  "storageLayout": {
    "storage": [
      {
        "astId": 19017,
        "contract": "contracts/dlend/core/protocol/configuration/ACLManager.sol:ACLManager",
        "label": "_roles",
        "offset": 0,
        "slot": "0",
        "type": "t_mapping(t_bytes32,t_struct(RoleData)19012_storage)"
      }
    ],
    "types": {
      "t_address": {
        "encoding": "inplace",
        "label": "address",
        "numberOfBytes": "20"
      },
      "t_bool": {
        "encoding": "inplace",
        "label": "bool",
        "numberOfBytes": "1"
      },
      "t_bytes32": {
        "encoding": "inplace",
        "label": "bytes32",
        "numberOfBytes": "32"
      },
      "t_mapping(t_address,t_bool)": {
        "encoding": "mapping",
        "key": "t_address",
        "label": "mapping(address => bool)",
        "numberOfBytes": "32",
        "value": "t_bool"
      },
      "t_mapping(t_bytes32,t_struct(RoleData)19012_storage)": {
        "encoding": "mapping",
        "key": "t_bytes32",
        "label": "mapping(bytes32 => struct AccessControl.RoleData)",
        "numberOfBytes": "32",
        "value": "t_struct(RoleData)19012_storage"
      },
      "t_struct(RoleData)19012_storage": {
        "encoding": "inplace",
        "label": "struct AccessControl.RoleData",
        "members": [
          {
            "astId": 19009,
            "contract": "contracts/dlend/core/protocol/configuration/ACLManager.sol:ACLManager",
            "label": "members",
            "offset": 0,
            "slot": "0",
            "type": "t_mapping(t_address,t_bool)"
          },
          {
            "astId": 19011,
            "contract": "contracts/dlend/core/protocol/configuration/ACLManager.sol:ACLManager",
            "label": "adminRole",
            "offset": 0,
            "slot": "1",
            "type": "t_bytes32"
          }
        ],
        "numberOfBytes": "64"
      }
    }
  }
}