{
  "address": "0xc0B5CECe405E05478CdC3EF8D967922fc6eB8145",
  "abi": [
    {
      "inputs": [
        {
          "internalType": "address",
          "name": "_collateralVault",
          "type": "address"
        },
        {
          "internalType": "address",
          "name": "_dstable",
          "type": "address"
        },
        {
          "internalType": "contract IPriceOracleGetter",
          "name": "oracle",
          "type": "address"
        },
        {
          "internalType": "address",
          "name": "_amoManager",
          "type": "address"
        }
      ],
      "stateMutability": "nonpayable",
      "type": "constructor"
    },
    {
      "inputs": [],
      "name": "AccessControlBadConfirmation",
      "type": "error"
    },
    {
      "inputs": [
        {
          "internalType": "address",
          "name": "account",
          "type": "address"
        },
        {
          "internalType": "bytes32",
          "name": "neededRole",
          "type": "bytes32"
        }
      ],
      "name": "AccessControlUnauthorizedAccount",
      "type": "error"
    },
    {
      "inputs": [
        {
          "internalType": "address",
          "name": "asset",
          "type": "address"
        }
      ],
      "name": "AssetMintingPaused",
      "type": "error"
    },
    {
      "inputs": [],
      "name": "EnforcedPause",
      "type": "error"
    },
    {
      "inputs": [],
      "name": "ExpectedPause",
      "type": "error"
    },
    {
      "inputs": [
        {
          "internalType": "uint256",
          "name": "baseCurrencyUnit",
          "type": "uint256"
        }
      ],
      "name": "IncorrectBaseCurrencyUnit",
      "type": "error"
    },
    {
      "inputs": [
        {
          "internalType": "uint256",
          "name": "collateralInDstable",
          "type": "uint256"
        },
        {
          "internalType": "uint256",
          "name": "circulatingDstable",
          "type": "uint256"
        }
      ],
      "name": "IssuanceSurpassesExcessCollateral",
      "type": "error"
    },
    {
      "inputs": [
        {
          "internalType": "uint256",
          "name": "circulatingDstableBefore",
          "type": "uint256"
        },
        {
          "internalType": "uint256",
          "name": "circulatingDstableAfter",
          "type": "uint256"
        }
      ],
      "name": "MintingToAmoShouldNotIncreaseSupply",
      "type": "error"
    },
    {
      "inputs": [],
      "name": "ReentrancyGuardReentrantCall",
      "type": "error"
    },
    {
      "inputs": [
        {
          "internalType": "address",
          "name": "token",
          "type": "address"
        }
      ],
      "name": "SafeERC20FailedOperation",
      "type": "error"
    },
    {
      "inputs": [
        {
          "internalType": "uint256",
          "name": "minDStable",
          "type": "uint256"
        },
        {
          "internalType": "uint256",
          "name": "dstableAmount",
          "type": "uint256"
        }
      ],
      "name": "SlippageTooHigh",
      "type": "error"
    },
    {
      "inputs": [
        {
          "internalType": "address",
          "name": "collateralAsset",
          "type": "address"
        }
      ],
      "name": "UnsupportedCollateral",
      "type": "error"
    },
    {
      "anonymous": false,
      "inputs": [
        {
          "indexed": true,
          "internalType": "address",
          "name": "amoManager",
          "type": "address"
        }
      ],
      "name": "AmoManagerSet",
      "type": "event"
    },
    {
      "anonymous": false,
      "inputs": [
        {
          "indexed": true,
          "internalType": "address",
          "name": "asset",
          "type": "address"
        },
        {
          "indexed": false,
          "internalType": "bool",
          "name": "paused",
          "type": "bool"
        }
      ],
      "name": "AssetMintingPauseUpdated",
      "type": "event"
    },
    {
      "anonymous": false,
      "inputs": [
        {
          "indexed": true,
          "internalType": "address",
          "name": "collateralVault",
          "type": "address"
        }
      ],
      "name": "CollateralVaultSet",
      "type": "event"
    },
    {
      "anonymous": false,
      "inputs": [
        {
          "indexed": true,
          "internalType": "address",
          "name": "newOracle",
          "type": "address"
        }
      ],
      "name": "OracleSet",
      "type": "event"
    },
    {
      "anonymous": false,
      "inputs": [
        {
          "indexed": false,
          "internalType": "address",
          "name": "account",
          "type": "address"
        }
      ],
      "name": "Paused",
      "type": "event"
    },
    {
      "anonymous": false,
      "inputs": [
        {
          "indexed": true,
          "internalType": "bytes32",
          "name": "role",
          "type": "bytes32"
        },
        {
          "indexed": true,
          "internalType": "bytes32",
          "name": "previousAdminRole",
          "type": "bytes32"
        },
        {
          "indexed": true,
          "internalType": "bytes32",
          "name": "newAdminRole",
          "type": "bytes32"
        }
      ],
      "name": "RoleAdminChanged",
      "type": "event"
    },
    {
      "anonymous": false,
      "inputs": [
        {
          "indexed": true,
          "internalType": "bytes32",
          "name": "role",
          "type": "bytes32"
        },
        {
          "indexed": true,
          "internalType": "address",
          "name": "account",
          "type": "address"
        },
        {
          "indexed": true,
          "internalType": "address",
          "name": "sender",
          "type": "address"
        }
      ],
      "name": "RoleGranted",
      "type": "event"
    },
    {
      "anonymous": false,
      "inputs": [
        {
          "indexed": true,
          "internalType": "bytes32",
          "name": "role",
          "type": "bytes32"
        },
        {
          "indexed": true,
          "internalType": "address",
          "name": "account",
          "type": "address"
        },
        {
          "indexed": true,
          "internalType": "address",
          "name": "sender",
          "type": "address"
        }
      ],
      "name": "RoleRevoked",
      "type": "event"
    },
    {
      "anonymous": false,
      "inputs": [
        {
          "indexed": false,
          "internalType": "address",
          "name": "account",
          "type": "address"
        }
      ],
      "name": "Unpaused",
      "type": "event"
    },
    {
      "inputs": [],
      "name": "AMO_MANAGER_ROLE",
      "outputs": [
        {
          "internalType": "bytes32",
          "name": "",
          "type": "bytes32"
        }
      ],
      "stateMutability": "view",
      "type": "function"
    },
    {
      "inputs": [],
      "name": "DEFAULT_ADMIN_ROLE",
      "outputs": [
        {
          "internalType": "bytes32",
          "name": "",
          "type": "bytes32"
        }
      ],
      "stateMutability": "view",
      "type": "function"
    },
    {
      "inputs": [],
      "name": "INCENTIVES_MANAGER_ROLE",
      "outputs": [
        {
          "internalType": "bytes32",
          "name": "",
          "type": "bytes32"
        }
      ],
      "stateMutability": "view",
      "type": "function"
    },
    {
      "inputs": [],
      "name": "PAUSER_ROLE",
      "outputs": [
        {
          "internalType": "bytes32",
          "name": "",
          "type": "bytes32"
        }
      ],
      "stateMutability": "view",
      "type": "function"
    },
    {
      "inputs": [],
      "name": "amoManager",
      "outputs": [
        {
          "internalType": "contract AmoManager",
          "name": "",
          "type": "address"
        }
      ],
      "stateMutability": "view",
      "type": "function"
    },
    {
      "inputs": [
        {
          "internalType": "address",
          "name": "",
          "type": "address"
        }
      ],
      "name": "assetMintingPaused",
      "outputs": [
        {
          "internalType": "bool",
          "name": "",
          "type": "bool"
        }
      ],
      "stateMutability": "view",
      "type": "function"
    },
    {
      "inputs": [],
      "name": "baseCurrencyUnit",
      "outputs": [
        {
          "internalType": "uint256",
          "name": "",
          "type": "uint256"
        }
      ],
      "stateMutability": "view",
      "type": "function"
    },
    {
      "inputs": [
        {
          "internalType": "uint256",
          "name": "baseValue",
          "type": "uint256"
        }
      ],
      "name": "baseValueToDstableAmount",
      "outputs": [
        {
          "internalType": "uint256",
          "name": "",
          "type": "uint256"
        }
      ],
      "stateMutability": "view",
      "type": "function"
    },
    {
      "inputs": [],
      "name": "circulatingDstable",
      "outputs": [
        {
          "internalType": "uint256",
          "name": "",
          "type": "uint256"
        }
      ],
      "stateMutability": "view",
      "type": "function"
    },
    {
      "inputs": [],
      "name": "collateralInDstable",
      "outputs": [
        {
          "internalType": "uint256",
          "name": "",
          "type": "uint256"
        }
      ],
      "stateMutability": "view",
      "type": "function"
    },
    {
      "inputs": [],
      "name": "collateralVault",
      "outputs": [
        {
          "internalType": "contract CollateralVault",
          "name": "",
          "type": "address"
        }
      ],
      "stateMutability": "view",
      "type": "function"
    },
    {
      "inputs": [],
      "name": "dstable",
      "outputs": [
        {
          "internalType": "contract IMintableERC20",
          "name": "",
          "type": "address"
        }
      ],
      "stateMutability": "view",
      "type": "function"
    },
    {
      "inputs": [],
      "name": "dstableDecimals",
      "outputs": [
        {
          "internalType": "uint8",
          "name": "",
          "type": "uint8"
        }
      ],
      "stateMutability": "view",
      "type": "function"
    },
    {
      "inputs": [
        {
          "internalType": "bytes32",
          "name": "role",
          "type": "bytes32"
        }
      ],
      "name": "getRoleAdmin",
      "outputs": [
        {
          "internalType": "bytes32",
          "name": "",
          "type": "bytes32"
        }
      ],
      "stateMutability": "view",
      "type": "function"
    },
    {
      "inputs": [
        {
          "internalType": "bytes32",
          "name": "role",
          "type": "bytes32"
        },
        {
          "internalType": "address",
          "name": "account",
          "type": "address"
        }
      ],
      "name": "grantRole",
      "outputs": [],
      "stateMutability": "nonpayable",
      "type": "function"
    },
    {
      "inputs": [
        {
          "internalType": "bytes32",
          "name": "role",
          "type": "bytes32"
        },
        {
          "internalType": "address",
          "name": "account",
          "type": "address"
        }
      ],
      "name": "hasRole",
      "outputs": [
        {
          "internalType": "bool",
          "name": "",
          "type": "bool"
        }
      ],
      "stateMutability": "view",
      "type": "function"
    },
    {
      "inputs": [
        {
          "internalType": "uint256",
          "name": "dstableAmount",
          "type": "uint256"
        }
      ],
      "name": "increaseAmoSupply",
      "outputs": [],
      "stateMutability": "nonpayable",
      "type": "function"
    },
    {
      "inputs": [
        {
          "internalType": "address",
          "name": "asset",
          "type": "address"
        }
      ],
      "name": "isAssetMintingEnabled",
      "outputs": [
        {
          "internalType": "bool",
          "name": "",
          "type": "bool"
        }
      ],
      "stateMutability": "view",
      "type": "function"
    },
    {
      "inputs": [
        {
          "internalType": "uint256",
          "name": "collateralAmount",
          "type": "uint256"
        },
        {
          "internalType": "address",
          "name": "collateralAsset",
          "type": "address"
        },
        {
          "internalType": "uint256",
          "name": "minDStable",
          "type": "uint256"
        }
      ],
      "name": "issue",
      "outputs": [],
      "stateMutability": "nonpayable",
      "type": "function"
    },
    {
      "inputs": [
        {
          "internalType": "address",
          "name": "receiver",
          "type": "address"
        },
        {
          "internalType": "uint256",
          "name": "dstableAmount",
          "type": "uint256"
        }
      ],
      "name": "issueUsingExcessCollateral",
      "outputs": [],
      "stateMutability": "nonpayable",
      "type": "function"
    },
    {
      "inputs": [],
      "name": "oracle",
      "outputs": [
        {
          "internalType": "contract IPriceOracleGetter",
          "name": "",
          "type": "address"
        }
      ],
      "stateMutability": "view",
      "type": "function"
    },
    {
      "inputs": [],
      "name": "pauseMinting",
      "outputs": [],
      "stateMutability": "nonpayable",
      "type": "function"
    },
    {
      "inputs": [],
      "name": "paused",
      "outputs": [
        {
          "internalType": "bool",
          "name": "",
          "type": "bool"
        }
      ],
      "stateMutability": "view",
      "type": "function"
    },
    {
      "inputs": [
        {
          "internalType": "bytes32",
          "name": "role",
          "type": "bytes32"
        },
        {
          "internalType": "address",
          "name": "callerConfirmation",
          "type": "address"
        }
      ],
      "name": "renounceRole",
      "outputs": [],
      "stateMutability": "nonpayable",
      "type": "function"
    },
    {
      "inputs": [
        {
          "internalType": "bytes32",
          "name": "role",
          "type": "bytes32"
        },
        {
          "internalType": "address",
          "name": "account",
          "type": "address"
        }
      ],
      "name": "revokeRole",
      "outputs": [],
      "stateMutability": "nonpayable",
      "type": "function"
    },
    {
      "inputs": [
        {
          "internalType": "address",
          "name": "_amoManager",
          "type": "address"
        }
      ],
      "name": "setAmoManager",
      "outputs": [],
      "stateMutability": "nonpayable",
      "type": "function"
    },
    {
      "inputs": [
        {
          "internalType": "address",
          "name": "asset",
          "type": "address"
        },
        {
          "internalType": "bool",
          "name": "paused",
          "type": "bool"
        }
      ],
      "name": "setAssetMintingPause",
      "outputs": [],
      "stateMutability": "nonpayable",
      "type": "function"
    },
    {
      "inputs": [
        {
          "internalType": "uint256",
          "name": "_newBaseCurrencyUnit",
          "type": "uint256"
        }
      ],
      "name": "setBaseCurrencyUnit",
      "outputs": [],
      "stateMutability": "nonpayable",
      "type": "function"
    },
    {
      "inputs": [
        {
          "internalType": "address",
          "name": "_collateralVault",
          "type": "address"
        }
      ],
      "name": "setCollateralVault",
      "outputs": [],
      "stateMutability": "nonpayable",
      "type": "function"
    },
    {
      "inputs": [
        {
          "internalType": "contract IPriceOracleGetter",
          "name": "newOracle",
          "type": "address"
        }
      ],
      "name": "setOracle",
      "outputs": [],
      "stateMutability": "nonpayable",
      "type": "function"
    },
    {
      "inputs": [
        {
          "internalType": "bytes4",
          "name": "interfaceId",
          "type": "bytes4"
        }
      ],
      "name": "supportsInterface",
      "outputs": [
        {
          "internalType": "bool",
          "name": "",
          "type": "bool"
        }
      ],
      "stateMutability": "view",
      "type": "function"
    },
    {
      "inputs": [],
      "name": "unpauseMinting",
      "outputs": [],
      "stateMutability": "nonpayable",
      "type": "function"
    }
  ],
  "transactionHash": "0xd44054f922af6e4f36ccfbc5b29971b1b90c9287eb67a4845608e5b11727f573",
  "args": [
    "0x4d6795E4a7E2079bf786295CFAC2bE574EA64d25",
    "0xf49E05B4915eac34FD5C7E7048f77c20b9Ea2df7",
    "0x6619C9b5Ed53C1C6D73cC32Ddea421Aa82388763",
    "0xA51386277aC241a91d753CA61602d4B806e97019"
  ],
  "numDeployments": 1,
  "solcInputHash": "545f3337935633e4d561933306d94a85",
  "bytecode": "0x60a06040523480156200001157600080fd5b5060405162001b5938038062001b59833981016040819052620000349162000391565b81826001600160a01b0316638c89b64f6040518163ffffffff1660e01b8152600401602060405180830381865afa15801562000074573d6000803e3d6000fd5b505050506040513d601f19601f820116820180604052508101906200009a9190620003f9565b600180546001600160a01b0319166001600160a01b0384161790556002819055620000c760003362000232565b5050600160035550600580546001600160a01b0319166001600160a01b038681169190911790915560048054610100600160a81b0319166101008684168102919091178083556040805163313ce56760e01b81529051929091049093169263313ce56792818101926020929091908290030181865afa1580156200014f573d6000803e3d6000fd5b505050506040513d601f19601f8201168201806040525081019062000175919062000413565b60ff16608052600680546001600160a01b0319166001600160a01b038316179055620001a360003362000232565b50620001d07fbc4aa291e35c786eceb374be398429586e466107044903c4dff7a8687a53007033620002e1565b620001fc7f5e1c59076ed40a2f2d7578e32a78795e357500600174cc5627a8953d1551172233620002e1565b620002287f65d7a28e3265b37a6474929f336521b332c1681b933f6cb9f3376673440d862a33620002e1565b505050506200043f565b6000828152602081815260408083206001600160a01b038516845290915281205460ff16620002d7576000838152602081815260408083206001600160a01b03861684529091529020805460ff191660011790556200028e3390565b6001600160a01b0316826001600160a01b0316847f2f8788117e7eff1d82e926ec794901d17c78024a50270940304540a733656f0d60405160405180910390a4506001620002db565b5060005b92915050565b600082815260208190526040902060010154620002fe8162000310565b6200030a838362000232565b50505050565b6200031c81336200031f565b50565b6000828152602081815260408083206001600160a01b038516845290915290205460ff16620003775760405163e2517d3f60e01b81526001600160a01b03821660048201526024810183905260440160405180910390fd5b5050565b6001600160a01b03811681146200031c57600080fd5b60008060008060808587031215620003a857600080fd5b8451620003b5816200037b565b6020860151909450620003c8816200037b565b6040860151909350620003db816200037b565b6060860151909250620003ee816200037b565b939692955090935050565b6000602082840312156200040c57600080fd5b5051919050565b6000602082840312156200042657600080fd5b815160ff811681146200043857600080fd5b9392505050565b6080516116f762000462600039600081816102860152610e8101526116f76000f3fe608060405234801561001057600080fd5b50600436106101f05760003560e01c80637adbf9731161010f578063ae200322116100a2578063e63ab1e911610071578063e63ab1e914610468578063e797c5891461047d578063f3bddde114610490578063f817f7d01461049957600080fd5b8063ae20032214610432578063d547741f1461043a578063d54bc55e1461044d578063da8fbf2a1461046057600080fd5b80639866f320116100de5780639866f320146103dd5780639a0e2937146104045780639d4cc8d314610417578063a217fddf1461042a57600080fd5b80637adbf9731461038c5780637dc0d1d01461039f57806391d14854146103b257806397fe30ef146103c557600080fd5b806336568abe116101875780634a0bbabb116101565780634a0bbabb146103465780635b8862dc146103595780635c975abb1461036e57806368a806c41461037957600080fd5b806336568abe146102ea578063369ecbd5146102fd5780633ffa884c1461031057806344eab1541461032357600080fd5b806326663911116101c357806326663911146102815780632abcdf68146102ba5780632f2ff15d146102cf57806330975247146102e257600080fd5b806301ffc9a7146101f55780630bece79c1461021d57806311c71b3b14610248578063248a9ca31461025e575b600080fd5b6102086102033660046113b1565b6104ac565b60405190151581526020015b60405180910390f35b600554610230906001600160a01b031681565b6040516001600160a01b039091168152602001610214565b6102506104e3565b604051908152602001610214565b61025061026c3660046113db565b60009081526020819052604090206001015490565b6102a87f000000000000000000000000000000000000000000000000000000000000000081565b60405160ff9091168152602001610214565b6102cd6102c83660046113db565b6105eb565b005b6102cd6102dd366004611409565b6106ca565b6102506106ef565b6102cd6102f8366004611409565b61077a565b6102cd61030b366004611447565b6107b2565b6102cd61031e366004611475565b6108c0565b6102086103313660046114ad565b60076020526000908152604090205460ff1681565b6102cd6103543660046113db565b610b62565b6102506000805160206116a283398151915281565b60045460ff16610208565b6102cd6103873660046114ad565b610b73565b6102cd61039a3660046114ad565b610bc9565b600154610230906001600160a01b031681565b6102086103c0366004611409565b610ca8565b6004546102309061010090046001600160a01b031681565b6102507f5e1c59076ed40a2f2d7578e32a78795e357500600174cc5627a8953d1551172281565b6102086104123660046114ad565b610cd1565b6102cd6104253660046114ad565b610d6c565b610250600081565b6102cd610e2e565b6102cd610448366004611409565b610e51565b61025061045b3660046113db565b610e76565b6102cd610eaf565b61025060008051602061168283398151915281565b6102cd61048b3660046114ca565b610ecf565b61025060025481565b600654610230906001600160a01b031681565b60006001600160e01b03198216637965db0b60e01b14806104dd57506301ffc9a760e01b6001600160e01b03198316145b92915050565b600080600460019054906101000a90046001600160a01b03166001600160a01b03166318160ddd6040518163ffffffff1660e01b8152600401602060405180830381865afa158015610539573d6000803e3d6000fd5b505050506040513d601f19601f8201168201806040525081019061055d91906114f6565b90506000600660009054906101000a90046001600160a01b03166001600160a01b031663773df1516040518163ffffffff1660e01b8152600401602060405180830381865afa1580156105b4573d6000803e3d6000fd5b505050506040513d601f19601f820116820180604052508101906105d891906114f6565b90506105e48183611525565b9250505090565b6000805160206116a283398151915261060381610fba565b61060b610fc4565b60006106156104e3565b600480546006546040516340c10f1960e01b81526001600160a01b0391821693810193909352602483018790529293506101009004909116906340c10f1990604401600060405180830381600087803b15801561067157600080fd5b505af1158015610685573d6000803e3d6000fd5b5050505060006106936104e3565b90508181146106c45760405163353d06cf60e21b815260048101839052602481018290526044015b60405180910390fd5b50505050565b6000828152602081905260409020600101546106e581610fba565b6106c48383610fea565b600080600560009054906101000a90046001600160a01b03166001600160a01b031663d4c3eea06040518163ffffffff1660e01b8152600401602060405180830381865afa158015610745573d6000803e3d6000fd5b505050506040513d601f19601f8201168201806040525081019061076991906114f6565b905061077481610e76565b91505090565b6001600160a01b03811633146107a35760405163334bd91960e11b815260040160405180910390fd5b6107ad828261107c565b505050565b6000805160206116828339815191526107ca81610fba565b600554604051637d35e97760e11b81526001600160a01b0385811660048301529091169063fa6bd2ee90602401602060405180830381865afa158015610814573d6000803e3d6000fd5b505050506040513d601f19601f820116820180604052508101906108389190611538565b61086057604051632762993f60e11b81526001600160a01b03841660048201526024016106bb565b6001600160a01b038316600081815260076020908152604091829020805460ff191686151590811790915591519182527f6a3f78a37af68267ecb1a43ebdb9a1efb82ceb0f25ab9d945d85ce216406d87d910160405180910390a2505050565b6108c86110e7565b6108d0610fc4565b600554604051637d35e97760e11b81526001600160a01b0384811660048301529091169063fa6bd2ee90602401602060405180830381865afa15801561091a573d6000803e3d6000fd5b505050506040513d601f19601f8201168201806040525081019061093e9190611538565b61096657604051632762993f60e11b81526001600160a01b03831660048201526024016106bb565b6001600160a01b03821660009081526007602052604090205460ff16156109aa576040516260f4e760e01b81526001600160a01b03831660048201526024016106bb565b6000826001600160a01b031663313ce5676040518163ffffffff1660e01b8152600401602060405180830381865afa1580156109ea573d6000803e3d6000fd5b505050506040513d601f19601f82011682018060405250810190610a0e9190611555565b60015460405163b3596f0760e01b81526001600160a01b038681166004830152929350600092610a9592169063b3596f0790602401602060405180830381865afa158015610a60573d6000803e3d6000fd5b505050506040513d601f19601f82011682018060405250810190610a8491906114f6565b86610a9085600a61165c565b611111565b90506000610aa282610e76565b905083811015610acf57604051633b5d56ed60e11b815260048101859052602481018290526044016106bb565b600554610aeb906001600160a01b0387811691339116896111c7565b600480546040516340c10f1960e01b815233928101929092526024820183905261010090046001600160a01b0316906340c10f1990604401600060405180830381600087803b158015610b3d57600080fd5b505af1158015610b51573d6000803e3d6000fd5b505050505050506107ad6001600355565b6000610b6d81610fba565b50600255565b6000610b7e81610fba565b600580546001600160a01b0319166001600160a01b0384169081179091556040517fc92ec24b34ad9d3aa14cd5be87b888d7790d40903da5f44c6367b2fb6cdb208390600090a25050565b6000610bd481610fba565b600254826001600160a01b0316638c89b64f6040518163ffffffff1660e01b8152600401602060405180830381865afa158015610c15573d6000803e3d6000fd5b505050506040513d601f19601f82011682018060405250810190610c3991906114f6565b14610c5d57600254604051639b6812b960e01b81526004016106bb91815260200190565b600180546001600160a01b0319166001600160a01b0384169081179091556040517f3f32684a32a11dabdbb8c0177de80aa3ae36a004d75210335b49e544e48cd0aa90600090a25050565b6000918252602082815260408084206001600160a01b0393909316845291905290205460ff1690565b600554604051637d35e97760e11b81526001600160a01b038381166004830152600092169063fa6bd2ee90602401602060405180830381865afa158015610d1c573d6000803e3d6000fd5b505050506040513d601f19601f82011682018060405250810190610d409190611538565b610d4c57506000919050565b506001600160a01b031660009081526007602052604090205460ff161590565b6000610d7781610fba565b600680546001600160a01b038481166001600160a01b031983161790925516610dae6000805160206116a2833981519152846106ca565b6001600160a01b03811615801590610dd85750826001600160a01b0316816001600160a01b031614155b15610df557610df56000805160206116a283398151915282610e51565b6040516001600160a01b038416907fc1ed2a2e76938d5535836b1406331936bd2440c622b1314c8459f98a5065577b90600090a2505050565b600080516020611682833981519152610e4681610fba565b610e4e611221565b50565b600082815260208190526040902060010154610e6c81610fba565b6106c4838361107c565b60006104dd82610ea77f0000000000000000000000000000000000000000000000000000000000000000600a61165c565b600254611111565b600080516020611682833981519152610ec781610fba565b610e4e611273565b7f5e1c59076ed40a2f2d7578e32a78795e357500600174cc5627a8953d15511722610ef981610fba565b610f01610fc4565b600480546040516340c10f1960e01b81526001600160a01b038681169382019390935260248101859052610100909104909116906340c10f1990604401600060405180830381600087803b158015610f5857600080fd5b505af1158015610f6c573d6000803e3d6000fd5b505050506000610f7a6104e3565b90506000610f866106ef565b905081811015610fb3576040516379f1a2a760e01b815260048101829052602481018390526044016106bb565b5050505050565b610e4e81336112b0565b60045460ff1615610fe85760405163d93c066560e01b815260040160405180910390fd5b565b6000610ff68383610ca8565b611074576000838152602081815260408083206001600160a01b03861684529091529020805460ff1916600117905561102c3390565b6001600160a01b0316826001600160a01b0316847f2f8788117e7eff1d82e926ec794901d17c78024a50270940304540a733656f0d60405160405180910390a45060016104dd565b5060006104dd565b60006110888383610ca8565b15611074576000838152602081815260408083206001600160a01b0386168085529252808320805460ff1916905551339286917ff6391f5c32d9c69d2a47ea670b442974b53935d1edc7fd64eb21e047a839171b9190a45060016104dd565b60026003540361110a57604051633ee5aeb560e01b815260040160405180910390fd5b6002600355565b600080600061112086866112ed565b91509150816000036111455783818161113b5761113b61166b565b04925050506111c0565b81841161115c5761115c600385150260111861130b565b6000848688096000868103871696879004966002600389028118808a02820302808a02820302808a02820302808a02820302808a02820302808a02909103029181900381900460010185841190960395909502919093039390930492909217029150505b9392505050565b604080516001600160a01b0385811660248301528416604482015260648082018490528251808303909101815260849091019091526020810180516001600160e01b03166323b872dd60e01b1790526106c490859061131d565b61122961138e565b6004805460ff191690557f5db9ee0a495bf2e6ff9c91a7834c1ba4fdd244a5e8aa4e537bd38aeae4b073aa335b6040516001600160a01b03909116815260200160405180910390a1565b61127b610fc4565b6004805460ff191660011790557f62e78cea01bee320cd4e420270b5ea74000d11b0c9f74754ebdbfc544b05a2586112563390565b6112ba8282610ca8565b6112e95760405163e2517d3f60e01b81526001600160a01b0382166004820152602481018390526044016106bb565b5050565b60008060001983850993909202808410938190039390930393915050565b634e487b71600052806020526024601cfd5b600080602060008451602086016000885af180611340576040513d6000823e3d81fd5b50506000513d91508115611358578060011415611365565b6001600160a01b0384163b155b156106c457604051635274afe760e01b81526001600160a01b03851660048201526024016106bb565b60045460ff16610fe857604051638dfc202b60e01b815260040160405180910390fd5b6000602082840312156113c357600080fd5b81356001600160e01b0319811681146111c057600080fd5b6000602082840312156113ed57600080fd5b5035919050565b6001600160a01b0381168114610e4e57600080fd5b6000806040838503121561141c57600080fd5b82359150602083013561142e816113f4565b809150509250929050565b8015158114610e4e57600080fd5b6000806040838503121561145a57600080fd5b8235611465816113f4565b9150602083013561142e81611439565b60008060006060848603121561148a57600080fd5b83359250602084013561149c816113f4565b929592945050506040919091013590565b6000602082840312156114bf57600080fd5b81356111c0816113f4565b600080604083850312156114dd57600080fd5b82356114e8816113f4565b946020939093013593505050565b60006020828403121561150857600080fd5b5051919050565b634e487b7160e01b600052601160045260246000fd5b818103818111156104dd576104dd61150f565b60006020828403121561154a57600080fd5b81516111c081611439565b60006020828403121561156757600080fd5b815160ff811681146111c057600080fd5b600181815b808511156115b35781600019048211156115995761159961150f565b808516156115a657918102915b93841c939080029061157d565b509250929050565b6000826115ca575060016104dd565b816115d7575060006104dd565b81600181146115ed57600281146115f757611613565b60019150506104dd565b60ff8411156116085761160861150f565b50506001821b6104dd565b5060208310610133831016604e8410600b8410161715611636575081810a6104dd565b6116408383611578565b80600019048211156116545761165461150f565b029392505050565b60006111c060ff8416836115bb565b634e487b7160e01b600052601260045260246000fdfe65d7a28e3265b37a6474929f336521b332c1681b933f6cb9f3376673440d862abc4aa291e35c786eceb374be398429586e466107044903c4dff7a8687a530070a264697066735822122030a5245f5c78727850a2a9805e735688f5efdb2e9dddf17dd435c57430be6bf064736f6c63430008140033",
  "devdoc": {
    "errors": {
      "AccessControlBadConfirmation()": [
        {
          "details": "The caller of a function is not the expected one. NOTE: Don't confuse with {AccessControlUnauthorizedAccount}."
        }
      ],
      "AccessControlUnauthorizedAccount(address,bytes32)": [
        {
          "details": "The `account` is missing a role."
        }
      ],
      "EnforcedPause()": [
        {
          "details": "The operation failed because the contract is paused."
        }
      ],
      "ExpectedPause()": [
        {
          "details": "The operation failed because the contract is not paused."
        }
      ],
      "ReentrancyGuardReentrantCall()": [
        {
          "details": "Unauthorized reentrant call."
        }
      ],
      "SafeERC20FailedOperation(address)": [
        {
          "details": "An operation with an ERC-20 token failed."
        }
      ]
    },
    "events": {
      "Paused(address)": {
        "details": "Emitted when the pause is triggered by `account`."
      },
      "RoleAdminChanged(bytes32,bytes32,bytes32)": {
        "details": "Emitted when `newAdminRole` is set as ``role``'s admin role, replacing `previousAdminRole` `DEFAULT_ADMIN_ROLE` is the starting admin for all roles, despite {RoleAdminChanged} not being emitted to signal this."
      },
      "RoleGranted(bytes32,address,address)": {
        "details": "Emitted when `account` is granted `role`. `sender` is the account that originated the contract call. This account bears the admin role (for the granted role). Expected in cases where the role was granted using the internal {AccessControl-_grantRole}."
      },
      "RoleRevoked(bytes32,address,address)": {
        "details": "Emitted when `account` is revoked `role`. `sender` is the account that originated the contract call:   - if using `revokeRole`, it is the admin role bearer   - if using `renounceRole`, it is the role bearer (i.e. `account`)"
      },
      "Unpaused(address)": {
        "details": "Emitted when the pause is lifted by `account`."
      }
    },
    "kind": "dev",
    "methods": {
      "baseValueToDstableAmount(uint256)": {
        "params": {
          "baseValue": "The amount of base value to convert"
        },
        "returns": {
          "_0": "The equivalent amount of dStable tokens"
        }
      },
      "circulatingDstable()": {
        "returns": {
          "_0": "The amount of dStable tokens that are not held by the AMO Manager"
        }
      },
      "collateralInDstable()": {
        "returns": {
          "_0": "The amount of dStable tokens equivalent to the collateral value"
        }
      },
      "constructor": {
        "params": {
          "_amoManager": "The address of the AMO Manager",
          "_collateralVault": "The address of the collateral vault",
          "_dstable": "The address of the dStable stablecoin",
          "oracle": "The address of the price oracle"
        }
      },
      "getRoleAdmin(bytes32)": {
        "details": "Returns the admin role that controls `role`. See {grantRole} and {revokeRole}. To change a role's admin, use {_setRoleAdmin}."
      },
      "grantRole(bytes32,address)": {
        "details": "Grants `role` to `account`. If `account` had not been already granted `role`, emits a {RoleGranted} event. Requirements: - the caller must have ``role``'s admin role. May emit a {RoleGranted} event."
      },
      "hasRole(bytes32,address)": {
        "details": "Returns `true` if `account` has been granted `role`."
      },
      "increaseAmoSupply(uint256)": {
        "params": {
          "dstableAmount": "The amount of dStable to mint and send to the AMO Manager"
        }
      },
      "isAssetMintingEnabled(address)": {
        "details": "Asset must be supported by the collateral vault and not paused by issuer"
      },
      "issue(uint256,address,uint256)": {
        "params": {
          "collateralAmount": "The amount of collateral to deposit",
          "collateralAsset": "The address of the collateral asset",
          "minDStable": "The minimum amount of dStable to receive, used for slippage protection"
        }
      },
      "issueUsingExcessCollateral(address,uint256)": {
        "params": {
          "dstableAmount": "The amount of dStable to mint",
          "receiver": "The address to receive the minted dStable tokens"
        }
      },
      "paused()": {
        "details": "Returns true if the contract is paused, and false otherwise."
      },
      "renounceRole(bytes32,address)": {
        "details": "Revokes `role` from the calling account. Roles are often managed via {grantRole} and {revokeRole}: this function's purpose is to provide a mechanism for accounts to lose their privileges if they are compromised (such as when a trusted device is misplaced). If the calling account had been revoked `role`, emits a {RoleRevoked} event. Requirements: - the caller must be `callerConfirmation`. May emit a {RoleRevoked} event."
      },
      "revokeRole(bytes32,address)": {
        "details": "Revokes `role` from `account`. If `account` had been granted `role`, emits a {RoleRevoked} event. Requirements: - the caller must have ``role``'s admin role. May emit a {RoleRevoked} event."
      },
      "setAmoManager(address)": {
        "params": {
          "_amoManager": "The address of the AMO Manager"
        }
      },
      "setAssetMintingPause(address,bool)": {
        "params": {
          "asset": "The collateral asset address",
          "paused": "True to pause minting; false to enable"
        }
      },
      "setBaseCurrencyUnit(uint256)": {
        "details": "Only used if the oracle's base currency unit changes",
        "params": {
          "_newBaseCurrencyUnit": "The new base currency unit to set"
        }
      },
      "setCollateralVault(address)": {
        "params": {
          "_collateralVault": "The address of the collateral vault"
        }
      },
      "setOracle(address)": {
        "params": {
          "newOracle": "The new oracle to use"
        }
      },
      "supportsInterface(bytes4)": {
        "details": "Returns true if this contract implements the interface defined by `interfaceId`. See the corresponding https://eips.ethereum.org/EIPS/eip-165#how-interfaces-are-identified[ERC section] to learn more about how these ids are created. This function call must use less than 30 000 gas."
      }
    },
    "title": "IssuerV2",
    "version": 1
  },
  "userdoc": {
    "kind": "user",
    "methods": {
      "baseValueToDstableAmount(uint256)": {
        "notice": "Converts a base value to an equivalent amount of dStable tokens"
      },
      "circulatingDstable()": {
        "notice": "Calculates the circulating supply of dStable tokens"
      },
      "collateralInDstable()": {
        "notice": "Calculates the collateral value in dStable tokens"
      },
      "constructor": {
        "notice": "Initializes the IssuerV2 contract with core dependencies"
      },
      "increaseAmoSupply(uint256)": {
        "notice": "Increases the AMO supply by minting new dStable tokens"
      },
      "isAssetMintingEnabled(address)": {
        "notice": "Returns whether `asset` is currently enabled for minting by the issuer"
      },
      "issue(uint256,address,uint256)": {
        "notice": "Issues dStable tokens in exchange for collateral from the caller"
      },
      "issueUsingExcessCollateral(address,uint256)": {
        "notice": "Issues dStable tokens using excess collateral in the system"
      },
      "pauseMinting()": {
        "notice": "Pause all minting operations"
      },
      "setAmoManager(address)": {
        "notice": "Sets the AMO Manager address"
      },
      "setAssetMintingPause(address,bool)": {
        "notice": "Set minting pause override for a specific collateral asset"
      },
      "setBaseCurrencyUnit(uint256)": {
        "notice": "Updates the base currency unit used for price calculations"
      },
      "setCollateralVault(address)": {
        "notice": "Sets the collateral vault address"
      },
      "setOracle(address)": {
        "notice": "Sets the oracle to use for collateral valuation"
      },
      "unpauseMinting()": {
        "notice": "Unpause all minting operations"
      }
    },
    "notice": "Extended issuer responsible for issuing dStable tokens with asset-level minting overrides and global pause",
    "version": 1
  },
  "storageLayout": {
    "storage": [
      {
        "astId": 27,
        "contract": "contracts/dstable/IssuerV2.sol:IssuerV2",
        "label": "_roles",
        "offset": 0,
        "slot": "0",
        "type": "t_mapping(t_bytes32,t_struct(RoleData)22_storage)"
      },
      {
        "astId": 14307,
        "contract": "contracts/dstable/IssuerV2.sol:IssuerV2",
        "label": "oracle",
        "offset": 0,
        "slot": "1",
        "type": "t_contract(IPriceOracleGetter)12026"
      },
      {
        "astId": 14309,
        "contract": "contracts/dstable/IssuerV2.sol:IssuerV2",
        "label": "baseCurrencyUnit",
        "offset": 0,
        "slot": "2",
        "type": "t_uint256"
      },
      {
        "astId": 3912,
        "contract": "contracts/dstable/IssuerV2.sol:IssuerV2",
        "label": "_status",
        "offset": 0,
        "slot": "3",
        "type": "t_uint256"
      },
      {
        "astId": 3802,
        "contract": "contracts/dstable/IssuerV2.sol:IssuerV2",
        "label": "_paused",
        "offset": 0,
        "slot": "4",
        "type": "t_bool"
      },
      {
        "astId": 13779,
        "contract": "contracts/dstable/IssuerV2.sol:IssuerV2",
        "label": "dstable",
        "offset": 1,
        "slot": "4",
        "type": "t_contract(IMintableERC20)12056"
      },
      {
        "astId": 13784,
        "contract": "contracts/dstable/IssuerV2.sol:IssuerV2",
        "label": "collateralVault",
        "offset": 0,
        "slot": "5",
        "type": "t_contract(CollateralVault)13750"
      },
      {
        "astId": 13787,
        "contract": "contracts/dstable/IssuerV2.sol:IssuerV2",
        "label": "amoManager",
        "offset": 0,
        "slot": "6",
        "type": "t_contract(AmoManager)13271"
      },
      {
        "astId": 13842,
        "contract": "contracts/dstable/IssuerV2.sol:IssuerV2",
        "label": "assetMintingPaused",
        "offset": 0,
        "slot": "7",
        "type": "t_mapping(t_address,t_bool)"
      }
    ],
    "types": {
      "t_address": {
        "encoding": "inplace",
        "label": "address",
        "numberOfBytes": "20"
      },
      "t_bool": {
        "encoding": "inplace",
        "label": "bool",
        "numberOfBytes": "1"
      },
      "t_bytes32": {
        "encoding": "inplace",
        "label": "bytes32",
        "numberOfBytes": "32"
      },
      "t_contract(AmoManager)13271": {
        "encoding": "inplace",
        "label": "contract AmoManager",
        "numberOfBytes": "20"
      },
      "t_contract(CollateralVault)13750": {
        "encoding": "inplace",
        "label": "contract CollateralVault",
        "numberOfBytes": "20"
      },
      "t_contract(IMintableERC20)12056": {
        "encoding": "inplace",
        "label": "contract IMintableERC20",
        "numberOfBytes": "20"
      },
      "t_contract(IPriceOracleGetter)12026": {
        "encoding": "inplace",
        "label": "contract IPriceOracleGetter",
        "numberOfBytes": "20"
      },
      "t_mapping(t_address,t_bool)": {
        "encoding": "mapping",
        "key": "t_address",
        "label": "mapping(address => bool)",
        "numberOfBytes": "32",
        "value": "t_bool"
      },
      "t_mapping(t_bytes32,t_struct(RoleData)22_storage)": {
        "encoding": "mapping",
        "key": "t_bytes32",
        "label": "mapping(bytes32 => struct AccessControl.RoleData)",
        "numberOfBytes": "32",
        "value": "t_struct(RoleData)22_storage"
      },
      "t_struct(RoleData)22_storage": {
        "encoding": "inplace",
        "label": "struct AccessControl.RoleData",
        "members": [
          {
            "astId": 19,
            "contract": "contracts/dstable/IssuerV2.sol:IssuerV2",
            "label": "hasRole",
            "offset": 0,
            "slot": "0",
            "type": "t_mapping(t_address,t_bool)"
          },
          {
            "astId": 21,
            "contract": "contracts/dstable/IssuerV2.sol:IssuerV2",
            "label": "adminRole",
            "offset": 0,
            "slot": "1",
            "type": "t_bytes32"
          }
        ],
        "numberOfBytes": "64"
      },
      "t_uint256": {
        "encoding": "inplace",
        "label": "uint256",
        "numberOfBytes": "32"
      }
    }
  }
}