{
  "address": "0xD0ddF3Aa1D9D316227fAc26a1790B310429796c4",
  "abi": [
    {
      "inputs": [
        {
          "internalType": "address",
          "name": "_collateralVault",
          "type": "address"
        },
        {
          "internalType": "address",
          "name": "_dstable",
          "type": "address"
        },
        {
          "internalType": "contract IPriceOracleGetter",
          "name": "_oracle",
          "type": "address"
        },
        {
          "internalType": "address",
          "name": "_initialFeeReceiver",
          "type": "address"
        },
        {
          "internalType": "uint256",
          "name": "_initialRedemptionFeeBps",
          "type": "uint256"
        }
      ],
      "stateMutability": "nonpayable",
      "type": "constructor"
    },
    {
      "inputs": [],
      "name": "AccessControlBadConfirmation",
      "type": "error"
    },
    {
      "inputs": [
        {
          "internalType": "address",
          "name": "account",
          "type": "address"
        },
        {
          "internalType": "bytes32",
          "name": "neededRole",
          "type": "bytes32"
        }
      ],
      "name": "AccessControlUnauthorizedAccount",
      "type": "error"
    },
    {
      "inputs": [
        {
          "internalType": "address",
          "name": "asset",
          "type": "address"
        }
      ],
      "name": "AssetRedemptionPaused",
      "type": "error"
    },
    {
      "inputs": [],
      "name": "CannotBeZeroAddress",
      "type": "error"
    },
    {
      "inputs": [
        {
          "internalType": "address",
          "name": "recipient",
          "type": "address"
        },
        {
          "internalType": "uint256",
          "name": "amount",
          "type": "uint256"
        },
        {
          "internalType": "address",
          "name": "token",
          "type": "address"
        }
      ],
      "name": "CollateralTransferFailed",
      "type": "error"
    },
    {
      "inputs": [],
      "name": "DStableTransferFailed",
      "type": "error"
    },
    {
      "inputs": [],
      "name": "EnforcedPause",
      "type": "error"
    },
    {
      "inputs": [],
      "name": "ExpectedPause",
      "type": "error"
    },
    {
      "inputs": [
        {
          "internalType": "uint256",
          "name": "requestedFeeBps",
          "type": "uint256"
        },
        {
          "internalType": "uint256",
          "name": "maxFeeBps",
          "type": "uint256"
        }
      ],
      "name": "FeeTooHigh",
      "type": "error"
    },
    {
      "inputs": [
        {
          "internalType": "uint256",
          "name": "baseCurrencyUnit",
          "type": "uint256"
        }
      ],
      "name": "IncorrectBaseCurrencyUnit",
      "type": "error"
    },
    {
      "inputs": [],
      "name": "ReentrancyGuardReentrantCall",
      "type": "error"
    },
    {
      "inputs": [
        {
          "internalType": "uint256",
          "name": "actualCollateral",
          "type": "uint256"
        },
        {
          "internalType": "uint256",
          "name": "minCollateral",
          "type": "uint256"
        }
      ],
      "name": "SlippageTooHigh",
      "type": "error"
    },
    {
      "inputs": [
        {
          "internalType": "address",
          "name": "collateralAsset",
          "type": "address"
        }
      ],
      "name": "UnsupportedCollateral",
      "type": "error"
    },
    {
      "anonymous": false,
      "inputs": [
        {
          "indexed": true,
          "internalType": "address",
          "name": "asset",
          "type": "address"
        },
        {
          "indexed": false,
          "internalType": "bool",
          "name": "paused",
          "type": "bool"
        }
      ],
      "name": "AssetRedemptionPauseUpdated",
      "type": "event"
    },
    {
      "anonymous": false,
      "inputs": [
        {
          "indexed": true,
          "internalType": "address",
          "name": "collateralAsset",
          "type": "address"
        },
        {
          "indexed": false,
          "internalType": "uint256",
          "name": "oldFeeBps",
          "type": "uint256"
        },
        {
          "indexed": false,
          "internalType": "uint256",
          "name": "newFeeBps",
          "type": "uint256"
        }
      ],
      "name": "CollateralRedemptionFeeUpdated",
      "type": "event"
    },
    {
      "anonymous": false,
      "inputs": [
        {
          "indexed": true,
          "internalType": "address",
          "name": "collateralVault",
          "type": "address"
        }
      ],
      "name": "CollateralVaultSet",
      "type": "event"
    },
    {
      "anonymous": false,
      "inputs": [
        {
          "indexed": false,
          "internalType": "uint256",
          "name": "oldFeeBps",
          "type": "uint256"
        },
        {
          "indexed": false,
          "internalType": "uint256",
          "name": "newFeeBps",
          "type": "uint256"
        }
      ],
      "name": "DefaultRedemptionFeeUpdated",
      "type": "event"
    },
    {
      "anonymous": false,
      "inputs": [
        {
          "indexed": true,
          "internalType": "address",
          "name": "oldFeeReceiver",
          "type": "address"
        },
        {
          "indexed": true,
          "internalType": "address",
          "name": "newFeeReceiver",
          "type": "address"
        }
      ],
      "name": "FeeReceiverUpdated",
      "type": "event"
    },
    {
      "anonymous": false,
      "inputs": [
        {
          "indexed": true,
          "internalType": "address",
          "name": "newOracle",
          "type": "address"
        }
      ],
      "name": "OracleSet",
      "type": "event"
    },
    {
      "anonymous": false,
      "inputs": [
        {
          "indexed": false,
          "internalType": "address",
          "name": "account",
          "type": "address"
        }
      ],
      "name": "Paused",
      "type": "event"
    },
    {
      "anonymous": false,
      "inputs": [
        {
          "indexed": true,
          "internalType": "address",
          "name": "redeemer",
          "type": "address"
        },
        {
          "indexed": true,
          "internalType": "address",
          "name": "collateralAsset",
          "type": "address"
        },
        {
          "indexed": false,
          "internalType": "uint256",
          "name": "dstableAmount",
          "type": "uint256"
        },
        {
          "indexed": false,
          "internalType": "uint256",
          "name": "collateralAmountToRedeemer",
          "type": "uint256"
        },
        {
          "indexed": false,
          "internalType": "uint256",
          "name": "feeAmountCollateral",
          "type": "uint256"
        }
      ],
      "name": "Redemption",
      "type": "event"
    },
    {
      "anonymous": false,
      "inputs": [
        {
          "indexed": true,
          "internalType": "bytes32",
          "name": "role",
          "type": "bytes32"
        },
        {
          "indexed": true,
          "internalType": "bytes32",
          "name": "previousAdminRole",
          "type": "bytes32"
        },
        {
          "indexed": true,
          "internalType": "bytes32",
          "name": "newAdminRole",
          "type": "bytes32"
        }
      ],
      "name": "RoleAdminChanged",
      "type": "event"
    },
    {
      "anonymous": false,
      "inputs": [
        {
          "indexed": true,
          "internalType": "bytes32",
          "name": "role",
          "type": "bytes32"
        },
        {
          "indexed": true,
          "internalType": "address",
          "name": "account",
          "type": "address"
        },
        {
          "indexed": true,
          "internalType": "address",
          "name": "sender",
          "type": "address"
        }
      ],
      "name": "RoleGranted",
      "type": "event"
    },
    {
      "anonymous": false,
      "inputs": [
        {
          "indexed": true,
          "internalType": "bytes32",
          "name": "role",
          "type": "bytes32"
        },
        {
          "indexed": true,
          "internalType": "address",
          "name": "account",
          "type": "address"
        },
        {
          "indexed": true,
          "internalType": "address",
          "name": "sender",
          "type": "address"
        }
      ],
      "name": "RoleRevoked",
      "type": "event"
    },
    {
      "anonymous": false,
      "inputs": [
        {
          "indexed": false,
          "internalType": "address",
          "name": "account",
          "type": "address"
        }
      ],
      "name": "Unpaused",
      "type": "event"
    },
    {
      "inputs": [],
      "name": "DEFAULT_ADMIN_ROLE",
      "outputs": [
        {
          "internalType": "bytes32",
          "name": "",
          "type": "bytes32"
        }
      ],
      "stateMutability": "view",
      "type": "function"
    },
    {
      "inputs": [],
      "name": "MAX_FEE_BPS",
      "outputs": [
        {
          "internalType": "uint256",
          "name": "",
          "type": "uint256"
        }
      ],
      "stateMutability": "view",
      "type": "function"
    },
    {
      "inputs": [],
      "name": "PAUSER_ROLE",
      "outputs": [
        {
          "internalType": "bytes32",
          "name": "",
          "type": "bytes32"
        }
      ],
      "stateMutability": "view",
      "type": "function"
    },
    {
      "inputs": [],
      "name": "REDEMPTION_MANAGER_ROLE",
      "outputs": [
        {
          "internalType": "bytes32",
          "name": "",
          "type": "bytes32"
        }
      ],
      "stateMutability": "view",
      "type": "function"
    },
    {
      "inputs": [
        {
          "internalType": "address",
          "name": "",
          "type": "address"
        }
      ],
      "name": "assetRedemptionPaused",
      "outputs": [
        {
          "internalType": "bool",
          "name": "",
          "type": "bool"
        }
      ],
      "stateMutability": "view",
      "type": "function"
    },
    {
      "inputs": [],
      "name": "baseCurrencyUnit",
      "outputs": [
        {
          "internalType": "uint256",
          "name": "",
          "type": "uint256"
        }
      ],
      "stateMutability": "view",
      "type": "function"
    },
    {
      "inputs": [
        {
          "internalType": "address",
          "name": "_collateralAsset",
          "type": "address"
        }
      ],
      "name": "clearCollateralRedemptionFee",
      "outputs": [],
      "stateMutability": "nonpayable",
      "type": "function"
    },
    {
      "inputs": [
        {
          "internalType": "address",
          "name": "",
          "type": "address"
        }
      ],
      "name": "collateralRedemptionFeeBps",
      "outputs": [
        {
          "internalType": "uint256",
          "name": "",
          "type": "uint256"
        }
      ],
      "stateMutability": "view",
      "type": "function"
    },
    {
      "inputs": [],
      "name": "collateralVault",
      "outputs": [
        {
          "internalType": "contract CollateralVault",
          "name": "",
          "type": "address"
        }
      ],
      "stateMutability": "view",
      "type": "function"
    },
    {
      "inputs": [],
      "name": "defaultRedemptionFeeBps",
      "outputs": [
        {
          "internalType": "uint256",
          "name": "",
          "type": "uint256"
        }
      ],
      "stateMutability": "view",
      "type": "function"
    },
    {
      "inputs": [],
      "name": "dstable",
      "outputs": [
        {
          "internalType": "contract IMintableERC20",
          "name": "",
          "type": "address"
        }
      ],
      "stateMutability": "view",
      "type": "function"
    },
    {
      "inputs": [
        {
          "internalType": "uint256",
          "name": "dstableAmount",
          "type": "uint256"
        }
      ],
      "name": "dstableAmountToBaseValue",
      "outputs": [
        {
          "internalType": "uint256",
          "name": "",
          "type": "uint256"
        }
      ],
      "stateMutability": "view",
      "type": "function"
    },
    {
      "inputs": [],
      "name": "dstableDecimals",
      "outputs": [
        {
          "internalType": "uint8",
          "name": "",
          "type": "uint8"
        }
      ],
      "stateMutability": "view",
      "type": "function"
    },
    {
      "inputs": [],
      "name": "feeReceiver",
      "outputs": [
        {
          "internalType": "address",
          "name": "",
          "type": "address"
        }
      ],
      "stateMutability": "view",
      "type": "function"
    },
    {
      "inputs": [
        {
          "internalType": "bytes32",
          "name": "role",
          "type": "bytes32"
        }
      ],
      "name": "getRoleAdmin",
      "outputs": [
        {
          "internalType": "bytes32",
          "name": "",
          "type": "bytes32"
        }
      ],
      "stateMutability": "view",
      "type": "function"
    },
    {
      "inputs": [
        {
          "internalType": "bytes32",
          "name": "role",
          "type": "bytes32"
        },
        {
          "internalType": "address",
          "name": "account",
          "type": "address"
        }
      ],
      "name": "grantRole",
      "outputs": [],
      "stateMutability": "nonpayable",
      "type": "function"
    },
    {
      "inputs": [
        {
          "internalType": "bytes32",
          "name": "role",
          "type": "bytes32"
        },
        {
          "internalType": "address",
          "name": "account",
          "type": "address"
        }
      ],
      "name": "hasRole",
      "outputs": [
        {
          "internalType": "bool",
          "name": "",
          "type": "bool"
        }
      ],
      "stateMutability": "view",
      "type": "function"
    },
    {
      "inputs": [
        {
          "internalType": "address",
          "name": "asset",
          "type": "address"
        }
      ],
      "name": "isAssetRedemptionEnabled",
      "outputs": [
        {
          "internalType": "bool",
          "name": "",
          "type": "bool"
        }
      ],
      "stateMutability": "view",
      "type": "function"
    },
    {
      "inputs": [
        {
          "internalType": "address",
          "name": "",
          "type": "address"
        }
      ],
      "name": "isCollateralFeeOverridden",
      "outputs": [
        {
          "internalType": "bool",
          "name": "",
          "type": "bool"
        }
      ],
      "stateMutability": "view",
      "type": "function"
    },
    {
      "inputs": [],
      "name": "oracle",
      "outputs": [
        {
          "internalType": "contract IPriceOracleGetter",
          "name": "",
          "type": "address"
        }
      ],
      "stateMutability": "view",
      "type": "function"
    },
    {
      "inputs": [],
      "name": "pauseRedemption",
      "outputs": [],
      "stateMutability": "nonpayable",
      "type": "function"
    },
    {
      "inputs": [],
      "name": "paused",
      "outputs": [
        {
          "internalType": "bool",
          "name": "",
          "type": "bool"
        }
      ],
      "stateMutability": "view",
      "type": "function"
    },
    {
      "inputs": [
        {
          "internalType": "uint256",
          "name": "dstableAmount",
          "type": "uint256"
        },
        {
          "internalType": "address",
          "name": "collateralAsset",
          "type": "address"
        },
        {
          "internalType": "uint256",
          "name": "minNetCollateral",
          "type": "uint256"
        }
      ],
      "name": "redeem",
      "outputs": [],
      "stateMutability": "nonpayable",
      "type": "function"
    },
    {
      "inputs": [
        {
          "internalType": "uint256",
          "name": "dstableAmount",
          "type": "uint256"
        },
        {
          "internalType": "address",
          "name": "collateralAsset",
          "type": "address"
        },
        {
          "internalType": "uint256",
          "name": "minCollateral",
          "type": "uint256"
        }
      ],
      "name": "redeemAsProtocol",
      "outputs": [],
      "stateMutability": "nonpayable",
      "type": "function"
    },
    {
      "inputs": [
        {
          "internalType": "bytes32",
          "name": "role",
          "type": "bytes32"
        },
        {
          "internalType": "address",
          "name": "callerConfirmation",
          "type": "address"
        }
      ],
      "name": "renounceRole",
      "outputs": [],
      "stateMutability": "nonpayable",
      "type": "function"
    },
    {
      "inputs": [
        {
          "internalType": "bytes32",
          "name": "role",
          "type": "bytes32"
        },
        {
          "internalType": "address",
          "name": "account",
          "type": "address"
        }
      ],
      "name": "revokeRole",
      "outputs": [],
      "stateMutability": "nonpayable",
      "type": "function"
    },
    {
      "inputs": [
        {
          "internalType": "address",
          "name": "asset",
          "type": "address"
        },
        {
          "internalType": "bool",
          "name": "paused",
          "type": "bool"
        }
      ],
      "name": "setAssetRedemptionPause",
      "outputs": [],
      "stateMutability": "nonpayable",
      "type": "function"
    },
    {
      "inputs": [
        {
          "internalType": "uint256",
          "name": "_newBaseCurrencyUnit",
          "type": "uint256"
        }
      ],
      "name": "setBaseCurrencyUnit",
      "outputs": [],
      "stateMutability": "nonpayable",
      "type": "function"
    },
    {
      "inputs": [
        {
          "internalType": "address",
          "name": "_collateralAsset",
          "type": "address"
        },
        {
          "internalType": "uint256",
          "name": "_newFeeBps",
          "type": "uint256"
        }
      ],
      "name": "setCollateralRedemptionFee",
      "outputs": [],
      "stateMutability": "nonpayable",
      "type": "function"
    },
    {
      "inputs": [
        {
          "internalType": "address",
          "name": "_collateralVault",
          "type": "address"
        }
      ],
      "name": "setCollateralVault",
      "outputs": [],
      "stateMutability": "nonpayable",
      "type": "function"
    },
    {
      "inputs": [
        {
          "internalType": "uint256",
          "name": "_newFeeBps",
          "type": "uint256"
        }
      ],
      "name": "setDefaultRedemptionFee",
      "outputs": [],
      "stateMutability": "nonpayable",
      "type": "function"
    },
    {
      "inputs": [
        {
          "internalType": "address",
          "name": "_newFeeReceiver",
          "type": "address"
        }
      ],
      "name": "setFeeReceiver",
      "outputs": [],
      "stateMutability": "nonpayable",
      "type": "function"
    },
    {
      "inputs": [
        {
          "internalType": "contract IPriceOracleGetter",
          "name": "newOracle",
          "type": "address"
        }
      ],
      "name": "setOracle",
      "outputs": [],
      "stateMutability": "nonpayable",
      "type": "function"
    },
    {
      "inputs": [
        {
          "internalType": "bytes4",
          "name": "interfaceId",
          "type": "bytes4"
        }
      ],
      "name": "supportsInterface",
      "outputs": [
        {
          "internalType": "bool",
          "name": "",
          "type": "bool"
        }
      ],
      "stateMutability": "view",
      "type": "function"
    },
    {
      "inputs": [],
      "name": "unpauseRedemption",
      "outputs": [],
      "stateMutability": "nonpayable",
      "type": "function"
    }
  ],
  "transactionHash": "0xed1a89312c69da478e584b282851beea7dce5682b42609bbdd9bb3cd0ed3736f",
  "args": [
    "0x4d6795E4a7E2079bf786295CFAC2bE574EA64d25",
    "0xf49E05B4915eac34FD5C7E7048f77c20b9Ea2df7",
    "0x6619C9b5Ed53C1C6D73cC32Ddea421Aa82388763",
    "0xd2f775Ff2cD41bfe43C7A8c016eD10393553fe44",
    4000
  ],
  "numDeployments": 1,
  "solcInputHash": "545f3337935633e4d561933306d94a85",
  "bytecode": "0x60c06040523480156200001157600080fd5b5060405162001fbe38038062001fbe83398101604081905262000034916200049c565b82836001600160a01b0316638c89b64f6040518163ffffffff1660e01b8152600401602060405180830381865afa15801562000074573d6000803e3d6000fd5b505050506040513d601f19601f820116820180604052508101906200009a919062000510565b600180546001600160a01b0319166001600160a01b0384161790556002819055620000c760003362000340565b50506001600455506001600160a01b0385161580620000ed57506001600160a01b038416155b806200010057506001600160a01b038316155b156200011f57604051631e7d738760e21b815260040160405180910390fd5b6001600160a01b0382166200014757604051631e7d738760e21b815260040160405180910390fd5b6200015460648062000540565b620001659061ffff16600562000569565b63ffffffff166080819052811115620001a9576080516040516373ab893560e11b8152620001a0918391600401918252602082015260400190565b60405180910390fd5b600680546001600160a01b038088166001600160a01b0319928316179092556005805492871692909116821790556040805163313ce56760e01b8152905163313ce567916004808201926020929091908290030181865afa15801562000213573d6000803e3d6000fd5b505050506040513d601f19601f820116820180604052508101906200023991906200058c565b60ff1660a052600780546001600160a01b0319166001600160a01b03841617905560088190556200026c60003362000340565b50620002997fe5bea7d829f723a95a0c83a655765be37702fa584514c1e2a20867d04b58478e33620003ef565b620002c57f65d7a28e3265b37a6474929f336521b332c1681b933f6cb9f3376673440d862a33620003ef565b6040516001600160a01b038316906000907fa92ff4390fe6943f0b30e8fe715dde86f85ab79b2b2c640a10fc094cc4036cc8908290a36040805160008152602081018390527f261a1976409379837155987d2c6a5667d9473be9504ab5387b4dc8ff65da6eb2910160405180910390a15050505050620005b8565b6000828152602081815260408083206001600160a01b038516845290915281205460ff16620003e5576000838152602081815260408083206001600160a01b03861684529091529020805460ff191660011790556200039c3390565b6001600160a01b0316826001600160a01b0316847f2f8788117e7eff1d82e926ec794901d17c78024a50270940304540a733656f0d60405160405180910390a4506001620003e9565b5060005b92915050565b6000828152602081905260409020600101546200040c816200041e565b62000418838362000340565b50505050565b6200042a81336200042d565b50565b6000828152602081815260408083206001600160a01b038516845290915290205460ff16620004825760405163e2517d3f60e01b81526001600160a01b038216600482015260248101839052604401620001a0565b5050565b6001600160a01b03811681146200042a57600080fd5b600080600080600060a08688031215620004b557600080fd5b8551620004c28162000486565b6020870151909550620004d58162000486565b6040870151909450620004e88162000486565b6060870151909350620004fb8162000486565b80925050608086015190509295509295909350565b6000602082840312156200052357600080fd5b5051919050565b634e487b7160e01b600052601160045260246000fd5b61ffff8181168382160280821691908281146200056157620005616200052a565b505092915050565b63ffffffff8181168382160280821691908281146200056157620005616200052a565b6000602082840312156200059f57600080fd5b815160ff81168114620005b157600080fd5b9392505050565b60805160a0516119bd62000601600039600081816102f00152610b9601526000818161048d01528181610a9101528181610acd01528181610fe1015261101d01526119bd6000f3fe608060405234801561001057600080fd5b50600436106102115760003560e01c80638d044c0611610125578063d547741f116100ad578063e63ab1e91161007c578063e63ab1e9146104e5578063ef8fa40f146104fa578063efdcd9741461050d578063f0bf760314610520578063f3bddde11461053357600080fd5b8063d547741f14610475578063d55be8c614610488578063d8780161146104af578063dadf4890146104c257600080fd5b806397fe30ef116100f457806397fe30ef146104115780639e3a4a8d14610424578063a217fddf14610437578063b3f006741461043f578063bfc1a7ad1461045257600080fd5b80638d044c06146103db57806391d14854146103e357806391e5287b146103f657806392bccb801461040957600080fd5b80632f2ff15d116101a857806368a806c41161017757806368a806c4146103685780637adbf9731461037b5780637dc0d1d01461038e57806387c0d8e8146103a15780638ade91ec146103b457600080fd5b80632f2ff15d1461032457806336568abe146103375780634a0bbabb1461034a5780635c975abb1461035d57600080fd5b80631d9f78bb116101e45780631d9f78bb146102955780631ee7b5b1146102b5578063248a9ca3146102c857806326663911146102eb57600080fd5b806301ffc9a7146102165780630bece79c1461023e57806314aa1122146102695780631cd7ec921461027e575b600080fd5b610229610224366004611674565b61053c565b60405190151581526020015b60405180910390f35b600654610251906001600160a01b031681565b6040516001600160a01b039091168152602001610235565b61027c6102773660046116b3565b610573565b005b61028760085481565b604051908152602001610235565b6102876102a33660046116eb565b60096020526000908152604090205481565b61027c6102c3366004611716565b6107ab565b6102876102d636600461174f565b60009081526020819052604090206001015490565b6103127f000000000000000000000000000000000000000000000000000000000000000081565b60405160ff9091168152602001610235565b61027c610332366004611768565b6108ba565b61027c610345366004611768565b6108df565b61027c61035836600461174f565b610917565b60035460ff16610229565b61027c6103763660046116eb565b610928565b61027c6103893660046116eb565b6109a5565b600154610251906001600160a01b031681565b61027c6103af36600461174f565b610a84565b6102877fe5bea7d829f723a95a0c83a655765be37702fa584514c1e2a20867d04b58478e81565b61027c610b3f565b6102296103f1366004611768565b610b62565b61028761040436600461174f565b610b8b565b61027c610bc6565b600554610251906001600160a01b031681565b61027c6104323660046116eb565b610be6565b610287600081565b600754610251906001600160a01b031681565b6102296104603660046116eb565b600b6020526000908152604090205460ff1681565b61027c610483366004611768565b610c81565b6102877f000000000000000000000000000000000000000000000000000000000000000081565b61027c6104bd3660046116b3565b610ca6565b6102296104d03660046116eb565b600a6020526000908152604090205460ff1681565b61028760008051602061196883398151915281565b61027c61050836600461178d565b610fad565b61027c61051b3660046116eb565b6110bc565b61022961052e3660046116eb565b611141565b61028760025481565b60006001600160e01b03198216637965db0b60e01b148061056d57506301ffc9a760e01b6001600160e01b03198316145b92915050565b7fe5bea7d829f723a95a0c83a655765be37702fa584514c1e2a20867d04b58478e61059d816111dc565b6105a56111e6565b6105ad61120c565b600654604051637d35e97760e11b81526001600160a01b0385811660048301529091169063fa6bd2ee90602401602060405180830381865afa1580156105f7573d6000803e3d6000fd5b505050506040513d601f19601f8201168201806040525081019061061b91906117b9565b61064857604051632762993f60e11b81526001600160a01b03841660048201526024015b60405180910390fd5b6001600160a01b0383166000908152600b602052604090205460ff161561068d57604051632572cfc960e01b81526001600160a01b038416600482015260240161063f565b600061069885610b8b565b600654604051632e11f7b760e11b8152600481018390526001600160a01b03878116602483015292935060009290911690635c23ef6e90604401602060405180830381865afa1580156106ef573d6000803e3d6000fd5b505050506040513d601f19601f8201168201806040525081019061071391906117d6565b90508381101561074057604051633b5d56ed60e11b8152600481018290526024810185905260440161063f565b61074c33878784611236565b604080518781526020810183905260008183015290516001600160a01b0387169133917f4f808f68134f8b72b842a276c2b37b03415d4992c65a94fcee50d33201915b999181900360600190a350506107a56001600455565b50505050565b6000805160206119688339815191526107c3816111dc565b600654604051637d35e97760e11b81526001600160a01b0385811660048301529091169063fa6bd2ee90602401602060405180830381865afa15801561080d573d6000803e3d6000fd5b505050506040513d601f19601f8201168201806040525081019061083191906117b9565b61085957604051632762993f60e11b81526001600160a01b038416600482015260240161063f565b6001600160a01b0383166000818152600b6020908152604091829020805460ff191686151590811790915591519182527f01d774681571daccc62c7ccbd83c73634d22d9ee3ddd1df3fe988d5e3153b44591015b60405180910390a2505050565b6000828152602081905260409020600101546108d5816111dc565b6107a583836113a2565b6001600160a01b03811633146109085760405163334bd91960e11b815260040160405180910390fd5b6109128282611434565b505050565b6000610922816111dc565b50600255565b6000610933816111dc565b6001600160a01b03821661095a57604051631e7d738760e21b815260040160405180910390fd5b600680546001600160a01b0319166001600160a01b0384169081179091556040517fc92ec24b34ad9d3aa14cd5be87b888d7790d40903da5f44c6367b2fb6cdb208390600090a25050565b60006109b0816111dc565b600254826001600160a01b0316638c89b64f6040518163ffffffff1660e01b8152600401602060405180830381865afa1580156109f1573d6000803e3d6000fd5b505050506040513d601f19601f82011682018060405250810190610a1591906117d6565b14610a3957600254604051639b6812b960e01b815260040161063f91815260200190565b600180546001600160a01b0319166001600160a01b0384169081179091556040517f3f32684a32a11dabdbb8c0177de80aa3ae36a004d75210335b49e544e48cd0aa90600090a25050565b6000610a8f816111dc565b7f0000000000000000000000000000000000000000000000000000000000000000821115610af9576040516373ab893560e11b8152600481018390527f0000000000000000000000000000000000000000000000000000000000000000602482015260440161063f565b600880549083905560408051828152602081018590527f261a1976409379837155987d2c6a5667d9473be9504ab5387b4dc8ff65da6eb2910160405180910390a1505050565b600080516020611968833981519152610b57816111dc565b610b5f61149f565b50565b6000918252602082815260408084206001600160a01b0393909316845291905290205460ff1690565b600061056d826002547f0000000000000000000000000000000000000000000000000000000000000000600a610bc191906118e9565b6114f1565b600080516020611968833981519152610bde816111dc565b610b5f6115a7565b6000610bf1816111dc565b6001600160a01b038216610c1857604051631e7d738760e21b815260040160405180910390fd5b6001600160a01b0382166000818152600960209081526040808320805490849055600a909252808320805460ff19169055519092917ff57528c54dc2b58b410fa6141e1c2923da55bf8a7193244e8d60ad07c5e5db7e916108ad91858252602082015260400190565b600082815260208190526040902060010154610c9c816111dc565b6107a58383611434565b610cae6111e6565b610cb661120c565b600654604051637d35e97760e11b81526001600160a01b0384811660048301529091169063fa6bd2ee90602401602060405180830381865afa158015610d00573d6000803e3d6000fd5b505050506040513d601f19601f82011682018060405250810190610d2491906117b9565b610d4c57604051632762993f60e11b81526001600160a01b038316600482015260240161063f565b6001600160a01b0382166000908152600b602052604090205460ff1615610d9157604051632572cfc960e01b81526001600160a01b038316600482015260240161063f565b6000610d9c84610b8b565b600654604051632e11f7b760e11b8152600481018390526001600160a01b03868116602483015292935060009290911690635c23ef6e90604401602060405180830381865afa158015610df3573d6000803e3d6000fd5b505050506040513d601f19601f82011682018060405250810190610e1791906117d6565b6001600160a01b0385166000908152600a60205260408120549192509060ff16610e4357600854610e5d565b6001600160a01b0385166000908152600960205260409020545b905060008115610e9457610e918383610e776064806118f8565b610e869061ffff16606461191e565b63ffffffff166114f1565b90505b6000610ea0828561193e565b905085811015610ecd57604051633b5d56ed60e11b8152600481018290526024810187905260440161063f565b610ed933898984611236565b8115610f505760065460075460405163627160f360e11b81526001600160a01b03918216600482015260248101859052898216604482015291169063c4e2c1e690606401600060405180830381600087803b158015610f3757600080fd5b505af1158015610f4b573d6000803e3d6000fd5b505050505b60408051898152602081018390529081018390526001600160a01b0388169033907f4f808f68134f8b72b842a276c2b37b03415d4992c65a94fcee50d33201915b999060600160405180910390a350505050506109126001600455565b6000610fb8816111dc565b6001600160a01b038316610fdf57604051631e7d738760e21b815260040160405180910390fd5b7f0000000000000000000000000000000000000000000000000000000000000000821115611049576040516373ab893560e11b8152600481018390527f0000000000000000000000000000000000000000000000000000000000000000602482015260440161063f565b6001600160a01b0383166000818152600960209081526040808320805490879055600a835292819020805460ff1916600117905580518381529182018690529192917ff57528c54dc2b58b410fa6141e1c2923da55bf8a7193244e8d60ad07c5e5db7e910160405180910390a250505050565b60006110c7816111dc565b6001600160a01b0382166110ee57604051631e7d738760e21b815260040160405180910390fd5b600780546001600160a01b038481166001600160a01b0319831681179093556040519116919082907fa92ff4390fe6943f0b30e8fe715dde86f85ab79b2b2c640a10fc094cc4036cc890600090a3505050565b600654604051637d35e97760e11b81526001600160a01b038381166004830152600092169063fa6bd2ee90602401602060405180830381865afa15801561118c573d6000803e3d6000fd5b505050506040513d601f19601f820116820180604052508101906111b091906117b9565b6111bc57506000919050565b506001600160a01b03166000908152600b602052604090205460ff161590565b610b5f81336115e4565b60035460ff161561120a5760405163d93c066560e01b815260040160405180910390fd5b565b60026004540361122f57604051633ee5aeb560e01b815260040160405180910390fd5b6002600455565b6005546040516323b872dd60e01b81526001600160a01b03868116600483015230602483015260448201869052909116906323b872dd906064016020604051808303816000875af115801561128f573d6000803e3d6000fd5b505050506040513d601f19601f820116820180604052508101906112b391906117b9565b6112d057604051633375730560e01b815260040160405180910390fd5b600554604051630852cd8d60e31b8152600481018590526001600160a01b03909116906342966c6890602401600060405180830381600087803b15801561131657600080fd5b505af115801561132a573d6000803e3d6000fd5b505060065460405163627160f360e11b81526001600160a01b038881166004830152602482018690528681166044830152909116925063c4e2c1e69150606401600060405180830381600087803b15801561138457600080fd5b505af1158015611398573d6000803e3d6000fd5b5050505050505050565b60006113ae8383610b62565b61142c576000838152602081815260408083206001600160a01b03861684529091529020805460ff191660011790556113e43390565b6001600160a01b0316826001600160a01b0316847f2f8788117e7eff1d82e926ec794901d17c78024a50270940304540a733656f0d60405160405180910390a450600161056d565b50600061056d565b60006114408383610b62565b1561142c576000838152602081815260408083206001600160a01b0386168085529252808320805460ff1916905551339286917ff6391f5c32d9c69d2a47ea670b442974b53935d1edc7fd64eb21e047a839171b9190a450600161056d565b6114a7611621565b6003805460ff191690557f5db9ee0a495bf2e6ff9c91a7834c1ba4fdd244a5e8aa4e537bd38aeae4b073aa335b6040516001600160a01b03909116815260200160405180910390a1565b60008060006115008686611644565b91509150816000036115255783818161151b5761151b611951565b04925050506115a0565b81841161153c5761153c6003851502601118611662565b6000848688096000868103871696879004966002600389028118808a02820302808a02820302808a02820302808a02820302808a02820302808a02909103029181900381900460010185841190960395909502919093039390930492909217029150505b9392505050565b6115af6111e6565b6003805460ff191660011790557f62e78cea01bee320cd4e420270b5ea74000d11b0c9f74754ebdbfc544b05a2586114d43390565b6115ee8282610b62565b61161d5760405163e2517d3f60e01b81526001600160a01b03821660048201526024810183905260440161063f565b5050565b60035460ff1661120a57604051638dfc202b60e01b815260040160405180910390fd5b60008060001983850993909202808410938190039390930393915050565b634e487b71600052806020526024601cfd5b60006020828403121561168657600080fd5b81356001600160e01b0319811681146115a057600080fd5b6001600160a01b0381168114610b5f57600080fd5b6000806000606084860312156116c857600080fd5b8335925060208401356116da8161169e565b929592945050506040919091013590565b6000602082840312156116fd57600080fd5b81356115a08161169e565b8015158114610b5f57600080fd5b6000806040838503121561172957600080fd5b82356117348161169e565b9150602083013561174481611708565b809150509250929050565b60006020828403121561176157600080fd5b5035919050565b6000806040838503121561177b57600080fd5b8235915060208301356117448161169e565b600080604083850312156117a057600080fd5b82356117ab8161169e565b946020939093013593505050565b6000602082840312156117cb57600080fd5b81516115a081611708565b6000602082840312156117e857600080fd5b5051919050565b634e487b7160e01b600052601160045260246000fd5b600181815b80851115611840578160001904821115611826576118266117ef565b8085161561183357918102915b93841c939080029061180a565b509250929050565b6000826118575750600161056d565b816118645750600061056d565b816001811461187a5760028114611884576118a0565b600191505061056d565b60ff841115611895576118956117ef565b50506001821b61056d565b5060208310610133831016604e8410600b84101617156118c3575081810a61056d565b6118cd8383611805565b80600019048211156118e1576118e16117ef565b029392505050565b60006115a060ff841683611848565b61ffff818116838216028082169190828114611916576119166117ef565b505092915050565b63ffffffff818116838216028082169190828114611916576119166117ef565b8181038181111561056d5761056d6117ef565b634e487b7160e01b600052601260045260246000fdfe65d7a28e3265b37a6474929f336521b332c1681b933f6cb9f3376673440d862aa2646970667358221220f14b65214817b8518537809c3f2974353b2bf30daa7cdfc5733ad9499606e3d864736f6c63430008140033",
  "devdoc": {
    "errors": {
      "AccessControlBadConfirmation()": [
        {
          "details": "The caller of a function is not the expected one. NOTE: Don't confuse with {AccessControlUnauthorizedAccount}."
        }
      ],
      "AccessControlUnauthorizedAccount(address,bytes32)": [
        {
          "details": "The `account` is missing a role."
        }
      ],
      "EnforcedPause()": [
        {
          "details": "The operation failed because the contract is paused."
        }
      ],
      "ExpectedPause()": [
        {
          "details": "The operation failed because the contract is not paused."
        }
      ],
      "ReentrancyGuardReentrantCall()": [
        {
          "details": "Unauthorized reentrant call."
        }
      ]
    },
    "events": {
      "Paused(address)": {
        "details": "Emitted when the pause is triggered by `account`."
      },
      "RoleAdminChanged(bytes32,bytes32,bytes32)": {
        "details": "Emitted when `newAdminRole` is set as ``role``'s admin role, replacing `previousAdminRole` `DEFAULT_ADMIN_ROLE` is the starting admin for all roles, despite {RoleAdminChanged} not being emitted to signal this."
      },
      "RoleGranted(bytes32,address,address)": {
        "details": "Emitted when `account` is granted `role`. `sender` is the account that originated the contract call. This account bears the admin role (for the granted role). Expected in cases where the role was granted using the internal {AccessControl-_grantRole}."
      },
      "RoleRevoked(bytes32,address,address)": {
        "details": "Emitted when `account` is revoked `role`. `sender` is the account that originated the contract call:   - if using `revokeRole`, it is the admin role bearer   - if using `renounceRole`, it is the role bearer (i.e. `account`)"
      },
      "Unpaused(address)": {
        "details": "Emitted when the pause is lifted by `account`."
      }
    },
    "kind": "dev",
    "methods": {
      "clearCollateralRedemptionFee(address)": {
        "params": {
          "_collateralAsset": "The collateral asset for which to clear the override"
        }
      },
      "constructor": {
        "params": {
          "_collateralVault": "The address of the collateral vault",
          "_dstable": "The address of the dStable stablecoin",
          "_initialFeeReceiver": "The initial address to receive redemption fees",
          "_initialRedemptionFeeBps": "The initial redemption fee in basis points",
          "_oracle": "The address of the price oracle"
        }
      },
      "getRoleAdmin(bytes32)": {
        "details": "Returns the admin role that controls `role`. See {grantRole} and {revokeRole}. To change a role's admin, use {_setRoleAdmin}."
      },
      "grantRole(bytes32,address)": {
        "details": "Grants `role` to `account`. If `account` had not been already granted `role`, emits a {RoleGranted} event. Requirements: - the caller must have ``role``'s admin role. May emit a {RoleGranted} event."
      },
      "hasRole(bytes32,address)": {
        "details": "Returns `true` if `account` has been granted `role`."
      },
      "paused()": {
        "details": "Returns true if the contract is paused, and false otherwise."
      },
      "renounceRole(bytes32,address)": {
        "details": "Revokes `role` from the calling account. Roles are often managed via {grantRole} and {revokeRole}: this function's purpose is to provide a mechanism for accounts to lose their privileges if they are compromised (such as when a trusted device is misplaced). If the calling account had been revoked `role`, emits a {RoleRevoked} event. Requirements: - the caller must be `callerConfirmation`. May emit a {RoleRevoked} event."
      },
      "revokeRole(bytes32,address)": {
        "details": "Revokes `role` from `account`. If `account` had been granted `role`, emits a {RoleRevoked} event. Requirements: - the caller must have ``role``'s admin role. May emit a {RoleRevoked} event."
      },
      "setBaseCurrencyUnit(uint256)": {
        "details": "Only used if the oracle's base currency unit changes",
        "params": {
          "_newBaseCurrencyUnit": "The new base currency unit to set"
        }
      },
      "setOracle(address)": {
        "params": {
          "newOracle": "The new oracle to use"
        }
      },
      "supportsInterface(bytes4)": {
        "details": "Returns true if this contract implements the interface defined by `interfaceId`. See the corresponding https://eips.ethereum.org/EIPS/eip-165#how-interfaces-are-identified[ERC section] to learn more about how these ids are created. This function call must use less than 30 000 gas."
      }
    },
    "title": "RedeemerV2",
    "version": 1
  },
  "userdoc": {
    "kind": "user",
    "methods": {
      "clearCollateralRedemptionFee(address)": {
        "notice": "Clears a per-asset fee override so the default fee applies again"
      },
      "constructor": {
        "notice": "Initializes the RedeemerV2 contract"
      },
      "setBaseCurrencyUnit(uint256)": {
        "notice": "Updates the base currency unit used for price calculations"
      },
      "setOracle(address)": {
        "notice": "Sets the oracle to use for collateral valuation"
      }
    },
    "notice": "Extended Redeemer with global pause and per-asset redemption pause controls",
    "version": 1
  },
  "storageLayout": {
    "storage": [
      {
        "astId": 27,
        "contract": "contracts/dstable/RedeemerV2.sol:RedeemerV2",
        "label": "_roles",
        "offset": 0,
        "slot": "0",
        "type": "t_mapping(t_bytes32,t_struct(RoleData)22_storage)"
      },
      {
        "astId": 14307,
        "contract": "contracts/dstable/RedeemerV2.sol:RedeemerV2",
        "label": "oracle",
        "offset": 0,
        "slot": "1",
        "type": "t_contract(IPriceOracleGetter)12026"
      },
      {
        "astId": 14309,
        "contract": "contracts/dstable/RedeemerV2.sol:RedeemerV2",
        "label": "baseCurrencyUnit",
        "offset": 0,
        "slot": "2",
        "type": "t_uint256"
      },
      {
        "astId": 3802,
        "contract": "contracts/dstable/RedeemerV2.sol:RedeemerV2",
        "label": "_paused",
        "offset": 0,
        "slot": "3",
        "type": "t_bool"
      },
      {
        "astId": 3912,
        "contract": "contracts/dstable/RedeemerV2.sol:RedeemerV2",
        "label": "_status",
        "offset": 0,
        "slot": "4",
        "type": "t_uint256"
      },
      {
        "astId": 14414,
        "contract": "contracts/dstable/RedeemerV2.sol:RedeemerV2",
        "label": "dstable",
        "offset": 0,
        "slot": "5",
        "type": "t_contract(IMintableERC20)12056"
      },
      {
        "astId": 14419,
        "contract": "contracts/dstable/RedeemerV2.sol:RedeemerV2",
        "label": "collateralVault",
        "offset": 0,
        "slot": "6",
        "type": "t_contract(CollateralVault)13750"
      },
      {
        "astId": 14421,
        "contract": "contracts/dstable/RedeemerV2.sol:RedeemerV2",
        "label": "feeReceiver",
        "offset": 0,
        "slot": "7",
        "type": "t_address"
      },
      {
        "astId": 14423,
        "contract": "contracts/dstable/RedeemerV2.sol:RedeemerV2",
        "label": "defaultRedemptionFeeBps",
        "offset": 0,
        "slot": "8",
        "type": "t_uint256"
      },
      {
        "astId": 14427,
        "contract": "contracts/dstable/RedeemerV2.sol:RedeemerV2",
        "label": "collateralRedemptionFeeBps",
        "offset": 0,
        "slot": "9",
        "type": "t_mapping(t_address,t_uint256)"
      },
      {
        "astId": 14431,
        "contract": "contracts/dstable/RedeemerV2.sol:RedeemerV2",
        "label": "isCollateralFeeOverridden",
        "offset": 0,
        "slot": "10",
        "type": "t_mapping(t_address,t_bool)"
      },
      {
        "astId": 14515,
        "contract": "contracts/dstable/RedeemerV2.sol:RedeemerV2",
        "label": "assetRedemptionPaused",
        "offset": 0,
        "slot": "11",
        "type": "t_mapping(t_address,t_bool)"
      }
    ],
    "types": {
      "t_address": {
        "encoding": "inplace",
        "label": "address",
        "numberOfBytes": "20"
      },
      "t_bool": {
        "encoding": "inplace",
        "label": "bool",
        "numberOfBytes": "1"
      },
      "t_bytes32": {
        "encoding": "inplace",
        "label": "bytes32",
        "numberOfBytes": "32"
      },
      "t_contract(CollateralVault)13750": {
        "encoding": "inplace",
        "label": "contract CollateralVault",
        "numberOfBytes": "20"
      },
      "t_contract(IMintableERC20)12056": {
        "encoding": "inplace",
        "label": "contract IMintableERC20",
        "numberOfBytes": "20"
      },
      "t_contract(IPriceOracleGetter)12026": {
        "encoding": "inplace",
        "label": "contract IPriceOracleGetter",
        "numberOfBytes": "20"
      },
      "t_mapping(t_address,t_bool)": {
        "encoding": "mapping",
        "key": "t_address",
        "label": "mapping(address => bool)",
        "numberOfBytes": "32",
        "value": "t_bool"
      },
      "t_mapping(t_address,t_uint256)": {
        "encoding": "mapping",
        "key": "t_address",
        "label": "mapping(address => uint256)",
        "numberOfBytes": "32",
        "value": "t_uint256"
      },
      "t_mapping(t_bytes32,t_struct(RoleData)22_storage)": {
        "encoding": "mapping",
        "key": "t_bytes32",
        "label": "mapping(bytes32 => struct AccessControl.RoleData)",
        "numberOfBytes": "32",
        "value": "t_struct(RoleData)22_storage"
      },
      "t_struct(RoleData)22_storage": {
        "encoding": "inplace",
        "label": "struct AccessControl.RoleData",
        "members": [
          {
            "astId": 19,
            "contract": "contracts/dstable/RedeemerV2.sol:RedeemerV2",
            "label": "hasRole",
            "offset": 0,
            "slot": "0",
            "type": "t_mapping(t_address,t_bool)"
          },
          {
            "astId": 21,
            "contract": "contracts/dstable/RedeemerV2.sol:RedeemerV2",
            "label": "adminRole",
            "offset": 0,
            "slot": "1",
            "type": "t_bytes32"
          }
        ],
        "numberOfBytes": "64"
      },
      "t_uint256": {
        "encoding": "inplace",
        "label": "uint256",
        "numberOfBytes": "32"
      }
    }
  }
}