{
  "address": "0x82944d896F0db039f304c1741fE6f3978b3D4ff8",
  "abi": [
    {
      "inputs": [
        {
          "internalType": "address",
          "name": "_dStakeVaultShare",
          "type": "address"
        },
        {
          "internalType": "address",
          "name": "_dStableAsset",
          "type": "address"
        }
      ],
      "stateMutability": "nonpayable",
      "type": "constructor"
    },
    {
      "inputs": [],
      "name": "AccessControlBadConfirmation",
      "type": "error"
    },
    {
      "inputs": [
        {
          "internalType": "address",
          "name": "account",
          "type": "address"
        },
        {
          "internalType": "bytes32",
          "name": "neededRole",
          "type": "bytes32"
        }
      ],
      "name": "AccessControlUnauthorizedAccount",
      "type": "error"
    },
    {
      "inputs": [
        {
          "internalType": "address",
          "name": "asset",
          "type": "address"
        }
      ],
      "name": "AssetAlreadySupported",
      "type": "error"
    },
    {
      "inputs": [
        {
          "internalType": "address",
          "name": "asset",
          "type": "address"
        }
      ],
      "name": "AssetNotSupported",
      "type": "error"
    },
    {
      "inputs": [
        {
          "internalType": "address",
          "name": "token",
          "type": "address"
        }
      ],
      "name": "CannotRescueRestrictedToken",
      "type": "error"
    },
    {
      "inputs": [
        {
          "internalType": "address",
          "name": "receiver",
          "type": "address"
        },
        {
          "internalType": "uint256",
          "name": "amount",
          "type": "uint256"
        }
      ],
      "name": "ETHTransferFailed",
      "type": "error"
    },
    {
      "inputs": [
        {
          "internalType": "address",
          "name": "asset",
          "type": "address"
        }
      ],
      "name": "NonZeroBalance",
      "type": "error"
    },
    {
      "inputs": [],
      "name": "ReentrancyGuardReentrantCall",
      "type": "error"
    },
    {
      "inputs": [
        {
          "internalType": "address",
          "name": "token",
          "type": "address"
        }
      ],
      "name": "SafeERC20FailedOperation",
      "type": "error"
    },
    {
      "inputs": [],
      "name": "ZeroAddress",
      "type": "error"
    },
    {
      "anonymous": false,
      "inputs": [
        {
          "indexed": true,
          "internalType": "address",
          "name": "receiver",
          "type": "address"
        },
        {
          "indexed": false,
          "internalType": "uint256",
          "name": "amount",
          "type": "uint256"
        }
      ],
      "name": "ETHRescued",
      "type": "event"
    },
    {
      "anonymous": false,
      "inputs": [
        {
          "indexed": true,
          "internalType": "bytes32",
          "name": "role",
          "type": "bytes32"
        },
        {
          "indexed": true,
          "internalType": "bytes32",
          "name": "previousAdminRole",
          "type": "bytes32"
        },
        {
          "indexed": true,
          "internalType": "bytes32",
          "name": "newAdminRole",
          "type": "bytes32"
        }
      ],
      "name": "RoleAdminChanged",
      "type": "event"
    },
    {
      "anonymous": false,
      "inputs": [
        {
          "indexed": true,
          "internalType": "bytes32",
          "name": "role",
          "type": "bytes32"
        },
        {
          "indexed": true,
          "internalType": "address",
          "name": "account",
          "type": "address"
        },
        {
          "indexed": true,
          "internalType": "address",
          "name": "sender",
          "type": "address"
        }
      ],
      "name": "RoleGranted",
      "type": "event"
    },
    {
      "anonymous": false,
      "inputs": [
        {
          "indexed": true,
          "internalType": "bytes32",
          "name": "role",
          "type": "bytes32"
        },
        {
          "indexed": true,
          "internalType": "address",
          "name": "account",
          "type": "address"
        },
        {
          "indexed": true,
          "internalType": "address",
          "name": "sender",
          "type": "address"
        }
      ],
      "name": "RoleRevoked",
      "type": "event"
    },
    {
      "anonymous": false,
      "inputs": [
        {
          "indexed": true,
          "internalType": "address",
          "name": "router",
          "type": "address"
        }
      ],
      "name": "RouterSet",
      "type": "event"
    },
    {
      "anonymous": false,
      "inputs": [
        {
          "indexed": true,
          "internalType": "address",
          "name": "vaultAsset",
          "type": "address"
        }
      ],
      "name": "SupportedAssetAdded",
      "type": "event"
    },
    {
      "anonymous": false,
      "inputs": [
        {
          "indexed": true,
          "internalType": "address",
          "name": "vaultAsset",
          "type": "address"
        }
      ],
      "name": "SupportedAssetRemoved",
      "type": "event"
    },
    {
      "anonymous": false,
      "inputs": [
        {
          "indexed": true,
          "internalType": "address",
          "name": "token",
          "type": "address"
        },
        {
          "indexed": true,
          "internalType": "address",
          "name": "receiver",
          "type": "address"
        },
        {
          "indexed": false,
          "internalType": "uint256",
          "name": "amount",
          "type": "uint256"
        }
      ],
      "name": "TokenRescued",
      "type": "event"
    },
    {
      "inputs": [],
      "name": "DEFAULT_ADMIN_ROLE",
      "outputs": [
        {
          "internalType": "bytes32",
          "name": "",
          "type": "bytes32"
        }
      ],
      "stateMutability": "view",
      "type": "function"
    },
    {
      "inputs": [],
      "name": "ROUTER_ROLE",
      "outputs": [
        {
          "internalType": "bytes32",
          "name": "",
          "type": "bytes32"
        }
      ],
      "stateMutability": "view",
      "type": "function"
    },
    {
      "inputs": [
        {
          "internalType": "address",
          "name": "vaultAsset",
          "type": "address"
        }
      ],
      "name": "addSupportedAsset",
      "outputs": [],
      "stateMutability": "nonpayable",
      "type": "function"
    },
    {
      "inputs": [],
      "name": "dStable",
      "outputs": [
        {
          "internalType": "address",
          "name": "",
          "type": "address"
        }
      ],
      "stateMutability": "view",
      "type": "function"
    },
    {
      "inputs": [],
      "name": "dStakeToken",
      "outputs": [
        {
          "internalType": "address",
          "name": "",
          "type": "address"
        }
      ],
      "stateMutability": "view",
      "type": "function"
    },
    {
      "inputs": [],
      "name": "getRestrictedRescueTokens",
      "outputs": [
        {
          "internalType": "address[]",
          "name": "",
          "type": "address[]"
        }
      ],
      "stateMutability": "view",
      "type": "function"
    },
    {
      "inputs": [
        {
          "internalType": "bytes32",
          "name": "role",
          "type": "bytes32"
        }
      ],
      "name": "getRoleAdmin",
      "outputs": [
        {
          "internalType": "bytes32",
          "name": "",
          "type": "bytes32"
        }
      ],
      "stateMutability": "view",
      "type": "function"
    },
    {
      "inputs": [],
      "name": "getSupportedAssets",
      "outputs": [
        {
          "internalType": "address[]",
          "name": "",
          "type": "address[]"
        }
      ],
      "stateMutability": "view",
      "type": "function"
    },
    {
      "inputs": [
        {
          "internalType": "bytes32",
          "name": "role",
          "type": "bytes32"
        },
        {
          "internalType": "address",
          "name": "account",
          "type": "address"
        }
      ],
      "name": "grantRole",
      "outputs": [],
      "stateMutability": "nonpayable",
      "type": "function"
    },
    {
      "inputs": [
        {
          "internalType": "bytes32",
          "name": "role",
          "type": "bytes32"
        },
        {
          "internalType": "address",
          "name": "account",
          "type": "address"
        }
      ],
      "name": "hasRole",
      "outputs": [
        {
          "internalType": "bool",
          "name": "",
          "type": "bool"
        }
      ],
      "stateMutability": "view",
      "type": "function"
    },
    {
      "inputs": [
        {
          "internalType": "address",
          "name": "vaultAsset",
          "type": "address"
        }
      ],
      "name": "removeSupportedAsset",
      "outputs": [],
      "stateMutability": "nonpayable",
      "type": "function"
    },
    {
      "inputs": [
        {
          "internalType": "bytes32",
          "name": "role",
          "type": "bytes32"
        },
        {
          "internalType": "address",
          "name": "callerConfirmation",
          "type": "address"
        }
      ],
      "name": "renounceRole",
      "outputs": [],
      "stateMutability": "nonpayable",
      "type": "function"
    },
    {
      "inputs": [
        {
          "internalType": "address",
          "name": "receiver",
          "type": "address"
        },
        {
          "internalType": "uint256",
          "name": "amount",
          "type": "uint256"
        }
      ],
      "name": "rescueETH",
      "outputs": [],
      "stateMutability": "nonpayable",
      "type": "function"
    },
    {
      "inputs": [
        {
          "internalType": "address",
          "name": "token",
          "type": "address"
        },
        {
          "internalType": "address",
          "name": "receiver",
          "type": "address"
        },
        {
          "internalType": "uint256",
          "name": "amount",
          "type": "uint256"
        }
      ],
      "name": "rescueToken",
      "outputs": [],
      "stateMutability": "nonpayable",
      "type": "function"
    },
    {
      "inputs": [
        {
          "internalType": "bytes32",
          "name": "role",
          "type": "bytes32"
        },
        {
          "internalType": "address",
          "name": "account",
          "type": "address"
        }
      ],
      "name": "revokeRole",
      "outputs": [],
      "stateMutability": "nonpayable",
      "type": "function"
    },
    {
      "inputs": [],
      "name": "router",
      "outputs": [
        {
          "internalType": "address",
          "name": "",
          "type": "address"
        }
      ],
      "stateMutability": "view",
      "type": "function"
    },
    {
      "inputs": [
        {
          "internalType": "address",
          "name": "vaultAsset",
          "type": "address"
        },
        {
          "internalType": "uint256",
          "name": "amount",
          "type": "uint256"
        },
        {
          "internalType": "address",
          "name": "recipient",
          "type": "address"
        }
      ],
      "name": "sendAsset",
      "outputs": [],
      "stateMutability": "nonpayable",
      "type": "function"
    },
    {
      "inputs": [
        {
          "internalType": "address",
          "name": "_newRouter",
          "type": "address"
        }
      ],
      "name": "setRouter",
      "outputs": [],
      "stateMutability": "nonpayable",
      "type": "function"
    },
    {
      "inputs": [
        {
          "internalType": "uint256",
          "name": "index",
          "type": "uint256"
        }
      ],
      "name": "supportedAssets",
      "outputs": [
        {
          "internalType": "address",
          "name": "",
          "type": "address"
        }
      ],
      "stateMutability": "view",
      "type": "function"
    },
    {
      "inputs": [
        {
          "internalType": "bytes4",
          "name": "interfaceId",
          "type": "bytes4"
        }
      ],
      "name": "supportsInterface",
      "outputs": [
        {
          "internalType": "bool",
          "name": "",
          "type": "bool"
        }
      ],
      "stateMutability": "view",
      "type": "function"
    },
    {
      "inputs": [],
      "name": "totalValueInDStable",
      "outputs": [
        {
          "internalType": "uint256",
          "name": "dStableValue",
          "type": "uint256"
        }
      ],
      "stateMutability": "view",
      "type": "function"
    },
    {
      "stateMutability": "payable",
      "type": "receive"
    }
  ],
  "transactionHash": "0x012c6875e028cf2d1f5aff66ac9baeef5c9b4fc5db4c2b7806358012b0cd9bd4",
  "args": [
    "0x288b077F243CB15B7a6c9Ab0Ad56099Fac5A332c",
    "0xCDD24D484a4B73e5a4f9A3b2227f90E3a25f1A23"
  ],
  "numDeployments": 1,
  "solcInputHash": "3119f14c142cd6db245e027e6458c4b3",
  "bytecode": "0x60c06040523480156200001157600080fd5b50604051620015a9380380620015a983398101604081905262000034916200016a565b600180556001600160a01b03821615806200005657506001600160a01b038116155b15620000755760405163d92e233d60e01b815260040160405180910390fd5b6001600160a01b03808316608052811660a052620000956000336200009e565b505050620001a2565b6000828152602081815260408083206001600160a01b038516845290915281205460ff1662000143576000838152602081815260408083206001600160a01b03861684529091529020805460ff19166001179055620000fa3390565b6001600160a01b0316826001600160a01b0316847f2f8788117e7eff1d82e926ec794901d17c78024a50270940304540a733656f0d60405160405180910390a450600162000147565b5060005b92915050565b80516001600160a01b03811681146200016557600080fd5b919050565b600080604083850312156200017e57600080fd5b62000189836200014d565b915062000199602084016200014d565b90509250929050565b60805160a0516113d3620001d6600039600081816101a3015281816107870152610b37015260006102f101526113d36000f3fe60806040526004361061012e5760003560e01c80635c47df42116100ab578063d547741f1161006f578063d547741f14610388578063e015e706146103a8578063e5406dbf146103bd578063e5711e8b146103d2578063f887ea40146103f2578063fac09e871461041257600080fd5b80635c47df42146102df57806391d1485414610313578063a217fddf14610333578063c0d7865514610348578063c68dbb371461036857600080fd5b80632f2ff15d116100f25780632f2ff15d1461023b57806330d643b51461025b57806336568abe1461027d57806338ff92e61461029d578063500fc434146102bd57600080fd5b806301ffc9a71461013a578063099a04e51461016f5780630cc2f8d2146101915780631c46bc6f146101dd578063248a9ca3146101fd57600080fd5b3661013557005b600080fd5b34801561014657600080fd5b5061015a610155366004611128565b610432565b60405190151581526020015b60405180910390f35b34801561017b57600080fd5b5061018f61018a366004611167565b610469565b005b34801561019d57600080fd5b506101c57f000000000000000000000000000000000000000000000000000000000000000081565b6040516001600160a01b039091168152602001610166565b3480156101e957600080fd5b5061018f6101f8366004611193565b610580565b34801561020957600080fd5b5061022d6102183660046111b0565b60009081526020819052604090206001015490565b604051908152602001610166565b34801561024757600080fd5b5061018f6102563660046111c9565b61060d565b34801561026757600080fd5b5061022d60008051602061137e83398151915281565b34801561028957600080fd5b5061018f6102983660046111c9565b610638565b3480156102a957600080fd5b5061018f6102b83660046111f9565b61066b565b3480156102c957600080fd5b506102d26106c8565b604051610166919061123b565b3480156102eb57600080fd5b506101c57f000000000000000000000000000000000000000000000000000000000000000081565b34801561031f57600080fd5b5061015a61032e3660046111c9565b6107d7565b34801561033f57600080fd5b5061022d600081565b34801561035457600080fd5b5061018f610363366004611193565b610800565b34801561037457600080fd5b506101c56103833660046111b0565b6108ce565b34801561039457600080fd5b5061018f6103a33660046111c9565b6108db565b3480156103b457600080fd5b5061022d610900565b3480156103c957600080fd5b506102d2610ab8565b3480156103de57600080fd5b5061018f6103ed366004611288565b610ac9565b3480156103fe57600080fd5b506002546101c5906001600160a01b031681565b34801561041e57600080fd5b5061018f61042d366004611193565b610bfc565b60006001600160e01b03198216637965db0b60e01b148061046357506301ffc9a760e01b6001600160e01b03198316145b92915050565b600061047481610cb1565b61047c610cbe565b6001600160a01b0383166104a35760405163d92e233d60e01b815260040160405180910390fd5b6000836001600160a01b03168360405160006040518083038185875af1925050503d80600081146104f0576040519150601f19603f3d011682016040523d82523d6000602084013e6104f5565b606091505b505090508061052e57604051635e0a829b60e01b81526001600160a01b0385166004820152602481018490526044015b60405180910390fd5b836001600160a01b03167fb3579861130e4da8bb7b87c54d2d139937f23bcd6e4ebed9e75d0f78ab1cc1188460405161056991815260200190565b60405180910390a25061057b60018055565b505050565b60008051602061137e83398151915261059881610cb1565b6105a182610ce8565b6105c957604051632777a68f60e11b81526001600160a01b0383166004820152602401610525565b6105d4600383610cf5565b506040516001600160a01b038316907fd4d3143baa8e1f94a3d57c410b72e62213e8359b01fc752925f64aa59f4053c990600090a25050565b60008281526020819052604090206001015461062881610cb1565b6106328383610d11565b50505050565b6001600160a01b03811633146106615760405163334bd91960e11b815260040160405180910390fd5b61057b8282610da3565b60008051602061137e83398151915261068381610cb1565b61068c84610ce8565b6106b457604051632777a68f60e11b81526001600160a01b0385166004820152602401610525565b6106326001600160a01b0385168385610e0e565b606060006106d66003610e60565b90506000815160016106e891906112df565b67ffffffffffffffff811115610700576107006112f2565b604051908082528060200260200182016040528015610729578160200160208202803683370190505b50905060005b82518110156107845782818151811061074a5761074a611308565b602002602001015182828151811061076457610764611308565b6001600160a01b039092166020928302919091019091015260010161072f565b507f0000000000000000000000000000000000000000000000000000000000000000818351815181106107b9576107b9611308565b6001600160a01b039092166020928302919091019091015292915050565b6000918252602082815260408084206001600160a01b0393909316845291905290205460ff1690565b600061080b81610cb1565b6001600160a01b0382166108325760405163d92e233d60e01b815260040160405180910390fd5b6002546001600160a01b03161561086a576002546108689060008051602061137e833981519152906001600160a01b0316610da3565b505b61088260008051602061137e83398151915283610d11565b50600280546001600160a01b0319166001600160a01b0384169081179091556040517fc6b438e6a8a59579ce6a4406cbd203b740e0d47b458aae6596339bcd40c40d1590600090a25050565b6000610463600383610e6d565b6000828152602081905260409020600101546108f681610cb1565b6106328383610da3565b6000808061090e6003610e79565b905060005b81811015610ab0576000610928600383610e6d565b60025460405163c8232bd760e01b81526001600160a01b0380841660048301529293506000929091169063c8232bd790602401602060405180830381865afa158015610978573d6000803e3d6000fd5b505050506040513d601f19601f8201168201806040525081019061099c919061131e565b90506001600160a01b0381166109b3575050610aa8565b6040516370a0823160e01b81523060048201526000906001600160a01b038416906370a0823190602401602060405180830381865afa1580156109fa573d6000803e3d6000fd5b505050506040513d601f19601f82011682018060405250810190610a1e919061133b565b90508015610aa457604051633171fd4b60e21b81526001600160a01b0384811660048301526024820183905283169063c5c7f52c90604401602060405180830381865afa158015610a73573d6000803e3d6000fd5b505050506040513d601f19601f82011682018060405250810190610a97919061133b565b610aa190876112df565b95505b5050505b600101610913565b509092915050565b6060610ac46003610e60565b905090565b6000610ad481610cb1565b610adc610cbe565b6001600160a01b038316610b035760405163d92e233d60e01b815260040160405180910390fd5b610b0c84610ce8565b15610b35576040516341d6bb6960e01b81526001600160a01b0385166004820152602401610525565b7f00000000000000000000000000000000000000000000000000000000000000006001600160a01b0316846001600160a01b031603610b92576040516341d6bb6960e01b81526001600160a01b0385166004820152602401610525565b610ba66001600160a01b0385168484610e0e565b826001600160a01b0316846001600160a01b03167f4143f7b5cb6ea007914c32b8a3e64cebc051d7f493fa0755454da1e47701e12584604051610beb91815260200190565b60405180910390a361063260018055565b60008051602061137e833981519152610c1481610cb1565b6001600160a01b038216610c3b5760405163d92e233d60e01b815260040160405180910390fd5b610c4482610ce8565b15610c6d576040516303b6566d60e41b81526001600160a01b0383166004820152602401610525565b610c78600383610e83565b506040516001600160a01b038316907f3ebc37c7ad88888fc79c591d53847cf755b23698bc448d2c3f39cce8acbe492b90600090a25050565b610cbb8133610e98565b50565b600260015403610ce157604051633ee5aeb560e01b815260040160405180910390fd5b6002600155565b6000610463600383610ed5565b6000610d0a836001600160a01b038416610ef7565b9392505050565b6000610d1d83836107d7565b610d9b576000838152602081815260408083206001600160a01b03861684529091529020805460ff19166001179055610d533390565b6001600160a01b0316826001600160a01b0316847f2f8788117e7eff1d82e926ec794901d17c78024a50270940304540a733656f0d60405160405180910390a4506001610463565b506000610463565b6000610daf83836107d7565b15610d9b576000838152602081815260408083206001600160a01b0386168085529252808320805460ff1916905551339286917ff6391f5c32d9c69d2a47ea670b442974b53935d1edc7fd64eb21e047a839171b9190a4506001610463565b604080516001600160a01b038416602482015260448082018490528251808303909101815260649091019091526020810180516001600160e01b031663a9059cbb60e01b17905261057b908490610fea565b60606000610d0a8361105b565b6000610d0a83836110b7565b6000610463825490565b6000610d0a836001600160a01b0384166110e1565b610ea282826107d7565b610ed15760405163e2517d3f60e01b81526001600160a01b038216600482015260248101839052604401610525565b5050565b6001600160a01b03811660009081526001830160205260408120541515610d0a565b60008181526001830160205260408120548015610fe0576000610f1b600183611354565b8554909150600090610f2f90600190611354565b9050808214610f94576000866000018281548110610f4f57610f4f611308565b9060005260206000200154905080876000018481548110610f7257610f72611308565b6000918252602080832090910192909255918252600188019052604090208390555b8554869080610fa557610fa5611367565b600190038181906000526020600020016000905590558560010160008681526020019081526020016000206000905560019350505050610463565b6000915050610463565b600080602060008451602086016000885af18061100d576040513d6000823e3d81fd5b50506000513d91508115611025578060011415611032565b6001600160a01b0384163b155b1561063257604051635274afe760e01b81526001600160a01b0385166004820152602401610525565b6060816000018054806020026020016040519081016040528092919081815260200182805480156110ab57602002820191906000526020600020905b815481526020019060010190808311611097575b50505050509050919050565b60008260000182815481106110ce576110ce611308565b9060005260206000200154905092915050565b6000818152600183016020526040812054610d9b57508154600181810184556000848152602080822090930184905584548482528286019093526040902091909155610463565b60006020828403121561113a57600080fd5b81356001600160e01b031981168114610d0a57600080fd5b6001600160a01b0381168114610cbb57600080fd5b6000806040838503121561117a57600080fd5b823561118581611152565b946020939093013593505050565b6000602082840312156111a557600080fd5b8135610d0a81611152565b6000602082840312156111c257600080fd5b5035919050565b600080604083850312156111dc57600080fd5b8235915060208301356111ee81611152565b809150509250929050565b60008060006060848603121561120e57600080fd5b833561121981611152565b925060208401359150604084013561123081611152565b809150509250925092565b6020808252825182820181905260009190848201906040850190845b8181101561127c5783516001600160a01b031683529284019291840191600101611257565b50909695505050505050565b60008060006060848603121561129d57600080fd5b83356112a881611152565b925060208401356112b881611152565b929592945050506040919091013590565b634e487b7160e01b600052601160045260246000fd5b80820180821115610463576104636112c9565b634e487b7160e01b600052604160045260246000fd5b634e487b7160e01b600052603260045260246000fd5b60006020828403121561133057600080fd5b8151610d0a81611152565b60006020828403121561134d57600080fd5b5051919050565b81810381811115610463576104636112c9565b634e487b7160e01b600052603160045260246000fdfe7a05a596cb0ce7fdea8a1e1ec73be300bdb35097c944ce1897202f7a13122eb2a26469706673582212208db1b864ae39e28e033c7e0d839ed5cdbae8215482f2419ac3ceabe848ffa22064736f6c63430008160033",
  "devdoc": {
    "details": "Calculates the total value of these assets in terms of the underlying dStable asset      using registered adapters. This contract is non-upgradeable but replaceable via      DStakeToken governance.      Uses AccessControl for role-based access control.",
    "errors": {
      "AccessControlBadConfirmation()": [
        {
          "details": "The caller of a function is not the expected one. NOTE: Don't confuse with {AccessControlUnauthorizedAccount}."
        }
      ],
      "AccessControlUnauthorizedAccount(address,bytes32)": [
        {
          "details": "The `account` is missing a role."
        }
      ],
      "ReentrancyGuardReentrantCall()": [
        {
          "details": "Unauthorized reentrant call."
        }
      ],
      "SafeERC20FailedOperation(address)": [
        {
          "details": "An operation with an ERC-20 token failed."
        }
      ]
    },
    "events": {
      "RoleAdminChanged(bytes32,bytes32,bytes32)": {
        "details": "Emitted when `newAdminRole` is set as ``role``'s admin role, replacing `previousAdminRole` `DEFAULT_ADMIN_ROLE` is the starting admin for all roles, despite {RoleAdminChanged} not being emitted to signal this."
      },
      "RoleGranted(bytes32,address,address)": {
        "details": "Emitted when `account` is granted `role`. `sender` is the account that originated the contract call. This account bears the admin role (for the granted role). Expected in cases where the role was granted using the internal {AccessControl-_grantRole}."
      },
      "RoleRevoked(bytes32,address,address)": {
        "details": "Emitted when `account` is revoked `role`. `sender` is the account that originated the contract call:   - if using `revokeRole`, it is the admin role bearer   - if using `renounceRole`, it is the role bearer (i.e. `account`)"
      },
      "RouterSet(address)": {
        "params": {
          "router": "The address of the new router."
        }
      }
    },
    "kind": "dev",
    "methods": {
      "getRestrictedRescueTokens()": {
        "returns": {
          "_0": "restrictedTokens Array of restricted token addresses"
        }
      },
      "getRoleAdmin(bytes32)": {
        "details": "Returns the admin role that controls `role`. See {grantRole} and {revokeRole}. To change a role's admin, use {_setRoleAdmin}."
      },
      "grantRole(bytes32,address)": {
        "details": "Grants `role` to `account`. If `account` had not been already granted `role`, emits a {RoleGranted} event. Requirements: - the caller must have ``role``'s admin role. May emit a {RoleGranted} event."
      },
      "hasRole(bytes32,address)": {
        "details": "Returns `true` if `account` has been granted `role`."
      },
      "renounceRole(bytes32,address)": {
        "details": "Revokes `role` from the calling account. Roles are often managed via {grantRole} and {revokeRole}: this function's purpose is to provide a mechanism for accounts to lose their privileges if they are compromised (such as when a trusted device is misplaced). If the calling account had been revoked `role`, emits a {RoleRevoked} event. Requirements: - the caller must be `callerConfirmation`. May emit a {RoleRevoked} event."
      },
      "rescueETH(address,uint256)": {
        "params": {
          "amount": "Amount of ETH to rescue",
          "receiver": "Address to receive the rescued ETH"
        }
      },
      "rescueToken(address,address,uint256)": {
        "details": "Cannot rescue supported vault assets or the dStable token",
        "params": {
          "amount": "Amount of tokens to rescue",
          "receiver": "Address to receive the rescued tokens",
          "token": "Address of the token to rescue"
        }
      },
      "revokeRole(bytes32,address)": {
        "details": "Revokes `role` from `account`. If `account` had been granted `role`, emits a {RoleRevoked} event. Requirements: - the caller must have ``role``'s admin role. May emit a {RoleRevoked} event."
      },
      "sendAsset(address,uint256,address)": {
        "details": "Only callable by the registered router (ROUTER_ROLE)."
      },
      "supportsInterface(bytes4)": {
        "details": "Returns true if this contract implements the interface defined by `interfaceId`. See the corresponding https://eips.ethereum.org/EIPS/eip-165#how-interfaces-are-identified[ERC section] to learn more about how these ids are created. This function call must use less than 30 000 gas."
      },
      "totalValueInDStable()": {
        "details": "This is typically called by the DStakeToken's `totalAssets()` function.",
        "returns": {
          "dStableValue": "The total value of managed assets in terms of the dStable asset."
        }
      }
    },
    "stateVariables": {
      "dStable": {
        "return": "The address of the dStable asset.",
        "returns": {
          "_0": "The address of the dStable asset."
        }
      }
    },
    "title": "DStakeCollateralVault",
    "version": 1
  },
  "userdoc": {
    "events": {
      "RouterSet(address)": {
        "notice": "Emitted when the router address is set."
      },
      "SupportedAssetAdded(address)": {
        "notice": "Emitted when a new vault asset is added to the supported list."
      },
      "SupportedAssetRemoved(address)": {
        "notice": "Emitted when a vault asset is removed from the supported list."
      }
    },
    "kind": "user",
    "methods": {
      "addSupportedAsset(address)": {
        "notice": "Adds a new supported vault asset. Can only be invoked by the router."
      },
      "dStable()": {
        "notice": "Returns the address of the underlying dStable asset the vault operates with."
      },
      "dStakeToken()": {
        "notice": "The DStakeToken contract address this vault serves."
      },
      "getRestrictedRescueTokens()": {
        "notice": "Returns the list of tokens that cannot be rescued"
      },
      "getSupportedAssets()": {
        "notice": "Returns the entire list of supported vault assets. Useful for UIs & off-chain tooling."
      },
      "removeSupportedAsset(address)": {
        "notice": "Removes a supported vault asset. Can only be invoked by the router."
      },
      "rescueETH(address,uint256)": {
        "notice": "Rescues ETH accidentally sent to the contract"
      },
      "rescueToken(address,address,uint256)": {
        "notice": "Rescues tokens accidentally sent to the contract"
      },
      "router()": {
        "notice": "The DStakeRouter contract address allowed to interact."
      },
      "sendAsset(address,uint256,address)": {
        "notice": "Transfers `amount` of `vaultAsset` from this vault to `recipient`."
      },
      "setRouter(address)": {
        "notice": "Sets the router address. Grants ROUTER_ROLE to new router and         revokes it from the previous router."
      },
      "supportedAssets(uint256)": {
        "notice": "Returns the vault asset at `index` from the internal supported set.         Kept for backwards-compatibility with the previous public array getter."
      },
      "totalValueInDStable()": {
        "notice": "Calculates the total value of all managed `vault assets` held by the vault,         denominated in the underlying dStable asset."
      }
    },
    "notice": "Holds various yield-bearing/convertible ERC20 tokens (`vault assets`) managed by dSTAKE.",
    "version": 1
  },
  "storageLayout": {
    "storage": [
      {
        "astId": 3317,
        "contract": "contracts/vaults/dstake/DStakeCollateralVault.sol:DStakeCollateralVault",
        "label": "_roles",
        "offset": 0,
        "slot": "0",
        "type": "t_mapping(t_bytes32,t_struct(RoleData)3312_storage)"
      },
      {
        "astId": 10033,
        "contract": "contracts/vaults/dstake/DStakeCollateralVault.sol:DStakeCollateralVault",
        "label": "_status",
        "offset": 0,
        "slot": "1",
        "type": "t_uint256"
      },
      {
        "astId": 88329,
        "contract": "contracts/vaults/dstake/DStakeCollateralVault.sol:DStakeCollateralVault",
        "label": "router",
        "offset": 0,
        "slot": "2",
        "type": "t_address"
      },
      {
        "astId": 88332,
        "contract": "contracts/vaults/dstake/DStakeCollateralVault.sol:DStakeCollateralVault",
        "label": "_supportedAssets",
        "offset": 0,
        "slot": "3",
        "type": "t_struct(AddressSet)19012_storage"
      }
    ],
    "types": {
      "t_address": {
        "encoding": "inplace",
        "label": "address",
        "numberOfBytes": "20"
      },
      "t_array(t_bytes32)dyn_storage": {
        "base": "t_bytes32",
        "encoding": "dynamic_array",
        "label": "bytes32[]",
        "numberOfBytes": "32"
      },
      "t_bool": {
        "encoding": "inplace",
        "label": "bool",
        "numberOfBytes": "1"
      },
      "t_bytes32": {
        "encoding": "inplace",
        "label": "bytes32",
        "numberOfBytes": "32"
      },
      "t_mapping(t_address,t_bool)": {
        "encoding": "mapping",
        "key": "t_address",
        "label": "mapping(address => bool)",
        "numberOfBytes": "32",
        "value": "t_bool"
      },
      "t_mapping(t_bytes32,t_struct(RoleData)3312_storage)": {
        "encoding": "mapping",
        "key": "t_bytes32",
        "label": "mapping(bytes32 => struct AccessControl.RoleData)",
        "numberOfBytes": "32",
        "value": "t_struct(RoleData)3312_storage"
      },
      "t_mapping(t_bytes32,t_uint256)": {
        "encoding": "mapping",
        "key": "t_bytes32",
        "label": "mapping(bytes32 => uint256)",
        "numberOfBytes": "32",
        "value": "t_uint256"
      },
      "t_struct(AddressSet)19012_storage": {
        "encoding": "inplace",
        "label": "struct EnumerableSet.AddressSet",
        "members": [
          {
            "astId": 19011,
            "contract": "contracts/vaults/dstake/DStakeCollateralVault.sol:DStakeCollateralVault",
            "label": "_inner",
            "offset": 0,
            "slot": "0",
            "type": "t_struct(Set)18526_storage"
          }
        ],
        "numberOfBytes": "64"
      },
      "t_struct(RoleData)3312_storage": {
        "encoding": "inplace",
        "label": "struct AccessControl.RoleData",
        "members": [
          {
            "astId": 3309,
            "contract": "contracts/vaults/dstake/DStakeCollateralVault.sol:DStakeCollateralVault",
            "label": "hasRole",
            "offset": 0,
            "slot": "0",
            "type": "t_mapping(t_address,t_bool)"
          },
          {
            "astId": 3311,
            "contract": "contracts/vaults/dstake/DStakeCollateralVault.sol:DStakeCollateralVault",
            "label": "adminRole",
            "offset": 0,
            "slot": "1",
            "type": "t_bytes32"
          }
        ],
        "numberOfBytes": "64"
      },
      "t_struct(Set)18526_storage": {
        "encoding": "inplace",
        "label": "struct EnumerableSet.Set",
        "members": [
          {
            "astId": 18521,
            "contract": "contracts/vaults/dstake/DStakeCollateralVault.sol:DStakeCollateralVault",
            "label": "_values",
            "offset": 0,
            "slot": "0",
            "type": "t_array(t_bytes32)dyn_storage"
          },
          {
            "astId": 18525,
            "contract": "contracts/vaults/dstake/DStakeCollateralVault.sol:DStakeCollateralVault",
            "label": "_positions",
            "offset": 0,
            "slot": "1",
            "type": "t_mapping(t_bytes32,t_uint256)"
          }
        ],
        "numberOfBytes": "64"
      },
      "t_uint256": {
        "encoding": "inplace",
        "label": "uint256",
        "numberOfBytes": "32"
      }
    }
  }
}