{
  "address": "0x86c9E63275d2F758158095eb4aB5c7a8e3faDe82",
  "abi": [
    {
      "inputs": [
        {
          "internalType": "address",
          "name": "_dStakeToken",
          "type": "address"
        },
        {
          "internalType": "address",
          "name": "_collateralVault",
          "type": "address"
        }
      ],
      "stateMutability": "nonpayable",
      "type": "constructor"
    },
    {
      "inputs": [],
      "name": "AccessControlBadConfirmation",
      "type": "error"
    },
    {
      "inputs": [
        {
          "internalType": "address",
          "name": "account",
          "type": "address"
        },
        {
          "internalType": "bytes32",
          "name": "neededRole",
          "type": "bytes32"
        }
      ],
      "name": "AccessControlUnauthorizedAccount",
      "type": "error"
    },
    {
      "inputs": [
        {
          "internalType": "address",
          "name": "adapter",
          "type": "address"
        },
        {
          "internalType": "address",
          "name": "expectedAsset",
          "type": "address"
        },
        {
          "internalType": "address",
          "name": "actualAsset",
          "type": "address"
        }
      ],
      "name": "AdapterAssetMismatch",
      "type": "error"
    },
    {
      "inputs": [
        {
          "internalType": "address",
          "name": "vaultAsset",
          "type": "address"
        }
      ],
      "name": "AdapterNotFound",
      "type": "error"
    },
    {
      "inputs": [
        {
          "internalType": "string",
          "name": "message",
          "type": "string"
        }
      ],
      "name": "InconsistentState",
      "type": "error"
    },
    {
      "inputs": [
        {
          "internalType": "address",
          "name": "vaultAsset",
          "type": "address"
        },
        {
          "internalType": "uint256",
          "name": "expected",
          "type": "uint256"
        },
        {
          "internalType": "uint256",
          "name": "actual",
          "type": "uint256"
        }
      ],
      "name": "InsufficientDStableFromAdapter",
      "type": "error"
    },
    {
      "inputs": [
        {
          "internalType": "address",
          "name": "token",
          "type": "address"
        }
      ],
      "name": "SafeERC20FailedOperation",
      "type": "error"
    },
    {
      "inputs": [
        {
          "internalType": "address",
          "name": "toAsset",
          "type": "address"
        },
        {
          "internalType": "uint256",
          "name": "calculatedAmount",
          "type": "uint256"
        },
        {
          "internalType": "uint256",
          "name": "minAmount",
          "type": "uint256"
        }
      ],
      "name": "SlippageCheckFailed",
      "type": "error"
    },
    {
      "inputs": [
        {
          "internalType": "address",
          "name": "vaultAsset",
          "type": "address"
        },
        {
          "internalType": "address",
          "name": "existingAdapter",
          "type": "address"
        }
      ],
      "name": "VaultAssetManagedByDifferentAdapter",
      "type": "error"
    },
    {
      "inputs": [],
      "name": "ZeroAddress",
      "type": "error"
    },
    {
      "inputs": [
        {
          "internalType": "address",
          "name": "fromAsset",
          "type": "address"
        },
        {
          "internalType": "uint256",
          "name": "fromAmount",
          "type": "uint256"
        }
      ],
      "name": "ZeroInputDStableValue",
      "type": "error"
    },
    {
      "inputs": [
        {
          "internalType": "address",
          "name": "vaultAsset",
          "type": "address"
        }
      ],
      "name": "ZeroPreviewWithdrawAmount",
      "type": "error"
    },
    {
      "anonymous": false,
      "inputs": [
        {
          "indexed": true,
          "internalType": "address",
          "name": "vaultAsset",
          "type": "address"
        },
        {
          "indexed": false,
          "internalType": "address",
          "name": "adapterAddress",
          "type": "address"
        }
      ],
      "name": "AdapterRemoved",
      "type": "event"
    },
    {
      "anonymous": false,
      "inputs": [
        {
          "indexed": true,
          "internalType": "address",
          "name": "vaultAsset",
          "type": "address"
        },
        {
          "indexed": false,
          "internalType": "address",
          "name": "adapterAddress",
          "type": "address"
        }
      ],
      "name": "AdapterSet",
      "type": "event"
    },
    {
      "anonymous": false,
      "inputs": [
        {
          "indexed": true,
          "internalType": "address",
          "name": "vaultAsset",
          "type": "address"
        }
      ],
      "name": "DefaultDepositVaultAssetSet",
      "type": "event"
    },
    {
      "anonymous": false,
      "inputs": [
        {
          "indexed": false,
          "internalType": "uint256",
          "name": "newDustTolerance",
          "type": "uint256"
        }
      ],
      "name": "DustToleranceSet",
      "type": "event"
    },
    {
      "anonymous": false,
      "inputs": [
        {
          "indexed": true,
          "internalType": "address",
          "name": "fromAsset",
          "type": "address"
        },
        {
          "indexed": true,
          "internalType": "address",
          "name": "toAsset",
          "type": "address"
        },
        {
          "indexed": false,
          "internalType": "uint256",
          "name": "fromAssetAmount",
          "type": "uint256"
        },
        {
          "indexed": false,
          "internalType": "uint256",
          "name": "toAssetAmount",
          "type": "uint256"
        },
        {
          "indexed": false,
          "internalType": "uint256",
          "name": "dStableAmountEquivalent",
          "type": "uint256"
        },
        {
          "indexed": true,
          "internalType": "address",
          "name": "exchanger",
          "type": "address"
        }
      ],
      "name": "Exchanged",
      "type": "event"
    },
    {
      "anonymous": false,
      "inputs": [
        {
          "indexed": true,
          "internalType": "bytes32",
          "name": "role",
          "type": "bytes32"
        },
        {
          "indexed": true,
          "internalType": "bytes32",
          "name": "previousAdminRole",
          "type": "bytes32"
        },
        {
          "indexed": true,
          "internalType": "bytes32",
          "name": "newAdminRole",
          "type": "bytes32"
        }
      ],
      "name": "RoleAdminChanged",
      "type": "event"
    },
    {
      "anonymous": false,
      "inputs": [
        {
          "indexed": true,
          "internalType": "bytes32",
          "name": "role",
          "type": "bytes32"
        },
        {
          "indexed": true,
          "internalType": "address",
          "name": "account",
          "type": "address"
        },
        {
          "indexed": true,
          "internalType": "address",
          "name": "sender",
          "type": "address"
        }
      ],
      "name": "RoleGranted",
      "type": "event"
    },
    {
      "anonymous": false,
      "inputs": [
        {
          "indexed": true,
          "internalType": "bytes32",
          "name": "role",
          "type": "bytes32"
        },
        {
          "indexed": true,
          "internalType": "address",
          "name": "account",
          "type": "address"
        },
        {
          "indexed": true,
          "internalType": "address",
          "name": "sender",
          "type": "address"
        }
      ],
      "name": "RoleRevoked",
      "type": "event"
    },
    {
      "anonymous": false,
      "inputs": [
        {
          "indexed": true,
          "internalType": "address",
          "name": "adapter",
          "type": "address"
        },
        {
          "indexed": true,
          "internalType": "address",
          "name": "vaultAsset",
          "type": "address"
        },
        {
          "indexed": true,
          "internalType": "address",
          "name": "dStakeToken",
          "type": "address"
        },
        {
          "indexed": false,
          "internalType": "uint256",
          "name": "vaultAssetAmount",
          "type": "uint256"
        },
        {
          "indexed": false,
          "internalType": "uint256",
          "name": "dStableAmount",
          "type": "uint256"
        }
      ],
      "name": "RouterDeposit",
      "type": "event"
    },
    {
      "anonymous": false,
      "inputs": [
        {
          "indexed": false,
          "internalType": "uint256",
          "name": "amount",
          "type": "uint256"
        }
      ],
      "name": "SurplusHeld",
      "type": "event"
    },
    {
      "anonymous": false,
      "inputs": [
        {
          "indexed": false,
          "internalType": "uint256",
          "name": "amount",
          "type": "uint256"
        },
        {
          "indexed": false,
          "internalType": "address",
          "name": "vaultAsset",
          "type": "address"
        }
      ],
      "name": "SurplusSwept",
      "type": "event"
    },
    {
      "anonymous": false,
      "inputs": [
        {
          "indexed": true,
          "internalType": "address",
          "name": "vaultAsset",
          "type": "address"
        },
        {
          "indexed": false,
          "internalType": "uint256",
          "name": "vaultAssetAmount",
          "type": "uint256"
        },
        {
          "indexed": false,
          "internalType": "uint256",
          "name": "dStableAmount",
          "type": "uint256"
        },
        {
          "indexed": false,
          "internalType": "address",
          "name": "owner",
          "type": "address"
        },
        {
          "indexed": false,
          "internalType": "address",
          "name": "receiver",
          "type": "address"
        }
      ],
      "name": "Withdrawn",
      "type": "event"
    },
    {
      "inputs": [],
      "name": "COLLATERAL_EXCHANGER_ROLE",
      "outputs": [
        {
          "internalType": "bytes32",
          "name": "",
          "type": "bytes32"
        }
      ],
      "stateMutability": "view",
      "type": "function"
    },
    {
      "inputs": [],
      "name": "DEFAULT_ADMIN_ROLE",
      "outputs": [
        {
          "internalType": "bytes32",
          "name": "",
          "type": "bytes32"
        }
      ],
      "stateMutability": "view",
      "type": "function"
    },
    {
      "inputs": [],
      "name": "DSTAKE_TOKEN_ROLE",
      "outputs": [
        {
          "internalType": "bytes32",
          "name": "",
          "type": "bytes32"
        }
      ],
      "stateMutability": "view",
      "type": "function"
    },
    {
      "inputs": [
        {
          "internalType": "address",
          "name": "vaultAsset",
          "type": "address"
        },
        {
          "internalType": "address",
          "name": "adapterAddress",
          "type": "address"
        }
      ],
      "name": "addAdapter",
      "outputs": [],
      "stateMutability": "nonpayable",
      "type": "function"
    },
    {
      "inputs": [],
      "name": "collateralVault",
      "outputs": [
        {
          "internalType": "contract IDStakeCollateralVault",
          "name": "",
          "type": "address"
        }
      ],
      "stateMutability": "view",
      "type": "function"
    },
    {
      "inputs": [],
      "name": "dStable",
      "outputs": [
        {
          "internalType": "address",
          "name": "",
          "type": "address"
        }
      ],
      "stateMutability": "view",
      "type": "function"
    },
    {
      "inputs": [],
      "name": "dStakeToken",
      "outputs": [
        {
          "internalType": "address",
          "name": "",
          "type": "address"
        }
      ],
      "stateMutability": "view",
      "type": "function"
    },
    {
      "inputs": [],
      "name": "defaultDepositVaultAsset",
      "outputs": [
        {
          "internalType": "address",
          "name": "",
          "type": "address"
        }
      ],
      "stateMutability": "view",
      "type": "function"
    },
    {
      "inputs": [
        {
          "internalType": "uint256",
          "name": "dStableAmount",
          "type": "uint256"
        }
      ],
      "name": "deposit",
      "outputs": [],
      "stateMutability": "nonpayable",
      "type": "function"
    },
    {
      "inputs": [],
      "name": "dustTolerance",
      "outputs": [
        {
          "internalType": "uint256",
          "name": "",
          "type": "uint256"
        }
      ],
      "stateMutability": "view",
      "type": "function"
    },
    {
      "inputs": [
        {
          "internalType": "address",
          "name": "fromVaultAsset",
          "type": "address"
        },
        {
          "internalType": "address",
          "name": "toVaultAsset",
          "type": "address"
        },
        {
          "internalType": "uint256",
          "name": "fromVaultAssetAmount",
          "type": "uint256"
        },
        {
          "internalType": "uint256",
          "name": "minToVaultAssetAmount",
          "type": "uint256"
        }
      ],
      "name": "exchangeAssets",
      "outputs": [],
      "stateMutability": "nonpayable",
      "type": "function"
    },
    {
      "inputs": [
        {
          "internalType": "address",
          "name": "fromVaultAsset",
          "type": "address"
        },
        {
          "internalType": "address",
          "name": "toVaultAsset",
          "type": "address"
        },
        {
          "internalType": "uint256",
          "name": "fromVaultAssetAmount",
          "type": "uint256"
        },
        {
          "internalType": "uint256",
          "name": "minToVaultAssetAmount",
          "type": "uint256"
        }
      ],
      "name": "exchangeAssetsUsingAdapters",
      "outputs": [],
      "stateMutability": "nonpayable",
      "type": "function"
    },
    {
      "inputs": [
        {
          "internalType": "bytes32",
          "name": "role",
          "type": "bytes32"
        }
      ],
      "name": "getRoleAdmin",
      "outputs": [
        {
          "internalType": "bytes32",
          "name": "",
          "type": "bytes32"
        }
      ],
      "stateMutability": "view",
      "type": "function"
    },
    {
      "inputs": [
        {
          "internalType": "bytes32",
          "name": "role",
          "type": "bytes32"
        },
        {
          "internalType": "address",
          "name": "account",
          "type": "address"
        }
      ],
      "name": "grantRole",
      "outputs": [],
      "stateMutability": "nonpayable",
      "type": "function"
    },
    {
      "inputs": [
        {
          "internalType": "bytes32",
          "name": "role",
          "type": "bytes32"
        },
        {
          "internalType": "address",
          "name": "account",
          "type": "address"
        }
      ],
      "name": "hasRole",
      "outputs": [
        {
          "internalType": "bool",
          "name": "",
          "type": "bool"
        }
      ],
      "stateMutability": "view",
      "type": "function"
    },
    {
      "inputs": [
        {
          "internalType": "address",
          "name": "vaultAsset",
          "type": "address"
        }
      ],
      "name": "removeAdapter",
      "outputs": [],
      "stateMutability": "nonpayable",
      "type": "function"
    },
    {
      "inputs": [
        {
          "internalType": "bytes32",
          "name": "role",
          "type": "bytes32"
        },
        {
          "internalType": "address",
          "name": "callerConfirmation",
          "type": "address"
        }
      ],
      "name": "renounceRole",
      "outputs": [],
      "stateMutability": "nonpayable",
      "type": "function"
    },
    {
      "inputs": [
        {
          "internalType": "bytes32",
          "name": "role",
          "type": "bytes32"
        },
        {
          "internalType": "address",
          "name": "account",
          "type": "address"
        }
      ],
      "name": "revokeRole",
      "outputs": [],
      "stateMutability": "nonpayable",
      "type": "function"
    },
    {
      "inputs": [
        {
          "internalType": "address",
          "name": "vaultAsset",
          "type": "address"
        }
      ],
      "name": "setDefaultDepositVaultAsset",
      "outputs": [],
      "stateMutability": "nonpayable",
      "type": "function"
    },
    {
      "inputs": [
        {
          "internalType": "uint256",
          "name": "_dustTolerance",
          "type": "uint256"
        }
      ],
      "name": "setDustTolerance",
      "outputs": [],
      "stateMutability": "nonpayable",
      "type": "function"
    },
    {
      "inputs": [
        {
          "internalType": "bytes4",
          "name": "interfaceId",
          "type": "bytes4"
        }
      ],
      "name": "supportsInterface",
      "outputs": [
        {
          "internalType": "bool",
          "name": "",
          "type": "bool"
        }
      ],
      "stateMutability": "view",
      "type": "function"
    },
    {
      "inputs": [
        {
          "internalType": "uint256",
          "name": "maxAmount",
          "type": "uint256"
        }
      ],
      "name": "sweepSurplus",
      "outputs": [],
      "stateMutability": "nonpayable",
      "type": "function"
    },
    {
      "inputs": [
        {
          "internalType": "address",
          "name": "",
          "type": "address"
        }
      ],
      "name": "vaultAssetToAdapter",
      "outputs": [
        {
          "internalType": "address",
          "name": "",
          "type": "address"
        }
      ],
      "stateMutability": "view",
      "type": "function"
    },
    {
      "inputs": [
        {
          "internalType": "uint256",
          "name": "dStableAmount",
          "type": "uint256"
        },
        {
          "internalType": "address",
          "name": "receiver",
          "type": "address"
        },
        {
          "internalType": "address",
          "name": "owner",
          "type": "address"
        }
      ],
      "name": "withdraw",
      "outputs": [],
      "stateMutability": "nonpayable",
      "type": "function"
    }
  ],
  "transactionHash": "0x1f56dd1e9f2c5ea1b793aed29529a982375ec3793586cba76ce3c7301211dad3",
  "args": [
    "0x288b077F243CB15B7a6c9Ab0Ad56099Fac5A332c",
    "0x82944d896F0db039f304c1741fE6f3978b3D4ff8"
  ],
  "numDeployments": 1,
  "solcInputHash": "89ac882a7235cbb27766ab3acc26196c",
  "bytecode": "0x60e060409080825234620001a7578181620024228038038091620000248285620001ac565b833981010312620001a7576200004860206200004083620001e6565b9201620001e6565b600180556001600160a01b03908282161580156200019c575b6200018b5760208260049285608052168060a0528551928380926306617c6960e11b82525afa90811562000180576000916200013c575b508060c05216156200012b57620000bb90620000b433620001fb565b506200027b565b50516120e490816200031e8239608051816113c9015260a05181818161031a0152818161076f01528181610b1c015281816112a80152818161145c015281816117d80152611aed015260c0518181816103e5015281816107c901528181610bce01528181610f950152611aa80152f35b815163d92e233d60e01b8152600490fd5b906020823d821162000177575b816200015860209383620001ac565b810103126200017457506200016d90620001e6565b3862000098565b80fd5b3d915062000149565b84513d6000823e3d90fd5b835163d92e233d60e01b8152600490fd5b508181161562000061565b600080fd5b601f909101601f19168101906001600160401b03821190821017620001d057604052565b634e487b7160e01b600052604160045260246000fd5b51906001600160a01b0382168203620001a757565b6001600160a01b031660008181527fad3228b676f7d3cd4284a5443f17f1962b36e491b30a40b2405849e597ba5fb5602052604081205490919060ff166200027757818052816020526040822081835260205260408220600160ff198254161790553391600080516020620024028339815191528180a4600190565b5090565b6001600160a01b031660008181527fee6598bb9d8813ec5dcf0988fbc9935f3bd23c22de3e37b2654f2216372e6c0860205260408120549091907f7fee0d6ae731e4c26a7bffbf1bb702cb3aaa110506f5b2a78cc9372669d439ae9060ff166200031857808352826020526040832082845260205260408320600160ff1982541617905560008051602062002402833981519152339380a4600190565b50509056fe608080604052600436101561001357600080fd5b600090813560e01c90816301ffc9a714611b1c575080630bece79c14611ad75780630cc2f8d214611a925780631e99981414611a745780632379e45214611639578063248a9ca31461160d5780632f2ff15d146115d057806336568abe146115885780633a5d64c51461150d578063585cd34b146113f85780635c47df42146113b35780636dacd3d7146111f157806391d14854146111a65780639bb9461f14610f59578063a217fddf14610f3d578063b460af9414610a61578063b6b55f25146106f3578063b9c7e7a514610295578063bc6d5a101461025a578063c8232bd71461021e578063d547741f146101dd578063dc369c651461018f578063e1e6548d146101665763ee1f70441461012957600080fd5b3461016357806003193601126101635760206040517f3a4b3a1f03347d0616bb4d34491485029b5c8f56cd6dc1f9e9b1524cad0936f78152f35b80fd5b50346101635780600319360112610163576003546040516001600160a01b039091168152602090f35b5034610163576020366003190112610163577fbd575a5650fa5dbcfe03ab798aec3c80a935c6d293729c1ede529f46efbfbd4760206004356101cf611c50565b80600155604051908152a180f35b50346101635760403660031901126101635761021a6004356101fd611b71565b90808452836020526102156001604086200154611ce6565b611d8a565b5080f35b5034610163576020366003190112610163576020906001600160a01b039060409082610248611b87565b16815260028452205416604051908152f35b503461016357806003193601126101635760206040517f7fee0d6ae731e4c26a7bffbf1bb702cb3aaa110506f5b2a78cc9372669d439ae8152f35b5034610163576102a436611b9d565b90926102ae611bd6565b60018060a01b0380821692838752602090600282528260408920541683871696878a528460408b2054169282156106da5783156106c157908a9392916040519763e0e5c1ab60e01b93848a528c60048b0152878a602481845afa998a1561067f57879a61068e575b50887f000000000000000000000000000000000000000000000000000000000000000016803b1561068a57604051631c7fc97360e11b81526001600160a01b03939093166004840152602483018e905230604484015287908390606490829084905af1801561067f5788928891610662575b50506103958d828d611fbb565b60248d604051988993849263508fef7760e11b845260048401525af1948515610657578c95610628575b5060405163095ea7b360e01b81526001600160a01b0385166004820152602481018690527f0000000000000000000000000000000000000000000000000000000000000000958d918881604481868e8d165af1801561061d576105f0575b50604051906254772560e21b82526004820152604081602481858a5af19889156105e5578c91839a6105ae575b5082160361057b575080871061054c575050839060246040518094819382528860048301525afa92831561054157899361050c575b505061048d60015485611e94565b8083106104d95750506040805196875260208701929092525084015233927f34eb53881682710349fbce503317e7cba1eb6dcdeeb2c86b8dd00f0fe510ba539080606081015b0390a480f35b604051636f85e6ff60e11b81526001600160a01b0392909216600483015260248201929092526044810191909152606490fd5b9080929350813d831161053a575b6105248183611e29565b81010312610535575190388061047f565b600080fd5b503d61051a565b6040513d8b823e3d90fd5b604051636f85e6ff60e11b81526001600160a01b03929092166004830152602482018790526044820152606490fd5b60405163e8eebd3760e01b81526001600160a01b0386811660048301528481166024830152919091166044820152606490fd5b9099506105d491925060403d6040116105de575b6105cc8183611e29565b810190611e5f565b919091983861044a565b503d6105c2565b6040513d84823e3d90fd5b61060f90893d8b11610616575b6106078183611e29565b810190611e7c565b503861041d565b503d6105fd565b6040513d85823e3d90fd5b9094508581813d8311610650575b6106408183611e29565b81010312610535575193386103bf565b503d610636565b6040513d8e823e3d90fd5b61066e91929350611dff565b61067b5786908638610388565b8580fd5b6040513d89823e3d90fd5b8780fd5b8880929b508198503d83116106ba575b6106a88183611e29565b81010312610535578c95519838610316565b503d61069e565b60405163dfc24d3d60e01b8152600481018a9052602490fd5b60405163dfc24d3d60e01b815260048101899052602490fd5b503461016357602080600319360112610a5d5760043590610712611c8a565b6003546001600160a01b03908116808552600283526040852054919391841691908215610a45575060405192633bcb4e8360e21b8452816004850152604084602481865afa938415610a3a5786908795610a16575b5085811694867f0000000000000000000000000000000000000000000000000000000000000000166040516370a0823160e01b9182825280600483015285826024818c5afa908b8215610a0a5788818b8e8b94966109d2575b610829959697507f000000000000000000000000000000000000000000000000000000000000000016916107f684303386611eb7565b60405163095ea7b360e01b81526001600160a01b0390921660048301526024820193909352938492839182906044820190565b03925af18015610657576109b5575b50604080516254772560e21b81526004810189905290816024818f8d5af19a8b15610657578c918d9c610990575b508a9082160361095d5750604051928352600483015284826024818b5afa8015610952578a90610923575b61089b9250611e94565b9687036108dd5780871061054c5750506040519485528401527f705661fa3a970960d8791236e32945efdda156e72c9d7b76505b6ccbdc48501b60403394a480f35b604051633b0e6a4960e11b815260048101849052601b60248201527f41646170746572206d69732d7265706f727465642073686172657300000000006044820152606490fd5b508482813d831161094b575b6109398183611e29565b810103126105355761089b9151610891565b503d61092f565b6040513d8c823e3d90fd5b60405163e8eebd3760e01b81526001600160a01b038a811660048301528781166024830152919091166044820152606490fd5b6109ad919c508b925060403d6040116105de576105cc8183611e29565b9b9091610866565b6109cb90873d8911610616576106078183611e29565b5038610838565b5050505090915082813d8311610a03575b6109ed8183611e29565b81010312610535579051899186888d8b866107c0565b503d6109e3565b604051903d90823e3d90fd5b9050610a3291945060403d6040116105de576105cc8183611e29565b939038610767565b6040513d88823e3d90fd5b6024906040519063dfc24d3d60e01b82526004820152fd5b5080fd5b503461016357606036600319011261016357600435610a7e611b71565b6001600160a01b036044358181169391929084900361053557610a9f611c8a565b8260035416938486526020926002845284604088205416958615610a455750604051634ab9e16b60e01b81529380856004818a5afa948515610f32578895610efb575b508585169660405195630a28a47760e01b875283600488015282876024818c5afa968715610952578a97610ecc575b508615610eb35789887f000000000000000000000000000000000000000000000000000000000000000016803b15610a5d57604051631c7fc97360e11b81526001600160a01b0384166004820152602481018a90523060448201529082908290606490829084905af180156105e557610e9b575b505081610b95886024948c611fbb565b838b6040519485809263508fef7760e11b82528c6004830152855af1928315610e90578b93610e61575b50848310610e2e57610bff858a7f00000000000000000000000000000000000000000000000000000000000000001694610bfa828b88611f7a565b611e94565b918b83610c49575b8b7fb82a50d120fe10f11179f7792c046bf005589c3eea490a9e3e347ed31353165960808c8e8d8d8d8d6040519586528501526040840152166060820152a280f35b60405163095ea7b360e01b8082526001600160a01b038516600483015260248201869052959b949a9994989497949694959291859082908e908290816044810103925af18015610e2157610e04575b506040516254772560e21b81528a60048201528d60408260248184895af1909181610de2575b50610d6a57505090604483928d6040519c8d948593845260048401528160248401525af197881561095257816080987fc2b45953ce7f14f6d1f9273fb9620e4e5eea889991ca73f256b7ef8e1988e84c927fb82a50d120fe10f11179f7792c046bf005589c3eea490a9e3e347ed3135316599b610d4d575b50604051908152a15b91939681939596388b610c07565b610d6390833d8511610616576106078183611e29565b5038610d36565b889a508093949698919597999b508c92501603610db257505050917fb82a50d120fe10f11179f7792c046bf005589c3eea490a9e3e347ed31353165995939160809593610d3f565b60405163e8eebd3760e01b81526001600160a01b0392831660048201529282166024840152166044820152606490fd5b610dfc91925060403d6040116105de576105cc8183611e29565b509038610cbe565b610e1a90853d8711610616576106078183611e29565b5038610c98565b8e604051903d90823e3d90fd5b506040516322ce378760e11b81526001600160a01b03919091166004820152602481018490526044810191909152606490fd5b9092508381813d8311610e89575b610e798183611e29565b8101031261053557519138610bbf565b503d610e6f565b6040513d8d823e3d90fd5b610ea490611dff565b610eaf578938610b85565b8980fd5b6040516352e4307960e11b8152600481018a9052602490fd5b9096508281813d8311610ef4575b610ee48183611e29565b8101031261053557519538610b11565b503d610eda565b9080955081813d8311610f2b575b610f138183611e29565b8101031261068a57610f2490611e4b565b9338610ae2565b503d610f09565b6040513d8a823e3d90fd5b5034610163578060031936011261016357602090604051908152f35b503461016357602080600319360112610a5d5760043590610f78611c50565b6040516370a0823160e01b81523060048201526001600160a01b037f0000000000000000000000000000000000000000000000000000000000000000811693909291908282602481885afa918215610a3a578692611177575b5081156111595780158015611150575b156111485750925b82600354168086526002835283604087205416908115610a455750604051634ab9e16b60e01b8152918383600481855afa92831561067f57879361110d575b5060405163095ea7b360e01b81526001600160a01b038316600482015260248101879052908490829060449082908b905af1801561067f576110f0575b506040516254772560e21b81528560048201526040816024818a865af190811561067f5787916110d0575b508481169483168503610db257867fde5535ecf375c1fc5a04be89bec3dee7e25472f1a743e5da0ee098dd9d700bad60408888888351928352820152a180f35b6110e9915060403d6040116105de576105cc8183611e29565b5038611090565b61110690843d8611610616576106078183611e29565b5038611065565b9092508381813d8311611141575b6111258183611e29565b8101031261113d5761113690611e4b565b9138611028565b8680fd5b503d61111b565b905092610fe9565b50818111610fe1565b60448587604051916354f076c560e11b835260048301526024820152fd5b9091508281813d831161119f575b61118f8183611e29565b8101031261053557519038610fd1565b503d611185565b50346101635760403660031901126101635760406111c2611b71565b91600435815280602052209060018060a01b0316600052602052602060ff604060002054166040519015158152f35b50346101635760403660031901126101635761120b611b87565b611213611b71565b61121b611c50565b6001600160a01b038181169190821580156113a9575b61139757604051634ab9e16b60e01b8152936020928386600481885afa95861561067f578796611360575b50828216958684821603610db257505050838552600282528060408620541680151580611356575b6113385750838552600282526040852080546001600160a01b0319168417905584907f000000000000000000000000000000000000000000000000000000000000000016803b15610a5d5781809160246040518094819363fac09e8760e01b83528a60048401525af1611320575b50507fe5e39617beb2a298b9fa1c3928582d9a96ba7ef7c920acd1117d1d415568670a91604051908152a280f35b61132990611dff565b6113345783386112f2565b8380fd5b846044916040519163fa9938bf60e01b835260048301526024820152fd5b5083811415611284565b9095508381813d8311611390575b6113788183611e29565b8101031261113d5761138990611e4b565b943861125c565b503d61136e565b60405163d92e233d60e01b8152600490fd5b5080841615611231565b50346101635780600319360112610163576040517f00000000000000000000000000000000000000000000000000000000000000006001600160a01b03168152602090f35b503461016357602036600319011261016357611412611b87565b61141a611c50565b6001600160a01b039081168083526002602052604083205490919081169081156114f45782845260026020526040842080546001600160a01b031916905583907f000000000000000000000000000000000000000000000000000000000000000016803b15610a5d57818091602460405180948193631c46bc6f60e01b83528960048401525af180156105e5576114dc575b505060207f80d565a25be79c22ac744d2eb2cf727b98545a88dd1396b53ce6a045aacd558291604051908152a280f35b6114e590611dff565b6114f05782386114ac565b8280fd5b60405163dfc24d3d60e01b815260048101849052602490fd5b503461016357602036600319011261016357611527611b87565b61152f611c50565b6001600160a01b039081168083526002602052604083205490911615610a4557600380546001600160a01b031916821790557f24924ec42babd548ca3fd6321ab17d9c16c025f8996cbfac050500587609b1748280a280f35b5034610163576040366003190112610163576115a2611b71565b336001600160a01b038216036115be5761021a90600435611d8a565b60405163334bd91960e11b8152600490fd5b50346101635760403660031901126101635761021a6004356115f0611b71565b90808452836020526116086001604086200154611ce6565b611d0c565b503461016357602036600319011261016357600160406020926004358152808452200154604051908152f35b50346101635761164836611b9d565b611653939293611bd6565b8115611a2e576001600160a01b038316158015611a1d575b611397576040519060c0820182811067ffffffffffffffff821117611a095760409081528683526020808401888152848301899052606085018990526080850189905260a085018990526001600160a01b038781168a526002808452848b2054821687528982168b52909252918820548116909152825116156119e85760208201516001600160a01b0316156119c75781516001600160a01b03908116604080850182905260208581015190931660608601525163e0e5c1ab60e01b8152600481018690529190829060249082905afa90811561067f578791611995575b508060808401521561196d5760018060a01b0360608301511690604060808401516024825180958193633bcb4e8360e21b835260048301525afa91821561067f5787908893611949575b506001600160a01b038781169082160361191357508160a08401528082106118e557506117cd90508230336001600160a01b038716611eb7565b846001600160a01b037f000000000000000000000000000000000000000000000000000000000000000081169061180990859083908816611f7a565b60a0830151813b156114f057604051631c7fc97360e11b81526001600160a01b0388166004820152602481019190915233604482015291908290606490829084905af18015610a3a576118b2575b5060a08101516080909101516040805193845260208401929092529082015233926001600160a01b039081169216907f34eb53881682710349fbce503317e7cba1eb6dcdeeb2c86b8dd00f0fe510ba539080606081016104d3565b946118de7f34eb53881682710349fbce503317e7cba1eb6dcdeeb2c86b8dd00f0fe510ba539296611dff565b9490611857565b604051636f85e6ff60e11b81526001600160a01b038716600482015260248101929092526044820152606490fd5b602084015160405163e8eebd3760e01b81526001600160a01b039182166004820152888216602482015291166044820152606490fd5b905061196591925060403d6040116105de576105cc8183611e29565b919038611793565b6040516354f076c560e11b81526001600160a01b038516600482015260248101849052604490fd5b90506020813d6020116119bf575b816119b060209383611e29565b8101031261113d575138611749565b3d91506119a3565b60405163dfc24d3d60e01b81526001600160a01b0386166004820152602490fd5b60405163dfc24d3d60e01b81526001600160a01b0385166004820152602490fd5b634e487b7160e01b87526041600452602487fd5b506001600160a01b0384161561166b565b604051633b0e6a4960e11b815260206004820152601b60248201527f496e70757420616d6f756e742063616e6e6f74206265207a65726f00000000006044820152606490fd5b50346101635780600319360112610163576020600154604051908152f35b50346101635780600319360112610163576040517f00000000000000000000000000000000000000000000000000000000000000006001600160a01b03168152602090f35b50346101635780600319360112610163576040517f00000000000000000000000000000000000000000000000000000000000000006001600160a01b03168152602090f35b905034610a5d576020366003190112610a5d5760043563ffffffff60e01b81168091036114f05760209250637965db0b60e01b8114908115611b60575b5015158152f35b6301ffc9a760e01b14905038611b59565b602435906001600160a01b038216820361053557565b600435906001600160a01b038216820361053557565b6080906003190112610535576001600160a01b039060043582811681036105355791602435908116810361053557906044359060643590565b3360009081527f442b21db4ee30744d8435a797a25e6c1c72e1e7b189fd6a63533411360d93da660205260409020547f3a4b3a1f03347d0616bb4d34491485029b5c8f56cd6dc1f9e9b1524cad0936f79060ff1615611c325750565b6044906040519063e2517d3f60e01b82523360048301526024820152fd5b3360009081527fad3228b676f7d3cd4284a5443f17f1962b36e491b30a40b2405849e597ba5fb5602052604081205460ff1615611c325750565b3360009081527fee6598bb9d8813ec5dcf0988fbc9935f3bd23c22de3e37b2654f2216372e6c0860205260409020547f7fee0d6ae731e4c26a7bffbf1bb702cb3aaa110506f5b2a78cc9372669d439ae9060ff1615611c325750565b80600052600060205260406000203360005260205260ff6040600020541615611c325750565b9060009180835282602052604083209160018060a01b03169182845260205260ff60408420541615600014611d8557808352826020526040832082845260205260408320600160ff198254161790557f2f8788117e7eff1d82e926ec794901d17c78024a50270940304540a733656f0d339380a4600190565b505090565b9060009180835282602052604083209160018060a01b03169182845260205260ff604084205416600014611d855780835282602052604083208284526020526040832060ff1981541690557ff6391f5c32d9c69d2a47ea670b442974b53935d1edc7fd64eb21e047a839171b339380a4600190565b67ffffffffffffffff8111611e1357604052565b634e487b7160e01b600052604160045260246000fd5b90601f8019910116810190811067ffffffffffffffff821117611e1357604052565b51906001600160a01b038216820361053557565b9190826040910312610535576020611e7683611e4b565b92015190565b90816020910312610535575180151581036105355790565b91908203918211611ea157565b634e487b7160e01b600052601160045260246000fd5b6040516323b872dd60e01b60208201526001600160a01b03928316602482015292909116604483015260648083019390935291815260a081019181831067ffffffffffffffff841117611e1357611f1092604052611f12565b565b906000602091828151910182855af115611f6e576000513d611f6557506001600160a01b0381163b155b611f435750565b604051635274afe760e01b81526001600160a01b039091166004820152602490fd5b60011415611f3c565b6040513d6000823e3d90fd5b60405163a9059cbb60e01b60208201526001600160a01b03929092166024830152604480830193909352918152611f1091611fb6606483611e29565b611f12565b60405163095ea7b360e01b602082018181526001600160a01b038516602484015260448084019690965294825294939092611ff7606485611e29565b60206000809386519082875af182513d82612089575b50501561201d575b505050509050565b60405160208101969096526001600160a01b0316602486015260448086018290528552608085019067ffffffffffffffff821186831017612075575061206b9394611fb69160405282611f12565b8038808080612015565b634e487b7160e01b81526041600452602490fd5b9091506120a657506001600160a01b0383163b15155b388061200d565b60011461209f56fea2646970667358221220c5d1aebfe34f09ad19ab7f478299ad4285080eed070afb0ab43043bc19271c9264736f6c634300081400332f8788117e7eff1d82e926ec794901d17c78024a50270940304540a733656f0d"
}