{
  "address": "0xDb0Fe633C6716f7B5DC4146d761144D380C28089",
  "abi": [
    {
      "inputs": [],
      "stateMutability": "nonpayable",
      "type": "constructor"
    },
    {
      "inputs": [],
      "name": "AccessControlBadConfirmation",
      "type": "error"
    },
    {
      "inputs": [
        {
          "internalType": "address",
          "name": "account",
          "type": "address"
        },
        {
          "internalType": "bytes32",
          "name": "neededRole",
          "type": "bytes32"
        }
      ],
      "name": "AccessControlUnauthorizedAccount",
      "type": "error"
    },
    {
      "inputs": [
        {
          "internalType": "address",
          "name": "spender",
          "type": "address"
        },
        {
          "internalType": "uint256",
          "name": "allowance",
          "type": "uint256"
        },
        {
          "internalType": "uint256",
          "name": "needed",
          "type": "uint256"
        }
      ],
      "name": "ERC20InsufficientAllowance",
      "type": "error"
    },
    {
      "inputs": [
        {
          "internalType": "address",
          "name": "sender",
          "type": "address"
        },
        {
          "internalType": "uint256",
          "name": "balance",
          "type": "uint256"
        },
        {
          "internalType": "uint256",
          "name": "needed",
          "type": "uint256"
        }
      ],
      "name": "ERC20InsufficientBalance",
      "type": "error"
    },
    {
      "inputs": [
        {
          "internalType": "address",
          "name": "approver",
          "type": "address"
        }
      ],
      "name": "ERC20InvalidApprover",
      "type": "error"
    },
    {
      "inputs": [
        {
          "internalType": "address",
          "name": "receiver",
          "type": "address"
        }
      ],
      "name": "ERC20InvalidReceiver",
      "type": "error"
    },
    {
      "inputs": [
        {
          "internalType": "address",
          "name": "sender",
          "type": "address"
        }
      ],
      "name": "ERC20InvalidSender",
      "type": "error"
    },
    {
      "inputs": [
        {
          "internalType": "address",
          "name": "spender",
          "type": "address"
        }
      ],
      "name": "ERC20InvalidSpender",
      "type": "error"
    },
    {
      "inputs": [
        {
          "internalType": "address",
          "name": "receiver",
          "type": "address"
        },
        {
          "internalType": "uint256",
          "name": "assets",
          "type": "uint256"
        },
        {
          "internalType": "uint256",
          "name": "max",
          "type": "uint256"
        }
      ],
      "name": "ERC4626ExceededMaxDeposit",
      "type": "error"
    },
    {
      "inputs": [
        {
          "internalType": "address",
          "name": "receiver",
          "type": "address"
        },
        {
          "internalType": "uint256",
          "name": "shares",
          "type": "uint256"
        },
        {
          "internalType": "uint256",
          "name": "max",
          "type": "uint256"
        }
      ],
      "name": "ERC4626ExceededMaxMint",
      "type": "error"
    },
    {
      "inputs": [
        {
          "internalType": "address",
          "name": "owner",
          "type": "address"
        },
        {
          "internalType": "uint256",
          "name": "shares",
          "type": "uint256"
        },
        {
          "internalType": "uint256",
          "name": "max",
          "type": "uint256"
        }
      ],
      "name": "ERC4626ExceededMaxRedeem",
      "type": "error"
    },
    {
      "inputs": [
        {
          "internalType": "address",
          "name": "owner",
          "type": "address"
        },
        {
          "internalType": "uint256",
          "name": "assets",
          "type": "uint256"
        },
        {
          "internalType": "uint256",
          "name": "max",
          "type": "uint256"
        }
      ],
      "name": "ERC4626ExceededMaxWithdraw",
      "type": "error"
    },
    {
      "inputs": [
        {
          "internalType": "uint256",
          "name": "shares",
          "type": "uint256"
        },
        {
          "internalType": "uint256",
          "name": "maxShares",
          "type": "uint256"
        }
      ],
      "name": "ERC4626ExceedsMaxRedeem",
      "type": "error"
    },
    {
      "inputs": [
        {
          "internalType": "uint256",
          "name": "assets",
          "type": "uint256"
        },
        {
          "internalType": "uint256",
          "name": "maxAssets",
          "type": "uint256"
        }
      ],
      "name": "ERC4626ExceedsMaxWithdraw",
      "type": "error"
    },
    {
      "inputs": [
        {
          "internalType": "uint256",
          "name": "feeBps",
          "type": "uint256"
        },
        {
          "internalType": "uint256",
          "name": "maxFeeBps",
          "type": "uint256"
        }
      ],
      "name": "InitialFeeExceedsMaxFee",
      "type": "error"
    },
    {
      "inputs": [
        {
          "internalType": "uint256",
          "name": "feeBps",
          "type": "uint256"
        },
        {
          "internalType": "uint256",
          "name": "maxFeeBps",
          "type": "uint256"
        }
      ],
      "name": "InvalidFeeBps",
      "type": "error"
    },
    {
      "inputs": [],
      "name": "InvalidInitialization",
      "type": "error"
    },
    {
      "inputs": [],
      "name": "NotInitializing",
      "type": "error"
    },
    {
      "inputs": [
        {
          "internalType": "address",
          "name": "token",
          "type": "address"
        }
      ],
      "name": "SafeERC20FailedOperation",
      "type": "error"
    },
    {
      "inputs": [],
      "name": "ZeroAddress",
      "type": "error"
    },
    {
      "inputs": [],
      "name": "ZeroShares",
      "type": "error"
    },
    {
      "anonymous": false,
      "inputs": [
        {
          "indexed": true,
          "internalType": "address",
          "name": "owner",
          "type": "address"
        },
        {
          "indexed": true,
          "internalType": "address",
          "name": "spender",
          "type": "address"
        },
        {
          "indexed": false,
          "internalType": "uint256",
          "name": "value",
          "type": "uint256"
        }
      ],
      "name": "Approval",
      "type": "event"
    },
    {
      "anonymous": false,
      "inputs": [
        {
          "indexed": true,
          "internalType": "address",
          "name": "collateralVault",
          "type": "address"
        }
      ],
      "name": "CollateralVaultSet",
      "type": "event"
    },
    {
      "anonymous": false,
      "inputs": [
        {
          "indexed": true,
          "internalType": "address",
          "name": "sender",
          "type": "address"
        },
        {
          "indexed": true,
          "internalType": "address",
          "name": "owner",
          "type": "address"
        },
        {
          "indexed": false,
          "internalType": "uint256",
          "name": "assets",
          "type": "uint256"
        },
        {
          "indexed": false,
          "internalType": "uint256",
          "name": "shares",
          "type": "uint256"
        }
      ],
      "name": "Deposit",
      "type": "event"
    },
    {
      "anonymous": false,
      "inputs": [
        {
          "indexed": false,
          "internalType": "uint64",
          "name": "version",
          "type": "uint64"
        }
      ],
      "name": "Initialized",
      "type": "event"
    },
    {
      "anonymous": false,
      "inputs": [
        {
          "indexed": true,
          "internalType": "bytes32",
          "name": "role",
          "type": "bytes32"
        },
        {
          "indexed": true,
          "internalType": "bytes32",
          "name": "previousAdminRole",
          "type": "bytes32"
        },
        {
          "indexed": true,
          "internalType": "bytes32",
          "name": "newAdminRole",
          "type": "bytes32"
        }
      ],
      "name": "RoleAdminChanged",
      "type": "event"
    },
    {
      "anonymous": false,
      "inputs": [
        {
          "indexed": true,
          "internalType": "bytes32",
          "name": "role",
          "type": "bytes32"
        },
        {
          "indexed": true,
          "internalType": "address",
          "name": "account",
          "type": "address"
        },
        {
          "indexed": true,
          "internalType": "address",
          "name": "sender",
          "type": "address"
        }
      ],
      "name": "RoleGranted",
      "type": "event"
    },
    {
      "anonymous": false,
      "inputs": [
        {
          "indexed": true,
          "internalType": "bytes32",
          "name": "role",
          "type": "bytes32"
        },
        {
          "indexed": true,
          "internalType": "address",
          "name": "account",
          "type": "address"
        },
        {
          "indexed": true,
          "internalType": "address",
          "name": "sender",
          "type": "address"
        }
      ],
      "name": "RoleRevoked",
      "type": "event"
    },
    {
      "anonymous": false,
      "inputs": [
        {
          "indexed": true,
          "internalType": "address",
          "name": "router",
          "type": "address"
        }
      ],
      "name": "RouterSet",
      "type": "event"
    },
    {
      "anonymous": false,
      "inputs": [
        {
          "indexed": true,
          "internalType": "address",
          "name": "from",
          "type": "address"
        },
        {
          "indexed": true,
          "internalType": "address",
          "name": "to",
          "type": "address"
        },
        {
          "indexed": false,
          "internalType": "uint256",
          "name": "value",
          "type": "uint256"
        }
      ],
      "name": "Transfer",
      "type": "event"
    },
    {
      "anonymous": false,
      "inputs": [
        {
          "indexed": true,
          "internalType": "address",
          "name": "sender",
          "type": "address"
        },
        {
          "indexed": true,
          "internalType": "address",
          "name": "receiver",
          "type": "address"
        },
        {
          "indexed": true,
          "internalType": "address",
          "name": "owner",
          "type": "address"
        },
        {
          "indexed": false,
          "internalType": "uint256",
          "name": "assets",
          "type": "uint256"
        },
        {
          "indexed": false,
          "internalType": "uint256",
          "name": "shares",
          "type": "uint256"
        }
      ],
      "name": "Withdraw",
      "type": "event"
    },
    {
      "anonymous": false,
      "inputs": [
        {
          "indexed": true,
          "internalType": "address",
          "name": "owner",
          "type": "address"
        },
        {
          "indexed": true,
          "internalType": "address",
          "name": "receiver",
          "type": "address"
        },
        {
          "indexed": false,
          "internalType": "uint256",
          "name": "feeAmount",
          "type": "uint256"
        }
      ],
      "name": "WithdrawalFee",
      "type": "event"
    },
    {
      "anonymous": false,
      "inputs": [
        {
          "indexed": false,
          "internalType": "uint256",
          "name": "newFeeBps",
          "type": "uint256"
        }
      ],
      "name": "WithdrawalFeeSet",
      "type": "event"
    },
    {
      "inputs": [],
      "name": "DEFAULT_ADMIN_ROLE",
      "outputs": [
        {
          "internalType": "bytes32",
          "name": "",
          "type": "bytes32"
        }
      ],
      "stateMutability": "view",
      "type": "function"
    },
    {
      "inputs": [],
      "name": "FEE_MANAGER_ROLE",
      "outputs": [
        {
          "internalType": "bytes32",
          "name": "",
          "type": "bytes32"
        }
      ],
      "stateMutability": "view",
      "type": "function"
    },
    {
      "inputs": [],
      "name": "MAX_WITHDRAWAL_FEE_BPS",
      "outputs": [
        {
          "internalType": "uint256",
          "name": "",
          "type": "uint256"
        }
      ],
      "stateMutability": "view",
      "type": "function"
    },
    {
      "inputs": [
        {
          "internalType": "address",
          "name": "owner",
          "type": "address"
        },
        {
          "internalType": "address",
          "name": "spender",
          "type": "address"
        }
      ],
      "name": "allowance",
      "outputs": [
        {
          "internalType": "uint256",
          "name": "",
          "type": "uint256"
        }
      ],
      "stateMutability": "view",
      "type": "function"
    },
    {
      "inputs": [
        {
          "internalType": "address",
          "name": "spender",
          "type": "address"
        },
        {
          "internalType": "uint256",
          "name": "value",
          "type": "uint256"
        }
      ],
      "name": "approve",
      "outputs": [
        {
          "internalType": "bool",
          "name": "",
          "type": "bool"
        }
      ],
      "stateMutability": "nonpayable",
      "type": "function"
    },
    {
      "inputs": [],
      "name": "asset",
      "outputs": [
        {
          "internalType": "address",
          "name": "",
          "type": "address"
        }
      ],
      "stateMutability": "view",
      "type": "function"
    },
    {
      "inputs": [
        {
          "internalType": "address",
          "name": "account",
          "type": "address"
        }
      ],
      "name": "balanceOf",
      "outputs": [
        {
          "internalType": "uint256",
          "name": "",
          "type": "uint256"
        }
      ],
      "stateMutability": "view",
      "type": "function"
    },
    {
      "inputs": [],
      "name": "collateralVault",
      "outputs": [
        {
          "internalType": "contract IDStakeCollateralVault",
          "name": "",
          "type": "address"
        }
      ],
      "stateMutability": "view",
      "type": "function"
    },
    {
      "inputs": [
        {
          "internalType": "uint256",
          "name": "shares",
          "type": "uint256"
        }
      ],
      "name": "convertToAssets",
      "outputs": [
        {
          "internalType": "uint256",
          "name": "",
          "type": "uint256"
        }
      ],
      "stateMutability": "view",
      "type": "function"
    },
    {
      "inputs": [
        {
          "internalType": "uint256",
          "name": "assets",
          "type": "uint256"
        }
      ],
      "name": "convertToShares",
      "outputs": [
        {
          "internalType": "uint256",
          "name": "",
          "type": "uint256"
        }
      ],
      "stateMutability": "view",
      "type": "function"
    },
    {
      "inputs": [],
      "name": "decimals",
      "outputs": [
        {
          "internalType": "uint8",
          "name": "",
          "type": "uint8"
        }
      ],
      "stateMutability": "view",
      "type": "function"
    },
    {
      "inputs": [
        {
          "internalType": "uint256",
          "name": "assets",
          "type": "uint256"
        },
        {
          "internalType": "address",
          "name": "receiver",
          "type": "address"
        }
      ],
      "name": "deposit",
      "outputs": [
        {
          "internalType": "uint256",
          "name": "",
          "type": "uint256"
        }
      ],
      "stateMutability": "nonpayable",
      "type": "function"
    },
    {
      "inputs": [
        {
          "internalType": "bytes32",
          "name": "role",
          "type": "bytes32"
        }
      ],
      "name": "getRoleAdmin",
      "outputs": [
        {
          "internalType": "bytes32",
          "name": "",
          "type": "bytes32"
        }
      ],
      "stateMutability": "view",
      "type": "function"
    },
    {
      "inputs": [],
      "name": "getWithdrawalFeeBps",
      "outputs": [
        {
          "internalType": "uint256",
          "name": "",
          "type": "uint256"
        }
      ],
      "stateMutability": "view",
      "type": "function"
    },
    {
      "inputs": [
        {
          "internalType": "bytes32",
          "name": "role",
          "type": "bytes32"
        },
        {
          "internalType": "address",
          "name": "account",
          "type": "address"
        }
      ],
      "name": "grantRole",
      "outputs": [],
      "stateMutability": "nonpayable",
      "type": "function"
    },
    {
      "inputs": [
        {
          "internalType": "bytes32",
          "name": "role",
          "type": "bytes32"
        },
        {
          "internalType": "address",
          "name": "account",
          "type": "address"
        }
      ],
      "name": "hasRole",
      "outputs": [
        {
          "internalType": "bool",
          "name": "",
          "type": "bool"
        }
      ],
      "stateMutability": "view",
      "type": "function"
    },
    {
      "inputs": [
        {
          "internalType": "contract IERC20",
          "name": "_dStable",
          "type": "address"
        },
        {
          "internalType": "string",
          "name": "_name",
          "type": "string"
        },
        {
          "internalType": "string",
          "name": "_symbol",
          "type": "string"
        },
        {
          "internalType": "address",
          "name": "_initialAdmin",
          "type": "address"
        },
        {
          "internalType": "address",
          "name": "_initialFeeManager",
          "type": "address"
        }
      ],
      "name": "initialize",
      "outputs": [],
      "stateMutability": "nonpayable",
      "type": "function"
    },
    {
      "inputs": [
        {
          "internalType": "address",
          "name": "",
          "type": "address"
        }
      ],
      "name": "maxDeposit",
      "outputs": [
        {
          "internalType": "uint256",
          "name": "",
          "type": "uint256"
        }
      ],
      "stateMutability": "view",
      "type": "function"
    },
    {
      "inputs": [
        {
          "internalType": "address",
          "name": "",
          "type": "address"
        }
      ],
      "name": "maxMint",
      "outputs": [
        {
          "internalType": "uint256",
          "name": "",
          "type": "uint256"
        }
      ],
      "stateMutability": "view",
      "type": "function"
    },
    {
      "inputs": [
        {
          "internalType": "address",
          "name": "owner",
          "type": "address"
        }
      ],
      "name": "maxRedeem",
      "outputs": [
        {
          "internalType": "uint256",
          "name": "",
          "type": "uint256"
        }
      ],
      "stateMutability": "view",
      "type": "function"
    },
    {
      "inputs": [
        {
          "internalType": "address",
          "name": "owner",
          "type": "address"
        }
      ],
      "name": "maxWithdraw",
      "outputs": [
        {
          "internalType": "uint256",
          "name": "",
          "type": "uint256"
        }
      ],
      "stateMutability": "view",
      "type": "function"
    },
    {
      "inputs": [],
      "name": "maxWithdrawalFeeBps",
      "outputs": [
        {
          "internalType": "uint256",
          "name": "",
          "type": "uint256"
        }
      ],
      "stateMutability": "view",
      "type": "function"
    },
    {
      "inputs": [
        {
          "internalType": "uint256",
          "name": "shares",
          "type": "uint256"
        },
        {
          "internalType": "address",
          "name": "receiver",
          "type": "address"
        }
      ],
      "name": "mint",
      "outputs": [
        {
          "internalType": "uint256",
          "name": "",
          "type": "uint256"
        }
      ],
      "stateMutability": "nonpayable",
      "type": "function"
    },
    {
      "inputs": [],
      "name": "name",
      "outputs": [
        {
          "internalType": "string",
          "name": "",
          "type": "string"
        }
      ],
      "stateMutability": "view",
      "type": "function"
    },
    {
      "inputs": [
        {
          "internalType": "uint256",
          "name": "assets",
          "type": "uint256"
        }
      ],
      "name": "previewDeposit",
      "outputs": [
        {
          "internalType": "uint256",
          "name": "",
          "type": "uint256"
        }
      ],
      "stateMutability": "view",
      "type": "function"
    },
    {
      "inputs": [
        {
          "internalType": "uint256",
          "name": "shares",
          "type": "uint256"
        }
      ],
      "name": "previewMint",
      "outputs": [
        {
          "internalType": "uint256",
          "name": "",
          "type": "uint256"
        }
      ],
      "stateMutability": "view",
      "type": "function"
    },
    {
      "inputs": [
        {
          "internalType": "uint256",
          "name": "shares",
          "type": "uint256"
        }
      ],
      "name": "previewRedeem",
      "outputs": [
        {
          "internalType": "uint256",
          "name": "",
          "type": "uint256"
        }
      ],
      "stateMutability": "view",
      "type": "function"
    },
    {
      "inputs": [
        {
          "internalType": "uint256",
          "name": "assets",
          "type": "uint256"
        }
      ],
      "name": "previewWithdraw",
      "outputs": [
        {
          "internalType": "uint256",
          "name": "",
          "type": "uint256"
        }
      ],
      "stateMutability": "view",
      "type": "function"
    },
    {
      "inputs": [
        {
          "internalType": "uint256",
          "name": "shares",
          "type": "uint256"
        },
        {
          "internalType": "address",
          "name": "receiver",
          "type": "address"
        },
        {
          "internalType": "address",
          "name": "owner",
          "type": "address"
        }
      ],
      "name": "redeem",
      "outputs": [
        {
          "internalType": "uint256",
          "name": "assets",
          "type": "uint256"
        }
      ],
      "stateMutability": "nonpayable",
      "type": "function"
    },
    {
      "inputs": [
        {
          "internalType": "bytes32",
          "name": "role",
          "type": "bytes32"
        },
        {
          "internalType": "address",
          "name": "callerConfirmation",
          "type": "address"
        }
      ],
      "name": "renounceRole",
      "outputs": [],
      "stateMutability": "nonpayable",
      "type": "function"
    },
    {
      "inputs": [
        {
          "internalType": "bytes32",
          "name": "role",
          "type": "bytes32"
        },
        {
          "internalType": "address",
          "name": "account",
          "type": "address"
        }
      ],
      "name": "revokeRole",
      "outputs": [],
      "stateMutability": "nonpayable",
      "type": "function"
    },
    {
      "inputs": [],
      "name": "router",
      "outputs": [
        {
          "internalType": "contract IDStakeRouter",
          "name": "",
          "type": "address"
        }
      ],
      "stateMutability": "view",
      "type": "function"
    },
    {
      "inputs": [
        {
          "internalType": "address",
          "name": "_collateralVault",
          "type": "address"
        }
      ],
      "name": "setCollateralVault",
      "outputs": [],
      "stateMutability": "nonpayable",
      "type": "function"
    },
    {
      "inputs": [
        {
          "internalType": "address",
          "name": "_router",
          "type": "address"
        }
      ],
      "name": "setRouter",
      "outputs": [],
      "stateMutability": "nonpayable",
      "type": "function"
    },
    {
      "inputs": [
        {
          "internalType": "uint256",
          "name": "_feeBps",
          "type": "uint256"
        }
      ],
      "name": "setWithdrawalFee",
      "outputs": [],
      "stateMutability": "nonpayable",
      "type": "function"
    },
    {
      "inputs": [
        {
          "internalType": "bytes4",
          "name": "interfaceId",
          "type": "bytes4"
        }
      ],
      "name": "supportsInterface",
      "outputs": [
        {
          "internalType": "bool",
          "name": "",
          "type": "bool"
        }
      ],
      "stateMutability": "view",
      "type": "function"
    },
    {
      "inputs": [],
      "name": "symbol",
      "outputs": [
        {
          "internalType": "string",
          "name": "",
          "type": "string"
        }
      ],
      "stateMutability": "view",
      "type": "function"
    },
    {
      "inputs": [],
      "name": "totalAssets",
      "outputs": [
        {
          "internalType": "uint256",
          "name": "",
          "type": "uint256"
        }
      ],
      "stateMutability": "view",
      "type": "function"
    },
    {
      "inputs": [],
      "name": "totalSupply",
      "outputs": [
        {
          "internalType": "uint256",
          "name": "",
          "type": "uint256"
        }
      ],
      "stateMutability": "view",
      "type": "function"
    },
    {
      "inputs": [
        {
          "internalType": "address",
          "name": "to",
          "type": "address"
        },
        {
          "internalType": "uint256",
          "name": "value",
          "type": "uint256"
        }
      ],
      "name": "transfer",
      "outputs": [
        {
          "internalType": "bool",
          "name": "",
          "type": "bool"
        }
      ],
      "stateMutability": "nonpayable",
      "type": "function"
    },
    {
      "inputs": [
        {
          "internalType": "address",
          "name": "from",
          "type": "address"
        },
        {
          "internalType": "address",
          "name": "to",
          "type": "address"
        },
        {
          "internalType": "uint256",
          "name": "value",
          "type": "uint256"
        }
      ],
      "name": "transferFrom",
      "outputs": [
        {
          "internalType": "bool",
          "name": "",
          "type": "bool"
        }
      ],
      "stateMutability": "nonpayable",
      "type": "function"
    },
    {
      "inputs": [
        {
          "internalType": "uint256",
          "name": "assets",
          "type": "uint256"
        },
        {
          "internalType": "address",
          "name": "receiver",
          "type": "address"
        },
        {
          "internalType": "address",
          "name": "owner",
          "type": "address"
        }
      ],
      "name": "withdraw",
      "outputs": [
        {
          "internalType": "uint256",
          "name": "shares",
          "type": "uint256"
        }
      ],
      "stateMutability": "nonpayable",
      "type": "function"
    },
    {
      "inputs": [],
      "name": "withdrawalFeeBps",
      "outputs": [
        {
          "internalType": "uint256",
          "name": "",
          "type": "uint256"
        }
      ],
      "stateMutability": "view",
      "type": "function"
    }
  ],
  "transactionHash": "0xaa4631d3fd6de0bf563acc36cde390197075a2f04c4f51b714b3053727163c0b",
  "args": [],
  "numDeployments": 1,
  "solcInputHash": "3119f14c142cd6db245e027e6458c4b3",
  "bytecode": "0x608060405234801561001057600080fd5b5061001961001e565b6100d0565b7ff0c57e16840df040f15088dc2f81fe391c3923bec73e23a9662efc9c229c6a00805468010000000000000000900460ff161561006e5760405163f92ee8a960e01b815260040160405180910390fd5b80546001600160401b03908116146100cd5780546001600160401b0319166001600160401b0390811782556040519081527fc7f505b2f371ae2175ee4913f4499e1f2633a7b5936321eed1cdaeb6115181d29060200160405180910390a15b50565b61238b80620000e06000396000f3fe608060405234801561001057600080fd5b50600436106102695760003560e01c80636e553f6511610151578063b6783edd116100c3578063ce96cb7711610087578063ce96cb771461052a578063d547741f1461053d578063d905777e14610550578063dd62ed3e14610563578063ef8b30f714610517578063f887ea401461057657600080fd5b8063b6783edd146104e9578063ba087652146104f1578063c0d7865514610504578063c63d75b6146103f3578063c6e6f5921461051757600080fd5b806395d89b411161011557806395d89b411461048d578063a217fddf14610495578063a9059cbb1461049d578063ac1e5025146104b0578063b3d7f6b9146104c3578063b460af94146104d657600080fd5b80636e553f651461044157806370a082311461045457806387451437146102ac57806391d148541461046757806394bf804d1461047a57600080fd5b80631bbf1224116101ea57806336568abe116101ae57806336568abe146103d857806338d52e0f146103eb578063402d267d146103f35780634cdad5061461040857806368a806c41461041b5780636cf1dbed1461042e57600080fd5b80631bbf12241461037b57806323b872dd14610383578063248a9ca3146103965780632f2ff15d146103a9578063313ce567146103be57600080fd5b806307a2d13a1161023157806307a2d13a146102f0578063095ea7b3146103035780630a28a477146103165780630bece79c1461032957806318160ddd1461035457600080fd5b806301e1d1141461026e57806301ffc9a71461028957806304336bb3146102ac57806305db2f41146102b457806306fdde03146102db575b600080fd5b610276610589565b6040519081526020015b60405180910390f35b61029c610297366004611c70565b61061e565b6040519015158152602001610280565b600054610276565b6102767f6c0757dc3e6b28b2580c03fd9e96c274acf4f99d91fbec9b418fa1d70604ff1c81565b6102e3610655565b6040516102809190611cbe565b6102766102fe366004611cf1565b610718565b61029c610311366004611d1f565b610725565b610276610324366004611cf1565b61073d565b60015461033c906001600160a01b031681565b6040516001600160a01b039091168152602001610280565b7f52c63247e1f47db19d5ce0460030c497f067ca4cebf71ba98eeadabe20bace0254610276565b61027661075b565b61029c610391366004611d4b565b610771565b6102766103a4366004611cf1565b610795565b6103bc6103b7366004611d8c565b6107b7565b005b6103c66107d9565b60405160ff9091168152602001610280565b6103bc6103e6366004611d8c565b61081d565b61033c610855565b610276610401366004611dbc565b5060001990565b610276610416366004611cf1565b610883565b6103bc610429366004611dbc565b61089a565b6103bc61043c366004611e7c565b610917565b61027661044f366004611d8c565b610ab7565b610276610462366004611dbc565b610aeb565b61029c610475366004611d8c565b610b13565b610276610488366004611d8c565b610b4b565b6102e3610b69565b610276600081565b61029c6104ab366004611d1f565b610ba8565b6103bc6104be366004611cf1565b610bb6565b6102766104d1366004611cf1565b610bed565b6102766104e4366004611f1a565b610bfa565b610276610c65565b6102766104ff366004611f1a565b610c77565b6103bc610512366004611dbc565b610cbe565b610276610525366004611cf1565b610d3b565b610276610538366004611dbc565b610d48565b6103bc61054b366004611d8c565b610d57565b61027661055e366004611dbc565b610d73565b610276610571366004611f5c565b610d7e565b60025461033c906001600160a01b031681565b6001546000906001600160a01b03166105a25750600090565b600160009054906101000a90046001600160a01b03166001600160a01b031663e015e7066040518163ffffffff1660e01b8152600401602060405180830381865afa1580156105f5573d6000803e3d6000fd5b505050506040513d601f19601f820116820180604052508101906106199190611f8a565b905090565b60006001600160e01b03198216637965db0b60e01b148061064f57506301ffc9a760e01b6001600160e01b03198316145b92915050565b7f52c63247e1f47db19d5ce0460030c497f067ca4cebf71ba98eeadabe20bace0380546060916000805160206123168339815191529161069490611fa3565b80601f01602080910402602001604051908101604052809291908181526020018280546106c090611fa3565b801561070d5780601f106106e25761010080835404028352916020019161070d565b820191906000526020600020905b8154815290600101906020018083116106f057829003601f168201915b505050505091505090565b600061064f826000610dc8565b600033610733818585610e21565b5060019392505050565b60008061074983610e2e565b905061075481610e95565b9392505050565b6000610768606480611ff3565b61ffff16919050565b60003361077f858285610ea2565b61078a858585610f03565b506001949350505050565b6000908152600080516020612336833981519152602052604090206001015490565b6107c082610795565b6107c981610f62565b6107d38383610f6f565b50505050565b6000807f0773e532dfede91f04b12a73d3d2acd361424f41f76b4fb79f090161e36b4e009050600081546108179190600160a01b900460ff16612019565b91505090565b6001600160a01b03811633146108465760405163334bd91960e11b815260040160405180910390fd5b6108508282611014565b505050565b7f0773e532dfede91f04b12a73d3d2acd361424f41f76b4fb79f090161e36b4e00546001600160a01b031690565b60008061088f83610718565b905061075481611090565b60006108a581610f62565b6001600160a01b0382166108cc5760405163d92e233d60e01b815260040160405180910390fd5b600180546001600160a01b0319166001600160a01b0384169081179091556040517fc92ec24b34ad9d3aa14cd5be87b888d7790d40903da5f44c6367b2fb6cdb208390600090a25050565b60006109216110a8565b805490915060ff600160401b820416159067ffffffffffffffff166000811580156109495750825b905060008267ffffffffffffffff1660011480156109665750303b155b905081158015610974575080155b156109925760405163f92ee8a960e01b815260040160405180910390fd5b845467ffffffffffffffff1916600117855583156109bc57845460ff60401b1916600160401b1785555b6109c689896110d1565b6109cf8a6110e3565b6109d76110f4565b6109e160006110fe565b6001600160a01b038a1615806109fe57506001600160a01b038716155b80610a1057506001600160a01b038616155b15610a2e5760405163d92e233d60e01b815260040160405180910390fd5b610a39600088610f6f565b50610a647f6c0757dc3e6b28b2580c03fd9e96c274acf4f99d91fbec9b418fa1d70604ff1c87610f6f565b508315610aab57845460ff60401b19168555604051600181527fc7f505b2f371ae2175ee4913f4499e1f2633a7b5936321eed1cdaeb6115181d29060200160405180910390a15b50505050505050505050565b6000600019610aca565b60405180910390fd5b6000610ad585610d3b565b9050610ae333858784611171565b949350505050565b6001600160a01b03166000908152600080516020612316833981519152602052604090205490565b6000918252600080516020612336833981519152602090815260408084206001600160a01b0393909316845291905290205460ff1690565b60006000196000610b5b85610bed565b9050610ae333858388611171565b7f52c63247e1f47db19d5ce0460030c497f067ca4cebf71ba98eeadabe20bace0480546060916000805160206123168339815191529161069490611fa3565b600033610733818585610f03565b7f6c0757dc3e6b28b2580c03fd9e96c274acf4f99d91fbec9b418fa1d70604ff1c610be081610f62565b610be9826112c0565b5050565b600061064f826001610dc8565b6000610c058461073d565b9050610c1082610d73565b811115610c435780610c2183610d73565b60405163024a2e0560e61b815260048101929092526024820152604401610ac1565b6000610c4e82610718565b9050610c5d33858584866112f7565b509392505050565b610c70606480611ff3565b61ffff1681565b600080610c8385610718565b9050610c8e83610d73565b851115610c9f5784610c2184610d73565b610cac33858584896112f7565b610cb581611090565b95945050505050565b6000610cc981610f62565b6001600160a01b038216610cf05760405163d92e233d60e01b815260040160405180910390fd5b600280546001600160a01b0319166001600160a01b0384169081179091556040517fc6b438e6a8a59579ce6a4406cbd203b740e0d47b458aae6596339bcd40c40d1590600090a25050565b600061064f8260006114aa565b60008061088f6102fe84610aeb565b610d6082610795565b610d6981610f62565b6107d38383611014565b600061064f82610aeb565b6001600160a01b0391821660009081527f52c63247e1f47db19d5ce0460030c497f067ca4cebf71ba98eeadabe20bace016020908152604080832093909416825291909152205490565b6000610754610dd5610589565b610de0906001612032565b610dec6000600a612129565b7f52c63247e1f47db19d5ce0460030c497f067ca4cebf71ba98eeadabe20bace0254610e189190612032565b859190856114f9565b610850838383600161153d565b60008054600003610e3d575090565b61064f82610e4c606480611ff3565b610e5b9061ffff166064612138565b63ffffffff16600054606480610e719190611ff3565b610e809061ffff166064612138565b63ffffffff16610e909190612158565b611625565b600061064f8260016114aa565b6000610eae8484610d7e565b90506000198110156107d35781811015610ef457604051637dc7a0d960e11b81526001600160a01b03841660048201526024810182905260448101839052606401610ac1565b6107d38484848403600061153d565b6001600160a01b038316610f2d57604051634b637e8f60e11b815260006004820152602401610ac1565b6001600160a01b038216610f575760405163ec442f0560e01b815260006004820152602401610ac1565b6108508383836116da565b610f6c8133611818565b50565b6000600080516020612336833981519152610f8a8484610b13565b61100a576000848152602082815260408083206001600160a01b03871684529091529020805460ff19166001179055610fc03390565b6001600160a01b0316836001600160a01b0316857f2f8788117e7eff1d82e926ec794901d17c78024a50270940304540a733656f0d60405160405180910390a4600191505061064f565b600091505061064f565b600060008051602061233683398151915261102f8484610b13565b1561100a576000848152602082815260408083206001600160a01b0387168085529252808320805460ff1916905551339287917ff6391f5c32d9c69d2a47ea670b442974b53935d1edc7fd64eb21e047a839171b9190a4600191505061064f565b60008061109c83611851565b90506107548184612158565b6000807ff0c57e16840df040f15088dc2f81fe391c3923bec73e23a9662efc9c229c6a0061064f565b6110d9611881565b610be982826118a6565b6110eb611881565b610f6c816118f7565b6110fc611881565b565b600061110861075b565b9050808211156111355760405163227cb17160e01b81526004810183905260248101829052604401610ac1565b60008290556040518281527f48dcfdaa10944928da945a9017941a9e4118df541fb7d429104f5372e9eb994f9060200160405180910390a15050565b8060000361119257604051639811e0c760e01b815260040160405180910390fd5b6002546001600160a01b031615806111b357506001546001600160a01b0316155b156111d15760405163d92e233d60e01b815260040160405180910390fd5b6111dd8484848461197b565b6111e5610855565b60025460405163095ea7b360e01b81526001600160a01b0391821660048201526024810185905291169063095ea7b3906044016020604051808303816000875af1158015611237573d6000803e3d6000fd5b505050506040513d601f19601f8201168201806040525081019061125b919061216b565b5060025460405163b6b55f2560e01b8152600481018490526001600160a01b039091169063b6b55f2590602401600060405180830381600087803b1580156112a257600080fd5b505af11580156112b6573d6000803e3d6000fd5b5050505050505050565b60006112ca61075b565b9050808211156111355760405163080b349760e01b81526004810183905260248101829052604401610ac1565b826001600160a01b0316856001600160a01b03161461131b5761131b838683610ea2565b6002546001600160a01b0316158061133c57506001546001600160a01b0316155b1561135a5760405163d92e233d60e01b815260040160405180910390fd5b600061136583611851565b905060006113738285612158565b905061137f85846119e6565b600254604051632d182be560e21b8152600481018390526001600160a01b03888116602483015287811660448301529091169063b460af9490606401600060405180830381600087803b1580156113d557600080fd5b505af11580156113e9573d6000803e3d6000fd5b50505050846001600160a01b0316866001600160a01b0316886001600160a01b03167ffbde797d201c681b91056529119e0b02407c7bb96a4a2c75c01fc9667232c8db8487604051611445929190918252602082015260400190565b60405180910390a481156114a157856001600160a01b0316856001600160a01b03167f78218b0264705ffc55d5d90ef489f17bfc4791b7314660e867f94f2f0b3a59248460405161149891815260200190565b60405180910390a35b50505050505050565b60006107546114ba82600a612129565b7f52c63247e1f47db19d5ce0460030c497f067ca4cebf71ba98eeadabe20bace02546114e69190612032565b6114ee610589565b610e18906001612032565b600061152861150783611a1c565b801561152357506000848061151e5761151e61218d565b868809115b151590565b611533868686611625565b610cb59190612032565b6000805160206123168339815191526001600160a01b0385166115765760405163e602df0560e01b815260006004820152602401610ac1565b6001600160a01b0384166115a057604051634a1406b160e11b815260006004820152602401610ac1565b6001600160a01b0380861660009081526001830160209081526040808320938816835292905220839055811561161e57836001600160a01b0316856001600160a01b03167f8c5be1e5ebec7d5bd14f71427d1e84f3dd0314c0f7b2291e5b200ac8c7c3b9258560405161161591815260200190565b60405180910390a35b5050505050565b60008060006116348686611a49565b91509150816000036116595783818161164f5761164f61218d565b0492505050610754565b818411611670576116706003851502601118611a67565b6000848688096000868103871696879004966002600389028118808a02820302808a02820302808a02820302808a02820302808a02820302808a02909103029181900381900460010185841190960395909502919093039390930492909217029150509392505050565b6000805160206123168339815191526001600160a01b038416611716578181600201600082825461170b9190612032565b909155506117889050565b6001600160a01b038416600090815260208290526040902054828110156117695760405163391434e360e21b81526001600160a01b03861660048201526024810182905260448101849052606401610ac1565b6001600160a01b03851660009081526020839052604090209083900390555b6001600160a01b0383166117a65760028101805483900390556117c5565b6001600160a01b03831660009081526020829052604090208054830190555b826001600160a01b0316846001600160a01b03167fddf252ad1be2c89b69c2b068fc378daa952ba7f163c4a11628f55a4df523b3ef8460405161180a91815260200190565b60405180910390a350505050565b6118228282610b13565b610be95760405163e2517d3f60e01b81526001600160a01b038216600482015260248101839052604401610ac1565b600061064f826000546064806118679190611ff3565b6118769061ffff166064612138565b63ffffffff16611625565b611889611a79565b6110fc57604051631afcd79f60e31b815260040160405180910390fd5b6118ae611881565b6000805160206123168339815191527f52c63247e1f47db19d5ce0460030c497f067ca4cebf71ba98eeadabe20bace036118e884826121f3565b50600481016107d383826121f3565b6118ff611881565b7f0773e532dfede91f04b12a73d3d2acd361424f41f76b4fb79f090161e36b4e0060008061192c84611a93565b915091508161193c57601261193e565b805b83546001600160a81b031916600160a01b60ff92909216919091026001600160a01b031916176001600160a01b0394909416939093179091555050565b61198e611986610855565b853085611b6f565b6119988382611bc9565b826001600160a01b0316846001600160a01b03167fdcbc1c05240f31ff3ad067ef1ee35ce4997762752e3a095284754544f4c709d7848460405161180a929190918252602082015260400190565b6001600160a01b038216611a1057604051634b637e8f60e11b815260006004820152602401610ac1565b610be9826000836116da565b60006002826003811115611a3257611a326122b3565b611a3c91906122c9565b60ff166001149050919050565b60008060001983850993909202808410938190039390930393915050565b634e487b71600052806020526024601cfd5b6000611a836110a8565b54600160401b900460ff16919050565b60408051600481526024810182526020810180516001600160e01b031663313ce56760e01b17905290516000918291829182916001600160a01b03871691611ada916122f9565b600060405180830381855afa9150503d8060008114611b15576040519150601f19603f3d011682016040523d82523d6000602084013e611b1a565b606091505b5091509150818015611b2e57506020815110155b15611b6257600081806020019051810190611b499190611f8a565b905060ff8111611b60576001969095509350505050565b505b5060009485945092505050565b604080516001600160a01b0385811660248301528416604482015260648082018490528251808303909101815260849091019091526020810180516001600160e01b03166323b872dd60e01b1790526107d3908590611bff565b6001600160a01b038216611bf35760405163ec442f0560e01b815260006004820152602401610ac1565b610be9600083836116da565b600080602060008451602086016000885af180611c22576040513d6000823e3d81fd5b50506000513d91508115611c3a578060011415611c47565b6001600160a01b0384163b155b156107d357604051635274afe760e01b81526001600160a01b0385166004820152602401610ac1565b600060208284031215611c8257600080fd5b81356001600160e01b03198116811461075457600080fd5b60005b83811015611cb5578181015183820152602001611c9d565b50506000910152565b6020815260008251806020840152611cdd816040850160208701611c9a565b601f01601f19169190910160400192915050565b600060208284031215611d0357600080fd5b5035919050565b6001600160a01b0381168114610f6c57600080fd5b60008060408385031215611d3257600080fd5b8235611d3d81611d0a565b946020939093013593505050565b600080600060608486031215611d6057600080fd5b8335611d6b81611d0a565b92506020840135611d7b81611d0a565b929592945050506040919091013590565b60008060408385031215611d9f57600080fd5b823591506020830135611db181611d0a565b809150509250929050565b600060208284031215611dce57600080fd5b813561075481611d0a565b634e487b7160e01b600052604160045260246000fd5b600082601f830112611e0057600080fd5b813567ffffffffffffffff80821115611e1b57611e1b611dd9565b604051601f8301601f19908116603f01168101908282118183101715611e4357611e43611dd9565b81604052838152866020858801011115611e5c57600080fd5b836020870160208301376000602085830101528094505050505092915050565b600080600080600060a08688031215611e9457600080fd5b8535611e9f81611d0a565b9450602086013567ffffffffffffffff80821115611ebc57600080fd5b611ec889838a01611def565b95506040880135915080821115611ede57600080fd5b50611eeb88828901611def565b9350506060860135611efc81611d0a565b91506080860135611f0c81611d0a565b809150509295509295909350565b600080600060608486031215611f2f57600080fd5b833592506020840135611f4181611d0a565b91506040840135611f5181611d0a565b809150509250925092565b60008060408385031215611f6f57600080fd5b8235611f7a81611d0a565b91506020830135611db181611d0a565b600060208284031215611f9c57600080fd5b5051919050565b600181811c90821680611fb757607f821691505b602082108103611fd757634e487b7160e01b600052602260045260246000fd5b50919050565b634e487b7160e01b600052601160045260246000fd5b61ffff81811683821602808216919082811461201157612011611fdd565b505092915050565b60ff818116838216019081111561064f5761064f611fdd565b8082018082111561064f5761064f611fdd565b600181815b8085111561208057816000190482111561206657612066611fdd565b8085161561207357918102915b93841c939080029061204a565b509250929050565b6000826120975750600161064f565b816120a45750600061064f565b81600181146120ba57600281146120c4576120e0565b600191505061064f565b60ff8411156120d5576120d5611fdd565b50506001821b61064f565b5060208310610133831016604e8410600b8410161715612103575081810a61064f565b61210d8383612045565b806000190482111561212157612121611fdd565b029392505050565b600061075460ff841683612088565b63ffffffff81811683821602808216919082811461201157612011611fdd565b8181038181111561064f5761064f611fdd565b60006020828403121561217d57600080fd5b8151801515811461075457600080fd5b634e487b7160e01b600052601260045260246000fd5b601f821115610850576000816000526020600020601f850160051c810160208610156121cc5750805b601f850160051c820191505b818110156121eb578281556001016121d8565b505050505050565b815167ffffffffffffffff81111561220d5761220d611dd9565b6122218161221b8454611fa3565b846121a3565b602080601f831160018114612256576000841561223e5750858301515b600019600386901b1c1916600185901b1785556121eb565b600085815260208120601f198616915b8281101561228557888601518255948401946001909101908401612266565b50858210156122a35787850151600019600388901b60f8161c191681555b5050505050600190811b01905550565b634e487b7160e01b600052602160045260246000fd5b600060ff8316806122ea57634e487b7160e01b600052601260045260246000fd5b8060ff84160691505092915050565b6000825161230b818460208701611c9a565b919091019291505056fe52c63247e1f47db19d5ce0460030c497f067ca4cebf71ba98eeadabe20bace0002dd7bc7dec4dceedda775e58dd541e08a116c6c53815c0bd028192f7b626800a264697066735822122033b6b8998bd33411cb43c5b4f4c584846b9a513d5967be46a49ab5463c12a32964736f6c63430008160033",
  "devdoc": {
    "details": "ERC4626-compliant token representing shares in the DStakeCollateralVault.",
    "errors": {
      "AccessControlBadConfirmation()": [
        {
          "details": "The caller of a function is not the expected one. NOTE: Don't confuse with {AccessControlUnauthorizedAccount}."
        }
      ],
      "AccessControlUnauthorizedAccount(address,bytes32)": [
        {
          "details": "The `account` is missing a role."
        }
      ],
      "ERC20InsufficientAllowance(address,uint256,uint256)": [
        {
          "details": "Indicates a failure with the `spender`s `allowance`. Used in transfers.",
          "params": {
            "allowance": "Amount of tokens a `spender` is allowed to operate with.",
            "needed": "Minimum amount required to perform a transfer.",
            "spender": "Address that may be allowed to operate on tokens without being their owner."
          }
        }
      ],
      "ERC20InsufficientBalance(address,uint256,uint256)": [
        {
          "details": "Indicates an error related to the current `balance` of a `sender`. Used in transfers.",
          "params": {
            "balance": "Current balance for the interacting account.",
            "needed": "Minimum amount required to perform a transfer.",
            "sender": "Address whose tokens are being transferred."
          }
        }
      ],
      "ERC20InvalidApprover(address)": [
        {
          "details": "Indicates a failure with the `approver` of a token to be approved. Used in approvals.",
          "params": {
            "approver": "Address initiating an approval operation."
          }
        }
      ],
      "ERC20InvalidReceiver(address)": [
        {
          "details": "Indicates a failure with the token `receiver`. Used in transfers.",
          "params": {
            "receiver": "Address to which tokens are being transferred."
          }
        }
      ],
      "ERC20InvalidSender(address)": [
        {
          "details": "Indicates a failure with the token `sender`. Used in transfers.",
          "params": {
            "sender": "Address whose tokens are being transferred."
          }
        }
      ],
      "ERC20InvalidSpender(address)": [
        {
          "details": "Indicates a failure with the `spender` to be approved. Used in approvals.",
          "params": {
            "spender": "Address that may be allowed to operate on tokens without being their owner."
          }
        }
      ],
      "ERC4626ExceededMaxDeposit(address,uint256,uint256)": [
        {
          "details": "Attempted to deposit more assets than the max amount for `receiver`."
        }
      ],
      "ERC4626ExceededMaxMint(address,uint256,uint256)": [
        {
          "details": "Attempted to mint more shares than the max amount for `receiver`."
        }
      ],
      "ERC4626ExceededMaxRedeem(address,uint256,uint256)": [
        {
          "details": "Attempted to redeem more shares than the max amount for `receiver`."
        }
      ],
      "ERC4626ExceededMaxWithdraw(address,uint256,uint256)": [
        {
          "details": "Attempted to withdraw more assets than the max amount for `receiver`."
        }
      ],
      "InvalidInitialization()": [
        {
          "details": "The contract is already initialized."
        }
      ],
      "NotInitializing()": [
        {
          "details": "The contract is not initializing."
        }
      ],
      "SafeERC20FailedOperation(address)": [
        {
          "details": "An operation with an ERC-20 token failed."
        }
      ]
    },
    "events": {
      "Approval(address,address,uint256)": {
        "details": "Emitted when the allowance of a `spender` for an `owner` is set by a call to {approve}. `value` is the new allowance."
      },
      "Initialized(uint64)": {
        "details": "Triggered when the contract has been initialized or reinitialized."
      },
      "RoleAdminChanged(bytes32,bytes32,bytes32)": {
        "details": "Emitted when `newAdminRole` is set as ``role``'s admin role, replacing `previousAdminRole` `DEFAULT_ADMIN_ROLE` is the starting admin for all roles, despite {RoleAdminChanged} not being emitted to signal this."
      },
      "RoleGranted(bytes32,address,address)": {
        "details": "Emitted when `account` is granted `role`. `sender` is the account that originated the contract call. This account bears the admin role (for the granted role). Expected in cases where the role was granted using the internal {AccessControl-_grantRole}."
      },
      "RoleRevoked(bytes32,address,address)": {
        "details": "Emitted when `account` is revoked `role`. `sender` is the account that originated the contract call:   - if using `revokeRole`, it is the admin role bearer   - if using `renounceRole`, it is the role bearer (i.e. `account`)"
      },
      "Transfer(address,address,uint256)": {
        "details": "Emitted when `value` tokens are moved from one account (`from`) to another (`to`). Note that `value` may be zero."
      }
    },
    "kind": "dev",
    "methods": {
      "allowance(address,address)": {
        "details": "Returns the remaining number of tokens that `spender` will be allowed to spend on behalf of `owner` through {transferFrom}. This is zero by default. This value changes when {approve} or {transferFrom} are called."
      },
      "approve(address,uint256)": {
        "details": "See {IERC20-approve}. NOTE: If `value` is the maximum `uint256`, the allowance is not updated on `transferFrom`. This is semantically equivalent to an infinite approval. Requirements: - `spender` cannot be the zero address."
      },
      "asset()": {
        "details": "Returns the address of the underlying token used for the Vault for accounting, depositing, and withdrawing. - MUST be an ERC-20 token contract. - MUST NOT revert."
      },
      "balanceOf(address)": {
        "details": "Returns the value of tokens owned by `account`."
      },
      "constructor": {
        "custom:oz-upgrades-unsafe-allow": "constructor"
      },
      "convertToAssets(uint256)": {
        "details": "Returns the amount of assets that the Vault would exchange for the amount of shares provided, in an ideal scenario where all the conditions are met. - MUST NOT be inclusive of any fees that are charged against assets in the Vault. - MUST NOT show any variations depending on the caller. - MUST NOT reflect slippage or other on-chain conditions, when performing the actual exchange. - MUST NOT revert. NOTE: This calculation MAY NOT reflect the per-user price-per-share, and instead should reflect the average-users price-per-share, meaning what the average user should expect to see when exchanging to and from."
      },
      "convertToShares(uint256)": {
        "details": "Returns the amount of shares that the Vault would exchange for the amount of assets provided, in an ideal scenario where all the conditions are met. - MUST NOT be inclusive of any fees that are charged against assets in the Vault. - MUST NOT show any variations depending on the caller. - MUST NOT reflect slippage or other on-chain conditions, when performing the actual exchange. - MUST NOT revert. NOTE: This calculation MAY NOT reflect the per-user price-per-share, and instead should reflect the average-users price-per-share, meaning what the average user should expect to see when exchanging to and from."
      },
      "decimals()": {
        "details": "Decimals are computed by adding the decimal offset on top of the underlying asset's decimals. This \"original\" value is cached during construction of the vault contract. If this read operation fails (e.g., the asset has not been created yet), a default of 18 is used to represent the underlying asset's decimals. See {IERC20Metadata-decimals}."
      },
      "deposit(uint256,address)": {
        "details": "Mints shares Vault shares to receiver by depositing exactly amount of underlying tokens. - MUST emit the Deposit event. - MAY support an additional flow in which the underlying tokens are owned by the Vault contract before the   deposit execution, and are accounted for during deposit. - MUST revert if all of assets cannot be deposited (due to deposit limit being reached, slippage, the user not   approving enough underlying tokens to the Vault contract, etc). NOTE: most implementations will require pre-approval of the Vault with the Vaults underlying asset token."
      },
      "getRoleAdmin(bytes32)": {
        "details": "Returns the admin role that controls `role`. See {grantRole} and {revokeRole}. To change a role's admin, use {_setRoleAdmin}."
      },
      "getWithdrawalFeeBps()": {
        "returns": {
          "_0": "The withdrawal fee in basis points."
        }
      },
      "grantRole(bytes32,address)": {
        "details": "Grants `role` to `account`. If `account` had not been already granted `role`, emits a {RoleGranted} event. Requirements: - the caller must have ``role``'s admin role. May emit a {RoleGranted} event."
      },
      "hasRole(bytes32,address)": {
        "details": "Returns `true` if `account` has been granted `role`."
      },
      "maxDeposit(address)": {
        "details": "Returns the maximum amount of the underlying asset that can be deposited into the Vault for the receiver, through a deposit call. - MUST return a limited value if receiver is subject to some deposit limit. - MUST return 2 ** 256 - 1 if there is no limit on the maximum amount of assets that may be deposited. - MUST NOT revert."
      },
      "maxMint(address)": {
        "details": "Returns the maximum amount of the Vault shares that can be minted for the receiver, through a mint call. - MUST return a limited value if receiver is subject to some mint limit. - MUST return 2 ** 256 - 1 if there is no limit on the maximum amount of shares that may be minted. - MUST NOT revert."
      },
      "maxRedeem(address)": {
        "details": "Returns the maximum amount of Vault shares that can be redeemed from the owner balance in the Vault, through a redeem call. - MUST return a limited value if owner is subject to some withdrawal limit or timelock. - MUST return balanceOf(owner) if owner is not subject to any withdrawal limit or timelock. - MUST NOT revert."
      },
      "mint(uint256,address)": {
        "details": "Mints exactly shares Vault shares to receiver by depositing amount of underlying tokens. - MUST emit the Deposit event. - MAY support an additional flow in which the underlying tokens are owned by the Vault contract before the mint   execution, and are accounted for during mint. - MUST revert if all of shares cannot be minted (due to deposit limit being reached, slippage, the user not   approving enough underlying tokens to the Vault contract, etc). NOTE: most implementations will require pre-approval of the Vault with the Vaults underlying asset token."
      },
      "name()": {
        "details": "Returns the name of the token."
      },
      "previewDeposit(uint256)": {
        "details": "Allows an on-chain or off-chain user to simulate the effects of their deposit at the current block, given current on-chain conditions. - MUST return as close to and no more than the exact amount of Vault shares that would be minted in a deposit   call in the same transaction. I.e. deposit should return the same or more shares as previewDeposit if called   in the same transaction. - MUST NOT account for deposit limits like those returned from maxDeposit and should always act as though the   deposit would be accepted, regardless if the user has enough tokens approved, etc. - MUST be inclusive of deposit fees. Integrators should be aware of the existence of deposit fees. - MUST NOT revert. NOTE: any unfavorable discrepancy between convertToShares and previewDeposit SHOULD be considered slippage in share price or some other type of condition, meaning the depositor will lose assets by depositing."
      },
      "previewMint(uint256)": {
        "details": "Allows an on-chain or off-chain user to simulate the effects of their mint at the current block, given current on-chain conditions. - MUST return as close to and no fewer than the exact amount of assets that would be deposited in a mint call   in the same transaction. I.e. mint should return the same or fewer assets as previewMint if called in the   same transaction. - MUST NOT account for mint limits like those returned from maxMint and should always act as though the mint   would be accepted, regardless if the user has enough tokens approved, etc. - MUST be inclusive of deposit fees. Integrators should be aware of the existence of deposit fees. - MUST NOT revert. NOTE: any unfavorable discrepancy between convertToAssets and previewMint SHOULD be considered slippage in share price or some other type of condition, meaning the depositor will lose assets by minting."
      },
      "previewRedeem(uint256)": {
        "details": "Preview redeem including withdrawal fee."
      },
      "previewWithdraw(uint256)": {
        "details": "Preview withdraw including withdrawal fee."
      },
      "redeem(uint256,address,address)": {
        "details": "Override to ensure the withdrawal fee is deducted only once.      The `shares` parameter is converted to its equivalent gross asset value, then the      internal _withdraw handles fee calculation. The returned value is the net assets      actually received by the `receiver`, matching previewRedeem()."
      },
      "renounceRole(bytes32,address)": {
        "details": "Revokes `role` from the calling account. Roles are often managed via {grantRole} and {revokeRole}: this function's purpose is to provide a mechanism for accounts to lose their privileges if they are compromised (such as when a trusted device is misplaced). If the calling account had been revoked `role`, emits a {RoleRevoked} event. Requirements: - the caller must be `callerConfirmation`. May emit a {RoleRevoked} event."
      },
      "revokeRole(bytes32,address)": {
        "details": "Revokes `role` from `account`. If `account` had been granted `role`, emits a {RoleRevoked} event. Requirements: - the caller must have ``role``'s admin role. May emit a {RoleRevoked} event."
      },
      "setCollateralVault(address)": {
        "details": "Only callable by DEFAULT_ADMIN_ROLE.",
        "params": {
          "_collateralVault": "The address of the new collateral vault contract."
        }
      },
      "setRouter(address)": {
        "details": "Only callable by DEFAULT_ADMIN_ROLE.",
        "params": {
          "_router": "The address of the new router contract."
        }
      },
      "setWithdrawalFee(uint256)": {
        "details": "Requires FEE_MANAGER_ROLE.",
        "params": {
          "_feeBps": "The new withdrawal fee (e.g., 1000 = 0.1%)."
        }
      },
      "supportsInterface(bytes4)": {
        "details": "Returns true if this contract implements the interface defined by `interfaceId`. See the corresponding https://eips.ethereum.org/EIPS/eip-165#how-interfaces-are-identified[ERC section] to learn more about how these ids are created. This function call must use less than 30 000 gas."
      },
      "symbol()": {
        "details": "Returns the symbol of the token, usually a shorter version of the name."
      },
      "totalAssets()": {
        "details": "IMPORTANT: When all vault shares have been redeemed, the router intentionally leaves up to `dustTolerance` (1 wei by default) of wrapper tokens in the `DStakeCollateralVault`. These wrapper tokens continue to accrue yield via an ever-increasing price-per-share. As a result, it is theoretically possible for `totalSupply() == 0` while `totalAssets()` returns a non-zero value. The protocol explicitly accepts that the **first depositor after such a complete withdrawal will receive whatever residual value has accumulated**.  Given the minuscule starting balance ( 1 wei) and slow growth rate, the team judged that the gas cost of enforcing a strict invariant outweighed the negligible windfall. Please keep this in mind if `dustTolerance` is increased to a non-negligible value."
      },
      "totalSupply()": {
        "details": "Returns the value of tokens in existence."
      },
      "transfer(address,uint256)": {
        "details": "See {IERC20-transfer}. Requirements: - `to` cannot be the zero address. - the caller must have a balance of at least `value`."
      },
      "transferFrom(address,address,uint256)": {
        "details": "See {IERC20-transferFrom}. Skips emitting an {Approval} event indicating an allowance update. This is not required by the ERC. See {xref-ERC20-_approve-address-address-uint256-bool-}[_approve]. NOTE: Does not update the allowance if the current allowance is the maximum `uint256`. Requirements: - `from` and `to` cannot be the zero address. - `from` must have a balance of at least `value`. - the caller must have allowance for ``from``'s tokens of at least `value`."
      },
      "withdraw(uint256,address,address)": {
        "details": "Override to handle withdrawals with fees correctly.      The `assets` parameter is the net amount of assets the user wants to receive."
      }
    },
    "title": "DStakeToken",
    "version": 1
  },
  "userdoc": {
    "kind": "user",
    "methods": {
      "getWithdrawalFeeBps()": {
        "notice": "Get the current withdrawal fee in basis points."
      },
      "maxWithdraw(address)": {
        "notice": "Returns the maximum NET assets that `owner` can withdraw taking the current         withdrawal fee into account.         OpenZeppelin's reference implementation returns the owner's share balance         converted to assets (i.e. a gross value).  In a fee-charging vault that         exposes `withdraw(netAssets)`, the intuitive expectation is that         `maxWithdraw` already reflects what the user will actually receive after         fees.  We therefore convert the share balance to GROSS assets first and then         subtract the fee."
      },
      "maxWithdrawalFeeBps()": {
        "notice": "Public getter for the maximum withdrawal fee in basis points."
      },
      "setCollateralVault(address)": {
        "notice": "Sets the address of the DStakeCollateralVault contract."
      },
      "setRouter(address)": {
        "notice": "Sets the address of the DStakeRouter contract."
      },
      "setWithdrawalFee(uint256)": {
        "notice": "Sets the withdrawal fee in basis points."
      },
      "withdrawalFeeBps()": {
        "notice": "Public getter for the current withdrawal fee in basis points."
      }
    },
    "version": 1
  },
  "storageLayout": {
    "storage": [
      {
        "astId": 27066,
        "contract": "contracts/vaults/dstake/DStakeToken.sol:DStakeToken",
        "label": "withdrawalFeeBps_",
        "offset": 0,
        "slot": "0",
        "type": "t_uint256"
      },
      {
        "astId": 88878,
        "contract": "contracts/vaults/dstake/DStakeToken.sol:DStakeToken",
        "label": "collateralVault",
        "offset": 0,
        "slot": "1",
        "type": "t_contract(IDStakeCollateralVault)89902"
      },
      {
        "astId": 88881,
        "contract": "contracts/vaults/dstake/DStakeToken.sol:DStakeToken",
        "label": "router",
        "offset": 0,
        "slot": "2",
        "type": "t_contract(IDStakeRouter)89922"
      }
    ],
    "types": {
      "t_contract(IDStakeCollateralVault)89902": {
        "encoding": "inplace",
        "label": "contract IDStakeCollateralVault",
        "numberOfBytes": "20"
      },
      "t_contract(IDStakeRouter)89922": {
        "encoding": "inplace",
        "label": "contract IDStakeRouter",
        "numberOfBytes": "20"
      },
      "t_uint256": {
        "encoding": "inplace",
        "label": "uint256",
        "numberOfBytes": "32"
      }
    }
  }
}