{
  "address": "0x87d583C4Ba5873A3A41E4d6806060Bf9f15419aF",
  "abi": [
    {
      "inputs": [
        {
          "internalType": "address",
          "name": "_baseCurrency",
          "type": "address"
        },
        {
          "internalType": "uint256",
          "name": "_baseCurrencyUnit",
          "type": "uint256"
        },
        {
          "internalType": "uint256",
          "name": "_pricePeg",
          "type": "uint256"
        }
      ],
      "stateMutability": "nonpayable",
      "type": "constructor"
    },
    {
      "inputs": [],
      "name": "BASE_CURRENCY",
      "outputs": [
        {
          "internalType": "address",
          "name": "",
          "type": "address"
        }
      ],
      "stateMutability": "view",
      "type": "function"
    },
    {
      "inputs": [],
      "name": "BASE_CURRENCY_UNIT",
      "outputs": [
        {
          "internalType": "uint256",
          "name": "",
          "type": "uint256"
        }
      ],
      "stateMutability": "view",
      "type": "function"
    },
    {
      "inputs": [
        {
          "internalType": "address",
          "name": "",
          "type": "address"
        }
      ],
      "name": "getAssetPrice",
      "outputs": [
        {
          "internalType": "uint256",
          "name": "",
          "type": "uint256"
        }
      ],
      "stateMutability": "view",
      "type": "function"
    },
    {
      "inputs": [
        {
          "internalType": "address",
          "name": "",
          "type": "address"
        }
      ],
      "name": "getPriceInfo",
      "outputs": [
        {
          "internalType": "uint256",
          "name": "price",
          "type": "uint256"
        },
        {
          "internalType": "bool",
          "name": "isAlive",
          "type": "bool"
        }
      ],
      "stateMutability": "view",
      "type": "function"
    },
    {
      "inputs": [],
      "name": "pricePeg",
      "outputs": [
        {
          "internalType": "uint256",
          "name": "",
          "type": "uint256"
        }
      ],
      "stateMutability": "view",
      "type": "function"
    }
  ],
  "transactionHash": "0x5a541e3e5911173e4433f5ac4c04ad2bd8658c9ebba3ea764e4e43893a741888",
  "args": [
    "0x0000000000000000000000000000000000000000",
    "1000000000000000000",
    "1000000000000000000"
  ],
  "numDeployments": 1,
  "solcInputHash": "3119f14c142cd6db245e027e6458c4b3",
  "bytecode": "0x60c060405234801561001057600080fd5b5060405161027d38038061027d83398101604081905261002f91610048565b6001600160a01b0390921660a05260005560805261008b565b60008060006060848603121561005d57600080fd5b83516001600160a01b038116811461007457600080fd5b602085015160409095015190969495509392505050565b60805160a0516101c26100bb600039600061012201526000818160610152818160b0015260fb01526101c26000f3fe608060405234801561001057600080fd5b50600436106100575760003560e01c80636af8ecae1461005c5780638c89b64f146100965780638edbf4361461009f578063b3596f07146100ea578063e19f47001461011d575b600080fd5b6100837f000000000000000000000000000000000000000000000000000000000000000081565b6040519081526020015b60405180910390f35b61008360005481565b6100d56100ad36600461015c565b507f000000000000000000000000000000000000000000000000000000000000000090600190565b6040805192835290151560208301520161008d565b6100836100f836600461015c565b507f000000000000000000000000000000000000000000000000000000000000000090565b6101447f000000000000000000000000000000000000000000000000000000000000000081565b6040516001600160a01b03909116815260200161008d565b60006020828403121561016e57600080fd5b81356001600160a01b038116811461018557600080fd5b939250505056fea2646970667358221220716b6816dc0093c3401544f59a6e68ed41ae9bd9531a366835112096526a5f9664736f6c63430008160033",
  "devdoc": {
    "kind": "dev",
    "methods": {
      "getAssetPrice(address)": {
        "details": "Get the price of an asset"
      },
      "getPriceInfo(address)": {
        "details": "Get the price info of an asset"
      }
    },
    "stateVariables": {
      "BASE_CURRENCY": {
        "details": "Address 0x0 is commonly used for USD, but can be any token address based on the implementation.",
        "return": "Returns the base currency address.",
        "returns": {
          "_0": "Returns the base currency address."
        }
      },
      "BASE_CURRENCY_UNIT": {
        "details": "Represents the decimal precision of the base currency (e.g., 1e8 for USD, 1e18 for ETH).",
        "return": "Returns the base currency unit.",
        "returns": {
          "_0": "Returns the base currency unit."
        }
      }
    },
    "version": 1
  },
  "userdoc": {
    "kind": "user",
    "methods": {
      "BASE_CURRENCY()": {
        "notice": "Returns the base currency address"
      },
      "BASE_CURRENCY_UNIT()": {
        "notice": "Returns the base currency unit"
      }
    },
    "version": 1
  },
  "storageLayout": {
    "storage": [
      {
        "astId": 78056,
        "contract": "contracts/oracle_aggregator/wrapper/HardPegOracleWrapper.sol:HardPegOracleWrapper",
        "label": "BASE_CURRENCY_UNIT",
        "offset": 0,
        "slot": "0",
        "type": "t_uint256"
      }
    ],
    "types": {
      "t_uint256": {
        "encoding": "inplace",
        "label": "uint256",
        "numberOfBytes": "32"
      }
    }
  }
}