{
  "address": "0x58085EE9a4c10489Dc11138cAE84956F21e1BBA7",
  "abi": [
    {
      "inputs": [
        {
          "internalType": "contract IPool",
          "name": "pool",
          "type": "address"
        }
      ],
      "stateMutability": "nonpayable",
      "type": "constructor"
    },
    {
      "anonymous": false,
      "inputs": [
        {
          "indexed": true,
          "internalType": "address",
          "name": "staticAToken",
          "type": "address"
        },
        {
          "indexed": true,
          "internalType": "address",
          "name": "underlying",
          "type": "address"
        }
      ],
      "name": "StaticTokenCreated",
      "type": "event"
    },
    {
      "inputs": [],
      "name": "POOL",
      "outputs": [
        {
          "internalType": "contract IPool",
          "name": "",
          "type": "address"
        }
      ],
      "stateMutability": "view",
      "type": "function"
    },
    {
      "inputs": [
        {
          "internalType": "address[]",
          "name": "underlyings",
          "type": "address[]"
        }
      ],
      "name": "createStaticATokens",
      "outputs": [
        {
          "internalType": "address[]",
          "name": "",
          "type": "address[]"
        }
      ],
      "stateMutability": "nonpayable",
      "type": "function"
    },
    {
      "inputs": [
        {
          "internalType": "address",
          "name": "underlying",
          "type": "address"
        }
      ],
      "name": "getStaticAToken",
      "outputs": [
        {
          "internalType": "address",
          "name": "",
          "type": "address"
        }
      ],
      "stateMutability": "view",
      "type": "function"
    },
    {
      "inputs": [],
      "name": "getStaticATokens",
      "outputs": [
        {
          "internalType": "address[]",
          "name": "",
          "type": "address[]"
        }
      ],
      "stateMutability": "view",
      "type": "function"
    },
    {
      "inputs": [],
      "name": "initialize",
      "outputs": [],
      "stateMutability": "pure",
      "type": "function"
    }
  ],
  "transactionHash": "0x3c129266bbd8554626fd4be2771aea7cb7668c30467d2d938fbf958e72f8627e",
  "args": [
    "0x1b37322Eaa0Ef31014D81549c53859e89fc3B6B7"
  ],
  "numDeployments": 1,
  "solcInputHash": "2527ebfec9c9a604caa210608c9d74c8",
  "bytecode": "0x60a060405234801561001057600080fd5b5060405161554738038061554783398101604081905261002f91610040565b6001600160a01b0316608052610070565b60006020828403121561005257600080fd5b81516001600160a01b038116811461006957600080fd5b9392505050565b6080516154af610098600039600081816098015281816101c101526102dc01526154af6000f3fe60806040523480156200001157600080fd5b50600436106200005e5760003560e01c806356d9be6a14620000635780637535d24614620000925780638129fc1c14620000d3578063a09aa4a714620000df578063ed5d0f5814620000e9575b600080fd5b6200007a6200007436600462000726565b62000118565b604051620000899190620007e5565b60405180910390f35b620000ba7f000000000000000000000000000000000000000000000000000000000000000081565b6040516001600160a01b03909116815260200162000089565b620000dd620005ea565b005b6200007a62000624565b620000ba620000fa36600462000834565b6001600160a01b039081166000908152602081905260409020541690565b60606000825167ffffffffffffffff81111562000139576200013962000696565b60405190808252806020026020018201604052801562000163578160200160208202803683370190505b50905060005b8351811015620005e35760008060008684815181106200018d576200018d6200085b565b6020908102919091018101516001600160a01b039081168352908201929092526040016000205416905080620005a25760007f00000000000000000000000000000000000000000000000000000000000000006001600160a01b03166335ea6a758785815181106200020357620002036200085b565b60200260200101516040518263ffffffff1660e01b81526004016200023791906001600160a01b0391909116815260200190565b6101e060405180830381865afa15801562000256573d6000803e3d6000fd5b505050506040513d601f19601f820116820180604052508101906200027c919062000913565b6101008101519091506001600160a01b0316620002d85760405162461bcd60e51b815260206004820152601560248201527415539111549316525391d7d393d517d31254d51151605a1b60448201526064015b60405180910390fd5b60007f000000000000000000000000000000000000000000000000000000000000000060008361010001518461010001516001600160a01b03166306fdde036040518163ffffffff1660e01b8152600401600060405180830381865afa15801562000347573d6000803e3d6000fd5b505050506040513d6000823e601f3d908101601f1916820160405262000371919081019062000a7d565b60405160200162000383919062000b1c565b6040516020818303038152906040528561010001516001600160a01b03166395d89b416040518163ffffffff1660e01b8152600401600060405180830381865afa158015620003d6573d6000803e3d6000fd5b505050506040513d6000823e601f3d908101601f1916820160405262000400919081019062000a7d565b60405160200162000412919062000b4e565b6040516020818303038152906040526040516200042f9062000688565b6200043f95949392919062000ba7565b604051809103906000f0801580156200045c573d6000803e3d6000fd5b5090506000819050806000808a88815181106200047d576200047d6200085b565b60200260200101516001600160a01b03166001600160a01b0316815260200190815260200160002060006101000a8154816001600160a01b0302191690836001600160a01b0316021790555080868681518110620004df57620004df6200085b565b6001600160a01b0392831660209182029290920101526001805480820182556000919091527fb10e2d527612073b26eecdfd717e6a320cf44b4afac2b0732d9fcbe2b7fa0cf60180546001600160a01b03191691831691909117905587518890869081106200055257620005526200085b565b60200260200101516001600160a01b0316816001600160a01b03167f7397831292236fdc8043acf7b9d21183e46fd54f9b06bd34210068f95dd378d660405160405180910390a3505050620005d9565b80838381518110620005b857620005b86200085b565b60200260200101906001600160a01b031690816001600160a01b0316815250505b5060010162000169565b5092915050565b60405162461bcd60e51b815260206004820152600e60248201526d2727afa4a724aa24a0a624ad22a960911b6044820152606401620002cf565b606060018054806020026020016040519081016040528092919081815260200182805480156200067e57602002820191906000526020600020905b81546001600160a01b031681526001909101906020018083116200065f575b5050505050905090565b6148888062000bf283390190565b634e487b7160e01b600052604160045260246000fd5b6040516101e0810167ffffffffffffffff81118282101715620006d357620006d362000696565b60405290565b604051601f8201601f1916810167ffffffffffffffff8111828210171562000705576200070562000696565b604052919050565b6001600160a01b03811681146200072357600080fd5b50565b600060208083850312156200073a57600080fd5b823567ffffffffffffffff808211156200075357600080fd5b818501915085601f8301126200076857600080fd5b8135818111156200077d576200077d62000696565b8060051b915062000790848301620006d9565b8181529183018401918481019088841115620007ab57600080fd5b938501935b83851015620007d95784359250620007c8836200070d565b8282529385019390850190620007b0565b98975050505050505050565b6020808252825182820181905260009190848201906040850190845b81811015620008285783516001600160a01b03168352928401929184019160010162000801565b50909695505050505050565b6000602082840312156200084757600080fd5b813562000854816200070d565b9392505050565b634e487b7160e01b600052603260045260246000fd5b6000602082840312156200088457600080fd5b6040516020810181811067ffffffffffffffff82111715620008aa57620008aa62000696565b6040529151825250919050565b80516fffffffffffffffffffffffffffffffff81168114620008d857600080fd5b919050565b805164ffffffffff81168114620008d857600080fd5b805161ffff81168114620008d857600080fd5b8051620008d8816200070d565b60006101e082840312156200092757600080fd5b62000931620006ac565b6200093d848462000871565b81526200094d60208401620008b7565b60208201526200096060408401620008b7565b60408201526200097360608401620008b7565b60608201526200098660808401620008b7565b60808201526200099960a08401620008b7565b60a0820152620009ac60c08401620008dd565b60c0820152620009bf60e08401620008f3565b60e0820152610100620009d481850162000906565b90820152610120620009e884820162000906565b90820152610140620009fc84820162000906565b9082015261016062000a1084820162000906565b9082015261018062000a24848201620008b7565b908201526101a062000a38848201620008b7565b908201526101c062000a4c848201620008b7565b908201529392505050565b60005b8381101562000a7457818101518382015260200162000a5a565b50506000910152565b60006020828403121562000a9057600080fd5b815167ffffffffffffffff8082111562000aa957600080fd5b818401915084601f83011262000abe57600080fd5b81518181111562000ad35762000ad362000696565b62000ae8601f8201601f1916602001620006d9565b915080825285602082850101111562000b0057600080fd5b62000b1381602084016020860162000a57565b50949350505050565b6702bb930b83832b2160c51b81526000825162000b4181600885016020870162000a57565b9190910160080192915050565b607760f81b81526000825162000b6c81600185016020870162000a57565b9190910160010192915050565b6000815180845262000b9381602086016020860162000a57565b601f01601f19169290920160200192915050565b6001600160a01b03868116825285811660208301528416604082015260a06060820181905260009062000bdd9083018562000b79565b8281036080840152620007d9818562000b7956fe60c06040523480156200001157600080fd5b50604051620048883803806200488883398101604081905262000034916200056a565b8181846001600160a01b031663313ce5676040518163ffffffff1660e01b8152600401602060405180830381865afa15801562000075573d6000803e3d6000fd5b505050506040513d601f19601f820116820180604052508101906200009b919062000615565b6000620000a98482620006d2565b506001620000b88382620006d2565b506002805460ff191660ff9290921691909117905550506001600160a01b0385811660805284811660a052600780546001600160a01b0319169185169182179055604080516358b50cef60e11b8152905163b16a19de916004808201926020929091908290030181865afa15801562000135573d6000803e3d6000fd5b505050506040513d601f19601f820116820180604052508101906200015b91906200079e565b600880546001600160a01b0319166001600160a01b0392831690811790915560805160405163095ea7b360e01b81529216600483015260001960248301529063095ea7b3906044016020604051808303816000875af1158015620001c3573d6000803e3d6000fd5b505050506040513d601f19601f82011682018060405250810190620001e99190620007be565b5060a0516001600160a01b03161562000206576200020662000211565b5050505050620008db565b60a051600754604051636657732f60e01b81526001600160a01b0391821660048201526000929190911690636657732f90602401600060405180830381865afa15801562000263573d6000803e3d6000fd5b505050506040513d6000823e601f3d908101601f191682016040526200028d9190810190620007e2565b905060005b8151811015620002d257620002c9828281518110620002b557620002b5620008a0565b6020026020010151620002d660201b60201c565b60010162000292565b5050565b6001600160a01b0381166000908152600a602052604090205460ff1615620002fb5750565b60006200030882620003db565b6009805460018181019092557f6e1540171b6c0c960b71a7020d9f60077f6af931a8bbf590da0223dacf75c7af0180546001600160a01b0386166001600160a01b031990911681179091556040805180820182529283526001600160f01b03841660208481019182526000848152600a909152829020935190516001600160f81b03166101000290151560ff16179092559051919250907fa8f4dd7e60441ca288d902a295362002a0255a46560b24825821b36716d6fe5b90620003cf9084815260200190565b60405180910390a25050565b60006001600160a01b038216620003f457506000919050565b60a05160075460405163886fe70b60e01b81526001600160a01b0391821660048201528482166024820152600092919091169063886fe70b906044016040805180830381865afa1580156200044d573d6000803e3d6000fd5b505050506040513d601f19601f82011682018060405250810190620004739190620008b6565b949350505050565b6001600160a01b03811681146200049157600080fd5b50565b634e487b7160e01b600052604160045260246000fd5b604051601f8201601f191681016001600160401b0381118282101715620004d557620004d562000494565b604052919050565b600082601f830112620004ef57600080fd5b81516001600160401b038111156200050b576200050b62000494565b602062000521601f8301601f19168201620004aa565b82815285828487010111156200053657600080fd5b60005b838110156200055657858101830151828201840152820162000539565b506000928101909101919091529392505050565b600080600080600060a086880312156200058357600080fd5b855162000590816200047b565b6020870151909550620005a3816200047b565b6040870151909450620005b6816200047b565b60608701519093506001600160401b0380821115620005d457600080fd5b620005e289838a01620004dd565b93506080880151915080821115620005f957600080fd5b506200060888828901620004dd565b9150509295509295909350565b6000602082840312156200062857600080fd5b815160ff811681146200063a57600080fd5b9392505050565b600181811c908216806200065657607f821691505b6020821081036200067757634e487b7160e01b600052602260045260246000fd5b50919050565b601f821115620006cd576000816000526020600020601f850160051c81016020861015620006a85750805b601f850160051c820191505b81811015620006c957828155600101620006b4565b5050505b505050565b81516001600160401b03811115620006ee57620006ee62000494565b6200070681620006ff845462000641565b846200067d565b602080601f8311600181146200073e5760008415620007255750858301515b600019600386901b1c1916600185901b178555620006c9565b600085815260208120601f198616915b828110156200076f578886015182559484019460019091019084016200074e565b50858210156200078e5787850151600019600388901b60f8161c191681555b5050505050600190811b01905550565b600060208284031215620007b157600080fd5b81516200063a816200047b565b600060208284031215620007d157600080fd5b815180151581146200063a57600080fd5b60006020808385031215620007f657600080fd5b82516001600160401b03808211156200080e57600080fd5b818501915085601f8301126200082357600080fd5b81518181111562000838576200083862000494565b8060051b91506200084b848301620004aa565b81815291830184019184810190888411156200086657600080fd5b938501935b8385101562000894578451925062000883836200047b565b82825293850193908501906200086b565b98975050505050505050565b634e487b7160e01b600052603260045260246000fd5b60008060408385031215620008ca57600080fd5b505080516020909101519092909150565b60805160a051613f41620009476000396000818161069f01528181610bfe015281816110fd01528181611376015281816118320152611cee01526000818161050f01528181610baa01528181610cd6015281816116aa015281816127a80152612a350152613f416000f3fe608060405234801561001057600080fd5b50600436106102f15760003560e01c806386894b291161019d578063c6e6f592116100e9578063de9cee98116100a2578063ee0fc6d31161007c578063ee0fc6d31461075e578063ef8b30f714610687578063f56f4f0f14610771578063fa7146101461078457600080fd5b8063de9cee9814610725578063e25ec34914610738578063ea9be77c1461074b57600080fd5b8063c6e6f59214610687578063cd086d451461069a578063ce96cb77146106c1578063d505accf146106d4578063d905777e146106e7578063dd62ed3e146106fa57600080fd5b8063a9059cbb11610156578063ba08765211610130578063ba08765214610639578063bcd178481461064c578063c2b18aa01461065f578063c63d75b61461067457600080fd5b8063a9059cbb14610600578063b3d7f6b914610613578063b460af941461062657600080fd5b806386894b29146105515780638d9484151461059a5780638daaf5aa146105c157806394bf804d146105d457806395d89b41146105e7578063a0c1f15e146105ef57600080fd5b8063313ce5671161025c57806360d8fdd8116102155780636fe0b5a5116101ef5780636fe0b5a5146104be57806370a08231146104ea5780637535d2461461050a5780637ecebe001461053157600080fd5b806360d8fdd81461047157806363210537146104845780636e553f65146104ab57600080fd5b8063313ce567146103ea5780633644e5151461040957806338d52e0f14610411578063402d267d146104365780634cdad50614610326578063602665571461044957600080fd5b806318160ddd116102ae57806318160ddd146103825780632026ffa31461038b57806323b872dd146103a05780632c4e722e146103b35780632f813b0d146103bb57806330adf81f146103c357600080fd5b806301e1d114146102f657806306fdde031461031157806307a2d13a14610326578063090edf9a14610339578063095ea7b31461034c5780630a28a4771461036f575b600080fd5b6102fe61078c565b6040519081526020015b60405180910390f35b6103196107ff565b6040516103089190613293565b6102fe6103343660046132e2565b61088d565b6102fe610347366004613310565b6108a0565b61035f61035a366004613352565b610a10565b6040519015158152602001610308565b6102fe61037d3660046132e2565b610a7c565b6102fe60035481565b61039e61039936600461348b565b610a89565b005b61035f6103ae3660046134db565b610a98565b6102fe610b85565b61039e610bd9565b6102fe7f6e71edae12b1b97f4d1f60370fef10105fa2faae0126114a169c64845d6126c981565b6002546103f79060ff1681565b60405160ff9091168152602001610308565b6102fe610ca5565b6008546001600160a01b03165b6040516001600160a01b039091168152602001610308565b6102fe61044436600461351c565b610caf565b61045c610457366004613560565b610e82565b60408051928352602083019190915201610308565b6102fe61047f36600461351c565b61107b565b6102fe7f2a83c73b9e01ec0a1b95ff05940d809179668cc004230412d7047ffac3846ce781565b6102fe6104b93660046135d7565b6111f6565b61035f6104cc36600461351c565b6001600160a01b03166000908152600a602052604090205460ff1690565b6102fe6104f836600461351c565b60046020526000908152604090205481565b61041e7f000000000000000000000000000000000000000000000000000000000000000081565b6102fe61053f36600461351c565b60066020526000908152604090205481565b6102fe61055f366004613607565b6001600160a01b039182166000908152600b60209081526040808320939094168252919091522054600160801b90046001600160801b031690565b6102fe7f406ef09971b1bfa50a48ce277d3302602d78c94d58a376e8953b590702de7b3181565b61039e6105cf366004613635565b611213565b6102fe6105e23660046135d7565b611221565b610319611234565b6007546001600160a01b031661041e565b61035f61060e366004613352565b611241565b6102fe6106213660046132e2565b6112b2565b6102fe610634366004613310565b6112bf565b6102fe610647366004613310565b6112db565b6102fe61065a36600461351c565b6112f7565b6106676113f8565b60405161030891906136af565b6102fe61068236600461351c565b61145a565b6102fe6106953660046132e2565b611487565b61041e7f000000000000000000000000000000000000000000000000000000000000000081565b6102fe6106cf36600461351c565b611494565b61039e6106e23660046136d3565b6114ad565b6102fe6106f536600461351c565b61167f565b6102fe610708366004613607565b600560209081526000928352604080842090915290825290205481565b6102fe61073336600461351c565b6117ed565b6102fe6107463660046135d7565b61189c565b6102fe610759366004613751565b611a12565b61039e61076c3660046137ee565b611cbd565b6102fe61077f366004613607565b611db7565b6102fe600281565b6007546040516370a0823160e01b81523060048201526000916001600160a01b0316906370a08231906024015b602060405180830381865afa1580156107d6573d6000803e3d6000fd5b505050506040513d601f19601f820116820180604052508101906107fa9190613850565b905090565b6000805461080c90613869565b80601f016020809104026020016040519081016040528092919081815260200182805461083890613869565b80156108855780601f1061085a57610100808354040283529160200191610885565b820191906000526020600020905b81548152906001019060200180831161086857829003601f168201915b505050505081565b600061089a826001611de6565b92915050565b6000808411604051806040016040528060018152602001600760fb1b815250906108e65760405162461bcd60e51b81526004016108dd9190613293565b60405180910390fd5b5060006108f28561088d565b6040805180820190915260018152600760fb1b60208201529091508161092b5760405162461bcd60e51b81526004016108dd9190613293565b50336001600160a01b0384161461099a576001600160a01b038316600090815260056020908152604080832033845290915290205460001981146109985761097386826138b3565b6001600160a01b03851660009081526005602090815260408083203384529091529020555b505b6109a48386611e2b565b60408051828152602081018790526001600160a01b03808616929087169133917ffbde797d201c681b91056529119e0b02407c7bb96a4a2c75c01fc9667232c8db910160405180910390a4600754610a06906001600160a01b03168583611ea1565b90505b9392505050565b3360008181526005602090815260408083206001600160a01b038716808552925280832085905551919290917f8c5be1e5ebec7d5bd14f71427d1e84f3dd0314c0f7b2291e5b200ac8c7c3b92590610a6b9086815260200190565b60405180910390a350600192915050565b600061089a826000611f00565b610a94338383611f3e565b5050565b6000610aa5848484612213565b6001600160a01b03841660009081526005602090815260408083203384529091529020546000198114610b0157610adc83826138b3565b6001600160a01b03861660009081526005602090815260408083203384529091529020555b6001600160a01b03851660009081526004602052604081208054859290610b299084906138b3565b90915550506001600160a01b0380851660008181526004602052604090819020805487019055519091871690600080516020613eec83398151915290610b729087815260200190565b60405180910390a3506001949350505050565b60085460405163d15e005360e01b81526001600160a01b0391821660048201526000917f0000000000000000000000000000000000000000000000000000000000000000169063d15e0053906024016107b9565b600754604051636657732f60e01b81526001600160a01b0391821660048201526000917f00000000000000000000000000000000000000000000000000000000000000001690636657732f90602401600060405180830381865afa158015610c45573d6000803e3d6000fd5b505050506040513d6000823e601f3d908101601f19168201604052610c6d91908101906138d1565b905060005b8151811015610a9457610c9d828281518110610c9057610c9061396b565b60200260200101516122b4565b600101610c72565b60006107fa6123b5565b6008546040516335ea6a7560e01b81526001600160a01b03918216600482015260009182917f0000000000000000000000000000000000000000000000000000000000000000909116906335ea6a75906024016101e060405180830381865afa158015610d20573d6000803e3d6000fd5b505050506040513d601f19601f82011682018060405250810190610d4491906139fa565b805151909150600160381b161580610d6357508051516001603c1b1615155b80610d7957508051516702000000000000001615155b15610d875750600092915050565b80515160009060301c60ff16610d9e90600a613c01565b82515160741c640fffffffff16610db59190613c0d565b905080600003610dca57506000199392505050565b6000610e5e610dd88461244f565b8461018001516001600160801b03168561010001516001600160a01b031663b1bf962d6040518163ffffffff1660e01b8152600401602060405180830381865afa158015610e2a573d6000803e3d6000fd5b505050506040513d601f19601f82011682018060405250810190610e4e9190613850565b610e589190613c24565b906124ab565b9050818111610e7657610e7181836138b3565b610e79565b60005b95945050505050565b6040805180820190915260018152603160f81b602082015260009081906001600160a01b038a16610ec65760405162461bcd60e51b81526004016108dd9190613293565b506040805180820190915260018152601960f91b602082015242851015610f005760405162461bcd60e51b81526004016108dd9190613293565b506001600160a01b03891660009081526006602052604081205490610f23610ca5565b604080517f406ef09971b1bfa50a48ce277d3302602d78c94d58a376e8953b590702de7b3160208201526001600160a01b03808f1692820192909252908c166060820152608081018b905260a081018a905288151560c082015260e0810184905261010081018890526101200160405160208183030381529060405280519060200120604051602001610fb7929190613c37565b60408051601f1981840301815291815281516020928301206001600160a01b038e1660009081526006845291909120600185019055915061100f90829061100090880188613c52565b876020013588604001356124de565b6001600160a01b03168b6001600160a01b031614604051806040016040528060018152602001603360f81b8152509061105b5760405162461bcd60e51b81526004016108dd9190613293565b505061106a8a8a8a8a8a61250c565b925092505097509795505050505050565b60006001600160a01b03821661109357506000919050565b60408051600180825281830190925260009160208083019080368337505060075482519293506001600160a01b0316918391506000906110d5576110d561396b565b6001600160a01b0392831660209182029290920101526040516370674ab960e01b81526000917f000000000000000000000000000000000000000000000000000000000000000016906370674ab99061113690859030908990600401613c6d565b602060405180830381865afa158015611153573d6000803e3d6000fd5b505050506040513d601f19601f820116820180604052508101906111779190613850565b6040516370a0823160e01b815230600482015290915081906001600160a01b038616906370a0823190602401602060405180830381865afa1580156111c0573d6000803e3d6000fd5b505050506040513d601f19601f820116820180604052508101906111e49190613850565b6111ee9190613c24565b949350505050565b60008061120a338460008760006001612841565b50949350505050565b61121e333383611f3e565b50565b600080610e793384866000806001612841565b6001805461080c90613869565b600061124e338484612213565b336000908152600460205260408120805484929061126d9084906138b3565b90915550506001600160a01b03831660008181526004602052604090819020805485019055513390600080516020613eec83398151915290610a6b9086815260200190565b600061089a826000611de6565b6000806112d18385600088600161250c565b5095945050505050565b6000806112ed8385876000600161250c565b9695505050505050565b60006001600160a01b03821661130f57506000919050565b60408051600180825281830190925260009160208083019080368337505060075482519293506001600160a01b0316918391506000906113515761135161396b565b6001600160a01b0392831660209182029290920101526040516308d8c03760e21b81527f00000000000000000000000000000000000000000000000000000000000000009091169063236300dc906113b59084906000199030908990600401613ca0565b6020604051808303816000875af11580156113d4573d6000803e3d6000fd5b505050506040513d601f19601f82011682018060405250810190610a099190613850565b6060600980548060200260200160405190810160405280929190818152602001828054801561145057602002820191906000526020600020905b81546001600160a01b03168152600190910190602001808311611432575b5050505050905090565b6000806114676000610caf565b9050600019810361147c575060001992915050565b610a09816001611f00565b600061089a826001611f00565b6000806114a08361167f565b9050610a09816001611de6565b428410156114fd5760405162461bcd60e51b815260206004820152601760248201527f5045524d49545f444541444c494e455f4558504952454400000000000000000060448201526064016108dd565b60006115c261150a610ca5565b6001600160a01b038a811660008181526006602090815260409182902080546001810190915582517f6e71edae12b1b97f4d1f60370fef10105fa2faae0126114a169c64845d6126c98184015280840194909452938d166060840152608083018c905260a083019390935260c08083018b90528151808403909101815260e0830190915280519201919091206115a4929161010001613c37565b604051602081830303815290604052805190602001208585856124de565b9050876001600160a01b0316816001600160a01b0316146116165760405162461bcd60e51b815260206004820152600e60248201526d24a72b20a624a22fa9a4a3a722a960911b60448201526064016108dd565b6001600160a01b0390811660009081526005602090815260408083208a8516808552908352928190208990555188815291928a16917f8c5be1e5ebec7d5bd14f71427d1e84f3dd0314c0f7b2291e5b200ac8c7c3b925910160405180910390a350505050505050565b6008546040516335ea6a7560e01b81526001600160a01b0391821660048201819052600092909183917f000000000000000000000000000000000000000000000000000000000000000016906335ea6a75906024016101e060405180830381865afa1580156116f2573d6000803e3d6000fd5b505050506040513d601f19601f8201168201806040525081019061171691906139fa565b805151909150600160381b16158061173557508051516001603c1b1615155b15611744575060009392505050565b6101008101516040516370a0823160e01b81526001600160a01b0391821660048201526000916117c391908516906370a0823190602401602060405180830381865afa158015611798573d6000803e3d6000fd5b505050506040513d601f19601f820116820180604052508101906117bc9190613850565b6001611f00565b6001600160a01b03861660009081526004602052604090205490915080821015610e7957816112ed565b60006001600160a01b03821661180557506000919050565b60075460405163886fe70b60e01b81526001600160a01b03918216600482015283821660248201526000917f0000000000000000000000000000000000000000000000000000000000000000169063886fe70b906044016040805180830381865afa158015611878573d6000803e3d6000fd5b505050506040513d601f19601f820116820180604052508101906111ee9190613cd9565b6000808311604051806040016040528060018152602001600760fb1b815250906118d95760405162461bcd60e51b81526004016108dd9190613293565b506007546040516370a0823160e01b81523360048201526000916001600160a01b0316906370a0823190602401602060405180830381865afa158015611923573d6000803e3d6000fd5b505050506040513d601f19601f820116820180604052508101906119479190613850565b90506000818511611958578461195a565b815b9050600061196782611487565b6040805180820190915260018152600760fb1b6020820152909150816119a05760405162461bcd60e51b81526004016108dd9190613293565b506007546119b9906001600160a01b0316333085612b1d565b6119c38582612b56565b60408051838152602081018390526001600160a01b0387169133917fdcbc1c05240f31ff3ad067ef1ee35ce4997762752e3a095284754544f4c709d7910160405180910390a395945050505050565b6040805180820190915260018152600d60fa1b60208201526000906001600160a01b038a16611a545760405162461bcd60e51b81526004016108dd9190613293565b506040805180820190915260018152601960f91b602082015242851015611a8e5760405162461bcd60e51b81526004016108dd9190613293565b506001600160a01b03891660009081526006602052604081205490611ab1610ca5565b7f2a83c73b9e01ec0a1b95ff05940d809179668cc004230412d7047ffac3846ce78c8c8c8c8c888d8d604051602001611af299989796959493929190613cfd565b60405160208183030381529060405280519060200120604051602001611b19929190613c37565b60408051601f1981840301815291815281516020928301206001600160a01b038e16600090815260068452919091206001850190559150611b71908290611b6290870187613c52565b866020013587604001356124de565b6001600160a01b03168b6001600160a01b031614604051806040016040528060018152602001603360f81b81525090611bbd5760405162461bcd60e51b81526004016108dd9190613293565b5050606084013515611c9c5785611bdf576007546001600160a01b0316611bec565b6008546001600160a01b03165b6001600160a01b031663d505accf8b3060408801356060890135611c1660a08b0160808c01613c52565b6040516001600160e01b031960e088901b1681526001600160a01b0395861660048201529490931660248501526044840191909152606483015260ff16608482015260a087013560a482015260c087013560c482015260e401600060405180830381600087803b158015611c8957600080fd5b505af1925050508015611c9a575060015b505b6000611cad8b8b60008c8c8c612841565b509b9a5050505050505050505050565b336001600160a01b0384161480611d6e5750604051631d36517b60e21b81526001600160a01b0384811660048301527f000000000000000000000000000000000000000000000000000000000000000016906374d945ec90602401602060405180830381865afa158015611d35573d6000803e3d6000fd5b505050506040513d601f19601f82011682018060405250810190611d599190613dbc565b6001600160a01b0316336001600160a01b0316145b604051806040016040528060018152602001601b60f91b81525090611da65760405162461bcd60e51b81526004016108dd9190613293565b50611db2838383611f3e565b505050565b6001600160a01b038216600090815260046020526040812054610a099084908490611de1826117ed565b612bb4565b600080826001811115611dfb57611dfb613dd9565b03611e1957611e12611e0b610b85565b84906124ab565b905061089a565b610a09611e24610b85565b8490612cee565b611e3782600083612213565b6001600160a01b03821660009081526004602052604081208054839290611e5f9084906138b3565b90915550506003805482900390556040518181526000906001600160a01b03841690600080516020613eec833981519152906020015b60405180910390a35050565b6040516001600160a01b03838116602483015260448201839052611db291859182169063a9059cbb906064015b604051602081830303815290604052915060e01b6020820180516001600160e01b038381831617835250505050612d1f565b600080826001811115611f1557611f15613dd9565b03611f2c57611e12611f25610b85565b8490612d90565b610a09611f37610b85565b8490612dab565b60005b815181101561220d5760006001600160a01b0316828281518110611f6757611f6761396b565b60200260200101516001600160a01b03160315612205576000611fa2838381518110611f9557611f9561396b565b60200260200101516117ed565b6001600160a01b038616600090815260046020526040812054855192935091611fe8908890879087908110611fd957611fd961396b565b60200260200101518486612bb4565b90506000858581518110611ffe57611ffe61396b565b60209081029190910101516040516370a0823160e01b81523060048201526001600160a01b03909116906370a0823190602401602060405180830381865afa15801561204e573d6000803e3d6000fd5b505050506040513d601f19601f820116820180604052508101906120729190613850565b90506000818311156120ad576120a08787815181106120935761209361396b565b60200260200101516112f7565b6120aa9083613c24565b91505b818311156120c5576120bf82846138b3565b90508192505b82156121ff576120d481612dc4565b6001600160a01b038a166000908152600b6020526040812089519091908a908a9081106121035761210361396b565b6020908102919091018101516001600160a01b0316825281019190915260400160002080546001600160801b03928316600160801b02921691909117905561214a85612dc4565b6001600160a01b038a166000908152600b6020526040812089519091908a908a9081106121795761217961396b565b60200260200101516001600160a01b03166001600160a01b0316815260200190815260200160002060000160006101000a8154816001600160801b0302191690836001600160801b031602179055506121ff88848989815181106121df576121df61396b565b60200260200101516001600160a01b0316611ea19092919063ffffffff16565b50505050505b600101611f41565b50505050565b60005b60095481101561220d576000600982815481106122355761223561396b565b60009182526020822001546001600160a01b03169150612254826117ed565b90506001600160a01b0386161561227057612270868284612e31565b6001600160a01b0385161580159061229a5750846001600160a01b0316866001600160a01b031614155b156122aa576122aa858284612e31565b5050600101612216565b6001600160a01b0381166000908152600a602052604090205460ff16156122d85750565b60006122e3826117ed565b6009805460018181019092557f6e1540171b6c0c960b71a7020d9f60077f6af931a8bbf590da0223dacf75c7af0180546001600160a01b0386166001600160a01b031990911681179091556040805180820182529283526001600160f01b03841660208481019182526000848152600a909152829020935190516001600160f81b03166101000290151560ff16179092559051919250907fa8f4dd7e60441ca288d902a295362002a0255a46560b24825821b36716d6fe5b906123a99084815260200190565b60405180910390a25050565b60007f8b73c3c69bb8fe3d512ecc4cf759cc79239f7b179b0ffacaa9a75d522b39400f60006040516123e79190613def565b6040805191829003822060208301939093528101919091527fc89efdaa54c0f20c7adf612882df0950f5a951637e0307cdcb4c672f298b8bc660608201524660808201523060a082015260c00160405160208183030381529060405280519060200120905090565b60c08101516000904264ffffffffff821603612477575050602001516001600160801b031690565b610a0983602001516001600160801b031661249f85604001516001600160801b031684612f03565b90612f40565b50919050565b60008215806124b8575081155b156124c55750600061089a565b610a0983836b033b2e3c9fd0803ce80000006001612f84565b6000806000806124f088888888612fc8565b9250925092506125008282613097565b50909695505050505050565b6040805180820190915260018152603560f81b602082015260009081906001600160a01b0387166125505760405162461bcd60e51b81526004016108dd9190613293565b5084158061255c575083155b604051806040016040528060018152602001603760f81b815250906125945760405162461bcd60e51b81526004016108dd9190613293565b506040805180820190915260018152600760fb1b60208201528585036125cd5760405162461bcd60e51b81526004016108dd9190613293565b5083858015612644578415612634576125e58961167f565b8111156126345760405162461bcd60e51b815260206004820152601d60248201527f455243343632363a2072656465656d206d6f7265207468616e206d617800000060448201526064016108dd565b61263d8161088d565b91506126ae565b84156126a25761265389611494565b8211156126a25760405162461bcd60e51b815260206004820152601f60248201527f455243343632363a207769746864726177206d6f7265207468616e206d61780060448201526064016108dd565b6126ab82610a7c565b90505b336001600160a01b038a161461271c576001600160a01b0389166000908152600560209081526040808320338452909152902054600019811461271a576126f582826138b3565b6001600160a01b038b1660009081526005602090815260408083203384529091529020555b505b6127268982611e2b565b60408051838152602081018390526001600160a01b03808c1692908b169133917ffbde797d201c681b91056529119e0b02407c7bb96a4a2c75c01fc9667232c8db910160405180910390a4841561281d57600854604051631a4ca37b60e21b81526001600160a01b0391821660048201526024810184905289821660448201527f0000000000000000000000000000000000000000000000000000000000000000909116906369328dec906064016020604051808303816000875af11580156127f3573d6000803e3d6000fd5b505050506040513d601f19601f820116820180604052508101906128179190613850565b50612834565b600754612834906001600160a01b03168984611ea1565b9890975095505050505050565b6040805180820190915260018152603560f81b602082015260009081906001600160a01b0388166128855760405162461bcd60e51b81526004016108dd9190613293565b50851580612891575084155b604051806040016040528060018152602001603760f81b815250906128c95760405162461bcd60e51b81526004016108dd9190613293565b5084868015612940578415612930576128e18961145a565b8111156129305760405162461bcd60e51b815260206004820152601b60248201527f455243343632363a206d696e74206d6f7265207468616e206d6178000000000060448201526064016108dd565b612939816112b2565b91506129aa565b841561299e5761294f89610caf565b82111561299e5760405162461bcd60e51b815260206004820152601e60248201527f455243343632363a206465706f736974206d6f7265207468616e206d6178000060448201526064016108dd565b6129a782611487565b90505b6040805180820190915260018152600760fb1b6020820152816129e05760405162461bcd60e51b81526004016108dd9190613293565b508415612a97576008546001600160a01b03166129ff818c3086612b1d565b60405163e8eda9df60e01b81526001600160a01b0382811660048301526024820185905230604483015261ffff891660648301527f0000000000000000000000000000000000000000000000000000000000000000169063e8eda9df90608401600060405180830381600087803b158015612a7957600080fd5b505af1158015612a8d573d6000803e3d6000fd5b5050505050612aaf565b600754612aaf906001600160a01b03168b3085612b1d565b612ab98982612b56565b886001600160a01b03168a6001600160a01b03167fdcbc1c05240f31ff3ad067ef1ee35ce4997762752e3a095284754544f4c709d78484604051612b07929190918252602082015260400190565b60405180910390a3999098509650505050505050565b6040516001600160a01b03848116602483015283811660448301526064820183905261220d9186918216906323b872dd90608401611ece565b612b6260008383612213565b8060036000828254612b749190613c24565b90915550506001600160a01b038216600081815260046020908152604080832080548601905551848152600080516020613eec8339815191529101611e95565b6001600160a01b0383166000908152600a6020908152604080832081518083018352905460ff811615158083526101009091046001600160f81b03168285015282518084019093526001808452603960f81b94840194909452909214612c2d5760405162461bcd60e51b81526004016108dd9190613293565b506001600160a01b038087166000908152600b6020908152604080832093891683529281528282208351808501909452546001600160801b038082168552600160801b9091041690830152600254612c899060ff16600a613e90565b9050612cca8683600001516001600160801b0316600014612cb45783516001600160801b0316612cba565b84602001515b6001600160f81b03168784613150565b82602001516001600160801b0316612ce29190613c24565b98975050505050505050565b6000821580612cfb575081155b15612d085750600061089a565b610a0983836b033b2e3c9fd0803ce8000000613181565b600080602060008451602086016000885af180612d42576040513d6000823e3d81fd5b50506000513d91508115612d5a578060011415612d67565b6001600160a01b0384163b155b1561220d57604051635274afe760e01b81526001600160a01b03851660048201526024016108dd565b6000610a09836b033b2e3c9fd0803ce8000000846001612f84565b6000610a09836b033b2e3c9fd0803ce800000084613181565b60006001600160801b03821115612e2d5760405162461bcd60e51b815260206004820152602760248201527f53616665436173743a2076616c756520646f65736e27742066697420696e20316044820152663238206269747360c81b60648201526084016108dd565b5090565b6001600160a01b0383166000908152600460205260409020548015612ea557612e64612e5f85848487612bb4565b612dc4565b6001600160a01b038086166000908152600b6020908152604080832093871683529290522080546001600160801b03928316600160801b0292169190911790555b612eae83612dc4565b6001600160a01b039485166000908152600b60209081526040808320959097168252939093529390912080546fffffffffffffffffffffffffffffffff19166001600160801b03909416939093179092555050565b600080612f1764ffffffffff8416426138b3565b612f219085613c0d565b6301e13380900490506111ee816b033b2e3c9fd0803ce8000000613c24565b600081156b019d971e4fe8401e740000001983900484111517612f6257600080fd5b506b033b2e3c9fd0803ce800000091026b019d971e4fe8401e74000000010490565b6000612fb3612f9283613236565b8015612fae575060008480612fa957612fa9613e9f565b868809115b151590565b612fbe868686613181565b610e799190613c24565b600080807f7fffffffffffffffffffffffffffffff5d576e7357a4501ddfe92f46681b20a0841115613003575060009150600390508261308d565b604080516000808252602082018084528a905260ff891692820192909252606081018790526080810186905260019060a0016020604051602081039080840390855afa158015613057573d6000803e3d6000fd5b5050604051601f1901519150506001600160a01b0381166130835750600092506001915082905061308d565b9250600091508190505b9450945094915050565b60008260038111156130ab576130ab613dd9565b036130b4575050565b60018260038111156130c8576130c8613dd9565b036130e65760405163f645eedf60e01b815260040160405180910390fd5b60028260038111156130fa576130fa613dd9565b0361311b5760405163fce698f760e01b8152600481018290526024016108dd565b600382600381111561312f5761312f613dd9565b03610a94576040516335e2f38360e21b8152600481018290526024016108dd565b600084600003613162575060006111ee565b8161316d85856138b3565b6131779087613c0d565b610e799190613eb5565b60008060006131908686613263565b91509150816000036131b5578381816131ab576131ab613e9f565b0492505050610a09565b8184116131cc576131cc6003851502601118613281565b6000848688096000868103871696879004966002600389028118808a02820302808a02820302808a02820302808a02820302808a02820302808a02909103029181900381900460010185841190960395909502919093039390930492909217029150509392505050565b6000600282600381111561324c5761324c613dd9565b6132569190613ec9565b60ff166001149050919050565b60008060001983850993909202808410938190039390930393915050565b634e487b71600052806020526024601cfd5b60006020808352835180602085015260005b818110156132c1578581018301518582016040015282016132a5565b506000604082860101526040601f19601f8301168501019250505092915050565b6000602082840312156132f457600080fd5b5035919050565b6001600160a01b038116811461121e57600080fd5b60008060006060848603121561332557600080fd5b833592506020840135613337816132fb565b91506040840135613347816132fb565b809150509250925092565b6000806040838503121561336557600080fd5b8235613370816132fb565b946020939093013593505050565b634e487b7160e01b600052604160045260246000fd5b6040516101e0810167ffffffffffffffff811182821017156133b8576133b861337e565b60405290565b604051601f8201601f1916810167ffffffffffffffff811182821017156133e7576133e761337e565b604052919050565b600067ffffffffffffffff8211156134095761340961337e565b5060051b60200190565b600082601f83011261342457600080fd5b81356020613439613434836133ef565b6133be565b8083825260208201915060208460051b87010193508684111561345b57600080fd5b602086015b84811015613480578035613473816132fb565b8352918301918301613460565b509695505050505050565b6000806040838503121561349e57600080fd5b82356134a9816132fb565b9150602083013567ffffffffffffffff8111156134c557600080fd5b6134d185828601613413565b9150509250929050565b6000806000606084860312156134f057600080fd5b83356134fb816132fb565b9250602084013561350b816132fb565b929592945050506040919091013590565b60006020828403121561352e57600080fd5b8135610a09816132fb565b8035801515811461354957600080fd5b919050565b6000606082840312156124a557600080fd5b6000806000806000806000610120888a03121561357c57600080fd5b8735613587816132fb565b96506020880135613597816132fb565b955060408801359450606088013593506135b360808901613539565b925060a088013591506135c98960c08a0161354e565b905092959891949750929550565b600080604083850312156135ea57600080fd5b8235915060208301356135fc816132fb565b809150509250929050565b6000806040838503121561361a57600080fd5b8235613625816132fb565b915060208301356135fc816132fb565b60006020828403121561364757600080fd5b813567ffffffffffffffff81111561365e57600080fd5b6111ee84828501613413565b60008151808452602080850194506020840160005b838110156136a45781516001600160a01b03168752958201959082019060010161367f565b509495945050505050565b602081526000610a09602083018461366a565b803560ff8116811461354957600080fd5b600080600080600080600060e0888a0312156136ee57600080fd5b87356136f9816132fb565b96506020880135613709816132fb565b95506040880135945060608801359350613725608089016136c2565b925060a0880135915060c0880135905092959891949750929550565b61ffff8116811461121e57600080fd5b600080600080600080600080888a0361020081121561376f57600080fd5b893561377a816132fb565b985060208a013561378a816132fb565b975060408a0135965060608a01356137a181613741565b95506137af60808b01613539565b945060a08a0135935060e060bf19820112156137ca57600080fd5b5060c0890191506137df8a6101a08b0161354e565b90509295985092959890939650565b60008060006060848603121561380357600080fd5b833561380e816132fb565b9250602084013561381e816132fb565b9150604084013567ffffffffffffffff81111561383a57600080fd5b61384686828701613413565b9150509250925092565b60006020828403121561386257600080fd5b5051919050565b600181811c9082168061387d57607f821691505b6020821081036124a557634e487b7160e01b600052602260045260246000fd5b634e487b7160e01b600052601160045260246000fd5b8181038181111561089a5761089a61389d565b8051613549816132fb565b600060208083850312156138e457600080fd5b825167ffffffffffffffff8111156138fb57600080fd5b8301601f8101851361390c57600080fd5b805161391a613434826133ef565b81815260059190911b8201830190838101908783111561393957600080fd5b928401925b82841015613960578351613951816132fb565b8252928401929084019061393e565b979650505050505050565b634e487b7160e01b600052603260045260246000fd5b60006020828403121561399357600080fd5b6040516020810181811067ffffffffffffffff821117156139b6576139b661337e565b6040529151825250919050565b80516001600160801b038116811461354957600080fd5b805164ffffffffff8116811461354957600080fd5b805161354981613741565b60006101e08284031215613a0d57600080fd5b613a15613394565b613a1f8484613981565b8152613a2d602084016139c3565b6020820152613a3e604084016139c3565b6040820152613a4f606084016139c3565b6060820152613a60608084016139c3565b6080820152613a7160a084016139c3565b60a0820152613a8260c084016139da565b60c0820152613a9360e084016139ef565b60e0820152610100613aa68185016138c6565b90820152610120613ab88482016138c6565b90820152610140613aca8482016138c6565b90820152610160613adc8482016138c6565b90820152610180613aee8482016139c3565b908201526101a0613b008482016139c3565b908201526101c0613b128482016139c3565b908201529392505050565b600181815b80851115613b58578160001904821115613b3e57613b3e61389d565b80851615613b4b57918102915b93841c9390800290613b22565b509250929050565b600082613b6f5750600161089a565b81613b7c5750600061089a565b8160018114613b925760028114613b9c57613bb8565b600191505061089a565b60ff841115613bad57613bad61389d565b50506001821b61089a565b5060208310610133831016604e8410600b8410161715613bdb575081810a61089a565b613be58383613b1d565b8060001904821115613bf957613bf961389d565b029392505050565b6000610a098383613b60565b808202811582820484141761089a5761089a61389d565b8082018082111561089a5761089a61389d565b61190160f01b81526002810192909252602282015260420190565b600060208284031215613c6457600080fd5b610a09826136c2565b606081526000613c80606083018661366a565b6001600160a01b0394851660208401529290931660409091015292915050565b608081526000613cb3608083018761366a565b6020830195909552506001600160a01b0392831660408201529116606090910152919050565b60008060408385031215613cec57600080fd5b505080516020909101519092909150565b8981526001600160a01b03898116602083015288811660408301526060820188905261ffff8716608083015285151560a083015260c0820185905260e082018490526101e08201908335613d50816132fb565b81166101008401526020840135613d66816132fb565b166101208301526040830135610140830152606083013561016083015260ff613d91608085016136c2565b1661018083015260a08301356101a083015260c08301356101c08301529a9950505050505050505050565b600060208284031215613dce57600080fd5b8151610a09816132fb565b634e487b7160e01b600052602160045260246000fd5b60008083548160018260011c91506001831680613e0d57607f831692505b60208084108203613e2c57634e487b7160e01b86526022600452602486fd5b818015613e405760018114613e5557613e82565b60ff1986168952841515850289019650613e82565b60008a81526020902060005b86811015613e7a5781548b820152908501908301613e61565b505084890196505b509498975050505050505050565b6000610a0960ff841683613b60565b634e487b7160e01b600052601260045260246000fd5b600082613ec457613ec4613e9f565b500490565b600060ff831680613edc57613edc613e9f565b8060ff8416069150509291505056feddf252ad1be2c89b69c2b068fc378daa952ba7f163c4a11628f55a4df523b3efa2646970667358221220b16df4794fae04153ab6dae952c023436f66f58eca4f3b088462284539a12dd064736f6c63430008160033a26469706673582212205c5b299ae0f224afda36b65f10531d0a3d8d1eadac9a9d4e0afce89874df707364736f6c63430008160033",
  "devdoc": {
    "author": "BGD labs (modified by Colt)",
    "kind": "dev",
    "methods": {
      "createStaticATokens(address[])": {
        "params": {
          "underlyings": "the addresses of the underlyings to create."
        },
        "returns": {
          "_0": "address[] addresses of the new staticATokens."
        }
      },
      "getStaticAToken(address)": {
        "params": {
          "underlying": "the address of the underlying."
        },
        "returns": {
          "_0": "address the staticAToken address."
        }
      },
      "getStaticATokens()": {
        "returns": {
          "_0": "address[] list of tokens"
        }
      }
    },
    "title": "StaticATokenFactory",
    "version": 1
  },
  "userdoc": {
    "kind": "user",
    "methods": {
      "createStaticATokens(address[])": {
        "notice": "Creates new staticATokens"
      },
      "getStaticAToken(address)": {
        "notice": "Returns the staticAToken for a given underlying."
      },
      "getStaticATokens()": {
        "notice": "Returns all tokens deployed via this registry."
      }
    },
    "notice": "Factory contract that keeps track of all deployed static aToken wrappers for a specified pool. This registry also acts as a factory, allowing to deploy new static aTokens on demand. There can only be one static aToken per underlying on the registry at a time.",
    "version": 1
  },
  "storageLayout": {
    "storage": [
      {
        "astId": 67189,
        "contract": "contracts/vaults/atoken_wrapper/StaticATokenFactory.sol:StaticATokenFactory",
        "label": "_underlyingToStaticAToken",
        "offset": 0,
        "slot": "0",
        "type": "t_mapping(t_address,t_address)"
      },
      {
        "astId": 67192,
        "contract": "contracts/vaults/atoken_wrapper/StaticATokenFactory.sol:StaticATokenFactory",
        "label": "_staticATokens",
        "offset": 0,
        "slot": "1",
        "type": "t_array(t_address)dyn_storage"
      }
    ],
    "types": {
      "t_address": {
        "encoding": "inplace",
        "label": "address",
        "numberOfBytes": "20"
      },
      "t_array(t_address)dyn_storage": {
        "base": "t_address",
        "encoding": "dynamic_array",
        "label": "address[]",
        "numberOfBytes": "32"
      },
      "t_mapping(t_address,t_address)": {
        "encoding": "mapping",
        "key": "t_address",
        "label": "mapping(address => address)",
        "numberOfBytes": "32",
        "value": "t_address"
      }
    }
  }
}