{
  "address": "0xE374b972E7EbDA9f5a27eD281cb71f95c9549121",
  "abi": [
    {
      "inputs": [
        {
          "internalType": "contract IPoolAddressesProvider",
          "name": "addressesProvider",
          "type": "address"
        }
      ],
      "stateMutability": "nonpayable",
      "type": "constructor"
    },
    {
      "inputs": [],
      "name": "ADDRESSES_PROVIDER",
      "outputs": [
        {
          "internalType": "contract IPoolAddressesProvider",
          "name": "",
          "type": "address"
        }
      ],
      "stateMutability": "view",
      "type": "function"
    },
    {
      "inputs": [
        {
          "internalType": "address",
          "name": "asset",
          "type": "address"
        }
      ],
      "name": "getATokenTotalSupply",
      "outputs": [
        {
          "internalType": "uint256",
          "name": "",
          "type": "uint256"
        }
      ],
      "stateMutability": "view",
      "type": "function"
    },
    {
      "inputs": [],
      "name": "getAllATokens",
      "outputs": [
        {
          "components": [
            {
              "internalType": "string",
              "name": "symbol",
              "type": "string"
            },
            {
              "internalType": "address",
              "name": "tokenAddress",
              "type": "address"
            }
          ],
          "internalType": "struct IPoolDataProvider.TokenData[]",
          "name": "",
          "type": "tuple[]"
        }
      ],
      "stateMutability": "view",
      "type": "function"
    },
    {
      "inputs": [],
      "name": "getAllReservesTokens",
      "outputs": [
        {
          "components": [
            {
              "internalType": "string",
              "name": "symbol",
              "type": "string"
            },
            {
              "internalType": "address",
              "name": "tokenAddress",
              "type": "address"
            }
          ],
          "internalType": "struct IPoolDataProvider.TokenData[]",
          "name": "",
          "type": "tuple[]"
        }
      ],
      "stateMutability": "view",
      "type": "function"
    },
    {
      "inputs": [
        {
          "internalType": "address",
          "name": "asset",
          "type": "address"
        }
      ],
      "name": "getDebtCeiling",
      "outputs": [
        {
          "internalType": "uint256",
          "name": "",
          "type": "uint256"
        }
      ],
      "stateMutability": "view",
      "type": "function"
    },
    {
      "inputs": [],
      "name": "getDebtCeilingDecimals",
      "outputs": [
        {
          "internalType": "uint256",
          "name": "",
          "type": "uint256"
        }
      ],
      "stateMutability": "pure",
      "type": "function"
    },
    {
      "inputs": [
        {
          "internalType": "address",
          "name": "asset",
          "type": "address"
        }
      ],
      "name": "getFlashLoanEnabled",
      "outputs": [
        {
          "internalType": "bool",
          "name": "",
          "type": "bool"
        }
      ],
      "stateMutability": "view",
      "type": "function"
    },
    {
      "inputs": [
        {
          "internalType": "address",
          "name": "asset",
          "type": "address"
        }
      ],
      "name": "getInterestRateStrategyAddress",
      "outputs": [
        {
          "internalType": "address",
          "name": "irStrategyAddress",
          "type": "address"
        }
      ],
      "stateMutability": "view",
      "type": "function"
    },
    {
      "inputs": [
        {
          "internalType": "address",
          "name": "asset",
          "type": "address"
        }
      ],
      "name": "getLiquidationProtocolFee",
      "outputs": [
        {
          "internalType": "uint256",
          "name": "",
          "type": "uint256"
        }
      ],
      "stateMutability": "view",
      "type": "function"
    },
    {
      "inputs": [
        {
          "internalType": "address",
          "name": "asset",
          "type": "address"
        }
      ],
      "name": "getPaused",
      "outputs": [
        {
          "internalType": "bool",
          "name": "isPaused",
          "type": "bool"
        }
      ],
      "stateMutability": "view",
      "type": "function"
    },
    {
      "inputs": [
        {
          "internalType": "address",
          "name": "asset",
          "type": "address"
        }
      ],
      "name": "getReserveCaps",
      "outputs": [
        {
          "internalType": "uint256",
          "name": "borrowCap",
          "type": "uint256"
        },
        {
          "internalType": "uint256",
          "name": "supplyCap",
          "type": "uint256"
        }
      ],
      "stateMutability": "view",
      "type": "function"
    },
    {
      "inputs": [
        {
          "internalType": "address",
          "name": "asset",
          "type": "address"
        }
      ],
      "name": "getReserveConfigurationData",
      "outputs": [
        {
          "internalType": "uint256",
          "name": "decimals",
          "type": "uint256"
        },
        {
          "internalType": "uint256",
          "name": "ltv",
          "type": "uint256"
        },
        {
          "internalType": "uint256",
          "name": "liquidationThreshold",
          "type": "uint256"
        },
        {
          "internalType": "uint256",
          "name": "liquidationBonus",
          "type": "uint256"
        },
        {
          "internalType": "uint256",
          "name": "reserveFactor",
          "type": "uint256"
        },
        {
          "internalType": "bool",
          "name": "usageAsCollateralEnabled",
          "type": "bool"
        },
        {
          "internalType": "bool",
          "name": "borrowingEnabled",
          "type": "bool"
        },
        {
          "internalType": "bool",
          "name": "stableBorrowRateEnabled",
          "type": "bool"
        },
        {
          "internalType": "bool",
          "name": "isActive",
          "type": "bool"
        },
        {
          "internalType": "bool",
          "name": "isFrozen",
          "type": "bool"
        }
      ],
      "stateMutability": "view",
      "type": "function"
    },
    {
      "inputs": [
        {
          "internalType": "address",
          "name": "asset",
          "type": "address"
        }
      ],
      "name": "getReserveData",
      "outputs": [
        {
          "internalType": "uint256",
          "name": "unbacked",
          "type": "uint256"
        },
        {
          "internalType": "uint256",
          "name": "accruedToTreasuryScaled",
          "type": "uint256"
        },
        {
          "internalType": "uint256",
          "name": "totalAToken",
          "type": "uint256"
        },
        {
          "internalType": "uint256",
          "name": "totalStableDebt",
          "type": "uint256"
        },
        {
          "internalType": "uint256",
          "name": "totalVariableDebt",
          "type": "uint256"
        },
        {
          "internalType": "uint256",
          "name": "liquidityRate",
          "type": "uint256"
        },
        {
          "internalType": "uint256",
          "name": "variableBorrowRate",
          "type": "uint256"
        },
        {
          "internalType": "uint256",
          "name": "stableBorrowRate",
          "type": "uint256"
        },
        {
          "internalType": "uint256",
          "name": "averageStableBorrowRate",
          "type": "uint256"
        },
        {
          "internalType": "uint256",
          "name": "liquidityIndex",
          "type": "uint256"
        },
        {
          "internalType": "uint256",
          "name": "variableBorrowIndex",
          "type": "uint256"
        },
        {
          "internalType": "uint40",
          "name": "lastUpdateTimestamp",
          "type": "uint40"
        }
      ],
      "stateMutability": "view",
      "type": "function"
    },
    {
      "inputs": [
        {
          "internalType": "address",
          "name": "asset",
          "type": "address"
        }
      ],
      "name": "getReserveEModeCategory",
      "outputs": [
        {
          "internalType": "uint256",
          "name": "",
          "type": "uint256"
        }
      ],
      "stateMutability": "view",
      "type": "function"
    },
    {
      "inputs": [
        {
          "internalType": "address",
          "name": "asset",
          "type": "address"
        }
      ],
      "name": "getReserveTokensAddresses",
      "outputs": [
        {
          "internalType": "address",
          "name": "aTokenAddress",
          "type": "address"
        },
        {
          "internalType": "address",
          "name": "stableDebtTokenAddress",
          "type": "address"
        },
        {
          "internalType": "address",
          "name": "variableDebtTokenAddress",
          "type": "address"
        }
      ],
      "stateMutability": "view",
      "type": "function"
    },
    {
      "inputs": [
        {
          "internalType": "address",
          "name": "asset",
          "type": "address"
        }
      ],
      "name": "getSiloedBorrowing",
      "outputs": [
        {
          "internalType": "bool",
          "name": "",
          "type": "bool"
        }
      ],
      "stateMutability": "view",
      "type": "function"
    },
    {
      "inputs": [
        {
          "internalType": "address",
          "name": "asset",
          "type": "address"
        }
      ],
      "name": "getTotalDebt",
      "outputs": [
        {
          "internalType": "uint256",
          "name": "",
          "type": "uint256"
        }
      ],
      "stateMutability": "view",
      "type": "function"
    },
    {
      "inputs": [
        {
          "internalType": "address",
          "name": "asset",
          "type": "address"
        }
      ],
      "name": "getUnbackedMintCap",
      "outputs": [
        {
          "internalType": "uint256",
          "name": "",
          "type": "uint256"
        }
      ],
      "stateMutability": "view",
      "type": "function"
    },
    {
      "inputs": [
        {
          "internalType": "address",
          "name": "asset",
          "type": "address"
        },
        {
          "internalType": "address",
          "name": "user",
          "type": "address"
        }
      ],
      "name": "getUserReserveData",
      "outputs": [
        {
          "internalType": "uint256",
          "name": "currentATokenBalance",
          "type": "uint256"
        },
        {
          "internalType": "uint256",
          "name": "currentStableDebt",
          "type": "uint256"
        },
        {
          "internalType": "uint256",
          "name": "currentVariableDebt",
          "type": "uint256"
        },
        {
          "internalType": "uint256",
          "name": "principalStableDebt",
          "type": "uint256"
        },
        {
          "internalType": "uint256",
          "name": "scaledVariableDebt",
          "type": "uint256"
        },
        {
          "internalType": "uint256",
          "name": "stableBorrowRate",
          "type": "uint256"
        },
        {
          "internalType": "uint256",
          "name": "liquidityRate",
          "type": "uint256"
        },
        {
          "internalType": "uint40",
          "name": "stableRateLastUpdated",
          "type": "uint40"
        },
        {
          "internalType": "bool",
          "name": "usageAsCollateralEnabled",
          "type": "bool"
        }
      ],
      "stateMutability": "view",
      "type": "function"
    }
  ],
  "transactionHash": "0x229a176e5afe69f550a5426b6e64016cef9754674c681864aa674c3de40e6e2c",
  "args": [
    "0xFc320F58632d82035FDD5340a5D68B695A8Ca914"
  ],
  "numDeployments": 1,
  "solcInputHash": "2527ebfec9c9a604caa210608c9d74c8",
  "bytecode": "0x60a06040523480156200001157600080fd5b50604051620028fe380380620028fe833981016040819052620000349162000046565b6001600160a01b031660805262000078565b6000602082840312156200005957600080fd5b81516001600160a01b03811681146200007157600080fd5b9392505050565b6080516127ec620001126000396000818161012b0152818161040e0152818161051e0152818161061101528181610a8601528181610dcd01528181610ed401528181610fde0152818161112c015281816112400152818161140c01528181611567015281816116670152818161176701528181611aec01528181611bef01528181611d0101528181611e0901526120ba01526127ec6000f3fe608060405234801561001057600080fd5b50600436106101215760003560e01c806351460e25116100ad578063b55d990411610071578063b55d99041461037b578063d2493b6c1461039e578063d7ed3ef4146103db578063f561ae41146103ee578063fcf40a62146103f657600080fd5b806351460e25146103265780636744362a1461033957806369b169e11461034c5780637ba1ae3614610353578063b316ff891461036657600080fd5b80633c798109116100f45780633c7981091461025e5780633cb8a622146102715780633e1501411461028457806346fbe558146102eb5780634d44ac4f1461031357600080fd5b80630542975c14610126578063163a0f201461016a57806328dd2d011461018b57806335ea6a75146101eb575b600080fd5b61014d7f000000000000000000000000000000000000000000000000000000000000000081565b6040516001600160a01b0390911681526020015b60405180910390f35b61017d61017836600461226e565b610409565b604051908152602001610161565b61019e61019936600461228b565b61050d565b60408051998a5260208a0198909852968801959095526060870193909352608086019190915260a085015260c084015264ffffffffff1660e0830152151561010082015261012001610161565b6101fe6101f936600461226e565b610a70565b604080519c8d5260208d019b909b52998b019890985260608a0196909652608089019490945260a088019290925260c087015260e086015261010085015261012084015261014083015264ffffffffff1661016082015261018001610161565b61017d61026c36600461226e565b610dc6565b61017d61027f36600461226e565b610ecd565b61029761029236600461226e565b610fcb565b604080519a8b5260208b01999099529789019690965260608801949094526080870192909252151560a0860152151560c0850152151560e08401521515610100830152151561012082015261014001610161565b6102fe6102f936600461226e565b611124565b60408051928352602083019190915201610161565b61017d61032136600461226e565b61123b565b61017d61033436600461226e565b611407565b61014d61034736600461226e565b611562565b600261017d565b61017d61036136600461226e565b611660565b61036e611761565b6040516101619190612314565b61038e61038936600461226e565b611ae5565b6040519015158152602001610161565b6103b16103ac36600461226e565b611be7565b604080516001600160a01b0394851681529284166020840152921691810191909152606001610161565b61038e6103e936600461226e565b611cfc565b61036e611e03565b61038e61040436600461226e565b6120b3565b6000807f00000000000000000000000000000000000000000000000000000000000000006001600160a01b031663026b1d5f6040518163ffffffff1660e01b8152600401602060405180830381865afa15801561046a573d6000803e3d6000fd5b505050506040513d601f19601f8201168201806040525081019061048e91906123a5565b60405163c44b11f760e01b81526001600160a01b038581166004830152919091169063c44b11f790602401602060405180830381865afa1580156104d6573d6000803e3d6000fd5b505050506040513d601f19601f820116820180604052508101906104fa9190612475565b805190915060a81c60ff165b9392505050565b6000806000806000806000806000807f00000000000000000000000000000000000000000000000000000000000000006001600160a01b031663026b1d5f6040518163ffffffff1660e01b8152600401602060405180830381865afa15801561057a573d6000803e3d6000fd5b505050506040513d601f19601f8201168201806040525081019061059e91906123a5565b6040516335ea6a7560e01b81526001600160a01b038e8116600483015291909116906335ea6a75906024016101e060405180830381865afa1580156105e7573d6000803e3d6000fd5b505050506040513d601f19601f8201168201806040525081019061060b91906124cf565b905060007f00000000000000000000000000000000000000000000000000000000000000006001600160a01b031663026b1d5f6040518163ffffffff1660e01b8152600401602060405180830381865afa15801561066d573d6000803e3d6000fd5b505050506040513d601f19601f8201168201806040525081019061069191906123a5565b604051634417a58360e01b81526001600160a01b038e811660048301529190911690634417a58390602401602060405180830381865afa1580156106d9573d6000803e3d6000fd5b505050506040513d601f19601f820116820180604052508101906106fd9190612475565b6101008301516040516370a0823160e01b81526001600160a01b038f811660048301529293509116906370a0823190602401602060405180830381865afa15801561074c573d6000803e3d6000fd5b505050506040513d601f19601f8201168201806040525081019061077091906125f2565b6101408301516040516370a0823160e01b81526001600160a01b038f81166004830152929d509116906370a0823190602401602060405180830381865afa1580156107bf573d6000803e3d6000fd5b505050506040513d601f19601f820116820180604052508101906107e391906125f2565b6101208301516040516370a0823160e01b81526001600160a01b038f81166004830152929b509116906370a0823190602401602060405180830381865afa158015610832573d6000803e3d6000fd5b505050506040513d601f19601f8201168201806040525081019061085691906125f2565b61012083015160405163631a6fd560e11b81526001600160a01b038f81166004830152929c5091169063c634dfaa90602401602060405180830381865afa1580156108a5573d6000803e3d6000fd5b505050506040513d601f19601f820116820180604052508101906108c991906125f2565b610140830151604051630ed1279f60e11b81526001600160a01b038f81166004830152929a50911690631da24f3e90602401602060405180830381865afa158015610918573d6000803e3d6000fd5b505050506040513d601f19601f8201168201806040525081019061093c91906125f2565b965081604001516001600160801b031694508161012001516001600160a01b031663e78c9b3b8d6040518263ffffffff1660e01b815260040161098e91906001600160a01b0391909116815260200190565b602060405180830381865afa1580156109ab573d6000803e3d6000fd5b505050506040513d601f19601f820116820180604052508101906109cf91906125f2565b610120830151604051631e739ae360e21b81526001600160a01b038f811660048301529298509116906379ce6b8c90602401602060405180830381865afa158015610a1e573d6000803e3d6000fd5b505050506040513d601f19601f82011682018060405250810190610a42919061260b565b9350610a5f8260e0015161ffff16826121b690919063ffffffff16565b925050509295985092959850929598565b60008060008060008060008060008060008060007f00000000000000000000000000000000000000000000000000000000000000006001600160a01b031663026b1d5f6040518163ffffffff1660e01b8152600401602060405180830381865afa158015610ae2573d6000803e3d6000fd5b505050506040513d601f19601f82011682018060405250810190610b0691906123a5565b6001600160a01b03166335ea6a758f6040518263ffffffff1660e01b8152600401610b4091906001600160a01b0391909116815260200190565b6101e060405180830381865afa158015610b5e573d6000803e3d6000fd5b505050506040513d601f19601f82011682018060405250810190610b8291906124cf565b9050806101a001518161018001518261010001516001600160a01b03166318160ddd6040518163ffffffff1660e01b8152600401602060405180830381865afa158015610bd3573d6000803e3d6000fd5b505050506040513d601f19601f82011682018060405250810190610bf791906125f2565b8361012001516001600160a01b03166318160ddd6040518163ffffffff1660e01b8152600401602060405180830381865afa158015610c3a573d6000803e3d6000fd5b505050506040513d601f19601f82011682018060405250810190610c5e91906125f2565b8461014001516001600160a01b03166318160ddd6040518163ffffffff1660e01b8152600401602060405180830381865afa158015610ca1573d6000803e3d6000fd5b505050506040513d601f19601f82011682018060405250810190610cc591906125f2565b856040015186608001518760a001518861012001516001600160a01b03166390f6fcf26040518163ffffffff1660e01b8152600401602060405180830381865afa158015610d17573d6000803e3d6000fd5b505050506040513d601f19601f82011682018060405250810190610d3b91906125f2565b89602001518a606001518b60c001518b6001600160801b03169b508a6001600160801b03169a50866001600160801b03169650856001600160801b03169550846001600160801b03169450826001600160801b03169250816001600160801b031691509c509c509c509c509c509c509c509c509c509c509c509c505091939597999b5091939597999b565b6000610ec77f00000000000000000000000000000000000000000000000000000000000000006001600160a01b031663026b1d5f6040518163ffffffff1660e01b8152600401602060405180830381865afa158015610e29573d6000803e3d6000fd5b505050506040513d601f19601f82011682018060405250810190610e4d91906123a5565b60405163c44b11f760e01b81526001600160a01b038581166004830152919091169063c44b11f790602401602060405180830381865afa158015610e95573d6000803e3d6000fd5b505050506040513d601f19601f82011682018060405250810190610eb99190612475565b5160d41c64ffffffffff1690565b92915050565b6000610ec77f00000000000000000000000000000000000000000000000000000000000000006001600160a01b031663026b1d5f6040518163ffffffff1660e01b8152600401602060405180830381865afa158015610f30573d6000803e3d6000fd5b505050506040513d601f19601f82011682018060405250810190610f5491906123a5565b60405163c44b11f760e01b81526001600160a01b038581166004830152919091169063c44b11f790602401602060405180830381865afa158015610f9c573d6000803e3d6000fd5b505050506040513d601f19601f82011682018060405250810190610fc09190612475565b5160981c61ffff1690565b60008060008060008060008060008060007f00000000000000000000000000000000000000000000000000000000000000006001600160a01b031663026b1d5f6040518163ffffffff1660e01b8152600401602060405180830381865afa15801561103a573d6000803e3d6000fd5b505050506040513d601f19601f8201168201806040525081019061105e91906123a5565b60405163c44b11f760e01b81526001600160a01b038e81166004830152919091169063c44b11f790602401602060405180830381865afa1580156110a6573d6000803e3d6000fd5b505050506040513d601f19601f820116820180604052508101906110ca9190612475565b8051603081901c60ff169c5061ffff8082169c50601082901c81169b50602082901c81169a5060409190911c16975090506111048161220e565b509d9f9c9e509a9c999b989a8d15159a9099909850919650945092505050565b6000806112317f00000000000000000000000000000000000000000000000000000000000000006001600160a01b031663026b1d5f6040518163ffffffff1660e01b8152600401602060405180830381865afa158015611188573d6000803e3d6000fd5b505050506040513d601f19601f820116820180604052508101906111ac91906123a5565b60405163c44b11f760e01b81526001600160a01b038681166004830152919091169063c44b11f790602401602060405180830381865afa1580156111f4573d6000803e3d6000fd5b505050506040513d601f19601f820116820180604052508101906112189190612475565b51640fffffffff605082901c81169260749290921c1690565b9094909350915050565b6000807f00000000000000000000000000000000000000000000000000000000000000006001600160a01b031663026b1d5f6040518163ffffffff1660e01b8152600401602060405180830381865afa15801561129c573d6000803e3d6000fd5b505050506040513d601f19601f820116820180604052508101906112c091906123a5565b6040516335ea6a7560e01b81526001600160a01b03858116600483015291909116906335ea6a75906024016101e060405180830381865afa158015611309573d6000803e3d6000fd5b505050506040513d601f19601f8201168201806040525081019061132d91906124cf565b90508061014001516001600160a01b03166318160ddd6040518163ffffffff1660e01b8152600401602060405180830381865afa158015611372573d6000803e3d6000fd5b505050506040513d601f19601f8201168201806040525081019061139691906125f2565b8161012001516001600160a01b03166318160ddd6040518163ffffffff1660e01b8152600401602060405180830381865afa1580156113d9573d6000803e3d6000fd5b505050506040513d601f19601f820116820180604052508101906113fd91906125f2565b6105069190612626565b6000807f00000000000000000000000000000000000000000000000000000000000000006001600160a01b031663026b1d5f6040518163ffffffff1660e01b8152600401602060405180830381865afa158015611468573d6000803e3d6000fd5b505050506040513d601f19601f8201168201806040525081019061148c91906123a5565b6040516335ea6a7560e01b81526001600160a01b03858116600483015291909116906335ea6a75906024016101e060405180830381865afa1580156114d5573d6000803e3d6000fd5b505050506040513d601f19601f820116820180604052508101906114f991906124cf565b90508061010001516001600160a01b03166318160ddd6040518163ffffffff1660e01b8152600401602060405180830381865afa15801561153e573d6000803e3d6000fd5b505050506040513d601f19601f8201168201806040525081019061050691906125f2565b6000807f00000000000000000000000000000000000000000000000000000000000000006001600160a01b031663026b1d5f6040518163ffffffff1660e01b8152600401602060405180830381865afa1580156115c3573d6000803e3d6000fd5b505050506040513d601f19601f820116820180604052508101906115e791906123a5565b6040516335ea6a7560e01b81526001600160a01b03858116600483015291909116906335ea6a75906024016101e060405180830381865afa158015611630573d6000803e3d6000fd5b505050506040513d601f19601f8201168201806040525081019061165491906124cf565b61016001519392505050565b6000610ec77f00000000000000000000000000000000000000000000000000000000000000006001600160a01b031663026b1d5f6040518163ffffffff1660e01b8152600401602060405180830381865afa1580156116c3573d6000803e3d6000fd5b505050506040513d601f19601f820116820180604052508101906116e791906123a5565b60405163c44b11f760e01b81526001600160a01b038581166004830152919091169063c44b11f790602401602060405180830381865afa15801561172f573d6000803e3d6000fd5b505050506040513d601f19601f820116820180604052508101906117539190612475565b5160b01c640fffffffff1690565b606060007f00000000000000000000000000000000000000000000000000000000000000006001600160a01b031663026b1d5f6040518163ffffffff1660e01b8152600401602060405180830381865afa1580156117c3573d6000803e3d6000fd5b505050506040513d601f19601f820116820180604052508101906117e791906123a5565b90506000816001600160a01b031663d1946dbc6040518163ffffffff1660e01b8152600401600060405180830381865afa158015611829573d6000803e3d6000fd5b505050506040513d6000823e601f3d908101601f191682016040526118519190810190612647565b90506000815167ffffffffffffffff81111561186f5761186f6123c2565b6040519080825280602002602001820160405280156118b557816020015b60408051808201909152606081526000602082015281526020019060019003908161188d5790505b50905060005b8251811015611add57739f8f72aa9304c8b593d555f12ef6589cc3a579a26001600160a01b03168382815181106118f4576118f46126f9565b60200260200101516001600160a01b03160361197e5760405180604001604052806040518060400160405280600381526020016226a5a960e91b8152508152602001848381518110611948576119486126f9565b60200260200101516001600160a01b031681525082828151811061196e5761196e6126f9565b6020026020010181905250611ad5565b73eeeeeeeeeeeeeeeeeeeeeeeeeeeeeeeeeeeeeeee6001600160a01b03168382815181106119ae576119ae6126f9565b60200260200101516001600160a01b031603611a025760405180604001604052806040518060400160405280600381526020016208aa8960eb1b8152508152602001848381518110611948576119486126f9565b6040518060400160405280848381518110611a1f57611a1f6126f9565b60200260200101516001600160a01b03166395d89b416040518163ffffffff1660e01b8152600401600060405180830381865afa158015611a64573d6000803e3d6000fd5b505050506040513d6000823e601f3d908101601f19168201604052611a8c919081019061270f565b8152602001848381518110611aa357611aa36126f9565b60200260200101516001600160a01b0316815250828281518110611ac957611ac96126f9565b60200260200101819052505b6001016118bb565b509392505050565b6000611bdd7f00000000000000000000000000000000000000000000000000000000000000006001600160a01b031663026b1d5f6040518163ffffffff1660e01b8152600401602060405180830381865afa158015611b48573d6000803e3d6000fd5b505050506040513d601f19601f82011682018060405250810190611b6c91906123a5565b60405163c44b11f760e01b81526001600160a01b038581166004830152919091169063c44b11f790602401602060405180830381865afa158015611bb4573d6000803e3d6000fd5b505050506040513d601f19601f82011682018060405250810190611bd89190612475565b61220e565b9695505050505050565b6000806000807f00000000000000000000000000000000000000000000000000000000000000006001600160a01b031663026b1d5f6040518163ffffffff1660e01b8152600401602060405180830381865afa158015611c4b573d6000803e3d6000fd5b505050506040513d601f19601f82011682018060405250810190611c6f91906123a5565b6040516335ea6a7560e01b81526001600160a01b03878116600483015291909116906335ea6a75906024016101e060405180830381865afa158015611cb8573d6000803e3d6000fd5b505050506040513d601f19601f82011682018060405250810190611cdc91906124cf565b610100810151610120820151610140909201519097919650945092505050565b6000807f00000000000000000000000000000000000000000000000000000000000000006001600160a01b031663026b1d5f6040518163ffffffff1660e01b8152600401602060405180830381865afa158015611d5d573d6000803e3d6000fd5b505050506040513d601f19601f82011682018060405250810190611d8191906123a5565b60405163c44b11f760e01b81526001600160a01b038581166004830152919091169063c44b11f790602401602060405180830381865afa158015611dc9573d6000803e3d6000fd5b505050506040513d601f19601f82011682018060405250810190611ded9190612475565b9050610506815167800000000000000016151590565b606060007f00000000000000000000000000000000000000000000000000000000000000006001600160a01b031663026b1d5f6040518163ffffffff1660e01b8152600401602060405180830381865afa158015611e65573d6000803e3d6000fd5b505050506040513d601f19601f82011682018060405250810190611e8991906123a5565b90506000816001600160a01b031663d1946dbc6040518163ffffffff1660e01b8152600401600060405180830381865afa158015611ecb573d6000803e3d6000fd5b505050506040513d6000823e601f3d908101601f19168201604052611ef39190810190612647565b90506000815167ffffffffffffffff811115611f1157611f116123c2565b604051908082528060200260200182016040528015611f5757816020015b604080518082019091526060815260006020820152815260200190600190039081611f2f5790505b50905060005b8251811015611add576000846001600160a01b03166335ea6a75858481518110611f8957611f896126f9565b60200260200101516040518263ffffffff1660e01b8152600401611fbc91906001600160a01b0391909116815260200190565b6101e060405180830381865afa158015611fda573d6000803e3d6000fd5b505050506040513d601f19601f82011682018060405250810190611ffe91906124cf565b905060405180604001604052808261010001516001600160a01b03166395d89b416040518163ffffffff1660e01b8152600401600060405180830381865afa15801561204e573d6000803e3d6000fd5b505050506040513d6000823e601f3d908101601f19168201604052612076919081019061270f565b81526020018261010001516001600160a01b031681525083838151811061209f5761209f6126f9565b602090810291909101015250600101611f5d565b6000610ec77f00000000000000000000000000000000000000000000000000000000000000006001600160a01b031663026b1d5f6040518163ffffffff1660e01b8152600401602060405180830381865afa158015612116573d6000803e3d6000fd5b505050506040513d601f19601f8201168201806040525081019061213a91906123a5565b60405163c44b11f760e01b81526001600160a01b038581166004830152919091169063c44b11f790602401602060405180830381865afa158015612182573d6000803e3d6000fd5b505050506040513d601f19601f820116820180604052508101906121a69190612475565b5167400000000000000016151590565b6040805180820190915260028152610dcd60f21b6020820152600090608083106121fc5760405162461bcd60e51b81526004016121f391906127a3565b60405180910390fd5b50509051600191821b82011c16151590565b51670100000000000000811615159167020000000000000082161515916704000000000000008116151591670800000000000000821615159167100000000000000016151590565b6001600160a01b038116811461226b57600080fd5b50565b60006020828403121561228057600080fd5b813561050681612256565b6000806040838503121561229e57600080fd5b82356122a981612256565b915060208301356122b981612256565b809150509250929050565b60005b838110156122df5781810151838201526020016122c7565b50506000910152565b600081518084526123008160208601602086016122c4565b601f01601f19169290920160200192915050565b600060208083018184528085518083526040925060408601915060408160051b87010184880160005b8381101561238757888303603f1901855281518051878552612361888601826122e8565b918901516001600160a01b0316948901949094529487019492509086019060010161233d565b509098975050505050505050565b80516123a081612256565b919050565b6000602082840312156123b757600080fd5b815161050681612256565b634e487b7160e01b600052604160045260246000fd5b6040516101e0810167ffffffffffffffff811182821017156123fc576123fc6123c2565b60405290565b604051601f8201601f1916810167ffffffffffffffff8111828210171561242b5761242b6123c2565b604052919050565b60006020828403121561244557600080fd5b6040516020810181811067ffffffffffffffff82111715612468576124686123c2565b6040529151825250919050565b60006020828403121561248757600080fd5b6105068383612433565b80516001600160801b03811681146123a057600080fd5b805164ffffffffff811681146123a057600080fd5b805161ffff811681146123a057600080fd5b60006101e082840312156124e257600080fd5b6124ea6123d8565b6124f48484612433565b815261250260208401612491565b602082015261251360408401612491565b604082015261252460608401612491565b606082015261253560808401612491565b608082015261254660a08401612491565b60a082015261255760c084016124a8565b60c082015261256860e084016124bd565b60e082015261010061257b818501612395565b9082015261012061258d848201612395565b9082015261014061259f848201612395565b908201526101606125b1848201612395565b908201526101806125c3848201612491565b908201526101a06125d5848201612491565b908201526101c06125e7848201612491565b908201529392505050565b60006020828403121561260457600080fd5b5051919050565b60006020828403121561261d57600080fd5b610506826124a8565b80820180821115610ec757634e487b7160e01b600052601160045260246000fd5b6000602080838503121561265a57600080fd5b825167ffffffffffffffff8082111561267257600080fd5b818501915085601f83011261268657600080fd5b815181811115612698576126986123c2565b8060051b91506126a9848301612402565b81815291830184019184810190888411156126c357600080fd5b938501935b838510156126ed57845192506126dd83612256565b82825293850193908501906126c8565b98975050505050505050565b634e487b7160e01b600052603260045260246000fd5b60006020828403121561272157600080fd5b815167ffffffffffffffff8082111561273957600080fd5b818401915084601f83011261274d57600080fd5b81518181111561275f5761275f6123c2565b612772601f8201601f1916602001612402565b915080825285602082850101111561278957600080fd5b61279a8160208401602086016122c4565b50949350505050565b60208152600061050660208301846122e856fea26469706673582212204dc35e6586ec7844271edce69b456289367c7b446d95ff800f236637dd93408664736f6c63430008160033",
  "devdoc": {
    "author": "Aave",
    "kind": "dev",
    "methods": {
      "constructor": {
        "params": {
          "addressesProvider": "The address of the PoolAddressesProvider contract"
        }
      },
      "getATokenTotalSupply(address)": {
        "params": {
          "asset": "The address of the underlying asset of the reserve"
        },
        "returns": {
          "_0": "The total supply of the aToken"
        }
      },
      "getAllATokens()": {
        "returns": {
          "_0": "The list of ATokens, pairs of symbols and addresses"
        }
      },
      "getAllReservesTokens()": {
        "details": "Handling MKR and ETH in a different way since they do not have standard `symbol` functions.",
        "returns": {
          "_0": "The list of reserves, pairs of symbols and addresses"
        }
      },
      "getDebtCeiling(address)": {
        "params": {
          "asset": "The address of the underlying asset of the reserve"
        },
        "returns": {
          "_0": "The debt ceiling of the reserve"
        }
      },
      "getDebtCeilingDecimals()": {
        "returns": {
          "_0": "The debt ceiling decimals"
        }
      },
      "getFlashLoanEnabled(address)": {
        "params": {
          "asset": "The address of the underlying asset of the reserve"
        },
        "returns": {
          "_0": "True if FlashLoans are enabled, false otherwise"
        }
      },
      "getInterestRateStrategyAddress(address)": {
        "params": {
          "asset": "The address of the underlying asset of the reserve"
        },
        "returns": {
          "irStrategyAddress": "The address of the Interest Rate strategy"
        }
      },
      "getLiquidationProtocolFee(address)": {
        "params": {
          "asset": "The address of the underlying asset of the reserve"
        },
        "returns": {
          "_0": "The protocol fee on liquidation"
        }
      },
      "getPaused(address)": {
        "params": {
          "asset": "The address of the underlying asset of the reserve"
        },
        "returns": {
          "isPaused": "True if the pool is paused, false otherwise"
        }
      },
      "getReserveCaps(address)": {
        "params": {
          "asset": "The address of the underlying asset of the reserve"
        },
        "returns": {
          "borrowCap": "The borrow cap of the reserve",
          "supplyCap": "The supply cap of the reserve"
        }
      },
      "getReserveConfigurationData(address)": {
        "details": "Not returning borrow and supply caps for compatibility, nor pause flag",
        "params": {
          "asset": "The address of the underlying asset of the reserve"
        },
        "returns": {
          "borrowingEnabled": "True if borrowing is enabled, false otherwise",
          "decimals": "The number of decimals of the reserve",
          "isActive": "True if it is active, false otherwise",
          "isFrozen": "True if it is frozen, false otherwise",
          "liquidationBonus": "The liquidationBonus of the reserve",
          "liquidationThreshold": "The liquidationThreshold of the reserve",
          "ltv": "The ltv of the reserve",
          "reserveFactor": "The reserveFactor of the reserve",
          "stableBorrowRateEnabled": "True if stable rate borrowing is enabled, false otherwise",
          "usageAsCollateralEnabled": "True if the usage as collateral is enabled, false otherwise"
        }
      },
      "getReserveData(address)": {
        "params": {
          "asset": "The address of the underlying asset of the reserve"
        },
        "returns": {
          "accruedToTreasuryScaled": "The scaled amount of tokens accrued to treasury that is to be minted",
          "averageStableBorrowRate": "The average stable borrow rate of the reserve",
          "lastUpdateTimestamp": "The timestamp of the last update of the reserve",
          "liquidityIndex": "The liquidity index of the reserve",
          "liquidityRate": "The liquidity rate of the reserve",
          "stableBorrowRate": "The stable borrow rate of the reserve",
          "totalAToken": "The total supply of the aToken",
          "totalStableDebt": "The total stable debt of the reserve",
          "totalVariableDebt": "The total variable debt of the reserve",
          "unbacked": "The amount of unbacked tokens",
          "variableBorrowIndex": "The variable borrow index of the reserve",
          "variableBorrowRate": "The variable borrow rate of the reserve"
        }
      },
      "getReserveEModeCategory(address)": {
        "params": {
          "asset": "The address of the underlying asset of the reserve"
        },
        "returns": {
          "_0": "The eMode id of the reserve"
        }
      },
      "getReserveTokensAddresses(address)": {
        "params": {
          "asset": "The address of the underlying asset of the reserve"
        },
        "returns": {
          "aTokenAddress": "The AToken address of the reserve",
          "stableDebtTokenAddress": "The StableDebtToken address of the reserve",
          "variableDebtTokenAddress": "The VariableDebtToken address of the reserve"
        }
      },
      "getSiloedBorrowing(address)": {
        "params": {
          "asset": "The address of the underlying asset of the reserve"
        },
        "returns": {
          "_0": "True if the asset is siloed for borrowing"
        }
      },
      "getTotalDebt(address)": {
        "params": {
          "asset": "The address of the underlying asset of the reserve"
        },
        "returns": {
          "_0": "The total debt for asset"
        }
      },
      "getUnbackedMintCap(address)": {
        "params": {
          "asset": "The address of the underlying asset of the reserve"
        },
        "returns": {
          "_0": "The unbacked mint cap of the reserve"
        }
      },
      "getUserReserveData(address,address)": {
        "params": {
          "asset": "The address of the underlying asset of the reserve",
          "user": "The address of the user"
        },
        "returns": {
          "currentATokenBalance": "The current AToken balance of the user",
          "currentStableDebt": "The current stable debt of the user",
          "currentVariableDebt": "The current variable debt of the user",
          "liquidityRate": "The liquidity rate of the reserve",
          "principalStableDebt": "The principal stable debt of the user",
          "scaledVariableDebt": "The scaled variable debt of the user",
          "stableBorrowRate": "The stable borrow rate of the user",
          "stableRateLastUpdated": "The timestamp of the last update of the user stable rate",
          "usageAsCollateralEnabled": "True if the user is using the asset as collateral, false         otherwise"
        }
      }
    },
    "stateVariables": {
      "ADDRESSES_PROVIDER": {
        "return": "The address for the PoolAddressesProvider contract",
        "returns": {
          "_0": "The address for the PoolAddressesProvider contract"
        }
      }
    },
    "title": "AaveProtocolDataProvider",
    "version": 1
  },
  "userdoc": {
    "kind": "user",
    "methods": {
      "ADDRESSES_PROVIDER()": {
        "notice": "Returns the address for the PoolAddressesProvider contract."
      },
      "constructor": {
        "notice": "Constructor"
      },
      "getATokenTotalSupply(address)": {
        "notice": "Returns the total supply of aTokens for a given asset"
      },
      "getAllATokens()": {
        "notice": "Returns the list of the existing ATokens in the pool."
      },
      "getAllReservesTokens()": {
        "notice": "Returns the list of the existing reserves in the pool."
      },
      "getDebtCeiling(address)": {
        "notice": "Returns the debt ceiling of the reserve"
      },
      "getDebtCeilingDecimals()": {
        "notice": "Returns the debt ceiling decimals"
      },
      "getFlashLoanEnabled(address)": {
        "notice": "Returns whether the reserve has FlashLoans enabled or disabled"
      },
      "getInterestRateStrategyAddress(address)": {
        "notice": "Returns the address of the Interest Rate strategy"
      },
      "getLiquidationProtocolFee(address)": {
        "notice": "Returns the protocol fee on the liquidation bonus"
      },
      "getPaused(address)": {
        "notice": "Returns if the pool is paused"
      },
      "getReserveCaps(address)": {
        "notice": "Returns the caps parameters of the reserve"
      },
      "getReserveConfigurationData(address)": {
        "notice": "Returns the configuration data of the reserve"
      },
      "getReserveData(address)": {
        "notice": "Returns the reserve data"
      },
      "getReserveEModeCategory(address)": {
        "notice": "Returns the efficiency mode category of the reserve"
      },
      "getReserveTokensAddresses(address)": {
        "notice": "Returns the token addresses of the reserve"
      },
      "getSiloedBorrowing(address)": {
        "notice": "Returns the siloed borrowing flag"
      },
      "getTotalDebt(address)": {
        "notice": "Returns the total debt for a given asset"
      },
      "getUnbackedMintCap(address)": {
        "notice": "Returns the unbacked mint cap of the reserve"
      },
      "getUserReserveData(address,address)": {
        "notice": "Returns the user data in a reserve"
      }
    },
    "notice": "Peripheral contract to collect and pre-process information from the Pool.",
    "version": 1
  },
  "storageLayout": {
    "storage": [],
    "types": null
  }
}