{
  "address": "0xBcf0A037B8d505416A64b815A6cb41048AE31A1F",
  "abi": [
    {
      "inputs": [
        {
          "internalType": "contract IPoolAddressesProvider",
          "name": "provider",
          "type": "address"
        }
      ],
      "stateMutability": "nonpayable",
      "type": "constructor"
    },
    {
      "anonymous": false,
      "inputs": [
        {
          "indexed": true,
          "internalType": "address",
          "name": "reserve",
          "type": "address"
        },
        {
          "indexed": true,
          "internalType": "address",
          "name": "backer",
          "type": "address"
        },
        {
          "indexed": false,
          "internalType": "uint256",
          "name": "amount",
          "type": "uint256"
        },
        {
          "indexed": false,
          "internalType": "uint256",
          "name": "fee",
          "type": "uint256"
        }
      ],
      "name": "BackUnbacked",
      "type": "event"
    },
    {
      "anonymous": false,
      "inputs": [
        {
          "indexed": true,
          "internalType": "address",
          "name": "reserve",
          "type": "address"
        },
        {
          "indexed": false,
          "internalType": "address",
          "name": "user",
          "type": "address"
        },
        {
          "indexed": true,
          "internalType": "address",
          "name": "onBehalfOf",
          "type": "address"
        },
        {
          "indexed": false,
          "internalType": "uint256",
          "name": "amount",
          "type": "uint256"
        },
        {
          "indexed": false,
          "internalType": "enum DataTypes.InterestRateMode",
          "name": "interestRateMode",
          "type": "uint8"
        },
        {
          "indexed": false,
          "internalType": "uint256",
          "name": "borrowRate",
          "type": "uint256"
        },
        {
          "indexed": true,
          "internalType": "uint16",
          "name": "referralCode",
          "type": "uint16"
        }
      ],
      "name": "Borrow",
      "type": "event"
    },
    {
      "anonymous": false,
      "inputs": [
        {
          "indexed": true,
          "internalType": "address",
          "name": "target",
          "type": "address"
        },
        {
          "indexed": false,
          "internalType": "address",
          "name": "initiator",
          "type": "address"
        },
        {
          "indexed": true,
          "internalType": "address",
          "name": "asset",
          "type": "address"
        },
        {
          "indexed": false,
          "internalType": "uint256",
          "name": "amount",
          "type": "uint256"
        },
        {
          "indexed": false,
          "internalType": "enum DataTypes.InterestRateMode",
          "name": "interestRateMode",
          "type": "uint8"
        },
        {
          "indexed": false,
          "internalType": "uint256",
          "name": "premium",
          "type": "uint256"
        },
        {
          "indexed": true,
          "internalType": "uint16",
          "name": "referralCode",
          "type": "uint16"
        }
      ],
      "name": "FlashLoan",
      "type": "event"
    },
    {
      "anonymous": false,
      "inputs": [
        {
          "indexed": true,
          "internalType": "address",
          "name": "asset",
          "type": "address"
        },
        {
          "indexed": false,
          "internalType": "uint256",
          "name": "totalDebt",
          "type": "uint256"
        }
      ],
      "name": "IsolationModeTotalDebtUpdated",
      "type": "event"
    },
    {
      "anonymous": false,
      "inputs": [
        {
          "indexed": true,
          "internalType": "address",
          "name": "collateralAsset",
          "type": "address"
        },
        {
          "indexed": true,
          "internalType": "address",
          "name": "debtAsset",
          "type": "address"
        },
        {
          "indexed": true,
          "internalType": "address",
          "name": "user",
          "type": "address"
        },
        {
          "indexed": false,
          "internalType": "uint256",
          "name": "debtToCover",
          "type": "uint256"
        },
        {
          "indexed": false,
          "internalType": "uint256",
          "name": "liquidatedCollateralAmount",
          "type": "uint256"
        },
        {
          "indexed": false,
          "internalType": "address",
          "name": "liquidator",
          "type": "address"
        },
        {
          "indexed": false,
          "internalType": "bool",
          "name": "receiveAToken",
          "type": "bool"
        }
      ],
      "name": "LiquidationCall",
      "type": "event"
    },
    {
      "anonymous": false,
      "inputs": [
        {
          "indexed": true,
          "internalType": "address",
          "name": "reserve",
          "type": "address"
        },
        {
          "indexed": false,
          "internalType": "address",
          "name": "user",
          "type": "address"
        },
        {
          "indexed": true,
          "internalType": "address",
          "name": "onBehalfOf",
          "type": "address"
        },
        {
          "indexed": false,
          "internalType": "uint256",
          "name": "amount",
          "type": "uint256"
        },
        {
          "indexed": true,
          "internalType": "uint16",
          "name": "referralCode",
          "type": "uint16"
        }
      ],
      "name": "MintUnbacked",
      "type": "event"
    },
    {
      "anonymous": false,
      "inputs": [
        {
          "indexed": true,
          "internalType": "address",
          "name": "reserve",
          "type": "address"
        },
        {
          "indexed": false,
          "internalType": "uint256",
          "name": "amountMinted",
          "type": "uint256"
        }
      ],
      "name": "MintedToTreasury",
      "type": "event"
    },
    {
      "anonymous": false,
      "inputs": [
        {
          "indexed": true,
          "internalType": "address",
          "name": "reserve",
          "type": "address"
        },
        {
          "indexed": true,
          "internalType": "address",
          "name": "user",
          "type": "address"
        }
      ],
      "name": "RebalanceStableBorrowRate",
      "type": "event"
    },
    {
      "anonymous": false,
      "inputs": [
        {
          "indexed": true,
          "internalType": "address",
          "name": "reserve",
          "type": "address"
        },
        {
          "indexed": true,
          "internalType": "address",
          "name": "user",
          "type": "address"
        },
        {
          "indexed": true,
          "internalType": "address",
          "name": "repayer",
          "type": "address"
        },
        {
          "indexed": false,
          "internalType": "uint256",
          "name": "amount",
          "type": "uint256"
        },
        {
          "indexed": false,
          "internalType": "bool",
          "name": "useATokens",
          "type": "bool"
        }
      ],
      "name": "Repay",
      "type": "event"
    },
    {
      "anonymous": false,
      "inputs": [
        {
          "indexed": true,
          "internalType": "address",
          "name": "reserve",
          "type": "address"
        },
        {
          "indexed": false,
          "internalType": "uint256",
          "name": "liquidityRate",
          "type": "uint256"
        },
        {
          "indexed": false,
          "internalType": "uint256",
          "name": "stableBorrowRate",
          "type": "uint256"
        },
        {
          "indexed": false,
          "internalType": "uint256",
          "name": "variableBorrowRate",
          "type": "uint256"
        },
        {
          "indexed": false,
          "internalType": "uint256",
          "name": "liquidityIndex",
          "type": "uint256"
        },
        {
          "indexed": false,
          "internalType": "uint256",
          "name": "variableBorrowIndex",
          "type": "uint256"
        }
      ],
      "name": "ReserveDataUpdated",
      "type": "event"
    },
    {
      "anonymous": false,
      "inputs": [
        {
          "indexed": true,
          "internalType": "address",
          "name": "reserve",
          "type": "address"
        },
        {
          "indexed": true,
          "internalType": "address",
          "name": "user",
          "type": "address"
        }
      ],
      "name": "ReserveUsedAsCollateralDisabled",
      "type": "event"
    },
    {
      "anonymous": false,
      "inputs": [
        {
          "indexed": true,
          "internalType": "address",
          "name": "reserve",
          "type": "address"
        },
        {
          "indexed": true,
          "internalType": "address",
          "name": "user",
          "type": "address"
        }
      ],
      "name": "ReserveUsedAsCollateralEnabled",
      "type": "event"
    },
    {
      "anonymous": false,
      "inputs": [
        {
          "indexed": true,
          "internalType": "address",
          "name": "reserve",
          "type": "address"
        },
        {
          "indexed": false,
          "internalType": "address",
          "name": "user",
          "type": "address"
        },
        {
          "indexed": true,
          "internalType": "address",
          "name": "onBehalfOf",
          "type": "address"
        },
        {
          "indexed": false,
          "internalType": "uint256",
          "name": "amount",
          "type": "uint256"
        },
        {
          "indexed": true,
          "internalType": "uint16",
          "name": "referralCode",
          "type": "uint16"
        }
      ],
      "name": "Supply",
      "type": "event"
    },
    {
      "anonymous": false,
      "inputs": [
        {
          "indexed": true,
          "internalType": "address",
          "name": "reserve",
          "type": "address"
        },
        {
          "indexed": true,
          "internalType": "address",
          "name": "user",
          "type": "address"
        },
        {
          "indexed": false,
          "internalType": "enum DataTypes.InterestRateMode",
          "name": "interestRateMode",
          "type": "uint8"
        }
      ],
      "name": "SwapBorrowRateMode",
      "type": "event"
    },
    {
      "anonymous": false,
      "inputs": [
        {
          "indexed": true,
          "internalType": "address",
          "name": "user",
          "type": "address"
        },
        {
          "indexed": false,
          "internalType": "uint8",
          "name": "categoryId",
          "type": "uint8"
        }
      ],
      "name": "UserEModeSet",
      "type": "event"
    },
    {
      "anonymous": false,
      "inputs": [
        {
          "indexed": true,
          "internalType": "address",
          "name": "reserve",
          "type": "address"
        },
        {
          "indexed": true,
          "internalType": "address",
          "name": "user",
          "type": "address"
        },
        {
          "indexed": true,
          "internalType": "address",
          "name": "to",
          "type": "address"
        },
        {
          "indexed": false,
          "internalType": "uint256",
          "name": "amount",
          "type": "uint256"
        }
      ],
      "name": "Withdraw",
      "type": "event"
    },
    {
      "inputs": [],
      "name": "ADDRESSES_PROVIDER",
      "outputs": [
        {
          "internalType": "contract IPoolAddressesProvider",
          "name": "",
          "type": "address"
        }
      ],
      "stateMutability": "view",
      "type": "function"
    },
    {
      "inputs": [],
      "name": "BRIDGE_PROTOCOL_FEE",
      "outputs": [
        {
          "internalType": "uint256",
          "name": "",
          "type": "uint256"
        }
      ],
      "stateMutability": "view",
      "type": "function"
    },
    {
      "inputs": [],
      "name": "FLASHLOAN_PREMIUM_TOTAL",
      "outputs": [
        {
          "internalType": "uint128",
          "name": "",
          "type": "uint128"
        }
      ],
      "stateMutability": "view",
      "type": "function"
    },
    {
      "inputs": [],
      "name": "FLASHLOAN_PREMIUM_TO_PROTOCOL",
      "outputs": [
        {
          "internalType": "uint128",
          "name": "",
          "type": "uint128"
        }
      ],
      "stateMutability": "view",
      "type": "function"
    },
    {
      "inputs": [],
      "name": "MAX_NUMBER_RESERVES",
      "outputs": [
        {
          "internalType": "uint16",
          "name": "",
          "type": "uint16"
        }
      ],
      "stateMutability": "view",
      "type": "function"
    },
    {
      "inputs": [],
      "name": "MAX_STABLE_RATE_BORROW_SIZE_PERCENT",
      "outputs": [
        {
          "internalType": "uint256",
          "name": "",
          "type": "uint256"
        }
      ],
      "stateMutability": "view",
      "type": "function"
    },
    {
      "inputs": [],
      "name": "POOL_REVISION",
      "outputs": [
        {
          "internalType": "uint256",
          "name": "",
          "type": "uint256"
        }
      ],
      "stateMutability": "view",
      "type": "function"
    },
    {
      "inputs": [
        {
          "internalType": "address",
          "name": "asset",
          "type": "address"
        },
        {
          "internalType": "uint256",
          "name": "amount",
          "type": "uint256"
        },
        {
          "internalType": "uint256",
          "name": "fee",
          "type": "uint256"
        }
      ],
      "name": "backUnbacked",
      "outputs": [
        {
          "internalType": "uint256",
          "name": "",
          "type": "uint256"
        }
      ],
      "stateMutability": "nonpayable",
      "type": "function"
    },
    {
      "inputs": [
        {
          "internalType": "address",
          "name": "asset",
          "type": "address"
        },
        {
          "internalType": "uint256",
          "name": "amount",
          "type": "uint256"
        },
        {
          "internalType": "uint256",
          "name": "interestRateMode",
          "type": "uint256"
        },
        {
          "internalType": "uint16",
          "name": "referralCode",
          "type": "uint16"
        },
        {
          "internalType": "address",
          "name": "onBehalfOf",
          "type": "address"
        }
      ],
      "name": "borrow",
      "outputs": [],
      "stateMutability": "nonpayable",
      "type": "function"
    },
    {
      "inputs": [
        {
          "internalType": "bytes32",
          "name": "args",
          "type": "bytes32"
        }
      ],
      "name": "borrow",
      "outputs": [],
      "stateMutability": "nonpayable",
      "type": "function"
    },
    {
      "inputs": [
        {
          "internalType": "uint8",
          "name": "id",
          "type": "uint8"
        },
        {
          "components": [
            {
              "internalType": "uint16",
              "name": "ltv",
              "type": "uint16"
            },
            {
              "internalType": "uint16",
              "name": "liquidationThreshold",
              "type": "uint16"
            },
            {
              "internalType": "uint16",
              "name": "liquidationBonus",
              "type": "uint16"
            },
            {
              "internalType": "address",
              "name": "priceSource",
              "type": "address"
            },
            {
              "internalType": "string",
              "name": "label",
              "type": "string"
            }
          ],
          "internalType": "struct DataTypes.EModeCategory",
          "name": "category",
          "type": "tuple"
        }
      ],
      "name": "configureEModeCategory",
      "outputs": [],
      "stateMutability": "nonpayable",
      "type": "function"
    },
    {
      "inputs": [
        {
          "internalType": "address",
          "name": "asset",
          "type": "address"
        },
        {
          "internalType": "uint256",
          "name": "amount",
          "type": "uint256"
        },
        {
          "internalType": "address",
          "name": "onBehalfOf",
          "type": "address"
        },
        {
          "internalType": "uint16",
          "name": "referralCode",
          "type": "uint16"
        }
      ],
      "name": "deposit",
      "outputs": [],
      "stateMutability": "nonpayable",
      "type": "function"
    },
    {
      "inputs": [
        {
          "internalType": "address",
          "name": "asset",
          "type": "address"
        }
      ],
      "name": "dropReserve",
      "outputs": [],
      "stateMutability": "nonpayable",
      "type": "function"
    },
    {
      "inputs": [
        {
          "internalType": "address",
          "name": "asset",
          "type": "address"
        },
        {
          "internalType": "address",
          "name": "from",
          "type": "address"
        },
        {
          "internalType": "address",
          "name": "to",
          "type": "address"
        },
        {
          "internalType": "uint256",
          "name": "amount",
          "type": "uint256"
        },
        {
          "internalType": "uint256",
          "name": "balanceFromBefore",
          "type": "uint256"
        },
        {
          "internalType": "uint256",
          "name": "balanceToBefore",
          "type": "uint256"
        }
      ],
      "name": "finalizeTransfer",
      "outputs": [],
      "stateMutability": "nonpayable",
      "type": "function"
    },
    {
      "inputs": [
        {
          "internalType": "address",
          "name": "receiverAddress",
          "type": "address"
        },
        {
          "internalType": "address[]",
          "name": "assets",
          "type": "address[]"
        },
        {
          "internalType": "uint256[]",
          "name": "amounts",
          "type": "uint256[]"
        },
        {
          "internalType": "uint256[]",
          "name": "interestRateModes",
          "type": "uint256[]"
        },
        {
          "internalType": "address",
          "name": "onBehalfOf",
          "type": "address"
        },
        {
          "internalType": "bytes",
          "name": "params",
          "type": "bytes"
        },
        {
          "internalType": "uint16",
          "name": "referralCode",
          "type": "uint16"
        }
      ],
      "name": "flashLoan",
      "outputs": [],
      "stateMutability": "nonpayable",
      "type": "function"
    },
    {
      "inputs": [
        {
          "internalType": "address",
          "name": "receiverAddress",
          "type": "address"
        },
        {
          "internalType": "address",
          "name": "asset",
          "type": "address"
        },
        {
          "internalType": "uint256",
          "name": "amount",
          "type": "uint256"
        },
        {
          "internalType": "bytes",
          "name": "params",
          "type": "bytes"
        },
        {
          "internalType": "uint16",
          "name": "referralCode",
          "type": "uint16"
        }
      ],
      "name": "flashLoanSimple",
      "outputs": [],
      "stateMutability": "nonpayable",
      "type": "function"
    },
    {
      "inputs": [
        {
          "internalType": "address",
          "name": "asset",
          "type": "address"
        }
      ],
      "name": "getConfiguration",
      "outputs": [
        {
          "components": [
            {
              "internalType": "uint256",
              "name": "data",
              "type": "uint256"
            }
          ],
          "internalType": "struct DataTypes.ReserveConfigurationMap",
          "name": "",
          "type": "tuple"
        }
      ],
      "stateMutability": "view",
      "type": "function"
    },
    {
      "inputs": [
        {
          "internalType": "uint8",
          "name": "id",
          "type": "uint8"
        }
      ],
      "name": "getEModeCategoryData",
      "outputs": [
        {
          "components": [
            {
              "internalType": "uint16",
              "name": "ltv",
              "type": "uint16"
            },
            {
              "internalType": "uint16",
              "name": "liquidationThreshold",
              "type": "uint16"
            },
            {
              "internalType": "uint16",
              "name": "liquidationBonus",
              "type": "uint16"
            },
            {
              "internalType": "address",
              "name": "priceSource",
              "type": "address"
            },
            {
              "internalType": "string",
              "name": "label",
              "type": "string"
            }
          ],
          "internalType": "struct DataTypes.EModeCategory",
          "name": "",
          "type": "tuple"
        }
      ],
      "stateMutability": "view",
      "type": "function"
    },
    {
      "inputs": [
        {
          "internalType": "uint16",
          "name": "id",
          "type": "uint16"
        }
      ],
      "name": "getReserveAddressById",
      "outputs": [
        {
          "internalType": "address",
          "name": "",
          "type": "address"
        }
      ],
      "stateMutability": "view",
      "type": "function"
    },
    {
      "inputs": [
        {
          "internalType": "address",
          "name": "asset",
          "type": "address"
        }
      ],
      "name": "getReserveData",
      "outputs": [
        {
          "components": [
            {
              "components": [
                {
                  "internalType": "uint256",
                  "name": "data",
                  "type": "uint256"
                }
              ],
              "internalType": "struct DataTypes.ReserveConfigurationMap",
              "name": "configuration",
              "type": "tuple"
            },
            {
              "internalType": "uint128",
              "name": "liquidityIndex",
              "type": "uint128"
            },
            {
              "internalType": "uint128",
              "name": "currentLiquidityRate",
              "type": "uint128"
            },
            {
              "internalType": "uint128",
              "name": "variableBorrowIndex",
              "type": "uint128"
            },
            {
              "internalType": "uint128",
              "name": "currentVariableBorrowRate",
              "type": "uint128"
            },
            {
              "internalType": "uint128",
              "name": "currentStableBorrowRate",
              "type": "uint128"
            },
            {
              "internalType": "uint40",
              "name": "lastUpdateTimestamp",
              "type": "uint40"
            },
            {
              "internalType": "uint16",
              "name": "id",
              "type": "uint16"
            },
            {
              "internalType": "address",
              "name": "aTokenAddress",
              "type": "address"
            },
            {
              "internalType": "address",
              "name": "stableDebtTokenAddress",
              "type": "address"
            },
            {
              "internalType": "address",
              "name": "variableDebtTokenAddress",
              "type": "address"
            },
            {
              "internalType": "address",
              "name": "interestRateStrategyAddress",
              "type": "address"
            },
            {
              "internalType": "uint128",
              "name": "accruedToTreasury",
              "type": "uint128"
            },
            {
              "internalType": "uint128",
              "name": "unbacked",
              "type": "uint128"
            },
            {
              "internalType": "uint128",
              "name": "isolationModeTotalDebt",
              "type": "uint128"
            }
          ],
          "internalType": "struct DataTypes.ReserveData",
          "name": "",
          "type": "tuple"
        }
      ],
      "stateMutability": "view",
      "type": "function"
    },
    {
      "inputs": [
        {
          "internalType": "address",
          "name": "asset",
          "type": "address"
        }
      ],
      "name": "getReserveNormalizedIncome",
      "outputs": [
        {
          "internalType": "uint256",
          "name": "",
          "type": "uint256"
        }
      ],
      "stateMutability": "view",
      "type": "function"
    },
    {
      "inputs": [
        {
          "internalType": "address",
          "name": "asset",
          "type": "address"
        }
      ],
      "name": "getReserveNormalizedVariableDebt",
      "outputs": [
        {
          "internalType": "uint256",
          "name": "",
          "type": "uint256"
        }
      ],
      "stateMutability": "view",
      "type": "function"
    },
    {
      "inputs": [],
      "name": "getReservesList",
      "outputs": [
        {
          "internalType": "address[]",
          "name": "",
          "type": "address[]"
        }
      ],
      "stateMutability": "view",
      "type": "function"
    },
    {
      "inputs": [
        {
          "internalType": "address",
          "name": "user",
          "type": "address"
        }
      ],
      "name": "getUserAccountData",
      "outputs": [
        {
          "internalType": "uint256",
          "name": "totalCollateralBase",
          "type": "uint256"
        },
        {
          "internalType": "uint256",
          "name": "totalDebtBase",
          "type": "uint256"
        },
        {
          "internalType": "uint256",
          "name": "availableBorrowsBase",
          "type": "uint256"
        },
        {
          "internalType": "uint256",
          "name": "currentLiquidationThreshold",
          "type": "uint256"
        },
        {
          "internalType": "uint256",
          "name": "ltv",
          "type": "uint256"
        },
        {
          "internalType": "uint256",
          "name": "healthFactor",
          "type": "uint256"
        }
      ],
      "stateMutability": "view",
      "type": "function"
    },
    {
      "inputs": [
        {
          "internalType": "address",
          "name": "user",
          "type": "address"
        }
      ],
      "name": "getUserConfiguration",
      "outputs": [
        {
          "components": [
            {
              "internalType": "uint256",
              "name": "data",
              "type": "uint256"
            }
          ],
          "internalType": "struct DataTypes.UserConfigurationMap",
          "name": "",
          "type": "tuple"
        }
      ],
      "stateMutability": "view",
      "type": "function"
    },
    {
      "inputs": [
        {
          "internalType": "address",
          "name": "user",
          "type": "address"
        }
      ],
      "name": "getUserEMode",
      "outputs": [
        {
          "internalType": "uint256",
          "name": "",
          "type": "uint256"
        }
      ],
      "stateMutability": "view",
      "type": "function"
    },
    {
      "inputs": [
        {
          "internalType": "address",
          "name": "asset",
          "type": "address"
        },
        {
          "internalType": "address",
          "name": "aTokenAddress",
          "type": "address"
        },
        {
          "internalType": "address",
          "name": "stableDebtAddress",
          "type": "address"
        },
        {
          "internalType": "address",
          "name": "variableDebtAddress",
          "type": "address"
        },
        {
          "internalType": "address",
          "name": "interestRateStrategyAddress",
          "type": "address"
        }
      ],
      "name": "initReserve",
      "outputs": [],
      "stateMutability": "nonpayable",
      "type": "function"
    },
    {
      "inputs": [
        {
          "internalType": "contract IPoolAddressesProvider",
          "name": "provider",
          "type": "address"
        }
      ],
      "name": "initialize",
      "outputs": [],
      "stateMutability": "nonpayable",
      "type": "function"
    },
    {
      "inputs": [
        {
          "internalType": "address",
          "name": "collateralAsset",
          "type": "address"
        },
        {
          "internalType": "address",
          "name": "debtAsset",
          "type": "address"
        },
        {
          "internalType": "address",
          "name": "user",
          "type": "address"
        },
        {
          "internalType": "uint256",
          "name": "debtToCover",
          "type": "uint256"
        },
        {
          "internalType": "bool",
          "name": "receiveAToken",
          "type": "bool"
        }
      ],
      "name": "liquidationCall",
      "outputs": [],
      "stateMutability": "nonpayable",
      "type": "function"
    },
    {
      "inputs": [
        {
          "internalType": "bytes32",
          "name": "args1",
          "type": "bytes32"
        },
        {
          "internalType": "bytes32",
          "name": "args2",
          "type": "bytes32"
        }
      ],
      "name": "liquidationCall",
      "outputs": [],
      "stateMutability": "nonpayable",
      "type": "function"
    },
    {
      "inputs": [
        {
          "internalType": "address[]",
          "name": "assets",
          "type": "address[]"
        }
      ],
      "name": "mintToTreasury",
      "outputs": [],
      "stateMutability": "nonpayable",
      "type": "function"
    },
    {
      "inputs": [
        {
          "internalType": "address",
          "name": "asset",
          "type": "address"
        },
        {
          "internalType": "uint256",
          "name": "amount",
          "type": "uint256"
        },
        {
          "internalType": "address",
          "name": "onBehalfOf",
          "type": "address"
        },
        {
          "internalType": "uint16",
          "name": "referralCode",
          "type": "uint16"
        }
      ],
      "name": "mintUnbacked",
      "outputs": [],
      "stateMutability": "nonpayable",
      "type": "function"
    },
    {
      "inputs": [
        {
          "internalType": "bytes32",
          "name": "args",
          "type": "bytes32"
        }
      ],
      "name": "rebalanceStableBorrowRate",
      "outputs": [],
      "stateMutability": "nonpayable",
      "type": "function"
    },
    {
      "inputs": [
        {
          "internalType": "address",
          "name": "asset",
          "type": "address"
        },
        {
          "internalType": "address",
          "name": "user",
          "type": "address"
        }
      ],
      "name": "rebalanceStableBorrowRate",
      "outputs": [],
      "stateMutability": "nonpayable",
      "type": "function"
    },
    {
      "inputs": [
        {
          "internalType": "bytes32",
          "name": "args",
          "type": "bytes32"
        }
      ],
      "name": "repay",
      "outputs": [
        {
          "internalType": "uint256",
          "name": "",
          "type": "uint256"
        }
      ],
      "stateMutability": "nonpayable",
      "type": "function"
    },
    {
      "inputs": [
        {
          "internalType": "address",
          "name": "asset",
          "type": "address"
        },
        {
          "internalType": "uint256",
          "name": "amount",
          "type": "uint256"
        },
        {
          "internalType": "uint256",
          "name": "interestRateMode",
          "type": "uint256"
        },
        {
          "internalType": "address",
          "name": "onBehalfOf",
          "type": "address"
        }
      ],
      "name": "repay",
      "outputs": [
        {
          "internalType": "uint256",
          "name": "",
          "type": "uint256"
        }
      ],
      "stateMutability": "nonpayable",
      "type": "function"
    },
    {
      "inputs": [
        {
          "internalType": "address",
          "name": "asset",
          "type": "address"
        },
        {
          "internalType": "uint256",
          "name": "amount",
          "type": "uint256"
        },
        {
          "internalType": "uint256",
          "name": "interestRateMode",
          "type": "uint256"
        }
      ],
      "name": "repayWithATokens",
      "outputs": [
        {
          "internalType": "uint256",
          "name": "",
          "type": "uint256"
        }
      ],
      "stateMutability": "nonpayable",
      "type": "function"
    },
    {
      "inputs": [
        {
          "internalType": "bytes32",
          "name": "args",
          "type": "bytes32"
        }
      ],
      "name": "repayWithATokens",
      "outputs": [
        {
          "internalType": "uint256",
          "name": "",
          "type": "uint256"
        }
      ],
      "stateMutability": "nonpayable",
      "type": "function"
    },
    {
      "inputs": [
        {
          "internalType": "bytes32",
          "name": "args",
          "type": "bytes32"
        },
        {
          "internalType": "bytes32",
          "name": "r",
          "type": "bytes32"
        },
        {
          "internalType": "bytes32",
          "name": "s",
          "type": "bytes32"
        }
      ],
      "name": "repayWithPermit",
      "outputs": [
        {
          "internalType": "uint256",
          "name": "",
          "type": "uint256"
        }
      ],
      "stateMutability": "nonpayable",
      "type": "function"
    },
    {
      "inputs": [
        {
          "internalType": "address",
          "name": "asset",
          "type": "address"
        },
        {
          "internalType": "uint256",
          "name": "amount",
          "type": "uint256"
        },
        {
          "internalType": "uint256",
          "name": "interestRateMode",
          "type": "uint256"
        },
        {
          "internalType": "address",
          "name": "onBehalfOf",
          "type": "address"
        },
        {
          "internalType": "uint256",
          "name": "deadline",
          "type": "uint256"
        },
        {
          "internalType": "uint8",
          "name": "permitV",
          "type": "uint8"
        },
        {
          "internalType": "bytes32",
          "name": "permitR",
          "type": "bytes32"
        },
        {
          "internalType": "bytes32",
          "name": "permitS",
          "type": "bytes32"
        }
      ],
      "name": "repayWithPermit",
      "outputs": [
        {
          "internalType": "uint256",
          "name": "",
          "type": "uint256"
        }
      ],
      "stateMutability": "nonpayable",
      "type": "function"
    },
    {
      "inputs": [
        {
          "internalType": "address",
          "name": "token",
          "type": "address"
        },
        {
          "internalType": "address",
          "name": "to",
          "type": "address"
        },
        {
          "internalType": "uint256",
          "name": "amount",
          "type": "uint256"
        }
      ],
      "name": "rescueTokens",
      "outputs": [],
      "stateMutability": "nonpayable",
      "type": "function"
    },
    {
      "inputs": [
        {
          "internalType": "address",
          "name": "asset",
          "type": "address"
        }
      ],
      "name": "resetIsolationModeTotalDebt",
      "outputs": [],
      "stateMutability": "nonpayable",
      "type": "function"
    },
    {
      "inputs": [
        {
          "internalType": "address",
          "name": "asset",
          "type": "address"
        },
        {
          "components": [
            {
              "internalType": "uint256",
              "name": "data",
              "type": "uint256"
            }
          ],
          "internalType": "struct DataTypes.ReserveConfigurationMap",
          "name": "configuration",
          "type": "tuple"
        }
      ],
      "name": "setConfiguration",
      "outputs": [],
      "stateMutability": "nonpayable",
      "type": "function"
    },
    {
      "inputs": [
        {
          "internalType": "address",
          "name": "asset",
          "type": "address"
        },
        {
          "internalType": "address",
          "name": "rateStrategyAddress",
          "type": "address"
        }
      ],
      "name": "setReserveInterestRateStrategyAddress",
      "outputs": [],
      "stateMutability": "nonpayable",
      "type": "function"
    },
    {
      "inputs": [
        {
          "internalType": "uint8",
          "name": "categoryId",
          "type": "uint8"
        }
      ],
      "name": "setUserEMode",
      "outputs": [],
      "stateMutability": "nonpayable",
      "type": "function"
    },
    {
      "inputs": [
        {
          "internalType": "bytes32",
          "name": "args",
          "type": "bytes32"
        }
      ],
      "name": "setUserUseReserveAsCollateral",
      "outputs": [],
      "stateMutability": "nonpayable",
      "type": "function"
    },
    {
      "inputs": [
        {
          "internalType": "address",
          "name": "asset",
          "type": "address"
        },
        {
          "internalType": "bool",
          "name": "useAsCollateral",
          "type": "bool"
        }
      ],
      "name": "setUserUseReserveAsCollateral",
      "outputs": [],
      "stateMutability": "nonpayable",
      "type": "function"
    },
    {
      "inputs": [
        {
          "internalType": "address",
          "name": "asset",
          "type": "address"
        },
        {
          "internalType": "uint256",
          "name": "amount",
          "type": "uint256"
        },
        {
          "internalType": "address",
          "name": "onBehalfOf",
          "type": "address"
        },
        {
          "internalType": "uint16",
          "name": "referralCode",
          "type": "uint16"
        }
      ],
      "name": "supply",
      "outputs": [],
      "stateMutability": "nonpayable",
      "type": "function"
    },
    {
      "inputs": [
        {
          "internalType": "bytes32",
          "name": "args",
          "type": "bytes32"
        }
      ],
      "name": "supply",
      "outputs": [],
      "stateMutability": "nonpayable",
      "type": "function"
    },
    {
      "inputs": [
        {
          "internalType": "address",
          "name": "asset",
          "type": "address"
        },
        {
          "internalType": "uint256",
          "name": "amount",
          "type": "uint256"
        },
        {
          "internalType": "address",
          "name": "onBehalfOf",
          "type": "address"
        },
        {
          "internalType": "uint16",
          "name": "referralCode",
          "type": "uint16"
        },
        {
          "internalType": "uint256",
          "name": "deadline",
          "type": "uint256"
        },
        {
          "internalType": "uint8",
          "name": "permitV",
          "type": "uint8"
        },
        {
          "internalType": "bytes32",
          "name": "permitR",
          "type": "bytes32"
        },
        {
          "internalType": "bytes32",
          "name": "permitS",
          "type": "bytes32"
        }
      ],
      "name": "supplyWithPermit",
      "outputs": [],
      "stateMutability": "nonpayable",
      "type": "function"
    },
    {
      "inputs": [
        {
          "internalType": "bytes32",
          "name": "args",
          "type": "bytes32"
        },
        {
          "internalType": "bytes32",
          "name": "r",
          "type": "bytes32"
        },
        {
          "internalType": "bytes32",
          "name": "s",
          "type": "bytes32"
        }
      ],
      "name": "supplyWithPermit",
      "outputs": [],
      "stateMutability": "nonpayable",
      "type": "function"
    },
    {
      "inputs": [
        {
          "internalType": "bytes32",
          "name": "args",
          "type": "bytes32"
        }
      ],
      "name": "swapBorrowRateMode",
      "outputs": [],
      "stateMutability": "nonpayable",
      "type": "function"
    },
    {
      "inputs": [
        {
          "internalType": "address",
          "name": "asset",
          "type": "address"
        },
        {
          "internalType": "uint256",
          "name": "interestRateMode",
          "type": "uint256"
        }
      ],
      "name": "swapBorrowRateMode",
      "outputs": [],
      "stateMutability": "nonpayable",
      "type": "function"
    },
    {
      "inputs": [
        {
          "internalType": "uint256",
          "name": "protocolFee",
          "type": "uint256"
        }
      ],
      "name": "updateBridgeProtocolFee",
      "outputs": [],
      "stateMutability": "nonpayable",
      "type": "function"
    },
    {
      "inputs": [
        {
          "internalType": "uint128",
          "name": "flashLoanPremiumTotal",
          "type": "uint128"
        },
        {
          "internalType": "uint128",
          "name": "flashLoanPremiumToProtocol",
          "type": "uint128"
        }
      ],
      "name": "updateFlashloanPremiums",
      "outputs": [],
      "stateMutability": "nonpayable",
      "type": "function"
    },
    {
      "inputs": [
        {
          "internalType": "address",
          "name": "asset",
          "type": "address"
        },
        {
          "internalType": "uint256",
          "name": "amount",
          "type": "uint256"
        },
        {
          "internalType": "address",
          "name": "to",
          "type": "address"
        }
      ],
      "name": "withdraw",
      "outputs": [
        {
          "internalType": "uint256",
          "name": "",
          "type": "uint256"
        }
      ],
      "stateMutability": "nonpayable",
      "type": "function"
    },
    {
      "inputs": [
        {
          "internalType": "bytes32",
          "name": "args",
          "type": "bytes32"
        }
      ],
      "name": "withdraw",
      "outputs": [
        {
          "internalType": "uint256",
          "name": "",
          "type": "uint256"
        }
      ],
      "stateMutability": "nonpayable",
      "type": "function"
    }
  ],
  "transactionHash": "0xac7a90178c9ea0249698370c4e8d8689117e47c5a2093361a6bd0478925dd83d",
  "args": [
    "0xE02F8dC1305840f8fbF8039B651c4199cB652e72"
  ],
  "numDeployments": 1,
  "solcInputHash": "3119f14c142cd6db245e027e6458c4b3",
  "bytecode": "0x60a0604052600080553480156200001557600080fd5b5060405162004c6538038062004c6583398101604081905262000038916200004a565b6001600160a01b03166080526200007c565b6000602082840312156200005d57600080fd5b81516001600160a01b03811681146200007557600080fd5b9392505050565b608051614b6b620000fa600039600081816103cf01528181610ad201528181610b9101528181610f35015281816114ab015281816117a001528181611dd501528181611e8001528181612083015281816122d8015281816124cb0152818161293001528181612e540152818161304901526131ff0152614b6b6000f3fe608060405234801561001057600080fd5b50600436106103825760003560e01c80637a708e92116101de578063d1946dbc1161010f578063e82fec2f116100ad578063f51e435b1161007c578063f51e435b14610a05578063f7a7384014610a18578063f8119d5114610a2b578063fd21ecff14610a3a57600080fd5b8063e82fec2f146109b5578063e8eda9df14610731578063eddf1b79146109c6578063ee3e210b146109f257600080fd5b8063d5eed868116100e9578063d5eed86814610969578063d65dc7a11461097c578063dc7c0bff1461098f578063e43e88a1146109a257600080fd5b8063d1946dbc1461092e578063d579ea7d14610943578063d5ed39331461095657600080fd5b8063bcb6e5221161017c578063c4d66de811610156578063c4d66de8146108e2578063cd112382146108f5578063cea9d26f14610908578063d15e00531461091b57600080fd5b8063bcb6e5221461084d578063bf92857c14610860578063c44b11f7146108a057600080fd5b806394ba89a2116101b857806394ba89a2146108015780639cd1999614610814578063a415bcad14610827578063ab9c4b5d1461083a57600080fd5b80637a708e92146107c85780638e19899e146107db57806394b576de146107ee57600080fd5b806342b0b77c116102b8578063617ba0371161025657806369328dec1161023057806369328dec1461076a57806369a933a51461077d5780636a99c036146107905780636c6f6ae1146107a857600080fd5b8063617ba0371461073157806363c9b86014610744578063680dd47c1461075757600080fd5b8063527517971161029257806352751797146106cb578063563dd613146106f8578063573ade811461070b5780635a3b74b91461071e57600080fd5b806342b0b77c146106545780634417a583146106675780634d013f03146106b857600080fd5b8063272d9072116103255780633036b439116102ff5780633036b4391461048257806335ea6a7514610495578063386497fd1461062e578063427da1771461064157600080fd5b8063272d90721461045457806328530a471461045c5780632dad97d41461046f57600080fd5b80630542975c116103615780630542975c146103ca578063074b2e43146104095780631d2118f91461042e5780631fe3c6f31461044157600080fd5b8062a718a9146103875780630148170e1461039c57806302c205f0146103b7575b600080fd5b61039a610395366004613628565b610a4d565b005b6103a4600181565b6040519081526020015b60405180910390f35b61039a6103c53660046136b3565b610c61565b6103f17f000000000000000000000000000000000000000000000000000000000000000081565b6040516001600160a01b0390911681526020016103ae565b603a546001600160801b03165b6040516001600160801b0390911681526020016103ae565b61039a61043c366004613732565b610d80565b61039a61044f36600461376b565b610ea6565b6039546103a4565b61039a61046a366004613784565b610ec7565b6103a461047d36600461379f565b611065565b61039a61049036600461376b565b61116a565b6106216104a33660046137d4565b604080516102008101825260006101e08201818152825260208201819052918101829052606081018290526080810182905260a0810182905260c0810182905260e08101829052610100810182905261012081018290526101408101829052610160810182905261018081018290526101a081018290526101c0810191909152506001600160a01b0390811660009081526034602090815260409182902082516102008101845281546101e08201908152815260018201546001600160801b0380821694830194909452600160801b908190048416948201949094526002820154808416606083015284900483166080820152600382015480841660a083015284810464ffffffffff1660c0830152600160a81b900461ffff1660e0820152600482015485166101008201526005820154851661012082015260068201548516610140820152600782015490941661016085015260088101548083166101808601529290920481166101a0840152600990910154166101c082015290565b6040516103ae91906137f1565b6103a461063c3660046137d4565b611177565b61039a61064f36600461376b565b61119e565b61039a61066236600461396c565b6111ce565b6106a96106753660046137d4565b60408051602080820183526000918290526001600160a01b0393909316815260358352819020815192830190915254815290565b604051905181526020016103ae565b61039a6106c636600461376b565b6112f2565b6103f16106d93660046139ed565b61ffff166000908152603660205260409020546001600160a01b031690565b6103a461070636600461376b565b611321565b6103a4610719366004613a08565b61134d565b61039a61072c366004613a52565b611451565b61039a61073f366004613a80565b6115da565b61039a6107523660046137d4565b61168b565b61039a610765366004613ad1565b6116e1565b6103a4610778366004613afd565b61170e565b61039a61078b366004613a80565b6118c7565b603a54600160801b90046001600160801b0316610416565b6107bb6107b6366004613784565b61194e565b6040516103ae9190613b85565b61039a6107d6366004613bda565b611a7b565b6103a46107e936600461376b565b611bc1565b6103a46107fc366004613ad1565b611be8565b61039a61080f366004613c3d565b611c23565b61039a610822366004613cad565b611c97565b61039a610835366004613cee565b611cd3565b61039a610848366004613d2d565b611f19565b61039a61085b366004613e3d565b61222a565b61087361086e3660046137d4565b61224b565b604080519687526020870195909552938501929092526060840152608083015260a082015260c0016103ae565b6106a96108ae3660046137d4565b60408051602080820183526000918290526001600160a01b0393909316815260348352819020815192830190915254815290565b61039a6108f03660046137d4565b61242a565b61039a610903366004613732565b612562565b61039a610916366004613e70565b6125c5565b6103a46109293660046137d4565b61264c565b61093661266d565b6040516103ae9190613eb1565b61039a610951366004613f6c565b612765565b61039a610964366004614085565b61284a565b61039a61097736600461376b565b612a36565b6103a461098a36600461379f565b612a97565b6103a461099d36600461376b565b612b11565b61039a6109b03660046137d4565b612b33565b603b546001600160401b03166103a4565b6103a46109d43660046137d4565b6001600160a01b031660009081526038602052604090205460ff1690565b6103a4610a003660046140ea565b612b82565b61039a610a13366004614130565b612cea565b61039a610a2636600461376b565b612dfb565b604051608081526020016103ae565b61039a610a48366004614171565b612e1d565b7340b48599B324136d5fd21d9F9a1BB12F06B631A16383c1087d6034603660356037604051806101200160405280603b60089054906101000a900461ffff1661ffff1681526020018981526020018c6001600160a01b031681526020018b6001600160a01b031681526020018a6001600160a01b0316815260200188151581526020017f00000000000000000000000000000000000000000000000000000000000000006001600160a01b031663fca513a86040518163ffffffff1660e01b8152600401602060405180830381865afa158015610b2e573d6000803e3d6000fd5b505050506040513d601f19601f82011682018060405250810190610b529190614193565b6001600160a01b0390811682528b81166000908152603860209081526040918290205460ff16818501528151635eb88d3d60e01b8152825192909401937f000000000000000000000000000000000000000000000000000000000000000090931692635eb88d3d92600480830193928290030181865afa158015610bda573d6000803e3d6000fd5b505050506040513d601f19601f82011682018060405250810190610bfe9190614193565b6001600160a01b03168152506040518663ffffffff1660e01b8152600401610c2a9594939291906141b0565b60006040518083038186803b158015610c4257600080fd5b505af4158015610c56573d6000803e3d6000fd5b505050505050505050565b60405163d505accf60e01b81526001600160a01b0389169063d505accf90610c9990339030908c908a908a908a908a90600401614269565b600060405180830381600087803b158015610cb357600080fd5b505af1158015610cc7573d6000803e3d6000fd5b5050506001600160a01b038088166000818152603560209081526040918290208251608081018452948e1685529084018c90528382019290925261ffff8916606084015251631913f16160e01b81527304156F20462Cb5aA0b18DD701b56E316609828539350631913f16192610d4692603492603692906004016142aa565b60006040518083038186803b158015610d5e57600080fd5b505af4158015610d72573d6000803e3d6000fd5b505050505050505050505050565b610d88612e48565b604080518082019091526002815261373760f01b60208201526001600160a01b038316610dd15760405162461bcd60e51b8152600401610dc891906142fb565b60405180910390fd5b506001600160a01b038216600090815260346020526040902060030154600160a81b900461ffff16151580610e3b57506000805260366020527f4cb2b152c1b54ce671907a93c300fd5aa72383a9d4ec19a81e3333632ae92e00546001600160a01b038381169116145b604051806040016040528060028152602001611c1960f11b81525090610e745760405162461bcd60e51b8152600401610dc891906142fb565b506001600160a01b03918216600090815260346020526040902060070180546001600160a01b03191691909216179055565b600080610eb4603684612f1a565b91509150610ec28282611c23565b505050565b737BCbe6aAf5dbc1a1aD66b71787689D6E6745D0aF635d5dc313603460366037603860356000336001600160a01b03166001600160a01b031681526020019081526020016000206040518060600160405280603b60089054906101000a900461ffff1661ffff1681526020017f00000000000000000000000000000000000000000000000000000000000000006001600160a01b031663fca513a86040518163ffffffff1660e01b8152600401602060405180830381865afa158015610f91573d6000803e3d6000fd5b505050506040513d601f19601f82011682018060405250810190610fb59190614193565b6001600160a01b031681526020018960ff168152506040518763ffffffff1660e01b81526004016110329695949392919095865260208087019590955260408087019490945260608601929092526080850152805160a0850152918201516001600160a01b031660c0840152015160ff1660e08201526101000190565b60006040518083038186803b15801561104a57600080fd5b505af415801561105e573d6000803e3d6000fd5b5050505050565b600073c82fD183Bd4Fe5c23872A79F2Fb13edF2d266E276340e95de66034603660356000336001600160a01b03166001600160a01b031681526020019081526020016000206040518060a001604052808a6001600160a01b031681526020018981526020018860028111156110dc576110dc61430e565b60028111156110ed576110ed61430e565b81523360208201526001604091820152516001600160e01b031960e087901b16815261111f9493929190600401614346565b602060405180830381865af415801561113c573d6000803e3d6000fd5b505050506040513d601f19601f8201168201806040525081019061116091906143ac565b90505b9392505050565b611172612e48565b603955565b6001600160a01b038116600090815260346020526040812061119890612f47565b92915050565b61ffff81166000908152603660205260409020546001600160a01b0390811690601083901c16610ec28282612562565b60006040518060e00160405280886001600160a01b03168152602001876001600160a01b0316815260200186815260200185858080601f016020809104026020016040519081016040528093929190818152602001838380828437600092018290525093855250505061ffff8516602080840191909152603a546001600160801b03600160801b8204811660408087019190915291166060909401939093526001600160a01b038a16825260349052819020905163a1fe0e8d60e01b815291925073F232D1cf37d051E4f2d6119fd9659ad888D86ddD9163a1fe0e8d916112b99185906004016143c5565b60006040518083038186803b1580156112d157600080fd5b505af41580156112e5573d6000803e3d6000fd5b5050505050505050505050565b61ffff81166000908152603660205260409020546001600160a01b0316601082901c600116610ec28282611451565b600080600080611332603686612faa565b9250925092506113448383833361134d565b95945050505050565b600073c82fD183Bd4Fe5c23872A79F2Fb13edF2d266E276340e95de66034603660356000876001600160a01b03166001600160a01b031681526020019081526020016000206040518060a001604052808b6001600160a01b031681526020018a81526020018960028111156113c4576113c461430e565b60028111156113d5576113d561430e565b81526001600160a01b03891660208201526000604091820152516001600160e01b031960e087901b1681526114109493929190600401614346565b602060405180830381865af415801561142d573d6000803e3d6000fd5b505050506040513d601f19601f8201168201806040525081019061134491906143ac565b7304156F20462Cb5aA0b18DD701b56E3166098285363bf697a2660346036603760356000336001600160a01b03166001600160a01b031681526020019081526020016000208787603b60089054906101000a900461ffff167f00000000000000000000000000000000000000000000000000000000000000006001600160a01b031663fca513a86040518163ffffffff1660e01b8152600401602060405180830381865afa158015611507573d6000803e3d6000fd5b505050506040513d601f19601f8201168201806040525081019061152b9190614193565b336000908152603860205260409081902054905160e08b901b6001600160e01b031916815260048101999099526024890197909752604488019590955260648701939093526001600160a01b039182166084870152151560a486015261ffff90911660c48501521660e483015260ff16610104820152610124015b60006040518083038186803b1580156115be57600080fd5b505af41580156115d2573d6000803e3d6000fd5b505050505050565b6001600160a01b03808316600081815260356020908152604091829020825160808101845294891685529084018790528382019290925261ffff8416606084015251631913f16160e01b81527304156F20462Cb5aA0b18DD701b56E3166098285392631913f1619261165592603492603692916004016142aa565b60006040518083038186803b15801561166d57600080fd5b505af4158015611681573d6000803e3d6000fd5b5050505050505050565b611693612e48565b604051639cf5702360e01b815260346004820152603660248201526001600160a01b038216604482015273C5887A70F132a39A51B07e18c34265aB12C4256890639cf5702390606401611032565b60008060008060006116f4603689613009565b945094509450945094506116818585338686868d8d610c61565b60007304156F20462Cb5aA0b18DD701b56E3166098285363186dea4460346036603760356000336001600160a01b03166001600160a01b031681526020019081526020016000206040518060c001604052808b6001600160a01b031681526020018a8152602001896001600160a01b03168152602001603b60089054906101000a900461ffff1661ffff1681526020017f00000000000000000000000000000000000000000000000000000000000000006001600160a01b031663fca513a86040518163ffffffff1660e01b8152600401602060405180830381865afa1580156117fc573d6000803e3d6000fd5b505050506040513d601f19601f820116820180604052508101906118209190614193565b6001600160a01b039081168252336000908152603860209081526040918290205460ff90811694820194909452815160e08b901b6001600160e01b031916815260048101999099526024890197909752604488019590955260648701939093528151831660848701529381015160a486015291820151811660c4850152606082015160e485015260808201511661010484015260a00151166101248201526101440161111f565b6118cf613047565b6001600160a01b03828116600081815260356020526040908190209051630413c86f60e01b81526034600482015260366024820152604481019190915291861660648301526084820185905260a482015261ffff821660c4820152736eA37c13bE80D5A3d7fF76D4C7D0319553b6f7Fa90630413c86f9060e401611655565b6040805160a081018252600080825260208201819052918101829052606080820192909252608081019190915260ff8216600090815260376020908152604091829020825160a081018452815461ffff808216835262010000820481169483019490945264010000000081049093169381019390935266010000000000009091046001600160a01b031660608301526001810180546080840191906119f290614442565b80601f0160208091040260200160405190810160405280929190818152602001828054611a1e90614442565b8015611a6b5780601f10611a4057610100808354040283529160200191611a6b565b820191906000526020600020905b815481529060010190602001808311611a4e57829003601f168201915b5050505050815250509050919050565b611a83612e48565b73C5887A70F132a39A51B07e18c34265aB12C425686369fc1bdf603460366040518060e001604052808a6001600160a01b03168152602001896001600160a01b03168152602001886001600160a01b03168152602001876001600160a01b03168152602001866001600160a01b03168152602001603b60089054906101000a900461ffff1661ffff168152602001611b19608090565b61ffff168152506040518463ffffffff1660e01b8152600401611b3e93929190614476565b602060405180830381865af4158015611b5b573d6000803e3d6000fd5b505050506040513d601f19601f82011682018060405250810190611b7f91906144f8565b1561105e57603b8054600160401b900461ffff16906008611b9f8361452b565b91906101000a81548161ffff021916908361ffff160217905550505050505050565b6000806000611bd160368561316b565b91509150611be082823361170e565b949350505050565b600080600080600080611bfc60368a6131bd565b94509450945094509450611c168585853386868e8e612b82565b9998505050505050505050565b6001600160a01b0382166000908152603460209081526040808320338452603590925290912073c82fD183Bd4Fe5c23872A79F2Fb13edF2d266E279163eac4d7039185856002811115611c7857611c7861430e565b6040518563ffffffff1660e01b81526004016115a6949392919061454c565b604051631230b2a360e21b815273C5887A70F132a39A51B07e18c34265aB12C42568906348c2ca8c906115a69060349086908690600401614576565b73c82fD183Bd4Fe5c23872A79F2Fb13edF2d266E27631e6473f960346036603760356000876001600160a01b03166001600160a01b031681526020019081526020016000206040518061018001604052808c6001600160a01b03168152602001336001600160a01b03168152602001886001600160a01b031681526020018b81526020018a6002811115611d6957611d6961430e565b6002811115611d7a57611d7a61430e565b815261ffff808b166020808401919091526001604080850191909152603b546001600160401b0381166060860152600160401b900490921660808401528151631f94a27560e31b8152915160a0909301926001600160a01b037f0000000000000000000000000000000000000000000000000000000000000000169263fca513a89260048083019391928290030181865afa158015611e1d573d6000803e3d6000fd5b505050506040513d601f19601f82011682018060405250810190611e419190614193565b6001600160a01b0390811682528981166000908152603860209081526040918290205460ff16818501528151635eb88d3d60e01b8152825192909401937f000000000000000000000000000000000000000000000000000000000000000090931692635eb88d3d92600480830193928290030181865afa158015611ec9573d6000803e3d6000fd5b505050506040513d601f19601f82011682018060405250810190611eed9190614193565b6001600160a01b03168152506040518663ffffffff1660e01b8152600401610c2a9594939291906145ce565b6000604051806101c001604052808d6001600160a01b031681526020018c8c808060200260200160405190810160405280939291908181526020018383602002808284376000920191909152505050908252506040805160208c810282810182019093528c82529283019290918d918d9182918501908490808284376000920191909152505050908252506040805160208a810282810182019093528a82529283019290918b918b9182918501908490808284376000920191909152505050908252506001600160a01b03871660208083019190915260408051601f88018390048302810183018252878152920191908790879081908401838280828437600092018290525093855250505061ffff808616602080850191909152603a546001600160801b03600160801b8204811660408088019190915291166060860152603b546001600160401b0381166080870152600160401b900490921660a08501526001600160a01b037f0000000000000000000000000000000000000000000000000000000000000000811660c08601819052908b16845260388252928290205460ff1660e0850152815163383e6b8b60e11b815291516101009094019363707cd7169260048082019392918290030181865afa1580156120fd573d6000803e3d6000fd5b505050506040513d601f19601f820116820180604052508101906121219190614193565b60405163fa50f29760e01b81523360048201526001600160a01b03919091169063fa50f29790602401602060405180830381865afa158015612167573d6000803e3d6000fd5b505050506040513d601f19601f8201168201806040525081019061218b91906144f8565b151590526001600160a01b03861660009081526035602052604090819020905163173931f560e11b815291925073F232D1cf37d051E4f2d6119fd9659ad888D86ddD91632e7263ea916121ec91603491603691603791908890600401614738565b60006040518083038186803b15801561220457600080fd5b505af4158015612218573d6000803e3d6000fd5b50505050505050505050505050505050565b612232612e48565b6001600160801b03908116600160801b02911617603a55565b604080516001600160a01b0383811660008181526035602090815285822060c0860187525460a086019081528552603b54600160401b900461ffff1681860152848601929092528451631f94a27560e31b8152945190948594859485948594859473C5887A70F132a39A51B07e18c34265aB12C42568946326ec273f9460349460369460379460608501937f0000000000000000000000000000000000000000000000000000000000000000169263fca513a8926004808401938290030181865afa15801561231e573d6000803e3d6000fd5b505050506040513d601f19601f820116820180604052508101906123429190614193565b6001600160a01b0390811682528e81166000908152603860209081526040918290205460ff90811694820194909452815160e08a901b6001600160e01b0319168152600481019890985260248801969096526044870194909452825151606487015293820151608486015291810151831660a4850152606081015190921660c48401526080909101511660e48201526101040160c060405180830381865af41580156123f2573d6000803e3d6000fd5b505050506040513d601f19601f820116820180604052508101906124169190614899565b949c939b5091995097509550909350915050565b6001805460ff168061243b5750303b155b80612447575060005481115b6124aa5760405162461bcd60e51b815260206004820152602e60248201527f436f6e747261637420696e7374616e63652068617320616c726561647920626560448201526d195b881a5b9a5d1a585b1a5e995960921b6064820152608401610dc8565b60015460ff161580156124c9576001805460ff19168117905560008290555b7f00000000000000000000000000000000000000000000000000000000000000006001600160a01b0316836001600160a01b03161460405180604001604052806002815260200161189960f11b815250906125375760405162461bcd60e51b8152600401610dc891906142fb565b50603b805467ffffffffffffffff19166109c41790558015610ec2576001805460ff19169055505050565b6001600160a01b03828116600081815260346020526040908190209051631a5cfdd160e21b815260048101919091526024810191909152908216604482015273c82fD183Bd4Fe5c23872A79F2Fb13edF2d266E2790636973f744906064016115a6565b6125cd6131fd565b6040516343d9915960e11b81526001600160a01b038085166004830152831660248201526044810182905273C5887A70F132a39A51B07e18c34265aB12C42568906387b322b29060640160006040518083038186803b15801561262f57600080fd5b505af4158015612643573d6000803e3d6000fd5b50505050505050565b6001600160a01b038116600090815260346020526040812061119890613321565b603b54606090600160401b900461ffff16600080826001600160401b0381111561269957612699613efe565b6040519080825280602002602001820160405280156126c2578160200160208202803683370190505b50905060005b8381101561275b576000818152603660205260409020546001600160a01b031615612745576000818152603660205260409020546001600160a01b03168261271085846148e3565b81518110612720576127206148f6565b60200260200101906001600160a01b031690816001600160a01b031681525050612753565b8261274f8161490c565b9350505b6001016126c8565b5091038152919050565b61276d612e48565b604080518082019091526002815261189b60f11b602082015260ff83166127a75760405162461bcd60e51b8152600401610dc891906142fb565b5060ff821660009081526037602090815260409182902083518154928501519385015160608601516001600160a01b03166601000000000000026601000000000000600160d01b031961ffff9283166401000000000216640100000000600160d01b0319968316620100000263ffffffff1990961692909316919091179390931793909316929092171781556080820151829190600182019061105e908261496d565b6001600160a01b038681166000908152603460209081526040918290206004015482518084019093526002835261313160f01b9183019190915290911633146128a65760405162461bcd60e51b8152600401610dc891906142fb565b507304156F20462Cb5aA0b18DD701b56E31660982853638a5dadd160346036603760356040518061012001604052808d6001600160a01b031681526020018c6001600160a01b031681526020018b6001600160a01b031681526020018a8152602001898152602001888152602001603b60089054906101000a900461ffff1661ffff1681526020017f00000000000000000000000000000000000000000000000000000000000000006001600160a01b031663fca513a86040518163ffffffff1660e01b8152600401602060405180830381865afa15801561298c573d6000803e3d6000fd5b505050506040513d601f19601f820116820180604052508101906129b09190614193565b6001600160a01b0390811682528d166000908152603860209081526040918290205460ff16920191909152516001600160e01b031960e088901b1681526129fe959493929190600401614a2c565b60006040518083038186803b158015612a1657600080fd5b505af4158015612a2a573d6000803e3d6000fd5b50505050505050505050565b600080600080612a8260368661ffff81811660009081526020939093526040909220546001600160a01b0316926001600160801b03601083901c169260ff609084901c169260981c1690565b935093509350935061105e8484848433611cd3565b6000612aa1613047565b6001600160a01b0384166000818152603460205260409081902060395491516311ce864960e31b81526004810191909152602481019290925260448201859052606482018490526084820152736eA37c13bE80D5A3d7fF76D4C7D0319553b6f7Fa90638e7432489060a40161111f565b600080600080612b22603686612faa565b925092509250611344838383611065565b612b3b612e48565b604051631e3b414560e01b8152603460048201526001600160a01b038216602482015273C5887A70F132a39A51B07e18c34265aB12C4256890631e3b414590604401611032565b60405163d505accf60e01b81526000906001600160a01b038a169063d505accf90612bbd90339030908d908b908b908b908b90600401614269565b600060405180830381600087803b158015612bd757600080fd5b505af1158015612beb573d6000803e3d6000fd5b5050505060006040518060a001604052808b6001600160a01b031681526020018a8152602001896002811115612c2357612c2361430e565b6002811115612c3457612c3461430e565b81526001600160a01b038916602080830182905260006040938401819052918252603590528190209051632074aef360e11b815291925073c82fD183Bd4Fe5c23872A79F2Fb13edF2d266E27916340e95de691612c9b916034916036918790600401614346565b602060405180830381865af4158015612cb8573d6000803e3d6000fd5b505050506040513d601f19601f82011682018060405250810190612cdc91906143ac565b9a9950505050505050505050565b612cf2612e48565b604080518082019091526002815261373760f01b60208201526001600160a01b038316612d325760405162461bcd60e51b8152600401610dc891906142fb565b506001600160a01b038216600090815260346020526040902060030154600160a81b900461ffff16151580612d9c57506000805260366020527f4cb2b152c1b54ce671907a93c300fd5aa72383a9d4ec19a81e3333632ae92e00546001600160a01b038381169116145b604051806040016040528060028152602001611c1960f11b81525090612dd55760405162461bcd60e51b8152600401610dc891906142fb565b506001600160a01b03821660009081526034602052604090208135815581905b50505050565b6000806000612e0b603685613378565b925092509250612df5838333846115da565b6000806000806000612e31603688886133b3565b945094509450945094506126438585858585610a4d565b336001600160a01b03167f00000000000000000000000000000000000000000000000000000000000000006001600160a01b031663631adfca6040518163ffffffff1660e01b8152600401602060405180830381865afa158015612eb0573d6000803e3d6000fd5b505050506040513d601f19601f82011682018060405250810190612ed49190614193565b6001600160a01b03161460405180604001604052806002815260200161031360f41b81525090612f175760405162461bcd60e51b8152600401610dc891906142fb565b50565b61ffff81166000908152602083905260409020546001600160a01b0316601082901c60ff165b9250929050565b6003810154600090600160801b900464ffffffffff16428103612f76575050600201546001600160801b031690565b6002830154611163906001600160801b0380821691612f9e91600160801b909104168461343b565b90613448565b50919050565b6000808061ffff8416601085901c6001600160801b0316609086901c60ff166002600160801b03198201612fde5760001991505b61ffff9092166000908152602088905260409020546001600160a01b03169450925090509250925092565b60008080808060a086901c63ffffffff1660c087901c60ff1682808061302f8c8c613378565b919e909d50909b509499509297509295505050505050565b7f00000000000000000000000000000000000000000000000000000000000000006001600160a01b031663707cd7166040518163ffffffff1660e01b8152600401602060405180830381865afa1580156130a5573d6000803e3d6000fd5b505050506040513d601f19601f820116820180604052508101906130c99190614193565b604051633933006760e11b81523360048201526001600160a01b03919091169063726600ce90602401602060405180830381865afa15801561310f573d6000803e3d6000fd5b505050506040513d601f19601f8201168201806040525081019061313391906144f8565b604051806040016040528060018152602001601b60f91b81525090612f175760405162461bcd60e51b8152600401610dc891906142fb565b60008061ffff8316601084901c6001600160801b03166002600160801b0319810161319557506000195b61ffff9190911660009081526020959095526040909420546001600160a01b03169492505050565b6000806000806000806000806000806131d68c8c612faa565b919e909d50909b609881901c63ffffffff169b5060b81c60ff169950975050505050505050565b7f00000000000000000000000000000000000000000000000000000000000000006001600160a01b031663707cd7166040518163ffffffff1660e01b8152600401602060405180830381865afa15801561325b573d6000803e3d6000fd5b505050506040513d601f19601f8201168201806040525081019061327f9190614193565b604051637be53ca160e01b81523360048201526001600160a01b039190911690637be53ca190602401602060405180830381865afa1580156132c5573d6000803e3d6000fd5b505050506040513d601f19601f820116820180604052508101906132e991906144f8565b604051806040016040528060018152602001603160f81b81525090612f175760405162461bcd60e51b8152600401610dc891906142fb565b6003810154600090600160801b900464ffffffffff16428103613350575050600101546001600160801b031690565b6001830154611163906001600160801b0380821691612f9e91600160801b909104168461348c565b61ffff8181166000908152602084905260409020546001600160a01b031690601083901c6001600160801b031690609084901c169250925092565b60008080808061ffff87811690601089901c16602089901c6001600160a01b03166001600160801b03891660808a901c6001166002600160801b031982016133fb5760001991505b61ffff948516600090815260209d909d526040808e2054949095168d5293909b20546001600160a01b039283169c92169a90995097509095509350505050565b60006111638383426134c9565b600081156b019d971e4fe8401e74000000198390048411151761346a57600080fd5b506b033b2e3c9fd0803ce800000091026b019d971e4fe8401e74000000010490565b6000806134a064ffffffffff8416426148e3565b6134aa9085614ad3565b6301e1338090049050611be0816b033b2e3c9fd0803ce8000000614b00565b6000806134dd64ffffffffff8516846148e3565b9050806000036134fc576b033b2e3c9fd0803ce8000000915050611163565b60001981016000808060028511613514576000613519565b600285035b925066038882915c400061352d8a80613448565b8161353a5761353a614aea565b0491506301e1338061354c838b613448565b8161355957613559614aea565b0490506000826135698688614ad3565b6135739190614ad3565b60029004905060008285613587888a614ad3565b6135919190614ad3565b61359b9190614ad3565b60069004905080826301e133806135b28a8f614ad3565b6135bc9190614b13565b6135d2906b033b2e3c9fd0803ce8000000614b00565b6135dc9190614b00565b6135e69190614b00565b9b9a5050505050505050505050565b6001600160a01b0381168114612f1757600080fd5b8035613615816135f5565b919050565b8015158114612f1757600080fd5b600080600080600060a0868803121561364057600080fd5b853561364b816135f5565b9450602086013561365b816135f5565b9350604086013561366b816135f5565b92506060860135915060808601356136828161361a565b809150509295509295909350565b803561ffff8116811461361557600080fd5b803560ff8116811461361557600080fd5b600080600080600080600080610100898b0312156136d057600080fd5b88356136db816135f5565b97506020890135965060408901356136f2816135f5565b955061370060608a01613690565b94506080890135935061371560a08a016136a2565b925060c0890135915060e089013590509295985092959890939650565b6000806040838503121561374557600080fd5b8235613750816135f5565b91506020830135613760816135f5565b809150509250929050565b60006020828403121561377d57600080fd5b5035919050565b60006020828403121561379657600080fd5b611163826136a2565b6000806000606084860312156137b457600080fd5b83356137bf816135f5565b95602085013595506040909401359392505050565b6000602082840312156137e657600080fd5b8135611163816135f5565b81515181526101e08101602083015161381560208401826001600160801b03169052565b50604083015161383060408401826001600160801b03169052565b50606083015161384b60608401826001600160801b03169052565b50608083015161386660808401826001600160801b03169052565b5060a083015161388160a08401826001600160801b03169052565b5060c083015161389a60c084018264ffffffffff169052565b5060e08301516138b060e084018261ffff169052565b50610100838101516001600160a01b039081169184019190915261012080850151821690840152610140808501518216908401526101608085015190911690830152610180808401516001600160801b03908116918401919091526101a0808501518216908401526101c09384015116929091019190915290565b60008083601f84011261393d57600080fd5b5081356001600160401b0381111561395457600080fd5b602083019150836020828501011115612f4057600080fd5b60008060008060008060a0878903121561398557600080fd5b8635613990816135f5565b955060208701356139a0816135f5565b94506040870135935060608701356001600160401b038111156139c257600080fd5b6139ce89828a0161392b565b90945092506139e1905060808801613690565b90509295509295509295565b6000602082840312156139ff57600080fd5b61116382613690565b60008060008060808587031215613a1e57600080fd5b8435613a29816135f5565b935060208501359250604085013591506060850135613a47816135f5565b939692955090935050565b60008060408385031215613a6557600080fd5b8235613a70816135f5565b915060208301356137608161361a565b60008060008060808587031215613a9657600080fd5b8435613aa1816135f5565b9350602085013592506040850135613ab8816135f5565b9150613ac660608601613690565b905092959194509250565b600080600060608486031215613ae657600080fd5b505081359360208301359350604090920135919050565b600080600060608486031215613b1257600080fd5b8335613b1d816135f5565b9250602084013591506040840135613b34816135f5565b809150509250925092565b6000815180845260005b81811015613b6557602081850181015186830182015201613b49565b506000602082860101526020601f19601f83011685010191505092915050565b60208152600061ffff8084511660208401528060208501511660408401528060408501511660608401525060018060a01b036060840151166080830152608083015160a080840152611be060c0840182613b3f565b600080600080600060a08688031215613bf257600080fd5b8535613bfd816135f5565b94506020860135613c0d816135f5565b93506040860135613c1d816135f5565b92506060860135613c2d816135f5565b91506080860135613682816135f5565b60008060408385031215613c5057600080fd5b8235613c5b816135f5565b946020939093013593505050565b60008083601f840112613c7b57600080fd5b5081356001600160401b03811115613c9257600080fd5b6020830191508360208260051b8501011115612f4057600080fd5b60008060208385031215613cc057600080fd5b82356001600160401b03811115613cd657600080fd5b613ce285828601613c69565b90969095509350505050565b600080600080600060a08688031215613d0657600080fd5b8535613d11816135f5565b94506020860135935060408601359250613c2d60608701613690565b600080600080600080600080600080600060e08c8e031215613d4e57600080fd5b613d578c61360a565b9a506001600160401b038060208e01351115613d7257600080fd5b613d828e60208f01358f01613c69565b909b50995060408d0135811015613d9857600080fd5b613da88e60408f01358f01613c69565b909950975060608d0135811015613dbe57600080fd5b613dce8e60608f01358f01613c69565b9097509550613ddf60808e0161360a565b94508060a08e01351115613df257600080fd5b50613e038d60a08e01358e0161392b565b9093509150613e1460c08d01613690565b90509295989b509295989b9093969950565b80356001600160801b038116811461361557600080fd5b60008060408385031215613e5057600080fd5b613e5983613e26565b9150613e6760208401613e26565b90509250929050565b600080600060608486031215613e8557600080fd5b8335613e90816135f5565b92506020840135613ea0816135f5565b929592945050506040919091013590565b6020808252825182820181905260009190848201906040850190845b81811015613ef25783516001600160a01b031683529284019291840191600101613ecd565b50909695505050505050565b634e487b7160e01b600052604160045260246000fd5b60405160a081016001600160401b0381118282101715613f3657613f36613efe565b60405290565b604051601f8201601f191681016001600160401b0381118282101715613f6457613f64613efe565b604052919050565b60008060408385031215613f7f57600080fd5b613f88836136a2565b91506020808401356001600160401b0380821115613fa557600080fd5b9085019060a08288031215613fb957600080fd5b613fc1613f14565b613fca83613690565b8152613fd7848401613690565b84820152613fe760408401613690565b60408201526060830135613ffa816135f5565b606082015260808301358281111561401157600080fd5b80840193505087601f84011261402657600080fd5b82358281111561403857614038613efe565b61404a601f8201601f19168601613f3c565b9250808352888582860101111561406057600080fd5b8085850186850137600085828501015250816080820152809450505050509250929050565b60008060008060008060c0878903121561409e57600080fd5b86356140a9816135f5565b955060208701356140b9816135f5565b945060408701356140c9816135f5565b959894975094956060810135955060808101359460a0909101359350915050565b600080600080600080600080610100898b03121561410757600080fd5b8835614112816135f5565b975060208901359650604089013595506060890135613700816135f5565b600080828403604081121561414457600080fd5b833561414f816135f5565b92506020601f198201121561416357600080fd5b506020830190509250929050565b6000806040838503121561418457600080fd5b50508035926020909101359150565b6000602082840312156141a557600080fd5b8151611163816135f5565b60006101a08201905086825285602083015284604083015283606083015282516080830152602083015160a0830152604083015160018060a01b0380821660c08501528060608601511660e08501525050608083015161010061421d818501836001600160a01b03169052565b60a0850151151561012085015260c08501516001600160a01b0390811661014086015260e086015160ff166101608601529085015190811661018085015290505b509695505050505050565b6001600160a01b0397881681529590961660208601526040850193909352606084019190915260ff16608083015260a082015260c081019190915260e00190565b93845260208085019390935260408085019290925280516001600160a01b039081166060808701919091529382015160808601529181015190911660a0840152015161ffff1660c082015260e00190565b6020815260006111636020830184613b3f565b634e487b7160e01b600052602160045260246000fd5b6003811061434257634e487b7160e01b600052602160045260246000fd5b9052565b8481526020808201859052604080830185905283516001600160a01b0390811660608501529184015160808401528301516101008301919061438b60a0850182614324565b5060608401511660c0830152608090920151151560e0909101529392505050565b6000602082840312156143be57600080fd5b5051919050565b82815260406020820152600060018060a01b038084511660408401528060208501511660608401525060408301516080830152606083015160e060a0840152614412610120840182613b3f565b905061ffff60808501511660c084015260a084015160e084015260c0840151610100840152809150509392505050565b600181811c9082168061445657607f821691505b602082108103612fa457634e487b7160e01b600052602260045260246000fd5b60006101208201905084825283602083015260018060a01b038084511660408401528060208501511660608401528060408501511660808401528060608501511660a08401528060808501511660c08401525060a08301516144de60e084018261ffff169052565b5060c083015161ffff811661010084015250949350505050565b60006020828403121561450a57600080fd5b81516111638161361a565b634e487b7160e01b600052601160045260246000fd5b600061ffff80831681810361454257614542614515565b6001019392505050565b848152602081018490526001600160a01b0383166040820152608081016113446060830184614324565b83815260406020808301829052908201839052600090849060608401835b868110156145c25783356145a7816135f5565b6001600160a01b031682529282019290820190600101614594565b50979650505050505050565b85815260208101859052604081018490526060810183905281516001600160a01b03166080820152610200810160208301516001600160a01b03811660a08401525060408301516001600160a01b03811660c084015250606083015160e0830152608083015161010061464381850183614324565b60a0850151915061012061465c8186018461ffff169052565b60c086015192506101406146738187018515159052565b60e08701516101608781019190915292870151610180870152908601516001600160a01b039081166101a08701529086015160ff166101c0860152908501519081166101e0850152905061425e565b60008151808452602080850194506020840160005b838110156146fc5781516001600160a01b0316875295820195908201906001016146d7565b509495945050505050565b60008151808452602080850194506020840160005b838110156146fc5781518752958201959082019060010161471c565b85815284602082015283604082015282606082015260a0608082015261476a60a0820183516001600160a01b03169052565b600060208301516101c08060c08501526147886102608501836146c2565b91506040850151609f19808685030160e08701526147a68483614707565b9350606087015191506101008187860301818801526147c58584614707565b9450608088015192506101206147e5818901856001600160a01b03169052565b60a089015193506101408389880301818a01526148028786613b3f565b965060c08a01519450610160935061481f848a018661ffff169052565b60e08a0151945061018085818b0152838b015195506101a0935085848b0152828b0151878b0152818b01516101e08b0152848b0151965061486c6102008b01886001600160a01b03169052565b8a015160ff81166102208b01529550614883915050565b87015180151561024088015292506145c2915050565b60008060008060008060c087890312156148b257600080fd5b865195506020870151945060408701519350606087015192506080870151915060a087015190509295509295509295565b8181038181111561119857611198614515565b634e487b7160e01b600052603260045260246000fd5b60006001820161491e5761491e614515565b5060010190565b601f821115610ec2576000816000526020600020601f850160051c8101602086101561494e5750805b601f850160051c820191505b818110156115d25782815560010161495a565b81516001600160401b0381111561498657614986613efe565b61499a816149948454614442565b84614925565b602080601f8311600181146149cf57600084156149b75750858301515b600019600386901b1c1916600185901b1785556115d2565b600085815260208120601f198616915b828110156149fe578886015182559484019460019091019084016149df565b5085821015614a1c5787850151600019600388901b60f8161c191681555b5050505050600190811b01905550565b858152602080820186905260408083018690526060830185905283516001600160a01b03908116608085015291840151821660a084015283015190811660c08301526101a082019050606083015160e08301526080830151610100818185015260a085015161012085015260c085015161014085015260e08501519150614abf6101608501836001600160a01b03169052565b84015160ff8116610180850152905061425e565b808202811582820484141761119857611198614515565b634e487b7160e01b600052601260045260246000fd5b8082018082111561119857611198614515565b600082614b3057634e487b7160e01b600052601260045260246000fd5b50049056fea26469706673582212204bc34648df44990260328e6c2808860587d4c7edb1bd561224d352002db643b064736f6c63430008160033",
  "deployedBytecode": "0x608060405234801561001057600080fd5b50600436106103825760003560e01c80637a708e92116101de578063d1946dbc1161010f578063e82fec2f116100ad578063f51e435b1161007c578063f51e435b14610a05578063f7a7384014610a18578063f8119d5114610a2b578063fd21ecff14610a3a57600080fd5b8063e82fec2f146109b5578063e8eda9df14610731578063eddf1b79146109c6578063ee3e210b146109f257600080fd5b8063d5eed868116100e9578063d5eed86814610969578063d65dc7a11461097c578063dc7c0bff1461098f578063e43e88a1146109a257600080fd5b8063d1946dbc1461092e578063d579ea7d14610943578063d5ed39331461095657600080fd5b8063bcb6e5221161017c578063c4d66de811610156578063c4d66de8146108e2578063cd112382146108f5578063cea9d26f14610908578063d15e00531461091b57600080fd5b8063bcb6e5221461084d578063bf92857c14610860578063c44b11f7146108a057600080fd5b806394ba89a2116101b857806394ba89a2146108015780639cd1999614610814578063a415bcad14610827578063ab9c4b5d1461083a57600080fd5b80637a708e92146107c85780638e19899e146107db57806394b576de146107ee57600080fd5b806342b0b77c116102b8578063617ba0371161025657806369328dec1161023057806369328dec1461076a57806369a933a51461077d5780636a99c036146107905780636c6f6ae1146107a857600080fd5b8063617ba0371461073157806363c9b86014610744578063680dd47c1461075757600080fd5b8063527517971161029257806352751797146106cb578063563dd613146106f8578063573ade811461070b5780635a3b74b91461071e57600080fd5b806342b0b77c146106545780634417a583146106675780634d013f03146106b857600080fd5b8063272d9072116103255780633036b439116102ff5780633036b4391461048257806335ea6a7514610495578063386497fd1461062e578063427da1771461064157600080fd5b8063272d90721461045457806328530a471461045c5780632dad97d41461046f57600080fd5b80630542975c116103615780630542975c146103ca578063074b2e43146104095780631d2118f91461042e5780631fe3c6f31461044157600080fd5b8062a718a9146103875780630148170e1461039c57806302c205f0146103b7575b600080fd5b61039a610395366004613628565b610a4d565b005b6103a4600181565b6040519081526020015b60405180910390f35b61039a6103c53660046136b3565b610c61565b6103f17f000000000000000000000000000000000000000000000000000000000000000081565b6040516001600160a01b0390911681526020016103ae565b603a546001600160801b03165b6040516001600160801b0390911681526020016103ae565b61039a61043c366004613732565b610d80565b61039a61044f36600461376b565b610ea6565b6039546103a4565b61039a61046a366004613784565b610ec7565b6103a461047d36600461379f565b611065565b61039a61049036600461376b565b61116a565b6106216104a33660046137d4565b604080516102008101825260006101e08201818152825260208201819052918101829052606081018290526080810182905260a0810182905260c0810182905260e08101829052610100810182905261012081018290526101408101829052610160810182905261018081018290526101a081018290526101c0810191909152506001600160a01b0390811660009081526034602090815260409182902082516102008101845281546101e08201908152815260018201546001600160801b0380821694830194909452600160801b908190048416948201949094526002820154808416606083015284900483166080820152600382015480841660a083015284810464ffffffffff1660c0830152600160a81b900461ffff1660e0820152600482015485166101008201526005820154851661012082015260068201548516610140820152600782015490941661016085015260088101548083166101808601529290920481166101a0840152600990910154166101c082015290565b6040516103ae91906137f1565b6103a461063c3660046137d4565b611177565b61039a61064f36600461376b565b61119e565b61039a61066236600461396c565b6111ce565b6106a96106753660046137d4565b60408051602080820183526000918290526001600160a01b0393909316815260358352819020815192830190915254815290565b604051905181526020016103ae565b61039a6106c636600461376b565b6112f2565b6103f16106d93660046139ed565b61ffff166000908152603660205260409020546001600160a01b031690565b6103a461070636600461376b565b611321565b6103a4610719366004613a08565b61134d565b61039a61072c366004613a52565b611451565b61039a61073f366004613a80565b6115da565b61039a6107523660046137d4565b61168b565b61039a610765366004613ad1565b6116e1565b6103a4610778366004613afd565b61170e565b61039a61078b366004613a80565b6118c7565b603a54600160801b90046001600160801b0316610416565b6107bb6107b6366004613784565b61194e565b6040516103ae9190613b85565b61039a6107d6366004613bda565b611a7b565b6103a46107e936600461376b565b611bc1565b6103a46107fc366004613ad1565b611be8565b61039a61080f366004613c3d565b611c23565b61039a610822366004613cad565b611c97565b61039a610835366004613cee565b611cd3565b61039a610848366004613d2d565b611f19565b61039a61085b366004613e3d565b61222a565b61087361086e3660046137d4565b61224b565b604080519687526020870195909552938501929092526060840152608083015260a082015260c0016103ae565b6106a96108ae3660046137d4565b60408051602080820183526000918290526001600160a01b0393909316815260348352819020815192830190915254815290565b61039a6108f03660046137d4565b61242a565b61039a610903366004613732565b612562565b61039a610916366004613e70565b6125c5565b6103a46109293660046137d4565b61264c565b61093661266d565b6040516103ae9190613eb1565b61039a610951366004613f6c565b612765565b61039a610964366004614085565b61284a565b61039a61097736600461376b565b612a36565b6103a461098a36600461379f565b612a97565b6103a461099d36600461376b565b612b11565b61039a6109b03660046137d4565b612b33565b603b546001600160401b03166103a4565b6103a46109d43660046137d4565b6001600160a01b031660009081526038602052604090205460ff1690565b6103a4610a003660046140ea565b612b82565b61039a610a13366004614130565b612cea565b61039a610a2636600461376b565b612dfb565b604051608081526020016103ae565b61039a610a48366004614171565b612e1d565b73__$bccc41fb1ec31466354c320a62de720306$__6383c1087d6034603660356037604051806101200160405280603b60089054906101000a900461ffff1661ffff1681526020018981526020018c6001600160a01b031681526020018b6001600160a01b031681526020018a6001600160a01b0316815260200188151581526020017f00000000000000000000000000000000000000000000000000000000000000006001600160a01b031663fca513a86040518163ffffffff1660e01b8152600401602060405180830381865afa158015610b2e573d6000803e3d6000fd5b505050506040513d601f19601f82011682018060405250810190610b529190614193565b6001600160a01b0390811682528b81166000908152603860209081526040918290205460ff16818501528151635eb88d3d60e01b8152825192909401937f000000000000000000000000000000000000000000000000000000000000000090931692635eb88d3d92600480830193928290030181865afa158015610bda573d6000803e3d6000fd5b505050506040513d601f19601f82011682018060405250810190610bfe9190614193565b6001600160a01b03168152506040518663ffffffff1660e01b8152600401610c2a9594939291906141b0565b60006040518083038186803b158015610c4257600080fd5b505af4158015610c56573d6000803e3d6000fd5b505050505050505050565b60405163d505accf60e01b81526001600160a01b0389169063d505accf90610c9990339030908c908a908a908a908a90600401614269565b600060405180830381600087803b158015610cb357600080fd5b505af1158015610cc7573d6000803e3d6000fd5b5050506001600160a01b038088166000818152603560209081526040918290208251608081018452948e1685529084018c90528382019290925261ffff8916606084015251631913f16160e01b815273__$361dc6c2792a1cc663a9fa09e49f2611f9$__9350631913f16192610d4692603492603692906004016142aa565b60006040518083038186803b158015610d5e57600080fd5b505af4158015610d72573d6000803e3d6000fd5b505050505050505050505050565b610d88612e48565b604080518082019091526002815261373760f01b60208201526001600160a01b038316610dd15760405162461bcd60e51b8152600401610dc891906142fb565b60405180910390fd5b506001600160a01b038216600090815260346020526040902060030154600160a81b900461ffff16151580610e3b57506000805260366020527f4cb2b152c1b54ce671907a93c300fd5aa72383a9d4ec19a81e3333632ae92e00546001600160a01b038381169116145b604051806040016040528060028152602001611c1960f11b81525090610e745760405162461bcd60e51b8152600401610dc891906142fb565b506001600160a01b03918216600090815260346020526040902060070180546001600160a01b03191691909216179055565b600080610eb4603684612f1a565b91509150610ec28282611c23565b505050565b73__$ed10ad34e4bfa05366fee67a4c84785b74$__635d5dc313603460366037603860356000336001600160a01b03166001600160a01b031681526020019081526020016000206040518060600160405280603b60089054906101000a900461ffff1661ffff1681526020017f00000000000000000000000000000000000000000000000000000000000000006001600160a01b031663fca513a86040518163ffffffff1660e01b8152600401602060405180830381865afa158015610f91573d6000803e3d6000fd5b505050506040513d601f19601f82011682018060405250810190610fb59190614193565b6001600160a01b031681526020018960ff168152506040518763ffffffff1660e01b81526004016110329695949392919095865260208087019590955260408087019490945260608601929092526080850152805160a0850152918201516001600160a01b031660c0840152015160ff1660e08201526101000190565b60006040518083038186803b15801561104a57600080fd5b505af415801561105e573d6000803e3d6000fd5b5050505050565b600073__$0b64eb7cc793b2002583f81b0fcbabe9c1$__6340e95de66034603660356000336001600160a01b03166001600160a01b031681526020019081526020016000206040518060a001604052808a6001600160a01b031681526020018981526020018860028111156110dc576110dc61430e565b60028111156110ed576110ed61430e565b81523360208201526001604091820152516001600160e01b031960e087901b16815261111f9493929190600401614346565b602060405180830381865af415801561113c573d6000803e3d6000fd5b505050506040513d601f19601f8201168201806040525081019061116091906143ac565b90505b9392505050565b611172612e48565b603955565b6001600160a01b038116600090815260346020526040812061119890612f47565b92915050565b61ffff81166000908152603660205260409020546001600160a01b0390811690601083901c16610ec28282612562565b60006040518060e00160405280886001600160a01b03168152602001876001600160a01b0316815260200186815260200185858080601f016020809104026020016040519081016040528093929190818152602001838380828437600092018290525093855250505061ffff8516602080840191909152603a546001600160801b03600160801b8204811660408087019190915291166060909401939093526001600160a01b038a16825260349052819020905163a1fe0e8d60e01b815291925073__$ee58e3f70df829eee24cccdb3b7f6ef4c2$__9163a1fe0e8d916112b99185906004016143c5565b60006040518083038186803b1580156112d157600080fd5b505af41580156112e5573d6000803e3d6000fd5b5050505050505050505050565b61ffff81166000908152603660205260409020546001600160a01b0316601082901c600116610ec28282611451565b600080600080611332603686612faa565b9250925092506113448383833361134d565b95945050505050565b600073__$0b64eb7cc793b2002583f81b0fcbabe9c1$__6340e95de66034603660356000876001600160a01b03166001600160a01b031681526020019081526020016000206040518060a001604052808b6001600160a01b031681526020018a81526020018960028111156113c4576113c461430e565b60028111156113d5576113d561430e565b81526001600160a01b03891660208201526000604091820152516001600160e01b031960e087901b1681526114109493929190600401614346565b602060405180830381865af415801561142d573d6000803e3d6000fd5b505050506040513d601f19601f8201168201806040525081019061134491906143ac565b73__$361dc6c2792a1cc663a9fa09e49f2611f9$__63bf697a2660346036603760356000336001600160a01b03166001600160a01b031681526020019081526020016000208787603b60089054906101000a900461ffff167f00000000000000000000000000000000000000000000000000000000000000006001600160a01b031663fca513a86040518163ffffffff1660e01b8152600401602060405180830381865afa158015611507573d6000803e3d6000fd5b505050506040513d601f19601f8201168201806040525081019061152b9190614193565b336000908152603860205260409081902054905160e08b901b6001600160e01b031916815260048101999099526024890197909752604488019590955260648701939093526001600160a01b039182166084870152151560a486015261ffff90911660c48501521660e483015260ff16610104820152610124015b60006040518083038186803b1580156115be57600080fd5b505af41580156115d2573d6000803e3d6000fd5b505050505050565b6001600160a01b03808316600081815260356020908152604091829020825160808101845294891685529084018790528382019290925261ffff8416606084015251631913f16160e01b815273__$361dc6c2792a1cc663a9fa09e49f2611f9$__92631913f1619261165592603492603692916004016142aa565b60006040518083038186803b15801561166d57600080fd5b505af4158015611681573d6000803e3d6000fd5b5050505050505050565b611693612e48565b604051639cf5702360e01b815260346004820152603660248201526001600160a01b038216604482015273__$c3639ef7bd6a7ed4de1247a1940f195b29$__90639cf5702390606401611032565b60008060008060006116f4603689613009565b945094509450945094506116818585338686868d8d610c61565b600073__$361dc6c2792a1cc663a9fa09e49f2611f9$__63186dea4460346036603760356000336001600160a01b03166001600160a01b031681526020019081526020016000206040518060c001604052808b6001600160a01b031681526020018a8152602001896001600160a01b03168152602001603b60089054906101000a900461ffff1661ffff1681526020017f00000000000000000000000000000000000000000000000000000000000000006001600160a01b031663fca513a86040518163ffffffff1660e01b8152600401602060405180830381865afa1580156117fc573d6000803e3d6000fd5b505050506040513d601f19601f820116820180604052508101906118209190614193565b6001600160a01b039081168252336000908152603860209081526040918290205460ff90811694820194909452815160e08b901b6001600160e01b031916815260048101999099526024890197909752604488019590955260648701939093528151831660848701529381015160a486015291820151811660c4850152606082015160e485015260808201511661010484015260a00151166101248201526101440161111f565b6118cf613047565b6001600160a01b03828116600081815260356020526040908190209051630413c86f60e01b81526034600482015260366024820152604481019190915291861660648301526084820185905260a482015261ffff821660c482015273__$23e3fcbc89e3c12a0a408784ef0c3ace92$__90630413c86f9060e401611655565b6040805160a081018252600080825260208201819052918101829052606080820192909252608081019190915260ff8216600090815260376020908152604091829020825160a081018452815461ffff808216835262010000820481169483019490945264010000000081049093169381019390935266010000000000009091046001600160a01b031660608301526001810180546080840191906119f290614442565b80601f0160208091040260200160405190810160405280929190818152602001828054611a1e90614442565b8015611a6b5780601f10611a4057610100808354040283529160200191611a6b565b820191906000526020600020905b815481529060010190602001808311611a4e57829003601f168201915b5050505050815250509050919050565b611a83612e48565b73__$c3639ef7bd6a7ed4de1247a1940f195b29$__6369fc1bdf603460366040518060e001604052808a6001600160a01b03168152602001896001600160a01b03168152602001886001600160a01b03168152602001876001600160a01b03168152602001866001600160a01b03168152602001603b60089054906101000a900461ffff1661ffff168152602001611b19608090565b61ffff168152506040518463ffffffff1660e01b8152600401611b3e93929190614476565b602060405180830381865af4158015611b5b573d6000803e3d6000fd5b505050506040513d601f19601f82011682018060405250810190611b7f91906144f8565b1561105e57603b8054600160401b900461ffff16906008611b9f8361452b565b91906101000a81548161ffff021916908361ffff160217905550505050505050565b6000806000611bd160368561316b565b91509150611be082823361170e565b949350505050565b600080600080600080611bfc60368a6131bd565b94509450945094509450611c168585853386868e8e612b82565b9998505050505050505050565b6001600160a01b0382166000908152603460209081526040808320338452603590925290912073__$0b64eb7cc793b2002583f81b0fcbabe9c1$__9163eac4d7039185856002811115611c7857611c7861430e565b6040518563ffffffff1660e01b81526004016115a6949392919061454c565b604051631230b2a360e21b815273__$c3639ef7bd6a7ed4de1247a1940f195b29$__906348c2ca8c906115a69060349086908690600401614576565b73__$0b64eb7cc793b2002583f81b0fcbabe9c1$__631e6473f960346036603760356000876001600160a01b03166001600160a01b031681526020019081526020016000206040518061018001604052808c6001600160a01b03168152602001336001600160a01b03168152602001886001600160a01b031681526020018b81526020018a6002811115611d6957611d6961430e565b6002811115611d7a57611d7a61430e565b815261ffff808b166020808401919091526001604080850191909152603b546001600160401b0381166060860152600160401b900490921660808401528151631f94a27560e31b8152915160a0909301926001600160a01b037f0000000000000000000000000000000000000000000000000000000000000000169263fca513a89260048083019391928290030181865afa158015611e1d573d6000803e3d6000fd5b505050506040513d601f19601f82011682018060405250810190611e419190614193565b6001600160a01b0390811682528981166000908152603860209081526040918290205460ff16818501528151635eb88d3d60e01b8152825192909401937f000000000000000000000000000000000000000000000000000000000000000090931692635eb88d3d92600480830193928290030181865afa158015611ec9573d6000803e3d6000fd5b505050506040513d601f19601f82011682018060405250810190611eed9190614193565b6001600160a01b03168152506040518663ffffffff1660e01b8152600401610c2a9594939291906145ce565b6000604051806101c001604052808d6001600160a01b031681526020018c8c808060200260200160405190810160405280939291908181526020018383602002808284376000920191909152505050908252506040805160208c810282810182019093528c82529283019290918d918d9182918501908490808284376000920191909152505050908252506040805160208a810282810182019093528a82529283019290918b918b9182918501908490808284376000920191909152505050908252506001600160a01b03871660208083019190915260408051601f88018390048302810183018252878152920191908790879081908401838280828437600092018290525093855250505061ffff808616602080850191909152603a546001600160801b03600160801b8204811660408088019190915291166060860152603b546001600160401b0381166080870152600160401b900490921660a08501526001600160a01b037f0000000000000000000000000000000000000000000000000000000000000000811660c08601819052908b16845260388252928290205460ff1660e0850152815163383e6b8b60e11b815291516101009094019363707cd7169260048082019392918290030181865afa1580156120fd573d6000803e3d6000fd5b505050506040513d601f19601f820116820180604052508101906121219190614193565b60405163fa50f29760e01b81523360048201526001600160a01b03919091169063fa50f29790602401602060405180830381865afa158015612167573d6000803e3d6000fd5b505050506040513d601f19601f8201168201806040525081019061218b91906144f8565b151590526001600160a01b03861660009081526035602052604090819020905163173931f560e11b815291925073__$ee58e3f70df829eee24cccdb3b7f6ef4c2$__91632e7263ea916121ec91603491603691603791908890600401614738565b60006040518083038186803b15801561220457600080fd5b505af4158015612218573d6000803e3d6000fd5b50505050505050505050505050505050565b612232612e48565b6001600160801b03908116600160801b02911617603a55565b604080516001600160a01b0383811660008181526035602090815285822060c0860187525460a086019081528552603b54600160401b900461ffff1681860152848601929092528451631f94a27560e31b8152945190948594859485948594859473__$c3639ef7bd6a7ed4de1247a1940f195b29$__946326ec273f9460349460369460379460608501937f0000000000000000000000000000000000000000000000000000000000000000169263fca513a8926004808401938290030181865afa15801561231e573d6000803e3d6000fd5b505050506040513d601f19601f820116820180604052508101906123429190614193565b6001600160a01b0390811682528e81166000908152603860209081526040918290205460ff90811694820194909452815160e08a901b6001600160e01b0319168152600481019890985260248801969096526044870194909452825151606487015293820151608486015291810151831660a4850152606081015190921660c48401526080909101511660e48201526101040160c060405180830381865af41580156123f2573d6000803e3d6000fd5b505050506040513d601f19601f820116820180604052508101906124169190614899565b949c939b5091995097509550909350915050565b6001805460ff168061243b5750303b155b80612447575060005481115b6124aa5760405162461bcd60e51b815260206004820152602e60248201527f436f6e747261637420696e7374616e63652068617320616c726561647920626560448201526d195b881a5b9a5d1a585b1a5e995960921b6064820152608401610dc8565b60015460ff161580156124c9576001805460ff19168117905560008290555b7f00000000000000000000000000000000000000000000000000000000000000006001600160a01b0316836001600160a01b03161460405180604001604052806002815260200161189960f11b815250906125375760405162461bcd60e51b8152600401610dc891906142fb565b50603b805467ffffffffffffffff19166109c41790558015610ec2576001805460ff19169055505050565b6001600160a01b03828116600081815260346020526040908190209051631a5cfdd160e21b815260048101919091526024810191909152908216604482015273__$0b64eb7cc793b2002583f81b0fcbabe9c1$__90636973f744906064016115a6565b6125cd6131fd565b6040516343d9915960e11b81526001600160a01b038085166004830152831660248201526044810182905273__$c3639ef7bd6a7ed4de1247a1940f195b29$__906387b322b29060640160006040518083038186803b15801561262f57600080fd5b505af4158015612643573d6000803e3d6000fd5b50505050505050565b6001600160a01b038116600090815260346020526040812061119890613321565b603b54606090600160401b900461ffff16600080826001600160401b0381111561269957612699613efe565b6040519080825280602002602001820160405280156126c2578160200160208202803683370190505b50905060005b8381101561275b576000818152603660205260409020546001600160a01b031615612745576000818152603660205260409020546001600160a01b03168261271085846148e3565b81518110612720576127206148f6565b60200260200101906001600160a01b031690816001600160a01b031681525050612753565b8261274f8161490c565b9350505b6001016126c8565b5091038152919050565b61276d612e48565b604080518082019091526002815261189b60f11b602082015260ff83166127a75760405162461bcd60e51b8152600401610dc891906142fb565b5060ff821660009081526037602090815260409182902083518154928501519385015160608601516001600160a01b03166601000000000000026601000000000000600160d01b031961ffff9283166401000000000216640100000000600160d01b0319968316620100000263ffffffff1990961692909316919091179390931793909316929092171781556080820151829190600182019061105e908261496d565b6001600160a01b038681166000908152603460209081526040918290206004015482518084019093526002835261313160f01b9183019190915290911633146128a65760405162461bcd60e51b8152600401610dc891906142fb565b5073__$361dc6c2792a1cc663a9fa09e49f2611f9$__638a5dadd160346036603760356040518061012001604052808d6001600160a01b031681526020018c6001600160a01b031681526020018b6001600160a01b031681526020018a8152602001898152602001888152602001603b60089054906101000a900461ffff1661ffff1681526020017f00000000000000000000000000000000000000000000000000000000000000006001600160a01b031663fca513a86040518163ffffffff1660e01b8152600401602060405180830381865afa15801561298c573d6000803e3d6000fd5b505050506040513d601f19601f820116820180604052508101906129b09190614193565b6001600160a01b0390811682528d166000908152603860209081526040918290205460ff16920191909152516001600160e01b031960e088901b1681526129fe959493929190600401614a2c565b60006040518083038186803b158015612a1657600080fd5b505af4158015612a2a573d6000803e3d6000fd5b50505050505050505050565b600080600080612a8260368661ffff81811660009081526020939093526040909220546001600160a01b0316926001600160801b03601083901c169260ff609084901c169260981c1690565b935093509350935061105e8484848433611cd3565b6000612aa1613047565b6001600160a01b0384166000818152603460205260409081902060395491516311ce864960e31b8152600481019190915260248101929092526044820185905260648201849052608482015273__$23e3fcbc89e3c12a0a408784ef0c3ace92$__90638e7432489060a40161111f565b600080600080612b22603686612faa565b925092509250611344838383611065565b612b3b612e48565b604051631e3b414560e01b8152603460048201526001600160a01b038216602482015273__$c3639ef7bd6a7ed4de1247a1940f195b29$__90631e3b414590604401611032565b60405163d505accf60e01b81526000906001600160a01b038a169063d505accf90612bbd90339030908d908b908b908b908b90600401614269565b600060405180830381600087803b158015612bd757600080fd5b505af1158015612beb573d6000803e3d6000fd5b5050505060006040518060a001604052808b6001600160a01b031681526020018a8152602001896002811115612c2357612c2361430e565b6002811115612c3457612c3461430e565b81526001600160a01b038916602080830182905260006040938401819052918252603590528190209051632074aef360e11b815291925073__$0b64eb7cc793b2002583f81b0fcbabe9c1$__916340e95de691612c9b916034916036918790600401614346565b602060405180830381865af4158015612cb8573d6000803e3d6000fd5b505050506040513d601f19601f82011682018060405250810190612cdc91906143ac565b9a9950505050505050505050565b612cf2612e48565b604080518082019091526002815261373760f01b60208201526001600160a01b038316612d325760405162461bcd60e51b8152600401610dc891906142fb565b506001600160a01b038216600090815260346020526040902060030154600160a81b900461ffff16151580612d9c57506000805260366020527f4cb2b152c1b54ce671907a93c300fd5aa72383a9d4ec19a81e3333632ae92e00546001600160a01b038381169116145b604051806040016040528060028152602001611c1960f11b81525090612dd55760405162461bcd60e51b8152600401610dc891906142fb565b506001600160a01b03821660009081526034602052604090208135815581905b50505050565b6000806000612e0b603685613378565b925092509250612df5838333846115da565b6000806000806000612e31603688886133b3565b945094509450945094506126438585858585610a4d565b336001600160a01b03167f00000000000000000000000000000000000000000000000000000000000000006001600160a01b031663631adfca6040518163ffffffff1660e01b8152600401602060405180830381865afa158015612eb0573d6000803e3d6000fd5b505050506040513d601f19601f82011682018060405250810190612ed49190614193565b6001600160a01b03161460405180604001604052806002815260200161031360f41b81525090612f175760405162461bcd60e51b8152600401610dc891906142fb565b50565b61ffff81166000908152602083905260409020546001600160a01b0316601082901c60ff165b9250929050565b6003810154600090600160801b900464ffffffffff16428103612f76575050600201546001600160801b031690565b6002830154611163906001600160801b0380821691612f9e91600160801b909104168461343b565b90613448565b50919050565b6000808061ffff8416601085901c6001600160801b0316609086901c60ff166002600160801b03198201612fde5760001991505b61ffff9092166000908152602088905260409020546001600160a01b03169450925090509250925092565b60008080808060a086901c63ffffffff1660c087901c60ff1682808061302f8c8c613378565b919e909d50909b509499509297509295505050505050565b7f00000000000000000000000000000000000000000000000000000000000000006001600160a01b031663707cd7166040518163ffffffff1660e01b8152600401602060405180830381865afa1580156130a5573d6000803e3d6000fd5b505050506040513d601f19601f820116820180604052508101906130c99190614193565b604051633933006760e11b81523360048201526001600160a01b03919091169063726600ce90602401602060405180830381865afa15801561310f573d6000803e3d6000fd5b505050506040513d601f19601f8201168201806040525081019061313391906144f8565b604051806040016040528060018152602001601b60f91b81525090612f175760405162461bcd60e51b8152600401610dc891906142fb565b60008061ffff8316601084901c6001600160801b03166002600160801b0319810161319557506000195b61ffff9190911660009081526020959095526040909420546001600160a01b03169492505050565b6000806000806000806000806000806131d68c8c612faa565b919e909d50909b609881901c63ffffffff169b5060b81c60ff169950975050505050505050565b7f00000000000000000000000000000000000000000000000000000000000000006001600160a01b031663707cd7166040518163ffffffff1660e01b8152600401602060405180830381865afa15801561325b573d6000803e3d6000fd5b505050506040513d601f19601f8201168201806040525081019061327f9190614193565b604051637be53ca160e01b81523360048201526001600160a01b039190911690637be53ca190602401602060405180830381865afa1580156132c5573d6000803e3d6000fd5b505050506040513d601f19601f820116820180604052508101906132e991906144f8565b604051806040016040528060018152602001603160f81b81525090612f175760405162461bcd60e51b8152600401610dc891906142fb565b6003810154600090600160801b900464ffffffffff16428103613350575050600101546001600160801b031690565b6001830154611163906001600160801b0380821691612f9e91600160801b909104168461348c565b61ffff8181166000908152602084905260409020546001600160a01b031690601083901c6001600160801b031690609084901c169250925092565b60008080808061ffff87811690601089901c16602089901c6001600160a01b03166001600160801b03891660808a901c6001166002600160801b031982016133fb5760001991505b61ffff948516600090815260209d909d526040808e2054949095168d5293909b20546001600160a01b039283169c92169a90995097509095509350505050565b60006111638383426134c9565b600081156b019d971e4fe8401e74000000198390048411151761346a57600080fd5b506b033b2e3c9fd0803ce800000091026b019d971e4fe8401e74000000010490565b6000806134a064ffffffffff8416426148e3565b6134aa9085614ad3565b6301e1338090049050611be0816b033b2e3c9fd0803ce8000000614b00565b6000806134dd64ffffffffff8516846148e3565b9050806000036134fc576b033b2e3c9fd0803ce8000000915050611163565b60001981016000808060028511613514576000613519565b600285035b925066038882915c400061352d8a80613448565b8161353a5761353a614aea565b0491506301e1338061354c838b613448565b8161355957613559614aea565b0490506000826135698688614ad3565b6135739190614ad3565b60029004905060008285613587888a614ad3565b6135919190614ad3565b61359b9190614ad3565b60069004905080826301e133806135b28a8f614ad3565b6135bc9190614b13565b6135d2906b033b2e3c9fd0803ce8000000614b00565b6135dc9190614b00565b6135e69190614b00565b9b9a5050505050505050505050565b6001600160a01b0381168114612f1757600080fd5b8035613615816135f5565b919050565b8015158114612f1757600080fd5b600080600080600060a0868803121561364057600080fd5b853561364b816135f5565b9450602086013561365b816135f5565b9350604086013561366b816135f5565b92506060860135915060808601356136828161361a565b809150509295509295909350565b803561ffff8116811461361557600080fd5b803560ff8116811461361557600080fd5b600080600080600080600080610100898b0312156136d057600080fd5b88356136db816135f5565b97506020890135965060408901356136f2816135f5565b955061370060608a01613690565b94506080890135935061371560a08a016136a2565b925060c0890135915060e089013590509295985092959890939650565b6000806040838503121561374557600080fd5b8235613750816135f5565b91506020830135613760816135f5565b809150509250929050565b60006020828403121561377d57600080fd5b5035919050565b60006020828403121561379657600080fd5b611163826136a2565b6000806000606084860312156137b457600080fd5b83356137bf816135f5565b95602085013595506040909401359392505050565b6000602082840312156137e657600080fd5b8135611163816135f5565b81515181526101e08101602083015161381560208401826001600160801b03169052565b50604083015161383060408401826001600160801b03169052565b50606083015161384b60608401826001600160801b03169052565b50608083015161386660808401826001600160801b03169052565b5060a083015161388160a08401826001600160801b03169052565b5060c083015161389a60c084018264ffffffffff169052565b5060e08301516138b060e084018261ffff169052565b50610100838101516001600160a01b039081169184019190915261012080850151821690840152610140808501518216908401526101608085015190911690830152610180808401516001600160801b03908116918401919091526101a0808501518216908401526101c09384015116929091019190915290565b60008083601f84011261393d57600080fd5b5081356001600160401b0381111561395457600080fd5b602083019150836020828501011115612f4057600080fd5b60008060008060008060a0878903121561398557600080fd5b8635613990816135f5565b955060208701356139a0816135f5565b94506040870135935060608701356001600160401b038111156139c257600080fd5b6139ce89828a0161392b565b90945092506139e1905060808801613690565b90509295509295509295565b6000602082840312156139ff57600080fd5b61116382613690565b60008060008060808587031215613a1e57600080fd5b8435613a29816135f5565b935060208501359250604085013591506060850135613a47816135f5565b939692955090935050565b60008060408385031215613a6557600080fd5b8235613a70816135f5565b915060208301356137608161361a565b60008060008060808587031215613a9657600080fd5b8435613aa1816135f5565b9350602085013592506040850135613ab8816135f5565b9150613ac660608601613690565b905092959194509250565b600080600060608486031215613ae657600080fd5b505081359360208301359350604090920135919050565b600080600060608486031215613b1257600080fd5b8335613b1d816135f5565b9250602084013591506040840135613b34816135f5565b809150509250925092565b6000815180845260005b81811015613b6557602081850181015186830182015201613b49565b506000602082860101526020601f19601f83011685010191505092915050565b60208152600061ffff8084511660208401528060208501511660408401528060408501511660608401525060018060a01b036060840151166080830152608083015160a080840152611be060c0840182613b3f565b600080600080600060a08688031215613bf257600080fd5b8535613bfd816135f5565b94506020860135613c0d816135f5565b93506040860135613c1d816135f5565b92506060860135613c2d816135f5565b91506080860135613682816135f5565b60008060408385031215613c5057600080fd5b8235613c5b816135f5565b946020939093013593505050565b60008083601f840112613c7b57600080fd5b5081356001600160401b03811115613c9257600080fd5b6020830191508360208260051b8501011115612f4057600080fd5b60008060208385031215613cc057600080fd5b82356001600160401b03811115613cd657600080fd5b613ce285828601613c69565b90969095509350505050565b600080600080600060a08688031215613d0657600080fd5b8535613d11816135f5565b94506020860135935060408601359250613c2d60608701613690565b600080600080600080600080600080600060e08c8e031215613d4e57600080fd5b613d578c61360a565b9a506001600160401b038060208e01351115613d7257600080fd5b613d828e60208f01358f01613c69565b909b50995060408d0135811015613d9857600080fd5b613da88e60408f01358f01613c69565b909950975060608d0135811015613dbe57600080fd5b613dce8e60608f01358f01613c69565b9097509550613ddf60808e0161360a565b94508060a08e01351115613df257600080fd5b50613e038d60a08e01358e0161392b565b9093509150613e1460c08d01613690565b90509295989b509295989b9093969950565b80356001600160801b038116811461361557600080fd5b60008060408385031215613e5057600080fd5b613e5983613e26565b9150613e6760208401613e26565b90509250929050565b600080600060608486031215613e8557600080fd5b8335613e90816135f5565b92506020840135613ea0816135f5565b929592945050506040919091013590565b6020808252825182820181905260009190848201906040850190845b81811015613ef25783516001600160a01b031683529284019291840191600101613ecd565b50909695505050505050565b634e487b7160e01b600052604160045260246000fd5b60405160a081016001600160401b0381118282101715613f3657613f36613efe565b60405290565b604051601f8201601f191681016001600160401b0381118282101715613f6457613f64613efe565b604052919050565b60008060408385031215613f7f57600080fd5b613f88836136a2565b91506020808401356001600160401b0380821115613fa557600080fd5b9085019060a08288031215613fb957600080fd5b613fc1613f14565b613fca83613690565b8152613fd7848401613690565b84820152613fe760408401613690565b60408201526060830135613ffa816135f5565b606082015260808301358281111561401157600080fd5b80840193505087601f84011261402657600080fd5b82358281111561403857614038613efe565b61404a601f8201601f19168601613f3c565b9250808352888582860101111561406057600080fd5b8085850186850137600085828501015250816080820152809450505050509250929050565b60008060008060008060c0878903121561409e57600080fd5b86356140a9816135f5565b955060208701356140b9816135f5565b945060408701356140c9816135f5565b959894975094956060810135955060808101359460a0909101359350915050565b600080600080600080600080610100898b03121561410757600080fd5b8835614112816135f5565b975060208901359650604089013595506060890135613700816135f5565b600080828403604081121561414457600080fd5b833561414f816135f5565b92506020601f198201121561416357600080fd5b506020830190509250929050565b6000806040838503121561418457600080fd5b50508035926020909101359150565b6000602082840312156141a557600080fd5b8151611163816135f5565b60006101a08201905086825285602083015284604083015283606083015282516080830152602083015160a0830152604083015160018060a01b0380821660c08501528060608601511660e08501525050608083015161010061421d818501836001600160a01b03169052565b60a0850151151561012085015260c08501516001600160a01b0390811661014086015260e086015160ff166101608601529085015190811661018085015290505b509695505050505050565b6001600160a01b0397881681529590961660208601526040850193909352606084019190915260ff16608083015260a082015260c081019190915260e00190565b93845260208085019390935260408085019290925280516001600160a01b039081166060808701919091529382015160808601529181015190911660a0840152015161ffff1660c082015260e00190565b6020815260006111636020830184613b3f565b634e487b7160e01b600052602160045260246000fd5b6003811061434257634e487b7160e01b600052602160045260246000fd5b9052565b8481526020808201859052604080830185905283516001600160a01b0390811660608501529184015160808401528301516101008301919061438b60a0850182614324565b5060608401511660c0830152608090920151151560e0909101529392505050565b6000602082840312156143be57600080fd5b5051919050565b82815260406020820152600060018060a01b038084511660408401528060208501511660608401525060408301516080830152606083015160e060a0840152614412610120840182613b3f565b905061ffff60808501511660c084015260a084015160e084015260c0840151610100840152809150509392505050565b600181811c9082168061445657607f821691505b602082108103612fa457634e487b7160e01b600052602260045260246000fd5b60006101208201905084825283602083015260018060a01b038084511660408401528060208501511660608401528060408501511660808401528060608501511660a08401528060808501511660c08401525060a08301516144de60e084018261ffff169052565b5060c083015161ffff811661010084015250949350505050565b60006020828403121561450a57600080fd5b81516111638161361a565b634e487b7160e01b600052601160045260246000fd5b600061ffff80831681810361454257614542614515565b6001019392505050565b848152602081018490526001600160a01b0383166040820152608081016113446060830184614324565b83815260406020808301829052908201839052600090849060608401835b868110156145c25783356145a7816135f5565b6001600160a01b031682529282019290820190600101614594565b50979650505050505050565b85815260208101859052604081018490526060810183905281516001600160a01b03166080820152610200810160208301516001600160a01b03811660a08401525060408301516001600160a01b03811660c084015250606083015160e0830152608083015161010061464381850183614324565b60a0850151915061012061465c8186018461ffff169052565b60c086015192506101406146738187018515159052565b60e08701516101608781019190915292870151610180870152908601516001600160a01b039081166101a08701529086015160ff166101c0860152908501519081166101e0850152905061425e565b60008151808452602080850194506020840160005b838110156146fc5781516001600160a01b0316875295820195908201906001016146d7565b509495945050505050565b60008151808452602080850194506020840160005b838110156146fc5781518752958201959082019060010161471c565b85815284602082015283604082015282606082015260a0608082015261476a60a0820183516001600160a01b03169052565b600060208301516101c08060c08501526147886102608501836146c2565b91506040850151609f19808685030160e08701526147a68483614707565b9350606087015191506101008187860301818801526147c58584614707565b9450608088015192506101206147e5818901856001600160a01b03169052565b60a089015193506101408389880301818a01526148028786613b3f565b965060c08a01519450610160935061481f848a018661ffff169052565b60e08a0151945061018085818b0152838b015195506101a0935085848b0152828b0151878b0152818b01516101e08b0152848b0151965061486c6102008b01886001600160a01b03169052565b8a015160ff81166102208b01529550614883915050565b87015180151561024088015292506145c2915050565b60008060008060008060c087890312156148b257600080fd5b865195506020870151945060408701519350606087015192506080870151915060a087015190509295509295509295565b8181038181111561119857611198614515565b634e487b7160e01b600052603260045260246000fd5b60006001820161491e5761491e614515565b5060010190565b601f821115610ec2576000816000526020600020601f850160051c8101602086101561494e5750805b601f850160051c820191505b818110156115d25782815560010161495a565b81516001600160401b0381111561498657614986613efe565b61499a816149948454614442565b84614925565b602080601f8311600181146149cf57600084156149b75750858301515b600019600386901b1c1916600185901b1785556115d2565b600085815260208120601f198616915b828110156149fe578886015182559484019460019091019084016149df565b5085821015614a1c5787850151600019600388901b60f8161c191681555b5050505050600190811b01905550565b858152602080820186905260408083018690526060830185905283516001600160a01b03908116608085015291840151821660a084015283015190811660c08301526101a082019050606083015160e08301526080830151610100818185015260a085015161012085015260c085015161014085015260e08501519150614abf6101608501836001600160a01b03169052565b84015160ff8116610180850152905061425e565b808202811582820484141761119857611198614515565b634e487b7160e01b600052601260045260246000fd5b8082018082111561119857611198614515565b600082614b3057634e487b7160e01b600052601260045260246000fd5b50049056fea26469706673582212204bc34648df44990260328e6c2808860587d4c7edb1bd561224d352002db643b064736f6c63430008160033",
  "libraries": {
    "LiquidationLogic": "0x40b48599B324136d5fd21d9F9a1BB12F06B631A1",
    "SupplyLogic": "0x04156F20462Cb5aA0b18DD701b56E31660982853",
    "EModeLogic": "0x7BCbe6aAf5dbc1a1aD66b71787689D6E6745D0aF",
    "FlashLoanLogic": "0xF232D1cf37d051E4f2d6119fd9659ad888D86ddD",
    "BorrowLogic": "0xc82fD183Bd4Fe5c23872A79F2Fb13edF2d266E27",
    "BridgeLogic": "0x6eA37c13bE80D5A3d7fF76D4C7D0319553b6f7Fa",
    "PoolLogic": "0xC5887A70F132a39A51B07e18c34265aB12C42568",
    "CalldataLogic": "0x175d07C0fe5E44Fdb37BCE5D97fcD35321163eE2"
  },
  "devdoc": {
    "author": "Aave",
    "events": {
      "BackUnbacked(address,address,uint256,uint256)": {
        "details": "Emitted on backUnbacked()",
        "params": {
          "amount": "The amount added as backing",
          "backer": "The address paying for the backing",
          "fee": "The amount paid in fees",
          "reserve": "The address of the underlying asset of the reserve"
        }
      },
      "Borrow(address,address,address,uint256,uint8,uint256,uint16)": {
        "details": "Emitted on borrow() and flashLoan() when debt needs to be opened",
        "params": {
          "amount": "The amount borrowed out",
          "borrowRate": "The numeric rate at which the user has borrowed, expressed in ray",
          "interestRateMode": "The rate mode: 1 for Stable, 2 for Variable",
          "onBehalfOf": "The address that will be getting the debt",
          "referralCode": "The referral code used",
          "reserve": "The address of the underlying asset being borrowed",
          "user": "The address of the user initiating the borrow(), receiving the funds on borrow() or just initiator of the transaction on flashLoan()"
        }
      },
      "FlashLoan(address,address,address,uint256,uint8,uint256,uint16)": {
        "details": "Emitted on flashLoan()",
        "params": {
          "amount": "The amount flash borrowed",
          "asset": "The address of the asset being flash borrowed",
          "initiator": "The address initiating the flash loan",
          "interestRateMode": "The flashloan mode: 0 for regular flashloan, 1 for Stable debt, 2 for Variable debt",
          "premium": "The fee flash borrowed",
          "referralCode": "The referral code used",
          "target": "The address of the flash loan receiver contract"
        }
      },
      "IsolationModeTotalDebtUpdated(address,uint256)": {
        "details": "Emitted on borrow(), repay() and liquidationCall() when using isolated assets",
        "params": {
          "asset": "The address of the underlying asset of the reserve",
          "totalDebt": "The total isolation mode debt for the reserve"
        }
      },
      "LiquidationCall(address,address,address,uint256,uint256,address,bool)": {
        "details": "Emitted when a borrower is liquidated.",
        "params": {
          "collateralAsset": "The address of the underlying asset used as collateral, to receive as result of the liquidation",
          "debtAsset": "The address of the underlying borrowed asset to be repaid with the liquidation",
          "debtToCover": "The debt amount of borrowed `asset` the liquidator wants to cover",
          "liquidatedCollateralAmount": "The amount of collateral received by the liquidator",
          "liquidator": "The address of the liquidator",
          "receiveAToken": "True if the liquidators wants to receive the collateral aTokens, `false` if he wants to receive the underlying collateral asset directly",
          "user": "The address of the borrower getting liquidated"
        }
      },
      "MintUnbacked(address,address,address,uint256,uint16)": {
        "details": "Emitted on mintUnbacked()",
        "params": {
          "amount": "The amount of supplied assets",
          "onBehalfOf": "The beneficiary of the supplied assets, receiving the aTokens",
          "referralCode": "The referral code used",
          "reserve": "The address of the underlying asset of the reserve",
          "user": "The address initiating the supply"
        }
      },
      "MintedToTreasury(address,uint256)": {
        "details": "Emitted when the protocol treasury receives minted aTokens from the accrued interest.",
        "params": {
          "amountMinted": "The amount minted to the treasury",
          "reserve": "The address of the reserve"
        }
      },
      "RebalanceStableBorrowRate(address,address)": {
        "details": "Emitted on rebalanceStableBorrowRate()",
        "params": {
          "reserve": "The address of the underlying asset of the reserve",
          "user": "The address of the user for which the rebalance has been executed"
        }
      },
      "Repay(address,address,address,uint256,bool)": {
        "details": "Emitted on repay()",
        "params": {
          "amount": "The amount repaid",
          "repayer": "The address of the user initiating the repay(), providing the funds",
          "reserve": "The address of the underlying asset of the reserve",
          "useATokens": "True if the repayment is done using aTokens, `false` if done with underlying asset directly",
          "user": "The beneficiary of the repayment, getting his debt reduced"
        }
      },
      "ReserveDataUpdated(address,uint256,uint256,uint256,uint256,uint256)": {
        "details": "Emitted when the state of a reserve is updated.",
        "params": {
          "liquidityIndex": "The next liquidity index",
          "liquidityRate": "The next liquidity rate",
          "reserve": "The address of the underlying asset of the reserve",
          "stableBorrowRate": "The next stable borrow rate",
          "variableBorrowIndex": "The next variable borrow index",
          "variableBorrowRate": "The next variable borrow rate"
        }
      },
      "ReserveUsedAsCollateralDisabled(address,address)": {
        "details": "Emitted on setUserUseReserveAsCollateral()",
        "params": {
          "reserve": "The address of the underlying asset of the reserve",
          "user": "The address of the user enabling the usage as collateral"
        }
      },
      "ReserveUsedAsCollateralEnabled(address,address)": {
        "details": "Emitted on setUserUseReserveAsCollateral()",
        "params": {
          "reserve": "The address of the underlying asset of the reserve",
          "user": "The address of the user enabling the usage as collateral"
        }
      },
      "Supply(address,address,address,uint256,uint16)": {
        "details": "Emitted on supply()",
        "params": {
          "amount": "The amount supplied",
          "onBehalfOf": "The beneficiary of the supply, receiving the aTokens",
          "referralCode": "The referral code used",
          "reserve": "The address of the underlying asset of the reserve",
          "user": "The address initiating the supply"
        }
      },
      "SwapBorrowRateMode(address,address,uint8)": {
        "details": "Emitted on swapBorrowRateMode()",
        "params": {
          "interestRateMode": "The current interest rate mode of the position being swapped: 1 for Stable, 2 for Variable",
          "reserve": "The address of the underlying asset of the reserve",
          "user": "The address of the user swapping his rate mode"
        }
      },
      "UserEModeSet(address,uint8)": {
        "details": "Emitted when the user selects a certain asset category for eMode",
        "params": {
          "categoryId": "The category id",
          "user": "The address of the user"
        }
      },
      "Withdraw(address,address,address,uint256)": {
        "details": "Emitted on withdraw()",
        "params": {
          "amount": "The amount to be withdrawn",
          "reserve": "The address of the underlying asset being withdrawn",
          "to": "The address that will receive the underlying",
          "user": "The address initiating the withdrawal, owner of aTokens"
        }
      }
    },
    "kind": "dev",
    "methods": {
      "BRIDGE_PROTOCOL_FEE()": {
        "returns": {
          "_0": "The bridge fee sent to the protocol treasury"
        }
      },
      "FLASHLOAN_PREMIUM_TOTAL()": {
        "returns": {
          "_0": "The total fee on flashloans"
        }
      },
      "FLASHLOAN_PREMIUM_TO_PROTOCOL()": {
        "returns": {
          "_0": "The flashloan fee sent to the protocol treasury"
        }
      },
      "MAX_NUMBER_RESERVES()": {
        "returns": {
          "_0": "The maximum number of reserves supported"
        }
      },
      "MAX_STABLE_RATE_BORROW_SIZE_PERCENT()": {
        "returns": {
          "_0": "The percentage of available liquidity to borrow, expressed in bps"
        }
      },
      "backUnbacked(address,uint256,uint256)": {
        "params": {
          "amount": "The amount to back",
          "asset": "The address of the underlying asset to back",
          "fee": "The amount paid in fees"
        },
        "returns": {
          "_0": "The backed amount"
        }
      },
      "borrow(address,uint256,uint256,uint16,address)": {
        "params": {
          "amount": "The amount to be borrowed",
          "asset": "The address of the underlying asset to borrow",
          "interestRateMode": "The interest rate mode at which the user wants to borrow: 1 for Stable, 2 for Variable",
          "onBehalfOf": "The address of the user who will receive the debt. Should be the address of the borrower itself calling the function if he wants to borrow against his own collateral, or the address of the credit delegator if he has been given credit delegation allowance",
          "referralCode": "The code used to register the integrator originating the operation, for potential rewards.   0 if the action is executed directly by the user, without any middle-man"
        }
      },
      "borrow(bytes32)": {
        "details": "the shortenedAmount is cast to 256 bits at decode time, if type(uint128).max the value will be expanded to type(uint256).maxassetId is the index of the asset in the reservesList.",
        "params": {
          "args": "Arguments for the borrow function packed in one bytes32    88 bits       16 bits             8 bits                 128 bits       16 bits | 0-padding | referralCode | shortenedInterestRateMode | shortenedAmount | assetId |"
        }
      },
      "configureEModeCategory(uint8,(uint16,uint16,uint16,address,string))": {
        "details": "In eMode, the protocol allows very high borrowing power to borrow assets of the same category. The category 0 is reserved as it's the default for volatile assets",
        "params": {
          "config": "The configuration of the category",
          "id": "The id of the category"
        }
      },
      "constructor": {
        "details": "Constructor.",
        "params": {
          "provider": "The address of the PoolAddressesProvider contract"
        }
      },
      "deposit(address,uint256,address,uint16)": {
        "details": "Deprecated: maintained for compatibility purposes",
        "params": {
          "amount": "The amount to be supplied",
          "asset": "The address of the underlying asset to supply",
          "onBehalfOf": "The address that will receive the aTokens, same as msg.sender if the user   wants to receive them on his own wallet, or a different address if the beneficiary of aTokens   is a different wallet",
          "referralCode": "Code used to register the integrator originating the operation, for potential rewards.   0 if the action is executed directly by the user, without any middle-man"
        }
      },
      "dropReserve(address)": {
        "details": "Only callable by the PoolConfigurator contract",
        "params": {
          "asset": "The address of the underlying asset of the reserve"
        }
      },
      "finalizeTransfer(address,address,address,uint256,uint256,uint256)": {
        "details": "Only callable by the overlying aToken of the `asset`",
        "params": {
          "amount": "The amount being transferred/withdrawn",
          "asset": "The address of the underlying asset of the aToken",
          "balanceFromBefore": "The aToken balance of the `from` user before the transfer",
          "balanceToBefore": "The aToken balance of the `to` user before the transfer",
          "from": "The user from which the aTokens are transferred",
          "to": "The user receiving the aTokens"
        }
      },
      "flashLoan(address,address[],uint256[],uint256[],address,bytes,uint16)": {
        "details": "IMPORTANT There are security concerns for developers of flashloan receiver contracts that must be kept into consideration. For further details please visit https://docs.aave.com/developers/",
        "params": {
          "amounts": "The amounts of the assets being flash-borrowed",
          "assets": "The addresses of the assets being flash-borrowed",
          "interestRateModes": "Types of the debt to open if the flash loan is not returned:   0 -> Don't open any debt, just revert if funds can't be transferred from the receiver   1 -> Open debt at stable rate for the value of the amount flash-borrowed to the `onBehalfOf` address   2 -> Open debt at variable rate for the value of the amount flash-borrowed to the `onBehalfOf` address",
          "onBehalfOf": "The address  that will receive the debt in the case of using on `modes` 1 or 2",
          "params": "Variadic packed params to pass to the receiver as extra information",
          "receiverAddress": "The address of the contract receiving the funds, implementing IFlashLoanReceiver interface",
          "referralCode": "The code used to register the integrator originating the operation, for potential rewards.   0 if the action is executed directly by the user, without any middle-man"
        }
      },
      "flashLoanSimple(address,address,uint256,bytes,uint16)": {
        "details": "IMPORTANT There are security concerns for developers of flashloan receiver contracts that must be kept into consideration. For further details please visit https://docs.aave.com/developers/",
        "params": {
          "amount": "The amount of the asset being flash-borrowed",
          "asset": "The address of the asset being flash-borrowed",
          "params": "Variadic packed params to pass to the receiver as extra information",
          "receiverAddress": "The address of the contract receiving the funds, implementing IFlashLoanSimpleReceiver interface",
          "referralCode": "The code used to register the integrator originating the operation, for potential rewards.   0 if the action is executed directly by the user, without any middle-man"
        }
      },
      "getConfiguration(address)": {
        "params": {
          "asset": "The address of the underlying asset of the reserve"
        },
        "returns": {
          "_0": "The configuration of the reserve"
        }
      },
      "getEModeCategoryData(uint8)": {
        "params": {
          "id": "The id of the category"
        },
        "returns": {
          "_0": "The configuration data of the category"
        }
      },
      "getReserveAddressById(uint16)": {
        "params": {
          "id": "The id of the reserve as stored in the DataTypes.ReserveData struct"
        },
        "returns": {
          "_0": "The address of the reserve associated with id"
        }
      },
      "getReserveData(address)": {
        "params": {
          "asset": "The address of the underlying asset of the reserve"
        },
        "returns": {
          "_0": "The state and configuration data of the reserve"
        }
      },
      "getReserveNormalizedIncome(address)": {
        "params": {
          "asset": "The address of the underlying asset of the reserve"
        },
        "returns": {
          "_0": "The reserve's normalized income"
        }
      },
      "getReserveNormalizedVariableDebt(address)": {
        "details": "WARNING: This function is intended to be used primarily by the protocol itself to get a \"dynamic\" variable index based on time, current stored index and virtual rate at the current moment (approx. a borrower would get if opening a position). This means that is always used in combination with variable debt supply/balances. If using this function externally, consider that is possible to have an increasing normalized variable debt that is not equivalent to how the variable debt index would be updated in storage (e.g. only updates with non-zero variable debt supply)",
        "params": {
          "asset": "The address of the underlying asset of the reserve"
        },
        "returns": {
          "_0": "The reserve normalized variable debt"
        }
      },
      "getReservesList()": {
        "details": "It does not include dropped reserves",
        "returns": {
          "_0": "The addresses of the underlying assets of the initialized reserves"
        }
      },
      "getUserAccountData(address)": {
        "params": {
          "user": "The address of the user"
        },
        "returns": {
          "availableBorrowsBase": "The borrowing power left of the user in the base currency used by the price feed",
          "currentLiquidationThreshold": "The liquidation threshold of the user",
          "healthFactor": "The current health factor of the user",
          "ltv": "The loan to value of The user",
          "totalCollateralBase": "The total collateral of the user in the base currency used by the price feed",
          "totalDebtBase": "The total debt of the user in the base currency used by the price feed"
        }
      },
      "getUserConfiguration(address)": {
        "params": {
          "user": "The user address"
        },
        "returns": {
          "_0": "The configuration of the user"
        }
      },
      "getUserEMode(address)": {
        "params": {
          "user": "The address of the user"
        },
        "returns": {
          "_0": "The eMode id"
        }
      },
      "initReserve(address,address,address,address,address)": {
        "details": "Only callable by the PoolConfigurator contract",
        "params": {
          "aTokenAddress": "The address of the aToken that will be assigned to the reserve",
          "asset": "The address of the underlying asset of the reserve",
          "interestRateStrategyAddress": "The address of the interest rate strategy contract",
          "stableDebtAddress": "The address of the StableDebtToken that will be assigned to the reserve",
          "variableDebtAddress": "The address of the VariableDebtToken that will be assigned to the reserve"
        }
      },
      "initialize(address)": {
        "details": "Function is invoked by the proxy contract when the Pool contract is added to the PoolAddressesProvider of the market.Caching the address of the PoolAddressesProvider in order to reduce gas consumption on subsequent operations",
        "params": {
          "provider": "The address of the PoolAddressesProvider"
        }
      },
      "liquidationCall(address,address,address,uint256,bool)": {
        "params": {
          "collateralAsset": "The address of the underlying asset used as collateral, to receive as result of the liquidation",
          "debtAsset": "The address of the underlying borrowed asset to be repaid with the liquidation",
          "debtToCover": "The debt amount of borrowed `asset` the liquidator wants to cover",
          "receiveAToken": "True if the liquidators wants to receive the collateral aTokens, `false` if he wants to receive the underlying collateral asset directly",
          "user": "The address of the borrower getting liquidated"
        }
      },
      "liquidationCall(bytes32,bytes32)": {
        "details": "the shortenedDebtToCover is cast to 256 bits at decode time, if type(uint128).max the value will be expanded to type(uint256).max",
        "params": {
          "args1": "part of the arguments for the liquidationCall function packed in one bytes32    64 bits      160 bits       16 bits         16 bits | 0-padding | user address | debtAssetId | collateralAssetId |",
          "args2": "part of the arguments for the liquidationCall function packed in one bytes32    127 bits       1 bit             128 bits | 0-padding | receiveAToken | shortenedDebtToCover |"
        }
      },
      "mintToTreasury(address[])": {
        "params": {
          "assets": "The list of reserves for which the minting needs to be executed"
        }
      },
      "mintUnbacked(address,uint256,address,uint16)": {
        "params": {
          "amount": "The amount to mint",
          "asset": "The address of the underlying asset to mint",
          "onBehalfOf": "The address that will receive the aTokens",
          "referralCode": "Code used to register the integrator originating the operation, for potential rewards.   0 if the action is executed directly by the user, without any middle-man"
        }
      },
      "rebalanceStableBorrowRate(address,address)": {
        "params": {
          "asset": "The address of the underlying asset borrowed",
          "user": "The address of the user to be rebalanced"
        }
      },
      "rebalanceStableBorrowRate(bytes32)": {
        "details": "assetId is the index of the asset in the reservesList.",
        "params": {
          "args": "Arguments for the rebalanceStableBorrowRate function packed in one bytes32    80 bits      160 bits     16 bits | 0-padding | user address | assetId |"
        }
      },
      "repay(address,uint256,uint256,address)": {
        "params": {
          "amount": "The amount to repay - Send the value type(uint256).max in order to repay the whole debt for `asset` on the specific `debtMode`",
          "asset": "The address of the borrowed underlying asset previously borrowed",
          "interestRateMode": "The interest rate mode at of the debt the user wants to repay: 1 for Stable, 2 for Variable",
          "onBehalfOf": "The address of the user who will get his debt reduced/removed. Should be the address of the user calling the function if he wants to reduce/remove his own debt, or the address of any other other borrower whose debt should be removed"
        },
        "returns": {
          "_0": "The final amount repaid"
        }
      },
      "repay(bytes32)": {
        "details": "the shortenedAmount is cast to 256 bits at decode time, if type(uint128).max the value will be expanded to type(uint256).maxassetId is the index of the asset in the reservesList.",
        "params": {
          "args": "Arguments for the repay function packed in one bytes32    104 bits             8 bits               128 bits       16 bits | 0-padding | shortenedInterestRateMode | shortenedAmount | assetId |"
        },
        "returns": {
          "_0": "The final amount repaid"
        }
      },
      "repayWithATokens(address,uint256,uint256)": {
        "details": "Passing uint256.max as amount will clean up any residual aToken dust balance, if the user aToken balance is not enough to cover the whole debt",
        "params": {
          "amount": "The amount to repay - Send the value type(uint256).max in order to repay the whole debt for `asset` on the specific `debtMode`",
          "asset": "The address of the borrowed underlying asset previously borrowed",
          "interestRateMode": "The interest rate mode at of the debt the user wants to repay: 1 for Stable, 2 for Variable"
        },
        "returns": {
          "_0": "The final amount repaid"
        }
      },
      "repayWithATokens(bytes32)": {
        "details": "the shortenedAmount is cast to 256 bits at decode time, if type(uint128).max the value will be expanded to type(uint256).maxassetId is the index of the asset in the reservesList.",
        "params": {
          "args": "Arguments for the repayWithATokens function packed in one bytes32    104 bits             8 bits               128 bits       16 bits | 0-padding | shortenedInterestRateMode | shortenedAmount | assetId |"
        },
        "returns": {
          "_0": "The final amount repaid"
        }
      },
      "repayWithPermit(address,uint256,uint256,address,uint256,uint8,bytes32,bytes32)": {
        "params": {
          "amount": "The amount to repay - Send the value type(uint256).max in order to repay the whole debt for `asset` on the specific `debtMode`",
          "asset": "The address of the borrowed underlying asset previously borrowed",
          "deadline": "The deadline timestamp that the permit is valid",
          "interestRateMode": "The interest rate mode at of the debt the user wants to repay: 1 for Stable, 2 for Variable",
          "onBehalfOf": "Address of the user who will get his debt reduced/removed. Should be the address of the user calling the function if he wants to reduce/remove his own debt, or the address of any other other borrower whose debt should be removed",
          "permitR": "The R parameter of ERC712 permit sig",
          "permitS": "The S parameter of ERC712 permit sig",
          "permitV": "The V parameter of ERC712 permit sig"
        },
        "returns": {
          "_0": "The final amount repaid"
        }
      },
      "repayWithPermit(bytes32,bytes32,bytes32)": {
        "details": "the shortenedAmount is cast to 256 bits at decode time, if type(uint128).max the value will be expanded to type(uint256).maxassetId is the index of the asset in the reservesList.",
        "params": {
          "args": "Arguments for the repayWithPermit function packed in one bytes32    64 bits    8 bits        32 bits                   8 bits               128 bits       16 bits | 0-padding | permitV | shortenedDeadline | shortenedInterestRateMode | shortenedAmount | assetId |",
          "r": "The R parameter of ERC712 permit sig",
          "s": "The S parameter of ERC712 permit sig"
        },
        "returns": {
          "_0": "The final amount repaid"
        }
      },
      "rescueTokens(address,address,uint256)": {
        "params": {
          "amount": "The amount of token to transfer",
          "to": "The address of the recipient",
          "token": "The address of the token"
        }
      },
      "resetIsolationModeTotalDebt(address)": {
        "details": "It requires the given asset has zero debt ceiling",
        "params": {
          "asset": "The address of the underlying asset to reset the isolationModeTotalDebt"
        }
      },
      "setConfiguration(address,(uint256))": {
        "details": "Only callable by the PoolConfigurator contract",
        "params": {
          "asset": "The address of the underlying asset of the reserve",
          "configuration": "The new configuration bitmap"
        }
      },
      "setReserveInterestRateStrategyAddress(address,address)": {
        "details": "Only callable by the PoolConfigurator contract",
        "params": {
          "asset": "The address of the underlying asset of the reserve",
          "rateStrategyAddress": "The address of the interest rate strategy contract"
        }
      },
      "setUserEMode(uint8)": {
        "params": {
          "categoryId": "The id of the category"
        }
      },
      "setUserUseReserveAsCollateral(address,bool)": {
        "params": {
          "asset": "The address of the underlying asset supplied",
          "useAsCollateral": "True if the user wants to use the supply as collateral, false otherwise"
        }
      },
      "setUserUseReserveAsCollateral(bytes32)": {
        "details": "assetId is the index of the asset in the reservesList.",
        "params": {
          "args": "Arguments for the setUserUseReserveAsCollateral function packed in one bytes32    239 bits         1 bit       16 bits | 0-padding | useAsCollateral | assetId |"
        }
      },
      "supply(address,uint256,address,uint16)": {
        "params": {
          "amount": "The amount to be supplied",
          "asset": "The address of the underlying asset to supply",
          "onBehalfOf": "The address that will receive the aTokens, same as msg.sender if the user   wants to receive them on his own wallet, or a different address if the beneficiary of aTokens   is a different wallet",
          "referralCode": "Code used to register the integrator originating the operation, for potential rewards.   0 if the action is executed directly by the user, without any middle-man"
        }
      },
      "supply(bytes32)": {
        "details": "the shortenedAmount is cast to 256 bits at decode time, if type(uint128).max the value will be expanded to type(uint256).maxassetId is the index of the asset in the reservesList.",
        "params": {
          "args": "Arguments for the supply function packed in one bytes32    96 bits       16 bits         128 bits      16 bits | 0-padding | referralCode | shortenedAmount | assetId |"
        }
      },
      "supplyWithPermit(address,uint256,address,uint16,uint256,uint8,bytes32,bytes32)": {
        "params": {
          "amount": "The amount to be supplied",
          "asset": "The address of the underlying asset to supply",
          "deadline": "The deadline timestamp that the permit is valid",
          "onBehalfOf": "The address that will receive the aTokens, same as msg.sender if the user   wants to receive them on his own wallet, or a different address if the beneficiary of aTokens   is a different wallet",
          "permitR": "The R parameter of ERC712 permit sig",
          "permitS": "The S parameter of ERC712 permit sig",
          "permitV": "The V parameter of ERC712 permit sig",
          "referralCode": "Code used to register the integrator originating the operation, for potential rewards.   0 if the action is executed directly by the user, without any middle-man"
        }
      },
      "supplyWithPermit(bytes32,bytes32,bytes32)": {
        "details": "the shortenedAmount is cast to 256 bits at decode time, if type(uint128).max the value will be expanded to type(uint256).maxassetId is the index of the asset in the reservesList.",
        "params": {
          "args": "Arguments for the supply function packed in one bytes32    56 bits    8 bits         32 bits           16 bits         128 bits      16 bits | 0-padding | permitV | shortenedDeadline | referralCode | shortenedAmount | assetId |",
          "r": "The R parameter of ERC712 permit sig",
          "s": "The S parameter of ERC712 permit sig"
        }
      },
      "swapBorrowRateMode(address,uint256)": {
        "params": {
          "asset": "The address of the underlying asset borrowed",
          "interestRateMode": "The current interest rate mode of the position being swapped: 1 for Stable, 2 for Variable"
        }
      },
      "swapBorrowRateMode(bytes32)": {
        "details": "assetId is the index of the asset in the reservesList.",
        "params": {
          "args": "Arguments for the swapBorrowRateMode function packed in one bytes32    232 bits            8 bits             16 bits | 0-padding | shortenedInterestRateMode | assetId |"
        }
      },
      "updateBridgeProtocolFee(uint256)": {
        "params": {
          "bridgeProtocolFee": "The part of the premium sent to the protocol treasury"
        }
      },
      "updateFlashloanPremiums(uint128,uint128)": {
        "details": "The total premium is calculated on the total borrowed amountThe premium to protocol is calculated on the total premium, being a percentage of `flashLoanPremiumTotal`Only callable by the PoolConfigurator contract",
        "params": {
          "flashLoanPremiumToProtocol": "The part of the premium sent to the protocol treasury, expressed in bps",
          "flashLoanPremiumTotal": "The total premium, expressed in bps"
        }
      },
      "withdraw(address,uint256,address)": {
        "params": {
          "amount": "The underlying amount to be withdrawn   - Send the value type(uint256).max in order to withdraw the whole aToken balance",
          "asset": "The address of the underlying asset to withdraw",
          "to": "The address that will receive the underlying, same as msg.sender if the user   wants to receive it on his own wallet, or a different address if the beneficiary is a   different wallet"
        },
        "returns": {
          "_0": "The final amount withdrawn"
        }
      },
      "withdraw(bytes32)": {
        "details": "the shortenedAmount is cast to 256 bits at decode time, if type(uint128).max the value will be expanded to type(uint256).maxassetId is the index of the asset in the reservesList.",
        "params": {
          "args": "Arguments for the withdraw function packed in one bytes32    112 bits       128 bits      16 bits | 0-padding | shortenedAmount | assetId |"
        },
        "returns": {
          "_0": "The final amount withdrawn"
        }
      }
    },
    "title": "L2Pool",
    "version": 1
  },
  "userdoc": {
    "kind": "user",
    "methods": {
      "ADDRESSES_PROVIDER()": {
        "notice": "Returns the PoolAddressesProvider connected to this contract"
      },
      "BRIDGE_PROTOCOL_FEE()": {
        "notice": "Returns the part of the bridge fees sent to protocol"
      },
      "FLASHLOAN_PREMIUM_TOTAL()": {
        "notice": "Returns the total fee on flash loans"
      },
      "FLASHLOAN_PREMIUM_TO_PROTOCOL()": {
        "notice": "Returns the part of the flashloan fees sent to protocol"
      },
      "MAX_NUMBER_RESERVES()": {
        "notice": "Returns the maximum number of reserves supported to be listed in this Pool"
      },
      "MAX_STABLE_RATE_BORROW_SIZE_PERCENT()": {
        "notice": "Returns the percentage of available liquidity that can be borrowed at once at stable rate"
      },
      "backUnbacked(address,uint256,uint256)": {
        "notice": "Back the current unbacked underlying with `amount` and pay `fee`."
      },
      "borrow(address,uint256,uint256,uint16,address)": {
        "notice": "Allows users to borrow a specific `amount` of the reserve underlying asset, provided that the borrower already supplied enough collateral, or he was given enough allowance by a credit delegator on the corresponding debt token (StableDebtToken or VariableDebtToken) - E.g. User borrows 100 USDC passing as `onBehalfOf` his own address, receiving the 100 USDC in his wallet   and 100 stable/variable debt tokens, depending on the `interestRateMode`"
      },
      "borrow(bytes32)": {
        "notice": "Calldata efficient wrapper of the borrow function, borrowing on behalf of the caller"
      },
      "configureEModeCategory(uint8,(uint16,uint16,uint16,address,string))": {
        "notice": "Configures a new category for the eMode."
      },
      "deposit(address,uint256,address,uint16)": {
        "notice": "Supplies an `amount` of underlying asset into the reserve, receiving in return overlying aTokens. - E.g. User supplies 100 USDC and gets in return 100 aUSDC"
      },
      "dropReserve(address)": {
        "notice": "Drop a reserve"
      },
      "finalizeTransfer(address,address,address,uint256,uint256,uint256)": {
        "notice": "Validates and finalizes an aToken transfer"
      },
      "flashLoan(address,address[],uint256[],uint256[],address,bytes,uint16)": {
        "notice": "Allows smartcontracts to access the liquidity of the pool within one transaction, as long as the amount taken plus a fee is returned."
      },
      "flashLoanSimple(address,address,uint256,bytes,uint16)": {
        "notice": "Allows smartcontracts to access the liquidity of the pool within one transaction, as long as the amount taken plus a fee is returned."
      },
      "getConfiguration(address)": {
        "notice": "Returns the configuration of the reserve"
      },
      "getEModeCategoryData(uint8)": {
        "notice": "Returns the data of an eMode category"
      },
      "getReserveAddressById(uint16)": {
        "notice": "Returns the address of the underlying asset of a reserve by the reserve id as stored in the DataTypes.ReserveData struct"
      },
      "getReserveData(address)": {
        "notice": "Returns the state and configuration of the reserve"
      },
      "getReserveNormalizedIncome(address)": {
        "notice": "Returns the normalized income of the reserve"
      },
      "getReserveNormalizedVariableDebt(address)": {
        "notice": "Returns the normalized variable debt per unit of asset"
      },
      "getReservesList()": {
        "notice": "Returns the list of the underlying assets of all the initialized reserves"
      },
      "getUserAccountData(address)": {
        "notice": "Returns the user account data across all the reserves"
      },
      "getUserConfiguration(address)": {
        "notice": "Returns the configuration of the user across all the reserves"
      },
      "getUserEMode(address)": {
        "notice": "Returns the eMode the user is using"
      },
      "initReserve(address,address,address,address,address)": {
        "notice": "Initializes a reserve, activating it, assigning an aToken and debt tokens and an interest rate strategy"
      },
      "initialize(address)": {
        "notice": "Initializes the Pool."
      },
      "liquidationCall(address,address,address,uint256,bool)": {
        "notice": "Function to liquidate a non-healthy position collateral-wise, with Health Factor below 1 - The caller (liquidator) covers `debtToCover` amount of debt of the user getting liquidated, and receives   a proportionally amount of the `collateralAsset` plus a bonus to cover market risk"
      },
      "liquidationCall(bytes32,bytes32)": {
        "notice": "Calldata efficient wrapper of the liquidationCall function"
      },
      "mintToTreasury(address[])": {
        "notice": "Mints the assets accrued through the reserve factor to the treasury in the form of aTokens"
      },
      "mintUnbacked(address,uint256,address,uint16)": {
        "notice": "Mints an `amount` of aTokens to the `onBehalfOf`"
      },
      "rebalanceStableBorrowRate(address,address)": {
        "notice": "Rebalances the stable interest rate of a user to the current stable rate defined on the reserve. - Users can be rebalanced if the following conditions are satisfied:     1. Usage ratio is above 95%     2. the current supply APY is below REBALANCE_UP_THRESHOLD * maxVariableBorrowRate, which means that too        much has been borrowed at a stable rate and suppliers are not earning enough"
      },
      "rebalanceStableBorrowRate(bytes32)": {
        "notice": "Calldata efficient wrapper of the rebalanceStableBorrowRate function"
      },
      "repay(address,uint256,uint256,address)": {
        "notice": "Repays a borrowed `amount` on a specific reserve, burning the equivalent debt tokens owned - E.g. User repays 100 USDC, burning 100 variable/stable debt tokens of the `onBehalfOf` address"
      },
      "repay(bytes32)": {
        "notice": "Calldata efficient wrapper of the repay function, repaying on behalf of the caller"
      },
      "repayWithATokens(address,uint256,uint256)": {
        "notice": "Repays a borrowed `amount` on a specific reserve using the reserve aTokens, burning the equivalent debt tokens - E.g. User repays 100 USDC using 100 aUSDC, burning 100 variable/stable debt tokens"
      },
      "repayWithATokens(bytes32)": {
        "notice": "Calldata efficient wrapper of the repayWithATokens function"
      },
      "repayWithPermit(address,uint256,uint256,address,uint256,uint8,bytes32,bytes32)": {
        "notice": "Repay with transfer approval of asset to be repaid done via permit function see: https://eips.ethereum.org/EIPS/eip-2612 and https://eips.ethereum.org/EIPS/eip-713"
      },
      "repayWithPermit(bytes32,bytes32,bytes32)": {
        "notice": "Calldata efficient wrapper of the repayWithPermit function, repaying on behalf of the caller"
      },
      "rescueTokens(address,address,uint256)": {
        "notice": "Rescue and transfer tokens locked in this contract"
      },
      "resetIsolationModeTotalDebt(address)": {
        "notice": "Resets the isolation mode total debt of the given asset to zero"
      },
      "setConfiguration(address,(uint256))": {
        "notice": "Sets the configuration bitmap of the reserve as a whole"
      },
      "setReserveInterestRateStrategyAddress(address,address)": {
        "notice": "Updates the address of the interest rate strategy contract"
      },
      "setUserEMode(uint8)": {
        "notice": "Allows a user to use the protocol in eMode"
      },
      "setUserUseReserveAsCollateral(address,bool)": {
        "notice": "Allows suppliers to enable/disable a specific supplied asset as collateral"
      },
      "setUserUseReserveAsCollateral(bytes32)": {
        "notice": "Calldata efficient wrapper of the setUserUseReserveAsCollateral function"
      },
      "supply(address,uint256,address,uint16)": {
        "notice": "Supplies an `amount` of underlying asset into the reserve, receiving in return overlying aTokens. - E.g. User supplies 100 USDC and gets in return 100 aUSDC"
      },
      "supply(bytes32)": {
        "notice": "Calldata efficient wrapper of the supply function on behalf of the caller"
      },
      "supplyWithPermit(address,uint256,address,uint16,uint256,uint8,bytes32,bytes32)": {
        "notice": "Supply with transfer approval of asset to be supplied done via permit function see: https://eips.ethereum.org/EIPS/eip-2612 and https://eips.ethereum.org/EIPS/eip-713"
      },
      "supplyWithPermit(bytes32,bytes32,bytes32)": {
        "notice": "Calldata efficient wrapper of the supplyWithPermit function on behalf of the caller"
      },
      "swapBorrowRateMode(address,uint256)": {
        "notice": "Allows a borrower to swap his debt between stable and variable mode, or vice versa"
      },
      "swapBorrowRateMode(bytes32)": {
        "notice": "Calldata efficient wrapper of the swapBorrowRateMode function"
      },
      "updateBridgeProtocolFee(uint256)": {
        "notice": "Updates the protocol fee on the bridging"
      },
      "updateFlashloanPremiums(uint128,uint128)": {
        "notice": "Updates flash loan premiums. Flash loan premium consists of two parts: - A part is sent to aToken holders as extra, one time accumulated interest - A part is collected by the protocol treasury"
      },
      "withdraw(address,uint256,address)": {
        "notice": "Withdraws an `amount` of underlying asset from the reserve, burning the equivalent aTokens owned E.g. User has 100 aUSDC, calls withdraw() and receives 100 USDC, burning the 100 aUSDC"
      },
      "withdraw(bytes32)": {
        "notice": "Calldata efficient wrapper of the withdraw function, withdrawing to the caller"
      }
    },
    "notice": "Calldata optimized extension of the Pool contract allowing users to pass compact calldata representation to reduce transaction costs on rollups.",
    "version": 1
  },
  "storageLayout": {
    "storage": [
      {
        "astId": 36820,
        "contract": "contracts/dlend/core/protocol/pool/L2Pool.sol:L2Pool",
        "label": "lastInitializedRevision",
        "offset": 0,
        "slot": "0",
        "type": "t_uint256"
      },
      {
        "astId": 36823,
        "contract": "contracts/dlend/core/protocol/pool/L2Pool.sol:L2Pool",
        "label": "initializing",
        "offset": 0,
        "slot": "1",
        "type": "t_bool"
      },
      {
        "astId": 36893,
        "contract": "contracts/dlend/core/protocol/pool/L2Pool.sol:L2Pool",
        "label": "______gap",
        "offset": 0,
        "slot": "2",
        "type": "t_array(t_uint256)50_storage"
      },
      {
        "astId": 52401,
        "contract": "contracts/dlend/core/protocol/pool/L2Pool.sol:L2Pool",
        "label": "_reserves",
        "offset": 0,
        "slot": "52",
        "type": "t_mapping(t_address,t_struct(ReserveData)48053_storage)"
      },
      {
        "astId": 52406,
        "contract": "contracts/dlend/core/protocol/pool/L2Pool.sol:L2Pool",
        "label": "_usersConfig",
        "offset": 0,
        "slot": "53",
        "type": "t_mapping(t_address,t_struct(UserConfigurationMap)48060_storage)"
      },
      {
        "astId": 52410,
        "contract": "contracts/dlend/core/protocol/pool/L2Pool.sol:L2Pool",
        "label": "_reservesList",
        "offset": 0,
        "slot": "54",
        "type": "t_mapping(t_uint256,t_address)"
      },
      {
        "astId": 52415,
        "contract": "contracts/dlend/core/protocol/pool/L2Pool.sol:L2Pool",
        "label": "_eModeCategories",
        "offset": 0,
        "slot": "55",
        "type": "t_mapping(t_uint8,t_struct(EModeCategory)48071_storage)"
      },
      {
        "astId": 52419,
        "contract": "contracts/dlend/core/protocol/pool/L2Pool.sol:L2Pool",
        "label": "_usersEModeCategory",
        "offset": 0,
        "slot": "56",
        "type": "t_mapping(t_address,t_uint8)"
      },
      {
        "astId": 52421,
        "contract": "contracts/dlend/core/protocol/pool/L2Pool.sol:L2Pool",
        "label": "_bridgeProtocolFee",
        "offset": 0,
        "slot": "57",
        "type": "t_uint256"
      },
      {
        "astId": 52423,
        "contract": "contracts/dlend/core/protocol/pool/L2Pool.sol:L2Pool",
        "label": "_flashLoanPremiumTotal",
        "offset": 0,
        "slot": "58",
        "type": "t_uint128"
      },
      {
        "astId": 52425,
        "contract": "contracts/dlend/core/protocol/pool/L2Pool.sol:L2Pool",
        "label": "_flashLoanPremiumToProtocol",
        "offset": 16,
        "slot": "58",
        "type": "t_uint128"
      },
      {
        "astId": 52427,
        "contract": "contracts/dlend/core/protocol/pool/L2Pool.sol:L2Pool",
        "label": "_maxStableRateBorrowSizePercent",
        "offset": 0,
        "slot": "59",
        "type": "t_uint64"
      },
      {
        "astId": 52429,
        "contract": "contracts/dlend/core/protocol/pool/L2Pool.sol:L2Pool",
        "label": "_reservesCount",
        "offset": 8,
        "slot": "59",
        "type": "t_uint16"
      }
    ],
    "types": {
      "t_address": {
        "encoding": "inplace",
        "label": "address",
        "numberOfBytes": "20"
      },
      "t_array(t_uint256)50_storage": {
        "base": "t_uint256",
        "encoding": "inplace",
        "label": "uint256[50]",
        "numberOfBytes": "1600"
      },
      "t_bool": {
        "encoding": "inplace",
        "label": "bool",
        "numberOfBytes": "1"
      },
      "t_mapping(t_address,t_struct(ReserveData)48053_storage)": {
        "encoding": "mapping",
        "key": "t_address",
        "label": "mapping(address => struct DataTypes.ReserveData)",
        "numberOfBytes": "32",
        "value": "t_struct(ReserveData)48053_storage"
      },
      "t_mapping(t_address,t_struct(UserConfigurationMap)48060_storage)": {
        "encoding": "mapping",
        "key": "t_address",
        "label": "mapping(address => struct DataTypes.UserConfigurationMap)",
        "numberOfBytes": "32",
        "value": "t_struct(UserConfigurationMap)48060_storage"
      },
      "t_mapping(t_address,t_uint8)": {
        "encoding": "mapping",
        "key": "t_address",
        "label": "mapping(address => uint8)",
        "numberOfBytes": "32",
        "value": "t_uint8"
      },
      "t_mapping(t_uint256,t_address)": {
        "encoding": "mapping",
        "key": "t_uint256",
        "label": "mapping(uint256 => address)",
        "numberOfBytes": "32",
        "value": "t_address"
      },
      "t_mapping(t_uint8,t_struct(EModeCategory)48071_storage)": {
        "encoding": "mapping",
        "key": "t_uint8",
        "label": "mapping(uint8 => struct DataTypes.EModeCategory)",
        "numberOfBytes": "32",
        "value": "t_struct(EModeCategory)48071_storage"
      },
      "t_string_storage": {
        "encoding": "bytes",
        "label": "string",
        "numberOfBytes": "32"
      },
      "t_struct(EModeCategory)48071_storage": {
        "encoding": "inplace",
        "label": "struct DataTypes.EModeCategory",
        "members": [
          {
            "astId": 48062,
            "contract": "contracts/dlend/core/protocol/pool/L2Pool.sol:L2Pool",
            "label": "ltv",
            "offset": 0,
            "slot": "0",
            "type": "t_uint16"
          },
          {
            "astId": 48064,
            "contract": "contracts/dlend/core/protocol/pool/L2Pool.sol:L2Pool",
            "label": "liquidationThreshold",
            "offset": 2,
            "slot": "0",
            "type": "t_uint16"
          },
          {
            "astId": 48066,
            "contract": "contracts/dlend/core/protocol/pool/L2Pool.sol:L2Pool",
            "label": "liquidationBonus",
            "offset": 4,
            "slot": "0",
            "type": "t_uint16"
          },
          {
            "astId": 48068,
            "contract": "contracts/dlend/core/protocol/pool/L2Pool.sol:L2Pool",
            "label": "priceSource",
            "offset": 6,
            "slot": "0",
            "type": "t_address"
          },
          {
            "astId": 48070,
            "contract": "contracts/dlend/core/protocol/pool/L2Pool.sol:L2Pool",
            "label": "label",
            "offset": 0,
            "slot": "1",
            "type": "t_string_storage"
          }
        ],
        "numberOfBytes": "64"
      },
      "t_struct(ReserveConfigurationMap)48056_storage": {
        "encoding": "inplace",
        "label": "struct DataTypes.ReserveConfigurationMap",
        "members": [
          {
            "astId": 48055,
            "contract": "contracts/dlend/core/protocol/pool/L2Pool.sol:L2Pool",
            "label": "data",
            "offset": 0,
            "slot": "0",
            "type": "t_uint256"
          }
        ],
        "numberOfBytes": "32"
      },
      "t_struct(ReserveData)48053_storage": {
        "encoding": "inplace",
        "label": "struct DataTypes.ReserveData",
        "members": [
          {
            "astId": 48024,
            "contract": "contracts/dlend/core/protocol/pool/L2Pool.sol:L2Pool",
            "label": "configuration",
            "offset": 0,
            "slot": "0",
            "type": "t_struct(ReserveConfigurationMap)48056_storage"
          },
          {
            "astId": 48026,
            "contract": "contracts/dlend/core/protocol/pool/L2Pool.sol:L2Pool",
            "label": "liquidityIndex",
            "offset": 0,
            "slot": "1",
            "type": "t_uint128"
          },
          {
            "astId": 48028,
            "contract": "contracts/dlend/core/protocol/pool/L2Pool.sol:L2Pool",
            "label": "currentLiquidityRate",
            "offset": 16,
            "slot": "1",
            "type": "t_uint128"
          },
          {
            "astId": 48030,
            "contract": "contracts/dlend/core/protocol/pool/L2Pool.sol:L2Pool",
            "label": "variableBorrowIndex",
            "offset": 0,
            "slot": "2",
            "type": "t_uint128"
          },
          {
            "astId": 48032,
            "contract": "contracts/dlend/core/protocol/pool/L2Pool.sol:L2Pool",
            "label": "currentVariableBorrowRate",
            "offset": 16,
            "slot": "2",
            "type": "t_uint128"
          },
          {
            "astId": 48034,
            "contract": "contracts/dlend/core/protocol/pool/L2Pool.sol:L2Pool",
            "label": "currentStableBorrowRate",
            "offset": 0,
            "slot": "3",
            "type": "t_uint128"
          },
          {
            "astId": 48036,
            "contract": "contracts/dlend/core/protocol/pool/L2Pool.sol:L2Pool",
            "label": "lastUpdateTimestamp",
            "offset": 16,
            "slot": "3",
            "type": "t_uint40"
          },
          {
            "astId": 48038,
            "contract": "contracts/dlend/core/protocol/pool/L2Pool.sol:L2Pool",
            "label": "id",
            "offset": 21,
            "slot": "3",
            "type": "t_uint16"
          },
          {
            "astId": 48040,
            "contract": "contracts/dlend/core/protocol/pool/L2Pool.sol:L2Pool",
            "label": "aTokenAddress",
            "offset": 0,
            "slot": "4",
            "type": "t_address"
          },
          {
            "astId": 48042,
            "contract": "contracts/dlend/core/protocol/pool/L2Pool.sol:L2Pool",
            "label": "stableDebtTokenAddress",
            "offset": 0,
            "slot": "5",
            "type": "t_address"
          },
          {
            "astId": 48044,
            "contract": "contracts/dlend/core/protocol/pool/L2Pool.sol:L2Pool",
            "label": "variableDebtTokenAddress",
            "offset": 0,
            "slot": "6",
            "type": "t_address"
          },
          {
            "astId": 48046,
            "contract": "contracts/dlend/core/protocol/pool/L2Pool.sol:L2Pool",
            "label": "interestRateStrategyAddress",
            "offset": 0,
            "slot": "7",
            "type": "t_address"
          },
          {
            "astId": 48048,
            "contract": "contracts/dlend/core/protocol/pool/L2Pool.sol:L2Pool",
            "label": "accruedToTreasury",
            "offset": 0,
            "slot": "8",
            "type": "t_uint128"
          },
          {
            "astId": 48050,
            "contract": "contracts/dlend/core/protocol/pool/L2Pool.sol:L2Pool",
            "label": "unbacked",
            "offset": 16,
            "slot": "8",
            "type": "t_uint128"
          },
          {
            "astId": 48052,
            "contract": "contracts/dlend/core/protocol/pool/L2Pool.sol:L2Pool",
            "label": "isolationModeTotalDebt",
            "offset": 0,
            "slot": "9",
            "type": "t_uint128"
          }
        ],
        "numberOfBytes": "320"
      },
      "t_struct(UserConfigurationMap)48060_storage": {
        "encoding": "inplace",
        "label": "struct DataTypes.UserConfigurationMap",
        "members": [
          {
            "astId": 48059,
            "contract": "contracts/dlend/core/protocol/pool/L2Pool.sol:L2Pool",
            "label": "data",
            "offset": 0,
            "slot": "0",
            "type": "t_uint256"
          }
        ],
        "numberOfBytes": "32"
      },
      "t_uint128": {
        "encoding": "inplace",
        "label": "uint128",
        "numberOfBytes": "16"
      },
      "t_uint16": {
        "encoding": "inplace",
        "label": "uint16",
        "numberOfBytes": "2"
      },
      "t_uint256": {
        "encoding": "inplace",
        "label": "uint256",
        "numberOfBytes": "32"
      },
      "t_uint40": {
        "encoding": "inplace",
        "label": "uint40",
        "numberOfBytes": "5"
      },
      "t_uint64": {
        "encoding": "inplace",
        "label": "uint64",
        "numberOfBytes": "8"
      },
      "t_uint8": {
        "encoding": "inplace",
        "label": "uint8",
        "numberOfBytes": "1"
      }
    }
  }
}