{
  "address": "0x926e1dF05ca138f1501977A037e464b274CB60b4",
  "abi": [
    {
      "inputs": [
        {
          "internalType": "address",
          "name": "incentivesController",
          "type": "address"
        },
        {
          "internalType": "address",
          "name": "rewardsAdmin",
          "type": "address"
        },
        {
          "internalType": "address",
          "name": "rewardsVault",
          "type": "address"
        }
      ],
      "stateMutability": "nonpayable",
      "type": "constructor"
    },
    {
      "anonymous": false,
      "inputs": [
        {
          "indexed": true,
          "internalType": "address",
          "name": "caller",
          "type": "address"
        },
        {
          "indexed": true,
          "internalType": "address",
          "name": "token",
          "type": "address"
        },
        {
          "indexed": true,
          "internalType": "address",
          "name": "to",
          "type": "address"
        },
        {
          "indexed": false,
          "internalType": "uint256",
          "name": "amount",
          "type": "uint256"
        }
      ],
      "name": "EmergencyWithdrawal",
      "type": "event"
    },
    {
      "inputs": [
        {
          "internalType": "address",
          "name": "token",
          "type": "address"
        },
        {
          "internalType": "address",
          "name": "to",
          "type": "address"
        },
        {
          "internalType": "uint256",
          "name": "amount",
          "type": "uint256"
        }
      ],
      "name": "emergencyWithdrawal",
      "outputs": [],
      "stateMutability": "nonpayable",
      "type": "function"
    },
    {
      "inputs": [],
      "name": "getIncentivesController",
      "outputs": [
        {
          "internalType": "address",
          "name": "",
          "type": "address"
        }
      ],
      "stateMutability": "view",
      "type": "function"
    },
    {
      "inputs": [],
      "name": "getRewardsAdmin",
      "outputs": [
        {
          "internalType": "address",
          "name": "",
          "type": "address"
        }
      ],
      "stateMutability": "view",
      "type": "function"
    },
    {
      "inputs": [],
      "name": "getRewardsVault",
      "outputs": [
        {
          "internalType": "address",
          "name": "",
          "type": "address"
        }
      ],
      "stateMutability": "view",
      "type": "function"
    },
    {
      "inputs": [
        {
          "internalType": "address",
          "name": "to",
          "type": "address"
        },
        {
          "internalType": "address",
          "name": "reward",
          "type": "address"
        },
        {
          "internalType": "uint256",
          "name": "amount",
          "type": "uint256"
        }
      ],
      "name": "performTransfer",
      "outputs": [
        {
          "internalType": "bool",
          "name": "",
          "type": "bool"
        }
      ],
      "stateMutability": "nonpayable",
      "type": "function"
    }
  ],
  "transactionHash": "0xbeea7e7dce801fc4a668f2499a845653398237a510efef8550069e6579dacb5f",
  "args": [
    "0xF507c73A30b61BE24d11FcFcf72b3Bb6E1146d52",
    "0xd2f775Ff2cD41bfe43C7A8c016eD10393553fe44",
    "0xd2f775Ff2cD41bfe43C7A8c016eD10393553fe44"
  ],
  "numDeployments": 1,
  "solcInputHash": "2527ebfec9c9a604caa210608c9d74c8",
  "bytecode": "0x60e060405234801561001057600080fd5b5060405161060f38038061060f83398101604081905261002f91610068565b6001600160a01b0392831660805290821660a0521660c0526100ab565b80516001600160a01b038116811461006357600080fd5b919050565b60008060006060848603121561007d57600080fd5b6100868461004c565b92506100946020850161004c565b91506100a26040850161004c565b90509250925092565b60805160a05160c0516105236100ec6000396000818160fb01526101ad01526000818160d501526101e80152600081816086015261012301526105236000f3fe608060405234801561001057600080fd5b50600436106100575760003560e01c806316beb9821461005c57806375d26413146100845780638d8e5da7146100be578063c6255443146100d3578063e23ddec5146100f9575b600080fd5b61006f61006a3660046104b1565b61011f565b60405190151581526020015b60405180910390f35b7f00000000000000000000000000000000000000000000000000000000000000005b6040516001600160a01b03909116815260200161007b565b6100d16100cc3660046104b1565b6101dd565b005b7f00000000000000000000000000000000000000000000000000000000000000006100a6565b7f00000000000000000000000000000000000000000000000000000000000000006100a6565b60007f00000000000000000000000000000000000000000000000000000000000000006001600160a01b0316331461019e5760405162461bcd60e51b815260206004820181905260248201527f43414c4c45525f4e4f545f494e43454e54495645535f434f4e54524f4c4c455260448201526064015b60405180910390fd5b6101d36001600160a01b0384167f000000000000000000000000000000000000000000000000000000000000000086856102ba565b5060019392505050565b336001600160a01b037f0000000000000000000000000000000000000000000000000000000000000000161461024a5760405162461bcd60e51b815260206004820152601260248201527127a7262cafa922aba0a92229afa0a226a4a760711b6044820152606401610195565b61025e6001600160a01b038416838361035c565b816001600160a01b0316836001600160a01b0316336001600160a01b03167f7dc4ea712e6400e67a5abca1a983e5c420c386c19936dc120cd860b50b8e2579846040516102ad91815260200190565b60405180910390a4505050565b6040516323b872dd60e01b8082526001600160a01b038581166004840152841660248301526044820183905290600080606483828a5af16102ff573d6000803e3d6000fd5b50610309856103ed565b6103555760405162461bcd60e51b815260206004820152601960248201527f475076323a206661696c6564207472616e7366657246726f6d000000000000006044820152606401610195565b5050505050565b60405163a9059cbb60e01b8082526001600160a01b0384166004830152602482018390529060008060448382895af1610399573d6000803e3d6000fd5b506103a3846103ed565b6103e75760405162461bcd60e51b815260206004820152601560248201527423a83b191d103330b4b632b2103a3930b739b332b960591b6044820152606401610195565b50505050565b6000610412565b62461bcd60e51b600052602060045280602452508060445260646000fd5b3d801561045157602081146104825761044c7f475076323a206d616c666f726d6564207472616e7366657220726573756c7400601f6103f4565b61048f565b823b610479576104797311d41d8c8e881b9bdd08184818dbdb9d1c9858dd60621b60146103f4565b6001915061048f565b3d6000803e600051151591505b50919050565b80356001600160a01b03811681146104ac57600080fd5b919050565b6000806000606084860312156104c657600080fd5b6104cf84610495565b92506104dd60208501610495565b915060408401359050925092509256fea26469706673582212205441117dbbf75b317d269d0f4d9abf4ffc64e93989b25abcce111519ec2abcef64736f6c63430008160033",
  "devdoc": {
    "author": "Aave*",
    "kind": "dev",
    "methods": {
      "emergencyWithdrawal(address,address,uint256)": {
        "details": "Perform an emergency token withdrawal only callable by the Rewards admin",
        "params": {
          "amount": "Amount of the withdrawal",
          "to": "Address of the recipient of the withdrawal",
          "token": "Address of the token to withdraw funds from this contract"
        }
      },
      "getIncentivesController()": {
        "returns": {
          "_0": "Returns the address of the Incentives Controller"
        }
      },
      "getRewardsAdmin()": {
        "returns": {
          "_0": "Returns the address of the Rewards admin"
        }
      },
      "getRewardsVault()": {
        "returns": {
          "_0": "Address of the rewards vault"
        }
      },
      "performTransfer(address,address,uint256)": {
        "details": "Perform custom transfer logic via delegate call from source contract to a TransferStrategy implementation",
        "params": {
          "amount": "Amount to transfer to the \"to\" address parameter",
          "reward": "Address of the reward token",
          "to": "Account to transfer rewards"
        },
        "returns": {
          "_0": "Returns true bool if transfer logic succeeds"
        }
      }
    },
    "title": "PullRewardsTransferStrategy",
    "version": 1
  },
  "userdoc": {
    "kind": "user",
    "methods": {},
    "notice": "Transfer strategy that pulls ERC20 rewards from an external account to the user address. The external account could be a smart contract or EOA that must approve to the PullRewardsTransferStrategy contract address.",
    "version": 1
  },
  "storageLayout": {
    "storage": [],
    "types": null
  }
}