{
  "address": "0x06f100A8ACb526E331d4838596108Cd9657e7aAC",
  "abi": [
    {
      "inputs": [
        {
          "internalType": "contract IPool",
          "name": "pool",
          "type": "address"
        }
      ],
      "stateMutability": "nonpayable",
      "type": "constructor"
    },
    {
      "anonymous": false,
      "inputs": [
        {
          "indexed": true,
          "internalType": "address",
          "name": "owner",
          "type": "address"
        },
        {
          "indexed": true,
          "internalType": "address",
          "name": "spender",
          "type": "address"
        },
        {
          "indexed": false,
          "internalType": "uint256",
          "name": "value",
          "type": "uint256"
        }
      ],
      "name": "Approval",
      "type": "event"
    },
    {
      "anonymous": false,
      "inputs": [
        {
          "indexed": true,
          "internalType": "address",
          "name": "fromUser",
          "type": "address"
        },
        {
          "indexed": true,
          "internalType": "address",
          "name": "toUser",
          "type": "address"
        },
        {
          "indexed": true,
          "internalType": "address",
          "name": "asset",
          "type": "address"
        },
        {
          "indexed": false,
          "internalType": "uint256",
          "name": "amount",
          "type": "uint256"
        }
      ],
      "name": "BorrowAllowanceDelegated",
      "type": "event"
    },
    {
      "anonymous": false,
      "inputs": [
        {
          "indexed": true,
          "internalType": "address",
          "name": "from",
          "type": "address"
        },
        {
          "indexed": false,
          "internalType": "uint256",
          "name": "amount",
          "type": "uint256"
        },
        {
          "indexed": false,
          "internalType": "uint256",
          "name": "currentBalance",
          "type": "uint256"
        },
        {
          "indexed": false,
          "internalType": "uint256",
          "name": "balanceIncrease",
          "type": "uint256"
        },
        {
          "indexed": false,
          "internalType": "uint256",
          "name": "avgStableRate",
          "type": "uint256"
        },
        {
          "indexed": false,
          "internalType": "uint256",
          "name": "newTotalSupply",
          "type": "uint256"
        }
      ],
      "name": "Burn",
      "type": "event"
    },
    {
      "anonymous": false,
      "inputs": [
        {
          "indexed": true,
          "internalType": "address",
          "name": "underlyingAsset",
          "type": "address"
        },
        {
          "indexed": true,
          "internalType": "address",
          "name": "pool",
          "type": "address"
        },
        {
          "indexed": false,
          "internalType": "address",
          "name": "incentivesController",
          "type": "address"
        },
        {
          "indexed": false,
          "internalType": "uint8",
          "name": "debtTokenDecimals",
          "type": "uint8"
        },
        {
          "indexed": false,
          "internalType": "string",
          "name": "debtTokenName",
          "type": "string"
        },
        {
          "indexed": false,
          "internalType": "string",
          "name": "debtTokenSymbol",
          "type": "string"
        },
        {
          "indexed": false,
          "internalType": "bytes",
          "name": "params",
          "type": "bytes"
        }
      ],
      "name": "Initialized",
      "type": "event"
    },
    {
      "anonymous": false,
      "inputs": [
        {
          "indexed": true,
          "internalType": "address",
          "name": "user",
          "type": "address"
        },
        {
          "indexed": true,
          "internalType": "address",
          "name": "onBehalfOf",
          "type": "address"
        },
        {
          "indexed": false,
          "internalType": "uint256",
          "name": "amount",
          "type": "uint256"
        },
        {
          "indexed": false,
          "internalType": "uint256",
          "name": "currentBalance",
          "type": "uint256"
        },
        {
          "indexed": false,
          "internalType": "uint256",
          "name": "balanceIncrease",
          "type": "uint256"
        },
        {
          "indexed": false,
          "internalType": "uint256",
          "name": "newRate",
          "type": "uint256"
        },
        {
          "indexed": false,
          "internalType": "uint256",
          "name": "avgStableRate",
          "type": "uint256"
        },
        {
          "indexed": false,
          "internalType": "uint256",
          "name": "newTotalSupply",
          "type": "uint256"
        }
      ],
      "name": "Mint",
      "type": "event"
    },
    {
      "anonymous": false,
      "inputs": [
        {
          "indexed": true,
          "internalType": "address",
          "name": "from",
          "type": "address"
        },
        {
          "indexed": true,
          "internalType": "address",
          "name": "to",
          "type": "address"
        },
        {
          "indexed": false,
          "internalType": "uint256",
          "name": "value",
          "type": "uint256"
        }
      ],
      "name": "Transfer",
      "type": "event"
    },
    {
      "inputs": [],
      "name": "DEBT_TOKEN_REVISION",
      "outputs": [
        {
          "internalType": "uint256",
          "name": "",
          "type": "uint256"
        }
      ],
      "stateMutability": "view",
      "type": "function"
    },
    {
      "inputs": [],
      "name": "DELEGATION_WITH_SIG_TYPEHASH",
      "outputs": [
        {
          "internalType": "bytes32",
          "name": "",
          "type": "bytes32"
        }
      ],
      "stateMutability": "view",
      "type": "function"
    },
    {
      "inputs": [],
      "name": "DOMAIN_SEPARATOR",
      "outputs": [
        {
          "internalType": "bytes32",
          "name": "",
          "type": "bytes32"
        }
      ],
      "stateMutability": "view",
      "type": "function"
    },
    {
      "inputs": [],
      "name": "EIP712_REVISION",
      "outputs": [
        {
          "internalType": "bytes",
          "name": "",
          "type": "bytes"
        }
      ],
      "stateMutability": "view",
      "type": "function"
    },
    {
      "inputs": [],
      "name": "POOL",
      "outputs": [
        {
          "internalType": "contract IPool",
          "name": "",
          "type": "address"
        }
      ],
      "stateMutability": "view",
      "type": "function"
    },
    {
      "inputs": [],
      "name": "UNDERLYING_ASSET_ADDRESS",
      "outputs": [
        {
          "internalType": "address",
          "name": "",
          "type": "address"
        }
      ],
      "stateMutability": "view",
      "type": "function"
    },
    {
      "inputs": [
        {
          "internalType": "address",
          "name": "",
          "type": "address"
        },
        {
          "internalType": "address",
          "name": "",
          "type": "address"
        }
      ],
      "name": "allowance",
      "outputs": [
        {
          "internalType": "uint256",
          "name": "",
          "type": "uint256"
        }
      ],
      "stateMutability": "view",
      "type": "function"
    },
    {
      "inputs": [
        {
          "internalType": "address",
          "name": "",
          "type": "address"
        },
        {
          "internalType": "uint256",
          "name": "",
          "type": "uint256"
        }
      ],
      "name": "approve",
      "outputs": [
        {
          "internalType": "bool",
          "name": "",
          "type": "bool"
        }
      ],
      "stateMutability": "nonpayable",
      "type": "function"
    },
    {
      "inputs": [
        {
          "internalType": "address",
          "name": "delegatee",
          "type": "address"
        },
        {
          "internalType": "uint256",
          "name": "amount",
          "type": "uint256"
        }
      ],
      "name": "approveDelegation",
      "outputs": [],
      "stateMutability": "nonpayable",
      "type": "function"
    },
    {
      "inputs": [
        {
          "internalType": "address",
          "name": "account",
          "type": "address"
        }
      ],
      "name": "balanceOf",
      "outputs": [
        {
          "internalType": "uint256",
          "name": "",
          "type": "uint256"
        }
      ],
      "stateMutability": "view",
      "type": "function"
    },
    {
      "inputs": [
        {
          "internalType": "address",
          "name": "fromUser",
          "type": "address"
        },
        {
          "internalType": "address",
          "name": "toUser",
          "type": "address"
        }
      ],
      "name": "borrowAllowance",
      "outputs": [
        {
          "internalType": "uint256",
          "name": "",
          "type": "uint256"
        }
      ],
      "stateMutability": "view",
      "type": "function"
    },
    {
      "inputs": [
        {
          "internalType": "address",
          "name": "from",
          "type": "address"
        },
        {
          "internalType": "uint256",
          "name": "amount",
          "type": "uint256"
        }
      ],
      "name": "burn",
      "outputs": [
        {
          "internalType": "uint256",
          "name": "",
          "type": "uint256"
        },
        {
          "internalType": "uint256",
          "name": "",
          "type": "uint256"
        }
      ],
      "stateMutability": "nonpayable",
      "type": "function"
    },
    {
      "inputs": [],
      "name": "decimals",
      "outputs": [
        {
          "internalType": "uint8",
          "name": "",
          "type": "uint8"
        }
      ],
      "stateMutability": "view",
      "type": "function"
    },
    {
      "inputs": [
        {
          "internalType": "address",
          "name": "",
          "type": "address"
        },
        {
          "internalType": "uint256",
          "name": "",
          "type": "uint256"
        }
      ],
      "name": "decreaseAllowance",
      "outputs": [
        {
          "internalType": "bool",
          "name": "",
          "type": "bool"
        }
      ],
      "stateMutability": "nonpayable",
      "type": "function"
    },
    {
      "inputs": [
        {
          "internalType": "address",
          "name": "delegator",
          "type": "address"
        },
        {
          "internalType": "address",
          "name": "delegatee",
          "type": "address"
        },
        {
          "internalType": "uint256",
          "name": "value",
          "type": "uint256"
        },
        {
          "internalType": "uint256",
          "name": "deadline",
          "type": "uint256"
        },
        {
          "internalType": "uint8",
          "name": "v",
          "type": "uint8"
        },
        {
          "internalType": "bytes32",
          "name": "r",
          "type": "bytes32"
        },
        {
          "internalType": "bytes32",
          "name": "s",
          "type": "bytes32"
        }
      ],
      "name": "delegationWithSig",
      "outputs": [],
      "stateMutability": "nonpayable",
      "type": "function"
    },
    {
      "inputs": [],
      "name": "getAverageStableRate",
      "outputs": [
        {
          "internalType": "uint256",
          "name": "",
          "type": "uint256"
        }
      ],
      "stateMutability": "view",
      "type": "function"
    },
    {
      "inputs": [],
      "name": "getIncentivesController",
      "outputs": [
        {
          "internalType": "contract IAaveIncentivesController",
          "name": "",
          "type": "address"
        }
      ],
      "stateMutability": "view",
      "type": "function"
    },
    {
      "inputs": [],
      "name": "getSupplyData",
      "outputs": [
        {
          "internalType": "uint256",
          "name": "",
          "type": "uint256"
        },
        {
          "internalType": "uint256",
          "name": "",
          "type": "uint256"
        },
        {
          "internalType": "uint256",
          "name": "",
          "type": "uint256"
        },
        {
          "internalType": "uint40",
          "name": "",
          "type": "uint40"
        }
      ],
      "stateMutability": "view",
      "type": "function"
    },
    {
      "inputs": [],
      "name": "getTotalSupplyAndAvgRate",
      "outputs": [
        {
          "internalType": "uint256",
          "name": "",
          "type": "uint256"
        },
        {
          "internalType": "uint256",
          "name": "",
          "type": "uint256"
        }
      ],
      "stateMutability": "view",
      "type": "function"
    },
    {
      "inputs": [],
      "name": "getTotalSupplyLastUpdated",
      "outputs": [
        {
          "internalType": "uint40",
          "name": "",
          "type": "uint40"
        }
      ],
      "stateMutability": "view",
      "type": "function"
    },
    {
      "inputs": [
        {
          "internalType": "address",
          "name": "user",
          "type": "address"
        }
      ],
      "name": "getUserLastUpdated",
      "outputs": [
        {
          "internalType": "uint40",
          "name": "",
          "type": "uint40"
        }
      ],
      "stateMutability": "view",
      "type": "function"
    },
    {
      "inputs": [
        {
          "internalType": "address",
          "name": "user",
          "type": "address"
        }
      ],
      "name": "getUserStableRate",
      "outputs": [
        {
          "internalType": "uint256",
          "name": "",
          "type": "uint256"
        }
      ],
      "stateMutability": "view",
      "type": "function"
    },
    {
      "inputs": [
        {
          "internalType": "address",
          "name": "",
          "type": "address"
        },
        {
          "internalType": "uint256",
          "name": "",
          "type": "uint256"
        }
      ],
      "name": "increaseAllowance",
      "outputs": [
        {
          "internalType": "bool",
          "name": "",
          "type": "bool"
        }
      ],
      "stateMutability": "nonpayable",
      "type": "function"
    },
    {
      "inputs": [
        {
          "internalType": "contract IPool",
          "name": "initializingPool",
          "type": "address"
        },
        {
          "internalType": "address",
          "name": "underlyingAsset",
          "type": "address"
        },
        {
          "internalType": "contract IAaveIncentivesController",
          "name": "incentivesController",
          "type": "address"
        },
        {
          "internalType": "uint8",
          "name": "debtTokenDecimals",
          "type": "uint8"
        },
        {
          "internalType": "string",
          "name": "debtTokenName",
          "type": "string"
        },
        {
          "internalType": "string",
          "name": "debtTokenSymbol",
          "type": "string"
        },
        {
          "internalType": "bytes",
          "name": "params",
          "type": "bytes"
        }
      ],
      "name": "initialize",
      "outputs": [],
      "stateMutability": "nonpayable",
      "type": "function"
    },
    {
      "inputs": [
        {
          "internalType": "address",
          "name": "user",
          "type": "address"
        },
        {
          "internalType": "address",
          "name": "onBehalfOf",
          "type": "address"
        },
        {
          "internalType": "uint256",
          "name": "amount",
          "type": "uint256"
        },
        {
          "internalType": "uint256",
          "name": "rate",
          "type": "uint256"
        }
      ],
      "name": "mint",
      "outputs": [
        {
          "internalType": "bool",
          "name": "",
          "type": "bool"
        },
        {
          "internalType": "uint256",
          "name": "",
          "type": "uint256"
        },
        {
          "internalType": "uint256",
          "name": "",
          "type": "uint256"
        }
      ],
      "stateMutability": "nonpayable",
      "type": "function"
    },
    {
      "inputs": [],
      "name": "name",
      "outputs": [
        {
          "internalType": "string",
          "name": "",
          "type": "string"
        }
      ],
      "stateMutability": "view",
      "type": "function"
    },
    {
      "inputs": [
        {
          "internalType": "address",
          "name": "owner",
          "type": "address"
        }
      ],
      "name": "nonces",
      "outputs": [
        {
          "internalType": "uint256",
          "name": "",
          "type": "uint256"
        }
      ],
      "stateMutability": "view",
      "type": "function"
    },
    {
      "inputs": [
        {
          "internalType": "address",
          "name": "user",
          "type": "address"
        }
      ],
      "name": "principalBalanceOf",
      "outputs": [
        {
          "internalType": "uint256",
          "name": "",
          "type": "uint256"
        }
      ],
      "stateMutability": "view",
      "type": "function"
    },
    {
      "inputs": [
        {
          "internalType": "contract IAaveIncentivesController",
          "name": "controller",
          "type": "address"
        }
      ],
      "name": "setIncentivesController",
      "outputs": [],
      "stateMutability": "nonpayable",
      "type": "function"
    },
    {
      "inputs": [],
      "name": "symbol",
      "outputs": [
        {
          "internalType": "string",
          "name": "",
          "type": "string"
        }
      ],
      "stateMutability": "view",
      "type": "function"
    },
    {
      "inputs": [],
      "name": "totalSupply",
      "outputs": [
        {
          "internalType": "uint256",
          "name": "",
          "type": "uint256"
        }
      ],
      "stateMutability": "view",
      "type": "function"
    },
    {
      "inputs": [
        {
          "internalType": "address",
          "name": "",
          "type": "address"
        },
        {
          "internalType": "uint256",
          "name": "",
          "type": "uint256"
        }
      ],
      "name": "transfer",
      "outputs": [
        {
          "internalType": "bool",
          "name": "",
          "type": "bool"
        }
      ],
      "stateMutability": "nonpayable",
      "type": "function"
    },
    {
      "inputs": [
        {
          "internalType": "address",
          "name": "",
          "type": "address"
        },
        {
          "internalType": "address",
          "name": "",
          "type": "address"
        },
        {
          "internalType": "uint256",
          "name": "",
          "type": "uint256"
        }
      ],
      "name": "transferFrom",
      "outputs": [
        {
          "internalType": "bool",
          "name": "",
          "type": "bool"
        }
      ],
      "stateMutability": "nonpayable",
      "type": "function"
    }
  ],
  "transactionHash": "0xa81a2e2e9e2ae76e13485fa1748a7126857ac6960e12d753855805092b47dd07",
  "args": [
    "0x1b37322Eaa0Ef31014D81549c53859e89fc3B6B7"
  ],
  "numDeployments": 1,
  "solcInputHash": "2527ebfec9c9a604caa210608c9d74c8",
  "bytecode": "0x60e0604052600080553480156200001557600080fd5b506040516200247c3803806200247c833981016040819052620000389162000180565b806040518060400160405280601681526020017f535441424c455f444542545f544f4b454e5f494d504c000000000000000000008152506040518060400160405280601681526020017f535441424c455f444542545f544f4b454e5f494d504c0000000000000000000081525060004660808181525050836001600160a01b0316630542975c6040518163ffffffff1660e01b8152600401602060405180830381865afa158015620000ee573d6000803e3d6000fd5b505050506040513d601f19601f8201168201806040525081019062000114919062000180565b6001600160a01b031660a052603b6200012e84826200024e565b50603c6200013d83826200024e565b50603d805460ff191660ff9290921691909117905550506001600160a01b031660c052506200031a565b6001600160a01b03811681146200017d57600080fd5b50565b6000602082840312156200019357600080fd5b8151620001a08162000167565b9392505050565b634e487b7160e01b600052604160045260246000fd5b600181811c90821680620001d257607f821691505b602082108103620001f357634e487b7160e01b600052602260045260246000fd5b50919050565b601f82111562000249576000816000526020600020601f850160051c81016020861015620002245750805b601f850160051c820191505b81811015620002455782815560010162000230565b5050505b505050565b81516001600160401b038111156200026a576200026a620001a7565b62000282816200027b8454620001bd565b84620001f9565b602080601f831160018114620002ba5760008415620002a15750858301515b600019600386901b1c1916600185901b17855562000245565b600085815260208120601f198616915b82811015620002eb57888601518255948401946001909101908401620002ca565b50858210156200030a5787850151600019600388901b60f8161c191681555b5050505050600190811b01905550565b60805160a05160c05161211662000366600039600081816102c2015281816109ad01528181610d4b0152818161114b015261121a015260006112b90152600061084b01526121166000f3fe608060405234801561001057600080fd5b50600436106101fb5760003560e01c806390f6fcf21161011a578063c04a8a10116100ad578063e655dbd81161007c578063e655dbd8146104a1578063e7484890146104b4578063e78c9b3b146104ca578063f3bfc73814610503578063f731e9be1461052a57600080fd5b8063c04a8a101461045a578063c222ec8a1461046d578063c634dfaa14610480578063dd62ed3e1461049357600080fd5b8063a9059cbb116100e9578063a9059cbb1461021e578063b16a19de14610411578063b3f1c93d14610422578063b9a7b6221461045257600080fd5b806390f6fcf2146103d057806395d89b41146103e15780639dc29fac146103e9578063a457c2d71461021e57600080fd5b80636bd76d241161019257806378160376116101615780637816037614610312578063797743381461033257806379ce6b8c146103615780637ecebe00146103a757600080fd5b80636bd76d241461029757806370a08231146102aa5780637535d246146102bd57806375d26413146102fc57600080fd5b806323b872dd116101ce57806323b872dd1461026c578063313ce5671461027a5780633644e5151461028f578063395093511461021e57600080fd5b806306fdde0314610200578063095ea7b31461021e5780630b52d5581461024157806318160ddd14610256575b600080fd5b610208610532565b6040516102159190611a95565b60405180910390f35b61023161022c366004611acb565b6105c4565b6040519015158152602001610215565b61025461024f366004611b08565b6105ff565b005b61025e61082a565b604051908152602001610215565b61023161022c366004611b76565b603d5460405160ff9091168152602001610215565b61025e610847565b61025e6102a5366004611bb7565b61087f565b61025e6102b8366004611bf0565b6108ac565b6102e47f000000000000000000000000000000000000000000000000000000000000000081565b6040516001600160a01b039091168152602001610215565b603d5461010090046001600160a01b03166102e4565b610208604051806040016040528060018152602001603160f81b81525081565b61033a610937565b6040805194855260208501939093529183015264ffffffffff166060820152608001610215565b61039161036f366004611bf0565b6001600160a01b03166000908152603e602052604090205464ffffffffff1690565b60405164ffffffffff9091168152602001610215565b61025e6103b5366004611bf0565b6001600160a01b031660009081526034602052604090205490565b603f546001600160801b031661025e565b61020861097d565b6103fc6103f7366004611acb565b61098c565b60408051928352602083019190915201610215565b6037546001600160a01b03166102e4565b610435610430366004611c0d565b610d3d565b604080519315158452602084019290925290820152606001610215565b61025e600181565b610254610468366004611acb565b61109b565b61025461047b366004611d38565b6110aa565b61025e61048e366004611bf0565b6112aa565b61025e61022c366004611bb7565b6102546104af366004611bf0565b6112b5565b603f54600160801b900464ffffffffff16610391565b61025e6104d8366004611bf0565b6001600160a01b0316600090815260386020526040902054600160801b90046001600160801b031690565b61025e7f323db0410fecc107e39e2af5908671f4c8d106123b35a51501bb805c5fa36aa081565b6103fc611406565b6060603b805461054190611e0d565b80601f016020809104026020016040519081016040528092919081815260200182805461056d90611e0d565b80156105ba5780601f1061058f576101008083540402835291602001916105ba565b820191906000526020600020905b81548152906001019060200180831161059d57829003601f168201915b5050505050905090565b6040805180820182526002815261038360f41b6020820152905162461bcd60e51b81526000916105f691600401611a95565b60405180910390fd5b604080518082019091526002815261373760f01b60208201526001600160a01b03881661063f5760405162461bcd60e51b81526004016105f69190611a95565b50834211156040518060400160405280600281526020016106e760f31b8152509061067d5760405162461bcd60e51b81526004016105f69190611a95565b506001600160a01b038716600090815260346020526040812054906106a0610847565b604080517f323db0410fecc107e39e2af5908671f4c8d106123b35a51501bb805c5fa36aa060208201526001600160a01b038b1691810191909152606081018990526080810184905260a0810188905260c0016040516020818303038152906040528051906020012060405160200161073092919061190160f01b81526002810192909252602282015260420190565b60408051601f1981840301815282825280516020918201206000845290830180835281905260ff8816918301919091526060820186905260808201859052915060019060a0016020604051602081039080840390855afa158015610798573d6000803e3d6000fd5b505050602060405103516001600160a01b0316896001600160a01b03161460405180604001604052806002815260200161373960f01b815250906107ef5760405162461bcd60e51b81526004016105f69190611a95565b506107fb826001611e5d565b6001600160a01b038a1660009081526034602052604090205561081f898989611428565b505050505050505050565b603f54600090610842906001600160801b0316611492565b905090565b60007f00000000000000000000000000000000000000000000000000000000000000004603610877575060355490565b6108426114e4565b6001600160a01b038083166000908152603660209081526040808320938516835292905220545b92915050565b6000806108b88361158d565b6001600160a01b038416600090815260386020526040812054919250600160801b9091046001600160801b0316908290036108f7575060009392505050565b6001600160a01b0384166000908152603e602052604081205461092290839064ffffffffff166115b1565b905061092e83826115c5565b95945050505050565b603f546000908190819081906001600160801b0316610955603a5490565b61095e82611492565b603f549197909650919450600160801b900464ffffffffff1692509050565b6060603c805461054190611e0d565b604080518082019091526002815261323360f01b60208201526000908190337f00000000000000000000000000000000000000000000000000000000000000006001600160a01b0316146109f35760405162461bcd60e51b81526004016105f69190611a95565b50600080610a0086611609565b92509250506000610a0f61082a565b6001600160a01b038816600090815260386020526040812054919250908190600160801b90046001600160801b0316888411610a5f57603f80546001600160801b03191690556000603a55610b17565b610a698985611e70565b603a81905591506000610a90610a7e8661165c565b603f546001600160801b0316906115c5565b90506000610aa7610aa08c61165c565b84906115c5565b9050818110610ace57603f80546001600160801b03191690556000603a8190559450610b14565b610af2610aed610add8661165c565b610ae78486611e70565b90611677565b6116b6565b603f80546001600160801b0319166001600160801b0392909216918217905594505b50505b858903610b5e576001600160a01b038a16600090815260386020908152604080832080546001600160801b03169055603e9091529020805464ffffffffff19169055610b8c565b6001600160a01b038a166000908152603e60205260409020805464ffffffffff19164264ffffffffff161790555b603f805464ffffffffff60801b1916600160801b4264ffffffffff160217905588851115610c77576000610bc08a87611e70565b9050610bcd8b8287611723565b6040518181526001600160a01b038c16906000907fddf252ad1be2c89b69c2b068fc378daa952ba7f163c4a11628f55a4df523b3ef9060200160405180910390a36040805182815260208101899052908101879052606081018390526080810185905260a081018490526001600160a01b038c169081907fc16f4e4ca34d790de4c656c72fd015c667d688f20be64eea360618545c4c530f9060c00160405180910390a350610d2d565b6000610c83868b611e70565b9050610c908b8287611821565b6040518181526000906001600160a01b038d16907fddf252ad1be2c89b69c2b068fc378daa952ba7f163c4a11628f55a4df523b3ef9060200160405180910390a3604080518281526020810189905290810187905260608101859052608081018490526001600160a01b038c16907f44bd20a79e993bdcc7cbedf54a3b4d19fb78490124b6b90d04fe3242eea579e89060a00160405180910390a2505b50955093505050505b9250929050565b600080806001600160a01b037f000000000000000000000000000000000000000000000000000000000000000016336001600160a01b03161460405180604001604052806002815260200161323360f01b81525090610daf5760405162461bcd60e51b81526004016105f69190611a95565b50610de96040518060c001604052806000815260200160008152602001600081526020016000815260200160008152602001600081525090565b866001600160a01b0316886001600160a01b031614610e0d57610e0d87898861185b565b600080610e1989611609565b9250925050610e2661082a565b808452603f546001600160801b031660a0850152610e45908990611e5d565b603a8190556020840152610e588861165c565b6040848101919091526001600160a01b038a16600090815260386020522054600160801b90046001600160801b03166060840152610ed1610ea1610e9c8a85611e5d565b61165c565b6040850151610eb0908a6115c5565b610ec7610ebc8661165c565b6060880151906115c5565b610ae79190611e5d565b60808401819052610ee1906116b6565b6001600160a01b038a16600090815260386020908152604080832080546001600160801b03908116600160801b969091168602179055603e8252909120805464ffffffffff19164264ffffffffff16908117909155603f805464ffffffffff60801b19169190930217909155830151610f8c90610aed90610f619061165c565b6040860151610f71908b906115c5565b610ec7610f81886000015161165c565b60a0890151906115c5565b603f80546001600160801b0319166001600160801b0392909216918217905560a08401526000610fbc828a611e5d565b9050610fcd8a828660000151611723565b6040518181526001600160a01b038b16906000907fddf252ad1be2c89b69c2b068fc378daa952ba7f163c4a11628f55a4df523b3ef9060200160405180910390a360808085015160a080870151602080890151604080518881529283018a905282018890526060820194909452938401528201526001600160a01b03808c1691908d16907fc16f4e4ca34d790de4c656c72fd015c667d688f20be64eea360618545c4c530f9060c00160405180910390a35050602082015160a0909201519015999198509650945050505050565b6110a6338383611428565b5050565b6001805460ff16806110bb5750303b155b806110c7575060005481115b61112a5760405162461bcd60e51b815260206004820152602e60248201527f436f6e747261637420696e7374616e63652068617320616c726561647920626560448201526d195b881a5b9a5d1a585b1a5e995960921b60648201526084016105f6565b60015460ff16158015611149576001805460ff19168117905560008290555b7f00000000000000000000000000000000000000000000000000000000000000006001600160a01b03168a6001600160a01b03161460405180604001604052806002815260200161383760f01b815250906111b75760405162461bcd60e51b81526004016105f69190611a95565b506111c186611901565b6111ca8561190d565b603d8054603780546001600160a01b038d81166001600160a01b0319909216919091179091558a16610100026001600160a81b031990911660ff8a16171790556112126114e4565b6035819055507f00000000000000000000000000000000000000000000000000000000000000006001600160a01b0316896001600160a01b03167f40251fbfb6656cfa65a00d7879029fec1fad21d28fdcff2f4f68f52795b74f2c8a8a8a8a8a8a60405161128596959493929190611e83565b60405180910390a3801561129e576001805460ff191690555b50505050505050505050565b60006108a68261158d565b60007f00000000000000000000000000000000000000000000000000000000000000006001600160a01b031663707cd7166040518163ffffffff1660e01b8152600401602060405180830381865afa158015611315573d6000803e3d6000fd5b505050506040513d601f19601f820116820180604052508101906113399190611efa565b604051637be53ca160e01b81523360048201529091506001600160a01b03821690637be53ca190602401602060405180830381865afa158015611380573d6000803e3d6000fd5b505050506040513d601f19601f820116820180604052508101906113a49190611f17565b604051806040016040528060018152602001603160f81b815250906113dc5760405162461bcd60e51b81526004016105f69190611a95565b5050603d80546001600160a01b0390921661010002610100600160a81b0319909216919091179055565b603f5460009081906001600160801b031661142081611492565b939092509050565b6001600160a01b0383811660008181526036602090815260408083208786168085529083529281902086905560375490518681529416939192917fda919360433220e13b51e8c211e490d148e61a3bd53de8c097194e458b97f3e1910160405180910390a4505050565b60008061149e603a5490565b9050806000036114b15750600092915050565b60006114d084603f60109054906101000a900464ffffffffff166115b1565b90506114dc82826115c5565b949350505050565b60007f8b73c3c69bb8fe3d512ecc4cf759cc79239f7b179b0ffacaa9a75d522b39400f61150f611919565b805160209182012060408051808201825260018152603160f81b90840152805192830193909352918101919091527fc89efdaa54c0f20c7adf612882df0950f5a951637e0307cdcb4c672f298b8bc660608201524660808201523060a082015260c00160405160208183030381529060405280519060200120905090565b6001600160a01b03166000908152603860205260409020546001600160801b031690565b60006115be838342611923565b9392505050565b600081156b019d971e4fe8401e7400000019839004841115176115e757600080fd5b506b033b2e3c9fd0803ce800000091026b019d971e4fe8401e74000000010490565b6000806000806116188561158d565b90508060000361163357600080600093509350935050611655565b600061163e866108ac565b9050818161164c8282611e70565b94509450945050505b9193909250565b633b9aca00818102908104821461167257600080fd5b919050565b600081156b033b2e3c9fd0803ce80000006002840419048411171561169b57600080fd5b506b033b2e3c9fd0803ce80000009190910260028204010490565b60006001600160801b0382111561171f5760405162461bcd60e51b815260206004820152602760248201527f53616665436173743a2076616c756520646f65736e27742066697420696e20316044820152663238206269747360c81b60648201526084016105f6565b5090565b600061172e836116b6565b6001600160a01b0385166000908152603860205260409020549091506001600160801b031661175d8282611f39565b6001600160a01b03868116600090815260386020526040902080546001600160801b0319166001600160801b039390931692909217909155603d546101009004161561181a57603d546040516318c39f1760e11b81526001600160a01b038781166004830152602482018690526001600160801b0384166044830152610100909204909116906331873e2e90606401600060405180830381600087803b15801561180657600080fd5b505af115801561081f573d6000803e3d6000fd5b5050505050565b600061182c836116b6565b6001600160a01b0385166000908152603860205260409020549091506001600160801b031661175d8282611f60565b6001600160a01b03808416600090815260366020908152604080832093861683529290529081205461188e908390611e70565b6001600160a01b03808616600081815260366020908152604080832089861680855292529182902085905560375491519495509216927fda919360433220e13b51e8c211e490d148e61a3bd53de8c097194e458b97f3e1906118f39086815260200190565b60405180910390a450505050565b603b6110a68282611fd1565b603c6110a68282611fd1565b6060610842610532565b60008061193764ffffffffff851684611e70565b905080600003611956576b033b2e3c9fd0803ce80000009150506115be565b6000198101600080806002851161196e576000611973565b600285035b925066038882915c40006119878a806115c5565b8161199457611994612091565b0491506301e133806119a6838b6115c5565b816119b3576119b3612091565b0490506000826119c386886120a7565b6119cd91906120a7565b600290049050600082856119e1888a6120a7565b6119eb91906120a7565b6119f591906120a7565b60069004905080826301e13380611a0c8a8f6120a7565b611a1691906120be565b611a2c906b033b2e3c9fd0803ce8000000611e5d565b611a369190611e5d565b611a409190611e5d565b9b9a5050505050505050505050565b6000815180845260005b81811015611a7557602081850181015186830182015201611a59565b506000602082860101526020601f19601f83011685010191505092915050565b6020815260006115be6020830184611a4f565b6001600160a01b0381168114611abd57600080fd5b50565b803561167281611aa8565b60008060408385031215611ade57600080fd5b8235611ae981611aa8565b946020939093013593505050565b803560ff8116811461167257600080fd5b600080600080600080600060e0888a031215611b2357600080fd5b8735611b2e81611aa8565b96506020880135611b3e81611aa8565b95506040880135945060608801359350611b5a60808901611af7565b925060a0880135915060c0880135905092959891949750929550565b600080600060608486031215611b8b57600080fd5b8335611b9681611aa8565b92506020840135611ba681611aa8565b929592945050506040919091013590565b60008060408385031215611bca57600080fd5b8235611bd581611aa8565b91506020830135611be581611aa8565b809150509250929050565b600060208284031215611c0257600080fd5b81356115be81611aa8565b60008060008060808587031215611c2357600080fd5b8435611c2e81611aa8565b93506020850135611c3e81611aa8565b93969395505050506040820135916060013590565b634e487b7160e01b600052604160045260246000fd5b600082601f830112611c7a57600080fd5b813567ffffffffffffffff80821115611c9557611c95611c53565b604051601f8301601f19908116603f01168101908282118183101715611cbd57611cbd611c53565b81604052838152866020858801011115611cd657600080fd5b836020870160208301376000602085830101528094505050505092915050565b60008083601f840112611d0857600080fd5b50813567ffffffffffffffff811115611d2057600080fd5b602083019150836020828501011115610d3657600080fd5b60008060008060008060008060e0898b031215611d5457600080fd5b8835611d5f81611aa8565b97506020890135611d6f81611aa8565b9650611d7d60408a01611ac0565b9550611d8b60608a01611af7565b9450608089013567ffffffffffffffff80821115611da857600080fd5b611db48c838d01611c69565b955060a08b0135915080821115611dca57600080fd5b611dd68c838d01611c69565b945060c08b0135915080821115611dec57600080fd5b50611df98b828c01611cf6565b999c989b5096995094979396929594505050565b600181811c90821680611e2157607f821691505b602082108103611e4157634e487b7160e01b600052602260045260246000fd5b50919050565b634e487b7160e01b600052601160045260246000fd5b808201808211156108a6576108a6611e47565b818103818111156108a6576108a6611e47565b6001600160a01b038716815260ff8616602082015260a060408201819052600090611eb090830187611a4f565b8281036060840152611ec28187611a4f565b90508281036080840152838152838560208301376000602085830101526020601f19601f860116820101915050979650505050505050565b600060208284031215611f0c57600080fd5b81516115be81611aa8565b600060208284031215611f2957600080fd5b815180151581146115be57600080fd5b6001600160801b03818116838216019080821115611f5957611f59611e47565b5092915050565b6001600160801b03828116828216039080821115611f5957611f59611e47565b601f821115611fcc576000816000526020600020601f850160051c81016020861015611fa95750805b601f850160051c820191505b81811015611fc857828155600101611fb5565b5050505b505050565b815167ffffffffffffffff811115611feb57611feb611c53565b611fff81611ff98454611e0d565b84611f80565b602080601f831160018114612034576000841561201c5750858301515b600019600386901b1c1916600185901b178555611fc8565b600085815260208120601f198616915b8281101561206357888601518255948401946001909101908401612044565b50858210156120815787850151600019600388901b60f8161c191681555b5050505050600190811b01905550565b634e487b7160e01b600052601260045260246000fd5b80820281158282048414176108a6576108a6611e47565b6000826120db57634e487b7160e01b600052601260045260246000fd5b50049056fea26469706673582212207aa47bc57b82a81985fe66eea109d2a3b07f38368e87f896263e138cc245f46964736f6c63430008160033",
  "devdoc": {
    "author": "Aave",
    "details": "Transfer and approve functionalities are disabled since its a non-transferable token",
    "events": {
      "Approval(address,address,uint256)": {
        "details": "Emitted when the allowance of a `spender` for an `owner` is set by a call to {approve}. `value` is the new allowance."
      },
      "BorrowAllowanceDelegated(address,address,address,uint256)": {
        "details": "Emitted on `approveDelegation` and `borrowAllowance",
        "params": {
          "amount": "The amount being delegated",
          "asset": "The address of the delegated asset",
          "fromUser": "The address of the delegator",
          "toUser": "The address of the delegatee"
        }
      },
      "Burn(address,uint256,uint256,uint256,uint256,uint256)": {
        "details": "Emitted when new stable debt is burned",
        "params": {
          "amount": "The amount being burned (user entered amount - balance increase from interest)",
          "avgStableRate": "The next average stable rate after the burning",
          "balanceIncrease": "The increase in balance since the last action of 'from'",
          "currentBalance": "The balance of the user based on the previous balance and balance increase from interest",
          "from": "The address from which the debt will be burned",
          "newTotalSupply": "The next total supply of the stable debt token after the action"
        }
      },
      "Initialized(address,address,address,uint8,string,string,bytes)": {
        "details": "Emitted when a debt token is initialized",
        "params": {
          "debtTokenDecimals": "The decimals of the debt token",
          "debtTokenName": "The name of the debt token",
          "debtTokenSymbol": "The symbol of the debt token",
          "incentivesController": "The address of the incentives controller for this aToken",
          "params": "A set of encoded parameters for additional initialization",
          "pool": "The address of the associated pool",
          "underlyingAsset": "The address of the underlying asset"
        }
      },
      "Mint(address,address,uint256,uint256,uint256,uint256,uint256,uint256)": {
        "details": "Emitted when new stable debt is minted",
        "params": {
          "amount": "The amount minted (user entered amount + balance increase from interest)",
          "avgStableRate": "The next average stable rate after the minting",
          "balanceIncrease": "The increase in balance since the last action of the user 'onBehalfOf'",
          "currentBalance": "The balance of the user based on the previous balance and balance increase from interest",
          "newRate": "The rate of the debt after the minting",
          "newTotalSupply": "The next total supply of the stable debt token after the action",
          "onBehalfOf": "The recipient of stable debt tokens",
          "user": "The address of the user who triggered the minting"
        }
      },
      "Transfer(address,address,uint256)": {
        "details": "Emitted when `value` tokens are moved from one account (`from`) to another (`to`). Note that `value` may be zero."
      }
    },
    "kind": "dev",
    "methods": {
      "DOMAIN_SEPARATOR()": {
        "details": "Return cached value if chainId matches cache, otherwise recomputes separator",
        "returns": {
          "_0": "The domain separator of the token at current chain"
        }
      },
      "UNDERLYING_ASSET_ADDRESS()": {
        "returns": {
          "_0": "The address of the underlying asset"
        }
      },
      "approveDelegation(address,uint256)": {
        "params": {
          "amount": "The maximum amount being delegated.",
          "delegatee": "The address receiving the delegated borrowing power"
        }
      },
      "balanceOf(address)": {
        "details": "Returns the amount of tokens owned by `account`."
      },
      "borrowAllowance(address,address)": {
        "params": {
          "fromUser": "The user to giving allowance",
          "toUser": "The user to give allowance to"
        },
        "returns": {
          "_0": "The current allowance of `toUser`"
        }
      },
      "burn(address,uint256)": {
        "details": "The resulting rate is the weighted average between the rate of the new debt and the rate of the previous debtIn some instances, a burn transaction will emit a mint event if the amount to burn is less than the interest the user earned",
        "params": {
          "amount": "The amount of debt tokens getting burned",
          "from": "The address from which the debt will be burned"
        },
        "returns": {
          "_0": "The total stable debt",
          "_1": "The average stable borrow rate"
        }
      },
      "constructor": {
        "details": "Constructor.",
        "params": {
          "pool": "The address of the Pool contract"
        }
      },
      "delegationWithSig(address,address,uint256,uint256,uint8,bytes32,bytes32)": {
        "params": {
          "deadline": "The deadline timestamp, type(uint256).max for max deadline",
          "delegatee": "The delegatee that can use the credit",
          "delegator": "The delegator of the credit",
          "r": "The R signature param",
          "s": "The S signature param",
          "v": "The V signature param",
          "value": "The amount to be delegated"
        }
      },
      "getAverageStableRate()": {
        "returns": {
          "_0": "The average stable rate"
        }
      },
      "getIncentivesController()": {
        "returns": {
          "_0": "The address of the Incentives Controller"
        }
      },
      "getSupplyData()": {
        "returns": {
          "_0": "The principal",
          "_1": "The total supply",
          "_2": "The average stable rate",
          "_3": "The timestamp of the last update"
        }
      },
      "getTotalSupplyAndAvgRate()": {
        "returns": {
          "_0": "The total supply",
          "_1": "The average rate"
        }
      },
      "getTotalSupplyLastUpdated()": {
        "returns": {
          "_0": "The timestamp"
        }
      },
      "getUserLastUpdated(address)": {
        "params": {
          "user": "The address of the user"
        },
        "returns": {
          "_0": "The timestamp"
        }
      },
      "getUserStableRate(address)": {
        "params": {
          "user": "The address of the user"
        },
        "returns": {
          "_0": "The stable rate of the user"
        }
      },
      "initialize(address,address,address,uint8,string,string,bytes)": {
        "params": {
          "debtTokenDecimals": "The decimals of the debtToken, same as the underlying asset's",
          "debtTokenName": "The name of the token",
          "debtTokenSymbol": "The symbol of the token",
          "incentivesController": "The smart contract managing potential incentives distribution",
          "params": "A set of encoded parameters for additional initialization",
          "pool": "The pool contract that is initializing this contract",
          "underlyingAsset": "The address of the underlying asset of this aToken (E.g. WETH for aWETH)"
        }
      },
      "mint(address,address,uint256,uint256)": {
        "details": "The resulting rate is the weighted average between the rate of the new debt and the rate of the previous debt",
        "params": {
          "amount": "The amount of debt tokens to mint",
          "onBehalfOf": "The address receiving the debt tokens",
          "rate": "The rate of the debt being minted",
          "user": "The address receiving the borrowed underlying, being the delegatee in case of credit delegate, or same as `onBehalfOf` otherwise"
        },
        "returns": {
          "_0": "True if it is the first borrow, false otherwise",
          "_1": "The total stable debt",
          "_2": "The average stable borrow rate"
        }
      },
      "nonces(address)": {
        "params": {
          "owner": "The address for which the nonce is being returned"
        },
        "returns": {
          "_0": "The nonce value for the input address`"
        }
      },
      "principalBalanceOf(address)": {
        "returns": {
          "_0": "The debt balance of the user since the last burn/mint action"
        }
      },
      "setIncentivesController(address)": {
        "params": {
          "controller": "the new Incentives controller"
        }
      },
      "totalSupply()": {
        "details": "Returns the amount of tokens in existence."
      },
      "transfer(address,uint256)": {
        "details": "Being non transferrable, the debt token does not implement any of the standard ERC20 functions for transfer and allowance."
      }
    },
    "title": "StableDebtToken",
    "version": 1
  },
  "userdoc": {
    "kind": "user",
    "methods": {
      "DOMAIN_SEPARATOR()": {
        "notice": "Get the domain separator for the token"
      },
      "UNDERLYING_ASSET_ADDRESS()": {
        "notice": "Returns the address of the underlying asset of this stableDebtToken (E.g. WETH for stableDebtWETH)"
      },
      "approveDelegation(address,uint256)": {
        "notice": "Delegates borrowing power to a user on the specific debt token. Delegation will still respect the liquidation constraints (even if delegated, a delegatee cannot force a delegator HF to go below 1)"
      },
      "borrowAllowance(address,address)": {
        "notice": "Returns the borrow allowance of the user"
      },
      "burn(address,uint256)": {
        "notice": "Burns debt of `user`"
      },
      "delegationWithSig(address,address,uint256,uint256,uint8,bytes32,bytes32)": {
        "notice": "Delegates borrowing power to a user on the specific debt token via ERC712 signature"
      },
      "getAverageStableRate()": {
        "notice": "Returns the average rate of all the stable rate loans."
      },
      "getIncentivesController()": {
        "notice": "Returns the address of the Incentives Controller contract"
      },
      "getSupplyData()": {
        "notice": "Returns the principal, the total supply, the average stable rate and the timestamp for the last update"
      },
      "getTotalSupplyAndAvgRate()": {
        "notice": "Returns the total supply and the average stable rate"
      },
      "getTotalSupplyLastUpdated()": {
        "notice": "Returns the timestamp of the last update of the total supply"
      },
      "getUserLastUpdated(address)": {
        "notice": "Returns the timestamp of the last update of the user"
      },
      "getUserStableRate(address)": {
        "notice": "Returns the stable rate of the user debt"
      },
      "initialize(address,address,address,uint8,string,string,bytes)": {
        "notice": "Initializes the debt token."
      },
      "mint(address,address,uint256,uint256)": {
        "notice": "Mints debt token to the `onBehalfOf` address."
      },
      "nonces(address)": {
        "notice": "Returns the nonce value for address specified as parameter"
      },
      "principalBalanceOf(address)": {
        "notice": "Returns the principal debt balance of the user"
      },
      "setIncentivesController(address)": {
        "notice": "Sets a new Incentives Controller"
      }
    },
    "notice": "Implements a stable debt token to track the borrowing positions of users at stable rate mode",
    "version": 1
  },
  "storageLayout": {
    "storage": [
      {
        "astId": 28456,
        "contract": "contracts/dlend/core/protocol/tokenization/StableDebtToken.sol:StableDebtToken",
        "label": "lastInitializedRevision",
        "offset": 0,
        "slot": "0",
        "type": "t_uint256"
      },
      {
        "astId": 28459,
        "contract": "contracts/dlend/core/protocol/tokenization/StableDebtToken.sol:StableDebtToken",
        "label": "initializing",
        "offset": 0,
        "slot": "1",
        "type": "t_bool"
      },
      {
        "astId": 28529,
        "contract": "contracts/dlend/core/protocol/tokenization/StableDebtToken.sol:StableDebtToken",
        "label": "______gap",
        "offset": 0,
        "slot": "2",
        "type": "t_array(t_uint256)50_storage"
      },
      {
        "astId": 46471,
        "contract": "contracts/dlend/core/protocol/tokenization/StableDebtToken.sol:StableDebtToken",
        "label": "_nonces",
        "offset": 0,
        "slot": "52",
        "type": "t_mapping(t_address,t_uint256)"
      },
      {
        "astId": 46473,
        "contract": "contracts/dlend/core/protocol/tokenization/StableDebtToken.sol:StableDebtToken",
        "label": "_domainSeparator",
        "offset": 0,
        "slot": "53",
        "type": "t_bytes32"
      },
      {
        "astId": 46248,
        "contract": "contracts/dlend/core/protocol/tokenization/StableDebtToken.sol:StableDebtToken",
        "label": "_borrowAllowances",
        "offset": 0,
        "slot": "54",
        "type": "t_mapping(t_address,t_mapping(t_address,t_uint256))"
      },
      {
        "astId": 46255,
        "contract": "contracts/dlend/core/protocol/tokenization/StableDebtToken.sol:StableDebtToken",
        "label": "_underlyingAsset",
        "offset": 0,
        "slot": "55",
        "type": "t_address"
      },
      {
        "astId": 46638,
        "contract": "contracts/dlend/core/protocol/tokenization/StableDebtToken.sol:StableDebtToken",
        "label": "_userState",
        "offset": 0,
        "slot": "56",
        "type": "t_mapping(t_address,t_struct(UserState)46633_storage)"
      },
      {
        "astId": 46644,
        "contract": "contracts/dlend/core/protocol/tokenization/StableDebtToken.sol:StableDebtToken",
        "label": "_allowances",
        "offset": 0,
        "slot": "57",
        "type": "t_mapping(t_address,t_mapping(t_address,t_uint256))"
      },
      {
        "astId": 46646,
        "contract": "contracts/dlend/core/protocol/tokenization/StableDebtToken.sol:StableDebtToken",
        "label": "_totalSupply",
        "offset": 0,
        "slot": "58",
        "type": "t_uint256"
      },
      {
        "astId": 46648,
        "contract": "contracts/dlend/core/protocol/tokenization/StableDebtToken.sol:StableDebtToken",
        "label": "_name",
        "offset": 0,
        "slot": "59",
        "type": "t_string_storage"
      },
      {
        "astId": 46650,
        "contract": "contracts/dlend/core/protocol/tokenization/StableDebtToken.sol:StableDebtToken",
        "label": "_symbol",
        "offset": 0,
        "slot": "60",
        "type": "t_string_storage"
      },
      {
        "astId": 46652,
        "contract": "contracts/dlend/core/protocol/tokenization/StableDebtToken.sol:StableDebtToken",
        "label": "_decimals",
        "offset": 0,
        "slot": "61",
        "type": "t_uint8"
      },
      {
        "astId": 46655,
        "contract": "contracts/dlend/core/protocol/tokenization/StableDebtToken.sol:StableDebtToken",
        "label": "_incentivesController",
        "offset": 1,
        "slot": "61",
        "type": "t_contract(IAaveIncentivesController)22625"
      },
      {
        "astId": 44812,
        "contract": "contracts/dlend/core/protocol/tokenization/StableDebtToken.sol:StableDebtToken",
        "label": "_timestamps",
        "offset": 0,
        "slot": "62",
        "type": "t_mapping(t_address,t_uint40)"
      },
      {
        "astId": 44814,
        "contract": "contracts/dlend/core/protocol/tokenization/StableDebtToken.sol:StableDebtToken",
        "label": "_avgStableRate",
        "offset": 0,
        "slot": "63",
        "type": "t_uint128"
      },
      {
        "astId": 44816,
        "contract": "contracts/dlend/core/protocol/tokenization/StableDebtToken.sol:StableDebtToken",
        "label": "_totalSupplyTimestamp",
        "offset": 16,
        "slot": "63",
        "type": "t_uint40"
      }
    ],
    "types": {
      "t_address": {
        "encoding": "inplace",
        "label": "address",
        "numberOfBytes": "20"
      },
      "t_array(t_uint256)50_storage": {
        "base": "t_uint256",
        "encoding": "inplace",
        "label": "uint256[50]",
        "numberOfBytes": "1600"
      },
      "t_bool": {
        "encoding": "inplace",
        "label": "bool",
        "numberOfBytes": "1"
      },
      "t_bytes32": {
        "encoding": "inplace",
        "label": "bytes32",
        "numberOfBytes": "32"
      },
      "t_contract(IAaveIncentivesController)22625": {
        "encoding": "inplace",
        "label": "contract IAaveIncentivesController",
        "numberOfBytes": "20"
      },
      "t_mapping(t_address,t_mapping(t_address,t_uint256))": {
        "encoding": "mapping",
        "key": "t_address",
        "label": "mapping(address => mapping(address => uint256))",
        "numberOfBytes": "32",
        "value": "t_mapping(t_address,t_uint256)"
      },
      "t_mapping(t_address,t_struct(UserState)46633_storage)": {
        "encoding": "mapping",
        "key": "t_address",
        "label": "mapping(address => struct IncentivizedERC20.UserState)",
        "numberOfBytes": "32",
        "value": "t_struct(UserState)46633_storage"
      },
      "t_mapping(t_address,t_uint256)": {
        "encoding": "mapping",
        "key": "t_address",
        "label": "mapping(address => uint256)",
        "numberOfBytes": "32",
        "value": "t_uint256"
      },
      "t_mapping(t_address,t_uint40)": {
        "encoding": "mapping",
        "key": "t_address",
        "label": "mapping(address => uint40)",
        "numberOfBytes": "32",
        "value": "t_uint40"
      },
      "t_string_storage": {
        "encoding": "bytes",
        "label": "string",
        "numberOfBytes": "32"
      },
      "t_struct(UserState)46633_storage": {
        "encoding": "inplace",
        "label": "struct IncentivizedERC20.UserState",
        "members": [
          {
            "astId": 46630,
            "contract": "contracts/dlend/core/protocol/tokenization/StableDebtToken.sol:StableDebtToken",
            "label": "balance",
            "offset": 0,
            "slot": "0",
            "type": "t_uint128"
          },
          {
            "astId": 46632,
            "contract": "contracts/dlend/core/protocol/tokenization/StableDebtToken.sol:StableDebtToken",
            "label": "additionalData",
            "offset": 16,
            "slot": "0",
            "type": "t_uint128"
          }
        ],
        "numberOfBytes": "32"
      },
      "t_uint128": {
        "encoding": "inplace",
        "label": "uint128",
        "numberOfBytes": "16"
      },
      "t_uint256": {
        "encoding": "inplace",
        "label": "uint256",
        "numberOfBytes": "32"
      },
      "t_uint40": {
        "encoding": "inplace",
        "label": "uint40",
        "numberOfBytes": "5"
      },
      "t_uint8": {
        "encoding": "inplace",
        "label": "uint8",
        "numberOfBytes": "1"
      }
    }
  }
}