{
  "address": "0x2D38F1f67dD81c6E8d7802e8f3A48872fe37FC12",
  "abi": [
    {
      "inputs": [
        {
          "internalType": "contract IPoolAddressesProvider",
          "name": "provider",
          "type": "address"
        },
        {
          "internalType": "address",
          "name": "user",
          "type": "address"
        }
      ],
      "name": "getFullReservesIncentiveData",
      "outputs": [
        {
          "components": [
            {
              "internalType": "address",
              "name": "underlyingAsset",
              "type": "address"
            },
            {
              "components": [
                {
                  "internalType": "address",
                  "name": "tokenAddress",
                  "type": "address"
                },
                {
                  "internalType": "address",
                  "name": "incentiveControllerAddress",
                  "type": "address"
                },
                {
                  "components": [
                    {
                      "internalType": "string",
                      "name": "rewardTokenSymbol",
                      "type": "string"
                    },
                    {
                      "internalType": "address",
                      "name": "rewardTokenAddress",
                      "type": "address"
                    },
                    {
                      "internalType": "address",
                      "name": "rewardOracleAddress",
                      "type": "address"
                    },
                    {
                      "internalType": "uint256",
                      "name": "emissionPerSecond",
                      "type": "uint256"
                    },
                    {
                      "internalType": "uint256",
                      "name": "incentivesLastUpdateTimestamp",
                      "type": "uint256"
                    },
                    {
                      "internalType": "uint256",
                      "name": "tokenIncentivesIndex",
                      "type": "uint256"
                    },
                    {
                      "internalType": "uint256",
                      "name": "emissionEndTimestamp",
                      "type": "uint256"
                    },
                    {
                      "internalType": "int256",
                      "name": "rewardPriceFeed",
                      "type": "int256"
                    },
                    {
                      "internalType": "uint8",
                      "name": "rewardTokenDecimals",
                      "type": "uint8"
                    },
                    {
                      "internalType": "uint8",
                      "name": "precision",
                      "type": "uint8"
                    },
                    {
                      "internalType": "uint8",
                      "name": "priceFeedDecimals",
                      "type": "uint8"
                    }
                  ],
                  "internalType": "struct IUiIncentiveDataProviderV3.RewardInfo[]",
                  "name": "rewardsTokenInformation",
                  "type": "tuple[]"
                }
              ],
              "internalType": "struct IUiIncentiveDataProviderV3.IncentiveData",
              "name": "aIncentiveData",
              "type": "tuple"
            },
            {
              "components": [
                {
                  "internalType": "address",
                  "name": "tokenAddress",
                  "type": "address"
                },
                {
                  "internalType": "address",
                  "name": "incentiveControllerAddress",
                  "type": "address"
                },
                {
                  "components": [
                    {
                      "internalType": "string",
                      "name": "rewardTokenSymbol",
                      "type": "string"
                    },
                    {
                      "internalType": "address",
                      "name": "rewardTokenAddress",
                      "type": "address"
                    },
                    {
                      "internalType": "address",
                      "name": "rewardOracleAddress",
                      "type": "address"
                    },
                    {
                      "internalType": "uint256",
                      "name": "emissionPerSecond",
                      "type": "uint256"
                    },
                    {
                      "internalType": "uint256",
                      "name": "incentivesLastUpdateTimestamp",
                      "type": "uint256"
                    },
                    {
                      "internalType": "uint256",
                      "name": "tokenIncentivesIndex",
                      "type": "uint256"
                    },
                    {
                      "internalType": "uint256",
                      "name": "emissionEndTimestamp",
                      "type": "uint256"
                    },
                    {
                      "internalType": "int256",
                      "name": "rewardPriceFeed",
                      "type": "int256"
                    },
                    {
                      "internalType": "uint8",
                      "name": "rewardTokenDecimals",
                      "type": "uint8"
                    },
                    {
                      "internalType": "uint8",
                      "name": "precision",
                      "type": "uint8"
                    },
                    {
                      "internalType": "uint8",
                      "name": "priceFeedDecimals",
                      "type": "uint8"
                    }
                  ],
                  "internalType": "struct IUiIncentiveDataProviderV3.RewardInfo[]",
                  "name": "rewardsTokenInformation",
                  "type": "tuple[]"
                }
              ],
              "internalType": "struct IUiIncentiveDataProviderV3.IncentiveData",
              "name": "vIncentiveData",
              "type": "tuple"
            },
            {
              "components": [
                {
                  "internalType": "address",
                  "name": "tokenAddress",
                  "type": "address"
                },
                {
                  "internalType": "address",
                  "name": "incentiveControllerAddress",
                  "type": "address"
                },
                {
                  "components": [
                    {
                      "internalType": "string",
                      "name": "rewardTokenSymbol",
                      "type": "string"
                    },
                    {
                      "internalType": "address",
                      "name": "rewardTokenAddress",
                      "type": "address"
                    },
                    {
                      "internalType": "address",
                      "name": "rewardOracleAddress",
                      "type": "address"
                    },
                    {
                      "internalType": "uint256",
                      "name": "emissionPerSecond",
                      "type": "uint256"
                    },
                    {
                      "internalType": "uint256",
                      "name": "incentivesLastUpdateTimestamp",
                      "type": "uint256"
                    },
                    {
                      "internalType": "uint256",
                      "name": "tokenIncentivesIndex",
                      "type": "uint256"
                    },
                    {
                      "internalType": "uint256",
                      "name": "emissionEndTimestamp",
                      "type": "uint256"
                    },
                    {
                      "internalType": "int256",
                      "name": "rewardPriceFeed",
                      "type": "int256"
                    },
                    {
                      "internalType": "uint8",
                      "name": "rewardTokenDecimals",
                      "type": "uint8"
                    },
                    {
                      "internalType": "uint8",
                      "name": "precision",
                      "type": "uint8"
                    },
                    {
                      "internalType": "uint8",
                      "name": "priceFeedDecimals",
                      "type": "uint8"
                    }
                  ],
                  "internalType": "struct IUiIncentiveDataProviderV3.RewardInfo[]",
                  "name": "rewardsTokenInformation",
                  "type": "tuple[]"
                }
              ],
              "internalType": "struct IUiIncentiveDataProviderV3.IncentiveData",
              "name": "sIncentiveData",
              "type": "tuple"
            }
          ],
          "internalType": "struct IUiIncentiveDataProviderV3.AggregatedReserveIncentiveData[]",
          "name": "",
          "type": "tuple[]"
        },
        {
          "components": [
            {
              "internalType": "address",
              "name": "underlyingAsset",
              "type": "address"
            },
            {
              "components": [
                {
                  "internalType": "address",
                  "name": "tokenAddress",
                  "type": "address"
                },
                {
                  "internalType": "address",
                  "name": "incentiveControllerAddress",
                  "type": "address"
                },
                {
                  "components": [
                    {
                      "internalType": "string",
                      "name": "rewardTokenSymbol",
                      "type": "string"
                    },
                    {
                      "internalType": "address",
                      "name": "rewardOracleAddress",
                      "type": "address"
                    },
                    {
                      "internalType": "address",
                      "name": "rewardTokenAddress",
                      "type": "address"
                    },
                    {
                      "internalType": "uint256",
                      "name": "userUnclaimedRewards",
                      "type": "uint256"
                    },
                    {
                      "internalType": "uint256",
                      "name": "tokenIncentivesUserIndex",
                      "type": "uint256"
                    },
                    {
                      "internalType": "int256",
                      "name": "rewardPriceFeed",
                      "type": "int256"
                    },
                    {
                      "internalType": "uint8",
                      "name": "priceFeedDecimals",
                      "type": "uint8"
                    },
                    {
                      "internalType": "uint8",
                      "name": "rewardTokenDecimals",
                      "type": "uint8"
                    }
                  ],
                  "internalType": "struct IUiIncentiveDataProviderV3.UserRewardInfo[]",
                  "name": "userRewardsInformation",
                  "type": "tuple[]"
                }
              ],
              "internalType": "struct IUiIncentiveDataProviderV3.UserIncentiveData",
              "name": "aTokenIncentivesUserData",
              "type": "tuple"
            },
            {
              "components": [
                {
                  "internalType": "address",
                  "name": "tokenAddress",
                  "type": "address"
                },
                {
                  "internalType": "address",
                  "name": "incentiveControllerAddress",
                  "type": "address"
                },
                {
                  "components": [
                    {
                      "internalType": "string",
                      "name": "rewardTokenSymbol",
                      "type": "string"
                    },
                    {
                      "internalType": "address",
                      "name": "rewardOracleAddress",
                      "type": "address"
                    },
                    {
                      "internalType": "address",
                      "name": "rewardTokenAddress",
                      "type": "address"
                    },
                    {
                      "internalType": "uint256",
                      "name": "userUnclaimedRewards",
                      "type": "uint256"
                    },
                    {
                      "internalType": "uint256",
                      "name": "tokenIncentivesUserIndex",
                      "type": "uint256"
                    },
                    {
                      "internalType": "int256",
                      "name": "rewardPriceFeed",
                      "type": "int256"
                    },
                    {
                      "internalType": "uint8",
                      "name": "priceFeedDecimals",
                      "type": "uint8"
                    },
                    {
                      "internalType": "uint8",
                      "name": "rewardTokenDecimals",
                      "type": "uint8"
                    }
                  ],
                  "internalType": "struct IUiIncentiveDataProviderV3.UserRewardInfo[]",
                  "name": "userRewardsInformation",
                  "type": "tuple[]"
                }
              ],
              "internalType": "struct IUiIncentiveDataProviderV3.UserIncentiveData",
              "name": "vTokenIncentivesUserData",
              "type": "tuple"
            },
            {
              "components": [
                {
                  "internalType": "address",
                  "name": "tokenAddress",
                  "type": "address"
                },
                {
                  "internalType": "address",
                  "name": "incentiveControllerAddress",
                  "type": "address"
                },
                {
                  "components": [
                    {
                      "internalType": "string",
                      "name": "rewardTokenSymbol",
                      "type": "string"
                    },
                    {
                      "internalType": "address",
                      "name": "rewardOracleAddress",
                      "type": "address"
                    },
                    {
                      "internalType": "address",
                      "name": "rewardTokenAddress",
                      "type": "address"
                    },
                    {
                      "internalType": "uint256",
                      "name": "userUnclaimedRewards",
                      "type": "uint256"
                    },
                    {
                      "internalType": "uint256",
                      "name": "tokenIncentivesUserIndex",
                      "type": "uint256"
                    },
                    {
                      "internalType": "int256",
                      "name": "rewardPriceFeed",
                      "type": "int256"
                    },
                    {
                      "internalType": "uint8",
                      "name": "priceFeedDecimals",
                      "type": "uint8"
                    },
                    {
                      "internalType": "uint8",
                      "name": "rewardTokenDecimals",
                      "type": "uint8"
                    }
                  ],
                  "internalType": "struct IUiIncentiveDataProviderV3.UserRewardInfo[]",
                  "name": "userRewardsInformation",
                  "type": "tuple[]"
                }
              ],
              "internalType": "struct IUiIncentiveDataProviderV3.UserIncentiveData",
              "name": "sTokenIncentivesUserData",
              "type": "tuple"
            }
          ],
          "internalType": "struct IUiIncentiveDataProviderV3.UserReserveIncentiveData[]",
          "name": "",
          "type": "tuple[]"
        }
      ],
      "stateMutability": "view",
      "type": "function"
    },
    {
      "inputs": [
        {
          "internalType": "contract IPoolAddressesProvider",
          "name": "provider",
          "type": "address"
        }
      ],
      "name": "getReservesIncentivesData",
      "outputs": [
        {
          "components": [
            {
              "internalType": "address",
              "name": "underlyingAsset",
              "type": "address"
            },
            {
              "components": [
                {
                  "internalType": "address",
                  "name": "tokenAddress",
                  "type": "address"
                },
                {
                  "internalType": "address",
                  "name": "incentiveControllerAddress",
                  "type": "address"
                },
                {
                  "components": [
                    {
                      "internalType": "string",
                      "name": "rewardTokenSymbol",
                      "type": "string"
                    },
                    {
                      "internalType": "address",
                      "name": "rewardTokenAddress",
                      "type": "address"
                    },
                    {
                      "internalType": "address",
                      "name": "rewardOracleAddress",
                      "type": "address"
                    },
                    {
                      "internalType": "uint256",
                      "name": "emissionPerSecond",
                      "type": "uint256"
                    },
                    {
                      "internalType": "uint256",
                      "name": "incentivesLastUpdateTimestamp",
                      "type": "uint256"
                    },
                    {
                      "internalType": "uint256",
                      "name": "tokenIncentivesIndex",
                      "type": "uint256"
                    },
                    {
                      "internalType": "uint256",
                      "name": "emissionEndTimestamp",
                      "type": "uint256"
                    },
                    {
                      "internalType": "int256",
                      "name": "rewardPriceFeed",
                      "type": "int256"
                    },
                    {
                      "internalType": "uint8",
                      "name": "rewardTokenDecimals",
                      "type": "uint8"
                    },
                    {
                      "internalType": "uint8",
                      "name": "precision",
                      "type": "uint8"
                    },
                    {
                      "internalType": "uint8",
                      "name": "priceFeedDecimals",
                      "type": "uint8"
                    }
                  ],
                  "internalType": "struct IUiIncentiveDataProviderV3.RewardInfo[]",
                  "name": "rewardsTokenInformation",
                  "type": "tuple[]"
                }
              ],
              "internalType": "struct IUiIncentiveDataProviderV3.IncentiveData",
              "name": "aIncentiveData",
              "type": "tuple"
            },
            {
              "components": [
                {
                  "internalType": "address",
                  "name": "tokenAddress",
                  "type": "address"
                },
                {
                  "internalType": "address",
                  "name": "incentiveControllerAddress",
                  "type": "address"
                },
                {
                  "components": [
                    {
                      "internalType": "string",
                      "name": "rewardTokenSymbol",
                      "type": "string"
                    },
                    {
                      "internalType": "address",
                      "name": "rewardTokenAddress",
                      "type": "address"
                    },
                    {
                      "internalType": "address",
                      "name": "rewardOracleAddress",
                      "type": "address"
                    },
                    {
                      "internalType": "uint256",
                      "name": "emissionPerSecond",
                      "type": "uint256"
                    },
                    {
                      "internalType": "uint256",
                      "name": "incentivesLastUpdateTimestamp",
                      "type": "uint256"
                    },
                    {
                      "internalType": "uint256",
                      "name": "tokenIncentivesIndex",
                      "type": "uint256"
                    },
                    {
                      "internalType": "uint256",
                      "name": "emissionEndTimestamp",
                      "type": "uint256"
                    },
                    {
                      "internalType": "int256",
                      "name": "rewardPriceFeed",
                      "type": "int256"
                    },
                    {
                      "internalType": "uint8",
                      "name": "rewardTokenDecimals",
                      "type": "uint8"
                    },
                    {
                      "internalType": "uint8",
                      "name": "precision",
                      "type": "uint8"
                    },
                    {
                      "internalType": "uint8",
                      "name": "priceFeedDecimals",
                      "type": "uint8"
                    }
                  ],
                  "internalType": "struct IUiIncentiveDataProviderV3.RewardInfo[]",
                  "name": "rewardsTokenInformation",
                  "type": "tuple[]"
                }
              ],
              "internalType": "struct IUiIncentiveDataProviderV3.IncentiveData",
              "name": "vIncentiveData",
              "type": "tuple"
            },
            {
              "components": [
                {
                  "internalType": "address",
                  "name": "tokenAddress",
                  "type": "address"
                },
                {
                  "internalType": "address",
                  "name": "incentiveControllerAddress",
                  "type": "address"
                },
                {
                  "components": [
                    {
                      "internalType": "string",
                      "name": "rewardTokenSymbol",
                      "type": "string"
                    },
                    {
                      "internalType": "address",
                      "name": "rewardTokenAddress",
                      "type": "address"
                    },
                    {
                      "internalType": "address",
                      "name": "rewardOracleAddress",
                      "type": "address"
                    },
                    {
                      "internalType": "uint256",
                      "name": "emissionPerSecond",
                      "type": "uint256"
                    },
                    {
                      "internalType": "uint256",
                      "name": "incentivesLastUpdateTimestamp",
                      "type": "uint256"
                    },
                    {
                      "internalType": "uint256",
                      "name": "tokenIncentivesIndex",
                      "type": "uint256"
                    },
                    {
                      "internalType": "uint256",
                      "name": "emissionEndTimestamp",
                      "type": "uint256"
                    },
                    {
                      "internalType": "int256",
                      "name": "rewardPriceFeed",
                      "type": "int256"
                    },
                    {
                      "internalType": "uint8",
                      "name": "rewardTokenDecimals",
                      "type": "uint8"
                    },
                    {
                      "internalType": "uint8",
                      "name": "precision",
                      "type": "uint8"
                    },
                    {
                      "internalType": "uint8",
                      "name": "priceFeedDecimals",
                      "type": "uint8"
                    }
                  ],
                  "internalType": "struct IUiIncentiveDataProviderV3.RewardInfo[]",
                  "name": "rewardsTokenInformation",
                  "type": "tuple[]"
                }
              ],
              "internalType": "struct IUiIncentiveDataProviderV3.IncentiveData",
              "name": "sIncentiveData",
              "type": "tuple"
            }
          ],
          "internalType": "struct IUiIncentiveDataProviderV3.AggregatedReserveIncentiveData[]",
          "name": "",
          "type": "tuple[]"
        }
      ],
      "stateMutability": "view",
      "type": "function"
    },
    {
      "inputs": [
        {
          "internalType": "contract IPoolAddressesProvider",
          "name": "provider",
          "type": "address"
        },
        {
          "internalType": "address",
          "name": "user",
          "type": "address"
        }
      ],
      "name": "getUserReservesIncentivesData",
      "outputs": [
        {
          "components": [
            {
              "internalType": "address",
              "name": "underlyingAsset",
              "type": "address"
            },
            {
              "components": [
                {
                  "internalType": "address",
                  "name": "tokenAddress",
                  "type": "address"
                },
                {
                  "internalType": "address",
                  "name": "incentiveControllerAddress",
                  "type": "address"
                },
                {
                  "components": [
                    {
                      "internalType": "string",
                      "name": "rewardTokenSymbol",
                      "type": "string"
                    },
                    {
                      "internalType": "address",
                      "name": "rewardOracleAddress",
                      "type": "address"
                    },
                    {
                      "internalType": "address",
                      "name": "rewardTokenAddress",
                      "type": "address"
                    },
                    {
                      "internalType": "uint256",
                      "name": "userUnclaimedRewards",
                      "type": "uint256"
                    },
                    {
                      "internalType": "uint256",
                      "name": "tokenIncentivesUserIndex",
                      "type": "uint256"
                    },
                    {
                      "internalType": "int256",
                      "name": "rewardPriceFeed",
                      "type": "int256"
                    },
                    {
                      "internalType": "uint8",
                      "name": "priceFeedDecimals",
                      "type": "uint8"
                    },
                    {
                      "internalType": "uint8",
                      "name": "rewardTokenDecimals",
                      "type": "uint8"
                    }
                  ],
                  "internalType": "struct IUiIncentiveDataProviderV3.UserRewardInfo[]",
                  "name": "userRewardsInformation",
                  "type": "tuple[]"
                }
              ],
              "internalType": "struct IUiIncentiveDataProviderV3.UserIncentiveData",
              "name": "aTokenIncentivesUserData",
              "type": "tuple"
            },
            {
              "components": [
                {
                  "internalType": "address",
                  "name": "tokenAddress",
                  "type": "address"
                },
                {
                  "internalType": "address",
                  "name": "incentiveControllerAddress",
                  "type": "address"
                },
                {
                  "components": [
                    {
                      "internalType": "string",
                      "name": "rewardTokenSymbol",
                      "type": "string"
                    },
                    {
                      "internalType": "address",
                      "name": "rewardOracleAddress",
                      "type": "address"
                    },
                    {
                      "internalType": "address",
                      "name": "rewardTokenAddress",
                      "type": "address"
                    },
                    {
                      "internalType": "uint256",
                      "name": "userUnclaimedRewards",
                      "type": "uint256"
                    },
                    {
                      "internalType": "uint256",
                      "name": "tokenIncentivesUserIndex",
                      "type": "uint256"
                    },
                    {
                      "internalType": "int256",
                      "name": "rewardPriceFeed",
                      "type": "int256"
                    },
                    {
                      "internalType": "uint8",
                      "name": "priceFeedDecimals",
                      "type": "uint8"
                    },
                    {
                      "internalType": "uint8",
                      "name": "rewardTokenDecimals",
                      "type": "uint8"
                    }
                  ],
                  "internalType": "struct IUiIncentiveDataProviderV3.UserRewardInfo[]",
                  "name": "userRewardsInformation",
                  "type": "tuple[]"
                }
              ],
              "internalType": "struct IUiIncentiveDataProviderV3.UserIncentiveData",
              "name": "vTokenIncentivesUserData",
              "type": "tuple"
            },
            {
              "components": [
                {
                  "internalType": "address",
                  "name": "tokenAddress",
                  "type": "address"
                },
                {
                  "internalType": "address",
                  "name": "incentiveControllerAddress",
                  "type": "address"
                },
                {
                  "components": [
                    {
                      "internalType": "string",
                      "name": "rewardTokenSymbol",
                      "type": "string"
                    },
                    {
                      "internalType": "address",
                      "name": "rewardOracleAddress",
                      "type": "address"
                    },
                    {
                      "internalType": "address",
                      "name": "rewardTokenAddress",
                      "type": "address"
                    },
                    {
                      "internalType": "uint256",
                      "name": "userUnclaimedRewards",
                      "type": "uint256"
                    },
                    {
                      "internalType": "uint256",
                      "name": "tokenIncentivesUserIndex",
                      "type": "uint256"
                    },
                    {
                      "internalType": "int256",
                      "name": "rewardPriceFeed",
                      "type": "int256"
                    },
                    {
                      "internalType": "uint8",
                      "name": "priceFeedDecimals",
                      "type": "uint8"
                    },
                    {
                      "internalType": "uint8",
                      "name": "rewardTokenDecimals",
                      "type": "uint8"
                    }
                  ],
                  "internalType": "struct IUiIncentiveDataProviderV3.UserRewardInfo[]",
                  "name": "userRewardsInformation",
                  "type": "tuple[]"
                }
              ],
              "internalType": "struct IUiIncentiveDataProviderV3.UserIncentiveData",
              "name": "sTokenIncentivesUserData",
              "type": "tuple"
            }
          ],
          "internalType": "struct IUiIncentiveDataProviderV3.UserReserveIncentiveData[]",
          "name": "",
          "type": "tuple[]"
        }
      ],
      "stateMutability": "view",
      "type": "function"
    }
  ],
  "transactionHash": "0x4f167d8fbfcbcce1a58ae5922f183ff61408a64dc0289e9ad59b387075f5372f",
  "args": [],
  "numDeployments": 1,
  "solcInputHash": "2527ebfec9c9a604caa210608c9d74c8",
  "bytecode": "0x608060405234801561001057600080fd5b5061303f806100206000396000f3fe608060405234801561001057600080fd5b50600436106100415760003560e01c80634763753614610046578063799bdcf514610070578063976fafc514610090575b600080fd5b6100596100543660046127a7565b6100b0565b604051610067929190612b8e565b60405180910390f35b61008361007e3660046127a7565b6100d1565b6040516100679190612bbc565b6100a361009e366004612bcf565b6100e4565b6040516100679190612bec565b6060806100bc846100f5565b6100c68585611306565b915091509250929050565b60606100dd8383611306565b9392505050565b60606100ef826100f5565b92915050565b60606000826001600160a01b031663026b1d5f6040518163ffffffff1660e01b8152600401602060405180830381865afa158015610137573d6000803e3d6000fd5b505050506040513d601f19601f8201168201806040525081019061015b9190612c0f565b90506000816001600160a01b031663d1946dbc6040518163ffffffff1660e01b8152600401600060405180830381865afa15801561019d573d6000803e3d6000fd5b505050506040513d6000823e601f3d908101601f191682016040526101c59190810190612c9b565b9050600081516001600160401b038111156101e2576101e2612c2c565b60405190808252806020026020018201604052801561021b57816020015b61020861262d565b8152602001906001900390816102005790505b50905060005b82518110156112fd57600082828151811061023e5761023e612d4c565b6020026020010151905083828151811061025a5761025a612d4c565b602002602001015181600001906001600160a01b031690816001600160a01b0316815250506000856001600160a01b03166335ea6a758685815181106102a2576102a2612d4c565b60200260200101516040518263ffffffff1660e01b81526004016102d591906001600160a01b0391909116815260200190565b6101e060405180830381865afa1580156102f3573d6000803e3d6000fd5b505050506040513d601f19601f820116820180604052508101906103179190612dea565b905060008161010001516001600160a01b03166375d264136040518163ffffffff1660e01b8152600401602060405180830381865afa15801561035e573d6000803e3d6000fd5b505050506040513d601f19601f820116820180604052508101906103829190612c0f565b905060606001600160a01b0382161561082857610100830151604051636657732f60e01b81526001600160a01b039182166004820152600091841690636657732f90602401600060405180830381865afa1580156103e4573d6000803e3d6000fd5b505050506040513d6000823e601f3d908101601f1916820160405261040c9190810190612c9b565b905080516001600160401b0381111561042757610427612c2c565b60405190808252806020026020018201604052801561046057816020015b61044d6126bd565b8152602001906001900390816104455790505b50915060005b8151811015610825576104776126bd565b82828151811061048957610489612d4c565b6020908102919091018101516001600160a01b03908116918301829052610100880151604051630fdfe97560e31b815290821660048201526024810192909252861690637eff4ba890604401608060405180830381865afa1580156104f2573d6000803e3d6000fd5b505050506040513d601f19601f820116820180604052508101906105169190612f0d565b60c08501526080840152606083015260a0820152610100860151604051634f7eb7b960e11b81526001600160a01b03918216600482015290861690639efd6f7290602401602060405180830381865afa158015610577573d6000803e3d6000fd5b505050506040513d601f19601f8201168201806040525081019061059b9190612f43565b60ff166101208201526020808201516040805163313ce56760e01b815290516001600160a01b039092169263313ce567926004808401938290030181865afa1580156105eb573d6000803e3d6000fd5b505050506040513d601f19601f8201168201806040525081019061060f9190612f43565b81610100019060ff16908160ff168152505080602001516001600160a01b03166395d89b416040518163ffffffff1660e01b8152600401600060405180830381865afa158015610663573d6000803e3d6000fd5b505050506040513d6000823e601f3d908101601f1916820160405261068b9190810190612f66565b81526020810151604051630150bdfb60e51b81526001600160a01b03918216600482015290861690632a17bf6090602401602060405180830381865afa1580156106d9573d6000803e3d6000fd5b505050506040513d601f19601f820116820180604052508101906106fd9190612c0f565b6001600160a01b03166040808301829052805162e19f4760e81b815290516000929163e19f47009160048083019260209291908290030181865afa158015610749573d6000803e3d6000fd5b505050506040513d601f19601f8201168201806040525081019061076d9190612c0f565b9050610778816125c8565b60ff166101408301526040808301516020840151915163b3596f0760e01b81526001600160a01b03928316600482015291169063b3596f0790602401602060405180830381865afa1580156107d1573d6000803e3d6000fd5b505050506040513d601f19601f820116820180604052508101906107f59190612ff0565b60e08301528451829086908590811061081057610810612d4c565b60209081029190910101525050600101610466565b50505b60405180606001604052808461010001516001600160a01b03168152602001836001600160a01b0316815260200182815250846020018190525060008361014001516001600160a01b03166375d264136040518163ffffffff1660e01b8152600401602060405180830381865afa1580156108a7573d6000803e3d6000fd5b505050506040513d601f19601f820116820180604052508101906108cb9190612c0f565b905060606001600160a01b03821615610d7157610140850151604051636657732f60e01b81526001600160a01b039182166004820152600091841690636657732f90602401600060405180830381865afa15801561092d573d6000803e3d6000fd5b505050506040513d6000823e601f3d908101601f191682016040526109559190810190612c9b565b905080516001600160401b0381111561097057610970612c2c565b6040519080825280602002602001820160405280156109a957816020015b6109966126bd565b81526020019060019003908161098e5790505b50915060005b8151811015610d6e576109c06126bd565b8282815181106109d2576109d2612d4c565b6020908102919091018101516001600160a01b039081169183018290526101408a0151604051630fdfe97560e31b815290821660048201526024810192909252861690637eff4ba890604401608060405180830381865afa158015610a3b573d6000803e3d6000fd5b505050506040513d601f19601f82011682018060405250810190610a5f9190612f0d565b60c08501526080840152606083015260a0820152610140880151604051634f7eb7b960e11b81526001600160a01b03918216600482015290861690639efd6f7290602401602060405180830381865afa158015610ac0573d6000803e3d6000fd5b505050506040513d601f19601f82011682018060405250810190610ae49190612f43565b60ff166101208201526020808201516040805163313ce56760e01b815290516001600160a01b039092169263313ce567926004808401938290030181865afa158015610b34573d6000803e3d6000fd5b505050506040513d601f19601f82011682018060405250810190610b589190612f43565b81610100019060ff16908160ff168152505080602001516001600160a01b03166395d89b416040518163ffffffff1660e01b8152600401600060405180830381865afa158015610bac573d6000803e3d6000fd5b505050506040513d6000823e601f3d908101601f19168201604052610bd49190810190612f66565b81526020810151604051630150bdfb60e51b81526001600160a01b03918216600482015290861690632a17bf6090602401602060405180830381865afa158015610c22573d6000803e3d6000fd5b505050506040513d601f19601f82011682018060405250810190610c469190612c0f565b6001600160a01b03166040808301829052805162e19f4760e81b815290516000929163e19f47009160048083019260209291908290030181865afa158015610c92573d6000803e3d6000fd5b505050506040513d601f19601f82011682018060405250810190610cb69190612c0f565b9050610cc1816125c8565b60ff166101408301526040808301516020840151915163b3596f0760e01b81526001600160a01b03928316600482015291169063b3596f0790602401602060405180830381865afa158015610d1a573d6000803e3d6000fd5b505050506040513d601f19601f82011682018060405250810190610d3e9190612ff0565b60e083015284518290869085908110610d5957610d59612d4c565b602090810291909101015250506001016109af565b50505b60405180606001604052808661014001516001600160a01b03168152602001836001600160a01b0316815260200182815250866040018190525060008561012001516001600160a01b03166375d264136040518163ffffffff1660e01b8152600401602060405180830381865afa158015610df0573d6000803e3d6000fd5b505050506040513d601f19601f82011682018060405250810190610e149190612c0f565b905060606001600160a01b038216156112ba57610120870151604051636657732f60e01b81526001600160a01b039182166004820152600091841690636657732f90602401600060405180830381865afa158015610e76573d6000803e3d6000fd5b505050506040513d6000823e601f3d908101601f19168201604052610e9e9190810190612c9b565b905080516001600160401b03811115610eb957610eb9612c2c565b604051908082528060200260200182016040528015610ef257816020015b610edf6126bd565b815260200190600190039081610ed75790505b50915060005b81518110156112b757610f096126bd565b828281518110610f1b57610f1b612d4c565b6020908102919091018101516001600160a01b039081169183018290526101208c0151604051630fdfe97560e31b815290821660048201526024810192909252861690637eff4ba890604401608060405180830381865afa158015610f84573d6000803e3d6000fd5b505050506040513d601f19601f82011682018060405250810190610fa89190612f0d565b60c08501526080840152606083015260a08201526101208a0151604051634f7eb7b960e11b81526001600160a01b03918216600482015290861690639efd6f7290602401602060405180830381865afa158015611009573d6000803e3d6000fd5b505050506040513d601f19601f8201168201806040525081019061102d9190612f43565b60ff166101208201526020808201516040805163313ce56760e01b815290516001600160a01b039092169263313ce567926004808401938290030181865afa15801561107d573d6000803e3d6000fd5b505050506040513d601f19601f820116820180604052508101906110a19190612f43565b81610100019060ff16908160ff168152505080602001516001600160a01b03166395d89b416040518163ffffffff1660e01b8152600401600060405180830381865afa1580156110f5573d6000803e3d6000fd5b505050506040513d6000823e601f3d908101601f1916820160405261111d9190810190612f66565b81526020810151604051630150bdfb60e51b81526001600160a01b03918216600482015290861690632a17bf6090602401602060405180830381865afa15801561116b573d6000803e3d6000fd5b505050506040513d601f19601f8201168201806040525081019061118f9190612c0f565b6001600160a01b03166040808301829052805162e19f4760e81b815290516000929163e19f47009160048083019260209291908290030181865afa1580156111db573d6000803e3d6000fd5b505050506040513d601f19601f820116820180604052508101906111ff9190612c0f565b905061120a816125c8565b60ff166101408301526040808301516020840151915163b3596f0760e01b81526001600160a01b03928316600482015291169063b3596f0790602401602060405180830381865afa158015611263573d6000803e3d6000fd5b505050506040513d601f19601f820116820180604052508101906112879190612ff0565b60e0830152845182908690859081106112a2576112a2612d4c565b60209081029190910101525050600101610ef8565b50505b6040805160608082018352610120909901516001600160a01b03908116825293909316602084015282015295909401949094525050600190920191506102219050565b50949350505050565b60606000836001600160a01b031663026b1d5f6040518163ffffffff1660e01b8152600401602060405180830381865afa158015611348573d6000803e3d6000fd5b505050506040513d601f19601f8201168201806040525081019061136c9190612c0f565b90506000816001600160a01b031663d1946dbc6040518163ffffffff1660e01b8152600401600060405180830381865afa1580156113ae573d6000803e3d6000fd5b505050506040513d6000823e601f3d908101601f191682016040526113d69190810190612c9b565b905060006001600160a01b0385166113ef5760006113f2565b81515b6001600160401b0381111561140957611409612c2c565b60405190808252806020026020018201604052801561144257816020015b61142f61262d565b8152602001906001900390816114275790505b50905060005b82518110156125be576000846001600160a01b03166335ea6a7585848151811061147457611474612d4c565b60200260200101516040518263ffffffff1660e01b81526004016114a791906001600160a01b0391909116815260200190565b6101e060405180830381865afa1580156114c5573d6000803e3d6000fd5b505050506040513d601f19601f820116820180604052508101906114e99190612dea565b90508382815181106114fd576114fd612d4c565b602002602001015183838151811061151757611517612d4c565b6020026020010151600001906001600160a01b031690816001600160a01b03168152505060008161010001516001600160a01b03166375d264136040518163ffffffff1660e01b8152600401602060405180830381865afa158015611580573d6000803e3d6000fd5b505050506040513d601f19601f820116820180604052508101906115a49190612c0f565b90506001600160a01b03811615611a9657610100820151604051636657732f60e01b81526001600160a01b039182166004820152600091831690636657732f90602401600060405180830381865afa158015611604573d6000803e3d6000fd5b505050506040513d6000823e601f3d908101601f1916820160405261162c9190810190612c9b565b9050600081516001600160401b0381111561164957611649612c2c565b60405190808252806020026020018201604052801561168257816020015b61166f612732565b8152602001906001900390816116675790505b50905060005b8251811015611a3f57611699612732565b8382815181106116ab576116ab612d4c565b60209081029190910101516001600160a01b039081166040808401829052610100890151905163299faa1560e11b81528f84166004820152908316602482015260448101919091529086169063533f542a90606401602060405180830381865afa15801561171d573d6000803e3d6000fd5b505050506040513d601f19601f820116820180604052508101906117419190612ff0565b60808201526040808201519051632c08906360e21b81526001600160a01b038e8116600483015291821660248201529086169063b022418c90604401602060405180830381865afa15801561179a573d6000803e3d6000fd5b505050506040513d601f19601f820116820180604052508101906117be9190612ff0565b81606001818152505080604001516001600160a01b031663313ce5676040518163ffffffff1660e01b8152600401602060405180830381865afa158015611809573d6000803e3d6000fd5b505050506040513d601f19601f8201168201806040525081019061182d9190612f43565b8160e0019060ff16908160ff168152505080604001516001600160a01b03166395d89b416040518163ffffffff1660e01b8152600401600060405180830381865afa158015611880573d6000803e3d6000fd5b505050506040513d6000823e601f3d908101601f191682016040526118a89190810190612f66565b81526040808201519051630150bdfb60e51b81526001600160a01b03918216600482015290861690632a17bf6090602401602060405180830381865afa1580156118f6573d6000803e3d6000fd5b505050506040513d601f19601f8201168201806040525081019061191a9190612c0f565b6001600160a01b031660208083018290526040805162e19f4760e81b815290516000939263e19f470092600480820193918290030181865afa158015611964573d6000803e3d6000fd5b505050506040513d601f19601f820116820180604052508101906119889190612c0f565b9050611993816125c8565b60ff1660c08301526020820151604080840151905163b3596f0760e01b81526001600160a01b03918216600482015291169063b3596f0790602401602060405180830381865afa1580156119eb573d6000803e3d6000fd5b505050506040513d601f19601f82011682018060405250810190611a0f9190612ff0565b60a083015283518290859085908110611a2a57611a2a612d4c565b60209081029190910101525050600101611688565b5060405180606001604052808561010001516001600160a01b03168152602001846001600160a01b0316815260200182815250868681518110611a8457611a84612d4c565b60200260200101516020018190525050505b60008261014001516001600160a01b03166375d264136040518163ffffffff1660e01b8152600401602060405180830381865afa158015611adb573d6000803e3d6000fd5b505050506040513d601f19601f82011682018060405250810190611aff9190612c0f565b90506001600160a01b0381161561201857610140830151604051636657732f60e01b81526001600160a01b039182166004820152600091831690636657732f90602401600060405180830381865afa158015611b5f573d6000803e3d6000fd5b505050506040513d6000823e601f3d908101601f19168201604052611b879190810190612c9b565b9050600081516001600160401b03811115611ba457611ba4612c2c565b604051908082528060200260200182016040528015611bdd57816020015b611bca612732565b815260200190600190039081611bc25790505b50905060005b8251811015611fc157611bf4612732565b838281518110611c0657611c06612d4c565b602002602001015181604001906001600160a01b031690816001600160a01b031681525050846001600160a01b031663533f542a8e89610140015184604001516040518463ffffffff1660e01b8152600401611c82939291906001600160a01b0393841681529183166020830152909116604082015260600190565b602060405180830381865afa158015611c9f573d6000803e3d6000fd5b505050506040513d601f19601f82011682018060405250810190611cc39190612ff0565b60808201526040808201519051632c08906360e21b81526001600160a01b038f8116600483015291821660248201529086169063b022418c90604401602060405180830381865afa158015611d1c573d6000803e3d6000fd5b505050506040513d601f19601f82011682018060405250810190611d409190612ff0565b81606001818152505080604001516001600160a01b031663313ce5676040518163ffffffff1660e01b8152600401602060405180830381865afa158015611d8b573d6000803e3d6000fd5b505050506040513d601f19601f82011682018060405250810190611daf9190612f43565b8160e0019060ff16908160ff168152505080604001516001600160a01b03166395d89b416040518163ffffffff1660e01b8152600401600060405180830381865afa158015611e02573d6000803e3d6000fd5b505050506040513d6000823e601f3d908101601f19168201604052611e2a9190810190612f66565b81526040808201519051630150bdfb60e51b81526001600160a01b03918216600482015290861690632a17bf6090602401602060405180830381865afa158015611e78573d6000803e3d6000fd5b505050506040513d601f19601f82011682018060405250810190611e9c9190612c0f565b6001600160a01b031660208083018290526040805162e19f4760e81b815290516000939263e19f470092600480820193918290030181865afa158015611ee6573d6000803e3d6000fd5b505050506040513d601f19601f82011682018060405250810190611f0a9190612c0f565b9050611f15816125c8565b60ff1660c08301526020820151604080840151905163b3596f0760e01b81526001600160a01b03918216600482015291169063b3596f0790602401602060405180830381865afa158015611f6d573d6000803e3d6000fd5b505050506040513d601f19601f82011682018060405250810190611f919190612ff0565b60a083015283518290859085908110611fac57611fac612d4c565b60209081029190910101525050600101611be3565b5060405180606001604052808661014001516001600160a01b03168152602001846001600160a01b031681526020018281525087878151811061200657612006612d4c565b60200260200101516040018190525050505b60008361012001516001600160a01b03166375d264136040518163ffffffff1660e01b8152600401602060405180830381865afa15801561205d573d6000803e3d6000fd5b505050506040513d601f19601f820116820180604052508101906120819190612c0f565b90506001600160a01b038116156125ae57610120840151604051636657732f60e01b81526001600160a01b039182166004820152600091831690636657732f90602401600060405180830381865afa1580156120e1573d6000803e3d6000fd5b505050506040513d6000823e601f3d908101601f191682016040526121099190810190612c9b565b9050600081516001600160401b0381111561212657612126612c2c565b60405190808252806020026020018201604052801561215f57816020015b61214c612732565b8152602001906001900390816121445790505b50905060005b825181101561255757612176612732565b83828151811061218857612188612d4c565b602002602001015181604001906001600160a01b031690816001600160a01b031681525050846001600160a01b031663533f542a8f8a610120015184604001516040518463ffffffff1660e01b8152600401612204939291906001600160a01b0393841681529183166020830152909116604082015260600190565b602060405180830381865afa158015612221573d6000803e3d6000fd5b505050506040513d601f19601f820116820180604052508101906122459190612ff0565b816080018181525050846001600160a01b031663b022418c8f83604001516040518363ffffffff1660e01b81526004016122959291906001600160a01b0392831681529116602082015260400190565b602060405180830381865afa1580156122b2573d6000803e3d6000fd5b505050506040513d601f19601f820116820180604052508101906122d69190612ff0565b81606001818152505080604001516001600160a01b031663313ce5676040518163ffffffff1660e01b8152600401602060405180830381865afa158015612321573d6000803e3d6000fd5b505050506040513d601f19601f820116820180604052508101906123459190612f43565b8160e0019060ff16908160ff168152505080604001516001600160a01b03166395d89b416040518163ffffffff1660e01b8152600401600060405180830381865afa158015612398573d6000803e3d6000fd5b505050506040513d6000823e601f3d908101601f191682016040526123c09190810190612f66565b81526040808201519051630150bdfb60e51b81526001600160a01b03918216600482015290861690632a17bf6090602401602060405180830381865afa15801561240e573d6000803e3d6000fd5b505050506040513d601f19601f820116820180604052508101906124329190612c0f565b6001600160a01b031660208083018290526040805162e19f4760e81b815290516000939263e19f470092600480820193918290030181865afa15801561247c573d6000803e3d6000fd5b505050506040513d601f19601f820116820180604052508101906124a09190612c0f565b90506124ab816125c8565b60ff1660c08301526020820151604080840151905163b3596f0760e01b81526001600160a01b03918216600482015291169063b3596f0790602401602060405180830381865afa158015612503573d6000803e3d6000fd5b505050506040513d601f19601f820116820180604052508101906125279190612ff0565b60a08301528351829085908590811061254257612542612d4c565b60209081029190910101525050600101612165565b5060405180606001604052808761012001516001600160a01b03168152602001846001600160a01b031681526020018281525088888151811061259c5761259c612d4c565b60200260200101516060018190525050505b5050600190920191506114489050565b5095945050505050565b60006001600160a01b038216156126255760405162461bcd60e51b815260206004820152601e60248201527f426173652063757272656e637920756e6974206d757374206265205553440000604482015260640160405180910390fd5b506008919050565b604051806080016040528060006001600160a01b0316815260200161266a6040805160608082018352600080835260208301529181019190915290565b81526020016126916040805160608082018352600080835260208301529181019190915290565b81526020016126b86040805160608082018352600080835260208301529181019190915290565b905290565b6040518061016001604052806060815260200160006001600160a01b0316815260200160006001600160a01b031681526020016000815260200160008152602001600081526020016000815260200160008152602001600060ff168152602001600060ff168152602001600060ff1681525090565b6040518061010001604052806060815260200160006001600160a01b0316815260200160006001600160a01b03168152602001600081526020016000815260200160008152602001600060ff168152602001600060ff1681525090565b6001600160a01b03811681146127a457600080fd5b50565b600080604083850312156127ba57600080fd5b82356127c58161278f565b915060208301356127d58161278f565b809150509250929050565b60005b838110156127fb5781810151838201526020016127e3565b50506000910152565b6000815180845261281c8160208601602086016127e0565b601f01601f19169290920160200192915050565b6000606080840160018060a01b03808551168652602081818701511681880152604091506040860151606060408901528381518086526080955060808a01915060808160051b8b0101848401935060005b8281101561294057607f198c8303018452845161016081518185526128a882860182612804565b915050878201516128c3898601826001600160a01b03169052565b50888201516001600160a01b0316848a01528a8201518b850152898201518a85015260a0808301519085015260c0808301519085015260e080830151908501526101008083015160ff9081169186019190915261012080840151821690860152610140928301511691909301529385019392850192600101612881565b509a9950505050505050505050565b600082825180855260208086019550808260051b84010181860160005b848110156129f157858303601f19018952815180516001600160a01b03168452848101516080868601819052906129a582870182612830565b915050604080830151868303828801526129bf8382612830565b92505050606080830151925085820381870152506129dd8183612830565b9a86019a945050509083019060010161296c565b5090979650505050505050565b6000606080840160018060a01b03808551168652602081818701511681880152604080870151606060408a01528481518087526080965060808b01915060808160051b8c0101858401935060005b82811015612adc57607f198d830301845284516101008151818552612a7382860182612804565b91505089898301511689850152898883015116888501528b8201518c8501528a8201518b85015260a080830151818601525060c080830151612ab98287018260ff169052565b505060e09182015160ff1693909101929092529386019392860192600101612a4c565b509b9a5050505050505050505050565b600082825180855260208086019550808260051b84010181860160005b848110156129f157858303601f19018952815180516001600160a01b0316845284810151608086860181905290612b42828701826129fe565b91505060408083015186830382880152612b5c83826129fe565b9250505060608083015192508582038187015250612b7a81836129fe565b9a86019a9450505090830190600101612b09565b604081526000612ba1604083018561294f565b8281036020840152612bb38185612aec565b95945050505050565b6020815260006100dd6020830184612aec565b600060208284031215612be157600080fd5b81356100dd8161278f565b6020815260006100dd602083018461294f565b8051612c0a8161278f565b919050565b600060208284031215612c2157600080fd5b81516100dd8161278f565b634e487b7160e01b600052604160045260246000fd5b6040516101e081016001600160401b0381118282101715612c6557612c65612c2c565b60405290565b604051601f8201601f191681016001600160401b0381118282101715612c9357612c93612c2c565b604052919050565b60006020808385031215612cae57600080fd5b82516001600160401b0380821115612cc557600080fd5b818501915085601f830112612cd957600080fd5b815181811115612ceb57612ceb612c2c565b8060051b9150612cfc848301612c6b565b8181529183018401918481019088841115612d1657600080fd5b938501935b83851015612d405784519250612d308361278f565b8282529385019390850190612d1b565b98975050505050505050565b634e487b7160e01b600052603260045260246000fd5b600060208284031215612d7457600080fd5b604051602081018181106001600160401b0382111715612d9657612d96612c2c565b6040529151825250919050565b80516fffffffffffffffffffffffffffffffff81168114612c0a57600080fd5b805164ffffffffff81168114612c0a57600080fd5b805161ffff81168114612c0a57600080fd5b60006101e08284031215612dfd57600080fd5b612e05612c42565b612e0f8484612d62565b8152612e1d60208401612da3565b6020820152612e2e60408401612da3565b6040820152612e3f60608401612da3565b6060820152612e5060808401612da3565b6080820152612e6160a08401612da3565b60a0820152612e7260c08401612dc3565b60c0820152612e8360e08401612dd8565b60e0820152610100612e96818501612bff565b90820152610120612ea8848201612bff565b90820152610140612eba848201612bff565b90820152610160612ecc848201612bff565b90820152610180612ede848201612da3565b908201526101a0612ef0848201612da3565b908201526101c0612f02848201612da3565b908201529392505050565b60008060008060808587031215612f2357600080fd5b505082516020840151604085015160609095015191969095509092509050565b600060208284031215612f5557600080fd5b815160ff811681146100dd57600080fd5b600060208284031215612f7857600080fd5b81516001600160401b0380821115612f8f57600080fd5b818401915084601f830112612fa357600080fd5b815181811115612fb557612fb5612c2c565b612fc8601f8201601f1916602001612c6b565b9150808252856020828501011115612fdf57600080fd5b6112fd8160208401602086016127e0565b60006020828403121561300257600080fd5b505191905056fea264697066735822122062f2e2907b53c4af1b166ec5745e99f4be116742fb679ed2bac5c59e62d1236964736f6c63430008160033",
  "devdoc": {
    "kind": "dev",
    "methods": {},
    "version": 1
  },
  "userdoc": {
    "kind": "user",
    "methods": {},
    "version": 1
  },
  "storageLayout": {
    "storage": [],
    "types": null
  }
}