{
  "address": "0x4B8DeF72439df6b3a0E0056A6A5db70D7D5032BF",
  "abi": [
    {
      "inputs": [
        {
          "internalType": "address",
          "name": "baseCurrency",
          "type": "address"
        },
        {
          "internalType": "uint256",
          "name": "_baseCurrencyUnit",
          "type": "uint256"
        }
      ],
      "stateMutability": "nonpayable",
      "type": "constructor"
    },
    {
      "inputs": [],
      "name": "AccessControlBadConfirmation",
      "type": "error"
    },
    {
      "inputs": [
        {
          "internalType": "address",
          "name": "account",
          "type": "address"
        },
        {
          "internalType": "bytes32",
          "name": "neededRole",
          "type": "bytes32"
        }
      ],
      "name": "AccessControlUnauthorizedAccount",
      "type": "error"
    },
    {
      "inputs": [
        {
          "internalType": "address",
          "name": "feed",
          "type": "address"
        },
        {
          "internalType": "uint8",
          "name": "feedDecimals",
          "type": "uint8"
        },
        {
          "internalType": "uint8",
          "name": "expectedDecimals",
          "type": "uint8"
        }
      ],
      "name": "DecimalsMismatch",
      "type": "error"
    },
    {
      "inputs": [
        {
          "internalType": "address",
          "name": "asset",
          "type": "address"
        }
      ],
      "name": "FeedNotSet",
      "type": "error"
    },
    {
      "inputs": [],
      "name": "InvalidPrice",
      "type": "error"
    },
    {
      "inputs": [],
      "name": "PriceIsStale",
      "type": "error"
    },
    {
      "anonymous": false,
      "inputs": [
        {
          "indexed": true,
          "internalType": "bytes32",
          "name": "role",
          "type": "bytes32"
        },
        {
          "indexed": true,
          "internalType": "bytes32",
          "name": "previousAdminRole",
          "type": "bytes32"
        },
        {
          "indexed": true,
          "internalType": "bytes32",
          "name": "newAdminRole",
          "type": "bytes32"
        }
      ],
      "name": "RoleAdminChanged",
      "type": "event"
    },
    {
      "anonymous": false,
      "inputs": [
        {
          "indexed": true,
          "internalType": "bytes32",
          "name": "role",
          "type": "bytes32"
        },
        {
          "indexed": true,
          "internalType": "address",
          "name": "account",
          "type": "address"
        },
        {
          "indexed": true,
          "internalType": "address",
          "name": "sender",
          "type": "address"
        }
      ],
      "name": "RoleGranted",
      "type": "event"
    },
    {
      "anonymous": false,
      "inputs": [
        {
          "indexed": true,
          "internalType": "bytes32",
          "name": "role",
          "type": "bytes32"
        },
        {
          "indexed": true,
          "internalType": "address",
          "name": "account",
          "type": "address"
        },
        {
          "indexed": true,
          "internalType": "address",
          "name": "sender",
          "type": "address"
        }
      ],
      "name": "RoleRevoked",
      "type": "event"
    },
    {
      "inputs": [],
      "name": "BASE_CURRENCY",
      "outputs": [
        {
          "internalType": "address",
          "name": "",
          "type": "address"
        }
      ],
      "stateMutability": "view",
      "type": "function"
    },
    {
      "inputs": [],
      "name": "BASE_CURRENCY_DECIMALS",
      "outputs": [
        {
          "internalType": "uint8",
          "name": "",
          "type": "uint8"
        }
      ],
      "stateMutability": "view",
      "type": "function"
    },
    {
      "inputs": [],
      "name": "BASE_CURRENCY_UNIT",
      "outputs": [
        {
          "internalType": "uint256",
          "name": "",
          "type": "uint256"
        }
      ],
      "stateMutability": "view",
      "type": "function"
    },
    {
      "inputs": [],
      "name": "DEFAULT_ADMIN_ROLE",
      "outputs": [
        {
          "internalType": "bytes32",
          "name": "",
          "type": "bytes32"
        }
      ],
      "stateMutability": "view",
      "type": "function"
    },
    {
      "inputs": [],
      "name": "LIQUITY_V2_BASE_CURRENCY_UNIT",
      "outputs": [
        {
          "internalType": "uint256",
          "name": "",
          "type": "uint256"
        }
      ],
      "stateMutability": "view",
      "type": "function"
    },
    {
      "inputs": [],
      "name": "ORACLE_MANAGER_ROLE",
      "outputs": [
        {
          "internalType": "bytes32",
          "name": "",
          "type": "bytes32"
        }
      ],
      "stateMutability": "view",
      "type": "function"
    },
    {
      "inputs": [
        {
          "internalType": "address",
          "name": "",
          "type": "address"
        }
      ],
      "name": "assetToFeed",
      "outputs": [
        {
          "internalType": "contract LiquityV2OracleAggregatorV3Interface",
          "name": "",
          "type": "address"
        }
      ],
      "stateMutability": "view",
      "type": "function"
    },
    {
      "inputs": [],
      "name": "feedHeartbeat",
      "outputs": [
        {
          "internalType": "uint256",
          "name": "",
          "type": "uint256"
        }
      ],
      "stateMutability": "view",
      "type": "function"
    },
    {
      "inputs": [
        {
          "internalType": "address",
          "name": "asset",
          "type": "address"
        }
      ],
      "name": "getAssetPrice",
      "outputs": [
        {
          "internalType": "uint256",
          "name": "",
          "type": "uint256"
        }
      ],
      "stateMutability": "view",
      "type": "function"
    },
    {
      "inputs": [
        {
          "internalType": "address",
          "name": "asset",
          "type": "address"
        }
      ],
      "name": "getPriceInfo",
      "outputs": [
        {
          "internalType": "uint256",
          "name": "price",
          "type": "uint256"
        },
        {
          "internalType": "bool",
          "name": "isAlive",
          "type": "bool"
        }
      ],
      "stateMutability": "view",
      "type": "function"
    },
    {
      "inputs": [
        {
          "internalType": "bytes32",
          "name": "role",
          "type": "bytes32"
        }
      ],
      "name": "getRoleAdmin",
      "outputs": [
        {
          "internalType": "bytes32",
          "name": "",
          "type": "bytes32"
        }
      ],
      "stateMutability": "view",
      "type": "function"
    },
    {
      "inputs": [
        {
          "internalType": "bytes32",
          "name": "role",
          "type": "bytes32"
        },
        {
          "internalType": "address",
          "name": "account",
          "type": "address"
        }
      ],
      "name": "grantRole",
      "outputs": [],
      "stateMutability": "nonpayable",
      "type": "function"
    },
    {
      "inputs": [
        {
          "internalType": "bytes32",
          "name": "role",
          "type": "bytes32"
        },
        {
          "internalType": "address",
          "name": "account",
          "type": "address"
        }
      ],
      "name": "hasRole",
      "outputs": [
        {
          "internalType": "bool",
          "name": "",
          "type": "bool"
        }
      ],
      "stateMutability": "view",
      "type": "function"
    },
    {
      "inputs": [],
      "name": "heartbeatStaleTimeLimit",
      "outputs": [
        {
          "internalType": "uint256",
          "name": "",
          "type": "uint256"
        }
      ],
      "stateMutability": "view",
      "type": "function"
    },
    {
      "inputs": [
        {
          "internalType": "bytes32",
          "name": "role",
          "type": "bytes32"
        },
        {
          "internalType": "address",
          "name": "callerConfirmation",
          "type": "address"
        }
      ],
      "name": "renounceRole",
      "outputs": [],
      "stateMutability": "nonpayable",
      "type": "function"
    },
    {
      "inputs": [
        {
          "internalType": "bytes32",
          "name": "role",
          "type": "bytes32"
        },
        {
          "internalType": "address",
          "name": "account",
          "type": "address"
        }
      ],
      "name": "revokeRole",
      "outputs": [],
      "stateMutability": "nonpayable",
      "type": "function"
    },
    {
      "inputs": [
        {
          "internalType": "address",
          "name": "asset",
          "type": "address"
        },
        {
          "internalType": "address",
          "name": "feed",
          "type": "address"
        }
      ],
      "name": "setFeed",
      "outputs": [],
      "stateMutability": "nonpayable",
      "type": "function"
    },
    {
      "inputs": [
        {
          "internalType": "uint256",
          "name": "_newHeartbeat",
          "type": "uint256"
        }
      ],
      "name": "setFeedHeartbeat",
      "outputs": [],
      "stateMutability": "nonpayable",
      "type": "function"
    },
    {
      "inputs": [
        {
          "internalType": "uint256",
          "name": "_newHeartbeatStaleTimeLimit",
          "type": "uint256"
        }
      ],
      "name": "setHeartbeatStaleTimeLimit",
      "outputs": [],
      "stateMutability": "nonpayable",
      "type": "function"
    },
    {
      "inputs": [
        {
          "internalType": "bytes4",
          "name": "interfaceId",
          "type": "bytes4"
        }
      ],
      "name": "supportsInterface",
      "outputs": [
        {
          "internalType": "bool",
          "name": "",
          "type": "bool"
        }
      ],
      "stateMutability": "view",
      "type": "function"
    }
  ],
  "transactionHash": "0xe343bdd890ed5d4c6302a18c625818184f63e96385551aa8c274ea548b2fcf9b",
  "args": [
    "0x0000000000000000000000000000000000000000",
    "1000000000000000000"
  ],
  "numDeployments": 1,
  "solcInputHash": "f86342f0edd701fef3dda6d37598d6e9",
  "bytecode": "0x60c06040526201518060015561070860025534801561001d57600080fd5b50604051610c01380380610c0183398101604081905261003c9161013c565b6001600160a01b03821660805260a0819052818161005b600033610090565b506100867fced6982f480260bdd8ad5cb18ff2854f0306d78d904ad6cc107e8f3a0f526c1833610090565b5050505050610176565b6000828152602081815260408083206001600160a01b038516845290915281205460ff16610132576000838152602081815260408083206001600160a01b03861684529091529020805460ff191660011790556100ea3390565b6001600160a01b0316826001600160a01b0316847f2f8788117e7eff1d82e926ec794901d17c78024a50270940304540a733656f0d60405160405180910390a4506001610136565b5060005b92915050565b6000806040838503121561014f57600080fd5b82516001600160a01b038116811461016657600080fd5b6020939093015192949293505050565b60805160a051610a5f6101a26000396000818161020f01526107d7015260006102c40152610a5f6000f3fe608060405234801561001057600080fd5b506004361061012c5760003560e01c80638edbf436116100ad578063c5efe27c11610071578063c5efe27c1461029c578063d547741f146102af578063e19f4700146102c2578063e6741de2146102fc578063fc1bc9031461032557600080fd5b80638edbf4361461023157806391d1485414610259578063a217fddf1461026c578063b3596f0714610274578063bfc69e1c1461028757600080fd5b8063311d5c62116100f4578063311d5c62146101b757806336568abe146101d157806340b1eb10146101e45780634bafe065146101f75780638c89b64f1461020a57600080fd5b806301ffc9a71461013157806308f7bfe114610159578063248a9ca3146101765780632ecac6fc146101995780632f2ff15d146101a2575b600080fd5b61014461013f366004610843565b61032e565b60405190151581526020015b60405180910390f35b610168670de0b6b3a764000081565b604051908152602001610150565b610168610184366004610874565b60009081526020819052604090206001015490565b61016860025481565b6101b56101b03660046108a9565b610365565b005b6101bf601281565b60405160ff9091168152602001610150565b6101b56101df3660046108a9565b610390565b6101b56101f23660046108d5565b6103c8565b6101b5610205366004610874565b6104f3565b6101687f000000000000000000000000000000000000000000000000000000000000000081565b61024461023f3660046108ff565b610511565b60408051928352901515602083015201610150565b6101446102673660046108a9565b61061a565b610168600081565b6101686102823660046108ff565b610643565b610168600080516020610a0a83398151915281565b6101b56102aa366004610874565b61067a565b6101b56102bd3660046108a9565b610698565b7f00000000000000000000000000000000000000000000000000000000000000005b6040516001600160a01b039091168152602001610150565b6102e461030a3660046108ff565b6003602052600090815260409020546001600160a01b031681565b61016860015481565b60006001600160e01b03198216637965db0b60e01b148061035f57506301ffc9a760e01b6001600160e01b03198316145b92915050565b600082815260208190526040902060010154610380816106bd565b61038a83836106ca565b50505050565b6001600160a01b03811633146103b95760405163334bd91960e11b815260040160405180910390fd5b6103c3828261075c565b505050565b600080516020610a0a8339815191526103e0816106bd565b6001600160a01b03821661041757604051630dcaf86b60e01b81526001600160a01b03841660048201526024015b60405180910390fd5b60008290506000816001600160a01b031663313ce5676040518163ffffffff1660e01b8152600401602060405180830381865afa15801561045c573d6000803e3d6000fd5b505050506040513d601f19601f82011682018060405250810190610480919061091a565b905060ff81166012146104c1576040516385d6e41f60e01b81526001600160a01b038516600482015260ff821660248201526012604482015260640161040e565b506001600160a01b03938416600090815260036020526040902080546001600160a01b03191691909416179092555050565b600080516020610a0a83398151915261050b816106bd565b50600155565b6001600160a01b0380821660009081526003602052604081205490918291168061055957604051630dcaf86b60e01b81526001600160a01b038516600482015260240161040e565b600080826001600160a01b031663feaf968c6040518163ffffffff1660e01b815260040160a060405180830381865afa15801561059a573d6000803e3d6000fd5b505050506040513d601f19601f820116820180604052508101906105be9190610957565b50935050925050600082136105e55760405162bfc92160e01b815260040160405180910390fd5b81945042600254600154836105fa91906109bd565b61060491906109bd565b119350610610856107c7565b9450505050915091565b6000918252602082815260408084206001600160a01b0393909316845291905290205460ff1690565b600080600061065184610511565b9150915080610673576040516342bc305b60e11b815260040160405180910390fd5b5092915050565b600080516020610a0a833981519152610692816106bd565b50600255565b6000828152602081905260409020600101546106b3816106bd565b61038a838361075c565b6106c78133610806565b50565b60006106d6838361061a565b610754576000838152602081815260408083206001600160a01b03861684529091529020805460ff1916600117905561070c3390565b6001600160a01b0316826001600160a01b0316847f2f8788117e7eff1d82e926ec794901d17c78024a50270940304540a733656f0d60405160405180910390a450600161035f565b50600061035f565b6000610768838361061a565b15610754576000838152602081815260408083206001600160a01b0386168085529252808320805460ff1916905551339286917ff6391f5c32d9c69d2a47ea670b442974b53935d1edc7fd64eb21e047a839171b9190a450600161035f565b6000670de0b6b3a76400006107fc7f0000000000000000000000000000000000000000000000000000000000000000846109d0565b61035f91906109e7565b610810828261061a565b61083f5760405163e2517d3f60e01b81526001600160a01b03821660048201526024810183905260440161040e565b5050565b60006020828403121561085557600080fd5b81356001600160e01b03198116811461086d57600080fd5b9392505050565b60006020828403121561088657600080fd5b5035919050565b80356001600160a01b03811681146108a457600080fd5b919050565b600080604083850312156108bc57600080fd5b823591506108cc6020840161088d565b90509250929050565b600080604083850312156108e857600080fd5b6108f18361088d565b91506108cc6020840161088d565b60006020828403121561091157600080fd5b61086d8261088d565b60006020828403121561092c57600080fd5b815160ff8116811461086d57600080fd5b805169ffffffffffffffffffff811681146108a457600080fd5b600080600080600060a0868803121561096f57600080fd5b6109788661093d565b945060208601519350604086015192506060860151915061099b6080870161093d565b90509295509295909350565b634e487b7160e01b600052601160045260246000fd5b8082018082111561035f5761035f6109a7565b808202811582820484141761035f5761035f6109a7565b600082610a0457634e487b7160e01b600052601260045260246000fd5b50049056feced6982f480260bdd8ad5cb18ff2854f0306d78d904ad6cc107e8f3a0f526c18a2646970667358221220eed7e24a2e2da31db45734842263f4fab9b6b6f986296f267abcea319bda297864736f6c63430008160033",
  "devdoc": {
    "details": "Implementation of BaseLiquityV2Wrapper for Tellor oracle feeds Uses Chainlink-like interface (LiquityV2OracleAggregatorV3Interface) to read prices directly from feeds",
    "errors": {
      "AccessControlBadConfirmation()": [
        {
          "details": "The caller of a function is not the expected one. NOTE: Don't confuse with {AccessControlUnauthorizedAccount}."
        }
      ],
      "AccessControlUnauthorizedAccount(address,bytes32)": [
        {
          "details": "The `account` is missing a role."
        }
      ]
    },
    "events": {
      "RoleAdminChanged(bytes32,bytes32,bytes32)": {
        "details": "Emitted when `newAdminRole` is set as ``role``'s admin role, replacing `previousAdminRole` `DEFAULT_ADMIN_ROLE` is the starting admin for all roles, despite {RoleAdminChanged} not being emitted to signal this."
      },
      "RoleGranted(bytes32,address,address)": {
        "details": "Emitted when `account` is granted `role`. `sender` is the account that originated the contract call. This account bears the admin role (for the granted role). Expected in cases where the role was granted using the internal {AccessControl-_grantRole}."
      },
      "RoleRevoked(bytes32,address,address)": {
        "details": "Emitted when `account` is revoked `role`. `sender` is the account that originated the contract call:   - if using `revokeRole`, it is the admin role bearer   - if using `renounceRole`, it is the role bearer (i.e. `account`)"
      }
    },
    "kind": "dev",
    "methods": {
      "BASE_CURRENCY()": {
        "returns": {
          "_0": "Returns the base currency address"
        }
      },
      "getAssetPrice(address)": {
        "params": {
          "asset": "The address of the asset to get the price for"
        },
        "returns": {
          "_0": "The current price of the asset"
        }
      },
      "getPriceInfo(address)": {
        "details": "Reads price directly from Chainlink-like feed using latestRoundData()",
        "params": {
          "asset": "The address of the asset to get the price for"
        },
        "returns": {
          "isAlive": "Whether the price feed is considered active/valid",
          "price": "The price of the asset in base currency units"
        }
      },
      "getRoleAdmin(bytes32)": {
        "details": "Returns the admin role that controls `role`. See {grantRole} and {revokeRole}. To change a role's admin, use {_setRoleAdmin}."
      },
      "grantRole(bytes32,address)": {
        "details": "Grants `role` to `account`. If `account` had not been already granted `role`, emits a {RoleGranted} event. Requirements: - the caller must have ``role``'s admin role. May emit a {RoleGranted} event."
      },
      "hasRole(bytes32,address)": {
        "details": "Returns `true` if `account` has been granted `role`."
      },
      "renounceRole(bytes32,address)": {
        "details": "Revokes `role` from the calling account. Roles are often managed via {grantRole} and {revokeRole}: this function's purpose is to provide a mechanism for accounts to lose their privileges if they are compromised (such as when a trusted device is misplaced). If the calling account had been revoked `role`, emits a {RoleRevoked} event. Requirements: - the caller must be `callerConfirmation`. May emit a {RoleRevoked} event."
      },
      "revokeRole(bytes32,address)": {
        "details": "Revokes `role` from `account`. If `account` had been granted `role`, emits a {RoleRevoked} event. Requirements: - the caller must have ``role``'s admin role. May emit a {RoleRevoked} event."
      },
      "setFeed(address,address)": {
        "details": "Validates that the feed is not zero address and that feed decimals match the base currency decimals",
        "params": {
          "asset": "The address of the asset",
          "feed": "The address of the Tellor oracle feed implementing LiquityV2OracleAggregatorV3Interface"
        }
      },
      "setFeedHeartbeat(uint256)": {
        "params": {
          "_newHeartbeat": "The new heartbeat duration in seconds"
        }
      },
      "setHeartbeatStaleTimeLimit(uint256)": {
        "params": {
          "_newHeartbeatStaleTimeLimit": "The new heartbeat stale time limit"
        }
      },
      "supportsInterface(bytes4)": {
        "details": "Returns true if this contract implements the interface defined by `interfaceId`. See the corresponding https://eips.ethereum.org/EIPS/eip-165#how-interfaces-are-identified[ERC section] to learn more about how these ids are created. This function call must use less than 30 000 gas."
      }
    },
    "title": "TellorWrapper",
    "version": 1
  },
  "userdoc": {
    "kind": "user",
    "methods": {
      "BASE_CURRENCY()": {
        "notice": "Returns the base currency address"
      },
      "BASE_CURRENCY_UNIT()": {
        "notice": "Returns the base currency unit"
      },
      "assetToFeed(address)": {
        "notice": "Mapping from asset address to Chainlink-like feed"
      },
      "getAssetPrice(address)": {
        "notice": "Gets the current price of an asset"
      },
      "getPriceInfo(address)": {
        "notice": "Gets the price information for an asset"
      },
      "setFeed(address,address)": {
        "notice": "Sets the Tellor oracle feed for an asset"
      },
      "setFeedHeartbeat(uint256)": {
        "notice": "Sets the price feed heartbeat duration"
      },
      "setHeartbeatStaleTimeLimit(uint256)": {
        "notice": "Sets the heartbeat stale time limit"
      }
    },
    "version": 1
  },
  "storageLayout": {
    "storage": [
      {
        "astId": 27,
        "contract": "contracts/oracle_aggregator/wrapper/TellorWrapper.sol:TellorWrapper",
        "label": "_roles",
        "offset": 0,
        "slot": "0",
        "type": "t_mapping(t_bytes32,t_struct(RoleData)22_storage)"
      },
      {
        "astId": 1084,
        "contract": "contracts/oracle_aggregator/wrapper/TellorWrapper.sol:TellorWrapper",
        "label": "feedHeartbeat",
        "offset": 0,
        "slot": "1",
        "type": "t_uint256"
      },
      {
        "astId": 1091,
        "contract": "contracts/oracle_aggregator/wrapper/TellorWrapper.sol:TellorWrapper",
        "label": "heartbeatStaleTimeLimit",
        "offset": 0,
        "slot": "2",
        "type": "t_uint256"
      },
      {
        "astId": 1713,
        "contract": "contracts/oracle_aggregator/wrapper/TellorWrapper.sol:TellorWrapper",
        "label": "assetToFeed",
        "offset": 0,
        "slot": "3",
        "type": "t_mapping(t_address,t_contract(LiquityV2OracleAggregatorV3Interface)1255)"
      }
    ],
    "types": {
      "t_address": {
        "encoding": "inplace",
        "label": "address",
        "numberOfBytes": "20"
      },
      "t_bool": {
        "encoding": "inplace",
        "label": "bool",
        "numberOfBytes": "1"
      },
      "t_bytes32": {
        "encoding": "inplace",
        "label": "bytes32",
        "numberOfBytes": "32"
      },
      "t_contract(LiquityV2OracleAggregatorV3Interface)1255": {
        "encoding": "inplace",
        "label": "contract LiquityV2OracleAggregatorV3Interface",
        "numberOfBytes": "20"
      },
      "t_mapping(t_address,t_bool)": {
        "encoding": "mapping",
        "key": "t_address",
        "label": "mapping(address => bool)",
        "numberOfBytes": "32",
        "value": "t_bool"
      },
      "t_mapping(t_address,t_contract(LiquityV2OracleAggregatorV3Interface)1255)": {
        "encoding": "mapping",
        "key": "t_address",
        "label": "mapping(address => contract LiquityV2OracleAggregatorV3Interface)",
        "numberOfBytes": "32",
        "value": "t_contract(LiquityV2OracleAggregatorV3Interface)1255"
      },
      "t_mapping(t_bytes32,t_struct(RoleData)22_storage)": {
        "encoding": "mapping",
        "key": "t_bytes32",
        "label": "mapping(bytes32 => struct AccessControl.RoleData)",
        "numberOfBytes": "32",
        "value": "t_struct(RoleData)22_storage"
      },
      "t_struct(RoleData)22_storage": {
        "encoding": "inplace",
        "label": "struct AccessControl.RoleData",
        "members": [
          {
            "astId": 19,
            "contract": "contracts/oracle_aggregator/wrapper/TellorWrapper.sol:TellorWrapper",
            "label": "hasRole",
            "offset": 0,
            "slot": "0",
            "type": "t_mapping(t_address,t_bool)"
          },
          {
            "astId": 21,
            "contract": "contracts/oracle_aggregator/wrapper/TellorWrapper.sol:TellorWrapper",
            "label": "adminRole",
            "offset": 0,
            "slot": "1",
            "type": "t_bytes32"
          }
        ],
        "numberOfBytes": "64"
      },
      "t_uint256": {
        "encoding": "inplace",
        "label": "uint256",
        "numberOfBytes": "32"
      }
    }
  }
}