{
  "address": "0xAe910cFE5A0708BcD87D4274FBBE15e093c14E89",
  "abi": [
    {
      "inputs": [
        {
          "internalType": "address",
          "name": "baseCurrency",
          "type": "address"
        },
        {
          "internalType": "uint256",
          "name": "_baseCurrencyUnit",
          "type": "uint256"
        }
      ],
      "stateMutability": "nonpayable",
      "type": "constructor"
    },
    {
      "inputs": [],
      "name": "AccessControlBadConfirmation",
      "type": "error"
    },
    {
      "inputs": [
        {
          "internalType": "address",
          "name": "account",
          "type": "address"
        },
        {
          "internalType": "bytes32",
          "name": "neededRole",
          "type": "bytes32"
        }
      ],
      "name": "AccessControlUnauthorizedAccount",
      "type": "error"
    },
    {
      "inputs": [
        {
          "internalType": "address",
          "name": "asset",
          "type": "address"
        }
      ],
      "name": "FeedNotSet",
      "type": "error"
    },
    {
      "inputs": [],
      "name": "InvalidPrice",
      "type": "error"
    },
    {
      "inputs": [],
      "name": "PriceIsStale",
      "type": "error"
    },
    {
      "anonymous": false,
      "inputs": [
        {
          "indexed": true,
          "internalType": "bytes32",
          "name": "role",
          "type": "bytes32"
        },
        {
          "indexed": true,
          "internalType": "bytes32",
          "name": "previousAdminRole",
          "type": "bytes32"
        },
        {
          "indexed": true,
          "internalType": "bytes32",
          "name": "newAdminRole",
          "type": "bytes32"
        }
      ],
      "name": "RoleAdminChanged",
      "type": "event"
    },
    {
      "anonymous": false,
      "inputs": [
        {
          "indexed": true,
          "internalType": "bytes32",
          "name": "role",
          "type": "bytes32"
        },
        {
          "indexed": true,
          "internalType": "address",
          "name": "account",
          "type": "address"
        },
        {
          "indexed": true,
          "internalType": "address",
          "name": "sender",
          "type": "address"
        }
      ],
      "name": "RoleGranted",
      "type": "event"
    },
    {
      "anonymous": false,
      "inputs": [
        {
          "indexed": true,
          "internalType": "bytes32",
          "name": "role",
          "type": "bytes32"
        },
        {
          "indexed": true,
          "internalType": "address",
          "name": "account",
          "type": "address"
        },
        {
          "indexed": true,
          "internalType": "address",
          "name": "sender",
          "type": "address"
        }
      ],
      "name": "RoleRevoked",
      "type": "event"
    },
    {
      "anonymous": false,
      "inputs": [
        {
          "indexed": true,
          "internalType": "address",
          "name": "asset",
          "type": "address"
        }
      ],
      "name": "ThresholdConfigRemoved",
      "type": "event"
    },
    {
      "anonymous": false,
      "inputs": [
        {
          "indexed": true,
          "internalType": "address",
          "name": "asset",
          "type": "address"
        },
        {
          "indexed": false,
          "internalType": "uint256",
          "name": "lowerThresholdInBase",
          "type": "uint256"
        },
        {
          "indexed": false,
          "internalType": "uint256",
          "name": "fixedPriceInBase",
          "type": "uint256"
        }
      ],
      "name": "ThresholdConfigSet",
      "type": "event"
    },
    {
      "inputs": [],
      "name": "BASE_CURRENCY",
      "outputs": [
        {
          "internalType": "address",
          "name": "",
          "type": "address"
        }
      ],
      "stateMutability": "view",
      "type": "function"
    },
    {
      "inputs": [],
      "name": "BASE_CURRENCY_UNIT",
      "outputs": [
        {
          "internalType": "uint256",
          "name": "",
          "type": "uint256"
        }
      ],
      "stateMutability": "view",
      "type": "function"
    },
    {
      "inputs": [],
      "name": "CHAINLINK_BASE_CURRENCY_UNIT",
      "outputs": [
        {
          "internalType": "uint256",
          "name": "",
          "type": "uint256"
        }
      ],
      "stateMutability": "view",
      "type": "function"
    },
    {
      "inputs": [],
      "name": "CHAINLINK_HEARTBEAT",
      "outputs": [
        {
          "internalType": "uint256",
          "name": "",
          "type": "uint256"
        }
      ],
      "stateMutability": "view",
      "type": "function"
    },
    {
      "inputs": [],
      "name": "DEFAULT_ADMIN_ROLE",
      "outputs": [
        {
          "internalType": "bytes32",
          "name": "",
          "type": "bytes32"
        }
      ],
      "stateMutability": "view",
      "type": "function"
    },
    {
      "inputs": [],
      "name": "ORACLE_MANAGER_ROLE",
      "outputs": [
        {
          "internalType": "bytes32",
          "name": "",
          "type": "bytes32"
        }
      ],
      "stateMutability": "view",
      "type": "function"
    },
    {
      "inputs": [
        {
          "internalType": "address",
          "name": "",
          "type": "address"
        }
      ],
      "name": "assetThresholds",
      "outputs": [
        {
          "internalType": "uint256",
          "name": "lowerThresholdInBase",
          "type": "uint256"
        },
        {
          "internalType": "uint256",
          "name": "fixedPriceInBase",
          "type": "uint256"
        }
      ],
      "stateMutability": "view",
      "type": "function"
    },
    {
      "inputs": [
        {
          "internalType": "address",
          "name": "",
          "type": "address"
        }
      ],
      "name": "assetToFeed",
      "outputs": [
        {
          "internalType": "contract IPriceFeed",
          "name": "",
          "type": "address"
        }
      ],
      "stateMutability": "view",
      "type": "function"
    },
    {
      "inputs": [
        {
          "internalType": "address",
          "name": "asset",
          "type": "address"
        }
      ],
      "name": "getAssetPrice",
      "outputs": [
        {
          "internalType": "uint256",
          "name": "",
          "type": "uint256"
        }
      ],
      "stateMutability": "view",
      "type": "function"
    },
    {
      "inputs": [
        {
          "internalType": "address",
          "name": "asset",
          "type": "address"
        }
      ],
      "name": "getPriceInfo",
      "outputs": [
        {
          "internalType": "uint256",
          "name": "price",
          "type": "uint256"
        },
        {
          "internalType": "bool",
          "name": "isAlive",
          "type": "bool"
        }
      ],
      "stateMutability": "view",
      "type": "function"
    },
    {
      "inputs": [
        {
          "internalType": "bytes32",
          "name": "role",
          "type": "bytes32"
        }
      ],
      "name": "getRoleAdmin",
      "outputs": [
        {
          "internalType": "bytes32",
          "name": "",
          "type": "bytes32"
        }
      ],
      "stateMutability": "view",
      "type": "function"
    },
    {
      "inputs": [
        {
          "internalType": "bytes32",
          "name": "role",
          "type": "bytes32"
        },
        {
          "internalType": "address",
          "name": "account",
          "type": "address"
        }
      ],
      "name": "grantRole",
      "outputs": [],
      "stateMutability": "nonpayable",
      "type": "function"
    },
    {
      "inputs": [
        {
          "internalType": "bytes32",
          "name": "role",
          "type": "bytes32"
        },
        {
          "internalType": "address",
          "name": "account",
          "type": "address"
        }
      ],
      "name": "hasRole",
      "outputs": [
        {
          "internalType": "bool",
          "name": "",
          "type": "bool"
        }
      ],
      "stateMutability": "view",
      "type": "function"
    },
    {
      "inputs": [],
      "name": "heartbeatStaleTimeLimit",
      "outputs": [
        {
          "internalType": "uint256",
          "name": "",
          "type": "uint256"
        }
      ],
      "stateMutability": "view",
      "type": "function"
    },
    {
      "inputs": [
        {
          "internalType": "address",
          "name": "asset",
          "type": "address"
        }
      ],
      "name": "removeThresholdConfig",
      "outputs": [],
      "stateMutability": "nonpayable",
      "type": "function"
    },
    {
      "inputs": [
        {
          "internalType": "bytes32",
          "name": "role",
          "type": "bytes32"
        },
        {
          "internalType": "address",
          "name": "callerConfirmation",
          "type": "address"
        }
      ],
      "name": "renounceRole",
      "outputs": [],
      "stateMutability": "nonpayable",
      "type": "function"
    },
    {
      "inputs": [
        {
          "internalType": "bytes32",
          "name": "role",
          "type": "bytes32"
        },
        {
          "internalType": "address",
          "name": "account",
          "type": "address"
        }
      ],
      "name": "revokeRole",
      "outputs": [],
      "stateMutability": "nonpayable",
      "type": "function"
    },
    {
      "inputs": [
        {
          "internalType": "address",
          "name": "asset",
          "type": "address"
        },
        {
          "internalType": "address",
          "name": "feed",
          "type": "address"
        }
      ],
      "name": "setFeed",
      "outputs": [],
      "stateMutability": "nonpayable",
      "type": "function"
    },
    {
      "inputs": [
        {
          "internalType": "uint256",
          "name": "_newHeartbeatStaleTimeLimit",
          "type": "uint256"
        }
      ],
      "name": "setHeartbeatStaleTimeLimit",
      "outputs": [],
      "stateMutability": "nonpayable",
      "type": "function"
    },
    {
      "inputs": [
        {
          "internalType": "address",
          "name": "asset",
          "type": "address"
        },
        {
          "internalType": "uint256",
          "name": "lowerThresholdInBase",
          "type": "uint256"
        },
        {
          "internalType": "uint256",
          "name": "fixedPriceInBase",
          "type": "uint256"
        }
      ],
      "name": "setThresholdConfig",
      "outputs": [],
      "stateMutability": "nonpayable",
      "type": "function"
    },
    {
      "inputs": [
        {
          "internalType": "bytes4",
          "name": "interfaceId",
          "type": "bytes4"
        }
      ],
      "name": "supportsInterface",
      "outputs": [
        {
          "internalType": "bool",
          "name": "",
          "type": "bool"
        }
      ],
      "stateMutability": "view",
      "type": "function"
    }
  ],
  "transactionHash": "0x56c556937af4d101f5fe433f19231e4cf3e377749ae5e5841685cd9b4895c4d0",
  "args": [
    "0x0000000000000000000000000000000000000000",
    "1000000000000000000"
  ],
  "numDeployments": 1,
  "solcInputHash": "3119f14c142cd6db245e027e6458c4b3",
  "bytecode": "0x60c060405261070860015534801561001657600080fd5b50604051610cc1380380610cc183398101604081905261003591610139565b6001600160a01b03821660805260a08190528181818161005660003361008d565b506100817fced6982f480260bdd8ad5cb18ff2854f0306d78d904ad6cc107e8f3a0f526c183361008d565b50505050505050610173565b6000828152602081815260408083206001600160a01b038516845290915281205460ff1661012f576000838152602081815260408083206001600160a01b03861684529091529020805460ff191660011790556100e73390565b6001600160a01b0316826001600160a01b0316847f2f8788117e7eff1d82e926ec794901d17c78024a50270940304540a733656f0d60405160405180910390a4506001610133565b5060005b92915050565b6000806040838503121561014c57600080fd5b82516001600160a01b038116811461016357600080fd5b6020939093015192949293505050565b60805160a051610b2261019f600039600081816101f101526108c7015260006102ff0152610b226000f3fe608060405234801561001057600080fd5b50600436106101375760003560e01c806391d14854116100b8578063bfc69e1c1161007c578063bfc69e1c146102c2578063c5efe27c146102d7578063d547741f146102ea578063e19f4700146102fd578063e6741de214610337578063eae06eec1461036057600080fd5b806391d148541461024e5780639a999d4514610261578063a217fddf1461026b578063a794d15214610273578063b3596f07146102af57600080fd5b806336568abe116100ff57806336568abe146101c657806340b1eb10146101d95780638c89b64f146101ec5780638edbf436146102135780638f7af4211461023b57600080fd5b806301ffc9a71461013c578063042818f914610164578063248a9ca3146101795780632ecac6fc146101aa5780632f2ff15d146101b3575b600080fd5b61014f61014a3660046108f6565b61036b565b60405190151581526020015b60405180910390f35b610177610172366004610943565b6103a2565b005b61019c61018736600461095e565b60009081526020819052604090206001015490565b60405190815260200161015b565b61019c60015481565b6101776101c1366004610977565b610405565b6101776101d4366004610977565b610430565b6101776101e73660046109a3565b610468565b61019c7f000000000000000000000000000000000000000000000000000000000000000081565b610226610221366004610943565b6104af565b6040805192835290151560208301520161015b565b6101776102493660046109cd565b610515565b61014f61025c366004610977565b6105a4565b61019c6201518081565b61019c600081565b61029a610281366004610943565b6003602052600090815260409020805460019091015482565b6040805192835260208301919091520161015b565b61019c6102bd366004610943565b6105cd565b61019c600080516020610acd83398151915281565b6101776102e536600461095e565b610604565b6101776102f8366004610977565b610622565b7f00000000000000000000000000000000000000000000000000000000000000005b6040516001600160a01b03909116815260200161015b565b61031f610345366004610943565b6002602052600090815260409020546001600160a01b031681565b61019c6305f5e10081565b60006001600160e01b03198216637965db0b60e01b148061039c57506301ffc9a760e01b6001600160e01b03198316145b92915050565b600080516020610acd8339815191526103ba81610647565b6001600160a01b038216600081815260036020526040808220828155600101829055517fe33ca422cb32fc509d95272b11d42c89c665a8968c21a483226b773e18c072f19190a25050565b60008281526020819052604090206001015461042081610647565b61042a8383610654565b50505050565b6001600160a01b03811633146104595760405163334bd91960e11b815260040160405180910390fd5b61046382826106e6565b505050565b600080516020610acd83398151915261048081610647565b506001600160a01b03918216600090815260026020526040902080546001600160a01b03191691909216179055565b6000806104bb83610751565b90925090508015610510576001600160a01b03831660009081526003602090815260409182902082518084019093528054808452600190910154918301919091521561050e5761050b8382610860565b92505b505b915091565b600080516020610acd83398151915261052d81610647565b60408051808201825284815260208082018581526001600160a01b038816600081815260038452859020935184559051600190930192909255825186815290810185905290917fc7f1785f536ea381a57caaf882172a5df51535dc45cf06657813919e3cf535e3910160405180910390a250505050565b6000918252602082815260408084206001600160a01b0393909316845291905290205460ff1690565b60008060006105db846104af565b91509150806105fd576040516342bc305b60e11b815260040160405180910390fd5b5092915050565b600080516020610acd83398151915261061c81610647565b50600155565b60008281526020819052604090206001015461063d81610647565b61042a83836106e6565b610651813361087e565b50565b600061066083836105a4565b6106de576000838152602081815260408083206001600160a01b03861684529091529020805460ff191660011790556106963390565b6001600160a01b0316826001600160a01b0316847f2f8788117e7eff1d82e926ec794901d17c78024a50270940304540a733656f0d60405160405180910390a450600161039c565b50600061039c565b60006106f283836105a4565b156106de576000838152602081815260408083206001600160a01b0386168085529252808320805460ff1916905551339286917ff6391f5c32d9c69d2a47ea670b442974b53935d1edc7fd64eb21e047a839171b9190a450600161039c565b6001600160a01b0380821660009081526002602052604081205490918291168061079e57604051630dcaf86b60e01b81526001600160a01b03851660048201526024015b60405180910390fd5b600080826001600160a01b031663feaf968c6040518163ffffffff1660e01b815260040160a060405180830381865afa1580156107df573d6000803e3d6000fd5b505050506040513d601f19601f820116820180604052508101906108039190610a1a565b509350509250506000821361082a5760405162bfc92160e01b815260040160405180910390fd5b8194504260015462015180836108409190610a80565b61084a9190610a80565b119350610856856108bb565b9450505050915091565b80516000908311156108775750602081015161039c565b5090919050565b61088882826105a4565b6108b75760405163e2517d3f60e01b81526001600160a01b038216600482015260248101839052604401610795565b5050565b60006305f5e1006108ec7f000000000000000000000000000000000000000000000000000000000000000084610a93565b61039c9190610aaa565b60006020828403121561090857600080fd5b81356001600160e01b03198116811461092057600080fd5b9392505050565b80356001600160a01b038116811461093e57600080fd5b919050565b60006020828403121561095557600080fd5b61092082610927565b60006020828403121561097057600080fd5b5035919050565b6000806040838503121561098a57600080fd5b8235915061099a60208401610927565b90509250929050565b600080604083850312156109b657600080fd5b6109bf83610927565b915061099a60208401610927565b6000806000606084860312156109e257600080fd5b6109eb84610927565b95602085013595506040909401359392505050565b805169ffffffffffffffffffff8116811461093e57600080fd5b600080600080600060a08688031215610a3257600080fd5b610a3b86610a00565b9450602086015193506040860151925060608601519150610a5e60808701610a00565b90509295509295909350565b634e487b7160e01b600052601160045260246000fd5b8082018082111561039c5761039c610a6a565b808202811582820484141761039c5761039c610a6a565b600082610ac757634e487b7160e01b600052601260045260246000fd5b50049056feced6982f480260bdd8ad5cb18ff2854f0306d78d904ad6cc107e8f3a0f526c18a2646970667358221220f3054d7428956ca5e1ea998f9f054788bb835d42db3c94ec8fd0c130601cbd9564736f6c63430008160033",
  "devdoc": {
    "errors": {
      "AccessControlBadConfirmation()": [
        {
          "details": "The caller of a function is not the expected one. NOTE: Don't confuse with {AccessControlUnauthorizedAccount}."
        }
      ],
      "AccessControlUnauthorizedAccount(address,bytes32)": [
        {
          "details": "The `account` is missing a role."
        }
      ]
    },
    "events": {
      "RoleAdminChanged(bytes32,bytes32,bytes32)": {
        "details": "Emitted when `newAdminRole` is set as ``role``'s admin role, replacing `previousAdminRole` `DEFAULT_ADMIN_ROLE` is the starting admin for all roles, despite {RoleAdminChanged} not being emitted to signal this."
      },
      "RoleGranted(bytes32,address,address)": {
        "details": "Emitted when `account` is granted `role`. `sender` is the account that originated the contract call. This account bears the admin role (for the granted role). Expected in cases where the role was granted using the internal {AccessControl-_grantRole}."
      },
      "RoleRevoked(bytes32,address,address)": {
        "details": "Emitted when `account` is revoked `role`. `sender` is the account that originated the contract call:   - if using `revokeRole`, it is the admin role bearer   - if using `renounceRole`, it is the role bearer (i.e. `account`)"
      }
    },
    "kind": "dev",
    "methods": {
      "BASE_CURRENCY()": {
        "returns": {
          "_0": "Returns the base currency address"
        }
      },
      "getAssetPrice(address)": {
        "params": {
          "asset": "The address of the asset to get the price for"
        },
        "returns": {
          "_0": "The current price of the asset"
        }
      },
      "getPriceInfo(address)": {
        "params": {
          "asset": "The address of the asset to get the price for"
        },
        "returns": {
          "isAlive": "Whether the price feed is considered active/valid",
          "price": "The price of the asset in base currency units"
        }
      },
      "getRoleAdmin(bytes32)": {
        "details": "Returns the admin role that controls `role`. See {grantRole} and {revokeRole}. To change a role's admin, use {_setRoleAdmin}."
      },
      "grantRole(bytes32,address)": {
        "details": "Grants `role` to `account`. If `account` had not been already granted `role`, emits a {RoleGranted} event. Requirements: - the caller must have ``role``'s admin role. May emit a {RoleGranted} event."
      },
      "hasRole(bytes32,address)": {
        "details": "Returns `true` if `account` has been granted `role`."
      },
      "renounceRole(bytes32,address)": {
        "details": "Revokes `role` from the calling account. Roles are often managed via {grantRole} and {revokeRole}: this function's purpose is to provide a mechanism for accounts to lose their privileges if they are compromised (such as when a trusted device is misplaced). If the calling account had been revoked `role`, emits a {RoleRevoked} event. Requirements: - the caller must be `callerConfirmation`. May emit a {RoleRevoked} event."
      },
      "revokeRole(bytes32,address)": {
        "details": "Revokes `role` from `account`. If `account` had been granted `role`, emits a {RoleRevoked} event. Requirements: - the caller must have ``role``'s admin role. May emit a {RoleRevoked} event."
      },
      "setFeed(address,address)": {
        "params": {
          "asset": "The address of the asset",
          "feed": "The address of the Redstone Chainlink-compatible price feed"
        }
      },
      "setHeartbeatStaleTimeLimit(uint256)": {
        "params": {
          "_newHeartbeatStaleTimeLimit": "The new heartbeat stale time limit"
        }
      },
      "supportsInterface(bytes4)": {
        "details": "Returns true if this contract implements the interface defined by `interfaceId`. See the corresponding https://eips.ethereum.org/EIPS/eip-165#how-interfaces-are-identified[ERC section] to learn more about how these ids are created. This function call must use less than 30 000 gas."
      }
    },
    "version": 1
  },
  "userdoc": {
    "kind": "user",
    "methods": {
      "BASE_CURRENCY()": {
        "notice": "Returns the base currency address"
      },
      "BASE_CURRENCY_UNIT()": {
        "notice": "Returns the base currency unit"
      },
      "getAssetPrice(address)": {
        "notice": "Gets the current price of an asset"
      },
      "getPriceInfo(address)": {
        "notice": "Gets the price information for an asset"
      },
      "setFeed(address,address)": {
        "notice": "Sets the price feed for an asset"
      },
      "setHeartbeatStaleTimeLimit(uint256)": {
        "notice": "Sets the heartbeat stale time limit"
      }
    },
    "version": 1
  },
  "storageLayout": {
    "storage": [
      {
        "astId": 3317,
        "contract": "contracts/oracle_aggregator/wrapper/RedstoneChainlinkWrapperWithThresholding.sol:RedstoneChainlinkWrapperWithThresholding",
        "label": "_roles",
        "offset": 0,
        "slot": "0",
        "type": "t_mapping(t_bytes32,t_struct(RoleData)3312_storage)"
      },
      {
        "astId": 77171,
        "contract": "contracts/oracle_aggregator/wrapper/RedstoneChainlinkWrapperWithThresholding.sol:RedstoneChainlinkWrapperWithThresholding",
        "label": "heartbeatStaleTimeLimit",
        "offset": 0,
        "slot": "1",
        "type": "t_uint256"
      },
      {
        "astId": 78540,
        "contract": "contracts/oracle_aggregator/wrapper/RedstoneChainlinkWrapperWithThresholding.sol:RedstoneChainlinkWrapperWithThresholding",
        "label": "assetToFeed",
        "offset": 0,
        "slot": "2",
        "type": "t_mapping(t_address,t_contract(IPriceFeed)77359)"
      },
      {
        "astId": 78660,
        "contract": "contracts/oracle_aggregator/wrapper/RedstoneChainlinkWrapperWithThresholding.sol:RedstoneChainlinkWrapperWithThresholding",
        "label": "assetThresholds",
        "offset": 0,
        "slot": "3",
        "type": "t_mapping(t_address,t_struct(ThresholdConfig)78782_storage)"
      }
    ],
    "types": {
      "t_address": {
        "encoding": "inplace",
        "label": "address",
        "numberOfBytes": "20"
      },
      "t_bool": {
        "encoding": "inplace",
        "label": "bool",
        "numberOfBytes": "1"
      },
      "t_bytes32": {
        "encoding": "inplace",
        "label": "bytes32",
        "numberOfBytes": "32"
      },
      "t_contract(IPriceFeed)77359": {
        "encoding": "inplace",
        "label": "contract IPriceFeed",
        "numberOfBytes": "20"
      },
      "t_mapping(t_address,t_bool)": {
        "encoding": "mapping",
        "key": "t_address",
        "label": "mapping(address => bool)",
        "numberOfBytes": "32",
        "value": "t_bool"
      },
      "t_mapping(t_address,t_contract(IPriceFeed)77359)": {
        "encoding": "mapping",
        "key": "t_address",
        "label": "mapping(address => contract IPriceFeed)",
        "numberOfBytes": "32",
        "value": "t_contract(IPriceFeed)77359"
      },
      "t_mapping(t_address,t_struct(ThresholdConfig)78782_storage)": {
        "encoding": "mapping",
        "key": "t_address",
        "label": "mapping(address => struct ThresholdingUtils.ThresholdConfig)",
        "numberOfBytes": "32",
        "value": "t_struct(ThresholdConfig)78782_storage"
      },
      "t_mapping(t_bytes32,t_struct(RoleData)3312_storage)": {
        "encoding": "mapping",
        "key": "t_bytes32",
        "label": "mapping(bytes32 => struct AccessControl.RoleData)",
        "numberOfBytes": "32",
        "value": "t_struct(RoleData)3312_storage"
      },
      "t_struct(RoleData)3312_storage": {
        "encoding": "inplace",
        "label": "struct AccessControl.RoleData",
        "members": [
          {
            "astId": 3309,
            "contract": "contracts/oracle_aggregator/wrapper/RedstoneChainlinkWrapperWithThresholding.sol:RedstoneChainlinkWrapperWithThresholding",
            "label": "hasRole",
            "offset": 0,
            "slot": "0",
            "type": "t_mapping(t_address,t_bool)"
          },
          {
            "astId": 3311,
            "contract": "contracts/oracle_aggregator/wrapper/RedstoneChainlinkWrapperWithThresholding.sol:RedstoneChainlinkWrapperWithThresholding",
            "label": "adminRole",
            "offset": 0,
            "slot": "1",
            "type": "t_bytes32"
          }
        ],
        "numberOfBytes": "64"
      },
      "t_struct(ThresholdConfig)78782_storage": {
        "encoding": "inplace",
        "label": "struct ThresholdingUtils.ThresholdConfig",
        "members": [
          {
            "astId": 78779,
            "contract": "contracts/oracle_aggregator/wrapper/RedstoneChainlinkWrapperWithThresholding.sol:RedstoneChainlinkWrapperWithThresholding",
            "label": "lowerThresholdInBase",
            "offset": 0,
            "slot": "0",
            "type": "t_uint256"
          },
          {
            "astId": 78781,
            "contract": "contracts/oracle_aggregator/wrapper/RedstoneChainlinkWrapperWithThresholding.sol:RedstoneChainlinkWrapperWithThresholding",
            "label": "fixedPriceInBase",
            "offset": 0,
            "slot": "1",
            "type": "t_uint256"
          }
        ],
        "numberOfBytes": "64"
      },
      "t_uint256": {
        "encoding": "inplace",
        "label": "uint256",
        "numberOfBytes": "32"
      }
    }
  }
}