{
  "address": "0x6619C9b5Ed53C1C6D73cC32Ddea421Aa82388763",
  "abi": [
    {
      "inputs": [
        {
          "internalType": "address",
          "name": "_baseCurrency",
          "type": "address"
        },
        {
          "internalType": "uint256",
          "name": "_baseCurrencyUnit",
          "type": "uint256"
        }
      ],
      "stateMutability": "nonpayable",
      "type": "constructor"
    },
    {
      "inputs": [],
      "name": "AccessControlBadConfirmation",
      "type": "error"
    },
    {
      "inputs": [
        {
          "internalType": "address",
          "name": "account",
          "type": "address"
        },
        {
          "internalType": "bytes32",
          "name": "neededRole",
          "type": "bytes32"
        }
      ],
      "name": "AccessControlUnauthorizedAccount",
      "type": "error"
    },
    {
      "inputs": [
        {
          "internalType": "address",
          "name": "asset",
          "type": "address"
        }
      ],
      "name": "AssetAlreadyFrozen",
      "type": "error"
    },
    {
      "inputs": [
        {
          "internalType": "address",
          "name": "asset",
          "type": "address"
        }
      ],
      "name": "AssetNotFrozen",
      "type": "error"
    },
    {
      "inputs": [
        {
          "internalType": "uint256",
          "name": "expirationTime",
          "type": "uint256"
        },
        {
          "internalType": "uint256",
          "name": "currentTime",
          "type": "uint256"
        }
      ],
      "name": "InvalidExpirationTime",
      "type": "error"
    },
    {
      "inputs": [
        {
          "internalType": "address",
          "name": "asset",
          "type": "address"
        }
      ],
      "name": "NoPriceOverride",
      "type": "error"
    },
    {
      "inputs": [
        {
          "internalType": "address",
          "name": "asset",
          "type": "address"
        }
      ],
      "name": "OracleNotSet",
      "type": "error"
    },
    {
      "inputs": [
        {
          "internalType": "address",
          "name": "asset",
          "type": "address"
        }
      ],
      "name": "PriceNotAlive",
      "type": "error"
    },
    {
      "inputs": [
        {
          "internalType": "address",
          "name": "asset",
          "type": "address"
        },
        {
          "internalType": "address",
          "name": "oracle",
          "type": "address"
        },
        {
          "internalType": "uint256",
          "name": "expectedBaseUnit",
          "type": "uint256"
        },
        {
          "internalType": "uint256",
          "name": "oracleBaseUnit",
          "type": "uint256"
        }
      ],
      "name": "UnexpectedBaseUnit",
      "type": "error"
    },
    {
      "anonymous": false,
      "inputs": [
        {
          "indexed": true,
          "internalType": "address",
          "name": "asset",
          "type": "address"
        }
      ],
      "name": "AssetFrozen",
      "type": "event"
    },
    {
      "anonymous": false,
      "inputs": [
        {
          "indexed": true,
          "internalType": "address",
          "name": "asset",
          "type": "address"
        }
      ],
      "name": "AssetUnfrozen",
      "type": "event"
    },
    {
      "anonymous": false,
      "inputs": [
        {
          "indexed": true,
          "internalType": "address",
          "name": "asset",
          "type": "address"
        },
        {
          "indexed": true,
          "internalType": "address",
          "name": "oracle",
          "type": "address"
        }
      ],
      "name": "OracleUpdated",
      "type": "event"
    },
    {
      "anonymous": false,
      "inputs": [
        {
          "indexed": false,
          "internalType": "uint256",
          "name": "newExpirationTime",
          "type": "uint256"
        }
      ],
      "name": "OverrideExpirationTimeUpdated",
      "type": "event"
    },
    {
      "anonymous": false,
      "inputs": [
        {
          "indexed": true,
          "internalType": "address",
          "name": "asset",
          "type": "address"
        }
      ],
      "name": "PriceOverrideCleared",
      "type": "event"
    },
    {
      "anonymous": false,
      "inputs": [
        {
          "indexed": true,
          "internalType": "address",
          "name": "asset",
          "type": "address"
        },
        {
          "indexed": false,
          "internalType": "uint256",
          "name": "price",
          "type": "uint256"
        },
        {
          "indexed": false,
          "internalType": "uint256",
          "name": "expiresAt",
          "type": "uint256"
        }
      ],
      "name": "PriceOverrideSet",
      "type": "event"
    },
    {
      "anonymous": false,
      "inputs": [
        {
          "indexed": true,
          "internalType": "bytes32",
          "name": "role",
          "type": "bytes32"
        },
        {
          "indexed": true,
          "internalType": "bytes32",
          "name": "previousAdminRole",
          "type": "bytes32"
        },
        {
          "indexed": true,
          "internalType": "bytes32",
          "name": "newAdminRole",
          "type": "bytes32"
        }
      ],
      "name": "RoleAdminChanged",
      "type": "event"
    },
    {
      "anonymous": false,
      "inputs": [
        {
          "indexed": true,
          "internalType": "bytes32",
          "name": "role",
          "type": "bytes32"
        },
        {
          "indexed": true,
          "internalType": "address",
          "name": "account",
          "type": "address"
        },
        {
          "indexed": true,
          "internalType": "address",
          "name": "sender",
          "type": "address"
        }
      ],
      "name": "RoleGranted",
      "type": "event"
    },
    {
      "anonymous": false,
      "inputs": [
        {
          "indexed": true,
          "internalType": "bytes32",
          "name": "role",
          "type": "bytes32"
        },
        {
          "indexed": true,
          "internalType": "address",
          "name": "account",
          "type": "address"
        },
        {
          "indexed": true,
          "internalType": "address",
          "name": "sender",
          "type": "address"
        }
      ],
      "name": "RoleRevoked",
      "type": "event"
    },
    {
      "inputs": [],
      "name": "BASE_CURRENCY",
      "outputs": [
        {
          "internalType": "address",
          "name": "",
          "type": "address"
        }
      ],
      "stateMutability": "view",
      "type": "function"
    },
    {
      "inputs": [],
      "name": "BASE_CURRENCY_UNIT",
      "outputs": [
        {
          "internalType": "uint256",
          "name": "",
          "type": "uint256"
        }
      ],
      "stateMutability": "view",
      "type": "function"
    },
    {
      "inputs": [],
      "name": "DEFAULT_ADMIN_ROLE",
      "outputs": [
        {
          "internalType": "bytes32",
          "name": "",
          "type": "bytes32"
        }
      ],
      "stateMutability": "view",
      "type": "function"
    },
    {
      "inputs": [],
      "name": "GUARDIAN_ROLE",
      "outputs": [
        {
          "internalType": "bytes32",
          "name": "",
          "type": "bytes32"
        }
      ],
      "stateMutability": "view",
      "type": "function"
    },
    {
      "inputs": [],
      "name": "ORACLE_MANAGER_ROLE",
      "outputs": [
        {
          "internalType": "bytes32",
          "name": "",
          "type": "bytes32"
        }
      ],
      "stateMutability": "view",
      "type": "function"
    },
    {
      "inputs": [
        {
          "internalType": "address",
          "name": "",
          "type": "address"
        }
      ],
      "name": "assetOracles",
      "outputs": [
        {
          "internalType": "address",
          "name": "",
          "type": "address"
        }
      ],
      "stateMutability": "view",
      "type": "function"
    },
    {
      "inputs": [],
      "name": "baseCurrency",
      "outputs": [
        {
          "internalType": "address",
          "name": "",
          "type": "address"
        }
      ],
      "stateMutability": "view",
      "type": "function"
    },
    {
      "inputs": [],
      "name": "baseCurrencyUnit",
      "outputs": [
        {
          "internalType": "uint256",
          "name": "",
          "type": "uint256"
        }
      ],
      "stateMutability": "view",
      "type": "function"
    },
    {
      "inputs": [
        {
          "internalType": "address",
          "name": "asset",
          "type": "address"
        }
      ],
      "name": "clearPriceOverride",
      "outputs": [],
      "stateMutability": "nonpayable",
      "type": "function"
    },
    {
      "inputs": [
        {
          "internalType": "address",
          "name": "asset",
          "type": "address"
        }
      ],
      "name": "freezeAsset",
      "outputs": [],
      "stateMutability": "nonpayable",
      "type": "function"
    },
    {
      "inputs": [
        {
          "internalType": "address",
          "name": "asset",
          "type": "address"
        }
      ],
      "name": "getAssetPrice",
      "outputs": [
        {
          "internalType": "uint256",
          "name": "",
          "type": "uint256"
        }
      ],
      "stateMutability": "view",
      "type": "function"
    },
    {
      "inputs": [
        {
          "internalType": "address",
          "name": "asset",
          "type": "address"
        }
      ],
      "name": "getPriceInfo",
      "outputs": [
        {
          "internalType": "uint256",
          "name": "price",
          "type": "uint256"
        },
        {
          "internalType": "bool",
          "name": "isAlive",
          "type": "bool"
        }
      ],
      "stateMutability": "view",
      "type": "function"
    },
    {
      "inputs": [
        {
          "internalType": "bytes32",
          "name": "role",
          "type": "bytes32"
        }
      ],
      "name": "getRoleAdmin",
      "outputs": [
        {
          "internalType": "bytes32",
          "name": "",
          "type": "bytes32"
        }
      ],
      "stateMutability": "view",
      "type": "function"
    },
    {
      "inputs": [
        {
          "internalType": "bytes32",
          "name": "role",
          "type": "bytes32"
        },
        {
          "internalType": "address",
          "name": "account",
          "type": "address"
        }
      ],
      "name": "grantRole",
      "outputs": [],
      "stateMutability": "nonpayable",
      "type": "function"
    },
    {
      "inputs": [
        {
          "internalType": "bytes32",
          "name": "role",
          "type": "bytes32"
        },
        {
          "internalType": "address",
          "name": "account",
          "type": "address"
        }
      ],
      "name": "hasRole",
      "outputs": [
        {
          "internalType": "bool",
          "name": "",
          "type": "bool"
        }
      ],
      "stateMutability": "view",
      "type": "function"
    },
    {
      "inputs": [
        {
          "internalType": "address",
          "name": "",
          "type": "address"
        }
      ],
      "name": "isFrozen",
      "outputs": [
        {
          "internalType": "bool",
          "name": "",
          "type": "bool"
        }
      ],
      "stateMutability": "view",
      "type": "function"
    },
    {
      "inputs": [],
      "name": "overrideExpirationTime",
      "outputs": [
        {
          "internalType": "uint256",
          "name": "",
          "type": "uint256"
        }
      ],
      "stateMutability": "view",
      "type": "function"
    },
    {
      "inputs": [
        {
          "internalType": "address",
          "name": "",
          "type": "address"
        }
      ],
      "name": "priceOverrides",
      "outputs": [
        {
          "internalType": "uint256",
          "name": "price",
          "type": "uint256"
        },
        {
          "internalType": "uint256",
          "name": "expiresAt",
          "type": "uint256"
        }
      ],
      "stateMutability": "view",
      "type": "function"
    },
    {
      "inputs": [
        {
          "internalType": "address",
          "name": "asset",
          "type": "address"
        }
      ],
      "name": "removeOracle",
      "outputs": [],
      "stateMutability": "nonpayable",
      "type": "function"
    },
    {
      "inputs": [
        {
          "internalType": "bytes32",
          "name": "role",
          "type": "bytes32"
        },
        {
          "internalType": "address",
          "name": "callerConfirmation",
          "type": "address"
        }
      ],
      "name": "renounceRole",
      "outputs": [],
      "stateMutability": "nonpayable",
      "type": "function"
    },
    {
      "inputs": [
        {
          "internalType": "bytes32",
          "name": "role",
          "type": "bytes32"
        },
        {
          "internalType": "address",
          "name": "account",
          "type": "address"
        }
      ],
      "name": "revokeRole",
      "outputs": [],
      "stateMutability": "nonpayable",
      "type": "function"
    },
    {
      "inputs": [
        {
          "internalType": "address",
          "name": "asset",
          "type": "address"
        },
        {
          "internalType": "address",
          "name": "oracle",
          "type": "address"
        }
      ],
      "name": "setOracle",
      "outputs": [],
      "stateMutability": "nonpayable",
      "type": "function"
    },
    {
      "inputs": [
        {
          "internalType": "uint256",
          "name": "time",
          "type": "uint256"
        }
      ],
      "name": "setOverrideExpirationTime",
      "outputs": [],
      "stateMutability": "nonpayable",
      "type": "function"
    },
    {
      "inputs": [
        {
          "internalType": "address",
          "name": "asset",
          "type": "address"
        },
        {
          "internalType": "uint256",
          "name": "price",
          "type": "uint256"
        },
        {
          "internalType": "uint256",
          "name": "expirationTime",
          "type": "uint256"
        }
      ],
      "name": "setPriceOverride",
      "outputs": [],
      "stateMutability": "nonpayable",
      "type": "function"
    },
    {
      "inputs": [
        {
          "internalType": "address",
          "name": "asset",
          "type": "address"
        },
        {
          "internalType": "uint256",
          "name": "price",
          "type": "uint256"
        }
      ],
      "name": "setPriceOverride",
      "outputs": [],
      "stateMutability": "nonpayable",
      "type": "function"
    },
    {
      "inputs": [
        {
          "internalType": "bytes4",
          "name": "interfaceId",
          "type": "bytes4"
        }
      ],
      "name": "supportsInterface",
      "outputs": [
        {
          "internalType": "bool",
          "name": "",
          "type": "bool"
        }
      ],
      "stateMutability": "view",
      "type": "function"
    },
    {
      "inputs": [
        {
          "internalType": "address",
          "name": "asset",
          "type": "address"
        }
      ],
      "name": "unfreezeAsset",
      "outputs": [],
      "stateMutability": "nonpayable",
      "type": "function"
    }
  ],
  "transactionHash": "0xa7b2af3f1ddb9881c6d63ad55693924ce0dbfa9e0e058b58952a81f41d8ee8de",
  "args": [
    "0x0000000000000000000000000000000000000000",
    "1000000000000000000"
  ],
  "numDeployments": 1,
  "solcInputHash": "66f0ec6edb1fbe0ccfb048035a89d8a4",
  "bytecode": "0x60c0604052620151806004553480156200001857600080fd5b5060405162001307380380620013078339810160408190526200003b916200016c565b6001600160a01b03821660a05260808190526200005a600033620000bd565b50620000877fced6982f480260bdd8ad5cb18ff2854f0306d78d904ad6cc107e8f3a0f526c1833620000bd565b50620000b47f55435dd261a4b9b3364963f7738a7a662ad9c84396d64be3365284bb7f0a504133620000bd565b505050620001a8565b6000828152602081815260408083206001600160a01b038516845290915281205460ff1662000162576000838152602081815260408083206001600160a01b03861684529091529020805460ff19166001179055620001193390565b6001600160a01b0316826001600160a01b0316847f2f8788117e7eff1d82e926ec794901d17c78024a50270940304540a733656f0d60405160405180910390a450600162000166565b5060005b92915050565b600080604083850312156200018057600080fd5b82516001600160a01b03811681146200019857600080fd5b6020939093015192949293505050565b60805160a05161111d620001ea6000396000818161031101526104000152600081816102ad015281816104680152818161070e0152610759015261111d6000f3fe608060405234801561001057600080fd5b50600436106101a95760003560e01c8063a217fddf116100f9578063e150f72411610097578063e583983611610071578063e583983614610437578063f2ae538b1461045a578063f3bddde114610463578063fdc85fc41461048a57600080fd5b8063e150f724146103c2578063e19f4700146103fe578063e24ba8c31461042457600080fd5b8063be1203ab116100d3578063be1203ab14610374578063bfc69e1c14610387578063cc1706f41461039c578063d547741f146103af57600080fd5b8063a217fddf14610346578063a50753af1461034e578063b3596f071461036157600080fd5b8063367c93c7116101665780638edbf436116101405780638edbf436146102d157806391d14854146102f957806392a85fde1461030c578063993758831461033357600080fd5b8063367c93c7146102855780635c38eb3a146102985780638c89b64f146102ab57600080fd5b806301ffc9a7146101ae578063248a9ca3146101d657806324ea54f4146102075780632b6639861461021c5780632f2ff15d1461025d57806336568abe14610272575b600080fd5b6101c16101bc366004610f04565b61049d565b60405190151581526020015b60405180910390f35b6101f96101e4366004610f35565b60009081526020819052604090206001015490565b6040519081526020016101cd565b6101f96000805160206110c883398151915281565b61024561022a366004610f6a565b6001602052600090815260409020546001600160a01b031681565b6040516001600160a01b0390911681526020016101cd565b61027061026b366004610f85565b6104d4565b005b610270610280366004610f85565b6104ff565b610270610293366004610fb1565b610537565b6102706102a6366004610fe4565b61068e565b7f00000000000000000000000000000000000000000000000000000000000000006101f9565b6102e46102df366004610f6a565b6107e5565b604080519283529015156020830152016101cd565b6101c1610307366004610f85565b610933565b6102457f000000000000000000000000000000000000000000000000000000000000000081565b610270610341366004610f6a565b61095c565b6101f9600081565b61027061035c366004610f6a565b610a14565b6101f961036f366004610f6a565b610abe565b610270610382366004610f6a565b610b00565b6101f96000805160206110a883398151915281565b6102706103aa36600461100e565b610ba6565b6102706103bd366004610f85565b610cd8565b6103e96103d0366004610f6a565b6003602052600090815260409020805460019091015482565b604080519283526020830191909152016101cd565b7f0000000000000000000000000000000000000000000000000000000000000000610245565b610270610432366004610f35565b610cfd565b6101c1610445366004610f6a565b60026020526000908152604090205460ff1681565b6101f960045481565b6101f97f000000000000000000000000000000000000000000000000000000000000000081565b610270610498366004610f6a565b610d51565b60006001600160e01b03198216637965db0b60e01b14806104ce57506301ffc9a760e01b6001600160e01b03198316145b92915050565b6000828152602081905260409020600101546104ef81610dbd565b6104f98383610dca565b50505050565b6001600160a01b03811633146105285760405163334bd91960e11b815260040160405180910390fd5b6105328282610e5c565b505050565b6001600160a01b03831660009081526002602052604090205460ff166105805760405163895714b360e01b81526001600160a01b03841660048201526024015b60405180910390fd5b6105986000805160206110a883398151915233610933565b1580156105ba57506105b86000805160206110c883398151915233610933565b155b156105ee5760405163e2517d3f60e01b81523360048201526000805160206110a88339815191526024820152604401610577565b4281116106175760405163f00605cf60e01b815260048101829052426024820152604401610577565b60408051808201825283815260208082018481526001600160a01b038716600081815260038452859020935184559051600190930192909255825185815290810184905290917f4f76440426a2d3ea28e7f7a130a16492073ebe3eda11d63cfcee6513f425c60191015b60405180910390a2505050565b6000805160206110a88339815191526106a681610dbd565b6000826001600160a01b0316638c89b64f6040518163ffffffff1660e01b8152600401602060405180830381865afa1580156106e6573d6000803e3d6000fd5b505050506040513d601f19601f8201168201806040525081019061070a9190611038565b90507f0000000000000000000000000000000000000000000000000000000000000000811461078c5760405163ef09a31360e01b81526001600160a01b038086166004830152841660248201527f0000000000000000000000000000000000000000000000000000000000000000604482015260648101829052608401610577565b6001600160a01b0384811660008181526001602052604080822080546001600160a01b0319169488169485179055517f078c3b417dadf69374a59793b829c52001247130433427049317bde56607b1b79190a350505050565b6001600160a01b038116600090815260026020526040812054819060ff161561087c576001600160a01b03831660009081526003602090815260409182902082518084019093528054835260010154908201819052421080156108485750805115155b1561085857519360019350915050565b6040516376fa136160e11b81526001600160a01b0385166004820152602401610577565b6001600160a01b0380841660009081526001602052604090205416806108c057604051634bf9754b60e11b81526001600160a01b0385166004820152602401610577565b60405163476dfa1b60e11b81526001600160a01b038581166004830152821690638edbf436906024016040805180830381865afa158015610905573d6000803e3d6000fd5b505050506040513d601f19601f820116820180604052508101906109299190611051565b9250925050915091565b6000918252602082815260408084206001600160a01b0393909316845291905290205460ff1690565b6109746000805160206110a883398151915233610933565b15801561099657506109946000805160206110c883398151915233610933565b155b156109ca5760405163e2517d3f60e01b81523360048201526000805160206110a88339815191526024820152604401610577565b6001600160a01b038116600081815260036020526040808220828155600101829055517f6e8bf073d6615b27ce1f738e5a0e262a342288441d359d5a1c0fbd63237e81509190a250565b6000805160206110c8833981519152610a2c81610dbd565b6001600160a01b03821660009081526002602052604090205460ff1615610a7157604051638d8c86a960e01b81526001600160a01b0383166004820152602401610577565b6001600160a01b038216600081815260026020526040808220805460ff19166001179055517f929db54d862e405bda31ef3305e3721df1aad543b904bbbf40da11643406585d9190a25050565b6000806000610acc846107e5565b9150915080610af95760405163118297e560e01b81526001600160a01b0385166004820152602401610577565b5092915050565b6000805160206110c8833981519152610b1881610dbd565b6001600160a01b03821660009081526002602052604090205460ff16610b5c5760405163895714b360e01b81526001600160a01b0383166004820152602401610577565b6001600160a01b038216600081815260026020526040808220805460ff19169055517fc4c49a9570440c2ba83b05090afb028402010b19ca11a13b5f856d9f03dc92de9190a25050565b6001600160a01b03821660009081526002602052604090205460ff16610bea5760405163895714b360e01b81526001600160a01b0383166004820152602401610577565b610c026000805160206110a883398151915233610933565b158015610c245750610c226000805160206110c883398151915233610933565b155b15610c585760405163e2517d3f60e01b81523360048201526000805160206110a88339815191526024820152604401610577565b600060045442610c689190611086565b60408051808201825284815260208082018481526001600160a01b0388166000818152600384528590209351845590516001909301929092558251868152908101849052929350917f4f76440426a2d3ea28e7f7a130a16492073ebe3eda11d63cfcee6513f425c6019101610681565b600082815260208190526040902060010154610cf381610dbd565b6104f98383610e5c565b6000805160206110a8833981519152610d1581610dbd565b60048290556040518281527fadcfb5e8006af9d484fcf6a5f494efb216405705e58fc30be815c9c73e6d39849060200160405180910390a15050565b6000805160206110a8833981519152610d6981610dbd565b6001600160a01b03821660008181526001602052604080822080546001600160a01b0319169055519091907f078c3b417dadf69374a59793b829c52001247130433427049317bde56607b1b7908390a35050565b610dc78133610ec7565b50565b6000610dd68383610933565b610e54576000838152602081815260408083206001600160a01b03861684529091529020805460ff19166001179055610e0c3390565b6001600160a01b0316826001600160a01b0316847f2f8788117e7eff1d82e926ec794901d17c78024a50270940304540a733656f0d60405160405180910390a45060016104ce565b5060006104ce565b6000610e688383610933565b15610e54576000838152602081815260408083206001600160a01b0386168085529252808320805460ff1916905551339286917ff6391f5c32d9c69d2a47ea670b442974b53935d1edc7fd64eb21e047a839171b9190a45060016104ce565b610ed18282610933565b610f005760405163e2517d3f60e01b81526001600160a01b038216600482015260248101839052604401610577565b5050565b600060208284031215610f1657600080fd5b81356001600160e01b031981168114610f2e57600080fd5b9392505050565b600060208284031215610f4757600080fd5b5035919050565b80356001600160a01b0381168114610f6557600080fd5b919050565b600060208284031215610f7c57600080fd5b610f2e82610f4e565b60008060408385031215610f9857600080fd5b82359150610fa860208401610f4e565b90509250929050565b600080600060608486031215610fc657600080fd5b610fcf84610f4e565b95602085013595506040909401359392505050565b60008060408385031215610ff757600080fd5b61100083610f4e565b9150610fa860208401610f4e565b6000806040838503121561102157600080fd5b61102a83610f4e565b946020939093013593505050565b60006020828403121561104a57600080fd5b5051919050565b6000806040838503121561106457600080fd5b825191506020830151801515811461107b57600080fd5b809150509250929050565b808201808211156104ce57634e487b7160e01b600052601160045260246000fdfeced6982f480260bdd8ad5cb18ff2854f0306d78d904ad6cc107e8f3a0f526c1855435dd261a4b9b3364963f7738a7a662ad9c84396d64be3365284bb7f0a5041a2646970667358221220194ad3267ae5dc19c25cd9b01038c078fee1dda84b6fe003c53237de930b40b464736f6c63430008160033",
  "devdoc": {
    "details": "Implements IPriceOracleGetter for compatibility with Aave",
    "errors": {
      "AccessControlBadConfirmation()": [
        {
          "details": "The caller of a function is not the expected one. NOTE: Don't confuse with {AccessControlUnauthorizedAccount}."
        }
      ],
      "AccessControlUnauthorizedAccount(address,bytes32)": [
        {
          "details": "The `account` is missing a role."
        }
      ]
    },
    "events": {
      "RoleAdminChanged(bytes32,bytes32,bytes32)": {
        "details": "Emitted when `newAdminRole` is set as ``role``'s admin role, replacing `previousAdminRole` `DEFAULT_ADMIN_ROLE` is the starting admin for all roles, despite {RoleAdminChanged} not being emitted to signal this."
      },
      "RoleGranted(bytes32,address,address)": {
        "details": "Emitted when `account` is granted `role`. `sender` is the account that originated the contract call. This account bears the admin role (for the granted role). Expected in cases where the role was granted using the internal {AccessControl-_grantRole}."
      },
      "RoleRevoked(bytes32,address,address)": {
        "details": "Emitted when `account` is revoked `role`. `sender` is the account that originated the contract call:   - if using `revokeRole`, it is the admin role bearer   - if using `renounceRole`, it is the role bearer (i.e. `account`)"
      }
    },
    "kind": "dev",
    "methods": {
      "BASE_CURRENCY()": {
        "returns": {
          "_0": "Address representing the base currency"
        }
      },
      "BASE_CURRENCY_UNIT()": {
        "returns": {
          "_0": "Base currency unit (10^priceDecimals)"
        }
      },
      "clearPriceOverride(address)": {
        "details": "Can be called by ORACLE_MANAGER_ROLE or GUARDIAN_ROLE",
        "params": {
          "asset": "Address of the asset"
        }
      },
      "constructor": {
        "params": {
          "_baseCurrency": "Address of the base currency",
          "_baseCurrencyUnit": "Number of decimal places for price values"
        }
      },
      "freezeAsset(address)": {
        "details": "Only GUARDIAN_ROLE can freeze assets",
        "params": {
          "asset": "Address of the asset to freeze"
        }
      },
      "getAssetPrice(address)": {
        "params": {
          "asset": "Address of the asset"
        },
        "returns": {
          "_0": "Price of the asset"
        }
      },
      "getPriceInfo(address)": {
        "params": {
          "asset": "Address of the asset"
        },
        "returns": {
          "isAlive": "Whether the price is considered valid",
          "price": "Price of the asset"
        }
      },
      "getRoleAdmin(bytes32)": {
        "details": "Returns the admin role that controls `role`. See {grantRole} and {revokeRole}. To change a role's admin, use {_setRoleAdmin}."
      },
      "grantRole(bytes32,address)": {
        "details": "Grants `role` to `account`. If `account` had not been already granted `role`, emits a {RoleGranted} event. Requirements: - the caller must have ``role``'s admin role. May emit a {RoleGranted} event."
      },
      "hasRole(bytes32,address)": {
        "details": "Returns `true` if `account` has been granted `role`."
      },
      "removeOracle(address)": {
        "params": {
          "asset": "Address of the asset"
        }
      },
      "renounceRole(bytes32,address)": {
        "details": "Revokes `role` from the calling account. Roles are often managed via {grantRole} and {revokeRole}: this function's purpose is to provide a mechanism for accounts to lose their privileges if they are compromised (such as when a trusted device is misplaced). If the calling account had been revoked `role`, emits a {RoleRevoked} event. Requirements: - the caller must be `callerConfirmation`. May emit a {RoleRevoked} event."
      },
      "revokeRole(bytes32,address)": {
        "details": "Revokes `role` from `account`. If `account` had been granted `role`, emits a {RoleRevoked} event. Requirements: - the caller must have ``role``'s admin role. May emit a {RoleRevoked} event."
      },
      "setOracle(address,address)": {
        "params": {
          "asset": "Address of the asset",
          "oracle": "Address of the oracle for the asset"
        }
      },
      "setOverrideExpirationTime(uint256)": {
        "params": {
          "time": "The new expiration time in seconds"
        }
      },
      "setPriceOverride(address,uint256)": {
        "details": "Only works when asset is frozen. Uses default expiration time. Can be called by ORACLE_MANAGER_ROLE or GUARDIAN_ROLE",
        "params": {
          "asset": "Address of the asset",
          "price": "The override price"
        }
      },
      "setPriceOverride(address,uint256,uint256)": {
        "details": "Only works when asset is frozen Can be called by ORACLE_MANAGER_ROLE or GUARDIAN_ROLE",
        "params": {
          "asset": "Address of the asset",
          "expirationTime": "The expiration timestamp",
          "price": "The override price"
        }
      },
      "supportsInterface(bytes4)": {
        "details": "Returns true if this contract implements the interface defined by `interfaceId`. See the corresponding https://eips.ethereum.org/EIPS/eip-165#how-interfaces-are-identified[ERC section] to learn more about how these ids are created. This function call must use less than 30 000 gas."
      },
      "unfreezeAsset(address)": {
        "details": "Only GUARDIAN_ROLE can unfreeze assets",
        "params": {
          "asset": "Address of the asset to unfreeze"
        }
      }
    },
    "title": "OracleAggregator",
    "version": 1
  },
  "userdoc": {
    "kind": "user",
    "methods": {
      "BASE_CURRENCY()": {
        "notice": "Returns the base currency"
      },
      "BASE_CURRENCY_UNIT()": {
        "notice": "Returns the base currency unit"
      },
      "GUARDIAN_ROLE()": {
        "notice": "Role for freezing/unfreezing assets"
      },
      "ORACLE_MANAGER_ROLE()": {
        "notice": "Role for managing oracles"
      },
      "assetOracles(address)": {
        "notice": "Mapping from asset address to oracle address"
      },
      "baseCurrency()": {
        "notice": "Address representing the base currency"
      },
      "baseCurrencyUnit()": {
        "notice": "1 Unit of base currency (10^priceDecimals)"
      },
      "clearPriceOverride(address)": {
        "notice": "Clears a price override for an asset"
      },
      "constructor": {
        "notice": "Constructor to initialize the OracleAggregator"
      },
      "freezeAsset(address)": {
        "notice": "Freezes an asset"
      },
      "getAssetPrice(address)": {
        "notice": "Gets the price of an asset"
      },
      "getPriceInfo(address)": {
        "notice": "Gets the price info of an asset"
      },
      "isFrozen(address)": {
        "notice": "Mapping from asset address to freeze status"
      },
      "overrideExpirationTime()": {
        "notice": "Default expiration time for price overrides (default 24 hours)"
      },
      "priceOverrides(address)": {
        "notice": "Mapping from asset address to price override"
      },
      "removeOracle(address)": {
        "notice": "Removes the oracle for a specific asset"
      },
      "setOracle(address,address)": {
        "notice": "Sets the oracle for a specific asset"
      },
      "setOverrideExpirationTime(uint256)": {
        "notice": "Sets the default expiration time for price overrides"
      },
      "setPriceOverride(address,uint256)": {
        "notice": "Sets a price override for a frozen asset"
      },
      "setPriceOverride(address,uint256,uint256)": {
        "notice": "Sets a price override for a frozen asset with custom expiration"
      },
      "unfreezeAsset(address)": {
        "notice": "Unfreezes an asset"
      }
    },
    "notice": "Aggregates price data from multiple oracles",
    "version": 1
  },
  "storageLayout": {
    "storage": [
      {
        "astId": 27,
        "contract": "contracts/oracle_aggregator/OracleAggregator.sol:OracleAggregator",
        "label": "_roles",
        "offset": 0,
        "slot": "0",
        "type": "t_mapping(t_bytes32,t_struct(RoleData)22_storage)"
      },
      {
        "astId": 459,
        "contract": "contracts/oracle_aggregator/OracleAggregator.sol:OracleAggregator",
        "label": "assetOracles",
        "offset": 0,
        "slot": "1",
        "type": "t_mapping(t_address,t_address)"
      },
      {
        "astId": 476,
        "contract": "contracts/oracle_aggregator/OracleAggregator.sol:OracleAggregator",
        "label": "isFrozen",
        "offset": 0,
        "slot": "2",
        "type": "t_mapping(t_address,t_bool)"
      },
      {
        "astId": 482,
        "contract": "contracts/oracle_aggregator/OracleAggregator.sol:OracleAggregator",
        "label": "priceOverrides",
        "offset": 0,
        "slot": "3",
        "type": "t_mapping(t_address,t_struct(PriceOverride)471_storage)"
      },
      {
        "astId": 486,
        "contract": "contracts/oracle_aggregator/OracleAggregator.sol:OracleAggregator",
        "label": "overrideExpirationTime",
        "offset": 0,
        "slot": "4",
        "type": "t_uint256"
      }
    ],
    "types": {
      "t_address": {
        "encoding": "inplace",
        "label": "address",
        "numberOfBytes": "20"
      },
      "t_bool": {
        "encoding": "inplace",
        "label": "bool",
        "numberOfBytes": "1"
      },
      "t_bytes32": {
        "encoding": "inplace",
        "label": "bytes32",
        "numberOfBytes": "32"
      },
      "t_mapping(t_address,t_address)": {
        "encoding": "mapping",
        "key": "t_address",
        "label": "mapping(address => address)",
        "numberOfBytes": "32",
        "value": "t_address"
      },
      "t_mapping(t_address,t_bool)": {
        "encoding": "mapping",
        "key": "t_address",
        "label": "mapping(address => bool)",
        "numberOfBytes": "32",
        "value": "t_bool"
      },
      "t_mapping(t_address,t_struct(PriceOverride)471_storage)": {
        "encoding": "mapping",
        "key": "t_address",
        "label": "mapping(address => struct OracleAggregator.PriceOverride)",
        "numberOfBytes": "32",
        "value": "t_struct(PriceOverride)471_storage"
      },
      "t_mapping(t_bytes32,t_struct(RoleData)22_storage)": {
        "encoding": "mapping",
        "key": "t_bytes32",
        "label": "mapping(bytes32 => struct AccessControl.RoleData)",
        "numberOfBytes": "32",
        "value": "t_struct(RoleData)22_storage"
      },
      "t_struct(PriceOverride)471_storage": {
        "encoding": "inplace",
        "label": "struct OracleAggregator.PriceOverride",
        "members": [
          {
            "astId": 468,
            "contract": "contracts/oracle_aggregator/OracleAggregator.sol:OracleAggregator",
            "label": "price",
            "offset": 0,
            "slot": "0",
            "type": "t_uint256"
          },
          {
            "astId": 470,
            "contract": "contracts/oracle_aggregator/OracleAggregator.sol:OracleAggregator",
            "label": "expiresAt",
            "offset": 0,
            "slot": "1",
            "type": "t_uint256"
          }
        ],
        "numberOfBytes": "64"
      },
      "t_struct(RoleData)22_storage": {
        "encoding": "inplace",
        "label": "struct AccessControl.RoleData",
        "members": [
          {
            "astId": 19,
            "contract": "contracts/oracle_aggregator/OracleAggregator.sol:OracleAggregator",
            "label": "hasRole",
            "offset": 0,
            "slot": "0",
            "type": "t_mapping(t_address,t_bool)"
          },
          {
            "astId": 21,
            "contract": "contracts/oracle_aggregator/OracleAggregator.sol:OracleAggregator",
            "label": "adminRole",
            "offset": 0,
            "slot": "1",
            "type": "t_bytes32"
          }
        ],
        "numberOfBytes": "64"
      },
      "t_uint256": {
        "encoding": "inplace",
        "label": "uint256",
        "numberOfBytes": "32"
      }
    }
  }
}