{
  "address": "0xfFe238501B321B9A059F3df2C4C7881b3c0fa53e",
  "abi": [
    {
      "inputs": [
        {
          "internalType": "address",
          "name": "baseCurrency",
          "type": "address"
        },
        {
          "internalType": "uint256",
          "name": "_baseCurrencyUnit",
          "type": "uint256"
        }
      ],
      "stateMutability": "nonpayable",
      "type": "constructor"
    },
    {
      "inputs": [],
      "name": "AccessControlBadConfirmation",
      "type": "error"
    },
    {
      "inputs": [
        {
          "internalType": "address",
          "name": "account",
          "type": "address"
        },
        {
          "internalType": "bytes32",
          "name": "neededRole",
          "type": "bytes32"
        }
      ],
      "name": "AccessControlUnauthorizedAccount",
      "type": "error"
    },
    {
      "inputs": [
        {
          "internalType": "address",
          "name": "asset",
          "type": "address"
        }
      ],
      "name": "FeedNotSet",
      "type": "error"
    },
    {
      "inputs": [],
      "name": "InvalidPrice",
      "type": "error"
    },
    {
      "inputs": [],
      "name": "PriceIsStale",
      "type": "error"
    },
    {
      "anonymous": false,
      "inputs": [
        {
          "indexed": true,
          "internalType": "bytes32",
          "name": "role",
          "type": "bytes32"
        },
        {
          "indexed": true,
          "internalType": "bytes32",
          "name": "previousAdminRole",
          "type": "bytes32"
        },
        {
          "indexed": true,
          "internalType": "bytes32",
          "name": "newAdminRole",
          "type": "bytes32"
        }
      ],
      "name": "RoleAdminChanged",
      "type": "event"
    },
    {
      "anonymous": false,
      "inputs": [
        {
          "indexed": true,
          "internalType": "bytes32",
          "name": "role",
          "type": "bytes32"
        },
        {
          "indexed": true,
          "internalType": "address",
          "name": "account",
          "type": "address"
        },
        {
          "indexed": true,
          "internalType": "address",
          "name": "sender",
          "type": "address"
        }
      ],
      "name": "RoleGranted",
      "type": "event"
    },
    {
      "anonymous": false,
      "inputs": [
        {
          "indexed": true,
          "internalType": "bytes32",
          "name": "role",
          "type": "bytes32"
        },
        {
          "indexed": true,
          "internalType": "address",
          "name": "account",
          "type": "address"
        },
        {
          "indexed": true,
          "internalType": "address",
          "name": "sender",
          "type": "address"
        }
      ],
      "name": "RoleRevoked",
      "type": "event"
    },
    {
      "inputs": [],
      "name": "BASE_CURRENCY",
      "outputs": [
        {
          "internalType": "address",
          "name": "",
          "type": "address"
        }
      ],
      "stateMutability": "view",
      "type": "function"
    },
    {
      "inputs": [],
      "name": "BASE_CURRENCY_UNIT",
      "outputs": [
        {
          "internalType": "uint256",
          "name": "",
          "type": "uint256"
        }
      ],
      "stateMutability": "view",
      "type": "function"
    },
    {
      "inputs": [],
      "name": "CHAINLINK_BASE_CURRENCY_UNIT",
      "outputs": [
        {
          "internalType": "uint256",
          "name": "",
          "type": "uint256"
        }
      ],
      "stateMutability": "view",
      "type": "function"
    },
    {
      "inputs": [],
      "name": "CHAINLINK_HEARTBEAT",
      "outputs": [
        {
          "internalType": "uint256",
          "name": "",
          "type": "uint256"
        }
      ],
      "stateMutability": "view",
      "type": "function"
    },
    {
      "inputs": [],
      "name": "DEFAULT_ADMIN_ROLE",
      "outputs": [
        {
          "internalType": "bytes32",
          "name": "",
          "type": "bytes32"
        }
      ],
      "stateMutability": "view",
      "type": "function"
    },
    {
      "inputs": [],
      "name": "ORACLE_MANAGER_ROLE",
      "outputs": [
        {
          "internalType": "bytes32",
          "name": "",
          "type": "bytes32"
        }
      ],
      "stateMutability": "view",
      "type": "function"
    },
    {
      "inputs": [
        {
          "internalType": "address",
          "name": "",
          "type": "address"
        }
      ],
      "name": "assetToFeed",
      "outputs": [
        {
          "internalType": "contract IPriceFeed",
          "name": "",
          "type": "address"
        }
      ],
      "stateMutability": "view",
      "type": "function"
    },
    {
      "inputs": [
        {
          "internalType": "address",
          "name": "asset",
          "type": "address"
        }
      ],
      "name": "getAssetPrice",
      "outputs": [
        {
          "internalType": "uint256",
          "name": "",
          "type": "uint256"
        }
      ],
      "stateMutability": "view",
      "type": "function"
    },
    {
      "inputs": [
        {
          "internalType": "address",
          "name": "asset",
          "type": "address"
        }
      ],
      "name": "getPriceInfo",
      "outputs": [
        {
          "internalType": "uint256",
          "name": "price",
          "type": "uint256"
        },
        {
          "internalType": "bool",
          "name": "isAlive",
          "type": "bool"
        }
      ],
      "stateMutability": "view",
      "type": "function"
    },
    {
      "inputs": [
        {
          "internalType": "bytes32",
          "name": "role",
          "type": "bytes32"
        }
      ],
      "name": "getRoleAdmin",
      "outputs": [
        {
          "internalType": "bytes32",
          "name": "",
          "type": "bytes32"
        }
      ],
      "stateMutability": "view",
      "type": "function"
    },
    {
      "inputs": [
        {
          "internalType": "bytes32",
          "name": "role",
          "type": "bytes32"
        },
        {
          "internalType": "address",
          "name": "account",
          "type": "address"
        }
      ],
      "name": "grantRole",
      "outputs": [],
      "stateMutability": "nonpayable",
      "type": "function"
    },
    {
      "inputs": [
        {
          "internalType": "bytes32",
          "name": "role",
          "type": "bytes32"
        },
        {
          "internalType": "address",
          "name": "account",
          "type": "address"
        }
      ],
      "name": "hasRole",
      "outputs": [
        {
          "internalType": "bool",
          "name": "",
          "type": "bool"
        }
      ],
      "stateMutability": "view",
      "type": "function"
    },
    {
      "inputs": [],
      "name": "heartbeatStaleTimeLimit",
      "outputs": [
        {
          "internalType": "uint256",
          "name": "",
          "type": "uint256"
        }
      ],
      "stateMutability": "view",
      "type": "function"
    },
    {
      "inputs": [
        {
          "internalType": "bytes32",
          "name": "role",
          "type": "bytes32"
        },
        {
          "internalType": "address",
          "name": "callerConfirmation",
          "type": "address"
        }
      ],
      "name": "renounceRole",
      "outputs": [],
      "stateMutability": "nonpayable",
      "type": "function"
    },
    {
      "inputs": [
        {
          "internalType": "bytes32",
          "name": "role",
          "type": "bytes32"
        },
        {
          "internalType": "address",
          "name": "account",
          "type": "address"
        }
      ],
      "name": "revokeRole",
      "outputs": [],
      "stateMutability": "nonpayable",
      "type": "function"
    },
    {
      "inputs": [
        {
          "internalType": "address",
          "name": "asset",
          "type": "address"
        },
        {
          "internalType": "address",
          "name": "feed",
          "type": "address"
        }
      ],
      "name": "setFeed",
      "outputs": [],
      "stateMutability": "nonpayable",
      "type": "function"
    },
    {
      "inputs": [
        {
          "internalType": "uint256",
          "name": "_newHeartbeatStaleTimeLimit",
          "type": "uint256"
        }
      ],
      "name": "setHeartbeatStaleTimeLimit",
      "outputs": [],
      "stateMutability": "nonpayable",
      "type": "function"
    },
    {
      "inputs": [
        {
          "internalType": "bytes4",
          "name": "interfaceId",
          "type": "bytes4"
        }
      ],
      "name": "supportsInterface",
      "outputs": [
        {
          "internalType": "bool",
          "name": "",
          "type": "bool"
        }
      ],
      "stateMutability": "view",
      "type": "function"
    }
  ],
  "transactionHash": "0xc30c5d24ffae9e5fddc7dc58dc74fece3e61048e0c4c3812282fa5277fa17e02",
  "args": [
    "0x0000000000000000000000000000000000000000",
    "1000000000000000000"
  ],
  "numDeployments": 1,
  "solcInputHash": "3119f14c142cd6db245e027e6458c4b3",
  "bytecode": "0x60c060405261070860015534801561001657600080fd5b50604051610aa7380380610aa783398101604081905261003591610135565b6001600160a01b03821660805260a08190528181610054600033610089565b5061007f7fced6982f480260bdd8ad5cb18ff2854f0306d78d904ad6cc107e8f3a0f526c1833610089565b505050505061016f565b6000828152602081815260408083206001600160a01b038516845290915281205460ff1661012b576000838152602081815260408083206001600160a01b03861684529091529020805460ff191660011790556100e33390565b6001600160a01b0316826001600160a01b0316847f2f8788117e7eff1d82e926ec794901d17c78024a50270940304540a733656f0d60405160405180910390a450600161012f565b5060005b92915050565b6000806040838503121561014857600080fd5b82516001600160a01b038116811461015f57600080fd5b6020939093015192949293505050565b60805160a05161090c61019b600039600081816101bd01526106c70152600061028e015261090c6000f3fe608060405234801561001057600080fd5b50600436106101165760003560e01c80639a999d45116100a2578063c5efe27c11610071578063c5efe27c14610266578063d547741f14610279578063e19f47001461028c578063e6741de2146102c6578063eae06eec146102ef57600080fd5b80639a999d451461021a578063a217fddf14610224578063b3596f071461022c578063bfc69e1c1461023f57600080fd5b806336568abe116100e957806336568abe1461019257806340b1eb10146101a55780638c89b64f146101b85780638edbf436146101df57806391d148541461020757600080fd5b806301ffc9a71461011b578063248a9ca3146101435780632ecac6fc146101745780632f2ff15d1461017d575b600080fd5b61012e610129366004610733565b6102fa565b60405190151581526020015b60405180910390f35b610166610151366004610764565b60009081526020819052604090206001015490565b60405190815260200161013a565b61016660015481565b61019061018b366004610799565b610331565b005b6101906101a0366004610799565b61035c565b6101906101b33660046107c5565b610394565b6101667f000000000000000000000000000000000000000000000000000000000000000081565b6101f26101ed3660046107ef565b6103ed565b6040805192835290151560208301520161013a565b61012e610215366004610799565b6104fc565b6101666201518081565b610166600081565b61016661023a3660046107ef565b610525565b6101667fced6982f480260bdd8ad5cb18ff2854f0306d78d904ad6cc107e8f3a0f526c1881565b610190610274366004610764565b61055c565b610190610287366004610799565b61058c565b7f00000000000000000000000000000000000000000000000000000000000000005b6040516001600160a01b03909116815260200161013a565b6102ae6102d43660046107ef565b6002602052600090815260409020546001600160a01b031681565b6101666305f5e10081565b60006001600160e01b03198216637965db0b60e01b148061032b57506301ffc9a760e01b6001600160e01b03198316145b92915050565b60008281526020819052604090206001015461034c816105b1565b61035683836105be565b50505050565b6001600160a01b03811633146103855760405163334bd91960e11b815260040160405180910390fd5b61038f8282610650565b505050565b7fced6982f480260bdd8ad5cb18ff2854f0306d78d904ad6cc107e8f3a0f526c186103be816105b1565b506001600160a01b03918216600090815260026020526040902080546001600160a01b03191691909216179055565b6001600160a01b0380821660009081526002602052604081205490918291168061043a57604051630dcaf86b60e01b81526001600160a01b03851660048201526024015b60405180910390fd5b600080826001600160a01b031663feaf968c6040518163ffffffff1660e01b815260040160a060405180830381865afa15801561047b573d6000803e3d6000fd5b505050506040513d601f19601f8201168201806040525081019061049f9190610824565b50935050925050600082136104c65760405162bfc92160e01b815260040160405180910390fd5b8194504260015462015180836104dc919061088a565b6104e6919061088a565b1193506104f2856106bb565b9450505050915091565b6000918252602082815260408084206001600160a01b0393909316845291905290205460ff1690565b6000806000610533846103ed565b9150915080610555576040516342bc305b60e11b815260040160405180910390fd5b5092915050565b7fced6982f480260bdd8ad5cb18ff2854f0306d78d904ad6cc107e8f3a0f526c18610586816105b1565b50600155565b6000828152602081905260409020600101546105a7816105b1565b6103568383610650565b6105bb81336106f6565b50565b60006105ca83836104fc565b610648576000838152602081815260408083206001600160a01b03861684529091529020805460ff191660011790556106003390565b6001600160a01b0316826001600160a01b0316847f2f8788117e7eff1d82e926ec794901d17c78024a50270940304540a733656f0d60405160405180910390a450600161032b565b50600061032b565b600061065c83836104fc565b15610648576000838152602081815260408083206001600160a01b0386168085529252808320805460ff1916905551339286917ff6391f5c32d9c69d2a47ea670b442974b53935d1edc7fd64eb21e047a839171b9190a450600161032b565b60006305f5e1006106ec7f00000000000000000000000000000000000000000000000000000000000000008461089d565b61032b91906108b4565b61070082826104fc565b61072f5760405163e2517d3f60e01b81526001600160a01b038216600482015260248101839052604401610431565b5050565b60006020828403121561074557600080fd5b81356001600160e01b03198116811461075d57600080fd5b9392505050565b60006020828403121561077657600080fd5b5035919050565b80356001600160a01b038116811461079457600080fd5b919050565b600080604083850312156107ac57600080fd5b823591506107bc6020840161077d565b90509250929050565b600080604083850312156107d857600080fd5b6107e18361077d565b91506107bc6020840161077d565b60006020828403121561080157600080fd5b61075d8261077d565b805169ffffffffffffffffffff8116811461079457600080fd5b600080600080600060a0868803121561083c57600080fd5b6108458661080a565b94506020860151935060408601519250606086015191506108686080870161080a565b90509295509295909350565b634e487b7160e01b600052601160045260246000fd5b8082018082111561032b5761032b610874565b808202811582820484141761032b5761032b610874565b6000826108d157634e487b7160e01b600052601260045260246000fd5b50049056fea26469706673582212205f8a9740f7795e6eb356e701c6b6459dc3a2e8e35de52becfe8db0bf3638be3664736f6c63430008160033",
  "devdoc": {
    "details": "Implementation of BaseChainlinkWrapper for Redstone oracle feeds that follow Chainlink AggregatorV3Interface",
    "errors": {
      "AccessControlBadConfirmation()": [
        {
          "details": "The caller of a function is not the expected one. NOTE: Don't confuse with {AccessControlUnauthorizedAccount}."
        }
      ],
      "AccessControlUnauthorizedAccount(address,bytes32)": [
        {
          "details": "The `account` is missing a role."
        }
      ]
    },
    "events": {
      "RoleAdminChanged(bytes32,bytes32,bytes32)": {
        "details": "Emitted when `newAdminRole` is set as ``role``'s admin role, replacing `previousAdminRole` `DEFAULT_ADMIN_ROLE` is the starting admin for all roles, despite {RoleAdminChanged} not being emitted to signal this."
      },
      "RoleGranted(bytes32,address,address)": {
        "details": "Emitted when `account` is granted `role`. `sender` is the account that originated the contract call. This account bears the admin role (for the granted role). Expected in cases where the role was granted using the internal {AccessControl-_grantRole}."
      },
      "RoleRevoked(bytes32,address,address)": {
        "details": "Emitted when `account` is revoked `role`. `sender` is the account that originated the contract call:   - if using `revokeRole`, it is the admin role bearer   - if using `renounceRole`, it is the role bearer (i.e. `account`)"
      }
    },
    "kind": "dev",
    "methods": {
      "BASE_CURRENCY()": {
        "returns": {
          "_0": "Returns the base currency address"
        }
      },
      "getAssetPrice(address)": {
        "params": {
          "asset": "The address of the asset to get the price for"
        },
        "returns": {
          "_0": "The current price of the asset"
        }
      },
      "getPriceInfo(address)": {
        "params": {
          "asset": "The address of the asset to get the price for"
        },
        "returns": {
          "isAlive": "Whether the price feed is considered active/valid",
          "price": "The price of the asset in base currency units"
        }
      },
      "getRoleAdmin(bytes32)": {
        "details": "Returns the admin role that controls `role`. See {grantRole} and {revokeRole}. To change a role's admin, use {_setRoleAdmin}."
      },
      "grantRole(bytes32,address)": {
        "details": "Grants `role` to `account`. If `account` had not been already granted `role`, emits a {RoleGranted} event. Requirements: - the caller must have ``role``'s admin role. May emit a {RoleGranted} event."
      },
      "hasRole(bytes32,address)": {
        "details": "Returns `true` if `account` has been granted `role`."
      },
      "renounceRole(bytes32,address)": {
        "details": "Revokes `role` from the calling account. Roles are often managed via {grantRole} and {revokeRole}: this function's purpose is to provide a mechanism for accounts to lose their privileges if they are compromised (such as when a trusted device is misplaced). If the calling account had been revoked `role`, emits a {RoleRevoked} event. Requirements: - the caller must be `callerConfirmation`. May emit a {RoleRevoked} event."
      },
      "revokeRole(bytes32,address)": {
        "details": "Revokes `role` from `account`. If `account` had been granted `role`, emits a {RoleRevoked} event. Requirements: - the caller must have ``role``'s admin role. May emit a {RoleRevoked} event."
      },
      "setFeed(address,address)": {
        "params": {
          "asset": "The address of the asset",
          "feed": "The address of the Redstone Chainlink-compatible price feed"
        }
      },
      "setHeartbeatStaleTimeLimit(uint256)": {
        "params": {
          "_newHeartbeatStaleTimeLimit": "The new heartbeat stale time limit"
        }
      },
      "supportsInterface(bytes4)": {
        "details": "Returns true if this contract implements the interface defined by `interfaceId`. See the corresponding https://eips.ethereum.org/EIPS/eip-165#how-interfaces-are-identified[ERC section] to learn more about how these ids are created. This function call must use less than 30 000 gas."
      }
    },
    "title": "RedstoneChainlinkWrapper",
    "version": 1
  },
  "userdoc": {
    "kind": "user",
    "methods": {
      "BASE_CURRENCY()": {
        "notice": "Returns the base currency address"
      },
      "BASE_CURRENCY_UNIT()": {
        "notice": "Returns the base currency unit"
      },
      "getAssetPrice(address)": {
        "notice": "Gets the current price of an asset"
      },
      "getPriceInfo(address)": {
        "notice": "Gets the price information for an asset"
      },
      "setFeed(address,address)": {
        "notice": "Sets the price feed for an asset"
      },
      "setHeartbeatStaleTimeLimit(uint256)": {
        "notice": "Sets the heartbeat stale time limit"
      }
    },
    "version": 1
  },
  "storageLayout": {
    "storage": [
      {
        "astId": 3317,
        "contract": "contracts/oracle_aggregator/wrapper/RedstoneChainlinkWrapper.sol:RedstoneChainlinkWrapper",
        "label": "_roles",
        "offset": 0,
        "slot": "0",
        "type": "t_mapping(t_bytes32,t_struct(RoleData)3312_storage)"
      },
      {
        "astId": 77171,
        "contract": "contracts/oracle_aggregator/wrapper/RedstoneChainlinkWrapper.sol:RedstoneChainlinkWrapper",
        "label": "heartbeatStaleTimeLimit",
        "offset": 0,
        "slot": "1",
        "type": "t_uint256"
      },
      {
        "astId": 78540,
        "contract": "contracts/oracle_aggregator/wrapper/RedstoneChainlinkWrapper.sol:RedstoneChainlinkWrapper",
        "label": "assetToFeed",
        "offset": 0,
        "slot": "2",
        "type": "t_mapping(t_address,t_contract(IPriceFeed)77359)"
      }
    ],
    "types": {
      "t_address": {
        "encoding": "inplace",
        "label": "address",
        "numberOfBytes": "20"
      },
      "t_bool": {
        "encoding": "inplace",
        "label": "bool",
        "numberOfBytes": "1"
      },
      "t_bytes32": {
        "encoding": "inplace",
        "label": "bytes32",
        "numberOfBytes": "32"
      },
      "t_contract(IPriceFeed)77359": {
        "encoding": "inplace",
        "label": "contract IPriceFeed",
        "numberOfBytes": "20"
      },
      "t_mapping(t_address,t_bool)": {
        "encoding": "mapping",
        "key": "t_address",
        "label": "mapping(address => bool)",
        "numberOfBytes": "32",
        "value": "t_bool"
      },
      "t_mapping(t_address,t_contract(IPriceFeed)77359)": {
        "encoding": "mapping",
        "key": "t_address",
        "label": "mapping(address => contract IPriceFeed)",
        "numberOfBytes": "32",
        "value": "t_contract(IPriceFeed)77359"
      },
      "t_mapping(t_bytes32,t_struct(RoleData)3312_storage)": {
        "encoding": "mapping",
        "key": "t_bytes32",
        "label": "mapping(bytes32 => struct AccessControl.RoleData)",
        "numberOfBytes": "32",
        "value": "t_struct(RoleData)3312_storage"
      },
      "t_struct(RoleData)3312_storage": {
        "encoding": "inplace",
        "label": "struct AccessControl.RoleData",
        "members": [
          {
            "astId": 3309,
            "contract": "contracts/oracle_aggregator/wrapper/RedstoneChainlinkWrapper.sol:RedstoneChainlinkWrapper",
            "label": "hasRole",
            "offset": 0,
            "slot": "0",
            "type": "t_mapping(t_address,t_bool)"
          },
          {
            "astId": 3311,
            "contract": "contracts/oracle_aggregator/wrapper/RedstoneChainlinkWrapper.sol:RedstoneChainlinkWrapper",
            "label": "adminRole",
            "offset": 0,
            "slot": "1",
            "type": "t_bytes32"
          }
        ],
        "numberOfBytes": "64"
      },
      "t_uint256": {
        "encoding": "inplace",
        "label": "uint256",
        "numberOfBytes": "32"
      }
    }
  }
}