{
  "address": "0xBB20c8065560639BfC059354AE28f77c70296640",
  "abi": [
    {
      "inputs": [
        {
          "internalType": "address",
          "name": "baseCurrency",
          "type": "address"
        },
        {
          "internalType": "uint256",
          "name": "_baseCurrencyUnit",
          "type": "uint256"
        }
      ],
      "stateMutability": "nonpayable",
      "type": "constructor"
    },
    {
      "inputs": [],
      "name": "AccessControlBadConfirmation",
      "type": "error"
    },
    {
      "inputs": [
        {
          "internalType": "address",
          "name": "account",
          "type": "address"
        },
        {
          "internalType": "bytes32",
          "name": "neededRole",
          "type": "bytes32"
        }
      ],
      "name": "AccessControlUnauthorizedAccount",
      "type": "error"
    },
    {
      "inputs": [
        {
          "internalType": "address",
          "name": "feed",
          "type": "address"
        },
        {
          "internalType": "uint8",
          "name": "feedDecimals",
          "type": "uint8"
        },
        {
          "internalType": "uint8",
          "name": "expectedDecimals",
          "type": "uint8"
        }
      ],
      "name": "DecimalsMismatch",
      "type": "error"
    },
    {
      "inputs": [
        {
          "internalType": "address",
          "name": "asset",
          "type": "address"
        }
      ],
      "name": "FeedNotSet",
      "type": "error"
    },
    {
      "inputs": [],
      "name": "InvalidPrice",
      "type": "error"
    },
    {
      "inputs": [],
      "name": "PriceIsStale",
      "type": "error"
    },
    {
      "anonymous": false,
      "inputs": [
        {
          "indexed": true,
          "internalType": "bytes32",
          "name": "role",
          "type": "bytes32"
        },
        {
          "indexed": true,
          "internalType": "bytes32",
          "name": "previousAdminRole",
          "type": "bytes32"
        },
        {
          "indexed": true,
          "internalType": "bytes32",
          "name": "newAdminRole",
          "type": "bytes32"
        }
      ],
      "name": "RoleAdminChanged",
      "type": "event"
    },
    {
      "anonymous": false,
      "inputs": [
        {
          "indexed": true,
          "internalType": "bytes32",
          "name": "role",
          "type": "bytes32"
        },
        {
          "indexed": true,
          "internalType": "address",
          "name": "account",
          "type": "address"
        },
        {
          "indexed": true,
          "internalType": "address",
          "name": "sender",
          "type": "address"
        }
      ],
      "name": "RoleGranted",
      "type": "event"
    },
    {
      "anonymous": false,
      "inputs": [
        {
          "indexed": true,
          "internalType": "bytes32",
          "name": "role",
          "type": "bytes32"
        },
        {
          "indexed": true,
          "internalType": "address",
          "name": "account",
          "type": "address"
        },
        {
          "indexed": true,
          "internalType": "address",
          "name": "sender",
          "type": "address"
        }
      ],
      "name": "RoleRevoked",
      "type": "event"
    },
    {
      "anonymous": false,
      "inputs": [
        {
          "indexed": true,
          "internalType": "address",
          "name": "asset",
          "type": "address"
        }
      ],
      "name": "ThresholdConfigRemoved",
      "type": "event"
    },
    {
      "anonymous": false,
      "inputs": [
        {
          "indexed": true,
          "internalType": "address",
          "name": "asset",
          "type": "address"
        },
        {
          "indexed": false,
          "internalType": "uint256",
          "name": "lowerThresholdInBase",
          "type": "uint256"
        },
        {
          "indexed": false,
          "internalType": "uint256",
          "name": "fixedPriceInBase",
          "type": "uint256"
        }
      ],
      "name": "ThresholdConfigSet",
      "type": "event"
    },
    {
      "inputs": [],
      "name": "BASE_CURRENCY",
      "outputs": [
        {
          "internalType": "address",
          "name": "",
          "type": "address"
        }
      ],
      "stateMutability": "view",
      "type": "function"
    },
    {
      "inputs": [],
      "name": "BASE_CURRENCY_DECIMALS",
      "outputs": [
        {
          "internalType": "uint8",
          "name": "",
          "type": "uint8"
        }
      ],
      "stateMutability": "view",
      "type": "function"
    },
    {
      "inputs": [],
      "name": "BASE_CURRENCY_UNIT",
      "outputs": [
        {
          "internalType": "uint256",
          "name": "",
          "type": "uint256"
        }
      ],
      "stateMutability": "view",
      "type": "function"
    },
    {
      "inputs": [],
      "name": "DEFAULT_ADMIN_ROLE",
      "outputs": [
        {
          "internalType": "bytes32",
          "name": "",
          "type": "bytes32"
        }
      ],
      "stateMutability": "view",
      "type": "function"
    },
    {
      "inputs": [],
      "name": "LIQUITY_V2_BASE_CURRENCY_UNIT",
      "outputs": [
        {
          "internalType": "uint256",
          "name": "",
          "type": "uint256"
        }
      ],
      "stateMutability": "view",
      "type": "function"
    },
    {
      "inputs": [],
      "name": "ORACLE_MANAGER_ROLE",
      "outputs": [
        {
          "internalType": "bytes32",
          "name": "",
          "type": "bytes32"
        }
      ],
      "stateMutability": "view",
      "type": "function"
    },
    {
      "inputs": [
        {
          "internalType": "address",
          "name": "",
          "type": "address"
        }
      ],
      "name": "assetThresholds",
      "outputs": [
        {
          "internalType": "uint256",
          "name": "lowerThresholdInBase",
          "type": "uint256"
        },
        {
          "internalType": "uint256",
          "name": "fixedPriceInBase",
          "type": "uint256"
        }
      ],
      "stateMutability": "view",
      "type": "function"
    },
    {
      "inputs": [
        {
          "internalType": "address",
          "name": "",
          "type": "address"
        }
      ],
      "name": "assetToFeed",
      "outputs": [
        {
          "internalType": "contract LiquityV2OracleAggregatorV3Interface",
          "name": "",
          "type": "address"
        }
      ],
      "stateMutability": "view",
      "type": "function"
    },
    {
      "inputs": [],
      "name": "feedHeartbeat",
      "outputs": [
        {
          "internalType": "uint256",
          "name": "",
          "type": "uint256"
        }
      ],
      "stateMutability": "view",
      "type": "function"
    },
    {
      "inputs": [
        {
          "internalType": "address",
          "name": "asset",
          "type": "address"
        }
      ],
      "name": "getAssetPrice",
      "outputs": [
        {
          "internalType": "uint256",
          "name": "",
          "type": "uint256"
        }
      ],
      "stateMutability": "view",
      "type": "function"
    },
    {
      "inputs": [
        {
          "internalType": "address",
          "name": "asset",
          "type": "address"
        }
      ],
      "name": "getPriceInfo",
      "outputs": [
        {
          "internalType": "uint256",
          "name": "price",
          "type": "uint256"
        },
        {
          "internalType": "bool",
          "name": "isAlive",
          "type": "bool"
        }
      ],
      "stateMutability": "view",
      "type": "function"
    },
    {
      "inputs": [
        {
          "internalType": "bytes32",
          "name": "role",
          "type": "bytes32"
        }
      ],
      "name": "getRoleAdmin",
      "outputs": [
        {
          "internalType": "bytes32",
          "name": "",
          "type": "bytes32"
        }
      ],
      "stateMutability": "view",
      "type": "function"
    },
    {
      "inputs": [
        {
          "internalType": "bytes32",
          "name": "role",
          "type": "bytes32"
        },
        {
          "internalType": "address",
          "name": "account",
          "type": "address"
        }
      ],
      "name": "grantRole",
      "outputs": [],
      "stateMutability": "nonpayable",
      "type": "function"
    },
    {
      "inputs": [
        {
          "internalType": "bytes32",
          "name": "role",
          "type": "bytes32"
        },
        {
          "internalType": "address",
          "name": "account",
          "type": "address"
        }
      ],
      "name": "hasRole",
      "outputs": [
        {
          "internalType": "bool",
          "name": "",
          "type": "bool"
        }
      ],
      "stateMutability": "view",
      "type": "function"
    },
    {
      "inputs": [],
      "name": "heartbeatStaleTimeLimit",
      "outputs": [
        {
          "internalType": "uint256",
          "name": "",
          "type": "uint256"
        }
      ],
      "stateMutability": "view",
      "type": "function"
    },
    {
      "inputs": [
        {
          "internalType": "address",
          "name": "asset",
          "type": "address"
        }
      ],
      "name": "removeThresholdConfig",
      "outputs": [],
      "stateMutability": "nonpayable",
      "type": "function"
    },
    {
      "inputs": [
        {
          "internalType": "bytes32",
          "name": "role",
          "type": "bytes32"
        },
        {
          "internalType": "address",
          "name": "callerConfirmation",
          "type": "address"
        }
      ],
      "name": "renounceRole",
      "outputs": [],
      "stateMutability": "nonpayable",
      "type": "function"
    },
    {
      "inputs": [
        {
          "internalType": "bytes32",
          "name": "role",
          "type": "bytes32"
        },
        {
          "internalType": "address",
          "name": "account",
          "type": "address"
        }
      ],
      "name": "revokeRole",
      "outputs": [],
      "stateMutability": "nonpayable",
      "type": "function"
    },
    {
      "inputs": [
        {
          "internalType": "address",
          "name": "asset",
          "type": "address"
        },
        {
          "internalType": "address",
          "name": "feed",
          "type": "address"
        }
      ],
      "name": "setFeed",
      "outputs": [],
      "stateMutability": "nonpayable",
      "type": "function"
    },
    {
      "inputs": [
        {
          "internalType": "uint256",
          "name": "_newHeartbeat",
          "type": "uint256"
        }
      ],
      "name": "setFeedHeartbeat",
      "outputs": [],
      "stateMutability": "nonpayable",
      "type": "function"
    },
    {
      "inputs": [
        {
          "internalType": "uint256",
          "name": "_newHeartbeatStaleTimeLimit",
          "type": "uint256"
        }
      ],
      "name": "setHeartbeatStaleTimeLimit",
      "outputs": [],
      "stateMutability": "nonpayable",
      "type": "function"
    },
    {
      "inputs": [
        {
          "internalType": "address",
          "name": "asset",
          "type": "address"
        },
        {
          "internalType": "uint256",
          "name": "lowerThresholdInBase",
          "type": "uint256"
        },
        {
          "internalType": "uint256",
          "name": "fixedPriceInBase",
          "type": "uint256"
        }
      ],
      "name": "setThresholdConfig",
      "outputs": [],
      "stateMutability": "nonpayable",
      "type": "function"
    },
    {
      "inputs": [
        {
          "internalType": "bytes4",
          "name": "interfaceId",
          "type": "bytes4"
        }
      ],
      "name": "supportsInterface",
      "outputs": [
        {
          "internalType": "bool",
          "name": "",
          "type": "bool"
        }
      ],
      "stateMutability": "view",
      "type": "function"
    }
  ],
  "transactionHash": "0xde0ef67e8abd2ec830f35f022198dadf59f5eab59c6639e0c2a2328068bf6e63",
  "args": [
    "0x0000000000000000000000000000000000000000",
    "1000000000000000000"
  ],
  "numDeployments": 1,
  "solcInputHash": "f86342f0edd701fef3dda6d37598d6e9",
  "bytecode": "0x60c06040526201518060015561070860025534801561001d57600080fd5b50604051610e31380380610e3183398101604081905261003c91610140565b6001600160a01b03821660805260a08190528181818161005d600033610094565b506100887fced6982f480260bdd8ad5cb18ff2854f0306d78d904ad6cc107e8f3a0f526c1833610094565b5050505050505061017a565b6000828152602081815260408083206001600160a01b038516845290915281205460ff16610136576000838152602081815260408083206001600160a01b03861684529091529020805460ff191660011790556100ee3390565b6001600160a01b0316826001600160a01b0316847f2f8788117e7eff1d82e926ec794901d17c78024a50270940304540a733656f0d60405160405180910390a450600161013a565b5060005b92915050565b6000806040838503121561015357600080fd5b82516001600160a01b038116811461016a57600080fd5b6020939093015192949293505050565b60805160a051610c8b6101a6600039600081816102430152610a0d015260006103470152610c8b6000f3fe608060405234801561001057600080fd5b506004361061014d5760003560e01c80638edbf436116100c3578063bfc69e1c1161007c578063bfc69e1c1461030a578063c5efe27c1461031f578063d547741f14610332578063e19f470014610345578063e6741de21461037f578063fc1bc903146103a857600080fd5b80638edbf436146102655780638f7af4211461028d57806391d14854146102a0578063a217fddf146102b3578063a794d152146102bb578063b3596f07146102f757600080fd5b80632f2ff15d116101155780632f2ff15d146101d8578063311d5c62146101eb57806336568abe1461020557806340b1eb10146102185780634bafe0651461022b5780638c89b64f1461023e57600080fd5b806301ffc9a714610152578063042818f91461017a57806308f7bfe11461018f578063248a9ca3146101ac5780632ecac6fc146101cf575b600080fd5b610165610160366004610a3c565b6103b1565b60405190151581526020015b60405180910390f35b61018d610188366004610a89565b6103e8565b005b61019e670de0b6b3a764000081565b604051908152602001610171565b61019e6101ba366004610aa4565b60009081526020819052604090206001015490565b61019e60025481565b61018d6101e6366004610abd565b61044b565b6101f3601281565b60405160ff9091168152602001610171565b61018d610213366004610abd565b610476565b61018d610226366004610ae9565b6104ae565b61018d610239366004610aa4565b6105d9565b61019e7f000000000000000000000000000000000000000000000000000000000000000081565b610278610273366004610a89565b6105f7565b60408051928352901515602083015201610171565b61018d61029b366004610b13565b61065d565b6101656102ae366004610abd565b6106ec565b61019e600081565b6102e26102c9366004610a89565b6004602052600090815260409020805460019091015482565b60408051928352602083019190915201610171565b61019e610305366004610a89565b610715565b61019e600080516020610c3683398151915281565b61018d61032d366004610aa4565b61074c565b61018d610340366004610abd565b61076a565b7f00000000000000000000000000000000000000000000000000000000000000005b6040516001600160a01b039091168152602001610171565b61036761038d366004610a89565b6003602052600090815260409020546001600160a01b031681565b61019e60015481565b60006001600160e01b03198216637965db0b60e01b14806103e257506301ffc9a760e01b6001600160e01b03198316145b92915050565b600080516020610c368339815191526104008161078f565b6001600160a01b038216600081815260046020526040808220828155600101829055517fe33ca422cb32fc509d95272b11d42c89c665a8968c21a483226b773e18c072f19190a25050565b6000828152602081905260409020600101546104668161078f565b610470838361079c565b50505050565b6001600160a01b038116331461049f5760405163334bd91960e11b815260040160405180910390fd5b6104a9828261082e565b505050565b600080516020610c368339815191526104c68161078f565b6001600160a01b0382166104fd57604051630dcaf86b60e01b81526001600160a01b03841660048201526024015b60405180910390fd5b60008290506000816001600160a01b031663313ce5676040518163ffffffff1660e01b8152600401602060405180830381865afa158015610542573d6000803e3d6000fd5b505050506040513d601f19601f820116820180604052508101906105669190610b46565b905060ff81166012146105a7576040516385d6e41f60e01b81526001600160a01b038516600482015260ff82166024820152601260448201526064016104f4565b506001600160a01b03938416600090815260036020526040902080546001600160a01b03191691909416179092555050565b600080516020610c368339815191526105f18161078f565b50600155565b60008061060383610899565b90925090508015610658576001600160a01b0383166000908152600460209081526040918290208251808401909352805480845260019091015491830191909152156106565761065383826109a2565b92505b505b915091565b600080516020610c368339815191526106758161078f565b60408051808201825284815260208082018581526001600160a01b038816600081815260048452859020935184559051600190930192909255825186815290810185905290917fc7f1785f536ea381a57caaf882172a5df51535dc45cf06657813919e3cf535e3910160405180910390a250505050565b6000918252602082815260408084206001600160a01b0393909316845291905290205460ff1690565b6000806000610723846105f7565b9150915080610745576040516342bc305b60e11b815260040160405180910390fd5b5092915050565b600080516020610c368339815191526107648161078f565b50600255565b6000828152602081905260409020600101546107858161078f565b610470838361082e565b61079981336109c0565b50565b60006107a883836106ec565b610826576000838152602081815260408083206001600160a01b03861684529091529020805460ff191660011790556107de3390565b6001600160a01b0316826001600160a01b0316847f2f8788117e7eff1d82e926ec794901d17c78024a50270940304540a733656f0d60405160405180910390a45060016103e2565b5060006103e2565b600061083a83836106ec565b15610826576000838152602081815260408083206001600160a01b0386168085529252808320805460ff1916905551339286917ff6391f5c32d9c69d2a47ea670b442974b53935d1edc7fd64eb21e047a839171b9190a45060016103e2565b6001600160a01b038082166000908152600360205260408120549091829116806108e157604051630dcaf86b60e01b81526001600160a01b03851660048201526024016104f4565b600080826001600160a01b031663feaf968c6040518163ffffffff1660e01b815260040160a060405180830381865afa158015610922573d6000803e3d6000fd5b505050506040513d601f19601f820116820180604052508101906109469190610b83565b509350509250506000821361096d5760405162bfc92160e01b815260040160405180910390fd5b81945042600254600154836109829190610be9565b61098c9190610be9565b119350610998856109fd565b9450505050915091565b80516000908311156109b9575060208101516103e2565b5090919050565b6109ca82826106ec565b6109f95760405163e2517d3f60e01b81526001600160a01b0382166004820152602481018390526044016104f4565b5050565b6000670de0b6b3a7640000610a327f000000000000000000000000000000000000000000000000000000000000000084610bfc565b6103e29190610c13565b600060208284031215610a4e57600080fd5b81356001600160e01b031981168114610a6657600080fd5b9392505050565b80356001600160a01b0381168114610a8457600080fd5b919050565b600060208284031215610a9b57600080fd5b610a6682610a6d565b600060208284031215610ab657600080fd5b5035919050565b60008060408385031215610ad057600080fd5b82359150610ae060208401610a6d565b90509250929050565b60008060408385031215610afc57600080fd5b610b0583610a6d565b9150610ae060208401610a6d565b600080600060608486031215610b2857600080fd5b610b3184610a6d565b95602085013595506040909401359392505050565b600060208284031215610b5857600080fd5b815160ff81168114610a6657600080fd5b805169ffffffffffffffffffff81168114610a8457600080fd5b600080600080600060a08688031215610b9b57600080fd5b610ba486610b69565b9450602086015193506040860151925060608601519150610bc760808701610b69565b90509295509295909350565b634e487b7160e01b600052601160045260246000fd5b808201808211156103e2576103e2610bd3565b80820281158282048414176103e2576103e2610bd3565b600082610c3057634e487b7160e01b600052601260045260246000fd5b50049056feced6982f480260bdd8ad5cb18ff2854f0306d78d904ad6cc107e8f3a0f526c18a2646970667358221220141ad6518ebb5a2ef8f08bf927f2257a33d6ab97ae4febe176f6864141dcf7ee64736f6c63430008160033",
  "devdoc": {
    "errors": {
      "AccessControlBadConfirmation()": [
        {
          "details": "The caller of a function is not the expected one. NOTE: Don't confuse with {AccessControlUnauthorizedAccount}."
        }
      ],
      "AccessControlUnauthorizedAccount(address,bytes32)": [
        {
          "details": "The `account` is missing a role."
        }
      ]
    },
    "events": {
      "RoleAdminChanged(bytes32,bytes32,bytes32)": {
        "details": "Emitted when `newAdminRole` is set as ``role``'s admin role, replacing `previousAdminRole` `DEFAULT_ADMIN_ROLE` is the starting admin for all roles, despite {RoleAdminChanged} not being emitted to signal this."
      },
      "RoleGranted(bytes32,address,address)": {
        "details": "Emitted when `account` is granted `role`. `sender` is the account that originated the contract call. This account bears the admin role (for the granted role). Expected in cases where the role was granted using the internal {AccessControl-_grantRole}."
      },
      "RoleRevoked(bytes32,address,address)": {
        "details": "Emitted when `account` is revoked `role`. `sender` is the account that originated the contract call:   - if using `revokeRole`, it is the admin role bearer   - if using `renounceRole`, it is the role bearer (i.e. `account`)"
      }
    },
    "kind": "dev",
    "methods": {
      "BASE_CURRENCY()": {
        "returns": {
          "_0": "Returns the base currency address"
        }
      },
      "getAssetPrice(address)": {
        "params": {
          "asset": "The address of the asset to get the price for"
        },
        "returns": {
          "_0": "The current price of the asset"
        }
      },
      "getPriceInfo(address)": {
        "details": "Reads price directly from Chainlink-like feed using latestRoundData()",
        "params": {
          "asset": "The address of the asset to get the price for"
        },
        "returns": {
          "isAlive": "Whether the price feed is considered active/valid",
          "price": "The price of the asset in base currency units"
        }
      },
      "getRoleAdmin(bytes32)": {
        "details": "Returns the admin role that controls `role`. See {grantRole} and {revokeRole}. To change a role's admin, use {_setRoleAdmin}."
      },
      "grantRole(bytes32,address)": {
        "details": "Grants `role` to `account`. If `account` had not been already granted `role`, emits a {RoleGranted} event. Requirements: - the caller must have ``role``'s admin role. May emit a {RoleGranted} event."
      },
      "hasRole(bytes32,address)": {
        "details": "Returns `true` if `account` has been granted `role`."
      },
      "renounceRole(bytes32,address)": {
        "details": "Revokes `role` from the calling account. Roles are often managed via {grantRole} and {revokeRole}: this function's purpose is to provide a mechanism for accounts to lose their privileges if they are compromised (such as when a trusted device is misplaced). If the calling account had been revoked `role`, emits a {RoleRevoked} event. Requirements: - the caller must be `callerConfirmation`. May emit a {RoleRevoked} event."
      },
      "revokeRole(bytes32,address)": {
        "details": "Revokes `role` from `account`. If `account` had been granted `role`, emits a {RoleRevoked} event. Requirements: - the caller must have ``role``'s admin role. May emit a {RoleRevoked} event."
      },
      "setFeed(address,address)": {
        "details": "Validates that the feed is not zero address and that feed decimals match the base currency decimals",
        "params": {
          "asset": "The address of the asset",
          "feed": "The address of the Tellor oracle feed implementing LiquityV2OracleAggregatorV3Interface"
        }
      },
      "setFeedHeartbeat(uint256)": {
        "params": {
          "_newHeartbeat": "The new heartbeat duration in seconds"
        }
      },
      "setHeartbeatStaleTimeLimit(uint256)": {
        "params": {
          "_newHeartbeatStaleTimeLimit": "The new heartbeat stale time limit"
        }
      },
      "supportsInterface(bytes4)": {
        "details": "Returns true if this contract implements the interface defined by `interfaceId`. See the corresponding https://eips.ethereum.org/EIPS/eip-165#how-interfaces-are-identified[ERC section] to learn more about how these ids are created. This function call must use less than 30 000 gas."
      }
    },
    "version": 1
  },
  "userdoc": {
    "kind": "user",
    "methods": {
      "BASE_CURRENCY()": {
        "notice": "Returns the base currency address"
      },
      "BASE_CURRENCY_UNIT()": {
        "notice": "Returns the base currency unit"
      },
      "assetToFeed(address)": {
        "notice": "Mapping from asset address to Chainlink-like feed"
      },
      "getAssetPrice(address)": {
        "notice": "Gets the current price of an asset"
      },
      "getPriceInfo(address)": {
        "notice": "Gets the price information for an asset"
      },
      "setFeed(address,address)": {
        "notice": "Sets the Tellor oracle feed for an asset"
      },
      "setFeedHeartbeat(uint256)": {
        "notice": "Sets the price feed heartbeat duration"
      },
      "setHeartbeatStaleTimeLimit(uint256)": {
        "notice": "Sets the heartbeat stale time limit"
      }
    },
    "version": 1
  },
  "storageLayout": {
    "storage": [
      {
        "astId": 27,
        "contract": "contracts/oracle_aggregator/wrapper/TellorWrapperWithThresholding.sol:TellorWrapperWithThresholding",
        "label": "_roles",
        "offset": 0,
        "slot": "0",
        "type": "t_mapping(t_bytes32,t_struct(RoleData)22_storage)"
      },
      {
        "astId": 1084,
        "contract": "contracts/oracle_aggregator/wrapper/TellorWrapperWithThresholding.sol:TellorWrapperWithThresholding",
        "label": "feedHeartbeat",
        "offset": 0,
        "slot": "1",
        "type": "t_uint256"
      },
      {
        "astId": 1091,
        "contract": "contracts/oracle_aggregator/wrapper/TellorWrapperWithThresholding.sol:TellorWrapperWithThresholding",
        "label": "heartbeatStaleTimeLimit",
        "offset": 0,
        "slot": "2",
        "type": "t_uint256"
      },
      {
        "astId": 1713,
        "contract": "contracts/oracle_aggregator/wrapper/TellorWrapperWithThresholding.sol:TellorWrapperWithThresholding",
        "label": "assetToFeed",
        "offset": 0,
        "slot": "3",
        "type": "t_mapping(t_address,t_contract(LiquityV2OracleAggregatorV3Interface)1255)"
      },
      {
        "astId": 1867,
        "contract": "contracts/oracle_aggregator/wrapper/TellorWrapperWithThresholding.sol:TellorWrapperWithThresholding",
        "label": "assetThresholds",
        "offset": 0,
        "slot": "4",
        "type": "t_mapping(t_address,t_struct(ThresholdConfig)1989_storage)"
      }
    ],
    "types": {
      "t_address": {
        "encoding": "inplace",
        "label": "address",
        "numberOfBytes": "20"
      },
      "t_bool": {
        "encoding": "inplace",
        "label": "bool",
        "numberOfBytes": "1"
      },
      "t_bytes32": {
        "encoding": "inplace",
        "label": "bytes32",
        "numberOfBytes": "32"
      },
      "t_contract(LiquityV2OracleAggregatorV3Interface)1255": {
        "encoding": "inplace",
        "label": "contract LiquityV2OracleAggregatorV3Interface",
        "numberOfBytes": "20"
      },
      "t_mapping(t_address,t_bool)": {
        "encoding": "mapping",
        "key": "t_address",
        "label": "mapping(address => bool)",
        "numberOfBytes": "32",
        "value": "t_bool"
      },
      "t_mapping(t_address,t_contract(LiquityV2OracleAggregatorV3Interface)1255)": {
        "encoding": "mapping",
        "key": "t_address",
        "label": "mapping(address => contract LiquityV2OracleAggregatorV3Interface)",
        "numberOfBytes": "32",
        "value": "t_contract(LiquityV2OracleAggregatorV3Interface)1255"
      },
      "t_mapping(t_address,t_struct(ThresholdConfig)1989_storage)": {
        "encoding": "mapping",
        "key": "t_address",
        "label": "mapping(address => struct ThresholdingUtils.ThresholdConfig)",
        "numberOfBytes": "32",
        "value": "t_struct(ThresholdConfig)1989_storage"
      },
      "t_mapping(t_bytes32,t_struct(RoleData)22_storage)": {
        "encoding": "mapping",
        "key": "t_bytes32",
        "label": "mapping(bytes32 => struct AccessControl.RoleData)",
        "numberOfBytes": "32",
        "value": "t_struct(RoleData)22_storage"
      },
      "t_struct(RoleData)22_storage": {
        "encoding": "inplace",
        "label": "struct AccessControl.RoleData",
        "members": [
          {
            "astId": 19,
            "contract": "contracts/oracle_aggregator/wrapper/TellorWrapperWithThresholding.sol:TellorWrapperWithThresholding",
            "label": "hasRole",
            "offset": 0,
            "slot": "0",
            "type": "t_mapping(t_address,t_bool)"
          },
          {
            "astId": 21,
            "contract": "contracts/oracle_aggregator/wrapper/TellorWrapperWithThresholding.sol:TellorWrapperWithThresholding",
            "label": "adminRole",
            "offset": 0,
            "slot": "1",
            "type": "t_bytes32"
          }
        ],
        "numberOfBytes": "64"
      },
      "t_struct(ThresholdConfig)1989_storage": {
        "encoding": "inplace",
        "label": "struct ThresholdingUtils.ThresholdConfig",
        "members": [
          {
            "astId": 1986,
            "contract": "contracts/oracle_aggregator/wrapper/TellorWrapperWithThresholding.sol:TellorWrapperWithThresholding",
            "label": "lowerThresholdInBase",
            "offset": 0,
            "slot": "0",
            "type": "t_uint256"
          },
          {
            "astId": 1988,
            "contract": "contracts/oracle_aggregator/wrapper/TellorWrapperWithThresholding.sol:TellorWrapperWithThresholding",
            "label": "fixedPriceInBase",
            "offset": 0,
            "slot": "1",
            "type": "t_uint256"
          }
        ],
        "numberOfBytes": "64"
      },
      "t_uint256": {
        "encoding": "inplace",
        "label": "uint256",
        "numberOfBytes": "32"
      }
    }
  }
}