{
  "address": "0xc9116e27D924F73486910f50f0da008EEcF24370",
  "abi": [
    {
      "inputs": [
        {
          "internalType": "address",
          "name": "_dStable",
          "type": "address"
        },
        {
          "internalType": "address",
          "name": "_wrappedDLendToken",
          "type": "address"
        },
        {
          "internalType": "address",
          "name": "_collateralVault",
          "type": "address"
        }
      ],
      "stateMutability": "nonpayable",
      "type": "constructor"
    },
    {
      "inputs": [
        {
          "internalType": "string",
          "name": "message",
          "type": "string"
        }
      ],
      "name": "InconsistentState",
      "type": "error"
    },
    {
      "inputs": [],
      "name": "InvalidAmount",
      "type": "error"
    },
    {
      "inputs": [
        {
          "internalType": "address",
          "name": "token",
          "type": "address"
        }
      ],
      "name": "SafeERC20FailedOperation",
      "type": "error"
    },
    {
      "inputs": [],
      "name": "ZeroAddress",
      "type": "error"
    },
    {
      "inputs": [
        {
          "internalType": "address",
          "name": "_vaultAsset",
          "type": "address"
        },
        {
          "internalType": "uint256",
          "name": "vaultAssetAmount",
          "type": "uint256"
        }
      ],
      "name": "assetValueInDStable",
      "outputs": [
        {
          "internalType": "uint256",
          "name": "dStableValue",
          "type": "uint256"
        }
      ],
      "stateMutability": "view",
      "type": "function"
    },
    {
      "inputs": [],
      "name": "collateralVault",
      "outputs": [
        {
          "internalType": "address",
          "name": "",
          "type": "address"
        }
      ],
      "stateMutability": "view",
      "type": "function"
    },
    {
      "inputs": [
        {
          "internalType": "uint256",
          "name": "vaultAssetAmount",
          "type": "uint256"
        }
      ],
      "name": "convertFromVaultAsset",
      "outputs": [
        {
          "internalType": "uint256",
          "name": "dStableAmount",
          "type": "uint256"
        }
      ],
      "stateMutability": "nonpayable",
      "type": "function"
    },
    {
      "inputs": [
        {
          "internalType": "uint256",
          "name": "dStableAmount",
          "type": "uint256"
        }
      ],
      "name": "convertToVaultAsset",
      "outputs": [
        {
          "internalType": "address",
          "name": "_vaultAsset",
          "type": "address"
        },
        {
          "internalType": "uint256",
          "name": "vaultAssetAmount",
          "type": "uint256"
        }
      ],
      "stateMutability": "nonpayable",
      "type": "function"
    },
    {
      "inputs": [],
      "name": "dStable",
      "outputs": [
        {
          "internalType": "address",
          "name": "",
          "type": "address"
        }
      ],
      "stateMutability": "view",
      "type": "function"
    },
    {
      "inputs": [
        {
          "internalType": "uint256",
          "name": "vaultAssetAmount",
          "type": "uint256"
        }
      ],
      "name": "previewConvertFromVaultAsset",
      "outputs": [
        {
          "internalType": "uint256",
          "name": "dStableAmount",
          "type": "uint256"
        }
      ],
      "stateMutability": "view",
      "type": "function"
    },
    {
      "inputs": [
        {
          "internalType": "uint256",
          "name": "dStableAmount",
          "type": "uint256"
        }
      ],
      "name": "previewConvertToVaultAsset",
      "outputs": [
        {
          "internalType": "address",
          "name": "_vaultAsset",
          "type": "address"
        },
        {
          "internalType": "uint256",
          "name": "vaultAssetAmount",
          "type": "uint256"
        }
      ],
      "stateMutability": "view",
      "type": "function"
    },
    {
      "inputs": [],
      "name": "vaultAsset",
      "outputs": [
        {
          "internalType": "address",
          "name": "",
          "type": "address"
        }
      ],
      "stateMutability": "view",
      "type": "function"
    },
    {
      "inputs": [],
      "name": "wrappedDLendToken",
      "outputs": [
        {
          "internalType": "contract IStaticATokenLM",
          "name": "",
          "type": "address"
        }
      ],
      "stateMutability": "view",
      "type": "function"
    }
  ],
  "transactionHash": "0xb7d3f47d461f7e5545bbc2254e7300f7f8467804b5aa1d17edd3a19e2e76073c",
  "args": [
    "0xCDD24D484a4B73e5a4f9A3b2227f90E3a25f1A23",
    "0x3f70d2E9d2245Da25ef7cf66cAf5Fc1fDA9De073",
    "0x82944d896F0db039f304c1741fE6f3978b3D4ff8"
  ],
  "numDeployments": 1,
  "solcInputHash": "3119f14c142cd6db245e027e6458c4b3",
  "bytecode": "0x60e060405234801561001057600080fd5b50604051610b24380380610b2483398101604081905261002f91610186565b6001600160a01b038316158061004c57506001600160a01b038216155b8061005e57506001600160a01b038116155b1561007c5760405163d92e233d60e01b815260040160405180910390fd5b6001600160a01b03808416608081905283821660a081905291831660c052604080516338d52e0f60e01b815290519192916338d52e0f916004808201926020929091908290030181865afa1580156100d8573d6000803e3d6000fd5b505050506040513d601f19601f820116820180604052508101906100fc91906101c9565b6001600160a01b03161461016257604051633b0e6a4960e11b815260206004820152602260248201527f53746174696341546f6b656e4c4d20756e6465726c79696e67206d69736d61746044820152610c6d60f31b606482015260840160405180910390fd5b5050506101eb565b80516001600160a01b038116811461018157600080fd5b919050565b60008060006060848603121561019b57600080fd5b6101a48461016a565b92506101b26020850161016a565b91506101c06040850161016a565b90509250925092565b6000602082840312156101db57600080fd5b6101e48261016a565b9392505050565b60805160a05160c0516108b06102746000396000818160d4015261030701526000818161013a0152818161015e0152818161024c0152818161032f015281816103a0015281816103f601528181610440015281816104e10152818161057c0152818161060f015261069e0152600081816101130152818161020d015261027b01526108b06000f3fe608060405234801561001057600080fd5b50600436106100935760003560e01c80634ab9e16b116100665780634ab9e16b1461015c578063a11fdeee14610182578063c5c7f52c146101a3578063e0e5c1ab146101b6578063ef2d3a0c146101c957600080fd5b80630151dc94146100985780630bece79c146100cf5780630cc2f8d21461010e57806331f0607814610135575b600080fd5b6100ab6100a63660046107ee565b6101dc565b604080516001600160a01b0390931683526020830191909152015b60405180910390f35b6100f67f000000000000000000000000000000000000000000000000000000000000000081565b6040516001600160a01b0390911681526020016100c6565b6100f67f000000000000000000000000000000000000000000000000000000000000000081565b6100f67f000000000000000000000000000000000000000000000000000000000000000081565b7f00000000000000000000000000000000000000000000000000000000000000006100f6565b6101956101903660046107ee565b6103c6565b6040519081526020016100c6565b6101956101b1366004610807565b6104dd565b6101956101c43660046107ee565b6105f6565b6100ab6101d73660046107ee565b610688565b600080826000036102005760405163162908e360e11b815260040160405180910390fd5b6102356001600160a01b037f00000000000000000000000000000000000000000000000000000000000000001633308661071d565b60405163095ea7b360e01b81526001600160a01b037f000000000000000000000000000000000000000000000000000000000000000081166004830152602482018590527f0000000000000000000000000000000000000000000000000000000000000000169063095ea7b3906044016020604051808303816000875af11580156102c4573d6000803e3d6000fd5b505050506040513d601f19601f820116820180604052508101906102e8919061083f565b50604051636e553f6560e01b8152600481018490526001600160a01b037f0000000000000000000000000000000000000000000000000000000000000000811660248301527f00000000000000000000000000000000000000000000000000000000000000001690636e553f65906044016020604051808303816000875af1158015610378573d6000803e3d6000fd5b505050506040513d601f19601f8201168201806040525081019061039c9190610861565b90507f00000000000000000000000000000000000000000000000000000000000000009150915091565b6000816000036103e95760405163162908e360e11b815260040160405180910390fd5b61041e6001600160a01b037f00000000000000000000000000000000000000000000000000000000000000001633308561071d565b604051635d043b2960e11b8152600481018390523360248201523060448201527f00000000000000000000000000000000000000000000000000000000000000006001600160a01b03169063ba087652906064016020604051808303816000875af1158015610491573d6000803e3d6000fd5b505050506040513d601f19601f820116820180604052508101906104b59190610861565b9050806000036104d85760405163162908e360e11b815260040160405180910390fd5b919050565b60007f00000000000000000000000000000000000000000000000000000000000000006001600160a01b0316836001600160a01b03161461056657604051633b0e6a4960e11b815260206004820152601d60248201527f496e636f7272656374207661756c74206173736574206164647265737300000060448201526064015b60405180910390fd5b60405163266d6a8360e11b8152600481018390527f00000000000000000000000000000000000000000000000000000000000000006001600160a01b031690634cdad50690602401602060405180830381865afa1580156105cb573d6000803e3d6000fd5b505050506040513d601f19601f820116820180604052508101906105ef9190610861565b9392505050565b60405163266d6a8360e11b8152600481018290526000907f00000000000000000000000000000000000000000000000000000000000000006001600160a01b031690634cdad50690602401602060405180830381865afa15801561065e573d6000803e3d6000fd5b505050506040513d601f19601f820116820180604052508101906106829190610861565b92915050565b60405163ef8b30f760e01b8152600481018290527f0000000000000000000000000000000000000000000000000000000000000000906000906001600160a01b0383169063ef8b30f790602401602060405180830381865afa1580156106f2573d6000803e3d6000fd5b505050506040513d601f19601f820116820180604052508101906107169190610861565b9050915091565b604080516001600160a01b0385811660248301528416604482015260648082018490528251808303909101815260849091019091526020810180516001600160e01b03166323b872dd60e01b17905261077790859061077d565b50505050565b600080602060008451602086016000885af1806107a0576040513d6000823e3d81fd5b50506000513d915081156107b85780600114156107c5565b6001600160a01b0384163b155b1561077757604051635274afe760e01b81526001600160a01b038516600482015260240161055d565b60006020828403121561080057600080fd5b5035919050565b6000806040838503121561081a57600080fd5b82356001600160a01b038116811461083157600080fd5b946020939093013593505050565b60006020828403121561085157600080fd5b815180151581146105ef57600080fd5b60006020828403121561087357600080fd5b505191905056fea2646970667358221220e69e693475d3a3a18e3a437d9ba7d0b793c5263e2f5e5f192ba73ab2c415c69864736f6c63430008160033",
  "devdoc": {
    "details": "Implements the IDStableConversionAdapter interface.      Interacts with a specific StaticATokenLM contract provided at deployment.",
    "errors": {
      "SafeERC20FailedOperation(address)": [
        {
          "details": "An operation with an ERC-20 token failed."
        }
      ]
    },
    "kind": "dev",
    "methods": {
      "assetValueInDStable(address,uint256)": {
        "details": "Uses StaticATokenLM's previewRedeem function to get the underlying value (dStable).",
        "params": {
          "vaultAsset": "The address of the vault asset token (should match getVaultAsset()). Included for explicitness.",
          "vaultAssetAmount": "The amount of the `vaultAsset` to value."
        },
        "returns": {
          "dStableValue": "The equivalent value in the dStable asset."
        }
      },
      "constructor": {
        "params": {
          "_collateralVault": "The address of the DStakeCollateralVault",
          "_dStable": "The address of the dSTABLE asset (e.g., dUSD)",
          "_wrappedDLendToken": "The address of the wrapped dLEND token (StaticATokenLM, e.g., wddUSD)"
        }
      },
      "convertFromVaultAsset(uint256)": {
        "details": "Converts wrappedDLendToken -> dStable by withdrawing from StaticATokenLM.      The StaticATokenLM contract sends the dStable directly to msg.sender.",
        "params": {
          "vaultAssetAmount": "The amount of `vaultAsset` to convert."
        },
        "returns": {
          "dStableAmount": "The amount of dStable asset sent to the caller."
        }
      },
      "convertToVaultAsset(uint256)": {
        "details": "Converts dStable -> wrappedDLendToken by depositing into StaticATokenLM.      The StaticATokenLM contract MUST be pre-approved to spend dStable held by this adapter.      The StaticATokenLM contract mints the wrappedDLendToken directly to the collateralVault.",
        "params": {
          "dStableAmount": "The amount of dStable asset to convert."
        },
        "returns": {
          "_vaultAsset": "The address of the specific `vault asset` token managed by this adapter.",
          "vaultAssetAmount": "The amount of `vaultAsset` generated from the conversion."
        }
      },
      "previewConvertFromVaultAsset(uint256)": {
        "details": "Preview the result of converting a given wrappedDLendToken amount to dSTABLE.",
        "params": {
          "vaultAssetAmount": "The amount of `vaultAsset` to preview conversion for."
        },
        "returns": {
          "dStableAmount": "The amount of dStable asset that would be received."
        }
      },
      "previewConvertToVaultAsset(uint256)": {
        "details": "Preview the result of converting a given dSTABLE amount to wrappedDLendToken.",
        "params": {
          "dStableAmount": "The amount of dStable asset to preview conversion for."
        },
        "returns": {
          "_vaultAsset": "The address of the specific `vault asset` token managed by this adapter.",
          "vaultAssetAmount": "The amount of `vaultAsset` that would be received."
        }
      },
      "vaultAsset()": {
        "returns": {
          "_0": "The address of the `vault asset`."
        }
      }
    },
    "title": "WrappedDLendConversionAdapter",
    "version": 1
  },
  "userdoc": {
    "kind": "user",
    "methods": {
      "assetValueInDStable(address,uint256)": {
        "notice": "Calculates the value of a given amount of the specific `vaultAsset` managed by this adapter         in terms of the dStable asset."
      },
      "convertFromVaultAsset(uint256)": {
        "notice": "Converts a specific amount of `vaultAsset` back into the dStable asset."
      },
      "convertToVaultAsset(uint256)": {
        "notice": "Converts a specified amount of the dStable asset into the specific `vaultAsset`         managed by this adapter."
      },
      "previewConvertFromVaultAsset(uint256)": {
        "notice": "Preview the result of converting a given vaultAsset amount to dStable (without state change)."
      },
      "previewConvertToVaultAsset(uint256)": {
        "notice": "Preview the result of converting a given dStable amount to vaultAsset (without state change)."
      },
      "vaultAsset()": {
        "notice": "Returns the address of the specific `vault asset` token managed by this adapter."
      }
    },
    "notice": "Adapter for converting between a dSTABLE asset (like dUSD) and a specific wrapped dLEND aToken         (like wddUSD, implemented via StaticATokenLM). The wrapped dLEND token address must be provided at deployment.",
    "version": 1
  },
  "storageLayout": {
    "storage": [],
    "types": null
  }
}