{
  "address": "0x7AeFde8E021F0efbCEC7348F601e1fD12789c55F",
  "abi": [
    {
      "inputs": [
        {
          "internalType": "string",
          "name": "name",
          "type": "string"
        },
        {
          "internalType": "string",
          "name": "symbol",
          "type": "string"
        }
      ],
      "stateMutability": "nonpayable",
      "type": "constructor"
    },
    {
      "inputs": [],
      "name": "AccessControlBadConfirmation",
      "type": "error"
    },
    {
      "inputs": [
        {
          "internalType": "address",
          "name": "account",
          "type": "address"
        },
        {
          "internalType": "bytes32",
          "name": "neededRole",
          "type": "bytes32"
        }
      ],
      "name": "AccessControlUnauthorizedAccount",
      "type": "error"
    },
    {
      "inputs": [
        {
          "internalType": "address",
          "name": "spender",
          "type": "address"
        },
        {
          "internalType": "uint256",
          "name": "allowance",
          "type": "uint256"
        },
        {
          "internalType": "uint256",
          "name": "needed",
          "type": "uint256"
        }
      ],
      "name": "ERC20InsufficientAllowance",
      "type": "error"
    },
    {
      "inputs": [
        {
          "internalType": "address",
          "name": "sender",
          "type": "address"
        },
        {
          "internalType": "uint256",
          "name": "balance",
          "type": "uint256"
        },
        {
          "internalType": "uint256",
          "name": "needed",
          "type": "uint256"
        }
      ],
      "name": "ERC20InsufficientBalance",
      "type": "error"
    },
    {
      "inputs": [
        {
          "internalType": "address",
          "name": "approver",
          "type": "address"
        }
      ],
      "name": "ERC20InvalidApprover",
      "type": "error"
    },
    {
      "inputs": [
        {
          "internalType": "address",
          "name": "receiver",
          "type": "address"
        }
      ],
      "name": "ERC20InvalidReceiver",
      "type": "error"
    },
    {
      "inputs": [
        {
          "internalType": "address",
          "name": "sender",
          "type": "address"
        }
      ],
      "name": "ERC20InvalidSender",
      "type": "error"
    },
    {
      "inputs": [
        {
          "internalType": "address",
          "name": "spender",
          "type": "address"
        }
      ],
      "name": "ERC20InvalidSpender",
      "type": "error"
    },
    {
      "inputs": [
        {
          "internalType": "address",
          "name": "vault",
          "type": "address"
        }
      ],
      "name": "InvalidVault",
      "type": "error"
    },
    {
      "inputs": [
        {
          "internalType": "address",
          "name": "account",
          "type": "address"
        }
      ],
      "name": "NotAllowlisted",
      "type": "error"
    },
    {
      "anonymous": false,
      "inputs": [
        {
          "indexed": true,
          "internalType": "address",
          "name": "account",
          "type": "address"
        },
        {
          "indexed": false,
          "internalType": "bool",
          "name": "isAllowlisted",
          "type": "bool"
        }
      ],
      "name": "AllowlistSet",
      "type": "event"
    },
    {
      "anonymous": false,
      "inputs": [
        {
          "indexed": true,
          "internalType": "address",
          "name": "owner",
          "type": "address"
        },
        {
          "indexed": true,
          "internalType": "address",
          "name": "spender",
          "type": "address"
        },
        {
          "indexed": false,
          "internalType": "uint256",
          "name": "value",
          "type": "uint256"
        }
      ],
      "name": "Approval",
      "type": "event"
    },
    {
      "anonymous": false,
      "inputs": [
        {
          "indexed": true,
          "internalType": "bytes32",
          "name": "role",
          "type": "bytes32"
        },
        {
          "indexed": true,
          "internalType": "bytes32",
          "name": "previousAdminRole",
          "type": "bytes32"
        },
        {
          "indexed": true,
          "internalType": "bytes32",
          "name": "newAdminRole",
          "type": "bytes32"
        }
      ],
      "name": "RoleAdminChanged",
      "type": "event"
    },
    {
      "anonymous": false,
      "inputs": [
        {
          "indexed": true,
          "internalType": "bytes32",
          "name": "role",
          "type": "bytes32"
        },
        {
          "indexed": true,
          "internalType": "address",
          "name": "account",
          "type": "address"
        },
        {
          "indexed": true,
          "internalType": "address",
          "name": "sender",
          "type": "address"
        }
      ],
      "name": "RoleGranted",
      "type": "event"
    },
    {
      "anonymous": false,
      "inputs": [
        {
          "indexed": true,
          "internalType": "bytes32",
          "name": "role",
          "type": "bytes32"
        },
        {
          "indexed": true,
          "internalType": "address",
          "name": "account",
          "type": "address"
        },
        {
          "indexed": true,
          "internalType": "address",
          "name": "sender",
          "type": "address"
        }
      ],
      "name": "RoleRevoked",
      "type": "event"
    },
    {
      "anonymous": false,
      "inputs": [
        {
          "indexed": true,
          "internalType": "address",
          "name": "from",
          "type": "address"
        },
        {
          "indexed": true,
          "internalType": "address",
          "name": "to",
          "type": "address"
        },
        {
          "indexed": false,
          "internalType": "uint256",
          "name": "value",
          "type": "uint256"
        }
      ],
      "name": "Transfer",
      "type": "event"
    },
    {
      "inputs": [],
      "name": "AMO_MANAGER_ROLE",
      "outputs": [
        {
          "internalType": "bytes32",
          "name": "",
          "type": "bytes32"
        }
      ],
      "stateMutability": "view",
      "type": "function"
    },
    {
      "inputs": [],
      "name": "DEFAULT_ADMIN_ROLE",
      "outputs": [
        {
          "internalType": "bytes32",
          "name": "",
          "type": "bytes32"
        }
      ],
      "stateMutability": "view",
      "type": "function"
    },
    {
      "inputs": [
        {
          "internalType": "address",
          "name": "owner",
          "type": "address"
        },
        {
          "internalType": "address",
          "name": "spender",
          "type": "address"
        }
      ],
      "name": "allowance",
      "outputs": [
        {
          "internalType": "uint256",
          "name": "",
          "type": "uint256"
        }
      ],
      "stateMutability": "view",
      "type": "function"
    },
    {
      "inputs": [
        {
          "internalType": "address",
          "name": "spender",
          "type": "address"
        },
        {
          "internalType": "uint256",
          "name": "value",
          "type": "uint256"
        }
      ],
      "name": "approve",
      "outputs": [
        {
          "internalType": "bool",
          "name": "",
          "type": "bool"
        }
      ],
      "stateMutability": "nonpayable",
      "type": "function"
    },
    {
      "inputs": [
        {
          "internalType": "address",
          "name": "account",
          "type": "address"
        }
      ],
      "name": "balanceOf",
      "outputs": [
        {
          "internalType": "uint256",
          "name": "",
          "type": "uint256"
        }
      ],
      "stateMutability": "view",
      "type": "function"
    },
    {
      "inputs": [
        {
          "internalType": "uint256",
          "name": "amount",
          "type": "uint256"
        }
      ],
      "name": "burn",
      "outputs": [],
      "stateMutability": "nonpayable",
      "type": "function"
    },
    {
      "inputs": [
        {
          "internalType": "address",
          "name": "vault",
          "type": "address"
        },
        {
          "internalType": "uint256",
          "name": "amount",
          "type": "uint256"
        }
      ],
      "name": "burnFromVault",
      "outputs": [],
      "stateMutability": "nonpayable",
      "type": "function"
    },
    {
      "inputs": [],
      "name": "decimals",
      "outputs": [
        {
          "internalType": "uint8",
          "name": "",
          "type": "uint8"
        }
      ],
      "stateMutability": "view",
      "type": "function"
    },
    {
      "inputs": [],
      "name": "getAllowlist",
      "outputs": [
        {
          "internalType": "address[]",
          "name": "",
          "type": "address[]"
        }
      ],
      "stateMutability": "view",
      "type": "function"
    },
    {
      "inputs": [],
      "name": "getAllowlistLength",
      "outputs": [
        {
          "internalType": "uint256",
          "name": "",
          "type": "uint256"
        }
      ],
      "stateMutability": "view",
      "type": "function"
    },
    {
      "inputs": [
        {
          "internalType": "bytes32",
          "name": "role",
          "type": "bytes32"
        }
      ],
      "name": "getRoleAdmin",
      "outputs": [
        {
          "internalType": "bytes32",
          "name": "",
          "type": "bytes32"
        }
      ],
      "stateMutability": "view",
      "type": "function"
    },
    {
      "inputs": [
        {
          "internalType": "bytes32",
          "name": "role",
          "type": "bytes32"
        },
        {
          "internalType": "address",
          "name": "account",
          "type": "address"
        }
      ],
      "name": "grantRole",
      "outputs": [],
      "stateMutability": "nonpayable",
      "type": "function"
    },
    {
      "inputs": [
        {
          "internalType": "bytes32",
          "name": "role",
          "type": "bytes32"
        },
        {
          "internalType": "address",
          "name": "account",
          "type": "address"
        }
      ],
      "name": "hasRole",
      "outputs": [
        {
          "internalType": "bool",
          "name": "",
          "type": "bool"
        }
      ],
      "stateMutability": "view",
      "type": "function"
    },
    {
      "inputs": [
        {
          "internalType": "address",
          "name": "account",
          "type": "address"
        }
      ],
      "name": "isAllowlisted",
      "outputs": [
        {
          "internalType": "bool",
          "name": "",
          "type": "bool"
        }
      ],
      "stateMutability": "view",
      "type": "function"
    },
    {
      "inputs": [
        {
          "internalType": "address",
          "name": "vault",
          "type": "address"
        },
        {
          "internalType": "uint256",
          "name": "amount",
          "type": "uint256"
        }
      ],
      "name": "mintToVault",
      "outputs": [],
      "stateMutability": "nonpayable",
      "type": "function"
    },
    {
      "inputs": [],
      "name": "name",
      "outputs": [
        {
          "internalType": "string",
          "name": "",
          "type": "string"
        }
      ],
      "stateMutability": "view",
      "type": "function"
    },
    {
      "inputs": [
        {
          "internalType": "bytes32",
          "name": "role",
          "type": "bytes32"
        },
        {
          "internalType": "address",
          "name": "callerConfirmation",
          "type": "address"
        }
      ],
      "name": "renounceRole",
      "outputs": [],
      "stateMutability": "nonpayable",
      "type": "function"
    },
    {
      "inputs": [
        {
          "internalType": "bytes32",
          "name": "role",
          "type": "bytes32"
        },
        {
          "internalType": "address",
          "name": "account",
          "type": "address"
        }
      ],
      "name": "revokeRole",
      "outputs": [],
      "stateMutability": "nonpayable",
      "type": "function"
    },
    {
      "inputs": [
        {
          "internalType": "address",
          "name": "account",
          "type": "address"
        },
        {
          "internalType": "bool",
          "name": "allowed",
          "type": "bool"
        }
      ],
      "name": "setAllowlisted",
      "outputs": [],
      "stateMutability": "nonpayable",
      "type": "function"
    },
    {
      "inputs": [
        {
          "internalType": "bytes4",
          "name": "interfaceId",
          "type": "bytes4"
        }
      ],
      "name": "supportsInterface",
      "outputs": [
        {
          "internalType": "bool",
          "name": "",
          "type": "bool"
        }
      ],
      "stateMutability": "view",
      "type": "function"
    },
    {
      "inputs": [],
      "name": "symbol",
      "outputs": [
        {
          "internalType": "string",
          "name": "",
          "type": "string"
        }
      ],
      "stateMutability": "view",
      "type": "function"
    },
    {
      "inputs": [],
      "name": "totalSupply",
      "outputs": [
        {
          "internalType": "uint256",
          "name": "",
          "type": "uint256"
        }
      ],
      "stateMutability": "view",
      "type": "function"
    },
    {
      "inputs": [
        {
          "internalType": "address",
          "name": "to",
          "type": "address"
        },
        {
          "internalType": "uint256",
          "name": "value",
          "type": "uint256"
        }
      ],
      "name": "transfer",
      "outputs": [
        {
          "internalType": "bool",
          "name": "",
          "type": "bool"
        }
      ],
      "stateMutability": "nonpayable",
      "type": "function"
    },
    {
      "inputs": [
        {
          "internalType": "address",
          "name": "from",
          "type": "address"
        },
        {
          "internalType": "address",
          "name": "to",
          "type": "address"
        },
        {
          "internalType": "uint256",
          "name": "value",
          "type": "uint256"
        }
      ],
      "name": "transferFrom",
      "outputs": [
        {
          "internalType": "bool",
          "name": "",
          "type": "bool"
        }
      ],
      "stateMutability": "nonpayable",
      "type": "function"
    }
  ],
  "transactionHash": "0xa139ebb481066995323fe5765c00c8d211b5a7166c67eaaa469bf1dccfc1a3c0",
  "args": [
    "dTRINITY AMO Receipt",
    "amo-D"
  ],
  "numDeployments": 1,
  "solcInputHash": "63c48e7527581fc5670507cfd8f46bc1",
  "bytecode": "0x60806040523480156200001157600080fd5b50604051620014ea380380620014ea8339810160408190526200003491620001e9565b81816003620000448382620002e4565b506004620000538282620002e4565b5062000065915060009050336200006e565b505050620003b0565b60008281526005602090815260408083206001600160a01b038516845290915281205460ff16620001175760008381526005602090815260408083206001600160a01b03861684529091529020805460ff19166001179055620000ce3390565b6001600160a01b0316826001600160a01b0316847f2f8788117e7eff1d82e926ec794901d17c78024a50270940304540a733656f0d60405160405180910390a45060016200011b565b5060005b92915050565b634e487b7160e01b600052604160045260246000fd5b600082601f8301126200014957600080fd5b81516001600160401b038082111562000166576200016662000121565b604051601f8301601f19908116603f0116810190828211818310171562000191576200019162000121565b8160405283815260209250866020858801011115620001af57600080fd5b600091505b83821015620001d35785820183015181830184015290820190620001b4565b6000602085830101528094505050505092915050565b60008060408385031215620001fd57600080fd5b82516001600160401b03808211156200021557600080fd5b620002238683870162000137565b935060208501519150808211156200023a57600080fd5b50620002498582860162000137565b9150509250929050565b600181811c908216806200026857607f821691505b6020821081036200028957634e487b7160e01b600052602260045260246000fd5b50919050565b601f821115620002df576000816000526020600020601f850160051c81016020861015620002ba5750805b601f850160051c820191505b81811015620002db57828155600101620002c6565b5050505b505050565b81516001600160401b0381111562000300576200030062000121565b620003188162000311845462000253565b846200028f565b602080601f831160018114620003505760008415620003375750858301515b600019600386901b1c1916600185901b178555620002db565b600085815260208120601f198616915b82811015620003815788860151825594840194600190910190840162000360565b5085821015620003a05787850151600019600388901b60f8161c191681555b5050505050600190811b01905550565b61112a80620003c06000396000f3fe608060405234801561001057600080fd5b50600436106101585760003560e01c806342966c68116100c35780639aa541811161007c5780639aa54181146102d9578063a217fddf146102ec578063a9059cbb146102f4578063c5eff3d014610307578063d547741f1461031c578063dd62ed3e1461032f57600080fd5b806342966c68146102655780635b8862dc1461027857806364d042f01461028d57806370a082311461029557806391d14854146102be57806395d89b41146102d157600080fd5b806323b872dd1161011557806323b872dd146101e7578063248a9ca3146101fa5780632f2ff15d1461021d578063313ce5671461023057806336568abe1461023f5780633f4cb2461461025257600080fd5b806301ffc9a71461015d57806305a3b8091461018557806306fdde0314610198578063095ea7b3146101ad57806318160ddd146101c05780631c83ba4a146101d2575b600080fd5b61017061016b366004610e24565b610368565b60405190151581526020015b60405180910390f35b610170610193366004610e6a565b61039f565b6101a06103ac565b60405161017c9190610e85565b6101706101bb366004610ed4565b61043e565b6002545b60405190815260200161017c565b6101e56101e0366004610ed4565b610456565b005b6101706101f5366004610efe565b6104b5565b6101c4610208366004610f3a565b60009081526005602052604090206001015490565b6101e561022b366004610f53565b6104f4565b6040516012815260200161017c565b6101e561024d366004610f53565b61051f565b6101e5610260366004610ed4565b610552565b6101e5610273366004610f3a565b6105a7565b6101c46000805160206110d583398151915281565b6101c46105cd565b6101c46102a3366004610e6a565b6001600160a01b031660009081526020819052604090205490565b6101706102cc366004610f53565b6105de565b6101a0610609565b6101e56102e7366004610f7f565b610618565b6101c4600081565b610170610302366004610ed4565b610691565b61030f61069f565b60405161017c9190610fbb565b6101e561032a366004610f53565b6106ab565b6101c461033d366004611008565b6001600160a01b03918216600090815260016020908152604080832093909416825291909152205490565b60006001600160e01b03198216637965db0b60e01b148061039957506301ffc9a760e01b6001600160e01b03198316145b92915050565b60006103996006836106d0565b6060600380546103bb90611032565b80601f01602080910402602001604051908101604052809291908181526020018280546103e790611032565b80156104345780601f1061040957610100808354040283529160200191610434565b820191906000526020600020905b81548152906001019060200180831161041757829003601f168201915b5050505050905090565b60003361044c8185856106f5565b5060019392505050565b6000805160206110d583398151915261046e81610702565b6104796006846106d0565b6104a6576040516357b980d760e11b81526001600160a01b03841660048201526024015b60405180910390fd5b6104b0838361070f565b505050565b60006104c26006336106d0565b6104e157604051636f7a527560e01b815233600482015260240161049d565b6104ec848484610745565b949350505050565b60008281526005602052604090206001015461050f81610702565b6105198383610769565b50505050565b6001600160a01b03811633146105485760405163334bd91960e11b815260040160405180910390fd5b6104b082826107fd565b6000805160206110d583398151915261056a81610702565b6105756006846106d0565b61059d576040516357b980d760e11b81526001600160a01b038416600482015260240161049d565b6104b0838361086a565b6000805160206110d58339815191526105bf81610702565b6105c9338361070f565b5050565b60006105d960066108a0565b905090565b60009182526005602090815260408084206001600160a01b0393909316845291905290205460ff1690565b6060600480546103bb90611032565b600061062381610702565b811561063a576106346006846108aa565b50610647565b6106456006846108bf565b505b826001600160a01b03167fff571df7d74779bb3bc4c418144ed2539441681cec39b558e6639f5faefc069583604051610684911515815260200190565b60405180910390a2505050565b60003361044c8185856108d4565b60606105d96006610933565b6000828152600560205260409020600101546106c681610702565b61051983836107fd565b6001600160a01b038116600090815260018301602052604081205415155b9392505050565b6104b08383836001610940565b61070c8133610a15565b50565b6001600160a01b03821661073957604051634b637e8f60e11b81526000600482015260240161049d565b6105c982600083610a4e565b600033610753858285610aeb565b61075e8585856108d4565b506001949350505050565b600061077583836105de565b6107f55760008381526005602090815260408083206001600160a01b03861684529091529020805460ff191660011790556107ad3390565b6001600160a01b0316826001600160a01b0316847f2f8788117e7eff1d82e926ec794901d17c78024a50270940304540a733656f0d60405160405180910390a4506001610399565b506000610399565b600061080983836105de565b156107f55760008381526005602090815260408083206001600160a01b0386168085529252808320805460ff1916905551339286917ff6391f5c32d9c69d2a47ea670b442974b53935d1edc7fd64eb21e047a839171b9190a4506001610399565b6001600160a01b0382166108945760405163ec442f0560e01b81526000600482015260240161049d565b6105c960008383610a4e565b6000610399825490565b60006106ee836001600160a01b038416610b64565b60006106ee836001600160a01b038416610bab565b6001600160a01b0383166108fe57604051634b637e8f60e11b81526000600482015260240161049d565b6001600160a01b0382166109285760405163ec442f0560e01b81526000600482015260240161049d565b6104b0838383610a4e565b606060006106ee83610c9e565b6001600160a01b03841661096a5760405163e602df0560e01b81526000600482015260240161049d565b6001600160a01b03831661099457604051634a1406b160e11b81526000600482015260240161049d565b6001600160a01b038085166000908152600160209081526040808320938716835292905220829055801561051957826001600160a01b0316846001600160a01b03167f8c5be1e5ebec7d5bd14f71427d1e84f3dd0314c0f7b2291e5b200ac8c7c3b92584604051610a0791815260200190565b60405180910390a350505050565b610a1f82826105de565b6105c95760405163e2517d3f60e01b81526001600160a01b03821660048201526024810183905260440161049d565b6001600160a01b03831615801590610a6e5750610a6c6006846106d0565b155b15610a9757604051636f7a527560e01b81526001600160a01b038416600482015260240161049d565b6001600160a01b03821615801590610ab75750610ab56006836106d0565b155b15610ae057604051636f7a527560e01b81526001600160a01b038316600482015260240161049d565b6104b0838383610cfa565b6001600160a01b038381166000908152600160209081526040808320938616835292905220546000198110156105195781811015610b5557604051637dc7a0d960e11b81526001600160a01b0384166004820152602481018290526044810183905260640161049d565b61051984848484036000610940565b60008181526001830160205260408120546107f557508154600181810184556000848152602080822090930184905584548482528286019093526040902091909155610399565b60008181526001830160205260408120548015610c94576000610bcf600183611082565b8554909150600090610be390600190611082565b9050808214610c48576000866000018281548110610c0357610c03611095565b9060005260206000200154905080876000018481548110610c2657610c26611095565b6000918252602080832090910192909255918252600188019052604090208390555b8554869080610c5957610c596110ab565b600190038181906000526020600020016000905590558560010160008681526020019081526020016000206000905560019350505050610399565b6000915050610399565b606081600001805480602002602001604051908101604052809291908181526020018280548015610cee57602002820191906000526020600020905b815481526020019060010190808311610cda575b50505050509050919050565b6001600160a01b038316610d25578060026000828254610d1a91906110c1565b90915550610d979050565b6001600160a01b03831660009081526020819052604090205481811015610d785760405163391434e360e21b81526001600160a01b0385166004820152602481018290526044810183905260640161049d565b6001600160a01b03841660009081526020819052604090209082900390555b6001600160a01b038216610db357600280548290039055610dd2565b6001600160a01b03821660009081526020819052604090208054820190555b816001600160a01b0316836001600160a01b03167fddf252ad1be2c89b69c2b068fc378daa952ba7f163c4a11628f55a4df523b3ef83604051610e1791815260200190565b60405180910390a3505050565b600060208284031215610e3657600080fd5b81356001600160e01b0319811681146106ee57600080fd5b80356001600160a01b0381168114610e6557600080fd5b919050565b600060208284031215610e7c57600080fd5b6106ee82610e4e565b60006020808352835180602085015260005b81811015610eb357858101830151858201604001528201610e97565b506000604082860101526040601f19601f8301168501019250505092915050565b60008060408385031215610ee757600080fd5b610ef083610e4e565b946020939093013593505050565b600080600060608486031215610f1357600080fd5b610f1c84610e4e565b9250610f2a60208501610e4e565b9150604084013590509250925092565b600060208284031215610f4c57600080fd5b5035919050565b60008060408385031215610f6657600080fd5b82359150610f7660208401610e4e565b90509250929050565b60008060408385031215610f9257600080fd5b610f9b83610e4e565b915060208301358015158114610fb057600080fd5b809150509250929050565b6020808252825182820181905260009190848201906040850190845b81811015610ffc5783516001600160a01b031683529284019291840191600101610fd7565b50909695505050505050565b6000806040838503121561101b57600080fd5b61102483610e4e565b9150610f7660208401610e4e565b600181811c9082168061104657607f821691505b60208210810361106657634e487b7160e01b600052602260045260246000fd5b50919050565b634e487b7160e01b600052601160045260246000fd5b818103818111156103995761039961106c565b634e487b7160e01b600052603260045260246000fd5b634e487b7160e01b600052603160045260246000fd5b808201808211156103995761039961106c56febc4aa291e35c786eceb374be398429586e466107044903c4dff7a8687a530070a26469706673582212203fae73062945ba967cb70373b59cc2fd9d782c785d3a6c5d0e591342b48161e164736f6c63430008160033",
  "devdoc": {
    "details": "Transfer-restricted ERC20 that only allows allowlisted addresses to send/receive tokens. Used for unified accounting of AMO debt across collateral and stable AMO operations. Token name is \"dTRINITY AMO Receipt\" with symbol \"amo-dUSD\" or \"amo-dETH\" depending on the stablecoin type.",
    "errors": {
      "AccessControlBadConfirmation()": [
        {
          "details": "The caller of a function is not the expected one. NOTE: Don't confuse with {AccessControlUnauthorizedAccount}."
        }
      ],
      "AccessControlUnauthorizedAccount(address,bytes32)": [
        {
          "details": "The `account` is missing a role."
        }
      ],
      "ERC20InsufficientAllowance(address,uint256,uint256)": [
        {
          "details": "Indicates a failure with the `spender`s `allowance`. Used in transfers.",
          "params": {
            "allowance": "Amount of tokens a `spender` is allowed to operate with.",
            "needed": "Minimum amount required to perform a transfer.",
            "spender": "Address that may be allowed to operate on tokens without being their owner."
          }
        }
      ],
      "ERC20InsufficientBalance(address,uint256,uint256)": [
        {
          "details": "Indicates an error related to the current `balance` of a `sender`. Used in transfers.",
          "params": {
            "balance": "Current balance for the interacting account.",
            "needed": "Minimum amount required to perform a transfer.",
            "sender": "Address whose tokens are being transferred."
          }
        }
      ],
      "ERC20InvalidApprover(address)": [
        {
          "details": "Indicates a failure with the `approver` of a token to be approved. Used in approvals.",
          "params": {
            "approver": "Address initiating an approval operation."
          }
        }
      ],
      "ERC20InvalidReceiver(address)": [
        {
          "details": "Indicates a failure with the token `receiver`. Used in transfers.",
          "params": {
            "receiver": "Address to which tokens are being transferred."
          }
        }
      ],
      "ERC20InvalidSender(address)": [
        {
          "details": "Indicates a failure with the token `sender`. Used in transfers.",
          "params": {
            "sender": "Address whose tokens are being transferred."
          }
        }
      ],
      "ERC20InvalidSpender(address)": [
        {
          "details": "Indicates a failure with the `spender` to be approved. Used in approvals.",
          "params": {
            "spender": "Address that may be allowed to operate on tokens without being their owner."
          }
        }
      ]
    },
    "events": {
      "Approval(address,address,uint256)": {
        "details": "Emitted when the allowance of a `spender` for an `owner` is set by a call to {approve}. `value` is the new allowance."
      },
      "RoleAdminChanged(bytes32,bytes32,bytes32)": {
        "details": "Emitted when `newAdminRole` is set as ``role``'s admin role, replacing `previousAdminRole` `DEFAULT_ADMIN_ROLE` is the starting admin for all roles, despite {RoleAdminChanged} not being emitted to signal this."
      },
      "RoleGranted(bytes32,address,address)": {
        "details": "Emitted when `account` is granted `role`. `sender` is the account that originated the contract call. This account bears the admin role (for the granted role). Expected in cases where the role was granted using the internal {AccessControl-_grantRole}."
      },
      "RoleRevoked(bytes32,address,address)": {
        "details": "Emitted when `account` is revoked `role`. `sender` is the account that originated the contract call:   - if using `revokeRole`, it is the admin role bearer   - if using `renounceRole`, it is the role bearer (i.e. `account`)"
      },
      "Transfer(address,address,uint256)": {
        "details": "Emitted when `value` tokens are moved from one account (`from`) to another (`to`). Note that `value` may be zero."
      }
    },
    "kind": "dev",
    "methods": {
      "allowance(address,address)": {
        "details": "Returns the remaining number of tokens that `spender` will be allowed to spend on behalf of `owner` through {transferFrom}. This is zero by default. This value changes when {approve} or {transferFrom} are called."
      },
      "approve(address,uint256)": {
        "details": "See {IERC20-approve}. NOTE: If `value` is the maximum `uint256`, the allowance is not updated on `transferFrom`. This is semantically equivalent to an infinite approval. Requirements: - `spender` cannot be the zero address."
      },
      "balanceOf(address)": {
        "details": "Returns the value of tokens owned by `account`."
      },
      "burn(uint256)": {
        "details": "Only callable by AMO_MANAGER_ROLE. Intended for manager after withdrawing debt tokens",
        "params": {
          "amount": "The amount of tokens to burn"
        }
      },
      "burnFromVault(address,uint256)": {
        "details": "Only callable by AMO_MANAGER_ROLE and vault must be allowlisted",
        "params": {
          "amount": "The amount of tokens to burn",
          "vault": "The vault address to burn tokens from"
        }
      },
      "constructor": {
        "details": "Grants DEFAULT_ADMIN_ROLE to the deployer",
        "params": {
          "name": "The token name (e.g., \"dTRINITY AMO Receipt\")",
          "symbol": "The token symbol (e.g., \"amo-dUSD\" or \"amo-dETH\")"
        }
      },
      "decimals()": {
        "returns": {
          "_0": "The number of decimals (18)"
        }
      },
      "getAllowlist()": {
        "returns": {
          "_0": "Array of allowlisted addresses"
        }
      },
      "getAllowlistLength()": {
        "returns": {
          "_0": "The count of allowlisted addresses"
        }
      },
      "getRoleAdmin(bytes32)": {
        "details": "Returns the admin role that controls `role`. See {grantRole} and {revokeRole}. To change a role's admin, use {_setRoleAdmin}."
      },
      "grantRole(bytes32,address)": {
        "details": "Grants `role` to `account`. If `account` had not been already granted `role`, emits a {RoleGranted} event. Requirements: - the caller must have ``role``'s admin role. May emit a {RoleGranted} event."
      },
      "hasRole(bytes32,address)": {
        "details": "Returns `true` if `account` has been granted `role`."
      },
      "isAllowlisted(address)": {
        "params": {
          "account": "The address to check"
        },
        "returns": {
          "_0": "Whether the address is allowlisted"
        }
      },
      "mintToVault(address,uint256)": {
        "details": "Only callable by AMO_MANAGER_ROLE and vault must be allowlisted",
        "params": {
          "amount": "The amount of tokens to mint",
          "vault": "The vault address to mint tokens to"
        }
      },
      "name()": {
        "details": "Returns the name of the token."
      },
      "renounceRole(bytes32,address)": {
        "details": "Revokes `role` from the calling account. Roles are often managed via {grantRole} and {revokeRole}: this function's purpose is to provide a mechanism for accounts to lose their privileges if they are compromised (such as when a trusted device is misplaced). If the calling account had been revoked `role`, emits a {RoleRevoked} event. Requirements: - the caller must be `callerConfirmation`. May emit a {RoleRevoked} event."
      },
      "revokeRole(bytes32,address)": {
        "details": "Revokes `role` from `account`. If `account` had been granted `role`, emits a {RoleRevoked} event. Requirements: - the caller must have ``role``'s admin role. May emit a {RoleRevoked} event."
      },
      "setAllowlisted(address,bool)": {
        "details": "Only callable by DEFAULT_ADMIN_ROLE",
        "params": {
          "account": "The address to set allowlist status for",
          "allowed": "Whether the address should be allowlisted"
        }
      },
      "supportsInterface(bytes4)": {
        "details": "Returns true if this contract implements the interface defined by `interfaceId`. See the corresponding https://eips.ethereum.org/EIPS/eip-165#how-interfaces-are-identified[ERC section] to learn more about how these ids are created. This function call must use less than 30 000 gas."
      },
      "symbol()": {
        "details": "Returns the symbol of the token, usually a shorter version of the name."
      },
      "totalSupply()": {
        "details": "Returns the value of tokens in existence."
      },
      "transfer(address,uint256)": {
        "details": "See {IERC20-transfer}. Requirements: - `to` cannot be the zero address. - the caller must have a balance of at least `value`."
      },
      "transferFrom(address,address,uint256)": {
        "details": "Reverts if msg.sender is not allowlisted",
        "params": {
          "from": "The address to transfer tokens from",
          "to": "The address to transfer tokens to",
          "value": "The amount of tokens to transfer"
        },
        "returns": {
          "_0": "Success boolean"
        }
      }
    },
    "title": "AmoDebtToken",
    "version": 1
  },
  "userdoc": {
    "kind": "user",
    "methods": {
      "burn(uint256)": {
        "notice": "Burns debt tokens held by the caller"
      },
      "burnFromVault(address,uint256)": {
        "notice": "Burns debt tokens from an allowlisted vault"
      },
      "constructor": {
        "notice": "Initializes the AmoDebtToken with name and symbol"
      },
      "decimals()": {
        "notice": "Returns 18 decimals following dStable convention"
      },
      "getAllowlist()": {
        "notice": "Returns all allowlisted addresses"
      },
      "getAllowlistLength()": {
        "notice": "Returns the number of allowlisted addresses"
      },
      "isAllowlisted(address)": {
        "notice": "Checks if an address is allowlisted"
      },
      "mintToVault(address,uint256)": {
        "notice": "Mints debt tokens to an allowlisted vault"
      },
      "setAllowlisted(address,bool)": {
        "notice": "Sets the allowlist status for an address"
      },
      "transferFrom(address,address,uint256)": {
        "notice": "Override transferFrom to also check msg.sender allowlist"
      }
    },
    "notice": "ERC20 receipt token for AMO operations with transfer restrictions via allowlist",
    "version": 1
  },
  "storageLayout": {
    "storage": [
      {
        "astId": 629,
        "contract": "contracts/dstable/AmoDebtToken.sol:AmoDebtToken",
        "label": "_balances",
        "offset": 0,
        "slot": "0",
        "type": "t_mapping(t_address,t_uint256)"
      },
      {
        "astId": 635,
        "contract": "contracts/dstable/AmoDebtToken.sol:AmoDebtToken",
        "label": "_allowances",
        "offset": 0,
        "slot": "1",
        "type": "t_mapping(t_address,t_mapping(t_address,t_uint256))"
      },
      {
        "astId": 637,
        "contract": "contracts/dstable/AmoDebtToken.sol:AmoDebtToken",
        "label": "_totalSupply",
        "offset": 0,
        "slot": "2",
        "type": "t_uint256"
      },
      {
        "astId": 639,
        "contract": "contracts/dstable/AmoDebtToken.sol:AmoDebtToken",
        "label": "_name",
        "offset": 0,
        "slot": "3",
        "type": "t_string_storage"
      },
      {
        "astId": 641,
        "contract": "contracts/dstable/AmoDebtToken.sol:AmoDebtToken",
        "label": "_symbol",
        "offset": 0,
        "slot": "4",
        "type": "t_string_storage"
      },
      {
        "astId": 27,
        "contract": "contracts/dstable/AmoDebtToken.sol:AmoDebtToken",
        "label": "_roles",
        "offset": 0,
        "slot": "5",
        "type": "t_mapping(t_bytes32,t_struct(RoleData)22_storage)"
      },
      {
        "astId": 8457,
        "contract": "contracts/dstable/AmoDebtToken.sol:AmoDebtToken",
        "label": "_allowlist",
        "offset": 0,
        "slot": "6",
        "type": "t_struct(AddressSet)7345_storage"
      }
    ],
    "types": {
      "t_address": {
        "encoding": "inplace",
        "label": "address",
        "numberOfBytes": "20"
      },
      "t_array(t_bytes32)dyn_storage": {
        "base": "t_bytes32",
        "encoding": "dynamic_array",
        "label": "bytes32[]",
        "numberOfBytes": "32"
      },
      "t_bool": {
        "encoding": "inplace",
        "label": "bool",
        "numberOfBytes": "1"
      },
      "t_bytes32": {
        "encoding": "inplace",
        "label": "bytes32",
        "numberOfBytes": "32"
      },
      "t_mapping(t_address,t_bool)": {
        "encoding": "mapping",
        "key": "t_address",
        "label": "mapping(address => bool)",
        "numberOfBytes": "32",
        "value": "t_bool"
      },
      "t_mapping(t_address,t_mapping(t_address,t_uint256))": {
        "encoding": "mapping",
        "key": "t_address",
        "label": "mapping(address => mapping(address => uint256))",
        "numberOfBytes": "32",
        "value": "t_mapping(t_address,t_uint256)"
      },
      "t_mapping(t_address,t_uint256)": {
        "encoding": "mapping",
        "key": "t_address",
        "label": "mapping(address => uint256)",
        "numberOfBytes": "32",
        "value": "t_uint256"
      },
      "t_mapping(t_bytes32,t_struct(RoleData)22_storage)": {
        "encoding": "mapping",
        "key": "t_bytes32",
        "label": "mapping(bytes32 => struct AccessControl.RoleData)",
        "numberOfBytes": "32",
        "value": "t_struct(RoleData)22_storage"
      },
      "t_mapping(t_bytes32,t_uint256)": {
        "encoding": "mapping",
        "key": "t_bytes32",
        "label": "mapping(bytes32 => uint256)",
        "numberOfBytes": "32",
        "value": "t_uint256"
      },
      "t_string_storage": {
        "encoding": "bytes",
        "label": "string",
        "numberOfBytes": "32"
      },
      "t_struct(AddressSet)7345_storage": {
        "encoding": "inplace",
        "label": "struct EnumerableSet.AddressSet",
        "members": [
          {
            "astId": 7344,
            "contract": "contracts/dstable/AmoDebtToken.sol:AmoDebtToken",
            "label": "_inner",
            "offset": 0,
            "slot": "0",
            "type": "t_struct(Set)6859_storage"
          }
        ],
        "numberOfBytes": "64"
      },
      "t_struct(RoleData)22_storage": {
        "encoding": "inplace",
        "label": "struct AccessControl.RoleData",
        "members": [
          {
            "astId": 19,
            "contract": "contracts/dstable/AmoDebtToken.sol:AmoDebtToken",
            "label": "hasRole",
            "offset": 0,
            "slot": "0",
            "type": "t_mapping(t_address,t_bool)"
          },
          {
            "astId": 21,
            "contract": "contracts/dstable/AmoDebtToken.sol:AmoDebtToken",
            "label": "adminRole",
            "offset": 0,
            "slot": "1",
            "type": "t_bytes32"
          }
        ],
        "numberOfBytes": "64"
      },
      "t_struct(Set)6859_storage": {
        "encoding": "inplace",
        "label": "struct EnumerableSet.Set",
        "members": [
          {
            "astId": 6854,
            "contract": "contracts/dstable/AmoDebtToken.sol:AmoDebtToken",
            "label": "_values",
            "offset": 0,
            "slot": "0",
            "type": "t_array(t_bytes32)dyn_storage"
          },
          {
            "astId": 6858,
            "contract": "contracts/dstable/AmoDebtToken.sol:AmoDebtToken",
            "label": "_positions",
            "offset": 0,
            "slot": "1",
            "type": "t_mapping(t_bytes32,t_uint256)"
          }
        ],
        "numberOfBytes": "64"
      },
      "t_uint256": {
        "encoding": "inplace",
        "label": "uint256",
        "numberOfBytes": "32"
      }
    }
  }
}