{
  "address": "0x913d816D25f14A902Ffa2788231F38cbAC07b2EB",
  "abi": [
    {
      "inputs": [
        {
          "internalType": "address",
          "name": "_dstable",
          "type": "address"
        },
        {
          "internalType": "address",
          "name": "_redeemer",
          "type": "address"
        },
        {
          "internalType": "address",
          "name": "_uniswapRouter",
          "type": "address"
        },
        {
          "internalType": "address",
          "name": "_operator",
          "type": "address"
        }
      ],
      "stateMutability": "nonpayable",
      "type": "constructor"
    },
    {
      "inputs": [],
      "name": "AccessControlBadConfirmation",
      "type": "error"
    },
    {
      "inputs": [
        {
          "internalType": "address",
          "name": "account",
          "type": "address"
        },
        {
          "internalType": "bytes32",
          "name": "neededRole",
          "type": "bytes32"
        }
      ],
      "name": "AccessControlUnauthorizedAccount",
      "type": "error"
    },
    {
      "inputs": [
        {
          "internalType": "address",
          "name": "asset",
          "type": "address"
        }
      ],
      "name": "AssetRedemptionPaused",
      "type": "error"
    },
    {
      "inputs": [],
      "name": "DeadlineExceeded",
      "type": "error"
    },
    {
      "inputs": [],
      "name": "EnforcedPause",
      "type": "error"
    },
    {
      "inputs": [],
      "name": "ExpectedPause",
      "type": "error"
    },
    {
      "inputs": [
        {
          "internalType": "uint256",
          "name": "requested",
          "type": "uint256"
        },
        {
          "internalType": "uint256",
          "name": "maximum",
          "type": "uint256"
        }
      ],
      "name": "FlashLoanAmountExceedsMaximum",
      "type": "error"
    },
    {
      "inputs": [],
      "name": "FlashLoanRepaymentFailed",
      "type": "error"
    },
    {
      "inputs": [
        {
          "internalType": "uint256",
          "name": "expected",
          "type": "uint256"
        },
        {
          "internalType": "uint256",
          "name": "actual",
          "type": "uint256"
        }
      ],
      "name": "InsufficientCollateralReceived",
      "type": "error"
    },
    {
      "inputs": [
        {
          "internalType": "uint256",
          "name": "expected",
          "type": "uint256"
        },
        {
          "internalType": "uint256",
          "name": "actual",
          "type": "uint256"
        }
      ],
      "name": "InsufficientDStableReceived",
      "type": "error"
    },
    {
      "inputs": [
        {
          "internalType": "uint24",
          "name": "feeTier",
          "type": "uint24"
        }
      ],
      "name": "InvalidFeeTier",
      "type": "error"
    },
    {
      "inputs": [],
      "name": "InvalidFlashLoanInitiator",
      "type": "error"
    },
    {
      "inputs": [
        {
          "internalType": "address",
          "name": "token",
          "type": "address"
        }
      ],
      "name": "InvalidIntermediateToken",
      "type": "error"
    },
    {
      "inputs": [],
      "name": "InvalidPathLength",
      "type": "error"
    },
    {
      "inputs": [],
      "name": "InvalidSwapPathTokens",
      "type": "error"
    },
    {
      "inputs": [],
      "name": "NoSwapPathProvided",
      "type": "error"
    },
    {
      "inputs": [],
      "name": "ReentrancyGuardReentrantCall",
      "type": "error"
    },
    {
      "inputs": [
        {
          "internalType": "address",
          "name": "token",
          "type": "address"
        }
      ],
      "name": "SafeERC20FailedOperation",
      "type": "error"
    },
    {
      "inputs": [
        {
          "internalType": "uint256",
          "name": "requestedSlippage",
          "type": "uint256"
        },
        {
          "internalType": "uint256",
          "name": "maxSlippage",
          "type": "uint256"
        }
      ],
      "name": "SlippageTooHigh",
      "type": "error"
    },
    {
      "inputs": [],
      "name": "UnauthorizedFlashLoan",
      "type": "error"
    },
    {
      "inputs": [
        {
          "internalType": "bytes",
          "name": "reason",
          "type": "bytes"
        }
      ],
      "name": "UniswapExactInputFailed",
      "type": "error"
    },
    {
      "inputs": [],
      "name": "ZeroAddress",
      "type": "error"
    },
    {
      "inputs": [],
      "name": "ZeroDStableAmount",
      "type": "error"
    },
    {
      "anonymous": false,
      "inputs": [
        {
          "indexed": false,
          "internalType": "address",
          "name": "account",
          "type": "address"
        }
      ],
      "name": "Paused",
      "type": "event"
    },
    {
      "anonymous": false,
      "inputs": [
        {
          "indexed": true,
          "internalType": "bytes32",
          "name": "role",
          "type": "bytes32"
        },
        {
          "indexed": true,
          "internalType": "bytes32",
          "name": "previousAdminRole",
          "type": "bytes32"
        },
        {
          "indexed": true,
          "internalType": "bytes32",
          "name": "newAdminRole",
          "type": "bytes32"
        }
      ],
      "name": "RoleAdminChanged",
      "type": "event"
    },
    {
      "anonymous": false,
      "inputs": [
        {
          "indexed": true,
          "internalType": "bytes32",
          "name": "role",
          "type": "bytes32"
        },
        {
          "indexed": true,
          "internalType": "address",
          "name": "account",
          "type": "address"
        },
        {
          "indexed": true,
          "internalType": "address",
          "name": "sender",
          "type": "address"
        }
      ],
      "name": "RoleGranted",
      "type": "event"
    },
    {
      "anonymous": false,
      "inputs": [
        {
          "indexed": true,
          "internalType": "bytes32",
          "name": "role",
          "type": "bytes32"
        },
        {
          "indexed": true,
          "internalType": "address",
          "name": "account",
          "type": "address"
        },
        {
          "indexed": true,
          "internalType": "address",
          "name": "sender",
          "type": "address"
        }
      ],
      "name": "RoleRevoked",
      "type": "event"
    },
    {
      "anonymous": false,
      "inputs": [
        {
          "indexed": true,
          "internalType": "address",
          "name": "collateralAsset",
          "type": "address"
        },
        {
          "indexed": false,
          "internalType": "uint256",
          "name": "dstableAmount",
          "type": "uint256"
        },
        {
          "indexed": false,
          "internalType": "uint256",
          "name": "collateralAmount",
          "type": "uint256"
        },
        {
          "indexed": false,
          "internalType": "uint256",
          "name": "dstableReceived",
          "type": "uint256"
        },
        {
          "indexed": false,
          "internalType": "uint256",
          "name": "profit",
          "type": "uint256"
        },
        {
          "indexed": false,
          "internalType": "string",
          "name": "routingMethod",
          "type": "string"
        }
      ],
      "name": "SMOExecuted",
      "type": "event"
    },
    {
      "anonymous": false,
      "inputs": [
        {
          "indexed": false,
          "internalType": "address",
          "name": "account",
          "type": "address"
        }
      ],
      "name": "Unpaused",
      "type": "event"
    },
    {
      "inputs": [],
      "name": "DEFAULT_ADMIN_ROLE",
      "outputs": [
        {
          "internalType": "bytes32",
          "name": "",
          "type": "bytes32"
        }
      ],
      "stateMutability": "view",
      "type": "function"
    },
    {
      "inputs": [],
      "name": "HUNDRED_PERCENT_BPS",
      "outputs": [
        {
          "internalType": "uint256",
          "name": "",
          "type": "uint256"
        }
      ],
      "stateMutability": "view",
      "type": "function"
    },
    {
      "inputs": [],
      "name": "MAX_SLIPPAGE_BPS",
      "outputs": [
        {
          "internalType": "uint256",
          "name": "",
          "type": "uint256"
        }
      ],
      "stateMutability": "view",
      "type": "function"
    },
    {
      "inputs": [],
      "name": "OPERATOR_ROLE",
      "outputs": [
        {
          "internalType": "bytes32",
          "name": "",
          "type": "bytes32"
        }
      ],
      "stateMutability": "view",
      "type": "function"
    },
    {
      "inputs": [],
      "name": "dstable",
      "outputs": [
        {
          "internalType": "contract ERC20StablecoinUpgradeable",
          "name": "",
          "type": "address"
        }
      ],
      "stateMutability": "view",
      "type": "function"
    },
    {
      "inputs": [
        {
          "internalType": "uint256",
          "name": "dstableAmount",
          "type": "uint256"
        },
        {
          "components": [
            {
              "internalType": "address",
              "name": "collateralAsset",
              "type": "address"
            },
            {
              "internalType": "uint256",
              "name": "minCollateralAmount",
              "type": "uint256"
            },
            {
              "internalType": "uint256",
              "name": "minDStableReceived",
              "type": "uint256"
            },
            {
              "internalType": "uint256",
              "name": "deadline",
              "type": "uint256"
            },
            {
              "internalType": "uint256",
              "name": "slippageBps",
              "type": "uint256"
            },
            {
              "internalType": "address",
              "name": "profitTo",
              "type": "address"
            },
            {
              "internalType": "bytes",
              "name": "swapPath",
              "type": "bytes"
            },
            {
              "internalType": "uint256",
              "name": "expectedAmountOut",
              "type": "uint256"
            }
          ],
          "internalType": "struct SMOHelper.SMOParams",
          "name": "params",
          "type": "tuple"
        }
      ],
      "name": "executeSMO",
      "outputs": [],
      "stateMutability": "nonpayable",
      "type": "function"
    },
    {
      "inputs": [],
      "name": "getDStableToken",
      "outputs": [
        {
          "internalType": "address",
          "name": "",
          "type": "address"
        }
      ],
      "stateMutability": "view",
      "type": "function"
    },
    {
      "inputs": [],
      "name": "getMaxSlippageBps",
      "outputs": [
        {
          "internalType": "uint256",
          "name": "",
          "type": "uint256"
        }
      ],
      "stateMutability": "pure",
      "type": "function"
    },
    {
      "inputs": [],
      "name": "getRedeemer",
      "outputs": [
        {
          "internalType": "address",
          "name": "",
          "type": "address"
        }
      ],
      "stateMutability": "view",
      "type": "function"
    },
    {
      "inputs": [
        {
          "internalType": "bytes32",
          "name": "role",
          "type": "bytes32"
        }
      ],
      "name": "getRoleAdmin",
      "outputs": [
        {
          "internalType": "bytes32",
          "name": "",
          "type": "bytes32"
        }
      ],
      "stateMutability": "view",
      "type": "function"
    },
    {
      "inputs": [],
      "name": "getUniswapRouter",
      "outputs": [
        {
          "internalType": "address",
          "name": "",
          "type": "address"
        }
      ],
      "stateMutability": "view",
      "type": "function"
    },
    {
      "inputs": [],
      "name": "getValidFeeTiers",
      "outputs": [
        {
          "internalType": "uint24[4]",
          "name": "",
          "type": "uint24[4]"
        }
      ],
      "stateMutability": "pure",
      "type": "function"
    },
    {
      "inputs": [
        {
          "internalType": "bytes32",
          "name": "role",
          "type": "bytes32"
        },
        {
          "internalType": "address",
          "name": "account",
          "type": "address"
        }
      ],
      "name": "grantRole",
      "outputs": [],
      "stateMutability": "nonpayable",
      "type": "function"
    },
    {
      "inputs": [
        {
          "internalType": "bytes32",
          "name": "role",
          "type": "bytes32"
        },
        {
          "internalType": "address",
          "name": "account",
          "type": "address"
        }
      ],
      "name": "hasRole",
      "outputs": [
        {
          "internalType": "bool",
          "name": "",
          "type": "bool"
        }
      ],
      "stateMutability": "view",
      "type": "function"
    },
    {
      "inputs": [
        {
          "internalType": "address",
          "name": "initiator",
          "type": "address"
        },
        {
          "internalType": "address",
          "name": "",
          "type": "address"
        },
        {
          "internalType": "uint256",
          "name": "amount",
          "type": "uint256"
        },
        {
          "internalType": "uint256",
          "name": "fee",
          "type": "uint256"
        },
        {
          "internalType": "bytes",
          "name": "data",
          "type": "bytes"
        }
      ],
      "name": "onFlashLoan",
      "outputs": [
        {
          "internalType": "bytes32",
          "name": "",
          "type": "bytes32"
        }
      ],
      "stateMutability": "nonpayable",
      "type": "function"
    },
    {
      "inputs": [],
      "name": "pause",
      "outputs": [],
      "stateMutability": "nonpayable",
      "type": "function"
    },
    {
      "inputs": [],
      "name": "paused",
      "outputs": [
        {
          "internalType": "bool",
          "name": "",
          "type": "bool"
        }
      ],
      "stateMutability": "view",
      "type": "function"
    },
    {
      "inputs": [],
      "name": "redeemer",
      "outputs": [
        {
          "internalType": "contract RedeemerV2",
          "name": "",
          "type": "address"
        }
      ],
      "stateMutability": "view",
      "type": "function"
    },
    {
      "inputs": [
        {
          "internalType": "bytes32",
          "name": "role",
          "type": "bytes32"
        },
        {
          "internalType": "address",
          "name": "callerConfirmation",
          "type": "address"
        }
      ],
      "name": "renounceRole",
      "outputs": [],
      "stateMutability": "nonpayable",
      "type": "function"
    },
    {
      "inputs": [
        {
          "internalType": "address",
          "name": "to",
          "type": "address"
        },
        {
          "internalType": "uint256",
          "name": "amount",
          "type": "uint256"
        }
      ],
      "name": "rescueETH",
      "outputs": [],
      "stateMutability": "nonpayable",
      "type": "function"
    },
    {
      "inputs": [
        {
          "internalType": "address",
          "name": "token",
          "type": "address"
        },
        {
          "internalType": "address",
          "name": "to",
          "type": "address"
        },
        {
          "internalType": "uint256",
          "name": "amount",
          "type": "uint256"
        }
      ],
      "name": "rescueTokens",
      "outputs": [],
      "stateMutability": "nonpayable",
      "type": "function"
    },
    {
      "inputs": [
        {
          "internalType": "bytes32",
          "name": "role",
          "type": "bytes32"
        },
        {
          "internalType": "address",
          "name": "account",
          "type": "address"
        }
      ],
      "name": "revokeRole",
      "outputs": [],
      "stateMutability": "nonpayable",
      "type": "function"
    },
    {
      "inputs": [
        {
          "internalType": "bytes4",
          "name": "interfaceId",
          "type": "bytes4"
        }
      ],
      "name": "supportsInterface",
      "outputs": [
        {
          "internalType": "bool",
          "name": "",
          "type": "bool"
        }
      ],
      "stateMutability": "view",
      "type": "function"
    },
    {
      "inputs": [],
      "name": "uniswapRouter",
      "outputs": [
        {
          "internalType": "address",
          "name": "",
          "type": "address"
        }
      ],
      "stateMutability": "view",
      "type": "function"
    },
    {
      "inputs": [],
      "name": "unpause",
      "outputs": [],
      "stateMutability": "nonpayable",
      "type": "function"
    },
    {
      "stateMutability": "payable",
      "type": "receive"
    }
  ],
  "transactionHash": "0x519b7441b611c16c5bb556a37305c09e44ebbd380fdfbcabe90d6ba25e0f1ec5",
  "args": [
    "0xB76144F87DF95816e8c55C240F874C554B4553C3",
    "0x788D96f655735f52c676A133f4dFC53cEC614d4A",
    "0x346239972d1fa486FC4a521031BC81bFB7D6e8a4",
    "0xf19cf8881237CA819Fd50C9C22cb258e9DB8644e"
  ],
  "numDeployments": 1,
  "solcInputHash": "0fc24d3b3ad7044d44c5c5110047726b",
  "bytecode": "0x60e0346200014657601f62001db038819003918201601f19168301916001600160401b038311848410176200014b5780849260809460405283398101031262000146576200004d8162000161565b6200005b6020830162000161565b91620000786060620000706040840162000161565b920162000161565b600180556001600160a01b0392831693909290841580156200013b575b801562000130575b801562000125575b6200011357620000cb946080521660a05260c052620000c43362000176565b50620001f6565b50604051611af79081620002998239608051818181610679015281816108ad0152611128015260a051818181610436015261119e015260c051818181610572015261135d0152f35b60405163d92e233d60e01b8152600490fd5b5081841615620000a5565b50818316156200009d565b508181161562000095565b600080fd5b634e487b7160e01b600052604160045260246000fd5b51906001600160a01b03821682036200014657565b6001600160a01b031660008181527fad3228b676f7d3cd4284a5443f17f1962b36e491b30a40b2405849e597ba5fb5602052604081205490919060ff16620001f257818052816020526040822081835260205260408220600160ff19825416179055339160008051602062001d908339815191528180a4600190565b5090565b6001600160a01b031660008181527fee57cd81e84075558e8fcc182a1f4393f91fc97f963a136e66b7f949a62f319f60205260408120549091907f97667070c54ef182b0f5858b034beac1b6f3089aa2d3188bb1e8929f4fa9b9299060ff166200029357808352826020526040832082845260205260408320600160ff1982541617905560008051602062001d90833981519152339380a4600190565b50509056fe6080604052600436101561001b575b361561001957600080fd5b005b60003560e01c806301ffc9a714610197578063099a04e5146101925780631fefe8f71461018d57806323e30c8b14610188578063248a9ca3146101835780632ba29d381461016a5780632f2ff15d1461017e57806336568abe146101795780633f4ba83a14610174578063524900b5146101655780635c975abb1461016f5780636e0f106f1461016a578063735de9f7146101655780637bcfa373146101605780638456cb591461015b57806389a8e6631461015157806391d148541461015657806397fe30ef14610151578063984907951461014c578063a217fddf14610147578063cea9d26f14610142578063d547741f1461013d578063e229cd7614610138578063ed6d60be146101385763f5b541a60361000e57610a1b565b6109fe565b6109bc565b61096b565b61094f565b610932565b610897565b6108dc565b61083d565b6105c4565b61055c565b610420565b6105a1565b6104f2565b6104a7565b610465565b6103f1565b610366565b6102d4565b61022a565b346102075760203660031901126102075760043563ffffffff60e01b8116809103610207576020906323e30c8b60e01b81149081156101dc575b506040519015158152f35b637965db0b60e01b8114915081156101f6575b50386101d1565b6301ffc9a760e01b149050386101ef565b600080fd5b6001600160a01b0381160361020757565b35906102288261020c565b565b34610207576040366003190112610207576004356102478161020c565b61024f610a56565b6001600160a01b031680156102b75760008080808094602435905af1610273611086565b501561027c5780f35b60405162461bcd60e51b815260206004820152601360248201527211551217d514905394d1915497d19052531151606a1b6044820152606490fd5b60405163d92e233d60e01b8152600490fd5b600091031261020757565b346102075760003660031901126102075760806040516102f381610c9a565b3690376040516080810181811067ffffffffffffffff82111761036157604052606481526020906101f482820152610bb86040820152612710606082015260405191826000905b6004821061034757608085f35b828060019262ffffff87511681520194019101909261033a565b610c70565b346102075760a0366003190112610207576004356103838161020c565b61038e60243561020c565b60843567ffffffffffffffff8082116102075736602383011215610207578160040135908111610207573660248284010111610207576103ed9260246103dd9301906064359060443590611119565b6040519081529081906020820190565b0390f35b346102075760203660031901126102075760043560005260006020526020600160406000200154604051908152f35b34610207576000366003190112610207576040517f00000000000000000000000000000000000000000000000000000000000000006001600160a01b03168152602090f35b34610207576040366003190112610207576100196024356004356104888261020c565b8060005260006020526104a2600160406000200154610b2a565b610b49565b34610207576040366003190112610207576024356104c48161020c565b336001600160a01b038216036104e05761001990600435610bda565b60405163334bd91960e11b8152600490fd5b346102075760003660031901126102075761050b610a56565b60025460ff81161561054a5760ff19166002557f5db9ee0a495bf2e6ff9c91a7834c1ba4fdd244a5e8aa4e537bd38aeae4b073aa6020604051338152a1005b604051638dfc202b60e01b8152600490fd5b34610207576000366003190112610207576040517f00000000000000000000000000000000000000000000000000000000000000006001600160a01b03168152602090f35b3461020757600036600319011261020757602060ff600254166040519015158152f35b3461020757600319604036820181136102075760049081359160243567ffffffffffffffff81116102075761010081830195823603011261020757610607610aae565b61060f610e63565b60026001541461082e5760026001556064810135421161081f578315610810576001600160a01b03908161064287610c63565b16156108005760848101356107d081116107dc575061066660a46106729201610c63565b6001600160a01b031690565b156107cd577f0000000000000000000000000000000000000000000000000000000000000000169180519463613255ab60e01b86526020958681806106c888888301919091602081019260018060a01b03169052565b0381885afa908115610773576000916107a0575b508086116107785750926000610704959361072d846107128a988697519a8b918b8301610d46565b03601f1981018b528a610cb6565b51632e7ff4ef60e11b81529788968795869430908601610e32565b03925af1801561077357610745575b61001960018055565b8161076492903d1061076c575b61075c8183610cb6565b810190610dda565b50388061073c565b503d610752565b610ce7565b8251632da547fb60e01b815280850187815260208101929092529081906040010390fd5b0390fd5b6107c09150873d89116107c6575b6107b88183610cb6565b810190610cd8565b386106dc565b503d6107ae565b50905163d92e233d60e01b8152fd5b8451633b5d56ed60e11b81528085019182526107d060208301529081906040010390fd5b835163d92e233d60e01b81528390fd5b509051630fc4d9c960e11b8152fd5b50905163559895a360e01b8152fd5b509051633ee5aeb560e01b8152fd5b3461020757600036600319011261020757610856610a56565b61085e610e63565b600160ff1960025416176002557f62e78cea01bee320cd4e420270b5ea74000d11b0c9f74754ebdbfc544b05a2586020604051338152a1005b34610207576000366003190112610207576040517f00000000000000000000000000000000000000000000000000000000000000006001600160a01b03168152602090f35b3461020757604036600319011261020757602060ff6109266024356109008161020c565b6004356000526000845260406000209060018060a01b0316600052602052604060002090565b54166040519015158152f35b346102075760003660031901126102075760206040516127108152f35b3461020757600036600319011261020757602060405160008152f35b34610207576060366003190112610207576004356109888161020c565b602435906109958261020c565b61099d610a56565b6001600160a01b0391808316156102b75761001992604435921661172c565b34610207576040366003190112610207576100196024356004356109df8261020c565b8060005260006020526109f9600160406000200154610b2a565b610bda565b346102075760003660031901126102075760206040516107d08152f35b346102075760003660031901126102075760206040517f97667070c54ef182b0f5858b034beac1b6f3089aa2d3188bb1e8929f4fa9b9298152f35b3360009081527fad3228b676f7d3cd4284a5443f17f1962b36e491b30a40b2405849e597ba5fb5602052604090205460ff1615610a8f57565b60405163e2517d3f60e01b815233600482015260006024820152604490fd5b3360009081527fee57cd81e84075558e8fcc182a1f4393f91fc97f963a136e66b7f949a62f319f602052604090207f97667070c54ef182b0f5858b034beac1b6f3089aa2d3188bb1e8929f4fa9b9299060ff905b541615610b0c5750565b6044906040519063e2517d3f60e01b82523360048301526024820152fd5b600081815260208181526040808320338452909152902060ff90610b02565b6000818152602081815260408083206001600160a01b038616845290915281205490919060ff16610bd457808252602082815260408084206001600160a01b038616600090815292529020805460ff1916600117905533926001600160a01b0316917f2f8788117e7eff1d82e926ec794901d17c78024a50270940304540a733656f0d9080a4600190565b50905090565b6000818152602081815260408083206001600160a01b038616845290915281205490919060ff1615610bd457808252602082815260408084206001600160a01b038616600090815292529020805460ff1916905533926001600160a01b0316917ff6391f5c32d9c69d2a47ea670b442974b53935d1edc7fd64eb21e047a839171b9080a4600190565b35610c6d8161020c565b90565b634e487b7160e01b600052604160045260246000fd5b67ffffffffffffffff811161036157604052565b6080810190811067ffffffffffffffff82111761036157604052565b90601f8019910116810190811067ffffffffffffffff82111761036157604052565b90816020910312610207575190565b6040513d6000823e3d90fd5b9035601e198236030181121561020757016020813591019167ffffffffffffffff821161020757813603831361020757565b908060209392818452848401376000828201840152601f01601f1916010190565b602081528135610d558161020c565b60018060a01b03166020820152602082013560408201526040820135606082015260608201356080820152608082013560a0820152610da9610d9960a0840161021d565b6001600160a01b031660c0830152565b610dd160e0610dbb60c0850185610cf3565b9290610100938484870152610120860191610d25565b93013591015290565b90816020910312610207575180151581036102075790565b919082519283825260005b848110610e1e575050826000602080949584010152601f8019910116010190565b602081830181015184830182015201610dfd565b6001600160a01b039182168152911660208201526040810191909152608060608201819052610c6d92910190610df2565b60ff60025416610e6f57565b60405163d93c066560e01b8152600490fd5b60405190610100820182811067ffffffffffffffff82111761036157604052565b6040519061022882610c9a565b67ffffffffffffffff811161036157601f01601f191660200190565b81601f8201121561020757803590610ee282610eaf565b92610ef06040519485610cb6565b8284526020838301011161020757816000926020809301838601378301015290565b9060208282031261020757813567ffffffffffffffff9283821161020757016101008183031261020757610f44610e81565b92610f4e8261021d565b845260208201356020850152604082013560408501526060820135606085015260808201356080850152610f8460a0830161021d565b60a085015260c08201359081116102075760e092610fa3918301610ecb565b60c0840152013560e082015290565b634e487b7160e01b600052601160045260246000fd5b601319810191908211610fd757565b610fb2565b600019810191908211610fd757565b91908203918211610fd757565b6020815260806060611015845183602086015260a0850190610df2565b60208501516001600160a01b03166040858101919091528501518285015293015191015290565b604051906040820182811067ffffffffffffffff82111761036157604052601882527f56332d4578616374496e7075742d4e6f446561646c696e6500000000000000006020830152565b3d156110b1573d9061109782610eaf565b916110a56040519384610cb6565b82523d6000602084013e565b606090565b906020610c6d928181520190610df2565b6014019081601411610fd757565b9060038201809211610fd757565b91908201809211610fd757565b919260a093610c6d96959284526020840152604083015260608201528160808201520190610df2565b6001600160a01b0395929492937f0000000000000000000000000000000000000000000000000000000000000000871693913385900361171a5787309116036117085761116891810190610f12565b93606085015142116116f65784516040805163f0bf760360e01b81526001600160a01b03909216600480840191909152909790967f00000000000000000000000000000000000000000000000000000000000000008216959293909190602080866024818b5afa8015610773578a966000916116d9575b50156116b15783516111fb90610666906001600160a01b031681565b8b516370a0823160e01b8082523098820198895290999097909183918b91908290819060200103915afa98891561077357600099611692575b5061123f818761176d565b61124a88828861184a565b84516001600160a01b031698828601998a51833b15610207578e51630a55089160e11b8152808f018c81526001600160a01b03909316602084015260408301919091529060009082908190606001038183875af1908115610773578e6112be8f92956112ef968895611679575b508b61176d565b88518b906112d690610666906001600160a01b031681565b9151908152309281019283529485928391829160200190565b03915afa80156107735761130b9260009161165c575b50610feb565b975180891061163957508a5186815230818c019081528290829081906020010381895afa9081156107735760009161161c575b50845160009490611357906001600160a01b0316610666565b946113837f0000000000000000000000000000000000000000000000000000000000000000809761176d565b86516113a4908c90889061139f906001600160a01b0316610666565b61184a565b60c087018051511561160c57611420928f8f909387948f946113d98e8e6113d38451915160018060a01b031690565b90611928565b60e08d015160808e01516113ec916118f7565b9051956113f7610ea2565b96875230888801528287015260608601525180968195829463b858183f60e01b84528301610ff8565b03928a165af190816115ef575b50611455578b8b61079c61143f611086565b92516325f38d7b60e21b815292839283016110b6565b6114659b9a95969798999b61103c565b8b5198895230878a0190815290989083908290819060200103818b5afa9081156107735761149c936000926115d2575b5050610feb565b93898401518086106115b057506114b382896110e3565b85106115a257506106668593611543899896946115208561151161150a7fe8a3fce13322b4455ac2aef91c27d6921284de0d5225f07e4e9439179ec6f1a69f9e986115509961150561155b9f8061176d565b6110e3565b8a8061184a565b61151b8c89610feb565b610feb565b968780611582575b5050825161153e906001600160a01b0316610666565b61176d565b516001600160a01b031690565b9751958695866110f0565b0390a27f439148f0bbc682ca079e46d6e2c2f0c1e3b820f1a291b069d8882abf8cf18dd990565b60a085015161159b92906001600160a01b03169061172c565b3887611528565b8951634bfebe4560e01b8152fd5b8a516352388bed60e11b81529182019081526020810186905281906040010390fd5b6115e89250803d106107c6576107b88183610cb6565b3880611495565b61160590843d86116107c6576107b88183610cb6565b503861142d565b8e5163f114948960e01b81528e90fd5b6116339150823d84116107c6576107b88183610cb6565b3861133e565b8b5163079edc7d60e41b8152808c01918252602082018a90529081906040010390fd5b6116739150843d86116107c6576107b88183610cb6565b38611305565b8061168661168c92610c86565b806102c9565b386112b7565b6116aa919950823d84116107c6576107b88183610cb6565b9738611234565b83518b51632572cfc960e01b81526001600160a01b0390911681880190815281906020010390fd5b6116f09150823d841161076c5761075c8183610cb6565b386111df565b60405163559895a360e01b8152600490fd5b6040516377be635b60e11b8152600490fd5b60405163d2958ad160e01b8152600490fd5b60405163a9059cbb60e01b60208201526001600160a01b0392909216602483015260448083019390935291815261022891611768606483610cb6565b611885565b60405163095ea7b360e01b60208083018281526001600160a01b03861660248501526000604485018190529295939493909290919085606481015b03936117bc601f1995868101895288610cb6565b86519082875af16000513d82611825575b5050156117dc575b5050505050565b60405160208101959095526001600160a01b03166024850152600060448501526064908101845261181b93611768916118159082610cb6565b82611885565b38808080806117d5565b90915061184257506001600160a01b0383163b15155b38806117cd565b60011461183b565b60405163095ea7b360e01b60208083018281526001600160a01b038616602485015260448401969096529094919390600085606481016117a8565b906000602091828151910182855af115610ce7576000513d6118d857506001600160a01b0381163b155b6118b65750565b604051635274afe760e01b81526001600160a01b039091166004820152602490fd5b600114156118af565b90601782029180830460171490151715610fd757565b61271091820390828211610fd757818102918183041490151715610fd7570490565b6000198114610fd75760010190565b918251602b8110908115611aa4575b50611a925760208381015184518501600c0151606094929391851c6001600160a01b0393841614801593919290611a82575b505050611a705761198461197d8451610fc8565b6017900490565b9260005b848110611996575050505050565b6119a76119a2826118e1565b6110c7565b83818401015160e81c606481148015611a65575b8015611a5a575b8015611a4f575b15611a30575083906119da87610fdc565b83106119f1575b50506119ec90611919565b611988565b6119fa906110d5565b83010151841c8015611a0d5783906119e1565b60405163156c0a1160e01b81526001600160a01b03919091166004820152602490fd5b6040516301653ad560e01b815262ffffff919091166004820152602490fd5b5061271081146119c9565b50610bb881146119c2565b506101f481146119bb565b60405163ab33ddc960e01b8152600490fd5b1690841c14159050388080611969565b6040516366b045ff60e11b8152600490fd5b611ab99150611ab290610fc8565b6017900690565b15153861193756fea264697066735822122045e5f5109954578b79180beeb49145ff67df3c7f7a013674e7fe149c70c2732d64736f6c634300081400332f8788117e7eff1d82e926ec794901d17c78024a50270940304540a733656f0d"
}