{
  "address": "0x08a3b651123C1F73fC8e82d4BeA47b29D03b3A03",
  "abi": [
    {
      "inputs": [
        {
          "internalType": "address",
          "name": "_dstable",
          "type": "address"
        },
        {
          "internalType": "address",
          "name": "_redeemer",
          "type": "address"
        },
        {
          "internalType": "address",
          "name": "_uniswapRouter",
          "type": "address"
        },
        {
          "internalType": "address",
          "name": "_operator",
          "type": "address"
        }
      ],
      "stateMutability": "nonpayable",
      "type": "constructor"
    },
    {
      "inputs": [],
      "name": "AccessControlBadConfirmation",
      "type": "error"
    },
    {
      "inputs": [
        {
          "internalType": "address",
          "name": "account",
          "type": "address"
        },
        {
          "internalType": "bytes32",
          "name": "neededRole",
          "type": "bytes32"
        }
      ],
      "name": "AccessControlUnauthorizedAccount",
      "type": "error"
    },
    {
      "inputs": [
        {
          "internalType": "address",
          "name": "asset",
          "type": "address"
        }
      ],
      "name": "AssetRedemptionPaused",
      "type": "error"
    },
    {
      "inputs": [],
      "name": "DeadlineExceeded",
      "type": "error"
    },
    {
      "inputs": [],
      "name": "EnforcedPause",
      "type": "error"
    },
    {
      "inputs": [],
      "name": "ExpectedPause",
      "type": "error"
    },
    {
      "inputs": [
        {
          "internalType": "uint256",
          "name": "requested",
          "type": "uint256"
        },
        {
          "internalType": "uint256",
          "name": "maximum",
          "type": "uint256"
        }
      ],
      "name": "FlashLoanAmountExceedsMaximum",
      "type": "error"
    },
    {
      "inputs": [],
      "name": "FlashLoanRepaymentFailed",
      "type": "error"
    },
    {
      "inputs": [
        {
          "internalType": "uint256",
          "name": "expected",
          "type": "uint256"
        },
        {
          "internalType": "uint256",
          "name": "actual",
          "type": "uint256"
        }
      ],
      "name": "InsufficientCollateralReceived",
      "type": "error"
    },
    {
      "inputs": [
        {
          "internalType": "uint256",
          "name": "expected",
          "type": "uint256"
        },
        {
          "internalType": "uint256",
          "name": "actual",
          "type": "uint256"
        }
      ],
      "name": "InsufficientDStableReceived",
      "type": "error"
    },
    {
      "inputs": [
        {
          "internalType": "uint24",
          "name": "feeTier",
          "type": "uint24"
        }
      ],
      "name": "InvalidFeeTier",
      "type": "error"
    },
    {
      "inputs": [],
      "name": "InvalidFlashLoanInitiator",
      "type": "error"
    },
    {
      "inputs": [
        {
          "internalType": "address",
          "name": "token",
          "type": "address"
        }
      ],
      "name": "InvalidIntermediateToken",
      "type": "error"
    },
    {
      "inputs": [],
      "name": "InvalidPathLength",
      "type": "error"
    },
    {
      "inputs": [],
      "name": "InvalidSwapPathTokens",
      "type": "error"
    },
    {
      "inputs": [],
      "name": "NoSwapPathProvided",
      "type": "error"
    },
    {
      "inputs": [],
      "name": "ReentrancyGuardReentrantCall",
      "type": "error"
    },
    {
      "inputs": [
        {
          "internalType": "address",
          "name": "token",
          "type": "address"
        }
      ],
      "name": "SafeERC20FailedOperation",
      "type": "error"
    },
    {
      "inputs": [
        {
          "internalType": "bytes",
          "name": "reason",
          "type": "bytes"
        }
      ],
      "name": "SagaSwapExactInputFailed",
      "type": "error"
    },
    {
      "inputs": [
        {
          "internalType": "uint256",
          "name": "requestedSlippage",
          "type": "uint256"
        },
        {
          "internalType": "uint256",
          "name": "maxSlippage",
          "type": "uint256"
        }
      ],
      "name": "SlippageTooHigh",
      "type": "error"
    },
    {
      "inputs": [],
      "name": "UnauthorizedFlashLoan",
      "type": "error"
    },
    {
      "inputs": [],
      "name": "ZeroAddress",
      "type": "error"
    },
    {
      "inputs": [],
      "name": "ZeroDStableAmount",
      "type": "error"
    },
    {
      "anonymous": false,
      "inputs": [
        {
          "indexed": false,
          "internalType": "address",
          "name": "account",
          "type": "address"
        }
      ],
      "name": "Paused",
      "type": "event"
    },
    {
      "anonymous": false,
      "inputs": [
        {
          "indexed": true,
          "internalType": "bytes32",
          "name": "role",
          "type": "bytes32"
        },
        {
          "indexed": true,
          "internalType": "bytes32",
          "name": "previousAdminRole",
          "type": "bytes32"
        },
        {
          "indexed": true,
          "internalType": "bytes32",
          "name": "newAdminRole",
          "type": "bytes32"
        }
      ],
      "name": "RoleAdminChanged",
      "type": "event"
    },
    {
      "anonymous": false,
      "inputs": [
        {
          "indexed": true,
          "internalType": "bytes32",
          "name": "role",
          "type": "bytes32"
        },
        {
          "indexed": true,
          "internalType": "address",
          "name": "account",
          "type": "address"
        },
        {
          "indexed": true,
          "internalType": "address",
          "name": "sender",
          "type": "address"
        }
      ],
      "name": "RoleGranted",
      "type": "event"
    },
    {
      "anonymous": false,
      "inputs": [
        {
          "indexed": true,
          "internalType": "bytes32",
          "name": "role",
          "type": "bytes32"
        },
        {
          "indexed": true,
          "internalType": "address",
          "name": "account",
          "type": "address"
        },
        {
          "indexed": true,
          "internalType": "address",
          "name": "sender",
          "type": "address"
        }
      ],
      "name": "RoleRevoked",
      "type": "event"
    },
    {
      "anonymous": false,
      "inputs": [
        {
          "indexed": true,
          "internalType": "address",
          "name": "collateralAsset",
          "type": "address"
        },
        {
          "indexed": false,
          "internalType": "uint256",
          "name": "dstableAmount",
          "type": "uint256"
        },
        {
          "indexed": false,
          "internalType": "uint256",
          "name": "collateralAmount",
          "type": "uint256"
        },
        {
          "indexed": false,
          "internalType": "uint256",
          "name": "dstableReceived",
          "type": "uint256"
        },
        {
          "indexed": false,
          "internalType": "uint256",
          "name": "profit",
          "type": "uint256"
        },
        {
          "indexed": false,
          "internalType": "string",
          "name": "routingMethod",
          "type": "string"
        }
      ],
      "name": "SMOExecuted",
      "type": "event"
    },
    {
      "anonymous": false,
      "inputs": [
        {
          "indexed": false,
          "internalType": "address",
          "name": "account",
          "type": "address"
        }
      ],
      "name": "Unpaused",
      "type": "event"
    },
    {
      "inputs": [],
      "name": "DEFAULT_ADMIN_ROLE",
      "outputs": [
        {
          "internalType": "bytes32",
          "name": "",
          "type": "bytes32"
        }
      ],
      "stateMutability": "view",
      "type": "function"
    },
    {
      "inputs": [],
      "name": "HUNDRED_PERCENT_BPS",
      "outputs": [
        {
          "internalType": "uint256",
          "name": "",
          "type": "uint256"
        }
      ],
      "stateMutability": "view",
      "type": "function"
    },
    {
      "inputs": [],
      "name": "MAX_SLIPPAGE_BPS",
      "outputs": [
        {
          "internalType": "uint256",
          "name": "",
          "type": "uint256"
        }
      ],
      "stateMutability": "view",
      "type": "function"
    },
    {
      "inputs": [],
      "name": "OPERATOR_ROLE",
      "outputs": [
        {
          "internalType": "bytes32",
          "name": "",
          "type": "bytes32"
        }
      ],
      "stateMutability": "view",
      "type": "function"
    },
    {
      "inputs": [],
      "name": "dstable",
      "outputs": [
        {
          "internalType": "contract ERC20StablecoinUpgradeable",
          "name": "",
          "type": "address"
        }
      ],
      "stateMutability": "view",
      "type": "function"
    },
    {
      "inputs": [
        {
          "internalType": "uint256",
          "name": "dstableAmount",
          "type": "uint256"
        },
        {
          "components": [
            {
              "internalType": "address",
              "name": "collateralAsset",
              "type": "address"
            },
            {
              "internalType": "uint256",
              "name": "minCollateralAmount",
              "type": "uint256"
            },
            {
              "internalType": "uint256",
              "name": "minDStableReceived",
              "type": "uint256"
            },
            {
              "internalType": "uint256",
              "name": "deadline",
              "type": "uint256"
            },
            {
              "internalType": "uint256",
              "name": "slippageBps",
              "type": "uint256"
            },
            {
              "internalType": "address",
              "name": "profitTo",
              "type": "address"
            },
            {
              "internalType": "bytes",
              "name": "swapPath",
              "type": "bytes"
            },
            {
              "internalType": "uint256",
              "name": "expectedAmountOut",
              "type": "uint256"
            }
          ],
          "internalType": "struct SMOHelper.SMOParams",
          "name": "params",
          "type": "tuple"
        }
      ],
      "name": "executeSMO",
      "outputs": [],
      "stateMutability": "nonpayable",
      "type": "function"
    },
    {
      "inputs": [],
      "name": "getDStableToken",
      "outputs": [
        {
          "internalType": "address",
          "name": "",
          "type": "address"
        }
      ],
      "stateMutability": "view",
      "type": "function"
    },
    {
      "inputs": [],
      "name": "getMaxSlippageBps",
      "outputs": [
        {
          "internalType": "uint256",
          "name": "",
          "type": "uint256"
        }
      ],
      "stateMutability": "pure",
      "type": "function"
    },
    {
      "inputs": [],
      "name": "getRedeemer",
      "outputs": [
        {
          "internalType": "address",
          "name": "",
          "type": "address"
        }
      ],
      "stateMutability": "view",
      "type": "function"
    },
    {
      "inputs": [
        {
          "internalType": "bytes32",
          "name": "role",
          "type": "bytes32"
        }
      ],
      "name": "getRoleAdmin",
      "outputs": [
        {
          "internalType": "bytes32",
          "name": "",
          "type": "bytes32"
        }
      ],
      "stateMutability": "view",
      "type": "function"
    },
    {
      "inputs": [],
      "name": "getUniswapRouter",
      "outputs": [
        {
          "internalType": "address",
          "name": "",
          "type": "address"
        }
      ],
      "stateMutability": "view",
      "type": "function"
    },
    {
      "inputs": [],
      "name": "getValidFeeTiers",
      "outputs": [
        {
          "internalType": "uint24[4]",
          "name": "",
          "type": "uint24[4]"
        }
      ],
      "stateMutability": "pure",
      "type": "function"
    },
    {
      "inputs": [
        {
          "internalType": "bytes32",
          "name": "role",
          "type": "bytes32"
        },
        {
          "internalType": "address",
          "name": "account",
          "type": "address"
        }
      ],
      "name": "grantRole",
      "outputs": [],
      "stateMutability": "nonpayable",
      "type": "function"
    },
    {
      "inputs": [
        {
          "internalType": "bytes32",
          "name": "role",
          "type": "bytes32"
        },
        {
          "internalType": "address",
          "name": "account",
          "type": "address"
        }
      ],
      "name": "hasRole",
      "outputs": [
        {
          "internalType": "bool",
          "name": "",
          "type": "bool"
        }
      ],
      "stateMutability": "view",
      "type": "function"
    },
    {
      "inputs": [
        {
          "internalType": "address",
          "name": "initiator",
          "type": "address"
        },
        {
          "internalType": "address",
          "name": "",
          "type": "address"
        },
        {
          "internalType": "uint256",
          "name": "amount",
          "type": "uint256"
        },
        {
          "internalType": "uint256",
          "name": "fee",
          "type": "uint256"
        },
        {
          "internalType": "bytes",
          "name": "data",
          "type": "bytes"
        }
      ],
      "name": "onFlashLoan",
      "outputs": [
        {
          "internalType": "bytes32",
          "name": "",
          "type": "bytes32"
        }
      ],
      "stateMutability": "nonpayable",
      "type": "function"
    },
    {
      "inputs": [],
      "name": "pause",
      "outputs": [],
      "stateMutability": "nonpayable",
      "type": "function"
    },
    {
      "inputs": [],
      "name": "paused",
      "outputs": [
        {
          "internalType": "bool",
          "name": "",
          "type": "bool"
        }
      ],
      "stateMutability": "view",
      "type": "function"
    },
    {
      "inputs": [],
      "name": "redeemer",
      "outputs": [
        {
          "internalType": "contract RedeemerV2",
          "name": "",
          "type": "address"
        }
      ],
      "stateMutability": "view",
      "type": "function"
    },
    {
      "inputs": [
        {
          "internalType": "bytes32",
          "name": "role",
          "type": "bytes32"
        },
        {
          "internalType": "address",
          "name": "callerConfirmation",
          "type": "address"
        }
      ],
      "name": "renounceRole",
      "outputs": [],
      "stateMutability": "nonpayable",
      "type": "function"
    },
    {
      "inputs": [
        {
          "internalType": "address",
          "name": "to",
          "type": "address"
        },
        {
          "internalType": "uint256",
          "name": "amount",
          "type": "uint256"
        }
      ],
      "name": "rescueETH",
      "outputs": [],
      "stateMutability": "nonpayable",
      "type": "function"
    },
    {
      "inputs": [
        {
          "internalType": "address",
          "name": "token",
          "type": "address"
        },
        {
          "internalType": "address",
          "name": "to",
          "type": "address"
        },
        {
          "internalType": "uint256",
          "name": "amount",
          "type": "uint256"
        }
      ],
      "name": "rescueTokens",
      "outputs": [],
      "stateMutability": "nonpayable",
      "type": "function"
    },
    {
      "inputs": [
        {
          "internalType": "bytes32",
          "name": "role",
          "type": "bytes32"
        },
        {
          "internalType": "address",
          "name": "account",
          "type": "address"
        }
      ],
      "name": "revokeRole",
      "outputs": [],
      "stateMutability": "nonpayable",
      "type": "function"
    },
    {
      "inputs": [
        {
          "internalType": "bytes4",
          "name": "interfaceId",
          "type": "bytes4"
        }
      ],
      "name": "supportsInterface",
      "outputs": [
        {
          "internalType": "bool",
          "name": "",
          "type": "bool"
        }
      ],
      "stateMutability": "view",
      "type": "function"
    },
    {
      "inputs": [],
      "name": "uniswapRouter",
      "outputs": [
        {
          "internalType": "address",
          "name": "",
          "type": "address"
        }
      ],
      "stateMutability": "view",
      "type": "function"
    },
    {
      "inputs": [],
      "name": "unpause",
      "outputs": [],
      "stateMutability": "nonpayable",
      "type": "function"
    },
    {
      "stateMutability": "payable",
      "type": "receive"
    }
  ],
  "transactionHash": "0xfff697dcdd3331fe75ee357d0bb6d4ce16bec270799fff7b4e0b48ebe73b087c",
  "args": [
    "0xB76144F87DF95816e8c55C240F874C554B4553C3",
    "0x788D96f655735f52c676A133f4dFC53cEC614d4A",
    "0x346239972d1fa486FC4a521031BC81bFB7D6e8a4",
    "0xf19cf8881237CA819Fd50C9C22cb258e9DB8644e"
  ],
  "numDeployments": 1,
  "solcInputHash": "1ca67306489739496f38e4af55e8c7ab",
  "bytecode": "0x60e06040523480156200001157600080fd5b50604051620023bf380380620023bf8339810160408190526200003491620001c5565b600180556001600160a01b03841615806200005657506001600160a01b038316155b806200006957506001600160a01b038216155b806200007c57506001600160a01b038116155b156200009b5760405163d92e233d60e01b815260040160405180910390fd5b6001600160a01b0380851660805283811660a052821660c052620000c1600033620000f9565b50620000ee7f97667070c54ef182b0f5858b034beac1b6f3089aa2d3188bb1e8929f4fa9b92982620000f9565b505050505062000222565b6000828152602081815260408083206001600160a01b038516845290915281205460ff166200019e576000838152602081815260408083206001600160a01b03861684529091529020805460ff19166001179055620001553390565b6001600160a01b0316826001600160a01b0316847f2f8788117e7eff1d82e926ec794901d17c78024a50270940304540a733656f0d60405160405180910390a4506001620001a2565b5060005b92915050565b80516001600160a01b0381168114620001c057600080fd5b919050565b60008060008060808587031215620001dc57600080fd5b620001e785620001a8565b9350620001f760208601620001a8565b92506200020760408601620001a8565b91506200021760608601620001a8565b905092959194509250565b60805160a05160c0516120be62000301600039600081816102fd0152818161037e01528181610b1101528181610b4801528181610c100152610f0701526000818161025f01528181610348015281816107250152818161085a015281816108af0152818161090901526109980152600081816103e40152818161043a01528181610668015281816108380152818161088d0152818161097401528181610a8701528181610ba201528181610d2f01528181610e0b01528181610e4101528181610e7601528181610ecf01528181611155015261123001526120be6000f3fe60806040526004361061016a5760003560e01c8063735de9f7116100d1578063984907951161008a578063d547741f11610064578063d547741f146104a7578063e229cd76146104c7578063ed6d60be146104dd578063f5b541a6146104f257600080fd5b8063984907951461045c578063a217fddf14610472578063cea9d26f1461048757600080fd5b8063735de9f71461036c5780637bcfa373146103a05780638456cb59146103c057806389a8e663146103d557806391d148541461040857806397fe30ef1461042857600080fd5b80632f2ff15d116101235780632f2ff15d1461029957806336568abe146102b95780633f4ba83a146102d9578063524900b5146102ee5780635c975abb146103215780636e0f106f1461033957600080fd5b806301ffc9a714610176578063099a04e5146101ab5780631fefe8f7146101cd57806323e30c8b146101ef578063248a9ca31461021d5780632ba29d381461024d57600080fd5b3661017157005b600080fd5b34801561018257600080fd5b506101966101913660046119c0565b610526565b60405190151581526020015b60405180910390f35b3480156101b757600080fd5b506101cb6101c6366004611a06565b610551565b005b3480156101d957600080fd5b506101e2610627565b6040516101a29190611a30565b3480156101fb57600080fd5b5061020f61020a366004611a66565b61065b565b6040519081526020016101a2565b34801561022957600080fd5b5061020f610238366004611b0c565b60009081526020819052604090206001015490565b34801561025957600080fd5b506102817f000000000000000000000000000000000000000000000000000000000000000081565b6040516001600160a01b0390911681526020016101a2565b3480156102a557600080fd5b506101cb6102b4366004611b25565b610faf565b3480156102c557600080fd5b506101cb6102d4366004611b25565b610fd4565b3480156102e557600080fd5b506101cb61100c565b3480156102fa57600080fd5b507f0000000000000000000000000000000000000000000000000000000000000000610281565b34801561032d57600080fd5b5060025460ff16610196565b34801561034557600080fd5b507f0000000000000000000000000000000000000000000000000000000000000000610281565b34801561037857600080fd5b506102817f000000000000000000000000000000000000000000000000000000000000000081565b3480156103ac57600080fd5b506101cb6103bb366004611b51565b611022565b3480156103cc57600080fd5b506101cb6112c2565b3480156103e157600080fd5b507f0000000000000000000000000000000000000000000000000000000000000000610281565b34801561041457600080fd5b50610196610423366004611b25565b6112d5565b34801561043457600080fd5b506102817f000000000000000000000000000000000000000000000000000000000000000081565b34801561046857600080fd5b5061020f61271081565b34801561047e57600080fd5b5061020f600081565b34801561049357600080fd5b506101cb6104a2366004611ba0565b6112fe565b3480156104b357600080fd5b506101cb6104c2366004611b25565b611344565b3480156104d357600080fd5b5061020f6107d081565b3480156104e957600080fd5b506107d061020f565b3480156104fe57600080fd5b5061020f7f97667070c54ef182b0f5858b034beac1b6f3089aa2d3188bb1e8929f4fa9b92981565b60006001600160e01b031982166323e30c8b60e01b148061054b575061054b82611369565b92915050565b600061055c8161139e565b6001600160a01b0383166105835760405163d92e233d60e01b815260040160405180910390fd5b6000836001600160a01b03168360405160006040518083038185875af1925050503d80600081146105d0576040519150601f19603f3d011682016040523d82523d6000602084013e6105d5565b606091505b50509050806106215760405162461bcd60e51b815260206004820152601360248201527211551217d514905394d1915497d19052531151606a1b60448201526064015b60405180910390fd5b50505050565b61062f6119a2565b5060408051608081018252606481526101f46020820152610bb891810191909152612710606082015290565b6000336001600160a01b037f000000000000000000000000000000000000000000000000000000000000000016146106a65760405163d2958ad160e01b815260040160405180910390fd5b6001600160a01b03871630146106cf576040516377be635b60e11b815260040160405180910390fd5b60006106dd83850185611ca9565b905080606001514211156107045760405163559895a360e01b815260040160405180910390fd5b805160405163f0bf760360e01b81526001600160a01b0391821660048201527f00000000000000000000000000000000000000000000000000000000000000009091169063f0bf760390602401602060405180830381865afa15801561076e573d6000803e3d6000fd5b505050506040513d601f19601f820116820180604052508101906107929190611d6e565b6107bd578051604051632572cfc960e01b81526001600160a01b039091166004820152602401610618565b80516040516370a0823160e01b81523060048201526000916001600160a01b0316906370a0823190602401602060405180830381865afa158015610805573d6000803e3d6000fd5b505050506040513d601f19601f820116820180604052508101906108299190611d90565b90506108806001600160a01b037f0000000000000000000000000000000000000000000000000000000000000000167f000000000000000000000000000000000000000000000000000000000000000060006113a8565b6108d46001600160a01b037f0000000000000000000000000000000000000000000000000000000000000000167f0000000000000000000000000000000000000000000000000000000000000000896113a8565b81516020830151604051630a55089160e11b8152600481018a90526001600160a01b03928316602482015260448101919091527f0000000000000000000000000000000000000000000000000000000000000000909116906314aa112290606401600060405180830381600087803b15801561094f57600080fd5b505af1158015610963573d6000803e3d6000fd5b506109be9250506001600160a01b037f00000000000000000000000000000000000000000000000000000000000000001690507f000000000000000000000000000000000000000000000000000000000000000060006113a8565b81516040516370a0823160e01b815230600482015260009183916001600160a01b03909116906370a0823190602401602060405180830381865afa158015610a0a573d6000803e3d6000fd5b505050506040513d601f19601f82011682018060405250810190610a2e9190611d90565b610a389190611dbf565b90508260200151811015610a6f57602083015160405163079edc7d60e41b8152600481019190915260248101829052604401610618565b6040516370a0823160e01b81523060048201526000907f00000000000000000000000000000000000000000000000000000000000000006001600160a01b0316906370a0823190602401602060405180830381865afa158015610ad6573d6000803e3d6000fd5b505050506040513d601f19601f82011682018060405250810190610afa9190611d90565b8451909150606090610b37906001600160a01b03167f000000000000000000000000000000000000000000000000000000000000000060006113a8565b8451610b6d906001600160a01b03167f0000000000000000000000000000000000000000000000000000000000000000856113a8565b8460c0015151600003610b935760405163f114948960e01b815260040160405180910390fd5b610bc68560c0015186600001517f0000000000000000000000000000000000000000000000000000000000000000611466565b6000610bda8660e00151876080015161164b565b6040805160808101825260c0890151815230602082015280820187905260608101839052905163b858183f60e01b8152919250907f00000000000000000000000000000000000000000000000000000000000000006001600160a01b03169063b858183f90610c4d908490600401611e18565b6020604051808303816000875af1925050508015610c88575060408051601f3d908101601f19168201909252610c8591810190611d90565b60015b610cd7573d808015610cb6576040519150601f19603f3d011682016040523d82523d6000602084013e610cbb565b606091505b50806040516358c40e6160e11b81526004016106189190611e66565b50604080518082018252601881527f56332d4578616374496e7075742d4e6f446561646c696e650000000000000000602082015290516370a0823160e01b815230600482015290935060009085906001600160a01b037f000000000000000000000000000000000000000000000000000000000000000016906370a0823190602401602060405180830381865afa158015610d76573d6000803e3d6000fd5b505050506040513d601f19601f82011682018060405250810190610d9a9190611d90565b610da49190611dbf565b90508760400151811015610ddc578760400151816040516352388bed60e11b8152600401610618929190918252602082015260400190565b610de68c8e611e79565b811015610e0657604051634bfebe4560e01b815260040160405180910390fd5b610e3c7f00000000000000000000000000000000000000000000000000000000000000006001600160a01b0381169060006113a8565b610e9d7f00000000000000000000000000000000000000000000000000000000000000008d8f610e6c9190611e79565b6001600160a01b037f00000000000000000000000000000000000000000000000000000000000000001691906113a8565b60008c610eaa8f84611dbf565b610eb49190611dbf565b90508015610ef65760a0890151610ef6906001600160a01b037f0000000000000000000000000000000000000000000000000000000000000000169083611675565b8851610f2d906001600160a01b03167f000000000000000000000000000000000000000000000000000000000000000060006113a8565b88600001516001600160a01b03167fe8a3fce13322b4455ac2aef91c27d6921284de0d5225f07e4e9439179ec6f1a68f8985858a604051610f72959493929190611e8c565b60405180910390a2507f439148f0bbc682ca079e46d6e2c2f0c1e3b820f1a291b069d8882abf8cf18dd99f9e505050505050505050505050505050565b600082815260208190526040902060010154610fca8161139e565b61062183836116a6565b6001600160a01b0381163314610ffd5760405163334bd91960e11b815260040160405180910390fd5b6110078282611738565b505050565b60006110178161139e565b61101f6117a3565b50565b7f97667070c54ef182b0f5858b034beac1b6f3089aa2d3188bb1e8929f4fa9b92961104c8161139e565b6110546117f5565b61105c61181b565b81606001354211156110815760405163559895a360e01b815260040160405180910390fd5b826000036110a257604051630fc4d9c960e11b815260040160405180910390fd5b60006110b16020840184611ec2565b6001600160a01b0316036110d85760405163d92e233d60e01b815260040160405180910390fd5b6107d08260800135111561110d57604051633b5d56ed60e11b8152608083013560048201526107d06024820152604401610618565b600061111f60c0840160a08501611ec2565b6001600160a01b0316036111465760405163d92e233d60e01b815260040160405180910390fd5b60405163613255ab60e01b81527f00000000000000000000000000000000000000000000000000000000000000006001600160a01b03166004820181905260009163613255ab90602401602060405180830381865afa1580156111ad573d6000803e3d6000fd5b505050506040513d601f19601f820116820180604052508101906111d19190611d90565b9050808411156111fe57604051632da547fb60e01b81526004810185905260248101829052604401610618565b6000836040516020016112119190611f53565b60408051808303601f1901815290829052632e7ff4ef60e11b825291507f00000000000000000000000000000000000000000000000000000000000000006001600160a01b03811691635cffe9de91611273913091908a908790600401611fe7565b6020604051808303816000875af1158015611292573d6000803e3d6000fd5b505050506040513d601f19601f820116820180604052508101906112b69190611d6e565b50505061100760018055565b60006112cd8161139e565b61101f611845565b6000918252602082815260408084206001600160a01b0393909316845291905290205460ff1690565b60006113098161139e565b6001600160a01b0383166113305760405163d92e233d60e01b815260040160405180910390fd5b6106216001600160a01b0385168484611675565b60008281526020819052604090206001015461135f8161139e565b6106218383611738565b60006001600160e01b03198216637965db0b60e01b148061054b57506301ffc9a760e01b6001600160e01b031983161461054b565b61101f8133611882565b604080516001600160a01b038416602482015260448082018490528251808303909101815260649091019091526020810180516001600160e01b031663095ea7b360e01b1790526113f984826118bf565b610621576040516001600160a01b0384811660248301526000604483015261145c91869182169063095ea7b3906064015b604051602081830303815290604052915060e01b6020820180516001600160e01b03838183161783525050505061190e565b610621848261190e565b602b8351108061148e57506017601484516114819190611dbf565b61148b9190612030565b15155b156114ac576040516366b045ff60e11b815260040160405180910390fd5b60006114bc846020015160601c90565b905060006114d185805101600c015160601c90565b9050836001600160a01b0316826001600160a01b03161415806115065750826001600160a01b0316816001600160a01b031614155b156115245760405163ab33ddc960e01b815260040160405180910390fd5b60006017601487516115369190611dbf565b6115409190612044565b905060005b8181101561164257600061155a826017612058565b611565906014611e79565b8881016020015190915060e81c6000606482148061158957508162ffffff166101f4145b8061159a57508162ffffff16610bb8145b806115ab57508162ffffff16612710145b9050806115d2576040516301653ad560e01b815262ffffff83166004820152602401610618565b6115dd600186611dbf565b84101561162c576000806115f2856003611e79565b8c81016020015160601c92509050816116295760405163156c0a1160e01b81526001600160a01b0383166004820152602401610618565b50505b505050808061163a9061206f565b915050611545565b50505050505050565b600061271061165a8382611dbf565b6116649085612058565b61166e9190612044565b9392505050565b6040516001600160a01b0383811660248301526044820183905261100791859182169063a9059cbb9060640161142a565b60006116b283836112d5565b611730576000838152602081815260408083206001600160a01b03861684529091529020805460ff191660011790556116e83390565b6001600160a01b0316826001600160a01b0316847f2f8788117e7eff1d82e926ec794901d17c78024a50270940304540a733656f0d60405160405180910390a450600161054b565b50600061054b565b600061174483836112d5565b15611730576000838152602081815260408083206001600160a01b0386168085529252808320805460ff1916905551339286917ff6391f5c32d9c69d2a47ea670b442974b53935d1edc7fd64eb21e047a839171b9190a450600161054b565b6117ab61197f565b6002805460ff191690557f5db9ee0a495bf2e6ff9c91a7834c1ba4fdd244a5e8aa4e537bd38aeae4b073aa335b6040516001600160a01b03909116815260200160405180910390a1565b60025460ff16156118195760405163d93c066560e01b815260040160405180910390fd5b565b60026001540361183e57604051633ee5aeb560e01b815260040160405180910390fd5b6002600155565b61184d6117f5565b6002805460ff191660011790557f62e78cea01bee320cd4e420270b5ea74000d11b0c9f74754ebdbfc544b05a2586117d83390565b61188c82826112d5565b6118bb5760405163e2517d3f60e01b81526001600160a01b038216600482015260248101839052604401610618565b5050565b6000806000806020600086516020880160008a5af192503d91506000519050828015611904575081156118f55780600114611904565b6000866001600160a01b03163b115b9695505050505050565b600080602060008451602086016000885af180611931576040513d6000823e3d81fd5b50506000513d91508115611949578060011415611956565b6001600160a01b0384163b155b1561062157604051635274afe760e01b81526001600160a01b0385166004820152602401610618565b60025460ff1661181957604051638dfc202b60e01b815260040160405180910390fd5b60405180608001604052806004906020820280368337509192915050565b6000602082840312156119d257600080fd5b81356001600160e01b03198116811461166e57600080fd5b80356001600160a01b0381168114611a0157600080fd5b919050565b60008060408385031215611a1957600080fd5b611a22836119ea565b946020939093013593505050565b60808101818360005b6004811015611a5d57815162ffffff16835260209283019290910190600101611a39565b50505092915050565b60008060008060008060a08789031215611a7f57600080fd5b611a88876119ea565b9550611a96602088016119ea565b94506040870135935060608701359250608087013567ffffffffffffffff80821115611ac157600080fd5b818901915089601f830112611ad557600080fd5b813581811115611ae457600080fd5b8a6020828501011115611af657600080fd5b6020830194508093505050509295509295509295565b600060208284031215611b1e57600080fd5b5035919050565b60008060408385031215611b3857600080fd5b82359150611b48602084016119ea565b90509250929050565b60008060408385031215611b6457600080fd5b82359150602083013567ffffffffffffffff811115611b8257600080fd5b83016101008186031215611b9557600080fd5b809150509250929050565b600080600060608486031215611bb557600080fd5b611bbe846119ea565b9250611bcc602085016119ea565b9150604084013590509250925092565b634e487b7160e01b600052604160045260246000fd5b604051610100810167ffffffffffffffff81118282101715611c1657611c16611bdc565b60405290565b600082601f830112611c2d57600080fd5b813567ffffffffffffffff80821115611c4857611c48611bdc565b604051601f8301601f19908116603f01168101908282118183101715611c7057611c70611bdc565b81604052838152866020858801011115611c8957600080fd5b836020870160208301376000602085830101528094505050505092915050565b600060208284031215611cbb57600080fd5b813567ffffffffffffffff80821115611cd357600080fd5b908301906101008286031215611ce857600080fd5b611cf0611bf2565b611cf9836119ea565b815260208301356020820152604083013560408201526060830135606082015260808301356080820152611d2f60a084016119ea565b60a082015260c083013582811115611d4657600080fd5b611d5287828601611c1c565b60c08301525060e083013560e082015280935050505092915050565b600060208284031215611d8057600080fd5b8151801515811461166e57600080fd5b600060208284031215611da257600080fd5b5051919050565b634e487b7160e01b600052601160045260246000fd5b8181038181111561054b5761054b611da9565b6000815180845260005b81811015611df857602081850181015186830182015201611ddc565b506000602082860101526020601f19601f83011685010191505092915050565b602081526000825160806020840152611e3460a0840182611dd2565b905060018060a01b03602085015116604084015260408401516060840152606084015160808401528091505092915050565b60208152600061166e6020830184611dd2565b8082018082111561054b5761054b611da9565b85815284602082015283604082015282606082015260a060808201526000611eb760a0830184611dd2565b979650505050505050565b600060208284031215611ed457600080fd5b61166e826119ea565b6000808335601e19843603018112611ef457600080fd5b830160208101925035905067ffffffffffffffff811115611f1457600080fd5b803603821315611f2357600080fd5b9250929050565b81835281816020850137506000828201602090810191909152601f909101601f19169091010190565b6020815260006001600160a01b0380611f6b856119ea565b166020840152602084013560408401526040840135606084015260608401356080840152608084013560a084015280611fa660a086016119ea565b1660c084015250611fba60c0840184611edd565b6101008060e0860152611fd261012086018385611f2a565b60e09690960135940193909352509192915050565b6001600160a01b038581168252841660208201526040810183905260806060820181905260009061190490830184611dd2565b634e487b7160e01b600052601260045260246000fd5b60008261203f5761203f61201a565b500690565b6000826120535761205361201a565b500490565b808202811582820484141761054b5761054b611da9565b60006001820161208157612081611da9565b506001019056fea264697066735822122073dbae62f7ddbad8f87aecded23fe26b1ce1555a75c2ec229f4731e49651331e64736f6c63430008140033",
  "devdoc": {
    "details": "Enhanced Stablecoin Market Operations Helper contract with advanced routing This contract facilitates SMO operations with: 1. Flash minting dSTABLE tokens 2. Redeeming dSTABLE for collateral (using redeemAsProtocol - no fees) 3. Advanced UniswapV3 routing with automatic route discovery 4. Multi-strategy routing (direct, via dUSD, via USDC) 5. Gas optimizations and dust management 6. Repaying the flash loan and distributing profit",
    "errors": {
      "AccessControlBadConfirmation()": [
        {
          "details": "The caller of a function is not the expected one. NOTE: Don't confuse with {AccessControlUnauthorizedAccount}."
        }
      ],
      "AccessControlUnauthorizedAccount(address,bytes32)": [
        {
          "details": "The `account` is missing a role."
        }
      ],
      "EnforcedPause()": [
        {
          "details": "The operation failed because the contract is paused."
        }
      ],
      "ExpectedPause()": [
        {
          "details": "The operation failed because the contract is not paused."
        }
      ],
      "ReentrancyGuardReentrantCall()": [
        {
          "details": "Unauthorized reentrant call."
        }
      ],
      "SafeERC20FailedOperation(address)": [
        {
          "details": "An operation with an ERC-20 token failed."
        }
      ]
    },
    "events": {
      "Paused(address)": {
        "details": "Emitted when the pause is triggered by `account`."
      },
      "RoleAdminChanged(bytes32,bytes32,bytes32)": {
        "details": "Emitted when `newAdminRole` is set as ``role``'s admin role, replacing `previousAdminRole` `DEFAULT_ADMIN_ROLE` is the starting admin for all roles, despite {RoleAdminChanged} not being emitted to signal this."
      },
      "RoleGranted(bytes32,address,address)": {
        "details": "Emitted when `account` is granted `role`. `sender` is the account that originated the contract call. This account bears the admin role (for the granted role). Expected in cases where the role was granted using the internal {AccessControl-_grantRole}."
      },
      "RoleRevoked(bytes32,address,address)": {
        "details": "Emitted when `account` is revoked `role`. `sender` is the account that originated the contract call:   - if using `revokeRole`, it is the admin role bearer   - if using `renounceRole`, it is the role bearer (i.e. `account`)"
      },
      "Unpaused(address)": {
        "details": "Emitted when the pause is lifted by `account`."
      }
    },
    "kind": "dev",
    "methods": {
      "executeSMO(uint256,(address,uint256,uint256,uint256,uint256,address,bytes,uint256))": {
        "params": {
          "dstableAmount": "Amount of dSTABLE to flash mint",
          "params": "Enhanced SMO parameters including routing options"
        }
      },
      "getDStableToken()": {
        "returns": {
          "_0": "The dSTABLE token address"
        }
      },
      "getMaxSlippageBps()": {
        "returns": {
          "_0": "The maximum slippage in basis points (2000 = 20%)"
        }
      },
      "getRedeemer()": {
        "returns": {
          "_0": "The Redeemer contract address"
        }
      },
      "getRoleAdmin(bytes32)": {
        "details": "Returns the admin role that controls `role`. See {grantRole} and {revokeRole}. To change a role's admin, use {_setRoleAdmin}."
      },
      "getUniswapRouter()": {
        "returns": {
          "_0": "The UniswapV3 router address"
        }
      },
      "getValidFeeTiers()": {
        "returns": {
          "_0": "Array of valid fee tiers"
        }
      },
      "grantRole(bytes32,address)": {
        "details": "Grants `role` to `account`. If `account` had not been already granted `role`, emits a {RoleGranted} event. Requirements: - the caller must have ``role``'s admin role. May emit a {RoleGranted} event."
      },
      "hasRole(bytes32,address)": {
        "details": "Returns `true` if `account` has been granted `role`."
      },
      "onFlashLoan(address,address,uint256,uint256,bytes)": {
        "params": {
          "amount": "Amount being flash loaned",
          "data": "Encoded SMO parameters",
          "initiator": "Address that initiated the flash loan"
        },
        "returns": {
          "_0": "keccak256(\"ERC3156FlashBorrower.onFlashLoan\")"
        }
      },
      "paused()": {
        "details": "Returns true if the contract is paused, and false otherwise."
      },
      "renounceRole(bytes32,address)": {
        "details": "Revokes `role` from the calling account. Roles are often managed via {grantRole} and {revokeRole}: this function's purpose is to provide a mechanism for accounts to lose their privileges if they are compromised (such as when a trusted device is misplaced). If the calling account had been revoked `role`, emits a {RoleRevoked} event. Requirements: - the caller must be `callerConfirmation`. May emit a {RoleRevoked} event."
      },
      "rescueETH(address,uint256)": {
        "params": {
          "amount": "Amount of ETH to rescue",
          "to": "Address to send ETH to"
        }
      },
      "rescueTokens(address,address,uint256)": {
        "params": {
          "amount": "Amount of tokens to rescue",
          "to": "Address to send tokens to",
          "token": "Token to rescue"
        }
      },
      "revokeRole(bytes32,address)": {
        "details": "Revokes `role` from `account`. If `account` had been granted `role`, emits a {RoleRevoked} event. Requirements: - the caller must have ``role``'s admin role. May emit a {RoleRevoked} event."
      },
      "supportsInterface(bytes4)": {
        "params": {
          "interfaceId": "The interface ID to check"
        },
        "returns": {
          "_0": "True if the interface is supported"
        }
      }
    },
    "title": "SMOHelper",
    "version": 1
  },
  "userdoc": {
    "kind": "user",
    "methods": {
      "executeSMO(uint256,(address,uint256,uint256,uint256,uint256,address,bytes,uint256))": {
        "notice": "Executes a Stablecoin Market Operation with enhanced routing"
      },
      "getDStableToken()": {
        "notice": "Returns the dSTABLE token address"
      },
      "getMaxSlippageBps()": {
        "notice": "Returns the maximum allowed slippage in basis points"
      },
      "getRedeemer()": {
        "notice": "Returns the Redeemer contract address"
      },
      "getUniswapRouter()": {
        "notice": "Returns the UniswapV3 router address"
      },
      "getValidFeeTiers()": {
        "notice": "Returns the valid Uniswap V3 fee tiers"
      },
      "onFlashLoan(address,address,uint256,uint256,bytes)": {
        "notice": "Flash loan callback function with enhanced routing"
      },
      "pause()": {
        "notice": "Pauses the contract"
      },
      "rescueETH(address,uint256)": {
        "notice": "Rescues stuck ETH"
      },
      "rescueTokens(address,address,uint256)": {
        "notice": "Rescues stuck tokens"
      },
      "supportsInterface(bytes4)": {
        "notice": "Checks if the contract supports the IERC3156FlashBorrower interface"
      },
      "unpause()": {
        "notice": "Unpauses the contract"
      }
    },
    "version": 1
  },
  "storageLayout": {
    "storage": [
      {
        "astId": 2519,
        "contract": "contracts/dstable/SMOHelper.sol:SMOHelper",
        "label": "_roles",
        "offset": 0,
        "slot": "0",
        "type": "t_mapping(t_bytes32,t_struct(RoleData)2514_storage)"
      },
      {
        "astId": 4997,
        "contract": "contracts/dstable/SMOHelper.sol:SMOHelper",
        "label": "_status",
        "offset": 0,
        "slot": "1",
        "type": "t_uint256"
      },
      {
        "astId": 4887,
        "contract": "contracts/dstable/SMOHelper.sol:SMOHelper",
        "label": "_paused",
        "offset": 0,
        "slot": "2",
        "type": "t_bool"
      }
    ],
    "types": {
      "t_address": {
        "encoding": "inplace",
        "label": "address",
        "numberOfBytes": "20"
      },
      "t_bool": {
        "encoding": "inplace",
        "label": "bool",
        "numberOfBytes": "1"
      },
      "t_bytes32": {
        "encoding": "inplace",
        "label": "bytes32",
        "numberOfBytes": "32"
      },
      "t_mapping(t_address,t_bool)": {
        "encoding": "mapping",
        "key": "t_address",
        "label": "mapping(address => bool)",
        "numberOfBytes": "32",
        "value": "t_bool"
      },
      "t_mapping(t_bytes32,t_struct(RoleData)2514_storage)": {
        "encoding": "mapping",
        "key": "t_bytes32",
        "label": "mapping(bytes32 => struct AccessControl.RoleData)",
        "numberOfBytes": "32",
        "value": "t_struct(RoleData)2514_storage"
      },
      "t_struct(RoleData)2514_storage": {
        "encoding": "inplace",
        "label": "struct AccessControl.RoleData",
        "members": [
          {
            "astId": 2511,
            "contract": "contracts/dstable/SMOHelper.sol:SMOHelper",
            "label": "hasRole",
            "offset": 0,
            "slot": "0",
            "type": "t_mapping(t_address,t_bool)"
          },
          {
            "astId": 2513,
            "contract": "contracts/dstable/SMOHelper.sol:SMOHelper",
            "label": "adminRole",
            "offset": 0,
            "slot": "1",
            "type": "t_bytes32"
          }
        ],
        "numberOfBytes": "64"
      },
      "t_uint256": {
        "encoding": "inplace",
        "label": "uint256",
        "numberOfBytes": "32"
      }
    }
  }
}