{
  "address": "0x093e9dB2C2eC21ff7E5E1F5766Bbfb48B7BA90cD",
  "abi": [
    {
      "inputs": [
        {
          "internalType": "address",
          "name": "_baseCurrency",
          "type": "address"
        },
        {
          "internalType": "uint256",
          "name": "_baseCurrencyUnit",
          "type": "uint256"
        },
        {
          "internalType": "uint256",
          "name": "_initialPrice",
          "type": "uint256"
        }
      ],
      "stateMutability": "nonpayable",
      "type": "constructor"
    },
    {
      "inputs": [],
      "name": "AccessControlBadConfirmation",
      "type": "error"
    },
    {
      "inputs": [
        {
          "internalType": "address",
          "name": "account",
          "type": "address"
        },
        {
          "internalType": "bytes32",
          "name": "neededRole",
          "type": "bytes32"
        }
      ],
      "name": "AccessControlUnauthorizedAccount",
      "type": "error"
    },
    {
      "inputs": [
        {
          "internalType": "int256",
          "name": "actualChangeBps",
          "type": "int256"
        },
        {
          "internalType": "int256",
          "name": "expectedChangeBps",
          "type": "int256"
        },
        {
          "internalType": "uint256",
          "name": "tolerance",
          "type": "uint256"
        }
      ],
      "name": "ChangePercentMismatch",
      "type": "error"
    },
    {
      "inputs": [],
      "name": "InvalidPrice",
      "type": "error"
    },
    {
      "inputs": [],
      "name": "InvalidTolerance",
      "type": "error"
    },
    {
      "inputs": [
        {
          "internalType": "uint256",
          "name": "currentPrice",
          "type": "uint256"
        },
        {
          "internalType": "uint256",
          "name": "expectedPrice",
          "type": "uint256"
        }
      ],
      "name": "OldPriceMismatch",
      "type": "error"
    },
    {
      "anonymous": false,
      "inputs": [
        {
          "indexed": false,
          "internalType": "uint256",
          "name": "oldTolerance",
          "type": "uint256"
        },
        {
          "indexed": false,
          "internalType": "uint256",
          "name": "newTolerance",
          "type": "uint256"
        }
      ],
      "name": "BpsToleranceUpdated",
      "type": "event"
    },
    {
      "anonymous": false,
      "inputs": [
        {
          "indexed": false,
          "internalType": "uint256",
          "name": "oldMaxStaleness",
          "type": "uint256"
        },
        {
          "indexed": false,
          "internalType": "uint256",
          "name": "newMaxStaleness",
          "type": "uint256"
        }
      ],
      "name": "MaxStalenessUpdated",
      "type": "event"
    },
    {
      "anonymous": false,
      "inputs": [
        {
          "indexed": true,
          "internalType": "uint256",
          "name": "oldPrice",
          "type": "uint256"
        },
        {
          "indexed": true,
          "internalType": "uint256",
          "name": "newPrice",
          "type": "uint256"
        },
        {
          "indexed": true,
          "internalType": "address",
          "name": "updater",
          "type": "address"
        },
        {
          "indexed": false,
          "internalType": "int256",
          "name": "changeBps",
          "type": "int256"
        },
        {
          "indexed": false,
          "internalType": "uint256",
          "name": "timestamp",
          "type": "uint256"
        }
      ],
      "name": "PriceUpdated",
      "type": "event"
    },
    {
      "anonymous": false,
      "inputs": [
        {
          "indexed": true,
          "internalType": "bytes32",
          "name": "role",
          "type": "bytes32"
        },
        {
          "indexed": true,
          "internalType": "bytes32",
          "name": "previousAdminRole",
          "type": "bytes32"
        },
        {
          "indexed": true,
          "internalType": "bytes32",
          "name": "newAdminRole",
          "type": "bytes32"
        }
      ],
      "name": "RoleAdminChanged",
      "type": "event"
    },
    {
      "anonymous": false,
      "inputs": [
        {
          "indexed": true,
          "internalType": "bytes32",
          "name": "role",
          "type": "bytes32"
        },
        {
          "indexed": true,
          "internalType": "address",
          "name": "account",
          "type": "address"
        },
        {
          "indexed": true,
          "internalType": "address",
          "name": "sender",
          "type": "address"
        }
      ],
      "name": "RoleGranted",
      "type": "event"
    },
    {
      "anonymous": false,
      "inputs": [
        {
          "indexed": true,
          "internalType": "bytes32",
          "name": "role",
          "type": "bytes32"
        },
        {
          "indexed": true,
          "internalType": "address",
          "name": "account",
          "type": "address"
        },
        {
          "indexed": true,
          "internalType": "address",
          "name": "sender",
          "type": "address"
        }
      ],
      "name": "RoleRevoked",
      "type": "event"
    },
    {
      "inputs": [],
      "name": "BASE_CURRENCY",
      "outputs": [
        {
          "internalType": "address",
          "name": "",
          "type": "address"
        }
      ],
      "stateMutability": "view",
      "type": "function"
    },
    {
      "inputs": [],
      "name": "BASE_CURRENCY_UNIT",
      "outputs": [
        {
          "internalType": "uint256",
          "name": "",
          "type": "uint256"
        }
      ],
      "stateMutability": "view",
      "type": "function"
    },
    {
      "inputs": [],
      "name": "DEFAULT_ADMIN_ROLE",
      "outputs": [
        {
          "internalType": "bytes32",
          "name": "",
          "type": "bytes32"
        }
      ],
      "stateMutability": "view",
      "type": "function"
    },
    {
      "inputs": [],
      "name": "GUARDIAN_ROLE",
      "outputs": [
        {
          "internalType": "bytes32",
          "name": "",
          "type": "bytes32"
        }
      ],
      "stateMutability": "view",
      "type": "function"
    },
    {
      "inputs": [],
      "name": "ORACLE_MANAGER_ROLE",
      "outputs": [
        {
          "internalType": "bytes32",
          "name": "",
          "type": "bytes32"
        }
      ],
      "stateMutability": "view",
      "type": "function"
    },
    {
      "inputs": [],
      "name": "bpsTolerance",
      "outputs": [
        {
          "internalType": "uint256",
          "name": "",
          "type": "uint256"
        }
      ],
      "stateMutability": "view",
      "type": "function"
    },
    {
      "inputs": [
        {
          "internalType": "address",
          "name": "",
          "type": "address"
        }
      ],
      "name": "getAssetPrice",
      "outputs": [
        {
          "internalType": "uint256",
          "name": "",
          "type": "uint256"
        }
      ],
      "stateMutability": "view",
      "type": "function"
    },
    {
      "inputs": [
        {
          "internalType": "address",
          "name": "",
          "type": "address"
        }
      ],
      "name": "getPriceInfo",
      "outputs": [
        {
          "internalType": "uint256",
          "name": "",
          "type": "uint256"
        },
        {
          "internalType": "bool",
          "name": "isAlive",
          "type": "bool"
        }
      ],
      "stateMutability": "view",
      "type": "function"
    },
    {
      "inputs": [
        {
          "internalType": "bytes32",
          "name": "role",
          "type": "bytes32"
        }
      ],
      "name": "getRoleAdmin",
      "outputs": [
        {
          "internalType": "bytes32",
          "name": "",
          "type": "bytes32"
        }
      ],
      "stateMutability": "view",
      "type": "function"
    },
    {
      "inputs": [
        {
          "internalType": "bytes32",
          "name": "role",
          "type": "bytes32"
        },
        {
          "internalType": "address",
          "name": "account",
          "type": "address"
        }
      ],
      "name": "grantRole",
      "outputs": [],
      "stateMutability": "nonpayable",
      "type": "function"
    },
    {
      "inputs": [
        {
          "internalType": "bytes32",
          "name": "role",
          "type": "bytes32"
        },
        {
          "internalType": "address",
          "name": "account",
          "type": "address"
        }
      ],
      "name": "hasRole",
      "outputs": [
        {
          "internalType": "bool",
          "name": "",
          "type": "bool"
        }
      ],
      "stateMutability": "view",
      "type": "function"
    },
    {
      "inputs": [],
      "name": "lastUpdateTimestamp",
      "outputs": [
        {
          "internalType": "uint256",
          "name": "",
          "type": "uint256"
        }
      ],
      "stateMutability": "view",
      "type": "function"
    },
    {
      "inputs": [],
      "name": "maxStaleness",
      "outputs": [
        {
          "internalType": "uint256",
          "name": "",
          "type": "uint256"
        }
      ],
      "stateMutability": "view",
      "type": "function"
    },
    {
      "inputs": [],
      "name": "price",
      "outputs": [
        {
          "internalType": "uint256",
          "name": "",
          "type": "uint256"
        }
      ],
      "stateMutability": "view",
      "type": "function"
    },
    {
      "inputs": [
        {
          "internalType": "bytes32",
          "name": "role",
          "type": "bytes32"
        },
        {
          "internalType": "address",
          "name": "callerConfirmation",
          "type": "address"
        }
      ],
      "name": "renounceRole",
      "outputs": [],
      "stateMutability": "nonpayable",
      "type": "function"
    },
    {
      "inputs": [
        {
          "internalType": "bytes32",
          "name": "role",
          "type": "bytes32"
        },
        {
          "internalType": "address",
          "name": "account",
          "type": "address"
        }
      ],
      "name": "revokeRole",
      "outputs": [],
      "stateMutability": "nonpayable",
      "type": "function"
    },
    {
      "inputs": [
        {
          "internalType": "uint256",
          "name": "_newTolerance",
          "type": "uint256"
        }
      ],
      "name": "setBpsTolerance",
      "outputs": [],
      "stateMutability": "nonpayable",
      "type": "function"
    },
    {
      "inputs": [
        {
          "internalType": "uint256",
          "name": "_newMaxStaleness",
          "type": "uint256"
        }
      ],
      "name": "setMaxStaleness",
      "outputs": [],
      "stateMutability": "nonpayable",
      "type": "function"
    },
    {
      "inputs": [
        {
          "internalType": "uint256",
          "name": "_expectedOldPrice",
          "type": "uint256"
        },
        {
          "internalType": "uint256",
          "name": "_newPrice",
          "type": "uint256"
        },
        {
          "internalType": "int256",
          "name": "_expectedChangeBps",
          "type": "int256"
        }
      ],
      "name": "setPrice",
      "outputs": [],
      "stateMutability": "nonpayable",
      "type": "function"
    },
    {
      "inputs": [
        {
          "internalType": "bytes4",
          "name": "interfaceId",
          "type": "bytes4"
        }
      ],
      "name": "supportsInterface",
      "outputs": [
        {
          "internalType": "bool",
          "name": "",
          "type": "bool"
        }
      ],
      "stateMutability": "view",
      "type": "function"
    }
  ],
  "transactionHash": "0xe06e58d05bc7ece811dc1fd0eaff84a1da8fc64c1df3f0ef6a4616c04e2443aa",
  "args": [
    "0x0000000000000000000000000000000000000000",
    "1000000000000000000",
    "995000000000000000"
  ],
  "numDeployments": 1,
  "solcInputHash": "75fbb2b52b78d04bc64c0e6e6a12f979",
  "bytecode": "0x60c06040526000600355600560045534801561001a57600080fd5b50604051610c7a380380610c7a833981016040819052610039916101c8565b806000036100595760405162bfc92160e01b815260040160405180910390fd5b6001600160a01b03831660805260a082905260018190554260025561007f60003361011c565b506100aa7fced6982f480260bdd8ad5cb18ff2854f0306d78d904ad6cc107e8f3a0f526c183361011c565b506100d57f55435dd261a4b9b3364963f7738a7a662ad9c84396d64be3365284bb7f0a50413361011c565b50604080516000808252426020830152339284927fbb86cd2c591c3163ab011b559738f3c8ad9fa4c544defa99afa5069d6325727c910160405180910390a450505061020b565b6000828152602081815260408083206001600160a01b038516845290915281205460ff166101be576000838152602081815260408083206001600160a01b03861684529091529020805460ff191660011790556101763390565b6001600160a01b0316826001600160a01b0316847f2f8788117e7eff1d82e926ec794901d17c78024a50270940304540a733656f0d60405160405180910390a45060016101c2565b5060005b92915050565b6000806000606084860312156101dd57600080fd5b83516001600160a01b03811681146101f457600080fd5b602085015160409095015190969495509392505050565b60805160a051610a4a610230600039600061021f015260006102e20152610a4a6000f3fe608060405234801561001057600080fd5b506004361061012c5760003560e01c80638c89b64f116100ad578063a217fddf11610071578063a217fddf14610298578063b3596f07146102a0578063bfc69e1c146102b5578063d547741f146102ca578063e19f4700146102dd57600080fd5b80638c89b64f1461021a5780638edbf436146102415780638faf2d131461026957806391d148541461027c578063a035b1fe1461028f57600080fd5b806324ea54f4116100f457806324ea54f4146101bb5780632f2ff15d146101e257806336568abe146101f5578063784971ec1461020857806387cf46961461021157600080fd5b806301ffc9a7146101315780630b9d54de14610159578063100bc9e11461016e57806314bcec9f14610181578063248a9ca314610198575b600080fd5b61014461013f366004610863565b61031c565b60405190151581526020015b60405180910390f35b61016c610167366004610894565b610353565b005b61016c61017c366004610894565b6103cf565b61018a60025481565b604051908152602001610150565b61018a6101a6366004610894565b60009081526020819052604090206001015490565b61018a7f55435dd261a4b9b3364963f7738a7a662ad9c84396d64be3365284bb7f0a504181565b61016c6101f03660046108c9565b610429565b61016c6102033660046108c9565b610454565b61018a60045481565b61018a60035481565b61018a7f000000000000000000000000000000000000000000000000000000000000000081565b61025461024f3660046108f5565b61048c565b60408051928352901515602083015201610150565b61016c610277366004610910565b6104c3565b61014461028a3660046108c9565b61064e565b61018a60015481565b61018a600081565b61018a6102ae3660046108f5565b5060015490565b61018a6000805160206109f583398151915281565b61016c6102d83660046108c9565b610677565b6103047f000000000000000000000000000000000000000000000000000000000000000081565b6040516001600160a01b039091168152602001610150565b60006001600160e01b03198216637965db0b60e01b148061034d57506301ffc9a760e01b6001600160e01b03198316145b92915050565b6000805160206109f583398151915261036b8161069c565b606482111561038d576040516359aae79360e11b815260040160405180910390fd5b60045460408051918252602082018490527f33e64b6244e0977ba28b90b8dc8969846b2ff465f5175d16932f6fe715628678910160405180910390a150600455565b6000805160206109f58339815191526103e78161069c565b60035460408051918252602082018490527f9843f62f065b46649ec181ada7772d5c94055361bc052184193831e5cbcb9f65910160405180910390a150600355565b6000828152602081905260409020600101546104448161069c565b61044e83836106a9565b50505050565b6001600160a01b038116331461047d5760405163334bd91960e11b815260040160405180910390fd5b610487828261073b565b505050565b60008060006003546000146104b3576003546002546104ab9190610952565b4211156104b6565b60015b6001549590945092505050565b6104db6000805160206109f58339815191523361064e565b15801561050f575061050d7f55435dd261a4b9b3364963f7738a7a662ad9c84396d64be3365284bb7f0a50413361064e565b155b156105485760405163e2517d3f60e01b81523360048201526000805160206109f583398151915260248201526044015b60405180910390fd5b8260015414610578576001546040516318205e9b60e21b815260048101919091526024810184905260440161053f565b816000036105985760405162bfc92160e01b815260040160405180910390fd5b60006105a6600154846107a6565b905060006105bc6105b78484610965565b61080a565b90506004548111156105f357600480546040516342dd282160e01b815291820184905260248201859052604482015260640161053f565b60018054908590554260028190556040513391879184917fbb86cd2c591c3163ab011b559738f3c8ad9fa4c544defa99afa5069d6325727c9161063e91898252602082015260400190565b60405180910390a4505050505050565b6000918252602082815260408084206001600160a01b0393909316845291905290205460ff1690565b6000828152602081905260409020600101546106928161069c565b61044e838361073b565b6106a68133610826565b50565b60006106b5838361064e565b610733576000838152602081815260408083206001600160a01b03861684529091529020805460ff191660011790556106eb3390565b6001600160a01b0316826001600160a01b0316847f2f8788117e7eff1d82e926ec794901d17c78024a50270940304540a733656f0d60405160405180910390a450600161034d565b50600061034d565b6000610747838361064e565b15610733576000838152602081815260408083206001600160a01b0386168085529252808320805460ff1916905551339286917ff6391f5c32d9c69d2a47ea670b442974b53935d1edc7fd64eb21e047a839171b9190a450600161034d565b60008282106107dc5760006107bb848461098c565b9050836107ca8261271061099f565b6107d491906109b6565b91505061034d565b60006107e8838561098c565b9050836107f78261271061099f565b61080191906109b6565b6107d4906109d8565b6000808212156108225761081d826109d8565b61034d565b5090565b610830828261064e565b61085f5760405163e2517d3f60e01b81526001600160a01b03821660048201526024810183905260440161053f565b5050565b60006020828403121561087557600080fd5b81356001600160e01b03198116811461088d57600080fd5b9392505050565b6000602082840312156108a657600080fd5b5035919050565b80356001600160a01b03811681146108c457600080fd5b919050565b600080604083850312156108dc57600080fd5b823591506108ec602084016108ad565b90509250929050565b60006020828403121561090757600080fd5b61088d826108ad565b60008060006060848603121561092557600080fd5b505081359360208301359350604090920135919050565b634e487b7160e01b600052601160045260246000fd5b8082018082111561034d5761034d61093c565b81810360008312801583831316838312821617156109855761098561093c565b5092915050565b8181038181111561034d5761034d61093c565b808202811582820484141761034d5761034d61093c565b6000826109d357634e487b7160e01b600052601260045260246000fd5b500490565b6000600160ff1b82016109ed576109ed61093c565b506000039056feced6982f480260bdd8ad5cb18ff2854f0306d78d904ad6cc107e8f3a0f526c18a2646970667358221220f442dab6d456cc474bc7d395bc2c957ffc5d6e974ada73a3e53748f9a3db8a3664736f6c63430008160033",
  "devdoc": {
    "details": "Supports dual-role access: ORACLE_MANAGER_ROLE for configuration, GUARDIAN_ROLE for urgent updates",
    "errors": {
      "AccessControlBadConfirmation()": [
        {
          "details": "The caller of a function is not the expected one. NOTE: Don't confuse with {AccessControlUnauthorizedAccount}."
        }
      ],
      "AccessControlUnauthorizedAccount(address,bytes32)": [
        {
          "details": "The `account` is missing a role."
        }
      ]
    },
    "events": {
      "RoleAdminChanged(bytes32,bytes32,bytes32)": {
        "details": "Emitted when `newAdminRole` is set as ``role``'s admin role, replacing `previousAdminRole` `DEFAULT_ADMIN_ROLE` is the starting admin for all roles, despite {RoleAdminChanged} not being emitted to signal this."
      },
      "RoleGranted(bytes32,address,address)": {
        "details": "Emitted when `account` is granted `role`. `sender` is the account that originated the contract call. This account bears the admin role (for the granted role). Expected in cases where the role was granted using the internal {AccessControl-_grantRole}."
      },
      "RoleRevoked(bytes32,address,address)": {
        "details": "Emitted when `account` is revoked `role`. `sender` is the account that originated the contract call:   - if using `revokeRole`, it is the admin role bearer   - if using `renounceRole`, it is the role bearer (i.e. `account`)"
      }
    },
    "kind": "dev",
    "methods": {
      "constructor": {
        "params": {
          "_baseCurrency": "The address of the base currency (zero address for USD)",
          "_baseCurrencyUnit": "The decimal precision of the base currency (e.g., 1e18)",
          "_initialPrice": "Initial price in base currency units"
        }
      },
      "getAssetPrice(address)": {
        "details": "Asset address parameter is ignored, returns same price for all assets",
        "returns": {
          "_0": "Current price in base currency units"
        }
      },
      "getPriceInfo(address)": {
        "details": "Asset address parameter is ignored, returns same price for all assets",
        "returns": {
          "_0": "price Current price in base currency units",
          "isAlive": "Whether price is considered fresh (within maxStaleness)"
        }
      },
      "getRoleAdmin(bytes32)": {
        "details": "Returns the admin role that controls `role`. See {grantRole} and {revokeRole}. To change a role's admin, use {_setRoleAdmin}."
      },
      "grantRole(bytes32,address)": {
        "details": "Grants `role` to `account`. If `account` had not been already granted `role`, emits a {RoleGranted} event. Requirements: - the caller must have ``role``'s admin role. May emit a {RoleGranted} event."
      },
      "hasRole(bytes32,address)": {
        "details": "Returns `true` if `account` has been granted `role`."
      },
      "renounceRole(bytes32,address)": {
        "details": "Revokes `role` from the calling account. Roles are often managed via {grantRole} and {revokeRole}: this function's purpose is to provide a mechanism for accounts to lose their privileges if they are compromised (such as when a trusted device is misplaced). If the calling account had been revoked `role`, emits a {RoleRevoked} event. Requirements: - the caller must be `callerConfirmation`. May emit a {RoleRevoked} event."
      },
      "revokeRole(bytes32,address)": {
        "details": "Revokes `role` from `account`. If `account` had been granted `role`, emits a {RoleRevoked} event. Requirements: - the caller must have ``role``'s admin role. May emit a {RoleRevoked} event."
      },
      "setBpsTolerance(uint256)": {
        "details": "Only ORACLE_MANAGER_ROLE can update tolerance",
        "params": {
          "_newTolerance": "New tolerance in basis points (e.g., 5 = 0.05%, 10 = 0.1%)"
        }
      },
      "setMaxStaleness(uint256)": {
        "details": "Only ORACLE_MANAGER_ROLE can update staleness",
        "params": {
          "_newMaxStaleness": "New max staleness in seconds"
        }
      },
      "setPrice(uint256,uint256,int256)": {
        "details": "Can be called by ORACLE_MANAGER_ROLE or GUARDIAN_ROLE",
        "params": {
          "_expectedChangeBps": "Expected change in basis points (e.g., +50 for +0.5%, -150 for -1.5%)",
          "_expectedOldPrice": "Current price (prevents race conditions)",
          "_newPrice": "New price to set"
        }
      },
      "supportsInterface(bytes4)": {
        "details": "Returns true if this contract implements the interface defined by `interfaceId`. See the corresponding https://eips.ethereum.org/EIPS/eip-165#how-interfaces-are-identified[ERC section] to learn more about how these ids are created. This function call must use less than 30 000 gas."
      }
    },
    "stateVariables": {
      "BASE_CURRENCY": {
        "details": "Address 0x0 is commonly used for USD, but can be any token address based on the implementation.",
        "return": "Returns the base currency address.",
        "returns": {
          "_0": "Returns the base currency address."
        }
      },
      "BASE_CURRENCY_UNIT": {
        "details": "Represents the decimal precision of the base currency (e.g., 1e8 for USD, 1e18 for ETH).",
        "return": "Returns the base currency unit.",
        "returns": {
          "_0": "Returns the base currency unit."
        }
      }
    },
    "title": "GovernanceOracleWrapper",
    "version": 1
  },
  "userdoc": {
    "kind": "user",
    "methods": {
      "BASE_CURRENCY()": {
        "notice": "Returns the base currency address"
      },
      "BASE_CURRENCY_UNIT()": {
        "notice": "Returns the base currency unit"
      },
      "GUARDIAN_ROLE()": {
        "notice": "Role for urgent price updates (lighter governance, faster response)"
      },
      "ORACLE_MANAGER_ROLE()": {
        "notice": "Role for oracle configuration and price updates"
      },
      "constructor": {
        "notice": "Initialize the governance oracle wrapper"
      },
      "getAssetPrice(address)": {
        "notice": "Get asset price"
      },
      "getPriceInfo(address)": {
        "notice": "Get price info with staleness check"
      },
      "setBpsTolerance(uint256)": {
        "notice": "Update basis points tolerance for price change verification"
      },
      "setMaxStaleness(uint256)": {
        "notice": "Update max staleness period"
      },
      "setPrice(uint256,uint256,int256)": {
        "notice": "Update oracle price with double verification"
      }
    },
    "notice": "Oracle wrapper with governance-controlled manual price updates",
    "version": 1
  },
  "storageLayout": {
    "storage": [
      {
        "astId": 27,
        "contract": "contracts/oracle_aggregator/wrapper/GovernanceOracleWrapper.sol:GovernanceOracleWrapper",
        "label": "_roles",
        "offset": 0,
        "slot": "0",
        "type": "t_mapping(t_bytes32,t_struct(RoleData)22_storage)"
      },
      {
        "astId": 492,
        "contract": "contracts/oracle_aggregator/wrapper/GovernanceOracleWrapper.sol:GovernanceOracleWrapper",
        "label": "price",
        "offset": 0,
        "slot": "1",
        "type": "t_uint256"
      },
      {
        "astId": 494,
        "contract": "contracts/oracle_aggregator/wrapper/GovernanceOracleWrapper.sol:GovernanceOracleWrapper",
        "label": "lastUpdateTimestamp",
        "offset": 0,
        "slot": "2",
        "type": "t_uint256"
      },
      {
        "astId": 497,
        "contract": "contracts/oracle_aggregator/wrapper/GovernanceOracleWrapper.sol:GovernanceOracleWrapper",
        "label": "maxStaleness",
        "offset": 0,
        "slot": "3",
        "type": "t_uint256"
      },
      {
        "astId": 500,
        "contract": "contracts/oracle_aggregator/wrapper/GovernanceOracleWrapper.sol:GovernanceOracleWrapper",
        "label": "bpsTolerance",
        "offset": 0,
        "slot": "4",
        "type": "t_uint256"
      }
    ],
    "types": {
      "t_address": {
        "encoding": "inplace",
        "label": "address",
        "numberOfBytes": "20"
      },
      "t_bool": {
        "encoding": "inplace",
        "label": "bool",
        "numberOfBytes": "1"
      },
      "t_bytes32": {
        "encoding": "inplace",
        "label": "bytes32",
        "numberOfBytes": "32"
      },
      "t_mapping(t_address,t_bool)": {
        "encoding": "mapping",
        "key": "t_address",
        "label": "mapping(address => bool)",
        "numberOfBytes": "32",
        "value": "t_bool"
      },
      "t_mapping(t_bytes32,t_struct(RoleData)22_storage)": {
        "encoding": "mapping",
        "key": "t_bytes32",
        "label": "mapping(bytes32 => struct AccessControl.RoleData)",
        "numberOfBytes": "32",
        "value": "t_struct(RoleData)22_storage"
      },
      "t_struct(RoleData)22_storage": {
        "encoding": "inplace",
        "label": "struct AccessControl.RoleData",
        "members": [
          {
            "astId": 19,
            "contract": "contracts/oracle_aggregator/wrapper/GovernanceOracleWrapper.sol:GovernanceOracleWrapper",
            "label": "hasRole",
            "offset": 0,
            "slot": "0",
            "type": "t_mapping(t_address,t_bool)"
          },
          {
            "astId": 21,
            "contract": "contracts/oracle_aggregator/wrapper/GovernanceOracleWrapper.sol:GovernanceOracleWrapper",
            "label": "adminRole",
            "offset": 0,
            "slot": "1",
            "type": "t_bytes32"
          }
        ],
        "numberOfBytes": "64"
      },
      "t_uint256": {
        "encoding": "inplace",
        "label": "uint256",
        "numberOfBytes": "32"
      }
    }
  }
}