{
  "address": "0x9261F71fDFE66df7FBa1703276cc7153D2D9CABB",
  "abi": [
    {
      "inputs": [
        {
          "internalType": "address",
          "name": "admin",
          "type": "address"
        }
      ],
      "stateMutability": "nonpayable",
      "type": "constructor"
    },
    {
      "anonymous": false,
      "inputs": [
        {
          "indexed": true,
          "internalType": "address",
          "name": "implementation",
          "type": "address"
        }
      ],
      "name": "Upgraded",
      "type": "event"
    },
    {
      "stateMutability": "payable",
      "type": "fallback"
    },
    {
      "inputs": [],
      "name": "admin",
      "outputs": [
        {
          "internalType": "address",
          "name": "",
          "type": "address"
        }
      ],
      "stateMutability": "nonpayable",
      "type": "function"
    },
    {
      "inputs": [],
      "name": "implementation",
      "outputs": [
        {
          "internalType": "address",
          "name": "",
          "type": "address"
        }
      ],
      "stateMutability": "nonpayable",
      "type": "function"
    },
    {
      "inputs": [
        {
          "internalType": "address",
          "name": "_logic",
          "type": "address"
        },
        {
          "internalType": "bytes",
          "name": "_data",
          "type": "bytes"
        }
      ],
      "name": "initialize",
      "outputs": [],
      "stateMutability": "payable",
      "type": "function"
    },
    {
      "inputs": [
        {
          "internalType": "address",
          "name": "newImplementation",
          "type": "address"
        }
      ],
      "name": "upgradeTo",
      "outputs": [],
      "stateMutability": "nonpayable",
      "type": "function"
    },
    {
      "inputs": [
        {
          "internalType": "address",
          "name": "newImplementation",
          "type": "address"
        },
        {
          "internalType": "bytes",
          "name": "data",
          "type": "bytes"
        }
      ],
      "name": "upgradeToAndCall",
      "outputs": [],
      "stateMutability": "payable",
      "type": "function"
    }
  ],
  "numDeployments": 1,
  "solcInputHash": "f1b427c92e02e51f5ada5a1bc7baf6ea",
  "bytecode": "0x60a060405234801561001057600080fd5b5060405161083b38038061083b83398101604081905261002f91610040565b6001600160a01b0316608052610070565b60006020828403121561005257600080fd5b81516001600160a01b038116811461006957600080fd5b9392505050565b60805161078d6100ae60003960008181610112015281816101560152818161020e0152818161034d015281816103760152610499015261078d6000f3fe60806040526004361061004a5760003560e01c80633659cfe6146100545780634f1ef286146100745780635c60da1b14610087578063d1f57894146100b8578063f851a440146100cb575b6100526100e0565b005b34801561006057600080fd5b5061005261006f36600461053e565b610108565b610052610082366004610560565b61014c565b34801561009357600080fd5b5061009c610202565b6040516001600160a01b03909116815260200160405180910390f35b6100526100c63660046105f9565b610253565b3480156100d757600080fd5b5061009c610341565b6100e8610398565b6101066101016000805160206107388339815191525490565b6103a0565b565b6001600160a01b037f000000000000000000000000000000000000000000000000000000000000000016330361014457610141816103c4565b50565b6101416100e0565b6001600160a01b037f00000000000000000000000000000000000000000000000000000000000000001633036101f557610185836103c4565b6000836001600160a01b031683836040516101a19291906106bb565b600060405180830381855af49150503d80600081146101dc576040519150601f19603f3d011682016040523d82523d6000602084013e6101e1565b606091505b50509050806101ef57600080fd5b50505050565b6101fd6100e0565b505050565b60006001600160a01b037f000000000000000000000000000000000000000000000000000000000000000016330361024857506000805160206107388339815191525490565b6102506100e0565b90565b600061026b6000805160206107388339815191525490565b6001600160a01b03161461027e57600080fd5b6102a960017f360894a13ba1a3210667c828492db98dca3e2076cc3735a920a3ca505d382bbd6106cb565b600080516020610738833981519152146102c5576102c56106f2565b6102ce82610404565b80511561033d576000826001600160a01b0316826040516102ef9190610708565b600060405180830381855af49150503d806000811461032a576040519150601f19603f3d011682016040523d82523d6000602084013e61032f565b606091505b50509050806101fd57600080fd5b5050565b60006001600160a01b037f000000000000000000000000000000000000000000000000000000000000000016330361024857507f000000000000000000000000000000000000000000000000000000000000000090565b61010661048f565b3660008037600080366000845af43d6000803e8080156103bf573d6000f35b3d6000fd5b6103cd81610404565b6040516001600160a01b038216907fbc7cd75a20ee27fd9adebab32041f755214dbc6bffa90cc0225b39da2e5c2d3b90600090a250565b803b61047d5760405162461bcd60e51b815260206004820152603b60248201527f43616e6e6f742073657420612070726f787920696d706c656d656e746174696f60448201527f6e20746f2061206e6f6e2d636f6e74726163742061646472657373000000000060648201526084015b60405180910390fd5b60008051602061073883398151915255565b6001600160a01b037f00000000000000000000000000000000000000000000000000000000000000001633036101065760405162461bcd60e51b815260206004820152603260248201527f43616e6e6f742063616c6c2066616c6c6261636b2066756e6374696f6e20667260448201527137b6903a343290383937bc3c9030b236b4b760711b6064820152608401610474565b80356001600160a01b038116811461053957600080fd5b919050565b60006020828403121561055057600080fd5b61055982610522565b9392505050565b60008060006040848603121561057557600080fd5b61057e84610522565b9250602084013567ffffffffffffffff8082111561059b57600080fd5b818601915086601f8301126105af57600080fd5b8135818111156105be57600080fd5b8760208285010111156105d057600080fd5b6020830194508093505050509250925092565b634e487b7160e01b600052604160045260246000fd5b6000806040838503121561060c57600080fd5b61061583610522565b9150602083013567ffffffffffffffff8082111561063257600080fd5b818501915085601f83011261064657600080fd5b813581811115610658576106586105e3565b604051601f8201601f19908116603f01168101908382118183101715610680576106806105e3565b8160405282815288602084870101111561069957600080fd5b8260208601602083013760006020848301015280955050505050509250929050565b8183823760009101908152919050565b818103818111156106ec57634e487b7160e01b600052601160045260246000fd5b92915050565b634e487b7160e01b600052600160045260246000fd5b6000825160005b81811015610729576020818601810151858301520161070f565b50600092019182525091905056fe360894a13ba1a3210667c828492db98dca3e2076cc3735a920a3ca505d382bbca264697066735822122067354eebd3add125fda2b28913aeb09f99e9b5a2bfccc295409c640dd9f5d16464736f6c63430008160033",
  "devdoc": {
    "author": "Aave",
    "details": "Extends BaseAdminUpgradeabilityProxy with an initializer function",
    "events": {
      "Upgraded(address)": {
        "details": "Emitted when the implementation is upgraded.",
        "params": {
          "implementation": "Address of the new implementation."
        }
      }
    },
    "kind": "dev",
    "methods": {
      "admin()": {
        "returns": {
          "_0": "The address of the proxy admin."
        }
      },
      "constructor": {
        "details": "Constructor.",
        "params": {
          "admin": "The address of the admin"
        }
      },
      "implementation()": {
        "returns": {
          "_0": "The address of the implementation."
        }
      },
      "initialize(address,bytes)": {
        "details": "Contract initializer.",
        "params": {
          "_data": "Data to send as msg.data to the implementation to initialize the proxied contract. It should include the signature and the parameters of the function to be called, as described in https://solidity.readthedocs.io/en/v0.4.24/abi-spec.html#function-selector-and-argument-encoding. This parameter is optional, if no data is given the initialization call to proxied contract will be skipped.",
          "_logic": "Address of the initial implementation."
        }
      },
      "upgradeTo(address)": {
        "details": "Only the admin can call this function.",
        "params": {
          "newImplementation": "The address of the new implementation."
        }
      },
      "upgradeToAndCall(address,bytes)": {
        "details": "This is useful to initialize the proxied contract.",
        "params": {
          "data": "Data to send as msg.data in the low level call. It should include the signature and the parameters of the function to be called, as described in https://solidity.readthedocs.io/en/v0.4.24/abi-spec.html#function-selector-and-argument-encoding.",
          "newImplementation": "The address of the new implementation."
        }
      }
    },
    "title": "InitializableAdminUpgradeabilityProxy",
    "version": 1
  },
  "userdoc": {
    "kind": "user",
    "methods": {
      "admin()": {
        "notice": "Return the admin address"
      },
      "implementation()": {
        "notice": "Return the implementation address"
      },
      "upgradeTo(address)": {
        "notice": "Upgrade the backing implementation of the proxy."
      },
      "upgradeToAndCall(address,bytes)": {
        "notice": "Upgrade the backing implementation of the proxy and call a function on the new implementation."
      }
    },
    "version": 1
  },
  "storageLayout": {
    "storage": [],
    "types": null
  }
}