{
  "address": "0xBdfE9d2A96D1DBEfdDa0A7810144c82926450cC9",
  "abi": [
    {
      "anonymous": false,
      "inputs": [
        {
          "indexed": true,
          "internalType": "address",
          "name": "asset",
          "type": "address"
        },
        {
          "indexed": true,
          "internalType": "address",
          "name": "proxy",
          "type": "address"
        },
        {
          "indexed": true,
          "internalType": "address",
          "name": "implementation",
          "type": "address"
        }
      ],
      "name": "ATokenUpgraded",
      "type": "event"
    },
    {
      "anonymous": false,
      "inputs": [
        {
          "indexed": true,
          "internalType": "address",
          "name": "asset",
          "type": "address"
        },
        {
          "indexed": false,
          "internalType": "uint256",
          "name": "oldBorrowCap",
          "type": "uint256"
        },
        {
          "indexed": false,
          "internalType": "uint256",
          "name": "newBorrowCap",
          "type": "uint256"
        }
      ],
      "name": "BorrowCapChanged",
      "type": "event"
    },
    {
      "anonymous": false,
      "inputs": [
        {
          "indexed": false,
          "internalType": "address",
          "name": "asset",
          "type": "address"
        },
        {
          "indexed": false,
          "internalType": "bool",
          "name": "borrowable",
          "type": "bool"
        }
      ],
      "name": "BorrowableInIsolationChanged",
      "type": "event"
    },
    {
      "anonymous": false,
      "inputs": [
        {
          "indexed": false,
          "internalType": "uint256",
          "name": "oldBridgeProtocolFee",
          "type": "uint256"
        },
        {
          "indexed": false,
          "internalType": "uint256",
          "name": "newBridgeProtocolFee",
          "type": "uint256"
        }
      ],
      "name": "BridgeProtocolFeeUpdated",
      "type": "event"
    },
    {
      "anonymous": false,
      "inputs": [
        {
          "indexed": true,
          "internalType": "address",
          "name": "asset",
          "type": "address"
        },
        {
          "indexed": false,
          "internalType": "uint256",
          "name": "ltv",
          "type": "uint256"
        },
        {
          "indexed": false,
          "internalType": "uint256",
          "name": "liquidationThreshold",
          "type": "uint256"
        },
        {
          "indexed": false,
          "internalType": "uint256",
          "name": "liquidationBonus",
          "type": "uint256"
        }
      ],
      "name": "CollateralConfigurationChanged",
      "type": "event"
    },
    {
      "anonymous": false,
      "inputs": [
        {
          "indexed": true,
          "internalType": "address",
          "name": "asset",
          "type": "address"
        },
        {
          "indexed": false,
          "internalType": "uint256",
          "name": "oldDebtCeiling",
          "type": "uint256"
        },
        {
          "indexed": false,
          "internalType": "uint256",
          "name": "newDebtCeiling",
          "type": "uint256"
        }
      ],
      "name": "DebtCeilingChanged",
      "type": "event"
    },
    {
      "anonymous": false,
      "inputs": [
        {
          "indexed": true,
          "internalType": "address",
          "name": "asset",
          "type": "address"
        },
        {
          "indexed": false,
          "internalType": "uint8",
          "name": "oldCategoryId",
          "type": "uint8"
        },
        {
          "indexed": false,
          "internalType": "uint8",
          "name": "newCategoryId",
          "type": "uint8"
        }
      ],
      "name": "EModeAssetCategoryChanged",
      "type": "event"
    },
    {
      "anonymous": false,
      "inputs": [
        {
          "indexed": true,
          "internalType": "uint8",
          "name": "categoryId",
          "type": "uint8"
        },
        {
          "indexed": false,
          "internalType": "uint256",
          "name": "ltv",
          "type": "uint256"
        },
        {
          "indexed": false,
          "internalType": "uint256",
          "name": "liquidationThreshold",
          "type": "uint256"
        },
        {
          "indexed": false,
          "internalType": "uint256",
          "name": "liquidationBonus",
          "type": "uint256"
        },
        {
          "indexed": false,
          "internalType": "address",
          "name": "oracle",
          "type": "address"
        },
        {
          "indexed": false,
          "internalType": "string",
          "name": "label",
          "type": "string"
        }
      ],
      "name": "EModeCategoryAdded",
      "type": "event"
    },
    {
      "anonymous": false,
      "inputs": [
        {
          "indexed": false,
          "internalType": "uint128",
          "name": "oldFlashloanPremiumToProtocol",
          "type": "uint128"
        },
        {
          "indexed": false,
          "internalType": "uint128",
          "name": "newFlashloanPremiumToProtocol",
          "type": "uint128"
        }
      ],
      "name": "FlashloanPremiumToProtocolUpdated",
      "type": "event"
    },
    {
      "anonymous": false,
      "inputs": [
        {
          "indexed": false,
          "internalType": "uint128",
          "name": "oldFlashloanPremiumTotal",
          "type": "uint128"
        },
        {
          "indexed": false,
          "internalType": "uint128",
          "name": "newFlashloanPremiumTotal",
          "type": "uint128"
        }
      ],
      "name": "FlashloanPremiumTotalUpdated",
      "type": "event"
    },
    {
      "anonymous": false,
      "inputs": [
        {
          "indexed": true,
          "internalType": "address",
          "name": "asset",
          "type": "address"
        },
        {
          "indexed": false,
          "internalType": "uint256",
          "name": "oldFee",
          "type": "uint256"
        },
        {
          "indexed": false,
          "internalType": "uint256",
          "name": "newFee",
          "type": "uint256"
        }
      ],
      "name": "LiquidationProtocolFeeChanged",
      "type": "event"
    },
    {
      "anonymous": false,
      "inputs": [
        {
          "indexed": true,
          "internalType": "address",
          "name": "asset",
          "type": "address"
        },
        {
          "indexed": false,
          "internalType": "bool",
          "name": "active",
          "type": "bool"
        }
      ],
      "name": "ReserveActive",
      "type": "event"
    },
    {
      "anonymous": false,
      "inputs": [
        {
          "indexed": true,
          "internalType": "address",
          "name": "asset",
          "type": "address"
        },
        {
          "indexed": false,
          "internalType": "bool",
          "name": "enabled",
          "type": "bool"
        }
      ],
      "name": "ReserveBorrowing",
      "type": "event"
    },
    {
      "anonymous": false,
      "inputs": [
        {
          "indexed": true,
          "internalType": "address",
          "name": "asset",
          "type": "address"
        }
      ],
      "name": "ReserveDropped",
      "type": "event"
    },
    {
      "anonymous": false,
      "inputs": [
        {
          "indexed": true,
          "internalType": "address",
          "name": "asset",
          "type": "address"
        },
        {
          "indexed": false,
          "internalType": "uint256",
          "name": "oldReserveFactor",
          "type": "uint256"
        },
        {
          "indexed": false,
          "internalType": "uint256",
          "name": "newReserveFactor",
          "type": "uint256"
        }
      ],
      "name": "ReserveFactorChanged",
      "type": "event"
    },
    {
      "anonymous": false,
      "inputs": [
        {
          "indexed": true,
          "internalType": "address",
          "name": "asset",
          "type": "address"
        },
        {
          "indexed": false,
          "internalType": "bool",
          "name": "enabled",
          "type": "bool"
        }
      ],
      "name": "ReserveFlashLoaning",
      "type": "event"
    },
    {
      "anonymous": false,
      "inputs": [
        {
          "indexed": true,
          "internalType": "address",
          "name": "asset",
          "type": "address"
        },
        {
          "indexed": false,
          "internalType": "bool",
          "name": "frozen",
          "type": "bool"
        }
      ],
      "name": "ReserveFrozen",
      "type": "event"
    },
    {
      "anonymous": false,
      "inputs": [
        {
          "indexed": true,
          "internalType": "address",
          "name": "asset",
          "type": "address"
        },
        {
          "indexed": true,
          "internalType": "address",
          "name": "aToken",
          "type": "address"
        },
        {
          "indexed": false,
          "internalType": "address",
          "name": "stableDebtToken",
          "type": "address"
        },
        {
          "indexed": false,
          "internalType": "address",
          "name": "variableDebtToken",
          "type": "address"
        },
        {
          "indexed": false,
          "internalType": "address",
          "name": "interestRateStrategyAddress",
          "type": "address"
        }
      ],
      "name": "ReserveInitialized",
      "type": "event"
    },
    {
      "anonymous": false,
      "inputs": [
        {
          "indexed": true,
          "internalType": "address",
          "name": "asset",
          "type": "address"
        },
        {
          "indexed": false,
          "internalType": "address",
          "name": "oldStrategy",
          "type": "address"
        },
        {
          "indexed": false,
          "internalType": "address",
          "name": "newStrategy",
          "type": "address"
        }
      ],
      "name": "ReserveInterestRateStrategyChanged",
      "type": "event"
    },
    {
      "anonymous": false,
      "inputs": [
        {
          "indexed": true,
          "internalType": "address",
          "name": "asset",
          "type": "address"
        },
        {
          "indexed": false,
          "internalType": "bool",
          "name": "paused",
          "type": "bool"
        }
      ],
      "name": "ReservePaused",
      "type": "event"
    },
    {
      "anonymous": false,
      "inputs": [
        {
          "indexed": true,
          "internalType": "address",
          "name": "asset",
          "type": "address"
        },
        {
          "indexed": false,
          "internalType": "bool",
          "name": "enabled",
          "type": "bool"
        }
      ],
      "name": "ReserveStableRateBorrowing",
      "type": "event"
    },
    {
      "anonymous": false,
      "inputs": [
        {
          "indexed": true,
          "internalType": "address",
          "name": "asset",
          "type": "address"
        },
        {
          "indexed": false,
          "internalType": "bool",
          "name": "oldState",
          "type": "bool"
        },
        {
          "indexed": false,
          "internalType": "bool",
          "name": "newState",
          "type": "bool"
        }
      ],
      "name": "SiloedBorrowingChanged",
      "type": "event"
    },
    {
      "anonymous": false,
      "inputs": [
        {
          "indexed": true,
          "internalType": "address",
          "name": "asset",
          "type": "address"
        },
        {
          "indexed": true,
          "internalType": "address",
          "name": "proxy",
          "type": "address"
        },
        {
          "indexed": true,
          "internalType": "address",
          "name": "implementation",
          "type": "address"
        }
      ],
      "name": "StableDebtTokenUpgraded",
      "type": "event"
    },
    {
      "anonymous": false,
      "inputs": [
        {
          "indexed": true,
          "internalType": "address",
          "name": "asset",
          "type": "address"
        },
        {
          "indexed": false,
          "internalType": "uint256",
          "name": "oldSupplyCap",
          "type": "uint256"
        },
        {
          "indexed": false,
          "internalType": "uint256",
          "name": "newSupplyCap",
          "type": "uint256"
        }
      ],
      "name": "SupplyCapChanged",
      "type": "event"
    },
    {
      "anonymous": false,
      "inputs": [
        {
          "indexed": true,
          "internalType": "address",
          "name": "asset",
          "type": "address"
        },
        {
          "indexed": false,
          "internalType": "uint256",
          "name": "oldUnbackedMintCap",
          "type": "uint256"
        },
        {
          "indexed": false,
          "internalType": "uint256",
          "name": "newUnbackedMintCap",
          "type": "uint256"
        }
      ],
      "name": "UnbackedMintCapChanged",
      "type": "event"
    },
    {
      "anonymous": false,
      "inputs": [
        {
          "indexed": true,
          "internalType": "address",
          "name": "asset",
          "type": "address"
        },
        {
          "indexed": true,
          "internalType": "address",
          "name": "proxy",
          "type": "address"
        },
        {
          "indexed": true,
          "internalType": "address",
          "name": "implementation",
          "type": "address"
        }
      ],
      "name": "VariableDebtTokenUpgraded",
      "type": "event"
    },
    {
      "inputs": [],
      "name": "CONFIGURATOR_REVISION",
      "outputs": [
        {
          "internalType": "uint256",
          "name": "",
          "type": "uint256"
        }
      ],
      "stateMutability": "view",
      "type": "function"
    },
    {
      "inputs": [
        {
          "internalType": "address",
          "name": "asset",
          "type": "address"
        },
        {
          "internalType": "uint256",
          "name": "ltv",
          "type": "uint256"
        },
        {
          "internalType": "uint256",
          "name": "liquidationThreshold",
          "type": "uint256"
        },
        {
          "internalType": "uint256",
          "name": "liquidationBonus",
          "type": "uint256"
        }
      ],
      "name": "configureReserveAsCollateral",
      "outputs": [],
      "stateMutability": "nonpayable",
      "type": "function"
    },
    {
      "inputs": [
        {
          "internalType": "address",
          "name": "asset",
          "type": "address"
        }
      ],
      "name": "dropReserve",
      "outputs": [],
      "stateMutability": "nonpayable",
      "type": "function"
    },
    {
      "inputs": [
        {
          "components": [
            {
              "internalType": "address",
              "name": "aTokenImpl",
              "type": "address"
            },
            {
              "internalType": "address",
              "name": "stableDebtTokenImpl",
              "type": "address"
            },
            {
              "internalType": "address",
              "name": "variableDebtTokenImpl",
              "type": "address"
            },
            {
              "internalType": "uint8",
              "name": "underlyingAssetDecimals",
              "type": "uint8"
            },
            {
              "internalType": "address",
              "name": "interestRateStrategyAddress",
              "type": "address"
            },
            {
              "internalType": "address",
              "name": "underlyingAsset",
              "type": "address"
            },
            {
              "internalType": "address",
              "name": "treasury",
              "type": "address"
            },
            {
              "internalType": "address",
              "name": "incentivesController",
              "type": "address"
            },
            {
              "internalType": "string",
              "name": "aTokenName",
              "type": "string"
            },
            {
              "internalType": "string",
              "name": "aTokenSymbol",
              "type": "string"
            },
            {
              "internalType": "string",
              "name": "variableDebtTokenName",
              "type": "string"
            },
            {
              "internalType": "string",
              "name": "variableDebtTokenSymbol",
              "type": "string"
            },
            {
              "internalType": "string",
              "name": "stableDebtTokenName",
              "type": "string"
            },
            {
              "internalType": "string",
              "name": "stableDebtTokenSymbol",
              "type": "string"
            },
            {
              "internalType": "bytes",
              "name": "params",
              "type": "bytes"
            }
          ],
          "internalType": "struct ConfiguratorInputTypes.InitReserveInput[]",
          "name": "input",
          "type": "tuple[]"
        }
      ],
      "name": "initReserves",
      "outputs": [],
      "stateMutability": "nonpayable",
      "type": "function"
    },
    {
      "inputs": [
        {
          "internalType": "contract IPoolAddressesProvider",
          "name": "provider",
          "type": "address"
        }
      ],
      "name": "initialize",
      "outputs": [],
      "stateMutability": "nonpayable",
      "type": "function"
    },
    {
      "inputs": [
        {
          "internalType": "address",
          "name": "asset",
          "type": "address"
        },
        {
          "internalType": "uint8",
          "name": "newCategoryId",
          "type": "uint8"
        }
      ],
      "name": "setAssetEModeCategory",
      "outputs": [],
      "stateMutability": "nonpayable",
      "type": "function"
    },
    {
      "inputs": [
        {
          "internalType": "address",
          "name": "asset",
          "type": "address"
        },
        {
          "internalType": "uint256",
          "name": "newBorrowCap",
          "type": "uint256"
        }
      ],
      "name": "setBorrowCap",
      "outputs": [],
      "stateMutability": "nonpayable",
      "type": "function"
    },
    {
      "inputs": [
        {
          "internalType": "address",
          "name": "asset",
          "type": "address"
        },
        {
          "internalType": "bool",
          "name": "borrowable",
          "type": "bool"
        }
      ],
      "name": "setBorrowableInIsolation",
      "outputs": [],
      "stateMutability": "nonpayable",
      "type": "function"
    },
    {
      "inputs": [
        {
          "internalType": "address",
          "name": "asset",
          "type": "address"
        },
        {
          "internalType": "uint256",
          "name": "newDebtCeiling",
          "type": "uint256"
        }
      ],
      "name": "setDebtCeiling",
      "outputs": [],
      "stateMutability": "nonpayable",
      "type": "function"
    },
    {
      "inputs": [
        {
          "internalType": "uint8",
          "name": "categoryId",
          "type": "uint8"
        },
        {
          "internalType": "uint16",
          "name": "ltv",
          "type": "uint16"
        },
        {
          "internalType": "uint16",
          "name": "liquidationThreshold",
          "type": "uint16"
        },
        {
          "internalType": "uint16",
          "name": "liquidationBonus",
          "type": "uint16"
        },
        {
          "internalType": "address",
          "name": "oracle",
          "type": "address"
        },
        {
          "internalType": "string",
          "name": "label",
          "type": "string"
        }
      ],
      "name": "setEModeCategory",
      "outputs": [],
      "stateMutability": "nonpayable",
      "type": "function"
    },
    {
      "inputs": [
        {
          "internalType": "address",
          "name": "asset",
          "type": "address"
        },
        {
          "internalType": "uint256",
          "name": "newFee",
          "type": "uint256"
        }
      ],
      "name": "setLiquidationProtocolFee",
      "outputs": [],
      "stateMutability": "nonpayable",
      "type": "function"
    },
    {
      "inputs": [
        {
          "internalType": "bool",
          "name": "paused",
          "type": "bool"
        }
      ],
      "name": "setPoolPause",
      "outputs": [],
      "stateMutability": "nonpayable",
      "type": "function"
    },
    {
      "inputs": [
        {
          "internalType": "address",
          "name": "asset",
          "type": "address"
        },
        {
          "internalType": "bool",
          "name": "active",
          "type": "bool"
        }
      ],
      "name": "setReserveActive",
      "outputs": [],
      "stateMutability": "nonpayable",
      "type": "function"
    },
    {
      "inputs": [
        {
          "internalType": "address",
          "name": "asset",
          "type": "address"
        },
        {
          "internalType": "bool",
          "name": "enabled",
          "type": "bool"
        }
      ],
      "name": "setReserveBorrowing",
      "outputs": [],
      "stateMutability": "nonpayable",
      "type": "function"
    },
    {
      "inputs": [
        {
          "internalType": "address",
          "name": "asset",
          "type": "address"
        },
        {
          "internalType": "uint256",
          "name": "newReserveFactor",
          "type": "uint256"
        }
      ],
      "name": "setReserveFactor",
      "outputs": [],
      "stateMutability": "nonpayable",
      "type": "function"
    },
    {
      "inputs": [
        {
          "internalType": "address",
          "name": "asset",
          "type": "address"
        },
        {
          "internalType": "bool",
          "name": "enabled",
          "type": "bool"
        }
      ],
      "name": "setReserveFlashLoaning",
      "outputs": [],
      "stateMutability": "nonpayable",
      "type": "function"
    },
    {
      "inputs": [
        {
          "internalType": "address",
          "name": "asset",
          "type": "address"
        },
        {
          "internalType": "bool",
          "name": "freeze",
          "type": "bool"
        }
      ],
      "name": "setReserveFreeze",
      "outputs": [],
      "stateMutability": "nonpayable",
      "type": "function"
    },
    {
      "inputs": [
        {
          "internalType": "address",
          "name": "asset",
          "type": "address"
        },
        {
          "internalType": "address",
          "name": "newRateStrategyAddress",
          "type": "address"
        }
      ],
      "name": "setReserveInterestRateStrategyAddress",
      "outputs": [],
      "stateMutability": "nonpayable",
      "type": "function"
    },
    {
      "inputs": [
        {
          "internalType": "address",
          "name": "asset",
          "type": "address"
        },
        {
          "internalType": "bool",
          "name": "paused",
          "type": "bool"
        }
      ],
      "name": "setReservePause",
      "outputs": [],
      "stateMutability": "nonpayable",
      "type": "function"
    },
    {
      "inputs": [
        {
          "internalType": "address",
          "name": "asset",
          "type": "address"
        },
        {
          "internalType": "bool",
          "name": "enabled",
          "type": "bool"
        }
      ],
      "name": "setReserveStableRateBorrowing",
      "outputs": [],
      "stateMutability": "nonpayable",
      "type": "function"
    },
    {
      "inputs": [
        {
          "internalType": "address",
          "name": "asset",
          "type": "address"
        },
        {
          "internalType": "bool",
          "name": "newSiloed",
          "type": "bool"
        }
      ],
      "name": "setSiloedBorrowing",
      "outputs": [],
      "stateMutability": "nonpayable",
      "type": "function"
    },
    {
      "inputs": [
        {
          "internalType": "address",
          "name": "asset",
          "type": "address"
        },
        {
          "internalType": "uint256",
          "name": "newSupplyCap",
          "type": "uint256"
        }
      ],
      "name": "setSupplyCap",
      "outputs": [],
      "stateMutability": "nonpayable",
      "type": "function"
    },
    {
      "inputs": [
        {
          "internalType": "address",
          "name": "asset",
          "type": "address"
        },
        {
          "internalType": "uint256",
          "name": "newUnbackedMintCap",
          "type": "uint256"
        }
      ],
      "name": "setUnbackedMintCap",
      "outputs": [],
      "stateMutability": "nonpayable",
      "type": "function"
    },
    {
      "inputs": [
        {
          "components": [
            {
              "internalType": "address",
              "name": "asset",
              "type": "address"
            },
            {
              "internalType": "address",
              "name": "treasury",
              "type": "address"
            },
            {
              "internalType": "address",
              "name": "incentivesController",
              "type": "address"
            },
            {
              "internalType": "string",
              "name": "name",
              "type": "string"
            },
            {
              "internalType": "string",
              "name": "symbol",
              "type": "string"
            },
            {
              "internalType": "address",
              "name": "implementation",
              "type": "address"
            },
            {
              "internalType": "bytes",
              "name": "params",
              "type": "bytes"
            }
          ],
          "internalType": "struct ConfiguratorInputTypes.UpdateATokenInput",
          "name": "input",
          "type": "tuple"
        }
      ],
      "name": "updateAToken",
      "outputs": [],
      "stateMutability": "nonpayable",
      "type": "function"
    },
    {
      "inputs": [
        {
          "internalType": "uint256",
          "name": "newBridgeProtocolFee",
          "type": "uint256"
        }
      ],
      "name": "updateBridgeProtocolFee",
      "outputs": [],
      "stateMutability": "nonpayable",
      "type": "function"
    },
    {
      "inputs": [
        {
          "internalType": "uint128",
          "name": "newFlashloanPremiumToProtocol",
          "type": "uint128"
        }
      ],
      "name": "updateFlashloanPremiumToProtocol",
      "outputs": [],
      "stateMutability": "nonpayable",
      "type": "function"
    },
    {
      "inputs": [
        {
          "internalType": "uint128",
          "name": "newFlashloanPremiumTotal",
          "type": "uint128"
        }
      ],
      "name": "updateFlashloanPremiumTotal",
      "outputs": [],
      "stateMutability": "nonpayable",
      "type": "function"
    },
    {
      "inputs": [
        {
          "components": [
            {
              "internalType": "address",
              "name": "asset",
              "type": "address"
            },
            {
              "internalType": "address",
              "name": "incentivesController",
              "type": "address"
            },
            {
              "internalType": "string",
              "name": "name",
              "type": "string"
            },
            {
              "internalType": "string",
              "name": "symbol",
              "type": "string"
            },
            {
              "internalType": "address",
              "name": "implementation",
              "type": "address"
            },
            {
              "internalType": "bytes",
              "name": "params",
              "type": "bytes"
            }
          ],
          "internalType": "struct ConfiguratorInputTypes.UpdateDebtTokenInput",
          "name": "input",
          "type": "tuple"
        }
      ],
      "name": "updateStableDebtToken",
      "outputs": [],
      "stateMutability": "nonpayable",
      "type": "function"
    },
    {
      "inputs": [
        {
          "components": [
            {
              "internalType": "address",
              "name": "asset",
              "type": "address"
            },
            {
              "internalType": "address",
              "name": "incentivesController",
              "type": "address"
            },
            {
              "internalType": "string",
              "name": "name",
              "type": "string"
            },
            {
              "internalType": "string",
              "name": "symbol",
              "type": "string"
            },
            {
              "internalType": "address",
              "name": "implementation",
              "type": "address"
            },
            {
              "internalType": "bytes",
              "name": "params",
              "type": "bytes"
            }
          ],
          "internalType": "struct ConfiguratorInputTypes.UpdateDebtTokenInput",
          "name": "input",
          "type": "tuple"
        }
      ],
      "name": "updateVariableDebtToken",
      "outputs": [],
      "stateMutability": "nonpayable",
      "type": "function"
    }
  ],
  "transactionHash": "0x96df25f121377cb033a276cd42f0c5f95f480df450d00ac8123ef73fa35e4dc4",
  "args": [],
  "numDeployments": 1,
  "solcInputHash": "f1b427c92e02e51f5ada5a1bc7baf6ea",
  "bytecode": "0x60806040526000805534801561001457600080fd5b50614654806100246000396000f3fe608060405234801561001057600080fd5b50600436106101cf5760003560e01c80637af635a611610104578063aeb4fcc1116100a2578063c4d66de811610071578063c4d66de8146103b8578063d14a0983146103cb578063d4fe3f99146103de578063f213ef0e146103f157600080fd5b8063aeb4fcc11461036c578063b736aaeb1461037f578063bb01c37c14610392578063c19d61e4146103a557600080fd5b80638a751a60116100de5780638a751a601461032057806396e957c414610333578063a7fa83b714610346578063ad4e64321461035957600080fd5b80637af635a6146102e05780637c4e560b146102fa5780638a4936761461030d57600080fd5b806348d9fba91161017157806363c9b8601161014b57806363c9b86014610294578063682cf264146102a75780637626cde3146102ba5780637641f3d9146102cd57600080fd5b806348d9fba91461025b5780634b4e67531461026e578063571f03e51461028157600080fd5b80631df970bd116101ad5780631df970bd1461020f57806326d2cec2146102225780633036b4391461023557806338ae0cc31461024857600080fd5b806302fb45e6146101d4578063145f5892146101e95780631d2118f9146101fc575b600080fd5b6101e76101e23660046137bf565b610404565b005b6101e76101f736600461385c565b6104c1565b6101e761020a366004613888565b610600565b6101e761021d3660046138d6565b61072c565b6101e761023036600461385c565b610914565b6101e76102433660046138fa565b610a83565b6101e7610256366004613921565b610bcc565b6101e7610269366004613921565b610cfc565b6101e761027c36600461385c565b610e2d565b6101e761028f36600461385c565b610f9c565b6101e76102a236600461394f565b6110d1565b6101e76102b5366004613921565b61116f565b6101e76102c836600461396c565b6112de565b6101e76102db3660046139a7565b61135d565b6102e8600181565b60405190815260200160405180910390f35b6101e76103083660046139c4565b611447565b6101e761031b3660046138d6565b6116a2565b6101e761032e366004613921565b611879565b6101e7610341366004613921565b6119ec565b6101e7610354366004613921565b611b10565b6101e761036736600461396c565b611c62565b6101e761037a36600461385c565b611cae565b6101e761038d366004613921565b611e61565b6101e76103a03660046139ff565b611f93565b6101e76103b3366004613a5b565b611fdf565b6101e76103c636600461394f565b612438565b6101e76103d936600461385c565b612589565b6101e76103ec366004613b29565b6126be565b6101e76103ff366004613921565b6128c9565b61040c6129ed565b6035546001600160a01b031660005b828110156104bb5773f32981b94fb18D0eFde40647b76CD24310cef51363df59b8b28386868581811061045057610450613b5e565b90506020028101906104629190613b74565b6040518363ffffffff1660e01b815260040161047f929190613c0b565b60006040518083038186803b15801561049757600080fd5b505af41580156104ab573d6000803e3d6000fd5b50506001909201915061041b9050565b50505050565b6104c9612b6f565b60355460405163c44b11f760e01b81526001600160a01b038481166004830152600092169063c44b11f790602401602060405180830381865afa158015610514573d6000803e3d6000fd5b505050506040513d601f19601f820116820180604052508101906105389190613f0b565b805190915060b01c640fffffffff166105518284612cee565b60355460405163f51e435b60e01b81526001600160a01b039091169063f51e435b906105839087908690600401613f27565b600060405180830381600087803b15801561059d57600080fd5b505af11580156105b1573d6000803e3d6000fd5b505060408051848152602081018790526001600160a01b03881693507f09808b1fc5abde94edf02fdde393bea0d2e4795999ba31695472848638b5c29f9250015b60405180910390a250505050565b610608612b6f565b6035546040516335ea6a7560e01b81526001600160a01b03848116600483015260009216906335ea6a75906024016101e060405180830381865afa158015610654573d6000803e3d6000fd5b505050506040513d601f19601f820116820180604052508101906106789190613f77565b610160810151603554604051631d2118f960e01b81526001600160a01b038781166004830152868116602483015293945091921690631d2118f990604401600060405180830381600087803b1580156106d057600080fd5b505af11580156106e4573d6000803e3d6000fd5b5050604080516001600160a01b0385811682528781166020830152881693507fdb8dada53709ce4988154324196790c2e4a60c377e1256790946f83b87db3c339250016105f2565b610734612d46565b604080518082019091526002815261313960f01b60208201526127106001600160801b03831611156107825760405162461bcd60e51b815260040161077991906140ea565b60405180910390fd5b506035546040805163354ce01b60e11b815290516000926001600160a01b031691636a99c0369160048083019260209291908290030181865afa1580156107cd573d6000803e3d6000fd5b505050506040513d601f19601f820116820180604052508101906107f191906140fd565b6035546040805163074b2e4360e01b815290519293506001600160a01b039091169163bcb6e52291839163074b2e43916004808201926020929091908290030181865afa158015610846573d6000803e3d6000fd5b505050506040513d601f19601f8201168201806040525081019061086a91906140fd565b6040516001600160e01b031960e084901b1681526001600160801b0391821660048201529085166024820152604401600060405180830381600087803b1580156108b357600080fd5b505af11580156108c7573d6000803e3d6000fd5b5050604080516001600160801b038086168252861660208201527fe7e0c75e1fc2d0bd83dc85d59f085b3e763107c392fb368e85572b292f1f557693500190505b60405180910390a15050565b61091c612b6f565b604080518082019091526002815261037360f41b60208201526127108211156109585760405162461bcd60e51b815260040161077991906140ea565b5060355460405163c44b11f760e01b81526001600160a01b038481166004830152600092169063c44b11f790602401602060405180830381865afa1580156109a4573d6000803e3d6000fd5b505050506040513d601f19601f820116820180604052508101906109c89190613f0b565b805190915060981c61ffff166109de8284612e57565b60355460405163f51e435b60e01b81526001600160a01b039091169063f51e435b90610a109087908690600401613f27565b600060405180830381600087803b158015610a2a57600080fd5b505af1158015610a3e573d6000803e3d6000fd5b505060408051848152602081018790526001600160a01b03881693507fb5b0a963825337808b6e3154de8e98027595a5cad4219bb3a9bc55b192f4b3919250016105f2565b610a8b612d46565b604080518082019091526002815261191960f11b6020820152612710821115610ac75760405162461bcd60e51b815260040161077991906140ea565b5060355460408051631396c83960e11b815290516000926001600160a01b03169163272d90729160048083019260209291908290030181865afa158015610b12573d6000803e3d6000fd5b505050506040513d601f19601f82011682018060405250810190610b36919061411a565b603554604051633036b43960e01b8152600481018590529192506001600160a01b031690633036b43990602401600060405180830381600087803b158015610b7d57600080fd5b505af1158015610b91573d6000803e3d6000fd5b505060408051848152602081018690527f30b17cb587a89089d003457c432f73e22aeee93de425e92224ba01080260ecd99350019050610908565b610bd4612b6f565b60355460405163c44b11f760e01b81526001600160a01b038481166004830152600092169063c44b11f790602401602060405180830381865afa158015610c1f573d6000803e3d6000fd5b505050506040513d601f19601f82011682018060405250810190610c439190613f0b565b9050610c4f8183612ea9565b60355460405163f51e435b60e01b81526001600160a01b039091169063f51e435b90610c819086908590600401613f27565b600060405180830381600087803b158015610c9b57600080fd5b505af1158015610caf573d6000803e3d6000fd5b5050604080516001600160a01b038716815285151560208201527f74adf6aaf58c08bc4f993640385e136522375ea3d1589a10d02adbb906c67d1c935001905060405180910390a1505050565b610d04612ed7565b60355460405163c44b11f760e01b81526001600160a01b038481166004830152600092169063c44b11f790602401602060405180830381865afa158015610d4f573d6000803e3d6000fd5b505050506040513d601f19601f82011682018060405250810190610d739190613f0b565b9050610d7f8183613056565b60355460405163f51e435b60e01b81526001600160a01b039091169063f51e435b90610db19086908590600401613f27565b600060405180830381600087803b158015610dcb57600080fd5b505af1158015610ddf573d6000803e3d6000fd5b50505050826001600160a01b03167fe188d542a5f11925d3a3af33703cdd30a43cb3e8066a3cf68b1b57f61a5a94b583604051610e20911515815260200190565b60405180910390a2505050565b610e35612b6f565b604080518082019091526002815261363760f01b6020820152612710821115610e715760405162461bcd60e51b815260040161077991906140ea565b5060355460405163c44b11f760e01b81526001600160a01b038481166004830152600092169063c44b11f790602401602060405180830381865afa158015610ebd573d6000803e3d6000fd5b505050506040513d601f19601f82011682018060405250810190610ee19190613f0b565b805190915060401c61ffff16610ef78284613084565b60355460405163f51e435b60e01b81526001600160a01b039091169063f51e435b90610f299087908690600401613f27565b600060405180830381600087803b158015610f4357600080fd5b505af1158015610f57573d6000803e3d6000fd5b505060408051848152602081018790526001600160a01b03881693507fb46e2b82b0c2cf3d7d9dece53635e165c53e0eaa7a44f904d61a2b7174826aef9250016105f2565b610fa4612b6f565b60355460405163c44b11f760e01b81526001600160a01b038481166004830152600092169063c44b11f790602401602060405180830381865afa158015610fef573d6000803e3d6000fd5b505050506040513d601f19601f820116820180604052508101906110139190613f0b565b805190915060741c640fffffffff1661102c82846130db565b60355460405163f51e435b60e01b81526001600160a01b039091169063f51e435b9061105e9087908690600401613f27565b600060405180830381600087803b15801561107857600080fd5b505af115801561108c573d6000803e3d6000fd5b505060408051848152602081018790526001600160a01b03881693507f0263602682188540a2d633561c0b4453b7d8566285e99f9f6018b8ef2facef499250016105f2565b6110d9612d46565b60355460405163031e4dc360e51b81526001600160a01b038381166004830152909116906363c9b86090602401600060405180830381600087803b15801561112057600080fd5b505af1158015611134573d6000803e3d6000fd5b50506040516001600160a01b03841692507feeec4c06f7adad215cbdb4d2960896c83c26aedce02dde76d36fa28588d62da49150600090a250565b611177612b6f565b60355460405163c44b11f760e01b81526001600160a01b038481166004830152600092169063c44b11f790602401602060405180830381865afa1580156111c2573d6000803e3d6000fd5b505050506040513d601f19601f820116820180604052508101906111e69190613f0b565b905081611233578051604080518082019091526002815261070760f31b60208201529067080000000000000016156112315760405162461bcd60e51b815260040161077991906140ea565b505b61123d8183613133565b60355460405163f51e435b60e01b81526001600160a01b039091169063f51e435b9061126f9086908590600401613f27565b600060405180830381600087803b15801561128957600080fd5b505af115801561129d573d6000803e3d6000fd5b50505050826001600160a01b03167f2443ba28e8d1d88d531a3d90b981816a4f3b3c7f1fd4085c6029e81d1b7a570d83604051610e20911515815260200190565b6112e6612d46565b603554604051630f5b50e760e41b815273f32981b94fb18D0eFde40647b76CD24310cef5139163f5b50e709161132a916001600160a01b0316908590600401614133565b60006040518083038186803b15801561134257600080fd5b505af4158015611356573d6000803e3d6000fd5b5050505050565b611365613161565b603554604080516334651b6f60e21b815290516000926001600160a01b03169163d1946dbc91600480830192869291908290030181865afa1580156113ae573d6000803e3d6000fd5b505050506040513d6000823e601f3d908101601f191682016040526113d69190810190614201565b905060005b81518110156114425760006001600160a01b031682828151811061140157611401613b5e565b60200260200101516001600160a01b03161461143a5761143a82828151811061142c5761142c613b5e565b602002602001015184610cfc565b6001016113db565b505050565b61144f612b6f565b604080518082019091526002815261032360f41b6020820152828411156114895760405162461bcd60e51b815260040161077991906140ea565b5060355460405163c44b11f760e01b81526001600160a01b038681166004830152600092169063c44b11f790602401602060405180830381865afa1580156114d5573d6000803e3d6000fd5b505050506040513d601f19601f820116820180604052508101906114f99190613f0b565b9050821561158b57604080518082019091526002815261032360f41b6020820152612710831161153c5760405162461bcd60e51b815260040161077991906140ea565b5061271061154a8484613272565b111560405180604001604052806002815260200161032360f41b815250906115855760405162461bcd60e51b815260040161077991906140ea565b506115cd565b604080518082019091526002815261032360f41b602082015282156115c35760405162461bcd60e51b815260040161077991906140ea565b506115cd85613298565b6115d781856133d4565b6115e1818461341d565b6115eb818361346e565b60355460405163f51e435b60e01b81526001600160a01b039091169063f51e435b9061161d9088908590600401613f27565b600060405180830381600087803b15801561163757600080fd5b505af115801561164b573d6000803e3d6000fd5b505060408051878152602081018790529081018590526001600160a01b03881692507f637febbda9275aea2e85c0ff690444c8d87eb2e8339bbede9715abcc89cb0995915060600160405180910390a25050505050565b6116aa612d46565b604080518082019091526002815261313960f01b60208201526127106001600160801b03831611156116ef5760405162461bcd60e51b815260040161077991906140ea565b506035546040805163074b2e4360e01b815290516000926001600160a01b03169163074b2e439160048083019260209291908290030181865afa15801561173a573d6000803e3d6000fd5b505050506040513d601f19601f8201168201806040525081019061175e91906140fd565b6035546040805163354ce01b60e11b815290519293506001600160a01b039091169163bcb6e5229185918491636a99c0369160048083019260209291908290030181865afa1580156117b4573d6000803e3d6000fd5b505050506040513d601f19601f820116820180604052508101906117d891906140fd565b6040516001600160e01b031960e085901b1681526001600160801b03928316600482015291166024820152604401600060405180830381600087803b15801561182057600080fd5b505af1158015611834573d6000803e3d6000fd5b5050604080516001600160801b038086168252861660208201527f71aba182c9d0529b516de7a78bed74d49c207ef7e152f52f7ea5d8730138f6439350019050610908565b611881612b6f565b60355460405163c44b11f760e01b81526001600160a01b038481166004830152600092169063c44b11f790602401602060405180830381865afa1580156118cc573d6000803e3d6000fd5b505050506040513d601f19601f820116820180604052508101906118f09190613f0b565b9050811561194157805167040000000000000016151560405180604001604052806002815260200161033360f41b8152509061193f5760405162461bcd60e51b815260040161077991906140ea565b505b61194b81836134c1565b60355460405163f51e435b60e01b81526001600160a01b039091169063f51e435b9061197d9086908590600401613f27565b600060405180830381600087803b15801561199757600080fd5b505af11580156119ab573d6000803e3d6000fd5b50505050826001600160a01b03167f0b64d0941719acd363f1a6be3d8525d8ec9d71738f7445aabcd88d7939b472e783604051610e20911515815260200190565b6119f4612b6f565b60355460405163c44b11f760e01b81526001600160a01b038481166004830152600092169063c44b11f790602401602060405180830381865afa158015611a3f573d6000803e3d6000fd5b505050506040513d601f19601f82011682018060405250810190611a639190613f0b565b9050611a6f81836134ef565b60355460405163f51e435b60e01b81526001600160a01b039091169063f51e435b90611aa19086908590600401613f27565b600060405180830381600087803b158015611abb57600080fd5b505af1158015611acf573d6000803e3d6000fd5b50505050826001600160a01b03167f0c4443d258a350d27dc50c378b2ebf165e6469725f786d21b30cab16823f558783604051610e20911515815260200190565b611b18612b6f565b8015611b2757611b278261351d565b60355460405163c44b11f760e01b81526001600160a01b038481166004830152600092169063c44b11f790602401602060405180830381865afa158015611b72573d6000803e3d6000fd5b505050506040513d601f19601f82011682018060405250810190611b969190613f0b565b90506000611bae825167400000000000000016151590565b9050611bba8284613632565b60355460405163f51e435b60e01b81526001600160a01b039091169063f51e435b90611bec9087908690600401613f27565b600060405180830381600087803b158015611c0657600080fd5b505af1158015611c1a573d6000803e3d6000fd5b505060408051841515815286151560208201526001600160a01b03881693507f842a280b07e8e502a9101f32a3b768ebaba3655556dd674f0831900861fc674b9250016105f2565b611c6a612d46565b60355460405163b0f0935560e01b815273f32981b94fb18D0eFde40647b76CD24310cef5139163b0f093559161132a916001600160a01b0316908590600401614133565b611cb6612b6f565b60355460405163c44b11f760e01b81526001600160a01b038481166004830152600092169063c44b11f790602401602060405180830381865afa158015611d01573d6000803e3d6000fd5b505050506040513d601f19601f82011682018060405250810190611d259190613f0b565b805190915060009060d41c64ffffffffff16905080600003611d4a57611d4a84613298565b611d548284613660565b60355460405163f51e435b60e01b81526001600160a01b039091169063f51e435b90611d869087908690600401613f27565b600060405180830381600087803b158015611da057600080fd5b505af1158015611db4573d6000803e3d6000fd5b5050505082600003611e205760355460405163e43e88a160e01b81526001600160a01b0386811660048301529091169063e43e88a190602401600060405180830381600087803b158015611e0757600080fd5b505af1158015611e1b573d6000803e3d6000fd5b505050505b60408051828152602081018590526001600160a01b038616917f6824a6c7fbc10d2979b1f1ccf2dd4ed0436541679a661dedb5c10bd4be83068291016105f2565b611e69612d46565b80611e7757611e7782613298565b60355460405163c44b11f760e01b81526001600160a01b038481166004830152600092169063c44b11f790602401602060405180830381865afa158015611ec2573d6000803e3d6000fd5b505050506040513d601f19601f82011682018060405250810190611ee69190613f0b565b9050611ef281836136bb565b60355460405163f51e435b60e01b81526001600160a01b039091169063f51e435b90611f249086908590600401613f27565b600060405180830381600087803b158015611f3e57600080fd5b505af1158015611f52573d6000803e3d6000fd5b50505050826001600160a01b03167fc36c7d11ba01a5869d52aa4a3781939dab851cbc9ee6e7fdcedc7d58898a3f1e83604051610e20911515815260200190565b611f9b612d46565b60355460405163162792d560e31b815273f32981b94fb18D0eFde40647b76CD24310cef5139163b13c96a89161132a916001600160a01b03169085906004016142b3565b611fe7612b6f565b604080518082019091526002815261323160f01b602082015261ffff87166120225760405162461bcd60e51b815260040161077991906140ea565b50604080518082019091526002815261323160f01b602082015261ffff861661205e5760405162461bcd60e51b815260040161077991906140ea565b508461ffff168661ffff16111560405180604001604052806002815260200161323160f01b815250906120a45760405162461bcd60e51b815260040161077991906140ea565b50604080518082019091526002815261323160f01b602082015261271061ffff8616116120e45760405162461bcd60e51b815260040161077991906140ea565b506127106120f961ffff878116908716613272565b111560405180604001604052806002815260200161323160f01b815250906121345760405162461bcd60e51b815260040161077991906140ea565b50603554604080516334651b6f60e21b815290516000926001600160a01b03169163d1946dbc91600480830192869291908290030181865afa15801561217e573d6000803e3d6000fd5b505050506040513d6000823e601f3d908101601f191682016040526121a69190810190614201565b905060005b81518110156122ff5760355482516000916001600160a01b03169063c44b11f7908590859081106121de576121de613b5e565b60200260200101516040518263ffffffff1660e01b815260040161221191906001600160a01b0391909116815260200190565b602060405180830381865afa15801561222e573d6000803e3d6000fd5b505050506040513d601f19601f820116820180604052508101906122529190613f0b565b805190915060a81c60ff168a60ff16036122f657805161ffff168961ffff161160405180604001604052806002815260200161323160f01b815250906122ab5760405162461bcd60e51b815260040161077991906140ea565b50805160101c61ffff168861ffff161160405180604001604052806002815260200161323160f01b815250906122f45760405162461bcd60e51b815260040161077991906140ea565b505b506001016121ab565b50603560009054906101000a90046001600160a01b03166001600160a01b031663d579ea7d896040518060a001604052808b61ffff1681526020018a61ffff1681526020018961ffff168152602001886001600160a01b0316815260200187878080601f01602080910402602001604051908101604052809392919081815260200183838082843760009201919091525050509152506040516001600160e01b031960e085901b1681526123b79291906004016143a1565b600060405180830381600087803b1580156123d157600080fd5b505af11580156123e5573d6000803e3d6000fd5b505050508760ff167f0acf8b4a3cace10779798a89a206a0ae73a71b63acdd3be2801d39c2ef7ab3cb88888888888860405161242696959493929190614409565b60405180910390a25050505050505050565b6001805460ff16806124495750303b155b80612455575060005481115b6124b85760405162461bcd60e51b815260206004820152602e60248201527f436f6e747261637420696e7374616e63652068617320616c726561647920626560448201526d195b881a5b9a5d1a585b1a5e995960921b6064820152608401610779565b60015460ff161580156124d7576001805460ff19168117905560008290555b603480546001600160a01b0319166001600160a01b0385169081179091556040805163026b1d5f60e01b8152905163026b1d5f916004808201926020929091908290030181865afa158015612530573d6000803e3d6000fd5b505050506040513d601f19601f820116820180604052508101906125549190614448565b603580546001600160a01b0319166001600160a01b03929092169190911790558015611442576001805460ff19169055505050565b612591612b6f565b60355460405163c44b11f760e01b81526001600160a01b038481166004830152600092169063c44b11f790602401602060405180830381865afa1580156125dc573d6000803e3d6000fd5b505050506040513d601f19601f820116820180604052508101906126009190613f0b565b805190915060501c640fffffffff1661261982846136e9565b60355460405163f51e435b60e01b81526001600160a01b039091169063f51e435b9061264b9087908690600401613f27565b600060405180830381600087803b15801561266557600080fd5b505af1158015612679573d6000803e3d6000fd5b505060408051848152602081018790526001600160a01b03881693507fc51aca575985d521c5072ad11549bad77013bb786d57f30f94b40ed8f8dc9bc49250016105f2565b6126c6612b6f565b60355460405163c44b11f760e01b81526001600160a01b038481166004830152600092169063c44b11f790602401602060405180830381865afa158015612711573d6000803e3d6000fd5b505050506040513d601f19601f820116820180604052508101906127359190613f0b565b905060ff82161561280657603554604051636c6f6ae160e01b815260ff841660048201526000916001600160a01b031690636c6f6ae190602401600060405180830381865afa15801561278c573d6000803e3d6000fd5b505050506040513d6000823e601f3d908101601f191682016040526127b49190810190614465565b825190915060101c61ffff16816020015161ffff161160405180604001604052806002815260200161313760f01b815250906128035760405162461bcd60e51b815260040161077991906140ea565b50505b805160009060a81c60ff1690506128208260ff8516613741565b60355460405163f51e435b60e01b81526001600160a01b039091169063f51e435b906128529087908690600401613f27565b600060405180830381600087803b15801561286c57600080fd5b505af1158015612880573d6000803e3d6000fd5b50506040805160ff8086168252871660208201526001600160a01b03881693507f5bb69795b6a2ea222d73a5f8939c23471a1f85a99c7ca43c207f1b71f10c62649250016105f2565b6128d1612b6f565b60355460405163c44b11f760e01b81526001600160a01b038481166004830152600092169063c44b11f790602401602060405180830381865afa15801561291c573d6000803e3d6000fd5b505050506040513d601f19601f820116820180604052508101906129409190613f0b565b905061294c8183613791565b60355460405163f51e435b60e01b81526001600160a01b039091169063f51e435b9061297e9086908590600401613f27565b600060405180830381600087803b15801561299857600080fd5b505af11580156129ac573d6000803e3d6000fd5b50505050826001600160a01b03167fc8ff3cc5b0fddaa3e6ebbbd7438f43393e4ea30e88b80ad016c1bc094655034d83604051610e20911515815260200190565b6034546040805163383e6b8b60e11b815290516000926001600160a01b03169163707cd7169160048083019260209291908290030181865afa158015612a37573d6000803e3d6000fd5b505050506040513d601f19601f82011682018060405250810190612a5b9190614448565b604051629f719760e51b81523360048201529091506001600160a01b038216906313ee32e090602401602060405180830381865afa158015612aa1573d6000803e3d6000fd5b505050506040513d601f19601f82011682018060405250810190612ac59190614572565b80612b335750604051637be53ca160e01b81523360048201526001600160a01b03821690637be53ca190602401602060405180830381865afa158015612b0f573d6000803e3d6000fd5b505050506040513d601f19601f82011682018060405250810190612b339190614572565b604051806040016040528060018152602001603560f81b81525090612b6b5760405162461bcd60e51b815260040161077991906140ea565b5050565b6034546040805163383e6b8b60e11b815290516000926001600160a01b03169163707cd7169160048083019260209291908290030181865afa158015612bb9573d6000803e3d6000fd5b505050506040513d601f19601f82011682018060405250810190612bdd9190614448565b60405163674b5e4d60e01b81523360048201529091506001600160a01b0382169063674b5e4d90602401602060405180830381865afa158015612c24573d6000803e3d6000fd5b505050506040513d601f19601f82011682018060405250810190612c489190614572565b80612cb65750604051637be53ca160e01b81523360048201526001600160a01b03821690637be53ca190602401602060405180830381865afa158015612c92573d6000803e3d6000fd5b505050506040513d601f19601f82011682018060405250810190612cb69190614572565b604051806040016040528060018152602001600d60fa1b81525090612b6b5760405162461bcd60e51b815260040161077991906140ea565b6040805180820190915260028152611b9960f11b6020820152640fffffffff821115612d2d5760405162461bcd60e51b815260040161077991906140ea565b508151640fffffffff60b01b191660b09190911b179052565b6034546040805163383e6b8b60e11b815290516000926001600160a01b03169163707cd7169160048083019260209291908290030181865afa158015612d90573d6000803e3d6000fd5b505050506040513d601f19601f82011682018060405250810190612db49190614448565b604051637be53ca160e01b81523360048201529091506001600160a01b03821690637be53ca190602401602060405180830381865afa158015612dfb573d6000803e3d6000fd5b505050506040513d601f19601f82011682018060405250810190612e1f9190614572565b604051806040016040528060018152602001603160f81b81525090612b6b5760405162461bcd60e51b815260040161077991906140ea565b604080518082019091526002815261037360f41b602082015261ffff821115612e935760405162461bcd60e51b815260040161077991906140ea565b50815161ffff60981b191660989190911b179052565b603d81612eb7576000612eba565b60015b8351672000000000000000191660ff9190911690911b1790915250565b6034546040805163383e6b8b60e11b815290516000926001600160a01b03169163707cd7169160048083019260209291908290030181865afa158015612f21573d6000803e3d6000fd5b505050506040513d601f19601f82011682018060405250810190612f459190614448565b604051637be53ca160e01b81523360048201529091506001600160a01b03821690637be53ca190602401602060405180830381865afa158015612f8c573d6000803e3d6000fd5b505050506040513d601f19601f82011682018060405250810190612fb09190614572565b8061301e5750604051631280795b60e11b81523360048201526001600160a01b03821690632500f2b690602401602060405180830381865afa158015612ffa573d6000803e3d6000fd5b505050506040513d601f19601f8201168201806040525081019061301e9190614572565b604051806040016040528060018152602001603360f81b81525090612b6b5760405162461bcd60e51b815260040161077991906140ea565b603c81613064576000613067565b60015b8351671000000000000000191660ff9190911690911b1790915250565b604080518082019091526002815261363760f01b602082015261ffff8211156130c05760405162461bcd60e51b815260040161077991906140ea565b50815169ffff0000000000000000191660409190911b179052565b604080518082019091526002815261363960f01b6020820152640fffffffff82111561311a5760405162461bcd60e51b815260040161077991906140ea565b508151640fffffffff60741b191660749190911b179052565b603a81613141576000613144565b60015b8351670400000000000000191660ff9190911690911b1790915250565b6034546040805163383e6b8b60e11b815290516000926001600160a01b03169163707cd7169160048083019260209291908290030181865afa1580156131ab573d6000803e3d6000fd5b505050506040513d601f19601f820116820180604052508101906131cf9190614448565b604051631280795b60e11b81523360048201529091506001600160a01b03821690632500f2b690602401602060405180830381865afa158015613216573d6000803e3d6000fd5b505050506040513d601f19601f8201168201806040525081019061323a9190614572565b604051806040016040528060018152602001601960f91b81525090612b6b5760405162461bcd60e51b815260040161077991906140ea565b60008115611388198390048411151761328a57600080fd5b506127109102611388010490565b600080603460009054906101000a90046001600160a01b03166001600160a01b031663e860accb6040518163ffffffff1660e01b8152600401602060405180830381865afa1580156132ee573d6000803e3d6000fd5b505050506040513d601f19601f820116820180604052508101906133129190614448565b6040516335ea6a7560e01b81526001600160a01b03858116600483015291909116906335ea6a759060240161018060405180830381865afa15801561335b573d6000803e3d6000fd5b505050506040513d601f19601f8201168201806040525081019061337f919061458f565b505050505050505050925092505080600014801561339b575081155b60405180604001604052806002815260200161062760f31b815250906104bb5760405162461bcd60e51b815260040161077991906140ea565b604080518082019091526002815261363360f01b602082015261ffff8211156134105760405162461bcd60e51b815260040161077991906140ea565b50815161ffff1916179052565b6040805180820190915260028152610d8d60f21b602082015261ffff8211156134595760405162461bcd60e51b815260040161077991906140ea565b50815163ffff0000191660109190911b179052565b604080518082019091526002815261363560f01b602082015261ffff8211156134aa5760405162461bcd60e51b815260040161077991906140ea565b50815165ffff00000000191660209190911b179052565b603b816134cf5760006134d2565b60015b8351670800000000000000191660ff9190911690911b1790915250565b6039816134fd576000613500565b60015b8351670200000000000000191660ff9190911690911b1790915250565b6034546040805163e860accb60e01b815290516000926001600160a01b03169163e860accb9160048083019260209291908290030181865afa158015613567573d6000803e3d6000fd5b505050506040513d601f19601f8201168201806040525081019061358b9190614448565b604051634d44ac4f60e01b81526001600160a01b0384811660048301529190911690634d44ac4f90602401602060405180830381865afa1580156135d3573d6000803e3d6000fd5b505050506040513d601f19601f820116820180604052508101906135f7919061411a565b604080518082019091526002815261039360f41b602082015290915081156114425760405162461bcd60e51b815260040161077991906140ea565b603e81613640576000613643565b60015b8351674000000000000000191660ff9190911690911b1790915250565b604080518082019091526002815261373360f01b602082015264ffffffffff82111561369f5760405162461bcd60e51b815260040161077991906140ea565b5081516001650f000000000160d41b031660d49190911b179052565b6038816136c95760006136cc565b60015b8351670100000000000000191660ff9190911690911b1790915250565b60408051808201909152600281526106c760f31b6020820152640fffffffff8211156137285760405162461bcd60e51b815260040161077991906140ea565b508151640fffffffff60501b191660509190911b179052565b604080518082019091526002815261373160f01b602082015260ff82111561377c5760405162461bcd60e51b815260040161077991906140ea565b50815160ff60a81b191660a89190911b179052565b603f8161379f5760006137a2565b60015b8351678000000000000000191660ff9190911690911b1790915250565b600080602083850312156137d257600080fd5b823567ffffffffffffffff808211156137ea57600080fd5b818501915085601f8301126137fe57600080fd5b81358181111561380d57600080fd5b8660208260051b850101111561382257600080fd5b60209290920196919550909350505050565b6001600160a01b038116811461384957600080fd5b50565b803561385781613834565b919050565b6000806040838503121561386f57600080fd5b823561387a81613834565b946020939093013593505050565b6000806040838503121561389b57600080fd5b82356138a681613834565b915060208301356138b681613834565b809150509250929050565b6001600160801b038116811461384957600080fd5b6000602082840312156138e857600080fd5b81356138f3816138c1565b9392505050565b60006020828403121561390c57600080fd5b5035919050565b801515811461384957600080fd5b6000806040838503121561393457600080fd5b823561393f81613834565b915060208301356138b681613913565b60006020828403121561396157600080fd5b81356138f381613834565b60006020828403121561397e57600080fd5b813567ffffffffffffffff81111561399557600080fd5b820160c081850312156138f357600080fd5b6000602082840312156139b957600080fd5b81356138f381613913565b600080600080608085870312156139da57600080fd5b84356139e581613834565b966020860135965060408601359560600135945092505050565b600060208284031215613a1157600080fd5b813567ffffffffffffffff811115613a2857600080fd5b820160e081850312156138f357600080fd5b803560ff8116811461385757600080fd5b61ffff8116811461384957600080fd5b600080600080600080600060c0888a031215613a7657600080fd5b613a7f88613a3a565b96506020880135613a8f81613a4b565b95506040880135613a9f81613a4b565b94506060880135613aaf81613a4b565b93506080880135613abf81613834565b925060a088013567ffffffffffffffff80821115613adc57600080fd5b818a0191508a601f830112613af057600080fd5b813581811115613aff57600080fd5b8b6020828501011115613b1157600080fd5b60208301945080935050505092959891949750929550565b60008060408385031215613b3c57600080fd5b8235613b4781613834565b9150613b5560208401613a3a565b90509250929050565b634e487b7160e01b600052603260045260246000fd5b600082356101de19833603018112613b8b57600080fd5b9190910192915050565b6000808335601e19843603018112613bac57600080fd5b830160208101925035905067ffffffffffffffff811115613bcc57600080fd5b803603821315613bdb57600080fd5b9250929050565b81835281816020850137506000828201602090810191909152601f909101601f19169091010190565b6001600160a01b0383168152604060208201819052613c3c908201613c2f8461384c565b6001600160a01b03169052565b6000613c4a6020840161384c565b6001600160a01b03166060830152613c646040840161384c565b6001600160a01b03166080830152613c7e60608401613a3a565b60ff1660a0830152613c926080840161384c565b6001600160a01b031660c0830152613cac60a0840161384c565b6001600160a01b031660e0830152613cc660c0840161384c565b610100613cdd818501836001600160a01b03169052565b613ce960e0860161384c565b9150610120613d02818601846001600160a01b03169052565b613d0e82870187613b95565b935091506101e06101408181880152613d2c61022088018686613be2565b9450613d3a83890189613b95565b94509250603f196101608189880301818a0152613d58878787613be2565b9650613d66838b018b613b95565b9650945061018092508189880301838a0152613d83878787613be2565b9650613d91818b018b613b95565b96509450506101a08189880301818a0152613dad878787613be2565b9650613dbb838b018b613b95565b965094506101c092508189880301838a0152613dd8878787613be2565b9650613de6818b018b613b95565b9650945050808887030183890152613dff868686613be2565b9550613e0d828a018a613b95565b955093508088870301610200890152505050613e2a838383613be2565b979650505050505050565b634e487b7160e01b600052604160045260246000fd5b6040516101e0810167ffffffffffffffff81118282101715613e6f57613e6f613e35565b60405290565b60405160a0810167ffffffffffffffff81118282101715613e6f57613e6f613e35565b604051601f8201601f1916810167ffffffffffffffff81118282101715613ec157613ec1613e35565b604052919050565b600060208284031215613edb57600080fd5b6040516020810181811067ffffffffffffffff82111715613efe57613efe613e35565b6040529151825250919050565b600060208284031215613f1d57600080fd5b6138f38383613ec9565b6001600160a01b0392909216825251602082015260400190565b8051613857816138c1565b805164ffffffffff8116811461385757600080fd5b805161385781613a4b565b805161385781613834565b60006101e08284031215613f8a57600080fd5b613f92613e4b565b613f9c8484613ec9565b8152613faa60208401613f41565b6020820152613fbb60408401613f41565b6040820152613fcc60608401613f41565b6060820152613fdd60808401613f41565b6080820152613fee60a08401613f41565b60a0820152613fff60c08401613f4c565b60c082015261401060e08401613f61565b60e0820152610100614023818501613f6c565b90820152610120614035848201613f6c565b90820152610140614047848201613f6c565b90820152610160614059848201613f6c565b9082015261018061406b848201613f41565b908201526101a061407d848201613f41565b908201526101c061408f848201613f41565b908201529392505050565b60005b838110156140b557818101518382015260200161409d565b50506000910152565b600081518084526140d681602086016020860161409a565b601f01601f19169290920160200192915050565b6020815260006138f360208301846140be565b60006020828403121561410f57600080fd5b81516138f3816138c1565b60006020828403121561412c57600080fd5b5051919050565b6001600160a01b03838116825260406020830152600090833561415581613834565b81166040840152602084013561416a81613834565b16606083015261417d6040840184613b95565b60c0608085015261419361010085018284613be2565b9150506141a36060850185613b95565b603f19808685030160a08701526141bb848385613be2565b93506141c96080880161384c565b6001600160a01b03811660c088015292506141e760a0880188613b95565b93509150808685030160e087015250613e2a838383613be2565b6000602080838503121561421457600080fd5b825167ffffffffffffffff8082111561422c57600080fd5b818501915085601f83011261424057600080fd5b81518181111561425257614252613e35565b8060051b9150614263848301613e98565b818152918301840191848101908884111561427d57600080fd5b938501935b838510156142a7578451925061429783613834565b8282529385019390850190614282565b98975050505050505050565b6001600160a01b0383811682526040602083015260009083356142d581613834565b1660408301526142e76020840161384c565b6001600160a01b031660608301526143016040840161384c565b6001600160a01b0316608083015261431c6060840184613b95565b60e060a085015261433261012085018284613be2565b9150506143426080850185613b95565b603f19808685030160c087015261435a848385613be2565b935061436860a0880161384c565b6001600160a01b03811660e0880152925061438660c0880188613b95565b93509150808685030161010087015250613e2a838383613be2565b60ff8316815260406020820152600061ffff8084511660408401528060208501511660608401528060408501511660808401525060018060a01b0360608401511660a0830152608083015160a060c084015261440060e08401826140be565b95945050505050565b61ffff87811682528681166020830152851660408201526001600160a01b038416606082015260a0608082018190526000906142a79083018486613be2565b60006020828403121561445a57600080fd5b81516138f381613834565b6000602080838503121561447857600080fd5b825167ffffffffffffffff8082111561449057600080fd5b9084019060a082870312156144a457600080fd5b6144ac613e75565b82516144b781613a4b565b8152828401516144c681613a4b565b8185015260408301516144d881613a4b565b604082015260608301516144eb81613834565b606082015260808301518281111561450257600080fd5b80840193505086601f84011261451757600080fd5b82518281111561452957614529613e35565b61453b601f8201601f19168601613e98565b9250808352878582860101111561455157600080fd5b6145608186850187870161409a565b50608081019190915295945050505050565b60006020828403121561458457600080fd5b81516138f381613913565b6000806000806000806000806000806000806101808d8f0312156145b257600080fd5b8c519b5060208d01519a5060408d0151995060608d0151985060808d0151975060a08d0151965060c08d0151955060e08d015194506101008d015193506101208d015192506101408d0151915061460c6101608e01613f4c565b90509295989b509295989b509295989b56fea2646970667358221220cbcf07e59bbab81c7da55a3f86bf46b756222ce5c4e81bd6d37a0325e3dfac7b64736f6c63430008160033",
  "deployedBytecode": "0x608060405234801561001057600080fd5b50600436106101cf5760003560e01c80637af635a611610104578063aeb4fcc1116100a2578063c4d66de811610071578063c4d66de8146103b8578063d14a0983146103cb578063d4fe3f99146103de578063f213ef0e146103f157600080fd5b8063aeb4fcc11461036c578063b736aaeb1461037f578063bb01c37c14610392578063c19d61e4146103a557600080fd5b80638a751a60116100de5780638a751a601461032057806396e957c414610333578063a7fa83b714610346578063ad4e64321461035957600080fd5b80637af635a6146102e05780637c4e560b146102fa5780638a4936761461030d57600080fd5b806348d9fba91161017157806363c9b8601161014b57806363c9b86014610294578063682cf264146102a75780637626cde3146102ba5780637641f3d9146102cd57600080fd5b806348d9fba91461025b5780634b4e67531461026e578063571f03e51461028157600080fd5b80631df970bd116101ad5780631df970bd1461020f57806326d2cec2146102225780633036b4391461023557806338ae0cc31461024857600080fd5b806302fb45e6146101d4578063145f5892146101e95780631d2118f9146101fc575b600080fd5b6101e76101e23660046137bf565b610404565b005b6101e76101f736600461385c565b6104c1565b6101e761020a366004613888565b610600565b6101e761021d3660046138d6565b61072c565b6101e761023036600461385c565b610914565b6101e76102433660046138fa565b610a83565b6101e7610256366004613921565b610bcc565b6101e7610269366004613921565b610cfc565b6101e761027c36600461385c565b610e2d565b6101e761028f36600461385c565b610f9c565b6101e76102a236600461394f565b6110d1565b6101e76102b5366004613921565b61116f565b6101e76102c836600461396c565b6112de565b6101e76102db3660046139a7565b61135d565b6102e8600181565b60405190815260200160405180910390f35b6101e76103083660046139c4565b611447565b6101e761031b3660046138d6565b6116a2565b6101e761032e366004613921565b611879565b6101e7610341366004613921565b6119ec565b6101e7610354366004613921565b611b10565b6101e761036736600461396c565b611c62565b6101e761037a36600461385c565b611cae565b6101e761038d366004613921565b611e61565b6101e76103a03660046139ff565b611f93565b6101e76103b3366004613a5b565b611fdf565b6101e76103c636600461394f565b612438565b6101e76103d936600461385c565b612589565b6101e76103ec366004613b29565b6126be565b6101e76103ff366004613921565b6128c9565b61040c6129ed565b6035546001600160a01b031660005b828110156104bb5773__$aff65fd79c80fa4aba4832675f751dc091$__63df59b8b28386868581811061045057610450613b5e565b90506020028101906104629190613b74565b6040518363ffffffff1660e01b815260040161047f929190613c0b565b60006040518083038186803b15801561049757600080fd5b505af41580156104ab573d6000803e3d6000fd5b50506001909201915061041b9050565b50505050565b6104c9612b6f565b60355460405163c44b11f760e01b81526001600160a01b038481166004830152600092169063c44b11f790602401602060405180830381865afa158015610514573d6000803e3d6000fd5b505050506040513d601f19601f820116820180604052508101906105389190613f0b565b805190915060b01c640fffffffff166105518284612cee565b60355460405163f51e435b60e01b81526001600160a01b039091169063f51e435b906105839087908690600401613f27565b600060405180830381600087803b15801561059d57600080fd5b505af11580156105b1573d6000803e3d6000fd5b505060408051848152602081018790526001600160a01b03881693507f09808b1fc5abde94edf02fdde393bea0d2e4795999ba31695472848638b5c29f9250015b60405180910390a250505050565b610608612b6f565b6035546040516335ea6a7560e01b81526001600160a01b03848116600483015260009216906335ea6a75906024016101e060405180830381865afa158015610654573d6000803e3d6000fd5b505050506040513d601f19601f820116820180604052508101906106789190613f77565b610160810151603554604051631d2118f960e01b81526001600160a01b038781166004830152868116602483015293945091921690631d2118f990604401600060405180830381600087803b1580156106d057600080fd5b505af11580156106e4573d6000803e3d6000fd5b5050604080516001600160a01b0385811682528781166020830152881693507fdb8dada53709ce4988154324196790c2e4a60c377e1256790946f83b87db3c339250016105f2565b610734612d46565b604080518082019091526002815261313960f01b60208201526127106001600160801b03831611156107825760405162461bcd60e51b815260040161077991906140ea565b60405180910390fd5b506035546040805163354ce01b60e11b815290516000926001600160a01b031691636a99c0369160048083019260209291908290030181865afa1580156107cd573d6000803e3d6000fd5b505050506040513d601f19601f820116820180604052508101906107f191906140fd565b6035546040805163074b2e4360e01b815290519293506001600160a01b039091169163bcb6e52291839163074b2e43916004808201926020929091908290030181865afa158015610846573d6000803e3d6000fd5b505050506040513d601f19601f8201168201806040525081019061086a91906140fd565b6040516001600160e01b031960e084901b1681526001600160801b0391821660048201529085166024820152604401600060405180830381600087803b1580156108b357600080fd5b505af11580156108c7573d6000803e3d6000fd5b5050604080516001600160801b038086168252861660208201527fe7e0c75e1fc2d0bd83dc85d59f085b3e763107c392fb368e85572b292f1f557693500190505b60405180910390a15050565b61091c612b6f565b604080518082019091526002815261037360f41b60208201526127108211156109585760405162461bcd60e51b815260040161077991906140ea565b5060355460405163c44b11f760e01b81526001600160a01b038481166004830152600092169063c44b11f790602401602060405180830381865afa1580156109a4573d6000803e3d6000fd5b505050506040513d601f19601f820116820180604052508101906109c89190613f0b565b805190915060981c61ffff166109de8284612e57565b60355460405163f51e435b60e01b81526001600160a01b039091169063f51e435b90610a109087908690600401613f27565b600060405180830381600087803b158015610a2a57600080fd5b505af1158015610a3e573d6000803e3d6000fd5b505060408051848152602081018790526001600160a01b03881693507fb5b0a963825337808b6e3154de8e98027595a5cad4219bb3a9bc55b192f4b3919250016105f2565b610a8b612d46565b604080518082019091526002815261191960f11b6020820152612710821115610ac75760405162461bcd60e51b815260040161077991906140ea565b5060355460408051631396c83960e11b815290516000926001600160a01b03169163272d90729160048083019260209291908290030181865afa158015610b12573d6000803e3d6000fd5b505050506040513d601f19601f82011682018060405250810190610b36919061411a565b603554604051633036b43960e01b8152600481018590529192506001600160a01b031690633036b43990602401600060405180830381600087803b158015610b7d57600080fd5b505af1158015610b91573d6000803e3d6000fd5b505060408051848152602081018690527f30b17cb587a89089d003457c432f73e22aeee93de425e92224ba01080260ecd99350019050610908565b610bd4612b6f565b60355460405163c44b11f760e01b81526001600160a01b038481166004830152600092169063c44b11f790602401602060405180830381865afa158015610c1f573d6000803e3d6000fd5b505050506040513d601f19601f82011682018060405250810190610c439190613f0b565b9050610c4f8183612ea9565b60355460405163f51e435b60e01b81526001600160a01b039091169063f51e435b90610c819086908590600401613f27565b600060405180830381600087803b158015610c9b57600080fd5b505af1158015610caf573d6000803e3d6000fd5b5050604080516001600160a01b038716815285151560208201527f74adf6aaf58c08bc4f993640385e136522375ea3d1589a10d02adbb906c67d1c935001905060405180910390a1505050565b610d04612ed7565b60355460405163c44b11f760e01b81526001600160a01b038481166004830152600092169063c44b11f790602401602060405180830381865afa158015610d4f573d6000803e3d6000fd5b505050506040513d601f19601f82011682018060405250810190610d739190613f0b565b9050610d7f8183613056565b60355460405163f51e435b60e01b81526001600160a01b039091169063f51e435b90610db19086908590600401613f27565b600060405180830381600087803b158015610dcb57600080fd5b505af1158015610ddf573d6000803e3d6000fd5b50505050826001600160a01b03167fe188d542a5f11925d3a3af33703cdd30a43cb3e8066a3cf68b1b57f61a5a94b583604051610e20911515815260200190565b60405180910390a2505050565b610e35612b6f565b604080518082019091526002815261363760f01b6020820152612710821115610e715760405162461bcd60e51b815260040161077991906140ea565b5060355460405163c44b11f760e01b81526001600160a01b038481166004830152600092169063c44b11f790602401602060405180830381865afa158015610ebd573d6000803e3d6000fd5b505050506040513d601f19601f82011682018060405250810190610ee19190613f0b565b805190915060401c61ffff16610ef78284613084565b60355460405163f51e435b60e01b81526001600160a01b039091169063f51e435b90610f299087908690600401613f27565b600060405180830381600087803b158015610f4357600080fd5b505af1158015610f57573d6000803e3d6000fd5b505060408051848152602081018790526001600160a01b03881693507fb46e2b82b0c2cf3d7d9dece53635e165c53e0eaa7a44f904d61a2b7174826aef9250016105f2565b610fa4612b6f565b60355460405163c44b11f760e01b81526001600160a01b038481166004830152600092169063c44b11f790602401602060405180830381865afa158015610fef573d6000803e3d6000fd5b505050506040513d601f19601f820116820180604052508101906110139190613f0b565b805190915060741c640fffffffff1661102c82846130db565b60355460405163f51e435b60e01b81526001600160a01b039091169063f51e435b9061105e9087908690600401613f27565b600060405180830381600087803b15801561107857600080fd5b505af115801561108c573d6000803e3d6000fd5b505060408051848152602081018790526001600160a01b03881693507f0263602682188540a2d633561c0b4453b7d8566285e99f9f6018b8ef2facef499250016105f2565b6110d9612d46565b60355460405163031e4dc360e51b81526001600160a01b038381166004830152909116906363c9b86090602401600060405180830381600087803b15801561112057600080fd5b505af1158015611134573d6000803e3d6000fd5b50506040516001600160a01b03841692507feeec4c06f7adad215cbdb4d2960896c83c26aedce02dde76d36fa28588d62da49150600090a250565b611177612b6f565b60355460405163c44b11f760e01b81526001600160a01b038481166004830152600092169063c44b11f790602401602060405180830381865afa1580156111c2573d6000803e3d6000fd5b505050506040513d601f19601f820116820180604052508101906111e69190613f0b565b905081611233578051604080518082019091526002815261070760f31b60208201529067080000000000000016156112315760405162461bcd60e51b815260040161077991906140ea565b505b61123d8183613133565b60355460405163f51e435b60e01b81526001600160a01b039091169063f51e435b9061126f9086908590600401613f27565b600060405180830381600087803b15801561128957600080fd5b505af115801561129d573d6000803e3d6000fd5b50505050826001600160a01b03167f2443ba28e8d1d88d531a3d90b981816a4f3b3c7f1fd4085c6029e81d1b7a570d83604051610e20911515815260200190565b6112e6612d46565b603554604051630f5b50e760e41b815273__$aff65fd79c80fa4aba4832675f751dc091$__9163f5b50e709161132a916001600160a01b0316908590600401614133565b60006040518083038186803b15801561134257600080fd5b505af4158015611356573d6000803e3d6000fd5b5050505050565b611365613161565b603554604080516334651b6f60e21b815290516000926001600160a01b03169163d1946dbc91600480830192869291908290030181865afa1580156113ae573d6000803e3d6000fd5b505050506040513d6000823e601f3d908101601f191682016040526113d69190810190614201565b905060005b81518110156114425760006001600160a01b031682828151811061140157611401613b5e565b60200260200101516001600160a01b03161461143a5761143a82828151811061142c5761142c613b5e565b602002602001015184610cfc565b6001016113db565b505050565b61144f612b6f565b604080518082019091526002815261032360f41b6020820152828411156114895760405162461bcd60e51b815260040161077991906140ea565b5060355460405163c44b11f760e01b81526001600160a01b038681166004830152600092169063c44b11f790602401602060405180830381865afa1580156114d5573d6000803e3d6000fd5b505050506040513d601f19601f820116820180604052508101906114f99190613f0b565b9050821561158b57604080518082019091526002815261032360f41b6020820152612710831161153c5760405162461bcd60e51b815260040161077991906140ea565b5061271061154a8484613272565b111560405180604001604052806002815260200161032360f41b815250906115855760405162461bcd60e51b815260040161077991906140ea565b506115cd565b604080518082019091526002815261032360f41b602082015282156115c35760405162461bcd60e51b815260040161077991906140ea565b506115cd85613298565b6115d781856133d4565b6115e1818461341d565b6115eb818361346e565b60355460405163f51e435b60e01b81526001600160a01b039091169063f51e435b9061161d9088908590600401613f27565b600060405180830381600087803b15801561163757600080fd5b505af115801561164b573d6000803e3d6000fd5b505060408051878152602081018790529081018590526001600160a01b03881692507f637febbda9275aea2e85c0ff690444c8d87eb2e8339bbede9715abcc89cb0995915060600160405180910390a25050505050565b6116aa612d46565b604080518082019091526002815261313960f01b60208201526127106001600160801b03831611156116ef5760405162461bcd60e51b815260040161077991906140ea565b506035546040805163074b2e4360e01b815290516000926001600160a01b03169163074b2e439160048083019260209291908290030181865afa15801561173a573d6000803e3d6000fd5b505050506040513d601f19601f8201168201806040525081019061175e91906140fd565b6035546040805163354ce01b60e11b815290519293506001600160a01b039091169163bcb6e5229185918491636a99c0369160048083019260209291908290030181865afa1580156117b4573d6000803e3d6000fd5b505050506040513d601f19601f820116820180604052508101906117d891906140fd565b6040516001600160e01b031960e085901b1681526001600160801b03928316600482015291166024820152604401600060405180830381600087803b15801561182057600080fd5b505af1158015611834573d6000803e3d6000fd5b5050604080516001600160801b038086168252861660208201527f71aba182c9d0529b516de7a78bed74d49c207ef7e152f52f7ea5d8730138f6439350019050610908565b611881612b6f565b60355460405163c44b11f760e01b81526001600160a01b038481166004830152600092169063c44b11f790602401602060405180830381865afa1580156118cc573d6000803e3d6000fd5b505050506040513d601f19601f820116820180604052508101906118f09190613f0b565b9050811561194157805167040000000000000016151560405180604001604052806002815260200161033360f41b8152509061193f5760405162461bcd60e51b815260040161077991906140ea565b505b61194b81836134c1565b60355460405163f51e435b60e01b81526001600160a01b039091169063f51e435b9061197d9086908590600401613f27565b600060405180830381600087803b15801561199757600080fd5b505af11580156119ab573d6000803e3d6000fd5b50505050826001600160a01b03167f0b64d0941719acd363f1a6be3d8525d8ec9d71738f7445aabcd88d7939b472e783604051610e20911515815260200190565b6119f4612b6f565b60355460405163c44b11f760e01b81526001600160a01b038481166004830152600092169063c44b11f790602401602060405180830381865afa158015611a3f573d6000803e3d6000fd5b505050506040513d601f19601f82011682018060405250810190611a639190613f0b565b9050611a6f81836134ef565b60355460405163f51e435b60e01b81526001600160a01b039091169063f51e435b90611aa19086908590600401613f27565b600060405180830381600087803b158015611abb57600080fd5b505af1158015611acf573d6000803e3d6000fd5b50505050826001600160a01b03167f0c4443d258a350d27dc50c378b2ebf165e6469725f786d21b30cab16823f558783604051610e20911515815260200190565b611b18612b6f565b8015611b2757611b278261351d565b60355460405163c44b11f760e01b81526001600160a01b038481166004830152600092169063c44b11f790602401602060405180830381865afa158015611b72573d6000803e3d6000fd5b505050506040513d601f19601f82011682018060405250810190611b969190613f0b565b90506000611bae825167400000000000000016151590565b9050611bba8284613632565b60355460405163f51e435b60e01b81526001600160a01b039091169063f51e435b90611bec9087908690600401613f27565b600060405180830381600087803b158015611c0657600080fd5b505af1158015611c1a573d6000803e3d6000fd5b505060408051841515815286151560208201526001600160a01b03881693507f842a280b07e8e502a9101f32a3b768ebaba3655556dd674f0831900861fc674b9250016105f2565b611c6a612d46565b60355460405163b0f0935560e01b815273__$aff65fd79c80fa4aba4832675f751dc091$__9163b0f093559161132a916001600160a01b0316908590600401614133565b611cb6612b6f565b60355460405163c44b11f760e01b81526001600160a01b038481166004830152600092169063c44b11f790602401602060405180830381865afa158015611d01573d6000803e3d6000fd5b505050506040513d601f19601f82011682018060405250810190611d259190613f0b565b805190915060009060d41c64ffffffffff16905080600003611d4a57611d4a84613298565b611d548284613660565b60355460405163f51e435b60e01b81526001600160a01b039091169063f51e435b90611d869087908690600401613f27565b600060405180830381600087803b158015611da057600080fd5b505af1158015611db4573d6000803e3d6000fd5b5050505082600003611e205760355460405163e43e88a160e01b81526001600160a01b0386811660048301529091169063e43e88a190602401600060405180830381600087803b158015611e0757600080fd5b505af1158015611e1b573d6000803e3d6000fd5b505050505b60408051828152602081018590526001600160a01b038616917f6824a6c7fbc10d2979b1f1ccf2dd4ed0436541679a661dedb5c10bd4be83068291016105f2565b611e69612d46565b80611e7757611e7782613298565b60355460405163c44b11f760e01b81526001600160a01b038481166004830152600092169063c44b11f790602401602060405180830381865afa158015611ec2573d6000803e3d6000fd5b505050506040513d601f19601f82011682018060405250810190611ee69190613f0b565b9050611ef281836136bb565b60355460405163f51e435b60e01b81526001600160a01b039091169063f51e435b90611f249086908590600401613f27565b600060405180830381600087803b158015611f3e57600080fd5b505af1158015611f52573d6000803e3d6000fd5b50505050826001600160a01b03167fc36c7d11ba01a5869d52aa4a3781939dab851cbc9ee6e7fdcedc7d58898a3f1e83604051610e20911515815260200190565b611f9b612d46565b60355460405163162792d560e31b815273__$aff65fd79c80fa4aba4832675f751dc091$__9163b13c96a89161132a916001600160a01b03169085906004016142b3565b611fe7612b6f565b604080518082019091526002815261323160f01b602082015261ffff87166120225760405162461bcd60e51b815260040161077991906140ea565b50604080518082019091526002815261323160f01b602082015261ffff861661205e5760405162461bcd60e51b815260040161077991906140ea565b508461ffff168661ffff16111560405180604001604052806002815260200161323160f01b815250906120a45760405162461bcd60e51b815260040161077991906140ea565b50604080518082019091526002815261323160f01b602082015261271061ffff8616116120e45760405162461bcd60e51b815260040161077991906140ea565b506127106120f961ffff878116908716613272565b111560405180604001604052806002815260200161323160f01b815250906121345760405162461bcd60e51b815260040161077991906140ea565b50603554604080516334651b6f60e21b815290516000926001600160a01b03169163d1946dbc91600480830192869291908290030181865afa15801561217e573d6000803e3d6000fd5b505050506040513d6000823e601f3d908101601f191682016040526121a69190810190614201565b905060005b81518110156122ff5760355482516000916001600160a01b03169063c44b11f7908590859081106121de576121de613b5e565b60200260200101516040518263ffffffff1660e01b815260040161221191906001600160a01b0391909116815260200190565b602060405180830381865afa15801561222e573d6000803e3d6000fd5b505050506040513d601f19601f820116820180604052508101906122529190613f0b565b805190915060a81c60ff168a60ff16036122f657805161ffff168961ffff161160405180604001604052806002815260200161323160f01b815250906122ab5760405162461bcd60e51b815260040161077991906140ea565b50805160101c61ffff168861ffff161160405180604001604052806002815260200161323160f01b815250906122f45760405162461bcd60e51b815260040161077991906140ea565b505b506001016121ab565b50603560009054906101000a90046001600160a01b03166001600160a01b031663d579ea7d896040518060a001604052808b61ffff1681526020018a61ffff1681526020018961ffff168152602001886001600160a01b0316815260200187878080601f01602080910402602001604051908101604052809392919081815260200183838082843760009201919091525050509152506040516001600160e01b031960e085901b1681526123b79291906004016143a1565b600060405180830381600087803b1580156123d157600080fd5b505af11580156123e5573d6000803e3d6000fd5b505050508760ff167f0acf8b4a3cace10779798a89a206a0ae73a71b63acdd3be2801d39c2ef7ab3cb88888888888860405161242696959493929190614409565b60405180910390a25050505050505050565b6001805460ff16806124495750303b155b80612455575060005481115b6124b85760405162461bcd60e51b815260206004820152602e60248201527f436f6e747261637420696e7374616e63652068617320616c726561647920626560448201526d195b881a5b9a5d1a585b1a5e995960921b6064820152608401610779565b60015460ff161580156124d7576001805460ff19168117905560008290555b603480546001600160a01b0319166001600160a01b0385169081179091556040805163026b1d5f60e01b8152905163026b1d5f916004808201926020929091908290030181865afa158015612530573d6000803e3d6000fd5b505050506040513d601f19601f820116820180604052508101906125549190614448565b603580546001600160a01b0319166001600160a01b03929092169190911790558015611442576001805460ff19169055505050565b612591612b6f565b60355460405163c44b11f760e01b81526001600160a01b038481166004830152600092169063c44b11f790602401602060405180830381865afa1580156125dc573d6000803e3d6000fd5b505050506040513d601f19601f820116820180604052508101906126009190613f0b565b805190915060501c640fffffffff1661261982846136e9565b60355460405163f51e435b60e01b81526001600160a01b039091169063f51e435b9061264b9087908690600401613f27565b600060405180830381600087803b15801561266557600080fd5b505af1158015612679573d6000803e3d6000fd5b505060408051848152602081018790526001600160a01b03881693507fc51aca575985d521c5072ad11549bad77013bb786d57f30f94b40ed8f8dc9bc49250016105f2565b6126c6612b6f565b60355460405163c44b11f760e01b81526001600160a01b038481166004830152600092169063c44b11f790602401602060405180830381865afa158015612711573d6000803e3d6000fd5b505050506040513d601f19601f820116820180604052508101906127359190613f0b565b905060ff82161561280657603554604051636c6f6ae160e01b815260ff841660048201526000916001600160a01b031690636c6f6ae190602401600060405180830381865afa15801561278c573d6000803e3d6000fd5b505050506040513d6000823e601f3d908101601f191682016040526127b49190810190614465565b825190915060101c61ffff16816020015161ffff161160405180604001604052806002815260200161313760f01b815250906128035760405162461bcd60e51b815260040161077991906140ea565b50505b805160009060a81c60ff1690506128208260ff8516613741565b60355460405163f51e435b60e01b81526001600160a01b039091169063f51e435b906128529087908690600401613f27565b600060405180830381600087803b15801561286c57600080fd5b505af1158015612880573d6000803e3d6000fd5b50506040805160ff8086168252871660208201526001600160a01b03881693507f5bb69795b6a2ea222d73a5f8939c23471a1f85a99c7ca43c207f1b71f10c62649250016105f2565b6128d1612b6f565b60355460405163c44b11f760e01b81526001600160a01b038481166004830152600092169063c44b11f790602401602060405180830381865afa15801561291c573d6000803e3d6000fd5b505050506040513d601f19601f820116820180604052508101906129409190613f0b565b905061294c8183613791565b60355460405163f51e435b60e01b81526001600160a01b039091169063f51e435b9061297e9086908590600401613f27565b600060405180830381600087803b15801561299857600080fd5b505af11580156129ac573d6000803e3d6000fd5b50505050826001600160a01b03167fc8ff3cc5b0fddaa3e6ebbbd7438f43393e4ea30e88b80ad016c1bc094655034d83604051610e20911515815260200190565b6034546040805163383e6b8b60e11b815290516000926001600160a01b03169163707cd7169160048083019260209291908290030181865afa158015612a37573d6000803e3d6000fd5b505050506040513d601f19601f82011682018060405250810190612a5b9190614448565b604051629f719760e51b81523360048201529091506001600160a01b038216906313ee32e090602401602060405180830381865afa158015612aa1573d6000803e3d6000fd5b505050506040513d601f19601f82011682018060405250810190612ac59190614572565b80612b335750604051637be53ca160e01b81523360048201526001600160a01b03821690637be53ca190602401602060405180830381865afa158015612b0f573d6000803e3d6000fd5b505050506040513d601f19601f82011682018060405250810190612b339190614572565b604051806040016040528060018152602001603560f81b81525090612b6b5760405162461bcd60e51b815260040161077991906140ea565b5050565b6034546040805163383e6b8b60e11b815290516000926001600160a01b03169163707cd7169160048083019260209291908290030181865afa158015612bb9573d6000803e3d6000fd5b505050506040513d601f19601f82011682018060405250810190612bdd9190614448565b60405163674b5e4d60e01b81523360048201529091506001600160a01b0382169063674b5e4d90602401602060405180830381865afa158015612c24573d6000803e3d6000fd5b505050506040513d601f19601f82011682018060405250810190612c489190614572565b80612cb65750604051637be53ca160e01b81523360048201526001600160a01b03821690637be53ca190602401602060405180830381865afa158015612c92573d6000803e3d6000fd5b505050506040513d601f19601f82011682018060405250810190612cb69190614572565b604051806040016040528060018152602001600d60fa1b81525090612b6b5760405162461bcd60e51b815260040161077991906140ea565b6040805180820190915260028152611b9960f11b6020820152640fffffffff821115612d2d5760405162461bcd60e51b815260040161077991906140ea565b508151640fffffffff60b01b191660b09190911b179052565b6034546040805163383e6b8b60e11b815290516000926001600160a01b03169163707cd7169160048083019260209291908290030181865afa158015612d90573d6000803e3d6000fd5b505050506040513d601f19601f82011682018060405250810190612db49190614448565b604051637be53ca160e01b81523360048201529091506001600160a01b03821690637be53ca190602401602060405180830381865afa158015612dfb573d6000803e3d6000fd5b505050506040513d601f19601f82011682018060405250810190612e1f9190614572565b604051806040016040528060018152602001603160f81b81525090612b6b5760405162461bcd60e51b815260040161077991906140ea565b604080518082019091526002815261037360f41b602082015261ffff821115612e935760405162461bcd60e51b815260040161077991906140ea565b50815161ffff60981b191660989190911b179052565b603d81612eb7576000612eba565b60015b8351672000000000000000191660ff9190911690911b1790915250565b6034546040805163383e6b8b60e11b815290516000926001600160a01b03169163707cd7169160048083019260209291908290030181865afa158015612f21573d6000803e3d6000fd5b505050506040513d601f19601f82011682018060405250810190612f459190614448565b604051637be53ca160e01b81523360048201529091506001600160a01b03821690637be53ca190602401602060405180830381865afa158015612f8c573d6000803e3d6000fd5b505050506040513d601f19601f82011682018060405250810190612fb09190614572565b8061301e5750604051631280795b60e11b81523360048201526001600160a01b03821690632500f2b690602401602060405180830381865afa158015612ffa573d6000803e3d6000fd5b505050506040513d601f19601f8201168201806040525081019061301e9190614572565b604051806040016040528060018152602001603360f81b81525090612b6b5760405162461bcd60e51b815260040161077991906140ea565b603c81613064576000613067565b60015b8351671000000000000000191660ff9190911690911b1790915250565b604080518082019091526002815261363760f01b602082015261ffff8211156130c05760405162461bcd60e51b815260040161077991906140ea565b50815169ffff0000000000000000191660409190911b179052565b604080518082019091526002815261363960f01b6020820152640fffffffff82111561311a5760405162461bcd60e51b815260040161077991906140ea565b508151640fffffffff60741b191660749190911b179052565b603a81613141576000613144565b60015b8351670400000000000000191660ff9190911690911b1790915250565b6034546040805163383e6b8b60e11b815290516000926001600160a01b03169163707cd7169160048083019260209291908290030181865afa1580156131ab573d6000803e3d6000fd5b505050506040513d601f19601f820116820180604052508101906131cf9190614448565b604051631280795b60e11b81523360048201529091506001600160a01b03821690632500f2b690602401602060405180830381865afa158015613216573d6000803e3d6000fd5b505050506040513d601f19601f8201168201806040525081019061323a9190614572565b604051806040016040528060018152602001601960f91b81525090612b6b5760405162461bcd60e51b815260040161077991906140ea565b60008115611388198390048411151761328a57600080fd5b506127109102611388010490565b600080603460009054906101000a90046001600160a01b03166001600160a01b031663e860accb6040518163ffffffff1660e01b8152600401602060405180830381865afa1580156132ee573d6000803e3d6000fd5b505050506040513d601f19601f820116820180604052508101906133129190614448565b6040516335ea6a7560e01b81526001600160a01b03858116600483015291909116906335ea6a759060240161018060405180830381865afa15801561335b573d6000803e3d6000fd5b505050506040513d601f19601f8201168201806040525081019061337f919061458f565b505050505050505050925092505080600014801561339b575081155b60405180604001604052806002815260200161062760f31b815250906104bb5760405162461bcd60e51b815260040161077991906140ea565b604080518082019091526002815261363360f01b602082015261ffff8211156134105760405162461bcd60e51b815260040161077991906140ea565b50815161ffff1916179052565b6040805180820190915260028152610d8d60f21b602082015261ffff8211156134595760405162461bcd60e51b815260040161077991906140ea565b50815163ffff0000191660109190911b179052565b604080518082019091526002815261363560f01b602082015261ffff8211156134aa5760405162461bcd60e51b815260040161077991906140ea565b50815165ffff00000000191660209190911b179052565b603b816134cf5760006134d2565b60015b8351670800000000000000191660ff9190911690911b1790915250565b6039816134fd576000613500565b60015b8351670200000000000000191660ff9190911690911b1790915250565b6034546040805163e860accb60e01b815290516000926001600160a01b03169163e860accb9160048083019260209291908290030181865afa158015613567573d6000803e3d6000fd5b505050506040513d601f19601f8201168201806040525081019061358b9190614448565b604051634d44ac4f60e01b81526001600160a01b0384811660048301529190911690634d44ac4f90602401602060405180830381865afa1580156135d3573d6000803e3d6000fd5b505050506040513d601f19601f820116820180604052508101906135f7919061411a565b604080518082019091526002815261039360f41b602082015290915081156114425760405162461bcd60e51b815260040161077991906140ea565b603e81613640576000613643565b60015b8351674000000000000000191660ff9190911690911b1790915250565b604080518082019091526002815261373360f01b602082015264ffffffffff82111561369f5760405162461bcd60e51b815260040161077991906140ea565b5081516001650f000000000160d41b031660d49190911b179052565b6038816136c95760006136cc565b60015b8351670100000000000000191660ff9190911690911b1790915250565b60408051808201909152600281526106c760f31b6020820152640fffffffff8211156137285760405162461bcd60e51b815260040161077991906140ea565b508151640fffffffff60501b191660509190911b179052565b604080518082019091526002815261373160f01b602082015260ff82111561377c5760405162461bcd60e51b815260040161077991906140ea565b50815160ff60a81b191660a89190911b179052565b603f8161379f5760006137a2565b60015b8351678000000000000000191660ff9190911690911b1790915250565b600080602083850312156137d257600080fd5b823567ffffffffffffffff808211156137ea57600080fd5b818501915085601f8301126137fe57600080fd5b81358181111561380d57600080fd5b8660208260051b850101111561382257600080fd5b60209290920196919550909350505050565b6001600160a01b038116811461384957600080fd5b50565b803561385781613834565b919050565b6000806040838503121561386f57600080fd5b823561387a81613834565b946020939093013593505050565b6000806040838503121561389b57600080fd5b82356138a681613834565b915060208301356138b681613834565b809150509250929050565b6001600160801b038116811461384957600080fd5b6000602082840312156138e857600080fd5b81356138f3816138c1565b9392505050565b60006020828403121561390c57600080fd5b5035919050565b801515811461384957600080fd5b6000806040838503121561393457600080fd5b823561393f81613834565b915060208301356138b681613913565b60006020828403121561396157600080fd5b81356138f381613834565b60006020828403121561397e57600080fd5b813567ffffffffffffffff81111561399557600080fd5b820160c081850312156138f357600080fd5b6000602082840312156139b957600080fd5b81356138f381613913565b600080600080608085870312156139da57600080fd5b84356139e581613834565b966020860135965060408601359560600135945092505050565b600060208284031215613a1157600080fd5b813567ffffffffffffffff811115613a2857600080fd5b820160e081850312156138f357600080fd5b803560ff8116811461385757600080fd5b61ffff8116811461384957600080fd5b600080600080600080600060c0888a031215613a7657600080fd5b613a7f88613a3a565b96506020880135613a8f81613a4b565b95506040880135613a9f81613a4b565b94506060880135613aaf81613a4b565b93506080880135613abf81613834565b925060a088013567ffffffffffffffff80821115613adc57600080fd5b818a0191508a601f830112613af057600080fd5b813581811115613aff57600080fd5b8b6020828501011115613b1157600080fd5b60208301945080935050505092959891949750929550565b60008060408385031215613b3c57600080fd5b8235613b4781613834565b9150613b5560208401613a3a565b90509250929050565b634e487b7160e01b600052603260045260246000fd5b600082356101de19833603018112613b8b57600080fd5b9190910192915050565b6000808335601e19843603018112613bac57600080fd5b830160208101925035905067ffffffffffffffff811115613bcc57600080fd5b803603821315613bdb57600080fd5b9250929050565b81835281816020850137506000828201602090810191909152601f909101601f19169091010190565b6001600160a01b0383168152604060208201819052613c3c908201613c2f8461384c565b6001600160a01b03169052565b6000613c4a6020840161384c565b6001600160a01b03166060830152613c646040840161384c565b6001600160a01b03166080830152613c7e60608401613a3a565b60ff1660a0830152613c926080840161384c565b6001600160a01b031660c0830152613cac60a0840161384c565b6001600160a01b031660e0830152613cc660c0840161384c565b610100613cdd818501836001600160a01b03169052565b613ce960e0860161384c565b9150610120613d02818601846001600160a01b03169052565b613d0e82870187613b95565b935091506101e06101408181880152613d2c61022088018686613be2565b9450613d3a83890189613b95565b94509250603f196101608189880301818a0152613d58878787613be2565b9650613d66838b018b613b95565b9650945061018092508189880301838a0152613d83878787613be2565b9650613d91818b018b613b95565b96509450506101a08189880301818a0152613dad878787613be2565b9650613dbb838b018b613b95565b965094506101c092508189880301838a0152613dd8878787613be2565b9650613de6818b018b613b95565b9650945050808887030183890152613dff868686613be2565b9550613e0d828a018a613b95565b955093508088870301610200890152505050613e2a838383613be2565b979650505050505050565b634e487b7160e01b600052604160045260246000fd5b6040516101e0810167ffffffffffffffff81118282101715613e6f57613e6f613e35565b60405290565b60405160a0810167ffffffffffffffff81118282101715613e6f57613e6f613e35565b604051601f8201601f1916810167ffffffffffffffff81118282101715613ec157613ec1613e35565b604052919050565b600060208284031215613edb57600080fd5b6040516020810181811067ffffffffffffffff82111715613efe57613efe613e35565b6040529151825250919050565b600060208284031215613f1d57600080fd5b6138f38383613ec9565b6001600160a01b0392909216825251602082015260400190565b8051613857816138c1565b805164ffffffffff8116811461385757600080fd5b805161385781613a4b565b805161385781613834565b60006101e08284031215613f8a57600080fd5b613f92613e4b565b613f9c8484613ec9565b8152613faa60208401613f41565b6020820152613fbb60408401613f41565b6040820152613fcc60608401613f41565b6060820152613fdd60808401613f41565b6080820152613fee60a08401613f41565b60a0820152613fff60c08401613f4c565b60c082015261401060e08401613f61565b60e0820152610100614023818501613f6c565b90820152610120614035848201613f6c565b90820152610140614047848201613f6c565b90820152610160614059848201613f6c565b9082015261018061406b848201613f41565b908201526101a061407d848201613f41565b908201526101c061408f848201613f41565b908201529392505050565b60005b838110156140b557818101518382015260200161409d565b50506000910152565b600081518084526140d681602086016020860161409a565b601f01601f19169290920160200192915050565b6020815260006138f360208301846140be565b60006020828403121561410f57600080fd5b81516138f3816138c1565b60006020828403121561412c57600080fd5b5051919050565b6001600160a01b03838116825260406020830152600090833561415581613834565b81166040840152602084013561416a81613834565b16606083015261417d6040840184613b95565b60c0608085015261419361010085018284613be2565b9150506141a36060850185613b95565b603f19808685030160a08701526141bb848385613be2565b93506141c96080880161384c565b6001600160a01b03811660c088015292506141e760a0880188613b95565b93509150808685030160e087015250613e2a838383613be2565b6000602080838503121561421457600080fd5b825167ffffffffffffffff8082111561422c57600080fd5b818501915085601f83011261424057600080fd5b81518181111561425257614252613e35565b8060051b9150614263848301613e98565b818152918301840191848101908884111561427d57600080fd5b938501935b838510156142a7578451925061429783613834565b8282529385019390850190614282565b98975050505050505050565b6001600160a01b0383811682526040602083015260009083356142d581613834565b1660408301526142e76020840161384c565b6001600160a01b031660608301526143016040840161384c565b6001600160a01b0316608083015261431c6060840184613b95565b60e060a085015261433261012085018284613be2565b9150506143426080850185613b95565b603f19808685030160c087015261435a848385613be2565b935061436860a0880161384c565b6001600160a01b03811660e0880152925061438660c0880188613b95565b93509150808685030161010087015250613e2a838383613be2565b60ff8316815260406020820152600061ffff8084511660408401528060208501511660608401528060408501511660808401525060018060a01b0360608401511660a0830152608083015160a060c084015261440060e08401826140be565b95945050505050565b61ffff87811682528681166020830152851660408201526001600160a01b038416606082015260a0608082018190526000906142a79083018486613be2565b60006020828403121561445a57600080fd5b81516138f381613834565b6000602080838503121561447857600080fd5b825167ffffffffffffffff8082111561449057600080fd5b9084019060a082870312156144a457600080fd5b6144ac613e75565b82516144b781613a4b565b8152828401516144c681613a4b565b8185015260408301516144d881613a4b565b604082015260608301516144eb81613834565b606082015260808301518281111561450257600080fd5b80840193505086601f84011261451757600080fd5b82518281111561452957614529613e35565b61453b601f8201601f19168601613e98565b9250808352878582860101111561455157600080fd5b6145608186850187870161409a565b50608081019190915295945050505050565b60006020828403121561458457600080fd5b81516138f381613913565b6000806000806000806000806000806000806101808d8f0312156145b257600080fd5b8c519b5060208d01519a5060408d0151995060608d0151985060808d0151975060a08d0151965060c08d0151955060e08d015194506101008d015193506101208d015192506101408d0151915061460c6101608e01613f4c565b90509295989b509295989b509295989b56fea2646970667358221220cbcf07e59bbab81c7da55a3f86bf46b756222ce5c4e81bd6d37a0325e3dfac7b64736f6c63430008160033",
  "libraries": {
    "ConfiguratorLogic": "0xf32981b94fb18D0eFde40647b76CD24310cef513"
  },
  "devdoc": {
    "author": "Aave",
    "details": "Implements the configuration methods for the Aave protocol",
    "events": {
      "ATokenUpgraded(address,address,address)": {
        "details": "Emitted when an aToken implementation is upgraded.",
        "params": {
          "asset": "The address of the underlying asset of the reserve",
          "implementation": "The new aToken implementation",
          "proxy": "The aToken proxy address"
        }
      },
      "BorrowCapChanged(address,uint256,uint256)": {
        "details": "Emitted when the borrow cap of a reserve is updated.",
        "params": {
          "asset": "The address of the underlying asset of the reserve",
          "newBorrowCap": "The new borrow cap",
          "oldBorrowCap": "The old borrow cap"
        }
      },
      "BorrowableInIsolationChanged(address,bool)": {
        "details": "Emitted when the reserve is set as borrowable/non borrowable in isolation mode.",
        "params": {
          "asset": "The address of the underlying asset of the reserve",
          "borrowable": "True if the reserve is borrowable in isolation, false otherwise"
        }
      },
      "BridgeProtocolFeeUpdated(uint256,uint256)": {
        "details": "Emitted when the bridge protocol fee is updated.",
        "params": {
          "newBridgeProtocolFee": "The new protocol fee, expressed in bps",
          "oldBridgeProtocolFee": "The old protocol fee, expressed in bps"
        }
      },
      "CollateralConfigurationChanged(address,uint256,uint256,uint256)": {
        "details": "Emitted when the collateralization risk parameters for the specified asset are updated.",
        "params": {
          "asset": "The address of the underlying asset of the reserve",
          "liquidationBonus": "The bonus liquidators receive to liquidate this asset",
          "liquidationThreshold": "The threshold at which loans using this asset as collateral will be considered undercollateralized",
          "ltv": "The loan to value of the asset when used as collateral"
        }
      },
      "DebtCeilingChanged(address,uint256,uint256)": {
        "details": "Emitted when the debt ceiling of an asset is set.",
        "params": {
          "asset": "The address of the underlying asset of the reserve",
          "newDebtCeiling": "The new debt ceiling",
          "oldDebtCeiling": "The old debt ceiling"
        }
      },
      "EModeAssetCategoryChanged(address,uint8,uint8)": {
        "details": "Emitted when the category of an asset in eMode is changed.",
        "params": {
          "asset": "The address of the underlying asset of the reserve",
          "newCategoryId": "The new eMode asset category",
          "oldCategoryId": "The old eMode asset category"
        }
      },
      "EModeCategoryAdded(uint8,uint256,uint256,uint256,address,string)": {
        "details": "Emitted when a new eMode category is added.",
        "params": {
          "categoryId": "The new eMode category id",
          "label": "A human readable identifier for the category",
          "liquidationBonus": "The liquidationBonus for the asset category in eMode",
          "liquidationThreshold": "The liquidationThreshold for the asset category in eMode",
          "ltv": "The ltv for the asset category in eMode",
          "oracle": "The optional address of the price oracle specific for this category"
        }
      },
      "FlashloanPremiumToProtocolUpdated(uint128,uint128)": {
        "details": "Emitted when the part of the premium that goes to protocol is updated.",
        "params": {
          "newFlashloanPremiumToProtocol": "The new premium, expressed in bps",
          "oldFlashloanPremiumToProtocol": "The old premium, expressed in bps"
        }
      },
      "FlashloanPremiumTotalUpdated(uint128,uint128)": {
        "details": "Emitted when the total premium on flashloans is updated.",
        "params": {
          "newFlashloanPremiumTotal": "The new premium, expressed in bps",
          "oldFlashloanPremiumTotal": "The old premium, expressed in bps"
        }
      },
      "LiquidationProtocolFeeChanged(address,uint256,uint256)": {
        "details": "Emitted when the liquidation protocol fee of a reserve is updated.",
        "params": {
          "asset": "The address of the underlying asset of the reserve",
          "newFee": "The new liquidation protocol fee, expressed in bps",
          "oldFee": "The old liquidation protocol fee, expressed in bps"
        }
      },
      "ReserveActive(address,bool)": {
        "details": "Emitted when a reserve is activated or deactivated",
        "params": {
          "active": "True if reserve is active, false otherwise",
          "asset": "The address of the underlying asset of the reserve"
        }
      },
      "ReserveBorrowing(address,bool)": {
        "details": "Emitted when borrowing is enabled or disabled on a reserve.",
        "params": {
          "asset": "The address of the underlying asset of the reserve",
          "enabled": "True if borrowing is enabled, false otherwise"
        }
      },
      "ReserveDropped(address)": {
        "details": "Emitted when a reserve is dropped.",
        "params": {
          "asset": "The address of the underlying asset of the reserve"
        }
      },
      "ReserveFactorChanged(address,uint256,uint256)": {
        "details": "Emitted when a reserve factor is updated.",
        "params": {
          "asset": "The address of the underlying asset of the reserve",
          "newReserveFactor": "The new reserve factor, expressed in bps",
          "oldReserveFactor": "The old reserve factor, expressed in bps"
        }
      },
      "ReserveFlashLoaning(address,bool)": {
        "details": "Emitted when flashloans are enabled or disabled on a reserve.",
        "params": {
          "asset": "The address of the underlying asset of the reserve",
          "enabled": "True if flashloans are enabled, false otherwise"
        }
      },
      "ReserveFrozen(address,bool)": {
        "details": "Emitted when a reserve is frozen or unfrozen",
        "params": {
          "asset": "The address of the underlying asset of the reserve",
          "frozen": "True if reserve is frozen, false otherwise"
        }
      },
      "ReserveInitialized(address,address,address,address,address)": {
        "details": "Emitted when a reserve is initialized.",
        "params": {
          "aToken": "The address of the associated aToken contract",
          "asset": "The address of the underlying asset of the reserve",
          "interestRateStrategyAddress": "The address of the interest rate strategy for the reserve",
          "stableDebtToken": "The address of the associated stable rate debt token",
          "variableDebtToken": "The address of the associated variable rate debt token"
        }
      },
      "ReserveInterestRateStrategyChanged(address,address,address)": {
        "details": "Emitted when a reserve interest strategy contract is updated.",
        "params": {
          "asset": "The address of the underlying asset of the reserve",
          "newStrategy": "The address of the new interest strategy contract",
          "oldStrategy": "The address of the old interest strategy contract"
        }
      },
      "ReservePaused(address,bool)": {
        "details": "Emitted when a reserve is paused or unpaused",
        "params": {
          "asset": "The address of the underlying asset of the reserve",
          "paused": "True if reserve is paused, false otherwise"
        }
      },
      "ReserveStableRateBorrowing(address,bool)": {
        "details": "Emitted when stable rate borrowing is enabled or disabled on a reserve",
        "params": {
          "asset": "The address of the underlying asset of the reserve",
          "enabled": "True if stable rate borrowing is enabled, false otherwise"
        }
      },
      "SiloedBorrowingChanged(address,bool,bool)": {
        "details": "Emitted when the the siloed borrowing state for an asset is changed.",
        "params": {
          "asset": "The address of the underlying asset of the reserve",
          "newState": "The new siloed borrowing state",
          "oldState": "The old siloed borrowing state"
        }
      },
      "StableDebtTokenUpgraded(address,address,address)": {
        "details": "Emitted when the implementation of a stable debt token is upgraded.",
        "params": {
          "asset": "The address of the underlying asset of the reserve",
          "implementation": "The new aToken implementation",
          "proxy": "The stable debt token proxy address"
        }
      },
      "SupplyCapChanged(address,uint256,uint256)": {
        "details": "Emitted when the supply cap of a reserve is updated.",
        "params": {
          "asset": "The address of the underlying asset of the reserve",
          "newSupplyCap": "The new supply cap",
          "oldSupplyCap": "The old supply cap"
        }
      },
      "UnbackedMintCapChanged(address,uint256,uint256)": {
        "details": "Emitted when the unbacked mint cap of a reserve is updated.",
        "params": {
          "asset": "The address of the underlying asset of the reserve",
          "newUnbackedMintCap": "The new unbacked mint cap",
          "oldUnbackedMintCap": "The old unbacked mint cap"
        }
      },
      "VariableDebtTokenUpgraded(address,address,address)": {
        "details": "Emitted when the implementation of a variable debt token is upgraded.",
        "params": {
          "asset": "The address of the underlying asset of the reserve",
          "implementation": "The new aToken implementation",
          "proxy": "The variable debt token proxy address"
        }
      }
    },
    "kind": "dev",
    "methods": {
      "configureReserveAsCollateral(address,uint256,uint256,uint256)": {
        "details": "All the values are expressed in bps. A value of 10000, results in 100.00%The `liquidationBonus` is always above 100%. A value of 105% means the liquidator will receive a 5% bonus",
        "params": {
          "asset": "The address of the underlying asset of the reserve",
          "liquidationBonus": "The bonus liquidators receive to liquidate this asset",
          "liquidationThreshold": "The threshold at which loans using this asset as collateral will be considered undercollateralized",
          "ltv": "The loan to value of the asset when used as collateral"
        }
      },
      "dropReserve(address)": {
        "params": {
          "asset": "The address of the reserve to drop"
        }
      },
      "initReserves((address,address,address,uint8,address,address,address,address,string,string,string,string,string,string,bytes)[])": {
        "params": {
          "input": "The array of initialization parameters"
        }
      },
      "setAssetEModeCategory(address,uint8)": {
        "params": {
          "asset": "The address of the underlying asset of the reserve",
          "newCategoryId": "The new category id of the asset"
        }
      },
      "setBorrowCap(address,uint256)": {
        "params": {
          "asset": "The address of the underlying asset of the reserve",
          "newBorrowCap": "The new borrow cap of the reserve"
        }
      },
      "setBorrowableInIsolation(address,bool)": {
        "details": "When this flag is set to true, the asset will be borrowable against isolated collaterals and the borrowed amount will be accumulated in the isolated collateral's total debt exposureOnly assets of the same family (e.g. USD stablecoins) should be borrowable in isolation mode to keep consistency in the debt ceiling calculations",
        "params": {
          "asset": "The address of the underlying asset of the reserve",
          "borrowable": "True if the asset should be borrowable in isolation, false otherwise"
        }
      },
      "setDebtCeiling(address,uint256)": {
        "params": {
          "newDebtCeiling": "The new debt ceiling"
        }
      },
      "setEModeCategory(uint8,uint16,uint16,uint16,address,string)": {
        "details": "If zero is provided as oracle address, the default asset oracles will be used to compute the overall debt and overcollateralization of the users using this category.The new ltv and liquidation threshold must be greater than the base ltvs and liquidation thresholds of all assets within the eMode category",
        "params": {
          "categoryId": "The id of the category to be configured",
          "label": "A label identifying the category",
          "liquidationBonus": "The liquidation bonus associated with the category",
          "liquidationThreshold": "The liquidation threshold associated with the category",
          "ltv": "The ltv associated with the category",
          "oracle": "The oracle associated with the category"
        }
      },
      "setLiquidationProtocolFee(address,uint256)": {
        "params": {
          "asset": "The address of the underlying asset of the reserve",
          "newFee": "The new liquidation protocol fee of the reserve, expressed in bps"
        }
      },
      "setPoolPause(bool)": {
        "params": {
          "paused": "True if protocol needs to be paused, false otherwise"
        }
      },
      "setReserveActive(address,bool)": {
        "params": {
          "active": "True if the reserve needs to be active, false otherwise",
          "asset": "The address of the underlying asset of the reserve"
        }
      },
      "setReserveBorrowing(address,bool)": {
        "details": "Can only be disabled (set to false) if stable borrowing is disabled",
        "params": {
          "asset": "The address of the underlying asset of the reserve",
          "enabled": "True if borrowing needs to be enabled, false otherwise"
        }
      },
      "setReserveFactor(address,uint256)": {
        "params": {
          "asset": "The address of the underlying asset of the reserve",
          "newReserveFactor": "The new reserve factor of the reserve"
        }
      },
      "setReserveFlashLoaning(address,bool)": {
        "params": {
          "asset": "The address of the underlying asset of the reserve",
          "enabled": "True if flashloans need to be enabled, false otherwise"
        }
      },
      "setReserveFreeze(address,bool)": {
        "params": {
          "asset": "The address of the underlying asset of the reserve",
          "freeze": "True if the reserve needs to be frozen, false otherwise"
        }
      },
      "setReserveInterestRateStrategyAddress(address,address)": {
        "params": {
          "asset": "The address of the underlying asset of the reserve",
          "newRateStrategyAddress": "The address of the new interest strategy contract"
        }
      },
      "setReservePause(address,bool)": {
        "params": {
          "asset": "The address of the underlying asset of the reserve",
          "paused": "True if pausing the reserve, false if unpausing"
        }
      },
      "setReserveStableRateBorrowing(address,bool)": {
        "details": "Can only be enabled (set to true) if borrowing is enabled",
        "params": {
          "asset": "The address of the underlying asset of the reserve",
          "enabled": "True if stable rate borrowing needs to be enabled, false otherwise"
        }
      },
      "setSiloedBorrowing(address,bool)": {
        "params": {
          "siloed": "The new siloed borrowing state"
        }
      },
      "setSupplyCap(address,uint256)": {
        "params": {
          "asset": "The address of the underlying asset of the reserve",
          "newSupplyCap": "The new supply cap of the reserve"
        }
      },
      "setUnbackedMintCap(address,uint256)": {
        "params": {
          "asset": "The address of the underlying asset of the reserve",
          "newUnbackedMintCap": "The new unbacked mint cap of the reserve"
        }
      },
      "updateAToken((address,address,address,string,string,address,bytes))": {
        "details": "Updates the aToken implementation for the reserve.",
        "params": {
          "input": "The aToken update parameters"
        }
      },
      "updateBridgeProtocolFee(uint256)": {
        "params": {
          "newBridgeProtocolFee": "The part of the fee sent to the protocol treasury, expressed in bps"
        }
      },
      "updateFlashloanPremiumToProtocol(uint128)": {
        "details": "Expressed in bpsThe premium to protocol is calculated on the total flashloan premium",
        "params": {
          "newFlashloanPremiumToProtocol": "The part of the flashloan premium sent to the protocol treasury"
        }
      },
      "updateFlashloanPremiumTotal(uint128)": {
        "details": "Expressed in bpsThe premium is calculated on the total amount borrowed",
        "params": {
          "newFlashloanPremiumTotal": "The total flashloan premium"
        }
      },
      "updateStableDebtToken((address,address,string,string,address,bytes))": {
        "params": {
          "input": "The stableDebtToken update parameters"
        }
      },
      "updateVariableDebtToken((address,address,string,string,address,bytes))": {
        "params": {
          "input": "The variableDebtToken update parameters"
        }
      }
    },
    "title": "PoolConfigurator",
    "version": 1
  },
  "userdoc": {
    "kind": "user",
    "methods": {
      "configureReserveAsCollateral(address,uint256,uint256,uint256)": {
        "notice": "Configures the reserve collateralization parameters."
      },
      "dropReserve(address)": {
        "notice": "Drops a reserve entirely."
      },
      "initReserves((address,address,address,uint8,address,address,address,address,string,string,string,string,string,string,bytes)[])": {
        "notice": "Initializes multiple reserves."
      },
      "setAssetEModeCategory(address,uint8)": {
        "notice": "Assign an efficiency mode (eMode) category to asset."
      },
      "setBorrowCap(address,uint256)": {
        "notice": "Updates the borrow cap of a reserve."
      },
      "setBorrowableInIsolation(address,bool)": {
        "notice": "Sets the borrowable in isolation flag for the reserve."
      },
      "setDebtCeiling(address,uint256)": {
        "notice": "Sets the debt ceiling for an asset."
      },
      "setEModeCategory(uint8,uint16,uint16,uint16,address,string)": {
        "notice": "Adds a new efficiency mode (eMode) category."
      },
      "setLiquidationProtocolFee(address,uint256)": {
        "notice": "Updates the liquidation protocol fee of reserve."
      },
      "setPoolPause(bool)": {
        "notice": "Pauses or unpauses all the protocol reserves. In the paused state all the protocol interactions are suspended."
      },
      "setReserveActive(address,bool)": {
        "notice": "Activate or deactivate a reserve"
      },
      "setReserveBorrowing(address,bool)": {
        "notice": "Configures borrowing on a reserve."
      },
      "setReserveFactor(address,uint256)": {
        "notice": "Updates the reserve factor of a reserve."
      },
      "setReserveFlashLoaning(address,bool)": {
        "notice": "Enable or disable flashloans on a reserve"
      },
      "setReserveFreeze(address,bool)": {
        "notice": "Freeze or unfreeze a reserve. A frozen reserve doesn't allow any new supply, borrow or rate swap but allows repayments, liquidations, rate rebalances and withdrawals."
      },
      "setReserveInterestRateStrategyAddress(address,address)": {
        "notice": "Sets the interest rate strategy of a reserve."
      },
      "setReservePause(address,bool)": {
        "notice": "Pauses a reserve. A paused reserve does not allow any interaction (supply, borrow, repay, swap interest rate, liquidate, atoken transfers)."
      },
      "setReserveStableRateBorrowing(address,bool)": {
        "notice": "Enable or disable stable rate borrowing on a reserve."
      },
      "setSiloedBorrowing(address,bool)": {
        "notice": "Sets siloed borrowing for an asset"
      },
      "setSupplyCap(address,uint256)": {
        "notice": "Updates the supply cap of a reserve."
      },
      "setUnbackedMintCap(address,uint256)": {
        "notice": "Updates the unbacked mint cap of reserve."
      },
      "updateBridgeProtocolFee(uint256)": {
        "notice": "Updates the bridge fee collected by the protocol reserves."
      },
      "updateFlashloanPremiumToProtocol(uint128)": {
        "notice": "Updates the flash loan premium collected by protocol reserves"
      },
      "updateFlashloanPremiumTotal(uint128)": {
        "notice": "Updates the total flash loan premium. Total flash loan premium consists of two parts: - A part is sent to aToken holders as extra balance - A part is collected by the protocol reserves"
      },
      "updateStableDebtToken((address,address,string,string,address,bytes))": {
        "notice": "Updates the stable debt token implementation for the reserve."
      },
      "updateVariableDebtToken((address,address,string,string,address,bytes))": {
        "notice": "Updates the variable debt token implementation for the asset."
      }
    },
    "version": 1
  },
  "storageLayout": {
    "storage": [
      {
        "astId": 27521,
        "contract": "contracts/dlend/core/protocol/pool/PoolConfigurator.sol:PoolConfigurator",
        "label": "lastInitializedRevision",
        "offset": 0,
        "slot": "0",
        "type": "t_uint256"
      },
      {
        "astId": 27524,
        "contract": "contracts/dlend/core/protocol/pool/PoolConfigurator.sol:PoolConfigurator",
        "label": "initializing",
        "offset": 0,
        "slot": "1",
        "type": "t_bool"
      },
      {
        "astId": 27594,
        "contract": "contracts/dlend/core/protocol/pool/PoolConfigurator.sol:PoolConfigurator",
        "label": "______gap",
        "offset": 0,
        "slot": "2",
        "type": "t_array(t_uint256)50_storage"
      },
      {
        "astId": 41473,
        "contract": "contracts/dlend/core/protocol/pool/PoolConfigurator.sol:PoolConfigurator",
        "label": "_addressesProvider",
        "offset": 0,
        "slot": "52",
        "type": "t_contract(IPoolAddressesProvider)22972"
      },
      {
        "astId": 41476,
        "contract": "contracts/dlend/core/protocol/pool/PoolConfigurator.sol:PoolConfigurator",
        "label": "_pool",
        "offset": 0,
        "slot": "53",
        "type": "t_contract(IPool)22763"
      }
    ],
    "types": {
      "t_array(t_uint256)50_storage": {
        "base": "t_uint256",
        "encoding": "inplace",
        "label": "uint256[50]",
        "numberOfBytes": "1600"
      },
      "t_bool": {
        "encoding": "inplace",
        "label": "bool",
        "numberOfBytes": "1"
      },
      "t_contract(IPool)22763": {
        "encoding": "inplace",
        "label": "contract IPool",
        "numberOfBytes": "20"
      },
      "t_contract(IPoolAddressesProvider)22972": {
        "encoding": "inplace",
        "label": "contract IPoolAddressesProvider",
        "numberOfBytes": "20"
      },
      "t_uint256": {
        "encoding": "inplace",
        "label": "uint256",
        "numberOfBytes": "32"
      }
    }
  }
}