{
  "address": "0x434af70484Ad7856249CDF480A0179685d5D6200",
  "abi": [
    {
      "inputs": [
        {
          "internalType": "address",
          "name": "baseCurrency",
          "type": "address"
        },
        {
          "internalType": "uint256",
          "name": "_baseCurrencyUnit",
          "type": "uint256"
        }
      ],
      "stateMutability": "nonpayable",
      "type": "constructor"
    },
    {
      "inputs": [],
      "name": "AccessControlBadConfirmation",
      "type": "error"
    },
    {
      "inputs": [
        {
          "internalType": "address",
          "name": "account",
          "type": "address"
        },
        {
          "internalType": "bytes32",
          "name": "neededRole",
          "type": "bytes32"
        }
      ],
      "name": "AccessControlUnauthorizedAccount",
      "type": "error"
    },
    {
      "inputs": [
        {
          "internalType": "address",
          "name": "feed",
          "type": "address"
        },
        {
          "internalType": "uint8",
          "name": "feedDecimals",
          "type": "uint8"
        },
        {
          "internalType": "uint8",
          "name": "expectedDecimals",
          "type": "uint8"
        }
      ],
      "name": "DecimalsMismatch",
      "type": "error"
    },
    {
      "inputs": [
        {
          "internalType": "address",
          "name": "asset",
          "type": "address"
        }
      ],
      "name": "FeedNotSet",
      "type": "error"
    },
    {
      "inputs": [],
      "name": "InvalidPrice",
      "type": "error"
    },
    {
      "inputs": [],
      "name": "PriceIsStale",
      "type": "error"
    },
    {
      "anonymous": false,
      "inputs": [
        {
          "indexed": true,
          "internalType": "address",
          "name": "asset",
          "type": "address"
        },
        {
          "indexed": false,
          "internalType": "address",
          "name": "feed1",
          "type": "address"
        },
        {
          "indexed": false,
          "internalType": "address",
          "name": "feed2",
          "type": "address"
        },
        {
          "indexed": false,
          "internalType": "uint256",
          "name": "lowerThresholdInBase1",
          "type": "uint256"
        },
        {
          "indexed": false,
          "internalType": "uint256",
          "name": "fixedPriceInBase1",
          "type": "uint256"
        },
        {
          "indexed": false,
          "internalType": "uint256",
          "name": "lowerThresholdInBase2",
          "type": "uint256"
        },
        {
          "indexed": false,
          "internalType": "uint256",
          "name": "fixedPriceInBase2",
          "type": "uint256"
        }
      ],
      "name": "CompositeFeedAdded",
      "type": "event"
    },
    {
      "anonymous": false,
      "inputs": [
        {
          "indexed": true,
          "internalType": "address",
          "name": "asset",
          "type": "address"
        }
      ],
      "name": "CompositeFeedRemoved",
      "type": "event"
    },
    {
      "anonymous": false,
      "inputs": [
        {
          "indexed": true,
          "internalType": "address",
          "name": "asset",
          "type": "address"
        },
        {
          "indexed": false,
          "internalType": "uint256",
          "name": "lowerThresholdInBase1",
          "type": "uint256"
        },
        {
          "indexed": false,
          "internalType": "uint256",
          "name": "fixedPriceInBase1",
          "type": "uint256"
        },
        {
          "indexed": false,
          "internalType": "uint256",
          "name": "lowerThresholdInBase2",
          "type": "uint256"
        },
        {
          "indexed": false,
          "internalType": "uint256",
          "name": "fixedPriceInBase2",
          "type": "uint256"
        }
      ],
      "name": "CompositeFeedUpdated",
      "type": "event"
    },
    {
      "anonymous": false,
      "inputs": [
        {
          "indexed": true,
          "internalType": "bytes32",
          "name": "role",
          "type": "bytes32"
        },
        {
          "indexed": true,
          "internalType": "bytes32",
          "name": "previousAdminRole",
          "type": "bytes32"
        },
        {
          "indexed": true,
          "internalType": "bytes32",
          "name": "newAdminRole",
          "type": "bytes32"
        }
      ],
      "name": "RoleAdminChanged",
      "type": "event"
    },
    {
      "anonymous": false,
      "inputs": [
        {
          "indexed": true,
          "internalType": "bytes32",
          "name": "role",
          "type": "bytes32"
        },
        {
          "indexed": true,
          "internalType": "address",
          "name": "account",
          "type": "address"
        },
        {
          "indexed": true,
          "internalType": "address",
          "name": "sender",
          "type": "address"
        }
      ],
      "name": "RoleGranted",
      "type": "event"
    },
    {
      "anonymous": false,
      "inputs": [
        {
          "indexed": true,
          "internalType": "bytes32",
          "name": "role",
          "type": "bytes32"
        },
        {
          "indexed": true,
          "internalType": "address",
          "name": "account",
          "type": "address"
        },
        {
          "indexed": true,
          "internalType": "address",
          "name": "sender",
          "type": "address"
        }
      ],
      "name": "RoleRevoked",
      "type": "event"
    },
    {
      "inputs": [],
      "name": "BASE_CURRENCY",
      "outputs": [
        {
          "internalType": "address",
          "name": "",
          "type": "address"
        }
      ],
      "stateMutability": "view",
      "type": "function"
    },
    {
      "inputs": [],
      "name": "BASE_CURRENCY_DECIMALS",
      "outputs": [
        {
          "internalType": "uint8",
          "name": "",
          "type": "uint8"
        }
      ],
      "stateMutability": "view",
      "type": "function"
    },
    {
      "inputs": [],
      "name": "BASE_CURRENCY_UNIT",
      "outputs": [
        {
          "internalType": "uint256",
          "name": "",
          "type": "uint256"
        }
      ],
      "stateMutability": "view",
      "type": "function"
    },
    {
      "inputs": [],
      "name": "DEFAULT_ADMIN_ROLE",
      "outputs": [
        {
          "internalType": "bytes32",
          "name": "",
          "type": "bytes32"
        }
      ],
      "stateMutability": "view",
      "type": "function"
    },
    {
      "inputs": [],
      "name": "LIQUITY_V2_BASE_CURRENCY_UNIT",
      "outputs": [
        {
          "internalType": "uint256",
          "name": "",
          "type": "uint256"
        }
      ],
      "stateMutability": "view",
      "type": "function"
    },
    {
      "inputs": [],
      "name": "ORACLE_MANAGER_ROLE",
      "outputs": [
        {
          "internalType": "bytes32",
          "name": "",
          "type": "bytes32"
        }
      ],
      "stateMutability": "view",
      "type": "function"
    },
    {
      "inputs": [
        {
          "internalType": "address",
          "name": "asset",
          "type": "address"
        },
        {
          "internalType": "address",
          "name": "feed1",
          "type": "address"
        },
        {
          "internalType": "address",
          "name": "feed2",
          "type": "address"
        },
        {
          "internalType": "uint256",
          "name": "lowerThresholdInBase1",
          "type": "uint256"
        },
        {
          "internalType": "uint256",
          "name": "fixedPriceInBase1",
          "type": "uint256"
        },
        {
          "internalType": "uint256",
          "name": "lowerThresholdInBase2",
          "type": "uint256"
        },
        {
          "internalType": "uint256",
          "name": "fixedPriceInBase2",
          "type": "uint256"
        }
      ],
      "name": "addCompositeFeed",
      "outputs": [],
      "stateMutability": "nonpayable",
      "type": "function"
    },
    {
      "inputs": [
        {
          "internalType": "address",
          "name": "",
          "type": "address"
        }
      ],
      "name": "compositeFeeds",
      "outputs": [
        {
          "internalType": "address",
          "name": "feed1",
          "type": "address"
        },
        {
          "internalType": "address",
          "name": "feed2",
          "type": "address"
        },
        {
          "components": [
            {
              "internalType": "uint256",
              "name": "lowerThresholdInBase",
              "type": "uint256"
            },
            {
              "internalType": "uint256",
              "name": "fixedPriceInBase",
              "type": "uint256"
            }
          ],
          "internalType": "struct ThresholdingUtils.ThresholdConfig",
          "name": "primaryThreshold",
          "type": "tuple"
        },
        {
          "components": [
            {
              "internalType": "uint256",
              "name": "lowerThresholdInBase",
              "type": "uint256"
            },
            {
              "internalType": "uint256",
              "name": "fixedPriceInBase",
              "type": "uint256"
            }
          ],
          "internalType": "struct ThresholdingUtils.ThresholdConfig",
          "name": "secondaryThreshold",
          "type": "tuple"
        }
      ],
      "stateMutability": "view",
      "type": "function"
    },
    {
      "inputs": [],
      "name": "feedHeartbeat",
      "outputs": [
        {
          "internalType": "uint256",
          "name": "",
          "type": "uint256"
        }
      ],
      "stateMutability": "view",
      "type": "function"
    },
    {
      "inputs": [
        {
          "internalType": "address",
          "name": "asset",
          "type": "address"
        }
      ],
      "name": "getAssetPrice",
      "outputs": [
        {
          "internalType": "uint256",
          "name": "",
          "type": "uint256"
        }
      ],
      "stateMutability": "view",
      "type": "function"
    },
    {
      "inputs": [
        {
          "internalType": "address",
          "name": "asset",
          "type": "address"
        }
      ],
      "name": "getPriceInfo",
      "outputs": [
        {
          "internalType": "uint256",
          "name": "price",
          "type": "uint256"
        },
        {
          "internalType": "bool",
          "name": "isAlive",
          "type": "bool"
        }
      ],
      "stateMutability": "view",
      "type": "function"
    },
    {
      "inputs": [
        {
          "internalType": "bytes32",
          "name": "role",
          "type": "bytes32"
        }
      ],
      "name": "getRoleAdmin",
      "outputs": [
        {
          "internalType": "bytes32",
          "name": "",
          "type": "bytes32"
        }
      ],
      "stateMutability": "view",
      "type": "function"
    },
    {
      "inputs": [
        {
          "internalType": "bytes32",
          "name": "role",
          "type": "bytes32"
        },
        {
          "internalType": "address",
          "name": "account",
          "type": "address"
        }
      ],
      "name": "grantRole",
      "outputs": [],
      "stateMutability": "nonpayable",
      "type": "function"
    },
    {
      "inputs": [
        {
          "internalType": "bytes32",
          "name": "role",
          "type": "bytes32"
        },
        {
          "internalType": "address",
          "name": "account",
          "type": "address"
        }
      ],
      "name": "hasRole",
      "outputs": [
        {
          "internalType": "bool",
          "name": "",
          "type": "bool"
        }
      ],
      "stateMutability": "view",
      "type": "function"
    },
    {
      "inputs": [],
      "name": "heartbeatStaleTimeLimit",
      "outputs": [
        {
          "internalType": "uint256",
          "name": "",
          "type": "uint256"
        }
      ],
      "stateMutability": "view",
      "type": "function"
    },
    {
      "inputs": [
        {
          "internalType": "address",
          "name": "asset",
          "type": "address"
        }
      ],
      "name": "removeCompositeFeed",
      "outputs": [],
      "stateMutability": "nonpayable",
      "type": "function"
    },
    {
      "inputs": [
        {
          "internalType": "bytes32",
          "name": "role",
          "type": "bytes32"
        },
        {
          "internalType": "address",
          "name": "callerConfirmation",
          "type": "address"
        }
      ],
      "name": "renounceRole",
      "outputs": [],
      "stateMutability": "nonpayable",
      "type": "function"
    },
    {
      "inputs": [
        {
          "internalType": "bytes32",
          "name": "role",
          "type": "bytes32"
        },
        {
          "internalType": "address",
          "name": "account",
          "type": "address"
        }
      ],
      "name": "revokeRole",
      "outputs": [],
      "stateMutability": "nonpayable",
      "type": "function"
    },
    {
      "inputs": [
        {
          "internalType": "uint256",
          "name": "_newHeartbeat",
          "type": "uint256"
        }
      ],
      "name": "setFeedHeartbeat",
      "outputs": [],
      "stateMutability": "nonpayable",
      "type": "function"
    },
    {
      "inputs": [
        {
          "internalType": "uint256",
          "name": "_newHeartbeatStaleTimeLimit",
          "type": "uint256"
        }
      ],
      "name": "setHeartbeatStaleTimeLimit",
      "outputs": [],
      "stateMutability": "nonpayable",
      "type": "function"
    },
    {
      "inputs": [
        {
          "internalType": "bytes4",
          "name": "interfaceId",
          "type": "bytes4"
        }
      ],
      "name": "supportsInterface",
      "outputs": [
        {
          "internalType": "bool",
          "name": "",
          "type": "bool"
        }
      ],
      "stateMutability": "view",
      "type": "function"
    },
    {
      "inputs": [
        {
          "internalType": "address",
          "name": "asset",
          "type": "address"
        },
        {
          "internalType": "uint256",
          "name": "lowerThresholdInBase1",
          "type": "uint256"
        },
        {
          "internalType": "uint256",
          "name": "fixedPriceInBase1",
          "type": "uint256"
        },
        {
          "internalType": "uint256",
          "name": "lowerThresholdInBase2",
          "type": "uint256"
        },
        {
          "internalType": "uint256",
          "name": "fixedPriceInBase2",
          "type": "uint256"
        }
      ],
      "name": "updateCompositeFeed",
      "outputs": [],
      "stateMutability": "nonpayable",
      "type": "function"
    }
  ],
  "transactionHash": "0x65e611e060821889201d1bf33a324b671cb422313b34ba61bc9cd3f4eb2c3b89",
  "args": [
    "0x0000000000000000000000000000000000000000",
    "1000000000000000000"
  ],
  "numDeployments": 1,
  "solcInputHash": "6db23878c25afdc55eedfa70bb654e49",
  "bytecode": "0x60c06040526201518060015561070860025534801561001d57600080fd5b506040516112c83803806112c883398101604081905261003c9161013c565b6001600160a01b03821660805260a0819052818161005b600033610090565b506100867fced6982f480260bdd8ad5cb18ff2854f0306d78d904ad6cc107e8f3a0f526c1833610090565b5050505050610176565b6000828152602081815260408083206001600160a01b038516845290915281205460ff16610132576000838152602081815260408083206001600160a01b03861684529091529020805460ff191660011790556100ea3390565b6001600160a01b0316826001600160a01b0316847f2f8788117e7eff1d82e926ec794901d17c78024a50270940304540a733656f0d60405160405180910390a4506001610136565b5060005b92915050565b6000806040838503121561014f57600080fd5b82516001600160a01b038116811461016657600080fd5b6020939093015192949293505050565b60805160a05161111f6101a960003960008181610238015281816108150152610db00152600061030b015261111f6000f3fe608060405234801561001057600080fd5b50600436106101425760003560e01c80638edbf436116100b8578063bfc69e1c1161007c578063bfc69e1c146102c3578063c5efe27c146102d8578063d547741f146102eb578063e19f4700146102fe578063f99256d514610335578063fc1bc903146103b157600080fd5b80638edbf4361461025a5780638f5997151461028257806391d1485414610295578063a217fddf146102a8578063b3596f07146102b057600080fd5b80632f2ff15d1161010a5780632f2ff15d146101cd578063311d5c62146101e057806336568abe146101fa5780634bafe0651461020d578063519ffff1146102205780638c89b64f1461023357600080fd5b806301ffc9a71461014757806304dea6511461016f57806308f7bfe114610184578063248a9ca3146101a15780632ecac6fc146101c4575b600080fd5b61015a610155366004610e3a565b6103ba565b60405190151581526020015b60405180910390f35b61018261017d366004610e87565b6103f1565b005b610193670de0b6b3a764000081565b604051908152602001610166565b6101936101af366004610ec9565b60009081526020819052604090206001015490565b61019360025481565b6101826101db366004610ee2565b6104e4565b6101e8601281565b60405160ff9091168152602001610166565b610182610208366004610ee2565b61050f565b61018261021b366004610ec9565b610547565b61018261022e366004610f0e565b610565565b6101937f000000000000000000000000000000000000000000000000000000000000000081565b61026d610268366004610f0e565b6105f8565b60408051928352901515602083015201610166565b610182610290366004610f29565b6108a8565b61015a6102a3366004610ee2565b610bf3565b610193600081565b6101936102be366004610f0e565b610c1c565b6101936000805160206110ca83398151915281565b6101826102e6366004610ec9565b610c53565b6101826102f9366004610ee2565b610c71565b6040516001600160a01b037f0000000000000000000000000000000000000000000000000000000000000000168152602001610166565b6103a1610343366004610f0e565b6003602081815260009283526040928390208054600182015485518087018752600284015481529483015485850152855180870190965260048301548652600590920154928501929092526001600160a01b03918216939116919084565b6040516101669493929190610f91565b61019360015481565b60006001600160e01b03198216637965db0b60e01b14806103eb57506301ffc9a760e01b6001600160e01b03198316145b92915050565b6000805160206110ca83398151915261040981610c96565b6001600160a01b0380871660009081526003602052604090208054909116158061043e575060018101546001600160a01b0316155b1561046c57604051630dcaf86b60e01b81526001600160a01b03881660048201526024015b60405180910390fd5b600281018690556003810185905560048101849055600581018390556040805187815260208101879052908101859052606081018490526001600160a01b038816907fbdebb389cb3e5b0a7c038b900aeea5b6e265e74efd0de50488c3574a4d7861d59060800160405180910390a250505050505050565b6000828152602081905260409020600101546104ff81610c96565b6105098383610ca3565b50505050565b6001600160a01b03811633146105385760405163334bd91960e11b815260040160405180910390fd5b6105428282610d35565b505050565b6000805160206110ca83398151915261055f81610c96565b50600155565b6000805160206110ca83398151915261057d81610c96565b6001600160a01b038216600081815260036020819052604080832080546001600160a01b03199081168255600182018054909116905560028101849055918201839055600482018390556005909101829055517fdabc58d0456c50872fa82879bc9ce7f6a455b4372db632857a62de4abd0996919190a25050565b6001600160a01b03808216600090815260036020818152604080842081516080810183528154871681526001820154871681850152825180840184526002830154815294820154858501528083019490945281518083019092526004810154825260050154918101919091526060820152805191928392161580610687575060208101516001600160a01b0316155b156106b057604051630dcaf86b60e01b81526001600160a01b0385166004820152602401610463565b60008082600001516001600160a01b031663feaf968c6040518163ffffffff1660e01b815260040160a060405180830381865afa1580156106f5573d6000803e3d6000fd5b505050506040513d601f19601f820116820180604052508101906107199190610ff4565b5093505092505060008084602001516001600160a01b031663feaf968c6040518163ffffffff1660e01b815260040160a060405180830381865afa158015610765573d6000803e3d6000fd5b505050506040513d601f19601f820116820180604052508101906107899190610ff4565b509350509250506000841315806107a1575060008213155b156107be5760405162bfc92160e01b815260040160405180910390fd5b838260006107cb83610da0565b905060006107d883610da0565b60408a015151909150156107f7576107f4828a60400151610ddf565b91505b6060890151511561081357610810818a60600151610ddf565b90505b7f000000000000000000000000000000000000000000000000000000000000000061083e828461105a565b6108489190611071565b9a5060008b118015610873575042600254600154896108679190611093565b6108719190611093565b115b80156108985750426002546001548761088c9190611093565b6108969190611093565b115b9950505050505050505050915091565b6000805160206110ca8339815191526108c081610c96565b6001600160a01b03871615806108dd57506001600160a01b038616155b1561090657604051630dcaf86b60e01b81526001600160a01b0389166004820152602401610463565b6000876001600160a01b031663313ce5676040518163ffffffff1660e01b8152600401602060405180830381865afa158015610946573d6000803e3d6000fd5b505050506040513d601f19601f8201168201806040525081019061096a91906110a6565b90506000876001600160a01b031663313ce5676040518163ffffffff1660e01b8152600401602060405180830381865afa1580156109ac573d6000803e3d6000fd5b505050506040513d601f19601f820116820180604052508101906109d091906110a6565b905060ff8216601214610a11576040516385d6e41f60e01b81526001600160a01b038a16600482015260ff8316602482015260126044820152606401610463565b60ff8116601214610a50576040516385d6e41f60e01b81526001600160a01b038916600482015260ff8216602482015260126044820152606401610463565b60405180608001604052808a6001600160a01b03168152602001896001600160a01b0316815260200160405180604001604052808a8152602001898152508152602001604051806040016040528088815260200187815250815250600360008c6001600160a01b03166001600160a01b0316815260200190815260200160002060008201518160000160006101000a8154816001600160a01b0302191690836001600160a01b0316021790555060208201518160010160006101000a8154816001600160a01b0302191690836001600160a01b031602179055506040820151816002016000820151816000015560208201518160010155505060608201518160040160008201518160000155602082015181600101555050905050896001600160a01b03167f8af3f37e726b4aaf30de76bd00359c9166bf6b9a01e457c3d4557df631227eed8a8a8a8a8a8a604051610bdf969594939291906001600160a01b03968716815294909516602085015260408401929092526060830152608082015260a081019190915260c00190565b60405180910390a250505050505050505050565b6000918252602082815260408084206001600160a01b0393909316845291905290205460ff1690565b6000806000610c2a846105f8565b9150915080610c4c576040516342bc305b60e11b815260040160405180910390fd5b5092915050565b6000805160206110ca833981519152610c6b81610c96565b50600255565b600082815260208190526040902060010154610c8c81610c96565b6105098383610d35565b610ca08133610dfd565b50565b6000610caf8383610bf3565b610d2d576000838152602081815260408083206001600160a01b03861684529091529020805460ff19166001179055610ce53390565b6001600160a01b0316826001600160a01b0316847f2f8788117e7eff1d82e926ec794901d17c78024a50270940304540a733656f0d60405160405180910390a45060016103eb565b5060006103eb565b6000610d418383610bf3565b15610d2d576000838152602081815260408083206001600160a01b0386168085529252808320805460ff1916905551339286917ff6391f5c32d9c69d2a47ea670b442974b53935d1edc7fd64eb21e047a839171b9190a45060016103eb565b6000670de0b6b3a7640000610dd57f00000000000000000000000000000000000000000000000000000000000000008461105a565b6103eb9190611071565b8051600090831115610df6575060208101516103eb565b5090919050565b610e078282610bf3565b610e365760405163e2517d3f60e01b81526001600160a01b038216600482015260248101839052604401610463565b5050565b600060208284031215610e4c57600080fd5b81356001600160e01b031981168114610e6457600080fd5b9392505050565b80356001600160a01b0381168114610e8257600080fd5b919050565b600080600080600060a08688031215610e9f57600080fd5b610ea886610e6b565b97602087013597506040870135966060810135965060800135945092505050565b600060208284031215610edb57600080fd5b5035919050565b60008060408385031215610ef557600080fd5b82359150610f0560208401610e6b565b90509250929050565b600060208284031215610f2057600080fd5b610e6482610e6b565b600080600080600080600060e0888a031215610f4457600080fd5b610f4d88610e6b565b9650610f5b60208901610e6b565b9550610f6960408901610e6b565b969995985095966060810135965060808101359560a0820135955060c0909101359350915050565b6001600160a01b0385811682528416602082015260c08101610fc0604083018580518252602090810151910152565b82516080830152602083015160a083015295945050505050565b805169ffffffffffffffffffff81168114610e8257600080fd5b600080600080600060a0868803121561100c57600080fd5b61101586610fda565b945060208601519350604086015192506060860151915061103860808701610fda565b90509295509295909350565b634e487b7160e01b600052601160045260246000fd5b80820281158282048414176103eb576103eb611044565b60008261108e57634e487b7160e01b600052601260045260246000fd5b500490565b808201808211156103eb576103eb611044565b6000602082840312156110b857600080fd5b815160ff81168114610e6457600080fdfeced6982f480260bdd8ad5cb18ff2854f0306d78d904ad6cc107e8f3a0f526c18a26469706673582212206fbf501c71315102e68605cfaddc325b041119597fec4f835e681529f2a583f564736f6c63430008160033",
  "devdoc": {
    "details": "Implementation of BaseLiquityV2Wrapper for composite Tellor oracle feeds with thresholding Chains two Tellor feeds together (e.g., yUSD/USDC * USDC/USD = yUSD/USD)",
    "errors": {
      "AccessControlBadConfirmation()": [
        {
          "details": "The caller of a function is not the expected one. NOTE: Don't confuse with {AccessControlUnauthorizedAccount}."
        }
      ],
      "AccessControlUnauthorizedAccount(address,bytes32)": [
        {
          "details": "The `account` is missing a role."
        }
      ]
    },
    "events": {
      "RoleAdminChanged(bytes32,bytes32,bytes32)": {
        "details": "Emitted when `newAdminRole` is set as ``role``'s admin role, replacing `previousAdminRole` `DEFAULT_ADMIN_ROLE` is the starting admin for all roles, despite {RoleAdminChanged} not being emitted to signal this."
      },
      "RoleGranted(bytes32,address,address)": {
        "details": "Emitted when `account` is granted `role`. `sender` is the account that originated the contract call. This account bears the admin role (for the granted role). Expected in cases where the role was granted using the internal {AccessControl-_grantRole}."
      },
      "RoleRevoked(bytes32,address,address)": {
        "details": "Emitted when `account` is revoked `role`. `sender` is the account that originated the contract call:   - if using `revokeRole`, it is the admin role bearer   - if using `renounceRole`, it is the role bearer (i.e. `account`)"
      }
    },
    "kind": "dev",
    "methods": {
      "BASE_CURRENCY()": {
        "returns": {
          "_0": "Returns the base currency address"
        }
      },
      "addCompositeFeed(address,address,address,uint256,uint256,uint256,uint256)": {
        "details": "Both feeds must implement LiquityV2OracleAggregatorV3Interface",
        "params": {
          "asset": "The asset address to set the composite feed for",
          "feed1": "The primary feed address (e.g., yUSD/USDC)",
          "feed2": "The secondary feed address (e.g., USDC/USD)",
          "fixedPriceInBase1": "Fixed price for feed1 in BASE_CURRENCY_UNIT",
          "fixedPriceInBase2": "Fixed price for feed2 in BASE_CURRENCY_UNIT",
          "lowerThresholdInBase1": "Lower threshold for feed1 in BASE_CURRENCY_UNIT",
          "lowerThresholdInBase2": "Lower threshold for feed2 in BASE_CURRENCY_UNIT"
        }
      },
      "getAssetPrice(address)": {
        "params": {
          "asset": "The address of the asset to get the price for"
        },
        "returns": {
          "_0": "The current price of the asset"
        }
      },
      "getPriceInfo(address)": {
        "details": "Multiplies feed1 * feed2 to get the final price (e.g., yUSD/USDC * USDC/USD = yUSD/USD)",
        "params": {
          "asset": "The address of the asset to get the price for"
        },
        "returns": {
          "isAlive": "Whether both price feeds are considered active/valid",
          "price": "The composite price of the asset in base currency units"
        }
      },
      "getRoleAdmin(bytes32)": {
        "details": "Returns the admin role that controls `role`. See {grantRole} and {revokeRole}. To change a role's admin, use {_setRoleAdmin}."
      },
      "grantRole(bytes32,address)": {
        "details": "Grants `role` to `account`. If `account` had not been already granted `role`, emits a {RoleGranted} event. Requirements: - the caller must have ``role``'s admin role. May emit a {RoleGranted} event."
      },
      "hasRole(bytes32,address)": {
        "details": "Returns `true` if `account` has been granted `role`."
      },
      "removeCompositeFeed(address)": {
        "params": {
          "asset": "The asset address to remove the composite feed for"
        }
      },
      "renounceRole(bytes32,address)": {
        "details": "Revokes `role` from the calling account. Roles are often managed via {grantRole} and {revokeRole}: this function's purpose is to provide a mechanism for accounts to lose their privileges if they are compromised (such as when a trusted device is misplaced). If the calling account had been revoked `role`, emits a {RoleRevoked} event. Requirements: - the caller must be `callerConfirmation`. May emit a {RoleRevoked} event."
      },
      "revokeRole(bytes32,address)": {
        "details": "Revokes `role` from `account`. If `account` had been granted `role`, emits a {RoleRevoked} event. Requirements: - the caller must have ``role``'s admin role. May emit a {RoleRevoked} event."
      },
      "setFeedHeartbeat(uint256)": {
        "params": {
          "_newHeartbeat": "The new heartbeat duration in seconds"
        }
      },
      "setHeartbeatStaleTimeLimit(uint256)": {
        "params": {
          "_newHeartbeatStaleTimeLimit": "The new heartbeat stale time limit"
        }
      },
      "supportsInterface(bytes4)": {
        "details": "Returns true if this contract implements the interface defined by `interfaceId`. See the corresponding https://eips.ethereum.org/EIPS/eip-165#how-interfaces-are-identified[ERC section] to learn more about how these ids are created. This function call must use less than 30 000 gas."
      },
      "updateCompositeFeed(address,uint256,uint256,uint256,uint256)": {
        "params": {
          "asset": "The asset address to update",
          "fixedPriceInBase1": "Fixed price for feed1 in BASE_CURRENCY_UNIT",
          "fixedPriceInBase2": "Fixed price for feed2 in BASE_CURRENCY_UNIT",
          "lowerThresholdInBase1": "Lower threshold for feed1 in BASE_CURRENCY_UNIT",
          "lowerThresholdInBase2": "Lower threshold for feed2 in BASE_CURRENCY_UNIT"
        }
      }
    },
    "title": "TellorCompositeWrapper",
    "version": 1
  },
  "userdoc": {
    "kind": "user",
    "methods": {
      "BASE_CURRENCY()": {
        "notice": "Returns the base currency address"
      },
      "BASE_CURRENCY_UNIT()": {
        "notice": "Returns the base currency unit"
      },
      "addCompositeFeed(address,address,address,uint256,uint256,uint256,uint256)": {
        "notice": "Adds a composite feed for an asset"
      },
      "getAssetPrice(address)": {
        "notice": "Gets the current price of an asset"
      },
      "getPriceInfo(address)": {
        "notice": "Gets the price information for an asset by composing two feeds"
      },
      "removeCompositeFeed(address)": {
        "notice": "Removes a composite feed for an asset"
      },
      "setFeedHeartbeat(uint256)": {
        "notice": "Sets the price feed heartbeat duration"
      },
      "setHeartbeatStaleTimeLimit(uint256)": {
        "notice": "Sets the heartbeat stale time limit"
      },
      "updateCompositeFeed(address,uint256,uint256,uint256,uint256)": {
        "notice": "Updates the threshold configuration for an existing composite feed"
      }
    },
    "version": 1
  },
  "storageLayout": {
    "storage": [
      {
        "astId": 27,
        "contract": "contracts/oracle_aggregator/wrapper/TellorCompositeWrapper.sol:TellorCompositeWrapper",
        "label": "_roles",
        "offset": 0,
        "slot": "0",
        "type": "t_mapping(t_bytes32,t_struct(RoleData)22_storage)"
      },
      {
        "astId": 1084,
        "contract": "contracts/oracle_aggregator/wrapper/TellorCompositeWrapper.sol:TellorCompositeWrapper",
        "label": "feedHeartbeat",
        "offset": 0,
        "slot": "1",
        "type": "t_uint256"
      },
      {
        "astId": 1091,
        "contract": "contracts/oracle_aggregator/wrapper/TellorCompositeWrapper.sol:TellorCompositeWrapper",
        "label": "heartbeatStaleTimeLimit",
        "offset": 0,
        "slot": "2",
        "type": "t_uint256"
      },
      {
        "astId": 1281,
        "contract": "contracts/oracle_aggregator/wrapper/TellorCompositeWrapper.sol:TellorCompositeWrapper",
        "label": "compositeFeeds",
        "offset": 0,
        "slot": "3",
        "type": "t_mapping(t_address,t_struct(CompositeFeed)1276_storage)"
      }
    ],
    "types": {
      "t_address": {
        "encoding": "inplace",
        "label": "address",
        "numberOfBytes": "20"
      },
      "t_bool": {
        "encoding": "inplace",
        "label": "bool",
        "numberOfBytes": "1"
      },
      "t_bytes32": {
        "encoding": "inplace",
        "label": "bytes32",
        "numberOfBytes": "32"
      },
      "t_mapping(t_address,t_bool)": {
        "encoding": "mapping",
        "key": "t_address",
        "label": "mapping(address => bool)",
        "numberOfBytes": "32",
        "value": "t_bool"
      },
      "t_mapping(t_address,t_struct(CompositeFeed)1276_storage)": {
        "encoding": "mapping",
        "key": "t_address",
        "label": "mapping(address => struct TellorCompositeWrapper.CompositeFeed)",
        "numberOfBytes": "32",
        "value": "t_struct(CompositeFeed)1276_storage"
      },
      "t_mapping(t_bytes32,t_struct(RoleData)22_storage)": {
        "encoding": "mapping",
        "key": "t_bytes32",
        "label": "mapping(bytes32 => struct AccessControl.RoleData)",
        "numberOfBytes": "32",
        "value": "t_struct(RoleData)22_storage"
      },
      "t_struct(CompositeFeed)1276_storage": {
        "encoding": "inplace",
        "label": "struct TellorCompositeWrapper.CompositeFeed",
        "members": [
          {
            "astId": 1267,
            "contract": "contracts/oracle_aggregator/wrapper/TellorCompositeWrapper.sol:TellorCompositeWrapper",
            "label": "feed1",
            "offset": 0,
            "slot": "0",
            "type": "t_address"
          },
          {
            "astId": 1269,
            "contract": "contracts/oracle_aggregator/wrapper/TellorCompositeWrapper.sol:TellorCompositeWrapper",
            "label": "feed2",
            "offset": 0,
            "slot": "1",
            "type": "t_address"
          },
          {
            "astId": 1272,
            "contract": "contracts/oracle_aggregator/wrapper/TellorCompositeWrapper.sol:TellorCompositeWrapper",
            "label": "primaryThreshold",
            "offset": 0,
            "slot": "2",
            "type": "t_struct(ThresholdConfig)1989_storage"
          },
          {
            "astId": 1275,
            "contract": "contracts/oracle_aggregator/wrapper/TellorCompositeWrapper.sol:TellorCompositeWrapper",
            "label": "secondaryThreshold",
            "offset": 0,
            "slot": "4",
            "type": "t_struct(ThresholdConfig)1989_storage"
          }
        ],
        "numberOfBytes": "192"
      },
      "t_struct(RoleData)22_storage": {
        "encoding": "inplace",
        "label": "struct AccessControl.RoleData",
        "members": [
          {
            "astId": 19,
            "contract": "contracts/oracle_aggregator/wrapper/TellorCompositeWrapper.sol:TellorCompositeWrapper",
            "label": "hasRole",
            "offset": 0,
            "slot": "0",
            "type": "t_mapping(t_address,t_bool)"
          },
          {
            "astId": 21,
            "contract": "contracts/oracle_aggregator/wrapper/TellorCompositeWrapper.sol:TellorCompositeWrapper",
            "label": "adminRole",
            "offset": 0,
            "slot": "1",
            "type": "t_bytes32"
          }
        ],
        "numberOfBytes": "64"
      },
      "t_struct(ThresholdConfig)1989_storage": {
        "encoding": "inplace",
        "label": "struct ThresholdingUtils.ThresholdConfig",
        "members": [
          {
            "astId": 1986,
            "contract": "contracts/oracle_aggregator/wrapper/TellorCompositeWrapper.sol:TellorCompositeWrapper",
            "label": "lowerThresholdInBase",
            "offset": 0,
            "slot": "0",
            "type": "t_uint256"
          },
          {
            "astId": 1988,
            "contract": "contracts/oracle_aggregator/wrapper/TellorCompositeWrapper.sol:TellorCompositeWrapper",
            "label": "fixedPriceInBase",
            "offset": 0,
            "slot": "1",
            "type": "t_uint256"
          }
        ],
        "numberOfBytes": "64"
      },
      "t_uint256": {
        "encoding": "inplace",
        "label": "uint256",
        "numberOfBytes": "32"
      }
    }
  }
}