{
  "address": "0xa98b258eAa467FbfA79f5F10eb2916Dd1Cb568f4",
  "abi": [
    {
      "inputs": [
        {
          "internalType": "address",
          "name": "baseCurrency",
          "type": "address"
        },
        {
          "internalType": "uint256",
          "name": "_baseCurrencyUnit",
          "type": "uint256"
        }
      ],
      "stateMutability": "nonpayable",
      "type": "constructor"
    },
    {
      "inputs": [],
      "name": "AccessControlBadConfirmation",
      "type": "error"
    },
    {
      "inputs": [
        {
          "internalType": "address",
          "name": "account",
          "type": "address"
        },
        {
          "internalType": "bytes32",
          "name": "neededRole",
          "type": "bytes32"
        }
      ],
      "name": "AccessControlUnauthorizedAccount",
      "type": "error"
    },
    {
      "inputs": [
        {
          "internalType": "address",
          "name": "feed",
          "type": "address"
        },
        {
          "internalType": "uint8",
          "name": "feedDecimals",
          "type": "uint8"
        },
        {
          "internalType": "uint8",
          "name": "expectedDecimals",
          "type": "uint8"
        }
      ],
      "name": "DecimalsMismatch",
      "type": "error"
    },
    {
      "inputs": [
        {
          "internalType": "address",
          "name": "asset",
          "type": "address"
        }
      ],
      "name": "FeedNotSet",
      "type": "error"
    },
    {
      "inputs": [],
      "name": "InvalidPrice",
      "type": "error"
    },
    {
      "inputs": [],
      "name": "PriceIsStale",
      "type": "error"
    },
    {
      "anonymous": false,
      "inputs": [
        {
          "indexed": true,
          "internalType": "bytes32",
          "name": "role",
          "type": "bytes32"
        },
        {
          "indexed": true,
          "internalType": "bytes32",
          "name": "previousAdminRole",
          "type": "bytes32"
        },
        {
          "indexed": true,
          "internalType": "bytes32",
          "name": "newAdminRole",
          "type": "bytes32"
        }
      ],
      "name": "RoleAdminChanged",
      "type": "event"
    },
    {
      "anonymous": false,
      "inputs": [
        {
          "indexed": true,
          "internalType": "bytes32",
          "name": "role",
          "type": "bytes32"
        },
        {
          "indexed": true,
          "internalType": "address",
          "name": "account",
          "type": "address"
        },
        {
          "indexed": true,
          "internalType": "address",
          "name": "sender",
          "type": "address"
        }
      ],
      "name": "RoleGranted",
      "type": "event"
    },
    {
      "anonymous": false,
      "inputs": [
        {
          "indexed": true,
          "internalType": "bytes32",
          "name": "role",
          "type": "bytes32"
        },
        {
          "indexed": true,
          "internalType": "address",
          "name": "account",
          "type": "address"
        },
        {
          "indexed": true,
          "internalType": "address",
          "name": "sender",
          "type": "address"
        }
      ],
      "name": "RoleRevoked",
      "type": "event"
    },
    {
      "anonymous": false,
      "inputs": [
        {
          "indexed": true,
          "internalType": "address",
          "name": "asset",
          "type": "address"
        }
      ],
      "name": "ThresholdConfigRemoved",
      "type": "event"
    },
    {
      "anonymous": false,
      "inputs": [
        {
          "indexed": true,
          "internalType": "address",
          "name": "asset",
          "type": "address"
        },
        {
          "indexed": false,
          "internalType": "uint256",
          "name": "lowerThresholdInBase",
          "type": "uint256"
        },
        {
          "indexed": false,
          "internalType": "uint256",
          "name": "fixedPriceInBase",
          "type": "uint256"
        }
      ],
      "name": "ThresholdConfigSet",
      "type": "event"
    },
    {
      "inputs": [],
      "name": "BASE_CURRENCY",
      "outputs": [
        {
          "internalType": "address",
          "name": "",
          "type": "address"
        }
      ],
      "stateMutability": "view",
      "type": "function"
    },
    {
      "inputs": [],
      "name": "BASE_CURRENCY_DECIMALS",
      "outputs": [
        {
          "internalType": "uint8",
          "name": "",
          "type": "uint8"
        }
      ],
      "stateMutability": "view",
      "type": "function"
    },
    {
      "inputs": [],
      "name": "BASE_CURRENCY_UNIT",
      "outputs": [
        {
          "internalType": "uint256",
          "name": "",
          "type": "uint256"
        }
      ],
      "stateMutability": "view",
      "type": "function"
    },
    {
      "inputs": [],
      "name": "DEFAULT_ADMIN_ROLE",
      "outputs": [
        {
          "internalType": "bytes32",
          "name": "",
          "type": "bytes32"
        }
      ],
      "stateMutability": "view",
      "type": "function"
    },
    {
      "inputs": [],
      "name": "LIQUITY_V2_BASE_CURRENCY_UNIT",
      "outputs": [
        {
          "internalType": "uint256",
          "name": "",
          "type": "uint256"
        }
      ],
      "stateMutability": "view",
      "type": "function"
    },
    {
      "inputs": [],
      "name": "LIQUITY_V2_HEARTBEAT",
      "outputs": [
        {
          "internalType": "uint256",
          "name": "",
          "type": "uint256"
        }
      ],
      "stateMutability": "view",
      "type": "function"
    },
    {
      "inputs": [],
      "name": "ORACLE_MANAGER_ROLE",
      "outputs": [
        {
          "internalType": "bytes32",
          "name": "",
          "type": "bytes32"
        }
      ],
      "stateMutability": "view",
      "type": "function"
    },
    {
      "inputs": [
        {
          "internalType": "address",
          "name": "",
          "type": "address"
        }
      ],
      "name": "assetThresholds",
      "outputs": [
        {
          "internalType": "uint256",
          "name": "lowerThresholdInBase",
          "type": "uint256"
        },
        {
          "internalType": "uint256",
          "name": "fixedPriceInBase",
          "type": "uint256"
        }
      ],
      "stateMutability": "view",
      "type": "function"
    },
    {
      "inputs": [
        {
          "internalType": "address",
          "name": "",
          "type": "address"
        }
      ],
      "name": "assetToFeed",
      "outputs": [
        {
          "internalType": "contract LiquityV2OracleAggregatorV3Interface",
          "name": "",
          "type": "address"
        }
      ],
      "stateMutability": "view",
      "type": "function"
    },
    {
      "inputs": [
        {
          "internalType": "address",
          "name": "asset",
          "type": "address"
        }
      ],
      "name": "getAssetPrice",
      "outputs": [
        {
          "internalType": "uint256",
          "name": "",
          "type": "uint256"
        }
      ],
      "stateMutability": "view",
      "type": "function"
    },
    {
      "inputs": [
        {
          "internalType": "address",
          "name": "asset",
          "type": "address"
        }
      ],
      "name": "getPriceInfo",
      "outputs": [
        {
          "internalType": "uint256",
          "name": "price",
          "type": "uint256"
        },
        {
          "internalType": "bool",
          "name": "isAlive",
          "type": "bool"
        }
      ],
      "stateMutability": "view",
      "type": "function"
    },
    {
      "inputs": [
        {
          "internalType": "bytes32",
          "name": "role",
          "type": "bytes32"
        }
      ],
      "name": "getRoleAdmin",
      "outputs": [
        {
          "internalType": "bytes32",
          "name": "",
          "type": "bytes32"
        }
      ],
      "stateMutability": "view",
      "type": "function"
    },
    {
      "inputs": [
        {
          "internalType": "bytes32",
          "name": "role",
          "type": "bytes32"
        },
        {
          "internalType": "address",
          "name": "account",
          "type": "address"
        }
      ],
      "name": "grantRole",
      "outputs": [],
      "stateMutability": "nonpayable",
      "type": "function"
    },
    {
      "inputs": [
        {
          "internalType": "bytes32",
          "name": "role",
          "type": "bytes32"
        },
        {
          "internalType": "address",
          "name": "account",
          "type": "address"
        }
      ],
      "name": "hasRole",
      "outputs": [
        {
          "internalType": "bool",
          "name": "",
          "type": "bool"
        }
      ],
      "stateMutability": "view",
      "type": "function"
    },
    {
      "inputs": [],
      "name": "heartbeatStaleTimeLimit",
      "outputs": [
        {
          "internalType": "uint256",
          "name": "",
          "type": "uint256"
        }
      ],
      "stateMutability": "view",
      "type": "function"
    },
    {
      "inputs": [
        {
          "internalType": "address",
          "name": "asset",
          "type": "address"
        }
      ],
      "name": "removeThresholdConfig",
      "outputs": [],
      "stateMutability": "nonpayable",
      "type": "function"
    },
    {
      "inputs": [
        {
          "internalType": "bytes32",
          "name": "role",
          "type": "bytes32"
        },
        {
          "internalType": "address",
          "name": "callerConfirmation",
          "type": "address"
        }
      ],
      "name": "renounceRole",
      "outputs": [],
      "stateMutability": "nonpayable",
      "type": "function"
    },
    {
      "inputs": [
        {
          "internalType": "bytes32",
          "name": "role",
          "type": "bytes32"
        },
        {
          "internalType": "address",
          "name": "account",
          "type": "address"
        }
      ],
      "name": "revokeRole",
      "outputs": [],
      "stateMutability": "nonpayable",
      "type": "function"
    },
    {
      "inputs": [
        {
          "internalType": "address",
          "name": "asset",
          "type": "address"
        },
        {
          "internalType": "address",
          "name": "feed",
          "type": "address"
        }
      ],
      "name": "setFeed",
      "outputs": [],
      "stateMutability": "nonpayable",
      "type": "function"
    },
    {
      "inputs": [
        {
          "internalType": "uint256",
          "name": "_newHeartbeatStaleTimeLimit",
          "type": "uint256"
        }
      ],
      "name": "setHeartbeatStaleTimeLimit",
      "outputs": [],
      "stateMutability": "nonpayable",
      "type": "function"
    },
    {
      "inputs": [
        {
          "internalType": "address",
          "name": "asset",
          "type": "address"
        },
        {
          "internalType": "uint256",
          "name": "lowerThresholdInBase",
          "type": "uint256"
        },
        {
          "internalType": "uint256",
          "name": "fixedPriceInBase",
          "type": "uint256"
        }
      ],
      "name": "setThresholdConfig",
      "outputs": [],
      "stateMutability": "nonpayable",
      "type": "function"
    },
    {
      "inputs": [
        {
          "internalType": "bytes4",
          "name": "interfaceId",
          "type": "bytes4"
        }
      ],
      "name": "supportsInterface",
      "outputs": [
        {
          "internalType": "bool",
          "name": "",
          "type": "bool"
        }
      ],
      "stateMutability": "view",
      "type": "function"
    }
  ],
  "args": [
    "0x0000000000000000000000000000000000000000",
    "1000000000000000000"
  ],
  "numDeployments": 1,
  "solcInputHash": "d23fac67d21696ca60b395767d88a61e",
  "bytecode": "0x60c060405261070860015534801561001657600080fd5b50604051610dbc380380610dbc83398101604081905261003591610139565b6001600160a01b03821660805260a08190528181818161005660003361008d565b506100817fced6982f480260bdd8ad5cb18ff2854f0306d78d904ad6cc107e8f3a0f526c183361008d565b50505050505050610173565b6000828152602081815260408083206001600160a01b038516845290915281205460ff1661012f576000838152602081815260408083206001600160a01b03861684529091529020805460ff191660011790556100e73390565b6001600160a01b0316826001600160a01b0316847f2f8788117e7eff1d82e926ec794901d17c78024a50270940304540a733656f0d60405160405180910390a4506001610133565b5060005b92915050565b6000806040838503121561014c57600080fd5b82516001600160a01b038116811461016357600080fd5b6020939093015192949293505050565b60805160a051610c1d61019f60003960008181610225015261099f015260006103320152610c1d6000f3fe608060405234801561001057600080fd5b50600436106101425760003560e01c80638f7af421116100b8578063bfc69e1c1161007c578063bfc69e1c146102ec578063c5efe27c14610301578063caf6701f14610314578063d547741f1461031d578063e19f470014610330578063e6741de21461036a57600080fd5b80638f7af4211461026f57806391d1485414610282578063a217fddf14610295578063a794d1521461029d578063b3596f07146102d957600080fd5b80632f2ff15d1161010a5780632f2ff15d146101cd578063311d5c62146101e057806336568abe146101fa57806340b1eb101461020d5780638c89b64f146102205780638edbf4361461024757600080fd5b806301ffc9a714610147578063042818f91461016f57806308f7bfe114610184578063248a9ca3146101a15780632ecac6fc146101c4575b600080fd5b61015a6101553660046109ce565b610393565b60405190151581526020015b60405180910390f35b61018261017d366004610a1b565b6103ca565b005b610193670de0b6b3a764000081565b604051908152602001610166565b6101936101af366004610a36565b60009081526020819052604090206001015490565b61019360015481565b6101826101db366004610a4f565b61042d565b6101e8601281565b60405160ff9091168152602001610166565b610182610208366004610a4f565b610458565b61018261021b366004610a7b565b610490565b6101937f000000000000000000000000000000000000000000000000000000000000000081565b61025a610255366004610a1b565b610589565b60408051928352901515602083015201610166565b61018261027d366004610aa5565b6105ef565b61015a610290366004610a4f565b61067e565b610193600081565b6102c46102ab366004610a1b565b6003602052600090815260409020805460019091015482565b60408051928352602083019190915201610166565b6101936102e7366004610a1b565b6106a7565b610193600080516020610bc883398151915281565b61018261030f366004610a36565b6106de565b61019361384081565b61018261032b366004610a4f565b6106fc565b7f00000000000000000000000000000000000000000000000000000000000000005b6040516001600160a01b039091168152602001610166565b610352610378366004610a1b565b6002602052600090815260409020546001600160a01b031681565b60006001600160e01b03198216637965db0b60e01b14806103c457506301ffc9a760e01b6001600160e01b03198316145b92915050565b600080516020610bc88339815191526103e281610721565b6001600160a01b038216600081815260036020526040808220828155600101829055517fe33ca422cb32fc509d95272b11d42c89c665a8968c21a483226b773e18c072f19190a25050565b60008281526020819052604090206001015461044881610721565b610452838361072e565b50505050565b6001600160a01b03811633146104815760405163334bd91960e11b815260040160405180910390fd5b61048b82826107c0565b505050565b600080516020610bc88339815191526104a881610721565b60008290506000816001600160a01b031663313ce5676040518163ffffffff1660e01b8152600401602060405180830381865afa1580156104ed573d6000803e3d6000fd5b505050506040513d601f19601f820116820180604052508101906105119190610ad8565b905060ff8116601214610557576040516385d6e41f60e01b81526001600160a01b038516600482015260ff82166024820152601260448201526064015b60405180910390fd5b506001600160a01b03938416600090815260026020526040902080546001600160a01b03191691909416179092555050565b6000806105958361082b565b909250905080156105ea576001600160a01b0383166000908152600360209081526040918290208251808401909352805480845260019091015491830191909152156105e8576105e58382610934565b92505b505b915091565b600080516020610bc883398151915261060781610721565b60408051808201825284815260208082018581526001600160a01b038816600081815260038452859020935184559051600190930192909255825186815290810185905290917fc7f1785f536ea381a57caaf882172a5df51535dc45cf06657813919e3cf535e3910160405180910390a250505050565b6000918252602082815260408084206001600160a01b0393909316845291905290205460ff1690565b60008060006106b584610589565b91509150806106d7576040516342bc305b60e11b815260040160405180910390fd5b5092915050565b600080516020610bc88339815191526106f681610721565b50600155565b60008281526020819052604090206001015461071781610721565b61045283836107c0565b61072b8133610952565b50565b600061073a838361067e565b6107b8576000838152602081815260408083206001600160a01b03861684529091529020805460ff191660011790556107703390565b6001600160a01b0316826001600160a01b0316847f2f8788117e7eff1d82e926ec794901d17c78024a50270940304540a733656f0d60405160405180910390a45060016103c4565b5060006103c4565b60006107cc838361067e565b156107b8576000838152602081815260408083206001600160a01b0386168085529252808320805460ff1916905551339286917ff6391f5c32d9c69d2a47ea670b442974b53935d1edc7fd64eb21e047a839171b9190a45060016103c4565b6001600160a01b0380821660009081526002602052604081205490918291168061087357604051630dcaf86b60e01b81526001600160a01b038516600482015260240161054e565b600080826001600160a01b031663feaf968c6040518163ffffffff1660e01b815260040160a060405180830381865afa1580156108b4573d6000803e3d6000fd5b505050506040513d601f19601f820116820180604052508101906108d89190610b15565b50935050925050600082136108ff5760405162bfc92160e01b815260040160405180910390fd5b81945042600154613840836109149190610b7b565b61091e9190610b7b565b11935061092a8561098f565b9450505050915091565b805160009083111561094b575060208101516103c4565b5090919050565b61095c828261067e565b61098b5760405163e2517d3f60e01b81526001600160a01b03821660048201526024810183905260440161054e565b5050565b6000670de0b6b3a76400006109c47f000000000000000000000000000000000000000000000000000000000000000084610b8e565b6103c49190610ba5565b6000602082840312156109e057600080fd5b81356001600160e01b0319811681146109f857600080fd5b9392505050565b80356001600160a01b0381168114610a1657600080fd5b919050565b600060208284031215610a2d57600080fd5b6109f8826109ff565b600060208284031215610a4857600080fd5b5035919050565b60008060408385031215610a6257600080fd5b82359150610a72602084016109ff565b90509250929050565b60008060408385031215610a8e57600080fd5b610a97836109ff565b9150610a72602084016109ff565b600080600060608486031215610aba57600080fd5b610ac3846109ff565b95602085013595506040909401359392505050565b600060208284031215610aea57600080fd5b815160ff811681146109f857600080fd5b805169ffffffffffffffffffff81168114610a1657600080fd5b600080600080600060a08688031215610b2d57600080fd5b610b3686610afb565b9450602086015193506040860151925060608601519150610b5960808701610afb565b90509295509295909350565b634e487b7160e01b600052601160045260246000fd5b808201808211156103c4576103c4610b65565b80820281158282048414176103c4576103c4610b65565b600082610bc257634e487b7160e01b600052601260045260246000fd5b50049056feced6982f480260bdd8ad5cb18ff2854f0306d78d904ad6cc107e8f3a0f526c18a264697066735822122050ad1ad2887916028ca2f8952342c2197dead7008c1e04b51d53addba433dd4464736f6c63430008160033",
  "devdoc": {
    "errors": {
      "AccessControlBadConfirmation()": [
        {
          "details": "The caller of a function is not the expected one. NOTE: Don't confuse with {AccessControlUnauthorizedAccount}."
        }
      ],
      "AccessControlUnauthorizedAccount(address,bytes32)": [
        {
          "details": "The `account` is missing a role."
        }
      ]
    },
    "events": {
      "RoleAdminChanged(bytes32,bytes32,bytes32)": {
        "details": "Emitted when `newAdminRole` is set as ``role``'s admin role, replacing `previousAdminRole` `DEFAULT_ADMIN_ROLE` is the starting admin for all roles, despite {RoleAdminChanged} not being emitted to signal this."
      },
      "RoleGranted(bytes32,address,address)": {
        "details": "Emitted when `account` is granted `role`. `sender` is the account that originated the contract call. This account bears the admin role (for the granted role). Expected in cases where the role was granted using the internal {AccessControl-_grantRole}."
      },
      "RoleRevoked(bytes32,address,address)": {
        "details": "Emitted when `account` is revoked `role`. `sender` is the account that originated the contract call:   - if using `revokeRole`, it is the admin role bearer   - if using `renounceRole`, it is the role bearer (i.e. `account`)"
      }
    },
    "kind": "dev",
    "methods": {
      "BASE_CURRENCY()": {
        "returns": {
          "_0": "Returns the base currency address"
        }
      },
      "getAssetPrice(address)": {
        "params": {
          "asset": "The address of the asset to get the price for"
        },
        "returns": {
          "_0": "The current price of the asset"
        }
      },
      "getPriceInfo(address)": {
        "params": {
          "asset": "The address of the asset to get the price for"
        },
        "returns": {
          "isAlive": "Whether the price feed is considered active/valid",
          "price": "The price of the asset in base currency units"
        }
      },
      "getRoleAdmin(bytes32)": {
        "details": "Returns the admin role that controls `role`. See {grantRole} and {revokeRole}. To change a role's admin, use {_setRoleAdmin}."
      },
      "grantRole(bytes32,address)": {
        "details": "Grants `role` to `account`. If `account` had not been already granted `role`, emits a {RoleGranted} event. Requirements: - the caller must have ``role``'s admin role. May emit a {RoleGranted} event."
      },
      "hasRole(bytes32,address)": {
        "details": "Returns `true` if `account` has been granted `role`."
      },
      "renounceRole(bytes32,address)": {
        "details": "Revokes `role` from the calling account. Roles are often managed via {grantRole} and {revokeRole}: this function's purpose is to provide a mechanism for accounts to lose their privileges if they are compromised (such as when a trusted device is misplaced). If the calling account had been revoked `role`, emits a {RoleRevoked} event. Requirements: - the caller must be `callerConfirmation`. May emit a {RoleRevoked} event."
      },
      "revokeRole(bytes32,address)": {
        "details": "Revokes `role` from `account`. If `account` had been granted `role`, emits a {RoleRevoked} event. Requirements: - the caller must have ``role``'s admin role. May emit a {RoleRevoked} event."
      },
      "setFeed(address,address)": {
        "details": "Validates that the feed decimals match the base currency decimals",
        "params": {
          "asset": "The address of the asset",
          "feed": "The address of the Tellor oracle feed"
        }
      },
      "setHeartbeatStaleTimeLimit(uint256)": {
        "params": {
          "_newHeartbeatStaleTimeLimit": "The new heartbeat stale time limit"
        }
      },
      "supportsInterface(bytes4)": {
        "details": "Returns true if this contract implements the interface defined by `interfaceId`. See the corresponding https://eips.ethereum.org/EIPS/eip-165#how-interfaces-are-identified[ERC section] to learn more about how these ids are created. This function call must use less than 30 000 gas."
      }
    },
    "version": 1
  },
  "userdoc": {
    "kind": "user",
    "methods": {
      "BASE_CURRENCY()": {
        "notice": "Returns the base currency address"
      },
      "BASE_CURRENCY_UNIT()": {
        "notice": "Returns the base currency unit"
      },
      "getAssetPrice(address)": {
        "notice": "Gets the current price of an asset"
      },
      "getPriceInfo(address)": {
        "notice": "Gets the price information for an asset"
      },
      "setFeed(address,address)": {
        "notice": "Sets the Tellor oracle feed for an asset"
      },
      "setHeartbeatStaleTimeLimit(uint256)": {
        "notice": "Sets the heartbeat stale time limit"
      }
    },
    "version": 1
  },
  "storageLayout": {
    "storage": [
      {
        "astId": 27,
        "contract": "contracts/oracle_aggregator/wrapper/TellorWrapperWithThresholding.sol:TellorWrapperWithThresholding",
        "label": "_roles",
        "offset": 0,
        "slot": "0",
        "type": "t_mapping(t_bytes32,t_struct(RoleData)22_storage)"
      },
      {
        "astId": 655,
        "contract": "contracts/oracle_aggregator/wrapper/TellorWrapperWithThresholding.sol:TellorWrapperWithThresholding",
        "label": "heartbeatStaleTimeLimit",
        "offset": 0,
        "slot": "1",
        "type": "t_uint256"
      },
      {
        "astId": 817,
        "contract": "contracts/oracle_aggregator/wrapper/TellorWrapperWithThresholding.sol:TellorWrapperWithThresholding",
        "label": "assetToFeed",
        "offset": 0,
        "slot": "2",
        "type": "t_mapping(t_address,t_contract(LiquityV2OracleAggregatorV3Interface)805)"
      },
      {
        "astId": 959,
        "contract": "contracts/oracle_aggregator/wrapper/TellorWrapperWithThresholding.sol:TellorWrapperWithThresholding",
        "label": "assetThresholds",
        "offset": 0,
        "slot": "3",
        "type": "t_mapping(t_address,t_struct(ThresholdConfig)1081_storage)"
      }
    ],
    "types": {
      "t_address": {
        "encoding": "inplace",
        "label": "address",
        "numberOfBytes": "20"
      },
      "t_bool": {
        "encoding": "inplace",
        "label": "bool",
        "numberOfBytes": "1"
      },
      "t_bytes32": {
        "encoding": "inplace",
        "label": "bytes32",
        "numberOfBytes": "32"
      },
      "t_contract(LiquityV2OracleAggregatorV3Interface)805": {
        "encoding": "inplace",
        "label": "contract LiquityV2OracleAggregatorV3Interface",
        "numberOfBytes": "20"
      },
      "t_mapping(t_address,t_bool)": {
        "encoding": "mapping",
        "key": "t_address",
        "label": "mapping(address => bool)",
        "numberOfBytes": "32",
        "value": "t_bool"
      },
      "t_mapping(t_address,t_contract(LiquityV2OracleAggregatorV3Interface)805)": {
        "encoding": "mapping",
        "key": "t_address",
        "label": "mapping(address => contract LiquityV2OracleAggregatorV3Interface)",
        "numberOfBytes": "32",
        "value": "t_contract(LiquityV2OracleAggregatorV3Interface)805"
      },
      "t_mapping(t_address,t_struct(ThresholdConfig)1081_storage)": {
        "encoding": "mapping",
        "key": "t_address",
        "label": "mapping(address => struct ThresholdingUtils.ThresholdConfig)",
        "numberOfBytes": "32",
        "value": "t_struct(ThresholdConfig)1081_storage"
      },
      "t_mapping(t_bytes32,t_struct(RoleData)22_storage)": {
        "encoding": "mapping",
        "key": "t_bytes32",
        "label": "mapping(bytes32 => struct AccessControl.RoleData)",
        "numberOfBytes": "32",
        "value": "t_struct(RoleData)22_storage"
      },
      "t_struct(RoleData)22_storage": {
        "encoding": "inplace",
        "label": "struct AccessControl.RoleData",
        "members": [
          {
            "astId": 19,
            "contract": "contracts/oracle_aggregator/wrapper/TellorWrapperWithThresholding.sol:TellorWrapperWithThresholding",
            "label": "hasRole",
            "offset": 0,
            "slot": "0",
            "type": "t_mapping(t_address,t_bool)"
          },
          {
            "astId": 21,
            "contract": "contracts/oracle_aggregator/wrapper/TellorWrapperWithThresholding.sol:TellorWrapperWithThresholding",
            "label": "adminRole",
            "offset": 0,
            "slot": "1",
            "type": "t_bytes32"
          }
        ],
        "numberOfBytes": "64"
      },
      "t_struct(ThresholdConfig)1081_storage": {
        "encoding": "inplace",
        "label": "struct ThresholdingUtils.ThresholdConfig",
        "members": [
          {
            "astId": 1078,
            "contract": "contracts/oracle_aggregator/wrapper/TellorWrapperWithThresholding.sol:TellorWrapperWithThresholding",
            "label": "lowerThresholdInBase",
            "offset": 0,
            "slot": "0",
            "type": "t_uint256"
          },
          {
            "astId": 1080,
            "contract": "contracts/oracle_aggregator/wrapper/TellorWrapperWithThresholding.sol:TellorWrapperWithThresholding",
            "label": "fixedPriceInBase",
            "offset": 0,
            "slot": "1",
            "type": "t_uint256"
          }
        ],
        "numberOfBytes": "64"
      },
      "t_uint256": {
        "encoding": "inplace",
        "label": "uint256",
        "numberOfBytes": "32"
      }
    }
  }
}